{
  "contractName": "Characters",
  "abi": [
    {
      "inputs": [],
      "stateMutability": "nonpayable",
      "type": "constructor"
    },
    {
      "anonymous": false,
      "inputs": [
        {
          "indexed": true,
          "internalType": "address",
          "name": "owner",
          "type": "address"
        },
        {
          "indexed": true,
          "internalType": "address",
          "name": "approved",
          "type": "address"
        },
        {
          "indexed": true,
          "internalType": "uint256",
          "name": "tokenId",
          "type": "uint256"
        }
      ],
      "name": "Approval",
      "type": "event"
    },
    {
      "anonymous": false,
      "inputs": [
        {
          "indexed": true,
          "internalType": "address",
          "name": "owner",
          "type": "address"
        },
        {
          "indexed": true,
          "internalType": "address",
          "name": "operator",
          "type": "address"
        },
        {
          "indexed": false,
          "internalType": "bool",
          "name": "approved",
          "type": "bool"
        }
      ],
      "name": "ApprovalForAll",
      "type": "event"
    },
    {
      "anonymous": false,
      "inputs": [
        {
          "indexed": true,
          "internalType": "address",
          "name": "previousOwner",
          "type": "address"
        },
        {
          "indexed": true,
          "internalType": "address",
          "name": "newOwner",
          "type": "address"
        }
      ],
      "name": "OwnershipTransferred",
      "type": "event"
    },
    {
      "anonymous": false,
      "inputs": [
        {
          "indexed": true,
          "internalType": "bytes32",
          "name": "role",
          "type": "bytes32"
        },
        {
          "indexed": true,
          "internalType": "bytes32",
          "name": "previousAdminRole",
          "type": "bytes32"
        },
        {
          "indexed": true,
          "internalType": "bytes32",
          "name": "newAdminRole",
          "type": "bytes32"
        }
      ],
      "name": "RoleAdminChanged",
      "type": "event"
    },
    {
      "anonymous": false,
      "inputs": [
        {
          "indexed": true,
          "internalType": "bytes32",
          "name": "role",
          "type": "bytes32"
        },
        {
          "indexed": true,
          "internalType": "address",
          "name": "account",
          "type": "address"
        },
        {
          "indexed": true,
          "internalType": "address",
          "name": "sender",
          "type": "address"
        }
      ],
      "name": "RoleGranted",
      "type": "event"
    },
    {
      "anonymous": false,
      "inputs": [
        {
          "indexed": true,
          "internalType": "bytes32",
          "name": "role",
          "type": "bytes32"
        },
        {
          "indexed": true,
          "internalType": "address",
          "name": "account",
          "type": "address"
        },
        {
          "indexed": true,
          "internalType": "address",
          "name": "sender",
          "type": "address"
        }
      ],
      "name": "RoleRevoked",
      "type": "event"
    },
    {
      "anonymous": false,
      "inputs": [
        {
          "indexed": false,
          "internalType": "uint256",
          "name": "tokenId",
          "type": "uint256"
        },
        {
          "components": [
            {
              "internalType": "address payable",
              "name": "account",
              "type": "address"
            },
            {
              "internalType": "uint96",
              "name": "value",
              "type": "uint96"
            }
          ],
          "indexed": false,
          "internalType": "struct LibPart.Part[]",
          "name": "royalties",
          "type": "tuple[]"
        }
      ],
      "name": "RoyaltiesSet",
      "type": "event"
    },
    {
      "anonymous": false,
      "inputs": [
        {
          "indexed": true,
          "internalType": "address",
          "name": "from",
          "type": "address"
        },
        {
          "indexed": true,
          "internalType": "address",
          "name": "to",
          "type": "address"
        },
        {
          "indexed": true,
          "internalType": "uint256",
          "name": "tokenId",
          "type": "uint256"
        }
      ],
      "name": "Transfer",
      "type": "event"
    },
    {
      "inputs": [],
      "name": "DEFAULT_ADMIN_ROLE",
      "outputs": [
        {
          "internalType": "bytes32",
          "name": "",
          "type": "bytes32"
        }
      ],
      "stateMutability": "view",
      "type": "function",
      "constant": true
    },
    {
      "inputs": [],
      "name": "MINTER_ROLE",
      "outputs": [
        {
          "internalType": "bytes32",
          "name": "",
          "type": "bytes32"
        }
      ],
      "stateMutability": "view",
      "type": "function",
      "constant": true
    },
    {
      "inputs": [],
      "name": "POLYMATH_ROLE",
      "outputs": [
        {
          "internalType": "bytes32",
          "name": "",
          "type": "bytes32"
        }
      ],
      "stateMutability": "view",
      "type": "function",
      "constant": true
    },
    {
      "inputs": [],
      "name": "QUEST_ROLE",
      "outputs": [
        {
          "internalType": "bytes32",
          "name": "",
          "type": "bytes32"
        }
      ],
      "stateMutability": "view",
      "type": "function",
      "constant": true
    },
    {
      "inputs": [
        {
          "internalType": "address",
          "name": "to",
          "type": "address"
        },
        {
          "internalType": "uint256",
          "name": "tokenId",
          "type": "uint256"
        }
      ],
      "name": "approve",
      "outputs": [],
      "stateMutability": "nonpayable",
      "type": "function"
    },
    {
      "inputs": [
        {
          "internalType": "address",
          "name": "owner",
          "type": "address"
        }
      ],
      "name": "balanceOf",
      "outputs": [
        {
          "internalType": "uint256",
          "name": "",
          "type": "uint256"
        }
      ],
      "stateMutability": "view",
      "type": "function",
      "constant": true
    },
    {
      "inputs": [
        {
          "internalType": "uint256",
          "name": "tokenId",
          "type": "uint256"
        }
      ],
      "name": "getApproved",
      "outputs": [
        {
          "internalType": "address",
          "name": "",
          "type": "address"
        }
      ],
      "stateMutability": "view",
      "type": "function",
      "constant": true
    },
    {
      "inputs": [
        {
          "internalType": "uint256",
          "name": "id",
          "type": "uint256"
        }
      ],
      "name": "getRaribleV2Royalties",
      "outputs": [
        {
          "components": [
            {
              "internalType": "address payable",
              "name": "account",
              "type": "address"
            },
            {
              "internalType": "uint96",
              "name": "value",
              "type": "uint96"
            }
          ],
          "internalType": "struct LibPart.Part[]",
          "name": "",
          "type": "tuple[]"
        }
      ],
      "stateMutability": "view",
      "type": "function",
      "constant": true
    },
    {
      "inputs": [
        {
          "internalType": "bytes32",
          "name": "role",
          "type": "bytes32"
        }
      ],
      "name": "getRoleAdmin",
      "outputs": [
        {
          "internalType": "bytes32",
          "name": "",
          "type": "bytes32"
        }
      ],
      "stateMutability": "view",
      "type": "function",
      "constant": true
    },
    {
      "inputs": [
        {
          "internalType": "bytes32",
          "name": "role",
          "type": "bytes32"
        },
        {
          "internalType": "uint256",
          "name": "index",
          "type": "uint256"
        }
      ],
      "name": "getRoleMember",
      "outputs": [
        {
          "internalType": "address",
          "name": "",
          "type": "address"
        }
      ],
      "stateMutability": "view",
      "type": "function",
      "constant": true
    },
    {
      "inputs": [
        {
          "internalType": "bytes32",
          "name": "role",
          "type": "bytes32"
        }
      ],
      "name": "getRoleMemberCount",
      "outputs": [
        {
          "internalType": "uint256",
          "name": "",
          "type": "uint256"
        }
      ],
      "stateMutability": "view",
      "type": "function",
      "constant": true
    },
    {
      "inputs": [
        {
          "internalType": "bytes32",
          "name": "role",
          "type": "bytes32"
        },
        {
          "internalType": "address",
          "name": "account",
          "type": "address"
        }
      ],
      "name": "grantRole",
      "outputs": [],
      "stateMutability": "nonpayable",
      "type": "function"
    },
    {
      "inputs": [
        {
          "internalType": "bytes32",
          "name": "role",
          "type": "bytes32"
        },
        {
          "internalType": "address",
          "name": "account",
          "type": "address"
        }
      ],
      "name": "hasRole",
      "outputs": [
        {
          "internalType": "bool",
          "name": "",
          "type": "bool"
        }
      ],
      "stateMutability": "view",
      "type": "function",
      "constant": true
    },
    {
      "inputs": [
        {
          "internalType": "address",
          "name": "owner",
          "type": "address"
        },
        {
          "internalType": "address",
          "name": "operator",
          "type": "address"
        }
      ],
      "name": "isApprovedForAll",
      "outputs": [
        {
          "internalType": "bool",
          "name": "",
          "type": "bool"
        }
      ],
      "stateMutability": "view",
      "type": "function",
      "constant": true
    },
    {
      "inputs": [],
      "name": "name",
      "outputs": [
        {
          "internalType": "string",
          "name": "",
          "type": "string"
        }
      ],
      "stateMutability": "view",
      "type": "function",
      "constant": true
    },
    {
      "inputs": [],
      "name": "owner",
      "outputs": [
        {
          "internalType": "address",
          "name": "",
          "type": "address"
        }
      ],
      "stateMutability": "view",
      "type": "function",
      "constant": true
    },
    {
      "inputs": [
        {
          "internalType": "uint256",
          "name": "tokenId",
          "type": "uint256"
        }
      ],
      "name": "ownerOf",
      "outputs": [
        {
          "internalType": "address",
          "name": "",
          "type": "address"
        }
      ],
      "stateMutability": "view",
      "type": "function",
      "constant": true
    },
    {
      "inputs": [],
      "name": "renounceOwnership",
      "outputs": [],
      "stateMutability": "nonpayable",
      "type": "function"
    },
    {
      "inputs": [
        {
          "internalType": "bytes32",
          "name": "role",
          "type": "bytes32"
        },
        {
          "internalType": "address",
          "name": "account",
          "type": "address"
        }
      ],
      "name": "renounceRole",
      "outputs": [],
      "stateMutability": "nonpayable",
      "type": "function"
    },
    {
      "inputs": [
        {
          "internalType": "bytes32",
          "name": "role",
          "type": "bytes32"
        },
        {
          "internalType": "address",
          "name": "account",
          "type": "address"
        }
      ],
      "name": "revokeRole",
      "outputs": [],
      "stateMutability": "nonpayable",
      "type": "function"
    },
    {
      "inputs": [
        {
          "internalType": "uint256",
          "name": "",
          "type": "uint256"
        },
        {
          "internalType": "uint256",
          "name": "",
          "type": "uint256"
        }
      ],
      "name": "royalties",
      "outputs": [
        {
          "internalType": "address payable",
          "name": "account",
          "type": "address"
        },
        {
          "internalType": "uint96",
          "name": "value",
          "type": "uint96"
        }
      ],
      "stateMutability": "view",
      "type": "function",
      "constant": true
    },
    {
      "inputs": [
        {
          "internalType": "address",
          "name": "from",
          "type": "address"
        },
        {
          "internalType": "address",
          "name": "to",
          "type": "address"
        },
        {
          "internalType": "uint256",
          "name": "tokenId",
          "type": "uint256"
        }
      ],
      "name": "safeTransferFrom",
      "outputs": [],
      "stateMutability": "nonpayable",
      "type": "function"
    },
    {
      "inputs": [
        {
          "internalType": "address",
          "name": "from",
          "type": "address"
        },
        {
          "internalType": "address",
          "name": "to",
          "type": "address"
        },
        {
          "internalType": "uint256",
          "name": "tokenId",
          "type": "uint256"
        },
        {
          "internalType": "bytes",
          "name": "_data",
          "type": "bytes"
        }
      ],
      "name": "safeTransferFrom",
      "outputs": [],
      "stateMutability": "nonpayable",
      "type": "function"
    },
    {
      "inputs": [
        {
          "internalType": "address",
          "name": "operator",
          "type": "address"
        },
        {
          "internalType": "bool",
          "name": "approved",
          "type": "bool"
        }
      ],
      "name": "setApprovalForAll",
      "outputs": [],
      "stateMutability": "nonpayable",
      "type": "function"
    },
    {
      "inputs": [],
      "name": "symbol",
      "outputs": [
        {
          "internalType": "string",
          "name": "",
          "type": "string"
        }
      ],
      "stateMutability": "view",
      "type": "function",
      "constant": true
    },
    {
      "inputs": [
        {
          "internalType": "uint256",
          "name": "tokenId",
          "type": "uint256"
        }
      ],
      "name": "tokenURI",
      "outputs": [
        {
          "internalType": "string",
          "name": "",
          "type": "string"
        }
      ],
      "stateMutability": "view",
      "type": "function",
      "constant": true
    },
    {
      "inputs": [
        {
          "internalType": "address",
          "name": "newOwner",
          "type": "address"
        }
      ],
      "name": "transferOwnership",
      "outputs": [],
      "stateMutability": "nonpayable",
      "type": "function"
    },
    {
      "inputs": [
        {
          "internalType": "address",
          "name": "_to",
          "type": "address"
        },
        {
          "internalType": "string",
          "name": "cname",
          "type": "string"
        },
        {
          "internalType": "uint16",
          "name": "race",
          "type": "uint16"
        }
      ],
      "name": "mint",
      "outputs": [],
      "stateMutability": "nonpayable",
      "type": "function"
    },
    {
      "inputs": [
        {
          "internalType": "address",
          "name": "equipment",
          "type": "address"
        }
      ],
      "name": "setEquipmentAddress",
      "outputs": [],
      "stateMutability": "nonpayable",
      "type": "function"
    },
    {
      "inputs": [
        {
          "internalType": "address",
          "name": "gameStats",
          "type": "address"
        }
      ],
      "name": "setGameStatsAddress",
      "outputs": [],
      "stateMutability": "nonpayable",
      "type": "function"
    },
    {
      "inputs": [
        {
          "internalType": "uint256",
          "name": "playerId",
          "type": "uint256"
        },
        {
          "internalType": "uint256",
          "name": "timestamp",
          "type": "uint256"
        }
      ],
      "name": "setTimeLock",
      "outputs": [],
      "stateMutability": "nonpayable",
      "type": "function"
    },
    {
      "inputs": [
        {
          "internalType": "address payable",
          "name": "rAddress",
          "type": "address"
        }
      ],
      "name": "setRoyaltiesAddress",
      "outputs": [],
      "stateMutability": "nonpayable",
      "type": "function"
    },
    {
      "inputs": [
        {
          "internalType": "uint96",
          "name": "rBasicPoints",
          "type": "uint96"
        }
      ],
      "name": "setRoyaltiesBasicPoints",
      "outputs": [],
      "stateMutability": "nonpayable",
      "type": "function"
    },
    {
      "inputs": [
        {
          "internalType": "uint256",
          "name": "lvl",
          "type": "uint256"
        },
        {
          "internalType": "uint16[]",
          "name": "matrixValues",
          "type": "uint16[]"
        }
      ],
      "name": "setMaxLevel",
      "outputs": [],
      "stateMutability": "nonpayable",
      "type": "function"
    },
    {
      "inputs": [],
      "name": "getMatrix",
      "outputs": [
        {
          "internalType": "uint16[]",
          "name": "",
          "type": "uint16[]"
        }
      ],
      "stateMutability": "view",
      "type": "function",
      "constant": true
    },
    {
      "inputs": [
        {
          "internalType": "address",
          "name": "powner",
          "type": "address"
        }
      ],
      "name": "getCharacters",
      "outputs": [
        {
          "internalType": "uint256[]",
          "name": "",
          "type": "uint256[]"
        }
      ],
      "stateMutability": "view",
      "type": "function",
      "constant": true
    },
    {
      "inputs": [
        {
          "internalType": "uint256",
          "name": "idPJ",
          "type": "uint256"
        }
      ],
      "name": "baseStats",
      "outputs": [
        {
          "components": [
            {
              "internalType": "string",
              "name": "name",
              "type": "string"
            },
            {
              "internalType": "uint16",
              "name": "race",
              "type": "uint16"
            },
            {
              "internalType": "uint16",
              "name": "level",
              "type": "uint16"
            },
            {
              "internalType": "uint256[11]",
              "name": "gear",
              "type": "uint256[11]"
            },
            {
              "internalType": "uint256",
              "name": "timeLock",
              "type": "uint256"
            },
            {
              "internalType": "uint256",
              "name": "lastCache",
              "type": "uint256"
            },
            {
              "components": [
                {
                  "internalType": "uint16[8]",
                  "name": "values",
                  "type": "uint16[8]"
                }
              ],
              "internalType": "struct GameStats.BaseStats",
              "name": "cachedStats",
              "type": "tuple"
            }
          ],
          "internalType": "struct Characters.charData",
          "name": "",
          "type": "tuple"
        }
      ],
      "stateMutability": "view",
      "type": "function",
      "constant": true
    },
    {
      "inputs": [
        {
          "internalType": "uint256",
          "name": "character",
          "type": "uint256"
        }
      ],
      "name": "updateLevel",
      "outputs": [],
      "stateMutability": "nonpayable",
      "type": "function"
    },
    {
      "inputs": [
        {
          "internalType": "uint256",
          "name": "character",
          "type": "uint256"
        },
        {
          "internalType": "uint256[11]",
          "name": "gear",
          "type": "uint256[11]"
        }
      ],
      "name": "equip",
      "outputs": [],
      "stateMutability": "nonpayable",
      "type": "function"
    },
    {
      "inputs": [
        {
          "internalType": "uint256",
          "name": "idPJ",
          "type": "uint256"
        }
      ],
      "name": "updateCache",
      "outputs": [],
      "stateMutability": "nonpayable",
      "type": "function"
    },
    {
      "inputs": [
        {
          "internalType": "uint256",
          "name": "idPJ",
          "type": "uint256"
        }
      ],
      "name": "recalculateStats",
      "outputs": [],
      "stateMutability": "nonpayable",
      "type": "function"
    },
    {
      "inputs": [
        {
          "internalType": "uint256",
          "name": "tokenId",
          "type": "uint256"
        }
      ],
      "name": "exists",
      "outputs": [
        {
          "internalType": "bool",
          "name": "",
          "type": "bool"
        }
      ],
      "stateMutability": "view",
      "type": "function",
      "constant": true
    },
    {
      "inputs": [
        {
          "internalType": "address",
          "name": "from",
          "type": "address"
        },
        {
          "internalType": "address",
          "name": "to",
          "type": "address"
        },
        {
          "internalType": "uint256",
          "name": "tokenId",
          "type": "uint256"
        }
      ],
      "name": "transferFrom",
      "outputs": [],
      "stateMutability": "nonpayable",
      "type": "function"
    },
    {
      "inputs": [
        {
          "internalType": "uint256",
          "name": "_tokenId",
          "type": "uint256"
        },
        {
          "internalType": "address payable",
          "name": "_royaltiesReceipientAddress",
          "type": "address"
        },
        {
          "internalType": "uint96",
          "name": "_percentageBasisPoints",
          "type": "uint96"
        }
      ],
      "name": "setRoyalties",
      "outputs": [],
      "stateMutability": "nonpayable",
      "type": "function"
    },
    {
      "inputs": [
        {
          "internalType": "uint256",
          "name": "_tokenId",
          "type": "uint256"
        },
        {
          "internalType": "uint256",
          "name": "_salePrice",
          "type": "uint256"
        }
      ],
      "name": "royaltyInfo",
      "outputs": [
        {
          "internalType": "address",
          "name": "receiver",
          "type": "address"
        },
        {
          "internalType": "uint256",
          "name": "royaltyAmount",
          "type": "uint256"
        }
      ],
      "stateMutability": "view",
      "type": "function",
      "constant": true
    },
    {
      "inputs": [
        {
          "internalType": "bytes4",
          "name": "interfaceId",
          "type": "bytes4"
        }
      ],
      "name": "supportsInterface",
      "outputs": [
        {
          "internalType": "bool",
          "name": "",
          "type": "bool"
        }
      ],
      "stateMutability": "view",
      "type": "function",
      "constant": true
    },
    {
      "inputs": [
        {
          "internalType": "address",
          "name": "powner",
          "type": "address"
        },
        {
          "internalType": "uint256",
          "name": "tokenId",
          "type": "uint256"
        }
      ],
      "name": "positionOf",
      "outputs": [
        {
          "internalType": "bool",
          "name": "",
          "type": "bool"
        },
        {
          "internalType": "uint256",
          "name": "",
          "type": "uint256"
        }
      ],
      "stateMutability": "view",
      "type": "function",
      "constant": true
    }
  ],
  "bytecode": "0x60806040523480156200001157600080fd5b50604080518082018252601a81527f436861696e73206f6620476c6f7279204368617261637465727300000000000060208083019182528351808501909452600384527f43474300000000000000000000000000000000000000000000000000000000009084015281519192916200008c916000916200133d565b508051620000a29060019060208401906200133d565b505050620000d1620000c2620002a2640100000000026401000000009004565b640100000000620002a6810204565b620000f96000620000ea640100000000620002a2810204565b640100000000620002f8810204565b6200012060008051602062006635833981519152620000ea640100000000620002a2810204565b620001587ff981fb6fdf0d58703d02e1dadceeaa95ac8ae9afe74ea698f2124fae240aabb0620000ea640100000000620002a2810204565b620001907f19ac353dd86d6954025a359137447e1fda8f14ba7ba6373372af73b706fa3b22620000ea640100000000620002a2810204565b307505dc000000000000000000000000000000000000000017600d55620001b6620013cc565b805180518291600f91620001d29183916020909101906200133d565b506020820151600182018054604085015161ffff908116620100000263ffffffff1990921693169290921791909117905560608201516200021a906002830190600b62001420565b506080820151600d82015560a0820151600e82015560c08201518051600f8301906200024a908290600862001450565b5050509050506200029b6200026d620002a2640100000000026401000000009004565b62000287600c6401000000006200255e6200031182021704565b640100000000620025626200031582021704565b50620019d1565b3390565b60088054600160a060020a03838116600160a060020a0319831681179093556040519116919082907f8be0079c531659141344cd1fd0a4f28419497f9722a3daafe3b4186f6b6457e090600090a35050565b6200030d8282640100000000620004a8810204565b5050565b5490565b600160a060020a0382166200038b576040517f08c379a000000000000000000000000000000000000000000000000000000000815260206004820181905260248201527f4552433732313a206d696e7420746f20746865207a65726f206164647265737360448201526064015b60405180910390fd5b6200039f81640100000000620004ef810204565b1562000408576040517f08c379a000000000000000000000000000000000000000000000000000000000815260206004820152601c60248201527f4552433732313a20746f6b656e20616c7265616479206d696e74656400000000604482015260640162000382565b6200041f600083836401000000006200050c810204565b600160a060020a03821660009081526003602052604081208054600192906200044a908490620017f6565b90915550506000818152600260205260408082208054600160a060020a031916600160a060020a03861690811790915590518392907fddf252ad1be2c89b69c2b068fc378daa952ba7f163c4a11628f55a4df523b3ef908290a45050565b620004c28282640100000000620026b6620007d482021704565b6000828152600760205260409020620004ea90826401000000006200273c6200087282021704565b505050565b600090815260026020526040902054600160a060020a0316151590565b600160a060020a0383166200077057600f602160006200053b600c6401000000006200255e6200031182021704565b815260208101919091526040016000208154819083906200055c90620018a1565b62000569929190620014e8565b5060018281018054918301805461ffff93841661ffff19821681178355925463ffffffff199091169092176201000092839004909316909102919091179055620005bc6002808301908401600b6200156c565b50600d8281015490820155600e8083015490820155600f808301908201620005e78183600862001599565b5050509050506200060d600c6200089b6401000000000262002751176401000000009004565b600d5462000652908290600160a060020a038116907401000000000000000000000000000000000000000090046001606060020a0316640100000000620008a4810204565b60005b600b8110156200073057601181600b811062000675576200067562001973565b0154156200071b57600b8054600160a060020a03169063c57d075f9060119084908110620006a757620006a762001973565b01546040517c010000000000000000000000000000000000000000000000000000000063ffffffff8416028152600481019190915260248101859052604401600060405180830381600087803b1580156200070157600080fd5b505af115801562000716573d6000803e3d6000fd5b505050505b806200072781620018f7565b91505062000655565b50600160a060020a038216600090815260226020908152604082208054600181018255908352912001819055620004ea8164010000000062000a2e810204565b600160a060020a0382166200079457620004ea838264010000000062000e4a810204565b600160a060020a038216600090815260226020908152604082208054600181018255908352912001819055620004ea838264010000000062000e4a810204565b620007e9828264010000000062000f40810204565b6200030d576000828152600660209081526040808320600160a060020a03851684529091529020805460ff191660011790556200082e640100000000620002a2810204565b600160a060020a031681600160a060020a0316837f2f8788117e7eff1d82e926ec794901d17c78024a50270940304540a733656f0d60405160405180910390a45050565b60006200089283600160a060020a03841664010000000062000f6b810204565b90505b92915050565b80546001019055565b620008da60008051602062006635833981519152620008cb640100000000620002a2810204565b64010000000062000f40810204565b62000968576040517f08c379a000000000000000000000000000000000000000000000000000000000815260206004820152602860248201527f457863657074696f6e3a206d7573742068617665206d696e74657220726f6c6560448201527f20746f206d696e74000000000000000000000000000000000000000000000000606482015260840162000382565b604080516001808252818301909252600091816020015b60408051808201909152600080825260208201528152602001906001900390816200097f5790505090508181600081518110620009c057620009c062001973565b6020026020010151602001906001606060020a031690816001606060020a0316815250508281600081518110620009fb57620009fb62001973565b6020908102919091010151600160a060020a03909116905262000a28848264010000000062000fc3810204565b50505050565b8062000a375750565b600a54600082815260216020526040908190206001015490517f6b60266500000000000000000000000000000000000000000000000000000000815261ffff9091166004820152600160a060020a0390911690636b602665906024016101006040518083038186803b15801562000aad57600080fd5b505afa15801562000ac2573d6000803e3d6000fd5b505050506040513d601f19601f8201168201806040525081019062000ae89190620016dd565b5160008281526021602052604090208151600f9091019062000b0e908290600862001450565b5090505060005b60008290526021602052600881101562000c565760008281526021602090815260409091206001015481546064929162010000900461ffff1690811062000b605762000b6062001973565b6000918252602080832060108304015486845260219091526040909220600f9182166002026101000a90920461ffff169101836008811062000ba65762000ba662001973565b601091828204019190066002029054906101000a900461ffff1662000bcc91906200185a565b62000bd8919062001811565b6000838152602160205260409020600f01826008811062000bfd5762000bfd62001973565b601091828204019190066002028282829054906101000a900461ffff1662000c269190620017cd565b92506101000a81548161ffff021916908361ffff160217905550808062000c4d90620018f7565b91505062000b15565b5060005b60008290526021602052600b81101562000e3257600082815260216020526040902060020181600b811062000c935762000c9362001973565b01541562000e1d57600b805460008481526021602052604081209092600160a060020a0390921691637896ab9291600201908590811062000cd85762000cd862001973565b01546040518263ffffffff167c010000000000000000000000000000000000000000000000000000000002815260040162000d1591815260200190565b6101006040518083038186803b15801562000d2f57600080fd5b505afa15801562000d44573d6000803e3d6000fd5b505050506040513d601f19601f8201168201806040525081019062000d6a9190620016bd565b905060005b600881101562000e1a578151816008811062000d8f5762000d8f62001973565b602002015160216000868152602001908152602001600020600f01600001826008811062000dc15762000dc162001973565b601091828204019190066002028282829054906101000a900461ffff1662000dea9190620017cd565b92506101000a81548161ffff021916908361ffff160217905550808062000e1190620018f7565b91505062000d6f565b50505b8062000e2981620018f7565b91505062000c5a565b50600090815260216020526040902042600e90910155565b60008062000e6284846401000000006200124c810204565b91509150811562000a2857600160a060020a0384166000908152602260205260409020805462000e959060019062001887565b8154811062000ea85762000ea862001973565b90600052602060002001546022600086600160a060020a0316600160a060020a03168152602001908152602001600020828154811062000eec5762000eec62001973565b6000918252602080832090910192909255600160a060020a038616815260229091526040902080548062000f245762000f2462001944565b6001900381819060005260206000200160009055905550505050565b6000918252600660209081526040808420600160a060020a0393909316845291905290205460ff1690565b600062000f828383640100000000620012e6810204565b62000fba5750815460018181018455600084815260208082209093018490558454848252828601909352604090209190915562000895565b50600062000895565b60005b815181101562001236576000600160a060020a031682828151811062000ff05762000ff062001973565b602002602001015160000151600160a060020a031614156200106f576040517f08c379a000000000000000000000000000000000000000000000000000000000815260206004820152601b60248201527f526563697069656e742073686f756c642062652070726573656e740000000000604482015260640162000382565b81818151811062001084576200108462001973565b6020026020010151602001516001606060020a03166000141562001105576040517f08c379a000000000000000000000000000000000000000000000000000000000815260206004820181905260248201527f526f79616c74792076616c75652073686f756c6420626520706f736974697665604482015260640162000382565b6000838152600960205260409020546200119757600083815260096020526040902082518390839081106200113e576200113e62001973565b6020908102919091018101518254600181018455600093845292829020815191909201516001606060020a03167401000000000000000000000000000000000000000002600160a060020a039091161791015562001221565b818181518110620011ac57620011ac62001973565b602002602001015160096000858152602001908152602001600020600081548110620011dc57620011dc62001973565b6000918252602091829020835193909201516001606060020a03167401000000000000000000000000000000000000000002600160a060020a03909316929092179101555b806200122d81620018f7565b91505062000fc6565b506200030d8282640100000000620012fe810204565b60008060005b600160a060020a038516600090815260226020526040902054811015620012d657600160a060020a0385166000908152602260205260409020805485919083908110620012a357620012a362001973565b90600052602060002001541415620012c157600192509050620012df565b80620012cd81620018f7565b91505062001252565b50600080915091505b9250929050565b60009081526001919091016020526040902054151590565b7f3fa96d7b6bcbfe71ef171666d84db3cf52fa2d1c8afdb1cc8e486177f208b7df82826040516200133192919062001710565b60405180910390a15050565b8280546200134b90620018a1565b90600052602060002090601f0160209004810192826200136f5760008555620013ba565b82601f106200138a57805160ff1916838001178555620013ba565b82800160010185558215620013ba579182015b82811115620013ba5782518255916020019190600101906200139d565b50620013c8929150620015ce565b5090565b6040518060e0016040528060608152602001600061ffff168152602001600061ffff168152602001620013fe620015e5565b815260200160008152602001600081526020016200141b62001604565b905290565b82600b8101928215620013ba5791602002820182811115620013ba5782518255916020019190600101906200139d565b600183019183908215620013ba5791602002820160005b83821115620014a957835183826101000a81548161ffff021916908361ffff160217905550926020019260020160208160010104928301926001030262001467565b8015620014d95782816101000a81549061ffff0219169055600201602081600101049283019260010302620014a9565b5050620013c8929150620015ce565b828054620014f690620018a1565b90600052602060002090601f0160209004810192826200151a5760008555620013ba565b82601f106200152d5780548555620013ba565b82800160010185558215620013ba57600052602060002091601f016020900482015b82811115620013ba5782548255916001019190600101906200154f565b82600b8101928215620013ba5791820182811115620013ba5782548255916001019190600101906200154f565b600183019183908215620013ba5791600f0160109004820182811115620013ba5782548255916001019190600101906200154f565b5b80821115620013c85760008155600101620015cf565b604051806101600160405280600b906020820280368337509192915050565b604080516101208101909152806200141b6020820160088161010080368337509192915050565b60006101008083850312156200164057600080fd5b6200164a6200177c565b915083601f8401126200165c57600080fd5b62001666620017a7565b80848684870111156200167857600080fd5b60009350835b6008811015620016b057815161ffff811681146200169a578586fd5b845260209384019391909101906001016200167e565b5050835250909392505050565b60006101008284031215620016d157600080fd5b6200089283836200162b565b60006101008284031215620016f157600080fd5b620016fb6200177c565b6200170784846200162b565b81529392505050565b6000604080830185845260208281860152818651808452606087019150828801935060005b818110156200176e5784518051600160a060020a031684528401516001606060020a031684840152938301939185019160010162001735565b509098975050505050505050565b604051602081016001604060020a0381118282101715620017a157620017a1620019a2565b60405290565b60405161010081016001604060020a0381118282101715620017a157620017a1620019a2565b600061ffff808316818516808303821115620017ed57620017ed62001915565b01949350505050565b600082198211156200180c576200180c62001915565b500190565b600061ffff808416806200184e577f4e487b7100000000000000000000000000000000000000000000000000000000600052601260045260246000fd5b92169190910492915050565b600061ffff808316818516818304811182151516156200187e576200187e62001915565b02949350505050565b6000828210156200189c576200189c62001915565b500390565b600281046001821680620018b657607f821691505b60208210811415620018f1577f4e487b7100000000000000000000000000000000000000000000000000000000600052602260045260246000fd5b50919050565b60006000198214156200190e576200190e62001915565b5060010190565b7f4e487b7100000000000000000000000000000000000000000000000000000000600052601160045260246000fd5b7f4e487b7100000000000000000000000000000000000000000000000000000000600052603160045260246000fd5b7f4e487b7100000000000000000000000000000000000000000000000000000000600052603260045260246000fd5b7f4e487b7100000000000000000000000000000000000000000000000000000000600052604160045260246000fd5b614c5480620019e16000396000f3fe608060405234801561001057600080fd5b50600436106102985760003560e060020a9004806370a082311161016b578063a3fd0d99116100d2578063d53913931161008b578063d53913931461067a578063d547741f146106a1578063dc95c4a7146106b4578063e985e9c5146106c7578063ea13259114610703578063f2fde38b1461072357600080fd5b8063a3fd0d99146105d7578063ad127c8a14610601578063b88d4fde14610621578063c87b56dd14610634578063ca15c87314610647578063cad96cca1461065a57600080fd5b806391d148541161012457806391d148541461057b57806392e0150b1461058e57806395d89b41146105a1578063a217fddf146105a9578063a22cb465146105b1578063a2846ad4146105c457600080fd5b806370a08231146104ea578063715018a6146104fd5780637846701b146105055780638924af74146105185780638da5cb5b146105575780639010d07c1461056857600080fd5b80632a55205a1161020f5780633e5f2ebc116101c85780633e5f2ebc1461047657806342842e0e146104895780634f558e791461049c57806352bded47146104af5780635ad3a0a8146104c25780636352211e146104d757600080fd5b80632a55205a146103d15780632f2ff15d146104035780633143d97c1461041657806333b754131461042957806336568abe14610450578063377982031461046357600080fd5b8063095ea7b311610261578063095ea7b31461034f578063113b2ec61461036257806311fdb52e14610375578063143094db1461038857806323b872dd1461039b578063248a9ca3146103ae57600080fd5b8062e23cfc1461029d57806301ffc9a7146102d757806306fdde03146102fa578063081812fc1461030f578063084879b11461033a575b600080fd5b6102c47f19ac353dd86d6954025a359137447e1fda8f14ba7ba6373372af73b706fa3b2281565b6040519081526020015b60405180910390f35b6102ea6102e536600461424f565b610736565b60405190151581526020016102ce565b6103026107bb565b6040516102ce91906146e9565b61032261031d3660046141ef565b61084d565b604051600160a060020a0390911681526020016102ce565b61034d61034836600461432b565b6108fb565b005b61034d61035d3660046141a6565b6109e3565b61034d6103703660046141ef565b610b16565b61034d610383366004614485565b610b81565b61034d6103963660046142ed565b610bdb565b61034d6103a936600461403f565b610ce2565b6102c46103bc3660046141ef565b60009081526006602052604090206001015490565b6103e46103df36600461422d565b610e53565b60408051600160a060020a0390931683526020830191909152016102ce565b61034d610411366004614208565b610f63565b61034d61042436600461422d565b610f89565b6102c47ff981fb6fdf0d58703d02e1dadceeaa95ac8ae9afe74ea698f2124fae240aabb081565b61034d61045e366004614208565b61104b565b61034d6104713660046143ef565b6110da565b61034d61048436600461412e565b6114d2565b61034d61049736600461403f565b6116d9565b6102ea6104aa3660046141ef565b6116f4565b61034d6104bd366004613fe9565b611713565b6104ca611762565b6040516102ce9190614669565b6103226104e53660046141ef565b6117e1565b6102c46104f8366004613fe9565b61186f565b61034d61190c565b61034d6105133660046141ef565b611945565b61052b61052636600461422d565b611d12565b60408051600160a060020a0390931683526bffffffffffffffffffffffff9091166020830152016102ce565b600854600160a060020a0316610322565b61032261057636600461422d565b611d60565b6102ea610589366004614208565b611d7f565b61034d61059c3660046141ef565b611daa565b610302611f6f565b6102c4600081565b61034d6105bf366004614100565b611f7e565b61034d6105d2366004613fe9565b611f89565b6105ea6105e53660046141a6565b611fd8565b6040805192151583526020830191909152016102ce565b61061461060f366004613fe9565b612066565b6040516102ce91906146b1565b61034d61062f366004614080565b6120d2565b6103026106423660046141ef565b612107565b6102c46106553660046141ef565b6121f2565b61066d6106683660046141ef565b612209565b6040516102ce9190614656565b6102c47f9f2df0fed2c77648de5860a4cc508cd0818c85b8b8a1ab4ceeef8d981c8956a681565b61034d6106af366004614208565b61229d565b61034d6106c2366004613fe9565b6122c3565b6102ea6106d5366004614006565b600160a060020a03918216600090815260056020908152604080832093909416825291909152205460ff1690565b6107166107113660046141ef565b612312565b6040516102ce919061487f565b61034d610731366004613fe9565b6124a9565b6000600160e060020a031982167f44c74bcc00000000000000000000000000000000000000000000000000000000141561077257506001919050565b600160e060020a031982167f2a55205a0000000000000000000000000000000000000000000000000000000014156107ac57506001919050565b6107b58261275a565b92915050565b6060600080546107ca90614aa2565b80601f01602080910402602001604051908101604052809291908181526020018280546107f690614aa2565b80156108435780601f1061081857610100808354040283529160200191610843565b820191906000526020600020905b81548152906001019060200180831161082657829003601f168201915b5050505050905090565b600081815260026020526040812054600160a060020a03166108df5760405160e560020a62461bcd02815260206004820152602c60248201527f4552433732313a20617070726f76656420717565727920666f72206e6f6e657860448201527f697374656e7420746f6b656e000000000000000000000000000000000000000060648201526084015b60405180910390fd5b50600090815260046020526040902054600160a060020a031690565b600854600160a060020a031633146109285760405160e560020a62461bcd0281526004016108d6906147ed565b805182146109c75760405160e560020a62461bcd02815260206004820152604860248201527f457863657074696f6e3a206d7573742070726f766964652061206d617472697860448201527f206f662076616c756573206f66207468652073616d65206c656e67687420746860648201527f616e206c6576656c000000000000000000000000000000000000000000000000608482015260a4016108d6565b601f82905580516109de9060209081840190613bb4565b505050565b60006109ee826117e1565b905080600160a060020a031683600160a060020a03161415610a7b5760405160e560020a62461bcd02815260206004820152602160248201527f4552433732313a20617070726f76616c20746f2063757272656e74206f776e6560448201527f720000000000000000000000000000000000000000000000000000000000000060648201526084016108d6565b33600160a060020a0382161480610a975750610a9781336106d5565b610b0c5760405160e560020a62461bcd02815260206004820152603860248201527f4552433732313a20617070726f76652063616c6c6572206973206e6f74206f7760448201527f6e6572206e6f7220617070726f76656420666f7220616c6c000000000000000060648201526084016108d6565b6109de8383612798565b600854600160a060020a03163314610b435760405160e560020a62461bcd0281526004016108d6906147ed565b600e80546000838152602160205260409020909101541015610b7e57600e8054600083815260216020526040902090910155610b7e81611945565b50565b600854600160a060020a03163314610bae5760405160e560020a62461bcd0281526004016108d6906147ed565b600d80546bffffffffffffffffffffffff90921660a060020a02600160a060020a03909216919091179055565b610c057f9f2df0fed2c77648de5860a4cc508cd0818c85b8b8a1ab4ceeef8d981c8956a633611d7f565b610c245760405160e560020a62461bcd0281526004016108d690614790565b604080516001808252818301909252600091816020015b6040805180820190915260008082526020820152815260200190600190039081610c3b5790505090508181600081518110610c7857610c78614b7c565b6020026020010151602001906bffffffffffffffffffffffff1690816bffffffffffffffffffffffff16815250508281600081518110610cba57610cba614b7c565b6020908102919091010151600160a060020a039091169052610cdc8482612806565b50505050565b610ced335b82612a2a565b610d0c5760405160e560020a62461bcd0281526004016108d690614822565b6000818152602160205260409020600d01544211610d3f5760405160e560020a62461bcd0281526004016108d690614759565b60005b60008290526021602052600b811015610e2157600082815260216020526040902060020181600b8110610d7757610d77614b7c565b015415610e0f57600b80546000848152602160205260409020600160a060020a039091169163c57d075f916002019084908110610db657610db6614b7c565b015460405160e060020a63ffffffff8416028152600481019190915260006024820152604401600060405180830381600087803b158015610df657600080fd5b505af1158015610e0a573d6000803e3d6000fd5b505050505b80610e1981614b02565b915050610d42565b50610e2a613c5d565b6000828152602160205260409020610e479060020182600b613c7c565b50610cdc848484612b35565b6000828152600960209081526040808320805482518185028101850190935280835284938493929190849084015b82821015610ed55760008481526020908190206040805180820190915290840154600160a060020a038116825260a060020a90046bffffffffffffffffffffffff1681830152825260019092019101610e81565b505050509050600081511115610f535780600081518110610ef857610ef8614b7c565b60200260200101516000015161271082600081518110610f1a57610f1a614b7c565b6020026020010151602001516bffffffffffffffffffffffff1686610f3f9190614a29565b610f4991906149eb565b9250925050610f5c565b60008092509250505b9250929050565b600082815260066020526040902060010154610f7f8133612b68565b6109de8383612bcf565b610fb37f19ac353dd86d6954025a359137447e1fda8f14ba7ba6373372af73b706fa3b2233611d7f565b6110285760405160e560020a62461bcd02815260206004820152602760248201527f457863657074696f6e3a206d757374206861766520515545535420726f6c652060448201527f746f206d696e740000000000000000000000000000000000000000000000000060648201526084016108d6565b61103281426149b2565b600092835260216020526040909220600d019190915550565b600160a060020a03811633146110cc5760405160e560020a62461bcd02815260206004820152602f60248201527f416363657373436f6e74726f6c3a2063616e206f6e6c792072656e6f756e636560448201527f20726f6c657320666f722073656c66000000000000000000000000000000000060648201526084016108d6565b6110d68282612bf1565b5050565b336110e4836117e1565b600160a060020a0316146111635760405160e560020a62461bcd02815260206004820152602f60248201527f457863657074696f6e3a206d757374206265206f776e6572206f66207468652060448201527f706c6179657220746f206571756970000000000000000000000000000000000060648201526084016108d6565b6000828152602160205260409020600d015442116111965760405160e560020a62461bcd0281526004016108d690614759565b600b54600160a060020a0316633cee42db33836040518363ffffffff1660e060020a0281526004016111c9929190614638565b60206040518083038186803b1580156111e157600080fd5b505afa1580156111f5573d6000803e3d6000fd5b505050506040513d601f19601f8201168201806040525081019061121991906141d2565b6112b45760405160e560020a62461bcd02815260206004820152604a60248201527f457863657074696f6e3a20736f6d652067656172206973206e6f742076616c6960448201527f64202877726f6e673a20736c6f742c2074696d656c6f636b2c206f776e65722060648201527f6f72206578697374732900000000000000000000000000000000000000000000608482015260a4016108d6565b6112be8282612c13565b156113345760405160e560020a62461bcd02815260206004820152603f60248201527f457863657074696f6e3a20736f6d65206765617220697320616c72656164792060448201527f6571756970656420696e206f7468657220706c6179657220696e206d696e740060648201526084016108d6565b60005b600b8110156114aa57600083815260216020526040902060020181600b811061136257611362614b7c565b0154156113fa57600b80546000858152602160205260409020600160a060020a039091169163c57d075f9160020190849081106113a1576113a1614b7c565b015460405160e060020a63ffffffff8416028152600481019190915260006024820152604401600060405180830381600087803b1580156113e157600080fd5b505af11580156113f5573d6000803e3d6000fd5b505050505b8181600b811061140c5761140c614b7c565b60200201511561149857600b8054600160a060020a03169063c57d075f9084908490811061143c5761143c614b7c565b602002015160405160e060020a63ffffffff8416028152600481019190915260248101869052604401600060405180830381600087803b15801561147f57600080fd5b505af1158015611493573d6000803e3d6000fd5b505050505b806114a281614b02565b915050611337565b5060008281526021602052604090206114c89060020182600b613c7c565b506110d682611945565b6114fc7f9f2df0fed2c77648de5860a4cc508cd0818c85b8b8a1ab4ceeef8d981c8956a633611d7f565b61151b5760405160e560020a62461bcd0281526004016108d690614790565b600a60009054906101000a9004600160a060020a0316600160a060020a031663a33a48766040518163ffffffff1660e060020a02815260040160206040518083038186803b15801561156c57600080fd5b505afa158015611580573d6000803e3d6000fd5b505050506040513d601f19601f820116820180604052508101906115a491906142d4565b8161ffff161061161f5760405160e560020a62461bcd02815260206004820152602360248201527f457863657074696f6e3a207261636520696e646578206f7574206f6620626f7560448201527f6e6473000000000000000000000000000000000000000000000000000000000060648201526084016108d6565b611627613caa565b805180518291600f91611641918391602090910190613cfa565b506020820151600182018054604085015161ffff908116620100000263ffffffff199092169316929092179190911790556060820151611687906002830190600b613c7c565b506080820151600d82015560a0820151600e82015560c08201518051600f8301906116b59082906008613d6d565b505050848352505061ffff82166020820152610cdc846116d4600c5490565b612562565b6109de838383604051806020016040528060008152506120d2565b600081815260026020526040812054600160a060020a031615156107b5565b600854600160a060020a031633146117405760405160e560020a62461bcd0281526004016108d6906147ed565b600a8054600160a060020a031916600160a060020a0392909216919091179055565b6060602080548060200260200160405190810160405280929190818152602001828054801561084357602002820191906000526020600020906000905b82829054906101000a900461ffff1661ffff168152602001906002019060208260010104928301926001038202915080841161179f5790505050505050905090565b600081815260026020526040812054600160a060020a0316806107b55760405160e560020a62461bcd02815260206004820152602960248201527f4552433732313a206f776e657220717565727920666f72206e6f6e657869737460448201527f656e7420746f6b656e000000000000000000000000000000000000000000000060648201526084016108d6565b6000600160a060020a0382166118f05760405160e560020a62461bcd02815260206004820152602a60248201527f4552433732313a2062616c616e636520717565727920666f7220746865207a6560448201527f726f20616464726573730000000000000000000000000000000000000000000060648201526084016108d6565b50600160a060020a031660009081526003602052604090205490565b600854600160a060020a031633146119395760405160e560020a62461bcd0281526004016108d6906147ed565b6119436000612daf565b565b8061194d5750565b600a54600082815260216020526040908190206001015490517f6b60266500000000000000000000000000000000000000000000000000000000815261ffff9091166004820152600160a060020a0390911690636b602665906024016101006040518083038186803b1580156119c257600080fd5b505afa1580156119d6573d6000803e3d6000fd5b505050506040513d601f19601f820116820180604052508101906119fa91906142a6565b5160008281526021602052604090208151600f90910190611a1e9082906008613d6d565b5090505060005b600082905260216020526008811015611b535760008281526021602090815260409091206001015481546064929162010000900461ffff16908110611a6c57611a6c614b7c565b6000918252602080832060108304015486845260219091526040909220600f9182166002026101000a90920461ffff1691018360088110611aaf57611aaf614b7c565b601091828204019190066002029054906101000a900461ffff16611ad391906149ff565b611add91906149ca565b6000838152602160205260409020600f018260088110611aff57611aff614b7c565b601091828204019190066002028282829054906101000a900461ffff16611b269190614995565b92506101000a81548161ffff021916908361ffff1602179055508080611b4b90614b02565b915050611a25565b5060005b60008290526021602052600b811015611cfa57600082815260216020526040902060020181600b8110611b8c57611b8c614b7c565b015415611ce857600b805460008481526021602052604081209092600160a060020a0390921691637896ab92916002019085908110611bcd57611bcd614b7c565b01546040518263ffffffff1660e060020a028152600401611bf091815260200190565b6101006040518083038186803b158015611c0957600080fd5b505afa158015611c1d573d6000803e3d6000fd5b505050506040513d601f19601f82011682018060405250810190611c419190614289565b905060005b6008811015611ce55781518160088110611c6257611c62614b7c565b602002015160216000868152602001908152602001600020600f016000018260088110611c9157611c91614b7c565b601091828204019190066002028282829054906101000a900461ffff16611cb89190614995565b92506101000a81548161ffff021916908361ffff1602179055508080611cdd90614b02565b915050611c46565b50505b80611cf281614b02565b915050611b57565b50600090815260216020526040902042600e90910155565b60096020528160005260406000208181548110611d2e57600080fd5b600091825260209091200154600160a060020a038116925060a060020a90046bffffffffffffffffffffffff16905082565b6000828152600760205260408120611d789083612e01565b9392505050565b6000918252600660209081526040808420600160a060020a0393909316845291905290205460ff1690565b6000818152602160205260409020600d01544211611ddd5760405160e560020a62461bcd0281526004016108d690614759565b611e077ff981fb6fdf0d58703d02e1dadceeaa95ac8ae9afe74ea698f2124fae240aabb033611d7f565b611e7c5760405160e560020a62461bcd02815260206004820152603360248201527f457863657074696f6e3a206f6e6c792074686520506f6c796d6174682063616e60448201527f2063616c6c20746869732066756e6374696f6e0000000000000000000000000060648201526084016108d6565b601f546000828152602160205260409020600190810154611ea8916201000090910461ffff1690614995565b61ffff1610611f225760405160e560020a62461bcd02815260206004820152602960248201527f457863657074696f6e3a20706c6179657220697320616c72656164792061742060448201527f6d6178206c6576656c000000000000000000000000000000000000000000000060648201526084016108d6565b6000818152602160205260409020600101805462010000900461ffff16906002611f4b83614ae0565b91906101000a81548161ffff021916908361ffff16021790555050610b7e81611945565b6060600180546107ca90614aa2565b6110d6338383612e0d565b600854600160a060020a03163314611fb65760405160e560020a62461bcd0281526004016108d6906147ed565b600b8054600160a060020a031916600160a060020a0392909216919091179055565b60008060005b600160a060020a03851660009081526022602052604090205481101561205957600160a060020a038516600090815260226020526040902080548591908390811061202b5761202b614b7c565b9060005260206000200154141561204757600192509050610f5c565b8061205181614b02565b915050611fde565b5060009485945092505050565b600160a060020a0381166000908152602260209081526040918290208054835181840281018401909452808452606093928301828280156120c657602002820191906000526020600020905b8154815260200190600101908083116120b2575b50505050509050919050565b6120dc3383612a2a565b6120fb5760405160e560020a62461bcd0281526004016108d690614822565b610cdc84848484612edf565b600081815260026020526040902054606090600160a060020a03166121975760405160e560020a62461bcd02815260206004820152602f60248201527f4552433732314d657461646174613a2055524920717565727920666f72206e6f60448201527f6e6578697374656e7420746f6b656e000000000000000000000000000000000060648201526084016108d6565b60006121a1612f15565b905060008151116121c15760405180602001604052806000815250611d78565b806121cb84612f35565b6040516020016121dc92919061454c565b6040516020818303038152906040529392505050565b60008181526007602052604081206107b59061306e565b606060096000838152602001908152602001600020805480602002602001604051908101604052809291908181526020016000905b828210156122925760008481526020908190206040805180820190915290840154600160a060020a038116825260a060020a90046bffffffffffffffffffffffff168183015282526001909201910161223e565b505050509050919050565b6000828152600660205260409020600101546122b98133612b68565b6109de8383612bf1565b600854600160a060020a031633146122f05760405160e560020a62461bcd0281526004016108d6906147ed565b600d8054600160a060020a031916600160a060020a0392909216919091179055565b61231a613caa565b60008281526021602052604090819020815160e0810190925280548290829061234290614aa2565b80601f016020809104026020016040519081016040528092919081815260200182805461236e90614aa2565b80156123bb5780601f10612390576101008083540402835291602001916123bb565b820191906000526020600020905b81548152906001019060200180831161239e57829003601f168201915b5050509183525050600182015461ffff808216602084015262010000909104166040808301919091528051610160810191829052606090920191906002840190600b9082845b815481526020019060010190808311612401575050509183525050600d820154602080830191909152600e830154604080840191909152805161012081019182905260609093019291600f85019183918201908390600890826000855b82829054906101000a900461ffff1661ffff168152602001906002019060208260010104928301926001038202915080841161245e5790505050509190925250505090525092915050565b600854600160a060020a031633146124d65760405160e560020a62461bcd0281526004016108d6906147ed565b600160a060020a0381166125555760405160e560020a62461bcd02815260206004820152602660248201527f4f776e61626c653a206e6577206f776e657220697320746865207a65726f206160448201527f646472657373000000000000000000000000000000000000000000000000000060648201526084016108d6565b610b7e81612daf565b5490565b600160a060020a0382166125bb5760405160e560020a62461bcd02815260206004820181905260248201527f4552433732313a206d696e7420746f20746865207a65726f206164647265737360448201526064016108d6565b600081815260026020526040902054600160a060020a0316156126235760405160e560020a62461bcd02815260206004820152601c60248201527f4552433732313a20746f6b656e20616c7265616479206d696e7465640000000060448201526064016108d6565b61262f60008383613078565b600160a060020a03821660009081526003602052604081208054600192906126589084906149b2565b90915550506000818152600260205260408082208054600160a060020a031916600160a060020a03861690811790915590518392907fddf252ad1be2c89b69c2b068fc378daa952ba7f163c4a11628f55a4df523b3ef908290a45050565b6126c08282611d7f565b6110d6576000828152600660209081526040808320600160a060020a03851684529091529020805460ff191660011790556126f83390565b600160a060020a031681600160a060020a0316837f2f8788117e7eff1d82e926ec794901d17c78024a50270940304540a733656f0d60405160405180910390a45050565b6000611d7883600160a060020a0384166132b5565b80546001019055565b6000600160e060020a031982167f5a05180f0000000000000000000000000000000000000000000000000000000014806107b557506107b582613304565b60008181526004602052604090208054600160a060020a031916600160a060020a03841690811790915581906127cd826117e1565b600160a060020a03167f8c5be1e5ebec7d5bd14f71427d1e84f3dd0314c0f7b2291e5b200ac8c7c3b92560405160405180910390a45050565b60005b8151811015612a1f576000600160a060020a031682828151811061282f5761282f614b7c565b602002602001015160000151600160a060020a031614156128955760405160e560020a62461bcd02815260206004820152601b60248201527f526563697069656e742073686f756c642062652070726573656e74000000000060448201526064016108d6565b8181815181106128a7576128a7614b7c565b6020026020010151602001516bffffffffffffffffffffffff16600014156129145760405160e560020a62461bcd02815260206004820181905260248201527f526f79616c74792076616c75652073686f756c6420626520706f73697469766560448201526064016108d6565b600083815260096020526040902054612995576000838152600960205260409020825183908390811061294957612949614b7c565b6020908102919091018101518254600181018455600093845292829020815191909201516bffffffffffffffffffffffff1660a060020a02600160a060020a0390911617910155612a0d565b8181815181106129a7576129a7614b7c565b6020026020010151600960008581526020019081526020016000206000815481106129d4576129d4614b7c565b6000918252602091829020835193909201516bffffffffffffffffffffffff1660a060020a02600160a060020a03909316929092179101555b80612a1781614b02565b915050612809565b506110d68282613342565b600081815260026020526040812054600160a060020a0316612ab75760405160e560020a62461bcd02815260206004820152602c60248201527f4552433732313a206f70657261746f7220717565727920666f72206e6f6e657860448201527f697374656e7420746f6b656e000000000000000000000000000000000000000060648201526084016108d6565b6000612ac2836117e1565b905080600160a060020a031684600160a060020a03161480612afd575083600160a060020a0316612af28461084d565b600160a060020a0316145b80612b2d5750600160a060020a0380821660009081526005602090815260408083209388168352929052205460ff165b949350505050565b612b3e33610ce7565b612b5d5760405160e560020a62461bcd0281526004016108d690614822565b6109de83838361337f565b612b728282611d7f565b6110d657612b8a81600160a060020a0316601461355d565b612b9583602061355d565b604051602001612ba692919061457b565b60408051601f198184030181529082905260e560020a62461bcd0282526108d6916004016146e9565b612bd982826126b6565b60008281526007602052604090206109de908261273c565b612bfb828261375f565b60008281526007602052604090206109de90826137c6565b6000805b600b811015612da5578281600b8110612c3257612c32614b7c565b602002015115612d9357600b8054600160a060020a03169063dabb053190859084908110612c6257612c62614b7c565b60200201516040518263ffffffff1660e060020a028152600401612c8891815260200190565b60206040518083038186803b158015612ca057600080fd5b505afa158015612cb4573d6000803e3d6000fd5b505050506040513d601f19601f82011682018060405250810190612cd891906142d4565b15801590612d845750600b80548591600160a060020a039091169063dabb053190869085908110612d0b57612d0b614b7c565b60200201516040518263ffffffff1660e060020a028152600401612d3191815260200190565b60206040518083038186803b158015612d4957600080fd5b505afa158015612d5d573d6000803e3d6000fd5b505050506040513d601f19601f82011682018060405250810190612d8191906142d4565b14155b15612d935760019150506107b5565b80612d9d81614b02565b915050612c17565b5060009392505050565b60088054600160a060020a03838116600160a060020a0319831681179093556040519116919082907f8be0079c531659141344cd1fd0a4f28419497f9722a3daafe3b4186f6b6457e090600090a35050565b6000611d7883836137db565b81600160a060020a031683600160a060020a03161415612e725760405160e560020a62461bcd02815260206004820152601960248201527f4552433732313a20617070726f766520746f2063616c6c65720000000000000060448201526064016108d6565b600160a060020a03838116600081815260056020908152604080832094871680845294825291829020805460ff191686151590811790915591519182527f17307eab39ab6107e8899845ad3d59bd9653f200f220920489ca2b5937696c31910160405180910390a3505050565b612eea84848461337f565b612ef684848484613805565b610cdc5760405160e560020a62461bcd0281526004016108d6906146fc565b6060604051806060016040528060278152602001614bf860279139905090565b606081612f7557505060408051808201909152600181527f3000000000000000000000000000000000000000000000000000000000000000602082015290565b8160005b8115612f9f5780612f8981614b02565b9150612f989050600a836149eb565b9150612f79565b60008167ffffffffffffffff811115612fba57612fba614b95565b6040519080825280601f01601f191660200182016040528015612fe4576020820181803683370190505b5090505b8415612b2d57612ff9600183614a48565b9150613006600a86614b1d565b6130119060306149b2565b7f01000000000000000000000000000000000000000000000000000000000000000281838151811061304557613045614b7c565b6020010190600160f860020a031916908160001a905350613067600a866149eb565b9450612fe8565b60006107b5825490565b600160a060020a03831661326857600f60216000613095600c5490565b815260208101919091526040016000208154819083906130b490614aa2565b6130bf929190613dc2565b5060018281018054918301805461ffff93841661ffff19821681178355925463ffffffff1990911690921762010000928390049093169091029190911790556131106002808301908401600b613e3d565b50600d8281015490820155600e8083015490820155600f80830190820161313981836008613e67565b50505090505061314d600c80546001019055565b600d5461317b908290600160a060020a0381169060a060020a90046bffffffffffffffffffffffff16610bdb565b60005b600b81101561323357601181600b811061319a5761319a614b7c565b01541561322157600b8054600160a060020a03169063c57d075f90601190849081106131c8576131c8614b7c565b015460405160e060020a63ffffffff8416028152600481019190915260248101859052604401600060405180830381600087803b15801561320857600080fd5b505af115801561321c573d6000803e3d6000fd5b505050505b8061322b81614b02565b91505061317e565b50600160a060020a0382166000908152602260209081526040822080546001810182559083529120018190556109de81611945565b600160a060020a038216613280576109de8382613947565b600160a060020a0382166000908152602260209081526040822080546001810182559083529120018190556109de8382613947565b60008181526001830160205260408120546132fc575081546001818101845560008481526020808220909301849055845484825282860190935260409020919091556107b5565b5060006107b5565b6000600160e060020a031982167f7965db0b0000000000000000000000000000000000000000000000000000000014806107b557506107b582613a26565b7f3fa96d7b6bcbfe71ef171666d84db3cf52fa2d1c8afdb1cc8e486177f208b7df8282604051613373929190614922565b60405180910390a15050565b82600160a060020a0316613392826117e1565b600160a060020a0316146134115760405160e560020a62461bcd02815260206004820152602960248201527f4552433732313a207472616e73666572206f6620746f6b656e2074686174206960448201527f73206e6f74206f776e000000000000000000000000000000000000000000000060648201526084016108d6565b600160a060020a03821661348f5760405160e560020a62461bcd028152602060048201526024808201527f4552433732313a207472616e7366657220746f20746865207a65726f2061646460448201527f726573730000000000000000000000000000000000000000000000000000000060648201526084016108d6565b61349a838383613078565b6134a5600082612798565b600160a060020a03831660009081526003602052604081208054600192906134ce908490614a48565b9091555050600160a060020a03821660009081526003602052604081208054600192906134fc9084906149b2565b90915550506000818152600260205260408082208054600160a060020a031916600160a060020a0386811691821790925591518493918716917fddf252ad1be2c89b69c2b068fc378daa952ba7f163c4a11628f55a4df523b3ef91a4505050565b6060600061356c836002614a29565b6135779060026149b2565b67ffffffffffffffff81111561358f5761358f614b95565b6040519080825280601f01601f1916602001820160405280156135b9576020820181803683370190505b5090507f3000000000000000000000000000000000000000000000000000000000000000816000815181106135f0576135f0614b7c565b6020010190600160f860020a031916908160001a9053507f78000000000000000000000000000000000000000000000000000000000000008160018151811061363b5761363b614b7c565b6020010190600160f860020a031916908160001a905350600061365f846002614a29565b61366a9060016149b2565b90505b600181111561370d577f303132333435363738396162636465660000000000000000000000000000000085600f16601081106136ab576136ab614b7c565b1a7f0100000000000000000000000000000000000000000000000000000000000000028282815181106136e0576136e0614b7c565b6020010190600160f860020a031916908160001a90535060109094049361370681614a8b565b905061366d565b508315611d785760405160e560020a62461bcd02815260206004820181905260248201527f537472696e67733a20686578206c656e67746820696e73756666696369656e7460448201526064016108d6565b6137698282611d7f565b156110d6576000828152600660209081526040808320600160a060020a0385168085529252808320805460ff1916905551339285917ff6391f5c32d9c69d2a47ea670b442974b53935d1edc7fd64eb21e047a839171b9190a45050565b6000611d7883600160a060020a038416613ac1565b60008260000182815481106137f2576137f2614b7c565b9060005260206000200154905092915050565b6000600160a060020a0384163b1561393c576040517f150b7a02000000000000000000000000000000000000000000000000000000008152600160a060020a0385169063150b7a02906138629033908990889088906004016145fc565b602060405180830381600087803b15801561387c57600080fd5b505af19250505080156138ac575060408051601f3d908101601f191682019092526138a99181019061426c565b60015b613909573d8080156138da576040519150601f19603f3d011682016040523d82523d6000602084013e6138df565b606091505b5080516139015760405160e560020a62461bcd0281526004016108d6906146fc565b805181602001fd5b600160e060020a0319167f150b7a0200000000000000000000000000000000000000000000000000000000149050612b2d565b506001949350505050565b6000806139548484611fd8565b915091508115610cdc57600160a060020a0384166000908152602260205260409020805461398490600190614a48565b8154811061399457613994614b7c565b90600052602060002001546022600086600160a060020a0316600160a060020a0316815260200190815260200160002082815481106139d5576139d5614b7c565b6000918252602080832090910192909255600160a060020a0386168152602290915260409020805480613a0a57613a0a614b63565b6001900381819060005260206000200160009055905550505050565b6000600160e060020a031982167f80ac58cd000000000000000000000000000000000000000000000000000000001480613a895750600160e060020a031982167f5b5e139f00000000000000000000000000000000000000000000000000000000145b806107b557507f01ffc9a700000000000000000000000000000000000000000000000000000000600160e060020a03198316146107b5565b60008181526001830160205260408120548015613baa576000613ae5600183614a48565b8554909150600090613af990600190614a48565b9050818114613b5e576000866000018281548110613b1957613b19614b7c565b9060005260206000200154905080876000018481548110613b3c57613b3c614b7c565b6000918252602080832090910192909255918252600188019052604090208390555b8554869080613b6f57613b6f614b63565b6001900381819060005260206000200160009055905585600101600086815260200190815260200160002060009055600193505050506107b5565b60009150506107b5565b82805482825590600052602060002090600f01601090048101928215613c4d5791602002820160005b83821115613c1d57835183826101000a81548161ffff021916908361ffff1602179055509260200192600201602081600101049283019260010302613bdd565b8015613c4b5782816101000a81549061ffff0219169055600201602081600101049283019260010302613c1d565b505b50613c59929150613e99565b5090565b604051806101600160405280600b906020820280368337509192915050565b82600b8101928215613c4d579160200282015b82811115613c4d578251825591602001919060010190613c8f565b6040518060e0016040528060608152602001600061ffff168152602001600061ffff168152602001613cda613c5d565b81526020016000815260200160008152602001613cf5613eae565b905290565b828054613d0690614aa2565b90600052602060002090601f016020900481019282613d285760008555613c4d565b82601f10613d4157805160ff1916838001178555613c4d565b82800160010185558215613c4d5791820182811115613c4d578251825591602001919060010190613c8f565b600183019183908215613c4d57916020028201600083821115613c1d57835183826101000a81548161ffff021916908361ffff1602179055509260200192600201602081600101049283019260010302613bdd565b828054613dce90614aa2565b90600052602060002090601f016020900481019282613df05760008555613c4d565b82601f10613e015780548555613c4d565b82800160010185558215613c4d57600052602060002091601f016020900482015b82811115613c4d578254825591600101919060010190613e22565b82600b8101928215613c4d5791820182811115613c4d578254825591600101919060010190613e22565b600183019183908215613c4d5791600f0160109004820182811115613c4d578254825591600101919060010190613e22565b5b80821115613c595760008155600101613e9a565b60408051610120810190915280613cf56020820160088161010080368337509192915050565b600067ffffffffffffffff831115613eee57613eee614b95565b613f01601f8401601f1916602001614964565b9050828152838383011115613f1557600080fd5b828260208301376000602084830101529392505050565b6000610100808385031215613f4057600080fd5b613f4861493b565b915083601f840112613f5957600080fd5b60405181810181811067ffffffffffffffff82111715613f7b57613f7b614b95565b6040528084838101871015613f8f57600080fd5b600093505b6008841015613fbd578051613fa881614be7565b82526001939093019260209182019101613f94565b505082525092915050565b80356bffffffffffffffffffffffff81168114613fe457600080fd5b919050565b600060208284031215613ffb57600080fd5b8135611d7881614bae565b6000806040838503121561401957600080fd5b823561402481614bae565b9150602083013561403481614bae565b809150509250929050565b60008060006060848603121561405457600080fd5b833561405f81614bae565b9250602084013561406f81614bae565b929592945050506040919091013590565b6000806000806080858703121561409657600080fd5b84356140a181614bae565b935060208501356140b181614bae565b925060408501359150606085013567ffffffffffffffff8111156140d457600080fd5b8501601f810187136140e557600080fd5b6140f487823560208401613ed4565b91505092959194509250565b6000806040838503121561411357600080fd5b823561411e81614bae565b9150602083013561403481614bc3565b60008060006060848603121561414357600080fd5b833561414e81614bae565b9250602084013567ffffffffffffffff81111561416a57600080fd5b8401601f8101861361417b57600080fd5b61418a86823560208401613ed4565b925050604084013561419b81614be7565b809150509250925092565b600080604083850312156141b957600080fd5b82356141c481614bae565b946020939093013593505050565b6000602082840312156141e457600080fd5b8151611d7881614bc3565b60006020828403121561420157600080fd5b5035919050565b6000806040838503121561421b57600080fd5b82359150602083013561403481614bae565b6000806040838503121561424057600080fd5b50508035926020909101359150565b60006020828403121561426157600080fd5b8135611d7881614bd1565b60006020828403121561427e57600080fd5b8151611d7881614bd1565b6000610100828403121561429c57600080fd5b611d788383613f2c565b600061010082840312156142b957600080fd5b6142c161493b565b6142cb8484613f2c565b81529392505050565b6000602082840312156142e657600080fd5b5051919050565b60008060006060848603121561430257600080fd5b83359250602084013561431481614bae565b915061432260408501613fc8565b90509250925092565b6000806040838503121561433e57600080fd5b8235915060208084013567ffffffffffffffff8082111561435e57600080fd5b818601915086601f83011261437257600080fd5b81358181111561438457614384614b95565b8381029150614394848301614964565b8181528481019084860184860187018b10156143af57600080fd5b600095505b838610156143de57803594506143c985614be7565b848352600195909501949186019186016143b4565b508096505050505050509250929050565b60008061018080848603121561440457600080fd5b83359250602085603f86011261441957600080fd5b604051610160810181811067ffffffffffffffff8211171561443d5761443d614b95565b6040528086830184880189101561445357600080fd5b600094505b600b851015614477578035825260019490940193908301908301614458565b509497909650945050505050565b60006020828403121561449757600080fd5b611d7882613fc8565b600081518084526020808501945080840160005b838110156144f25781518051600160a060020a031688528301516bffffffffffffffffffffffff1683880152604090960195908201906001016144b4565b509495945050505050565b8060005b600b811015610cdc578151845260209384019390910190600101614501565b60008151808452614538816020860160208601614a5f565b601f01601f19169290920160200192915050565b6000835161455e818460208801614a5f565b835190830190614572818360208801614a5f565b01949350505050565b7f416363657373436f6e74726f6c3a206163636f756e74200000000000000000008152600083516145b3816017850160208801614a5f565b7f206973206d697373696e6720726f6c652000000000000000000000000000000060179184019182015283516145f0816028840160208801614a5f565b01602801949350505050565b6000600160a060020a0380871683528086166020840152508360408301526080606083015261462e6080830184614520565b9695505050505050565b600160a060020a03831681526101808101611d7860208301846144fd565b602081526000611d7860208301846144a0565b6020808252825182820181905260009190848201906040850190845b818110156146a557835161ffff1683529284019291840191600101614685565b50909695505050505050565b6020808252825182820181905260009190848201906040850190845b818110156146a5578351835292840192918401916001016146cd565b602081526000611d786020830184614520565b60208082526032908201527f4552433732313a207472616e7366657220746f206e6f6e20455243373231526560408201527f63656976657220696d706c656d656e7465720000000000000000000000000000606082015260800190565b6020808252601b908201527f457863657074696f6e3a20706c61796572206973206c6f636b65640000000000604082015260600190565b60208082526028908201527f457863657074696f6e3a206d7573742068617665206d696e74657220726f6c6560408201527f20746f206d696e74000000000000000000000000000000000000000000000000606082015260800190565b6020808252818101527f4f776e61626c653a2063616c6c6572206973206e6f7420746865206f776e6572604082015260600190565b60208082526031908201527f4552433732313a207472616e736665722063616c6c6572206973206e6f74206f60408201527f776e6572206e6f7220617070726f766564000000000000000000000000000000606082015260800190565b6000602080835283516103008285015261489d610320850182614520565b90508185015161ffff8082166040870152806040880151166060870152606087015191506148ce60808701836144fd565b60808701516101e087015260a087015161020087015260c0870151519150600061022087015b600882101561491557835183168152928501926001919091019085016148f4565b5092979650505050505050565b828152604060208201526000612b2d60408301846144a0565b6040516020810167ffffffffffffffff8111828210171561495e5761495e614b95565b60405290565b604051601f8201601f1916810167ffffffffffffffff8111828210171561498d5761498d614b95565b604052919050565b600061ffff80831681851680830382111561457257614572614b31565b600082198211156149c5576149c5614b31565b500190565b600061ffff808416806149df576149df614b4a565b92169190910492915050565b6000826149fa576149fa614b4a565b500490565b600061ffff80831681851681830481118215151615614a2057614a20614b31565b02949350505050565b6000816000190483118215151615614a4357614a43614b31565b500290565b600082821015614a5a57614a5a614b31565b500390565b60005b83811015614a7a578181015183820152602001614a62565b83811115610cdc5750506000910152565b600081614a9a57614a9a614b31565b506000190190565b600281046001821680614ab657607f821691505b60208210811415614ada5760e060020a634e487b7102600052602260045260246000fd5b50919050565b600061ffff80831681811415614af857614af8614b31565b6001019392505050565b6000600019821415614b1657614b16614b31565b5060010190565b600082614b2c57614b2c614b4a565b500690565b60e060020a634e487b7102600052601160045260246000fd5b60e060020a634e487b7102600052601260045260246000fd5b60e060020a634e487b7102600052603160045260246000fd5b60e060020a634e487b7102600052603260045260246000fd5b60e060020a634e487b7102600052604160045260246000fd5b600160a060020a0381168114610b7e57600080fd5b8015158114610b7e57600080fd5b600160e060020a031981168114610b7e57600080fd5b61ffff81168114610b7e57600080fdfe68747470733a2f2f7777772e636861696e736f66676c6f72792e636f6d2f6d657461646174612fa2646970667358221220bdea1db88daf6f47d8eb44ef5af597dd18b52f002a359a192f357180184d7fe164736f6c634300080600339f2df0fed2c77648de5860a4cc508cd0818c85b8b8a1ab4ceeef8d981c8956a6",
  "immutableReferences": {},
  "source": "//SPDX-License-Identifier: MIT\npragma solidity ^0.8.0;\n\nimport \"@openzeppelin/contracts/token/ERC721/ERC721.sol\";\nimport \"@openzeppelin/contracts/access/Ownable.sol\";\nimport \"@openzeppelin/contracts/access/AccessControlEnumerable.sol\";\nimport \"@openzeppelin/contracts/utils/Counters.sol\";\nimport \"./rarible/royalties/contracts/impl/RoyaltiesV2Impl.sol\";\nimport \"./rarible/royalties/contracts/LibPart.sol\";\nimport \"./rarible/royalties/contracts/LibRoyaltiesV2.sol\";\n\nimport \"./GameStats.sol\";\nimport \"./Equipment.sol\";\n\ncontract Characters is ERC721, AccessControlEnumerable, Ownable, RoyaltiesV2Impl {\n\n    /**********************************************\n     **********************************************\n                    VARIABLES\n    **********************************************                    \n    **********************************************/\n\n    GameStats internal _gameStats;  //Address of GameStats SC\n    Equipment internal _gearNFT;    //Address of equipement NFT SC\n\n    using Counters for Counters.Counter;\n    Counters.Counter private _tokenIdTracker;\n    \n    //Adds support for OpenSea\n    bytes4 private constant _INTERFACE_ID_ERC2981 = 0x2a55205a;\n\n    //Roles of minter, poolymath and quest (timelocker)\n    bytes32 public constant MINTER_ROLE = keccak256(\"MINTER_ROLE\");\n    bytes32 public constant POLYMATH_ROLE = keccak256(\"POLYMATH_ROLE\"); //May upgrade player level\n    bytes32 public constant QUEST_ROLE = keccak256(\"QUEST_ROLE\");       //May set timeLocks\n\n    //Royaties address and amount\n    address payable private _royaltiesAddress;\n    uint96 _royaltiesBasicPoints;\n\n    //Stats of players and enemies\n    struct charData {\n        string      name;           //Character given name\n        uint16      race;\t        //Race of character.  An index to the GameStats races array\n        uint16      level;      \t//By default is 0. Evolvable NFTs may upgrade this level        \n\n        uint256[11] gear;           //0-Head 1-Neck 2-Chest 3-Belt 4-Legs 5-Feet 6-Arms \n                                    //7-RHand (weapon) 8-LHand(complement) 9-Finger 10-Mount\n                                    //NOTE: slot #0 in the Equipment SC means wildcard\n                                    //That means that what is in gear[n] matches slot n+1 in Equipment struct\n                                    //NOTE: Value 0 in any position means empty.\n\n        uint256     timeLock;       //Timestamp until the player is locked (mission time)\n        uint256     lastCache;      //Last timestamp the calcucaltedStats has been calculated\n        GameStats.BaseStats   cachedStats;\n        //Change gear and/or update level will trigger a cache reload\n        //if globalCacheTimestamp is greater than lastCache it will also trigger a reload\n    }\n\n    //When a nerfing is done admin must set globalCacheTimestamp to 'now'\n    //to force the refresh of all cachedStats\n    uint256 private globalCacheTimestamp;\n\n    //Used by _beforeTokenTransfer to catch the after minting\n    charData private statsToMint;\n\n    //maximum level a player can go. \n    //This value may be updated based on the current tier\n    //For first tier we may limit to 10, the for second to 20, etc...\n    //The upgrade matrix MUST be also updated in order to go further with tiers\n    uint maxLevel;\n\n    //It MUST contains the coeficients to apply to each level upgrade\n    //There must be the same amount of element as maxLevel\n    //For example, in tier 1 maxLevel=10\n    //upgradeMatrix=[0, 5, 10, 14, 18, 21, 24, 26, 28, 30]\n    //Each level means the percentage of upgrade for the level regarding the basic stats    \n    uint16[] upgradeMatrix;\n\n\n    //Mapping from NFT to struct\n    mapping(uint256 => charData) private values;\n\n    // Mapping from owner address to token ID. It is used to quickly get all NFTs off an address\n    mapping(address => uint256[]) private _tokensByOwner;\n\n\n\n    /**********************************************\n     **********************************************\n                    CONSTRUCTOR\n    **********************************************                    \n    **********************************************/\n    constructor() ERC721(\"Chains of Glory Characters\", \"CGC\") {\n        _setupRole(DEFAULT_ADMIN_ROLE, _msgSender());\n\n        _setupRole(MINTER_ROLE, _msgSender());\n        _setupRole(POLYMATH_ROLE, _msgSender());\n        _setupRole(QUEST_ROLE, _msgSender());\n\n        //Set royalties address and amount\n        _royaltiesBasicPoints=1500;  //Contract creator by default\n        _royaltiesAddress=payable(address(this)); //15% default\n\n        charData memory char;\n\n        //Creates the 0 NFT which is special. Means 'no character'\n        statsToMint=char;\n        super._mint(_msgSender(), _tokenIdTracker.current());\n    }\n\n    /**********************************************\n     **********************************************\n                    MINTER\n              SETTERS AND GETTERS\n    **********************************************                    \n    **********************************************/\n\n    //Creation of a player\n    //Only MINTER_ROLE may create a player\n    function mint(address _to, string memory cname, uint16 race) public {\n        require(hasRole(MINTER_ROLE, _msgSender()), \"Exception: must have minter role to mint\");\n        require(race<_gameStats.numRaces(), \"Exception: race index out of bounds\");\n        charData memory data;\n        //Stores the struct to assign when mint os ok\n        statsToMint=data;\n        data.name=cname;\n        data.race=race;\n        super._mint(_to, _tokenIdTracker.current()); \n    }\n\n    //Equipment Token Address\n    function setEquipmentAddress(address equipment) public onlyOwner {\n        _gearNFT=Equipment(equipment);\n    }\n\n     function setGameStatsAddress(address gameStats) public onlyOwner {\n        _gameStats=GameStats(gameStats);\n    }\n\n    function setTimeLock(uint256 playerId, uint timestamp) public {\n        require(hasRole(QUEST_ROLE, _msgSender()), \"Exception: must have QUEST role to mint\");\n        values[playerId].timeLock=block.timestamp+timestamp;\n    }\n\n    //Royalties Address\n    function setRoyaltiesAddress(address payable rAddress) public onlyOwner {\n        _royaltiesAddress=rAddress;\n    }\n\n    //Royalties fee\n    function setRoyaltiesBasicPoints(uint96 rBasicPoints) public onlyOwner {\n        _royaltiesBasicPoints=rBasicPoints;\n    }\n\n    //Set the max level of the gears\n    function setMaxLevel(uint lvl, uint16[] memory matrixValues) public {\n        require(owner() == _msgSender(), \"Ownable: caller is not the owner\");\n        require(lvl == matrixValues.length, \"Exception: must provide a matrix of values of the same lenght than level\");\n\n        maxLevel=lvl;\n        upgradeMatrix=matrixValues;\n    }\n\n    function getMatrix() public view returns (uint16[] memory){\n        return upgradeMatrix;\n    }\n\n    //Returns the array of NFTs owned by an address\n    function getCharacters(address powner) public view returns (uint256[] memory) {\n        return _tokensByOwner[powner];\n    }\n\n\n    //Returns the charData of the NFT\n    function baseStats(uint256 idPJ) public view returns(charData memory) {\n        return values[idPJ];\n    }\n\n    /**********************************************\n     **********************************************\n                   UTILITY FUNCTIONS\n    **********************************************                    \n    **********************************************/\n\n    //Update the level of the player \n    //Only Polymath role can do it. \n    //To recalculate stats function uses the upgrade matrix. See above...\n    function updateLevel(uint256 character) public {\n        require(values[character].timeLock  < block.timestamp, \"Exception: player is locked\");\n        require(hasRole(POLYMATH_ROLE, _msgSender()), \"Exception: only the Polymath can call this function\");\n        require((values[character].level + 1) < maxLevel, \"Exception: player is already at max level\");\n        \n        values[character].level++;\n\n        recalculateStats(character);\n    }\n\n    //Equip al gear pased in the array\n    //The previous gear is replaced by the new one\n    //Can only equip a player owned\n    //Can only equip existing gear\n    //Can only equip with owned gear\n    //Verifies that gear is in the apropriate slot\n    //Can only equip gear not used in another players\n    function equip(uint256 character, uint256[11] memory gear) public {\n        require(ownerOf(character) == _msgSender(), \"Exception: must be owner of the player to equip\");\n        require(values[character].timeLock  < block.timestamp, \"Exception: player is locked\");\n        require(_gearNFT.isValidGearSet(_msgSender(), gear), \"Exception: some gear is not valid (wrong: slot, timelock, owner or exists)\");\n        require(!alreadyEquiped(character, gear), \"Exception: some gear is already equiped in other player in mint\");\n        \n        //Set tokenId as the character where the equipment is equipped\n        for(uint i=0; i< gear.length; i++) {\n            //Unset current equipped\n            if(values[character].gear[i]!=0)\n                _gearNFT.setCharacter(values[character].gear[i], 0);\n            \n            //Set new equipped character\n            if(gear[i]!=0)\n                _gearNFT.setCharacter(gear[i], character);\n        }\n\n        //Stores the struct to assign when mint os ok\n        values[character].gear=gear;\n\n        recalculateStats(character);\n    }\n\n    function updateCache(uint256 idPJ) public onlyOwner {\n        if(values[idPJ].lastCache < globalCacheTimestamp) {\n            values[idPJ].lastCache=globalCacheTimestamp;\n            recalculateStats(idPJ);\n        }\n    }\n    \n    //Returns the actual stats of the player calculating all the equped gear and leveling\n    function recalculateStats(uint256 idPJ) public {     \n        //No calculations for 'empty' character\n        if(idPJ==0)\n            return;\n\n        //Set cache to racials\n        values[idPJ].cachedStats= _gameStats.raceAt(values[idPJ].race).stats;\n\n        //Apply upgrade matrix to racials\n        for(uint i=0; i<values[idPJ].cachedStats.values.length; i++)\n            values[idPJ].cachedStats.values[i]+=((values[idPJ].cachedStats.values[i] * upgradeMatrix[values[idPJ].level]) / 100);\n\n        //Add all gear to stats\n        for(uint i=0; i<values[idPJ].gear.length; i++) {\n            if(values[idPJ].gear[i]!=0) {\n                //Add stats from gear NFT\n                GameStats.BaseStats memory gearStats = _gearNFT.getCachedStats(values[idPJ].gear[i]);\n                for(uint j=0; j<gearStats.values.length; j++) {\n                    values[idPJ].cachedStats.values[j]+=gearStats.values[j];\n                }\n            }\n        }\n\n        //Update lastCache value\n        values[idPJ].lastCache=block.timestamp;\n    }\n\n    //Public wrapper of _exists\n    function exists(uint256 tokenId) public view returns (bool) {\n        return _exists(tokenId);\n    }\n\n\n    /**********************************************\n     **********************************************\n                   ERC721 FUNCTIONS\n    **********************************************                    \n    **********************************************/\n\n    //Override of the transfer function\n    //Verify that player has no equipment before transfer it\n    //hasEquipment do not test the enemies, remember that enemies are only cellectibles for users\n    function transferFrom(\n        address from,\n        address to,\n        uint256 tokenId\n    ) public virtual override {\n        require(_isApprovedOrOwner(_msgSender(), tokenId), \"ERC721: transfer caller is not owner nor approved\");\n        require(values[tokenId].timeLock  < block.timestamp, \"Exception: player is locked\");\n\n\n        //Unset all equipped gear\n        for(uint i=0; i< values[tokenId].gear.length; i++) {\n            //Unset current equipped\n            if(values[tokenId].gear[i]!=0)\n                _gearNFT.setCharacter(values[tokenId].gear[i], 0);\n        }\n\n        uint256[11] memory empty;\n        values[tokenId].gear=empty;\n        super.transferFrom(from, to, tokenId);\n    }\n\n    //Override of the function\n    //Test what actions has been performed and then asign stats and update the _tokensByOwner \n    function _beforeTokenTransfer(address from, address to, uint256 tokenId) internal virtual override(ERC721) {\n        if(from==address(0)) {\n            //Minting ok, creates struct of stats\n            values[_tokenIdTracker.current()] = statsToMint;\n            _tokenIdTracker.increment();\n\n            //When mint a new NFT sets the royalties address\n            setRoyalties(tokenId, _royaltiesAddress, _royaltiesBasicPoints);\n\n            //Set tokenId as the character where the equipment is equipped\n            for(uint i=0; i< statsToMint.gear.length; i++)\n                if(statsToMint.gear[i]!=0)\n                    _gearNFT.setCharacter(statsToMint.gear[i], tokenId);\n\n            //Updates the _tokensByOwner mapping            \n            _tokensByOwner[to].push(tokenId);\n\n            recalculateStats(tokenId);\n        } else if(to==address(0)) {\n            //Burning\n\n            //Updates the _tokensByOwner mapping\n            deleteTokenId(from, tokenId);\n        } else {\n            //Normal transfer\n\n            //Updates the _tokensByOwner mapping\n            _tokensByOwner[to].push(tokenId);\n            deleteTokenId(from, tokenId);\n        }\n    }\n\n    function _baseURI() internal view virtual override returns (string memory) {\n        return \"https://www.chainsofglory.com/metadata/\";\n    }\n\n    function setRoyalties(uint256 _tokenId, address payable _royaltiesReceipientAddress, uint96 _percentageBasisPoints) public {\n        require(hasRole(MINTER_ROLE, _msgSender()), \"Exception: must have minter role to mint\");\n        LibPart.Part[] memory _royalties = new LibPart.Part[](1);\n        _royalties[0].value = _percentageBasisPoints;\n        _royalties[0].account = _royaltiesReceipientAddress;\n        _saveRoyalties(_tokenId, _royalties);\n    }\n\n    function royaltyInfo(uint256 _tokenId, uint256 _salePrice ) external view returns ( address receiver, uint256 royaltyAmount) {\n        LibPart.Part[] memory _royalties = royalties[_tokenId];\n        if(_royalties.length > 0) {\n            return(_royalties[0].account, (_salePrice * _royalties[0].value)/10000);\n        }\n        return (address(0), 0);\n    }\n\n    function supportsInterface(bytes4 interfaceId) public view virtual override(ERC721, AccessControlEnumerable) returns (bool) {\n        if (interfaceId == LibRoyaltiesV2._INTERFACE_ID_ROYALTIES) {\n            return true;\n        }\n\n        if(interfaceId == _INTERFACE_ID_ERC2981) {\n            return true;\n        }\n\n        return super.supportsInterface(interfaceId);\n    }\n\n    //************************************************************\n    // ARRAY functions \n    //************************************************************\n    function positionOf(address powner, uint256 tokenId) public view returns (bool, uint) {\n        for(uint i=0; i<_tokensByOwner[powner].length; i++) {\n            if(_tokensByOwner[powner][i]==tokenId)\n                return (true, i);\n        }\n        return (false, 0);\n    }\n\n    function deleteTokenId(address powner, uint256 tokenId) internal {\n        //Updates the _tokensByOwner mapping\n        (bool found, uint pos)=positionOf(powner, tokenId);\n        if(found) {\n            _tokensByOwner[powner][pos]= _tokensByOwner[powner][ _tokensByOwner[powner].length-1];\n            _tokensByOwner[powner].pop();\n        }\n    }\n\n    //Test that all gear passed in the data is already equiped in other character   \n    function alreadyEquiped(uint256 character, uint256[11] memory gear) internal view returns (bool) {\n        \n        //test if all gear is unequipped\n        for(uint i=0; i< gear.length; i++) {\n            if(gear[i]!=0)\n                if(_gearNFT.getCharacter(gear[i])!=0 && _gearNFT.getCharacter(gear[i])!=character)\n                    return true;\n        }\n\n        return false;\n    }    \n\n}",
  "sourcePath": "/home/javi/COG/contracts/Characters.sol",
  "compiler": {
    "name": "solc",
    "version": "0.8.6+commit.11564f7e.Emscripten.clang"
  },
  "schemaVersion": "3.4.3",
  "updatedAt": "2022-01-17T16:05:02.024Z",
  "networkType": "ethereum",
  "devdoc": {
    "kind": "dev",
    "methods": {
      "approve(address,uint256)": {
        "details": "See {IERC721-approve}."
      },
      "balanceOf(address)": {
        "details": "See {IERC721-balanceOf}."
      },
      "getApproved(uint256)": {
        "details": "See {IERC721-getApproved}."
      },
      "getRoleAdmin(bytes32)": {
        "details": "Returns the admin role that controls `role`. See {grantRole} and {revokeRole}. To change a role's admin, use {_setRoleAdmin}."
      },
      "getRoleMember(bytes32,uint256)": {
        "details": "Returns one of the accounts that have `role`. `index` must be a value between 0 and {getRoleMemberCount}, non-inclusive. Role bearers are not sorted in any particular way, and their ordering may change at any point. WARNING: When using {getRoleMember} and {getRoleMemberCount}, make sure you perform all queries on the same block. See the following https://forum.openzeppelin.com/t/iterating-over-elements-on-enumerableset-in-openzeppelin-contracts/2296[forum post] for more information."
      },
      "getRoleMemberCount(bytes32)": {
        "details": "Returns the number of accounts that have `role`. Can be used together with {getRoleMember} to enumerate all bearers of a role."
      },
      "grantRole(bytes32,address)": {
        "details": "Grants `role` to `account`. If `account` had not been already granted `role`, emits a {RoleGranted} event. Requirements: - the caller must have ``role``'s admin role."
      },
      "hasRole(bytes32,address)": {
        "details": "Returns `true` if `account` has been granted `role`."
      },
      "isApprovedForAll(address,address)": {
        "details": "See {IERC721-isApprovedForAll}."
      },
      "name()": {
        "details": "See {IERC721Metadata-name}."
      },
      "owner()": {
        "details": "Returns the address of the current owner."
      },
      "ownerOf(uint256)": {
        "details": "See {IERC721-ownerOf}."
      },
      "renounceOwnership()": {
        "details": "Leaves the contract without owner. It will not be possible to call `onlyOwner` functions anymore. Can only be called by the current owner. NOTE: Renouncing ownership will leave the contract without an owner, thereby removing any functionality that is only available to the owner."
      },
      "renounceRole(bytes32,address)": {
        "details": "Revokes `role` from the calling account. Roles are often managed via {grantRole} and {revokeRole}: this function's purpose is to provide a mechanism for accounts to lose their privileges if they are compromised (such as when a trusted device is misplaced). If the calling account had been revoked `role`, emits a {RoleRevoked} event. Requirements: - the caller must be `account`."
      },
      "revokeRole(bytes32,address)": {
        "details": "Revokes `role` from `account`. If `account` had been granted `role`, emits a {RoleRevoked} event. Requirements: - the caller must have ``role``'s admin role."
      },
      "safeTransferFrom(address,address,uint256)": {
        "details": "See {IERC721-safeTransferFrom}."
      },
      "safeTransferFrom(address,address,uint256,bytes)": {
        "details": "See {IERC721-safeTransferFrom}."
      },
      "setApprovalForAll(address,bool)": {
        "details": "See {IERC721-setApprovalForAll}."
      },
      "symbol()": {
        "details": "See {IERC721Metadata-symbol}."
      },
      "tokenURI(uint256)": {
        "details": "See {IERC721Metadata-tokenURI}."
      },
      "transferFrom(address,address,uint256)": {
        "details": "See {IERC721-transferFrom}."
      },
      "transferOwnership(address)": {
        "details": "Transfers ownership of the contract to a new account (`newOwner`). Can only be called by the current owner."
      }
    },
    "version": 1
  },
  "userdoc": {
    "kind": "user",
    "methods": {},
    "version": 1
  }
}