{
  "contractName": "Equipment",
  "abi": [
    {
      "inputs": [],
      "stateMutability": "nonpayable",
      "type": "constructor"
    },
    {
      "anonymous": false,
      "inputs": [
        {
          "indexed": true,
          "internalType": "address",
          "name": "owner",
          "type": "address"
        },
        {
          "indexed": true,
          "internalType": "address",
          "name": "approved",
          "type": "address"
        },
        {
          "indexed": true,
          "internalType": "uint256",
          "name": "tokenId",
          "type": "uint256"
        }
      ],
      "name": "Approval",
      "type": "event"
    },
    {
      "anonymous": false,
      "inputs": [
        {
          "indexed": true,
          "internalType": "address",
          "name": "owner",
          "type": "address"
        },
        {
          "indexed": true,
          "internalType": "address",
          "name": "operator",
          "type": "address"
        },
        {
          "indexed": false,
          "internalType": "bool",
          "name": "approved",
          "type": "bool"
        }
      ],
      "name": "ApprovalForAll",
      "type": "event"
    },
    {
      "anonymous": false,
      "inputs": [
        {
          "indexed": true,
          "internalType": "address",
          "name": "previousOwner",
          "type": "address"
        },
        {
          "indexed": true,
          "internalType": "address",
          "name": "newOwner",
          "type": "address"
        }
      ],
      "name": "OwnershipTransferred",
      "type": "event"
    },
    {
      "anonymous": false,
      "inputs": [
        {
          "indexed": true,
          "internalType": "bytes32",
          "name": "role",
          "type": "bytes32"
        },
        {
          "indexed": true,
          "internalType": "bytes32",
          "name": "previousAdminRole",
          "type": "bytes32"
        },
        {
          "indexed": true,
          "internalType": "bytes32",
          "name": "newAdminRole",
          "type": "bytes32"
        }
      ],
      "name": "RoleAdminChanged",
      "type": "event"
    },
    {
      "anonymous": false,
      "inputs": [
        {
          "indexed": true,
          "internalType": "bytes32",
          "name": "role",
          "type": "bytes32"
        },
        {
          "indexed": true,
          "internalType": "address",
          "name": "account",
          "type": "address"
        },
        {
          "indexed": true,
          "internalType": "address",
          "name": "sender",
          "type": "address"
        }
      ],
      "name": "RoleGranted",
      "type": "event"
    },
    {
      "anonymous": false,
      "inputs": [
        {
          "indexed": true,
          "internalType": "bytes32",
          "name": "role",
          "type": "bytes32"
        },
        {
          "indexed": true,
          "internalType": "address",
          "name": "account",
          "type": "address"
        },
        {
          "indexed": true,
          "internalType": "address",
          "name": "sender",
          "type": "address"
        }
      ],
      "name": "RoleRevoked",
      "type": "event"
    },
    {
      "anonymous": false,
      "inputs": [
        {
          "indexed": false,
          "internalType": "uint256",
          "name": "tokenId",
          "type": "uint256"
        },
        {
          "components": [
            {
              "internalType": "address payable",
              "name": "account",
              "type": "address"
            },
            {
              "internalType": "uint96",
              "name": "value",
              "type": "uint96"
            }
          ],
          "indexed": false,
          "internalType": "struct LibPart.Part[]",
          "name": "royalties",
          "type": "tuple[]"
        }
      ],
      "name": "RoyaltiesSet",
      "type": "event"
    },
    {
      "anonymous": false,
      "inputs": [
        {
          "indexed": true,
          "internalType": "address",
          "name": "from",
          "type": "address"
        },
        {
          "indexed": true,
          "internalType": "address",
          "name": "to",
          "type": "address"
        },
        {
          "indexed": true,
          "internalType": "uint256",
          "name": "tokenId",
          "type": "uint256"
        }
      ],
      "name": "Transfer",
      "type": "event"
    },
    {
      "inputs": [],
      "name": "CHARATCRER_ROLE",
      "outputs": [
        {
          "internalType": "bytes32",
          "name": "",
          "type": "bytes32"
        }
      ],
      "stateMutability": "view",
      "type": "function",
      "constant": true
    },
    {
      "inputs": [],
      "name": "DEFAULT_ADMIN_ROLE",
      "outputs": [
        {
          "internalType": "bytes32",
          "name": "",
          "type": "bytes32"
        }
      ],
      "stateMutability": "view",
      "type": "function",
      "constant": true
    },
    {
      "inputs": [],
      "name": "MINTER_ROLE",
      "outputs": [
        {
          "internalType": "bytes32",
          "name": "",
          "type": "bytes32"
        }
      ],
      "stateMutability": "view",
      "type": "function",
      "constant": true
    },
    {
      "inputs": [],
      "name": "POLYMATH_ROLE",
      "outputs": [
        {
          "internalType": "bytes32",
          "name": "",
          "type": "bytes32"
        }
      ],
      "stateMutability": "view",
      "type": "function",
      "constant": true
    },
    {
      "inputs": [],
      "name": "QUEST_ROLE",
      "outputs": [
        {
          "internalType": "bytes32",
          "name": "",
          "type": "bytes32"
        }
      ],
      "stateMutability": "view",
      "type": "function",
      "constant": true
    },
    {
      "inputs": [
        {
          "internalType": "address",
          "name": "to",
          "type": "address"
        },
        {
          "internalType": "uint256",
          "name": "tokenId",
          "type": "uint256"
        }
      ],
      "name": "approve",
      "outputs": [],
      "stateMutability": "nonpayable",
      "type": "function"
    },
    {
      "inputs": [
        {
          "internalType": "address",
          "name": "owner",
          "type": "address"
        }
      ],
      "name": "balanceOf",
      "outputs": [
        {
          "internalType": "uint256",
          "name": "",
          "type": "uint256"
        }
      ],
      "stateMutability": "view",
      "type": "function",
      "constant": true
    },
    {
      "inputs": [
        {
          "internalType": "uint256",
          "name": "tokenId",
          "type": "uint256"
        }
      ],
      "name": "getApproved",
      "outputs": [
        {
          "internalType": "address",
          "name": "",
          "type": "address"
        }
      ],
      "stateMutability": "view",
      "type": "function",
      "constant": true
    },
    {
      "inputs": [
        {
          "internalType": "uint256",
          "name": "id",
          "type": "uint256"
        }
      ],
      "name": "getRaribleV2Royalties",
      "outputs": [
        {
          "components": [
            {
              "internalType": "address payable",
              "name": "account",
              "type": "address"
            },
            {
              "internalType": "uint96",
              "name": "value",
              "type": "uint96"
            }
          ],
          "internalType": "struct LibPart.Part[]",
          "name": "",
          "type": "tuple[]"
        }
      ],
      "stateMutability": "view",
      "type": "function",
      "constant": true
    },
    {
      "inputs": [
        {
          "internalType": "bytes32",
          "name": "role",
          "type": "bytes32"
        }
      ],
      "name": "getRoleAdmin",
      "outputs": [
        {
          "internalType": "bytes32",
          "name": "",
          "type": "bytes32"
        }
      ],
      "stateMutability": "view",
      "type": "function",
      "constant": true
    },
    {
      "inputs": [
        {
          "internalType": "bytes32",
          "name": "role",
          "type": "bytes32"
        },
        {
          "internalType": "uint256",
          "name": "index",
          "type": "uint256"
        }
      ],
      "name": "getRoleMember",
      "outputs": [
        {
          "internalType": "address",
          "name": "",
          "type": "address"
        }
      ],
      "stateMutability": "view",
      "type": "function",
      "constant": true
    },
    {
      "inputs": [
        {
          "internalType": "bytes32",
          "name": "role",
          "type": "bytes32"
        }
      ],
      "name": "getRoleMemberCount",
      "outputs": [
        {
          "internalType": "uint256",
          "name": "",
          "type": "uint256"
        }
      ],
      "stateMutability": "view",
      "type": "function",
      "constant": true
    },
    {
      "inputs": [
        {
          "internalType": "bytes32",
          "name": "role",
          "type": "bytes32"
        },
        {
          "internalType": "address",
          "name": "account",
          "type": "address"
        }
      ],
      "name": "grantRole",
      "outputs": [],
      "stateMutability": "nonpayable",
      "type": "function"
    },
    {
      "inputs": [
        {
          "internalType": "bytes32",
          "name": "role",
          "type": "bytes32"
        },
        {
          "internalType": "address",
          "name": "account",
          "type": "address"
        }
      ],
      "name": "hasRole",
      "outputs": [
        {
          "internalType": "bool",
          "name": "",
          "type": "bool"
        }
      ],
      "stateMutability": "view",
      "type": "function",
      "constant": true
    },
    {
      "inputs": [
        {
          "internalType": "address",
          "name": "owner",
          "type": "address"
        },
        {
          "internalType": "address",
          "name": "operator",
          "type": "address"
        }
      ],
      "name": "isApprovedForAll",
      "outputs": [
        {
          "internalType": "bool",
          "name": "",
          "type": "bool"
        }
      ],
      "stateMutability": "view",
      "type": "function",
      "constant": true
    },
    {
      "inputs": [],
      "name": "name",
      "outputs": [
        {
          "internalType": "string",
          "name": "",
          "type": "string"
        }
      ],
      "stateMutability": "view",
      "type": "function",
      "constant": true
    },
    {
      "inputs": [],
      "name": "owner",
      "outputs": [
        {
          "internalType": "address",
          "name": "",
          "type": "address"
        }
      ],
      "stateMutability": "view",
      "type": "function",
      "constant": true
    },
    {
      "inputs": [
        {
          "internalType": "uint256",
          "name": "tokenId",
          "type": "uint256"
        }
      ],
      "name": "ownerOf",
      "outputs": [
        {
          "internalType": "address",
          "name": "",
          "type": "address"
        }
      ],
      "stateMutability": "view",
      "type": "function",
      "constant": true
    },
    {
      "inputs": [],
      "name": "renounceOwnership",
      "outputs": [],
      "stateMutability": "nonpayable",
      "type": "function"
    },
    {
      "inputs": [
        {
          "internalType": "bytes32",
          "name": "role",
          "type": "bytes32"
        },
        {
          "internalType": "address",
          "name": "account",
          "type": "address"
        }
      ],
      "name": "renounceRole",
      "outputs": [],
      "stateMutability": "nonpayable",
      "type": "function"
    },
    {
      "inputs": [
        {
          "internalType": "bytes32",
          "name": "role",
          "type": "bytes32"
        },
        {
          "internalType": "address",
          "name": "account",
          "type": "address"
        }
      ],
      "name": "revokeRole",
      "outputs": [],
      "stateMutability": "nonpayable",
      "type": "function"
    },
    {
      "inputs": [
        {
          "internalType": "uint256",
          "name": "",
          "type": "uint256"
        },
        {
          "internalType": "uint256",
          "name": "",
          "type": "uint256"
        }
      ],
      "name": "royalties",
      "outputs": [
        {
          "internalType": "address payable",
          "name": "account",
          "type": "address"
        },
        {
          "internalType": "uint96",
          "name": "value",
          "type": "uint96"
        }
      ],
      "stateMutability": "view",
      "type": "function",
      "constant": true
    },
    {
      "inputs": [
        {
          "internalType": "address",
          "name": "from",
          "type": "address"
        },
        {
          "internalType": "address",
          "name": "to",
          "type": "address"
        },
        {
          "internalType": "uint256",
          "name": "tokenId",
          "type": "uint256"
        }
      ],
      "name": "safeTransferFrom",
      "outputs": [],
      "stateMutability": "nonpayable",
      "type": "function"
    },
    {
      "inputs": [
        {
          "internalType": "address",
          "name": "from",
          "type": "address"
        },
        {
          "internalType": "address",
          "name": "to",
          "type": "address"
        },
        {
          "internalType": "uint256",
          "name": "tokenId",
          "type": "uint256"
        },
        {
          "internalType": "bytes",
          "name": "_data",
          "type": "bytes"
        }
      ],
      "name": "safeTransferFrom",
      "outputs": [],
      "stateMutability": "nonpayable",
      "type": "function"
    },
    {
      "inputs": [
        {
          "internalType": "address",
          "name": "operator",
          "type": "address"
        },
        {
          "internalType": "bool",
          "name": "approved",
          "type": "bool"
        }
      ],
      "name": "setApprovalForAll",
      "outputs": [],
      "stateMutability": "nonpayable",
      "type": "function"
    },
    {
      "inputs": [],
      "name": "symbol",
      "outputs": [
        {
          "internalType": "string",
          "name": "",
          "type": "string"
        }
      ],
      "stateMutability": "view",
      "type": "function",
      "constant": true
    },
    {
      "inputs": [
        {
          "internalType": "uint256",
          "name": "tokenId",
          "type": "uint256"
        }
      ],
      "name": "tokenURI",
      "outputs": [
        {
          "internalType": "string",
          "name": "",
          "type": "string"
        }
      ],
      "stateMutability": "view",
      "type": "function",
      "constant": true
    },
    {
      "inputs": [
        {
          "internalType": "address",
          "name": "newOwner",
          "type": "address"
        }
      ],
      "name": "transferOwnership",
      "outputs": [],
      "stateMutability": "nonpayable",
      "type": "function"
    },
    {
      "inputs": [
        {
          "internalType": "address",
          "name": "_to",
          "type": "address"
        },
        {
          "components": [
            {
              "internalType": "uint256",
              "name": "class",
              "type": "uint256"
            },
            {
              "internalType": "uint16",
              "name": "level",
              "type": "uint16"
            },
            {
              "internalType": "uint256",
              "name": "timeLock",
              "type": "uint256"
            },
            {
              "internalType": "uint256",
              "name": "equipedIn",
              "type": "uint256"
            },
            {
              "internalType": "uint256",
              "name": "lastCache",
              "type": "uint256"
            },
            {
              "components": [
                {
                  "internalType": "uint16[8]",
                  "name": "values",
                  "type": "uint16[8]"
                }
              ],
              "internalType": "struct GameStats.BaseStats",
              "name": "cachedStats",
              "type": "tuple"
            }
          ],
          "internalType": "struct Equipment.gearData",
          "name": "data",
          "type": "tuple"
        }
      ],
      "name": "mint",
      "outputs": [],
      "stateMutability": "nonpayable",
      "type": "function"
    },
    {
      "inputs": [
        {
          "internalType": "address",
          "name": "gameStats",
          "type": "address"
        }
      ],
      "name": "setGameStatsAddress",
      "outputs": [],
      "stateMutability": "nonpayable",
      "type": "function"
    },
    {
      "inputs": [
        {
          "internalType": "address",
          "name": "characters",
          "type": "address"
        }
      ],
      "name": "setCharactersAddress",
      "outputs": [],
      "stateMutability": "nonpayable",
      "type": "function"
    },
    {
      "inputs": [
        {
          "internalType": "address payable",
          "name": "rAddress",
          "type": "address"
        }
      ],
      "name": "setRoyaltiesAddress",
      "outputs": [],
      "stateMutability": "nonpayable",
      "type": "function"
    },
    {
      "inputs": [
        {
          "internalType": "uint96",
          "name": "rBasicPoints",
          "type": "uint96"
        }
      ],
      "name": "setRoyaltiesBasicPoints",
      "outputs": [],
      "stateMutability": "nonpayable",
      "type": "function"
    },
    {
      "inputs": [
        {
          "internalType": "uint256",
          "name": "gearId",
          "type": "uint256"
        },
        {
          "internalType": "uint256",
          "name": "timestamp",
          "type": "uint256"
        }
      ],
      "name": "setTimeLock",
      "outputs": [],
      "stateMutability": "nonpayable",
      "type": "function"
    },
    {
      "inputs": [
        {
          "internalType": "uint256",
          "name": "lvl",
          "type": "uint256"
        },
        {
          "internalType": "uint16[]",
          "name": "matrixValues",
          "type": "uint16[]"
        }
      ],
      "name": "setMaxLevel",
      "outputs": [],
      "stateMutability": "nonpayable",
      "type": "function"
    },
    {
      "inputs": [],
      "name": "getMatrix",
      "outputs": [
        {
          "internalType": "uint16[]",
          "name": "",
          "type": "uint16[]"
        }
      ],
      "stateMutability": "view",
      "type": "function",
      "constant": true
    },
    {
      "inputs": [
        {
          "internalType": "uint256",
          "name": "idGear",
          "type": "uint256"
        }
      ],
      "name": "getGearData",
      "outputs": [
        {
          "components": [
            {
              "internalType": "uint256",
              "name": "class",
              "type": "uint256"
            },
            {
              "internalType": "uint16",
              "name": "level",
              "type": "uint16"
            },
            {
              "internalType": "uint256",
              "name": "timeLock",
              "type": "uint256"
            },
            {
              "internalType": "uint256",
              "name": "equipedIn",
              "type": "uint256"
            },
            {
              "internalType": "uint256",
              "name": "lastCache",
              "type": "uint256"
            },
            {
              "components": [
                {
                  "internalType": "uint16[8]",
                  "name": "values",
                  "type": "uint16[8]"
                }
              ],
              "internalType": "struct GameStats.BaseStats",
              "name": "cachedStats",
              "type": "tuple"
            }
          ],
          "internalType": "struct Equipment.gearData",
          "name": "",
          "type": "tuple"
        }
      ],
      "stateMutability": "view",
      "type": "function",
      "constant": true
    },
    {
      "inputs": [
        {
          "internalType": "uint256",
          "name": "idGear",
          "type": "uint256"
        }
      ],
      "name": "getGearStats",
      "outputs": [
        {
          "components": [
            {
              "internalType": "uint8",
              "name": "slot",
              "type": "uint8"
            },
            {
              "components": [
                {
                  "internalType": "uint16[8]",
                  "name": "values",
                  "type": "uint16[8]"
                }
              ],
              "internalType": "struct GameStats.BaseStats",
              "name": "stats",
              "type": "tuple"
            }
          ],
          "internalType": "struct GameStats.EquipmentItem",
          "name": "",
          "type": "tuple"
        }
      ],
      "stateMutability": "view",
      "type": "function",
      "constant": true
    },
    {
      "inputs": [
        {
          "internalType": "uint256",
          "name": "idGear",
          "type": "uint256"
        }
      ],
      "name": "getCachedStats",
      "outputs": [
        {
          "components": [
            {
              "internalType": "uint16[8]",
              "name": "values",
              "type": "uint16[8]"
            }
          ],
          "internalType": "struct GameStats.BaseStats",
          "name": "",
          "type": "tuple"
        }
      ],
      "stateMutability": "view",
      "type": "function",
      "constant": true
    },
    {
      "inputs": [
        {
          "internalType": "address",
          "name": "powner",
          "type": "address"
        }
      ],
      "name": "getEquipment",
      "outputs": [
        {
          "internalType": "uint256[]",
          "name": "",
          "type": "uint256[]"
        }
      ],
      "stateMutability": "view",
      "type": "function",
      "constant": true
    },
    {
      "inputs": [
        {
          "internalType": "uint256",
          "name": "gear",
          "type": "uint256"
        }
      ],
      "name": "getSlot",
      "outputs": [
        {
          "internalType": "uint8",
          "name": "slot",
          "type": "uint8"
        }
      ],
      "stateMutability": "view",
      "type": "function",
      "constant": true
    },
    {
      "inputs": [
        {
          "internalType": "uint256",
          "name": "gear",
          "type": "uint256"
        }
      ],
      "name": "getCharacter",
      "outputs": [
        {
          "internalType": "uint256",
          "name": "",
          "type": "uint256"
        }
      ],
      "stateMutability": "view",
      "type": "function",
      "constant": true
    },
    {
      "inputs": [
        {
          "internalType": "uint256",
          "name": "gear",
          "type": "uint256"
        },
        {
          "internalType": "uint256",
          "name": "character",
          "type": "uint256"
        }
      ],
      "name": "setCharacter",
      "outputs": [],
      "stateMutability": "nonpayable",
      "type": "function"
    },
    {
      "inputs": [
        {
          "internalType": "address",
          "name": "player",
          "type": "address"
        },
        {
          "internalType": "uint256[11]",
          "name": "gear",
          "type": "uint256[11]"
        }
      ],
      "name": "isValidGearSet",
      "outputs": [
        {
          "internalType": "bool",
          "name": "",
          "type": "bool"
        }
      ],
      "stateMutability": "view",
      "type": "function",
      "constant": true
    },
    {
      "inputs": [
        {
          "internalType": "uint256",
          "name": "gear",
          "type": "uint256"
        }
      ],
      "name": "updateLevel",
      "outputs": [],
      "stateMutability": "nonpayable",
      "type": "function"
    },
    {
      "inputs": [
        {
          "internalType": "uint256",
          "name": "tokenId",
          "type": "uint256"
        }
      ],
      "name": "exists",
      "outputs": [
        {
          "internalType": "bool",
          "name": "",
          "type": "bool"
        }
      ],
      "stateMutability": "view",
      "type": "function",
      "constant": true
    },
    {
      "inputs": [
        {
          "internalType": "uint256",
          "name": "idGear",
          "type": "uint256"
        }
      ],
      "name": "updateCache",
      "outputs": [],
      "stateMutability": "nonpayable",
      "type": "function"
    },
    {
      "inputs": [
        {
          "internalType": "address",
          "name": "from",
          "type": "address"
        },
        {
          "internalType": "address",
          "name": "to",
          "type": "address"
        },
        {
          "internalType": "uint256",
          "name": "tokenId",
          "type": "uint256"
        }
      ],
      "name": "transferFrom",
      "outputs": [],
      "stateMutability": "nonpayable",
      "type": "function"
    },
    {
      "inputs": [
        {
          "internalType": "uint256",
          "name": "_tokenId",
          "type": "uint256"
        },
        {
          "internalType": "address payable",
          "name": "_royaltiesReceipientAddress",
          "type": "address"
        },
        {
          "internalType": "uint96",
          "name": "_percentageBasisPoints",
          "type": "uint96"
        }
      ],
      "name": "setRoyalties",
      "outputs": [],
      "stateMutability": "nonpayable",
      "type": "function"
    },
    {
      "inputs": [
        {
          "internalType": "uint256",
          "name": "_tokenId",
          "type": "uint256"
        },
        {
          "internalType": "uint256",
          "name": "_salePrice",
          "type": "uint256"
        }
      ],
      "name": "royaltyInfo",
      "outputs": [
        {
          "internalType": "address",
          "name": "receiver",
          "type": "address"
        },
        {
          "internalType": "uint256",
          "name": "royaltyAmount",
          "type": "uint256"
        }
      ],
      "stateMutability": "view",
      "type": "function",
      "constant": true
    },
    {
      "inputs": [
        {
          "internalType": "bytes4",
          "name": "interfaceId",
          "type": "bytes4"
        }
      ],
      "name": "supportsInterface",
      "outputs": [
        {
          "internalType": "bool",
          "name": "",
          "type": "bool"
        }
      ],
      "stateMutability": "view",
      "type": "function",
      "constant": true
    },
    {
      "inputs": [
        {
          "internalType": "address",
          "name": "powner",
          "type": "address"
        },
        {
          "internalType": "uint256",
          "name": "tokenId",
          "type": "uint256"
        }
      ],
      "name": "positionOf",
      "outputs": [
        {
          "internalType": "uint256",
          "name": "",
          "type": "uint256"
        }
      ],
      "stateMutability": "view",
      "type": "function",
      "constant": true
    }
  ],
  "bytecode": "0x60806040523480156200001157600080fd5b50604080518082018252601981527f436861696e73206f6620476c6f72792045717569706d656e740000000000000060208083019182528351808501909452600384527f43474500000000000000000000000000000000000000000000000000000000009084015281519192916200008c91600091620010f6565b508051620000a2906001906020840190620010f6565b505050620000d1620000c262000264640100000000026401000000009004565b64010000000062000268810204565b620000f96000620000ea64010000000062000264810204565b640100000000620002ba810204565b6200012060008051602062005e50833981519152620000ea64010000000062000264810204565b620001587ff981fb6fdf0d58703d02e1dadceeaa95ac8ae9afe74ea698f2124fae240aabb0620000ea64010000000062000264810204565b620001907f19ac353dd86d6954025a359137447e1fda8f14ba7ba6373372af73b706fa3b22620000ea64010000000062000264810204565b7505dc00000000000000000000000000000000000000003017600d55620001b662001185565b8051601190815560208201516012805461ffff191661ffff90921691909117905560408201516013556060820151601455608082015160155560a08201518051839291906016906200020c9082906008620011c6565b5050509050506200025d6200022f62000264640100000000026401000000009004565b62000249600c6401000000006200217b620002d382021704565b6401000000006200217f620002d782021704565b5062001684565b3390565b60088054600160a060020a03838116600160a060020a0319831681179093556040519116919082907f8be0079c531659141344cd1fd0a4f28419497f9722a3daafe3b4186f6b6457e090600090a35050565b620002cf82826401000000006200046a810204565b5050565b5490565b600160a060020a0382166200034d576040517f08c379a000000000000000000000000000000000000000000000000000000000815260206004820181905260248201527f4552433732313a206d696e7420746f20746865207a65726f206164647265737360448201526064015b60405180910390fd5b6200036181640100000000620004b1810204565b15620003ca576040517f08c379a000000000000000000000000000000000000000000000000000000000815260206004820152601c60248201527f4552433732313a20746f6b656e20616c7265616479206d696e74656400000000604482015260640162000344565b620003e160008383640100000000620004ce810204565b600160a060020a03821660009081526003602052604081208054600192906200040c908490620014a9565b90915550506000818152600260205260408082208054600160a060020a031916600160a060020a03861690811790915590518392907fddf252ad1be2c89b69c2b068fc378daa952ba7f163c4a11628f55a4df523b3ef908290a45050565b620004848282640100000000620022c4620006eb82021704565b6000828152600760205260409020620004ac90826401000000006200234a6200078982021704565b505050565b600090815260026020526040902054600160a060020a0316151590565b60008181526017602052604090206002015442116200054a576040517f08c379a000000000000000000000000000000000000000000000000000000000815260206004820152601e60248201527f457863657074696f6e3a2065717569706d656e74206973206c6f636b65640000604482015260640162000344565b600160a060020a038316620006875760116017600062000579600c6401000000006200217b620002d382021704565b8152602081019190915260400160002081548155600180830154908201805461ffff191661ffff9092169190911790556002808301549082015560038083015490820155600480830154908201556005808301908201620005dd818360086200125e565b50505090505062000603600c620007b2640100000000026200235f176401000000009004565b600d5462000648908290600160a060020a038116907401000000000000000000000000000000000000000090046001606060020a0316640100000000620007bb810204565b600160a060020a038216600090815260186020908152604082208054600181018255908352912001819055620004ac8164010000000062000945810204565b600160a060020a038216620006ab57620004ac838264010000000062000bdb810204565b600160a060020a038216600090815260186020908152604082208054600181018255908352912001819055620004ac838264010000000062000bdb810204565b62000700828264010000000062000ce8810204565b620002cf576000828152600660209081526040808320600160a060020a03851684529091529020805460ff191660011790556200074564010000000062000264810204565b600160a060020a031681600160a060020a0316837f2f8788117e7eff1d82e926ec794901d17c78024a50270940304540a733656f0d60405160405180910390a45050565b6000620007a983600160a060020a03841664010000000062000d13810204565b90505b92915050565b80546001019055565b620007f160008051602062005e50833981519152620007e264010000000062000264810204565b64010000000062000ce8810204565b6200087f576040517f08c379a000000000000000000000000000000000000000000000000000000000815260206004820152602860248201527f457863657074696f6e3a206d7573742068617665206d696e74657220726f6c6560448201527f20746f206d696e74000000000000000000000000000000000000000000000000606482015260840162000344565b604080516001808252818301909252600091816020015b6040805180820190915260008082526020820152815260200190600190039081620008965790505090508181600081518110620008d757620008d762001626565b6020026020010151602001906001606060020a031690816001606060020a031681525050828160008151811062000912576200091262001626565b6020908102919091010151600160a060020a0390911690526200093f848264010000000062000d6b810204565b50505050565b806200094e5750565b600a546000828152601760205260408082205490517f4faf35600000000000000000000000000000000000000000000000000000000081529192600160a060020a031691634faf356091620009a99160040190815260200190565b6101206040518083038186803b158015620009c357600080fd5b505afa158015620009d8573d6000803e3d6000fd5b505050506040513d601f19601f82011682018060405250810190620009fe9190620012d2565b905060005b600881101562000b25576000838152601760205260409020600101546010805460649261ffff1690811062000a3c5762000a3c62001626565b90600052602060002090601091828204019190066002029054906101000a900461ffff16836020015160000151836008811062000a7d5762000a7d62001626565b602002015162000a8e91906200150d565b62000a9a9190620014c4565b602083015151826008811062000ab45762000ab462001626565b602002015162000ac5919062001480565b6000848152601760205260409020600501826008811062000aea5762000aea62001626565b601091828204019190066002026101000a81548161ffff021916908361ffff160217905550808062000b1c90620015aa565b91505062000a03565b5060008281526017602052604090204260048201556003015415620002cf57600b54600083815260176020526040908190206003015490517f7846701b000000000000000000000000000000000000000000000000000000008152600160a060020a0390921691637846701b9162000ba39160040190815260200190565b600060405180830381600087803b15801562000bbe57600080fd5b505af115801562000bd3573d6000803e3d6000fd5b505050505050565b600062000bf2838364010000000062000ff4810204565b600160a060020a038416600090815260186020526040902054909150811015620004ac57600160a060020a0383166000908152601860205260409020805462000c3e906001906200153a565b8154811062000c515762000c5162001626565b90600052602060002001546018600085600160a060020a0316600160a060020a03168152602001908152602001600020828154811062000c955762000c9562001626565b6000918252602080832090910192909255600160a060020a038516815260189091526040902080548062000ccd5762000ccd620015f7565b60019003818190600052602060002001600090559055505050565b6000918252600660209081526040808420600160a060020a0393909316845291905290205460ff1690565b600062000d2a83836401000000006200109f810204565b62000d6257508154600181810184556000848152602080822090930184905584548482528286019093526040902091909155620007ac565b506000620007ac565b60005b815181101562000fde576000600160a060020a031682828151811062000d985762000d9862001626565b602002602001015160000151600160a060020a0316141562000e17576040517f08c379a000000000000000000000000000000000000000000000000000000000815260206004820152601b60248201527f526563697069656e742073686f756c642062652070726573656e740000000000604482015260640162000344565b81818151811062000e2c5762000e2c62001626565b6020026020010151602001516001606060020a03166000141562000ead576040517f08c379a000000000000000000000000000000000000000000000000000000000815260206004820181905260248201527f526f79616c74792076616c75652073686f756c6420626520706f736974697665604482015260640162000344565b60008381526009602052604090205462000f3f576000838152600960205260409020825183908390811062000ee65762000ee662001626565b6020908102919091018101518254600181018455600093845292829020815191909201516001606060020a03167401000000000000000000000000000000000000000002600160a060020a039091161791015562000fc9565b81818151811062000f545762000f5462001626565b60200260200101516009600085815260200190815260200160002060008154811062000f845762000f8462001626565b6000918252602091829020835193909201516001606060020a03167401000000000000000000000000000000000000000002600160a060020a03909316929092179101555b8062000fd581620015aa565b91505062000d6e565b50620002cf8282640100000000620010b7810204565b6000805b600160a060020a0384166000908152601860205260409020548110156200107857600160a060020a038416600090815260186020526040902080548491908390811062001049576200104962001626565b9060005260206000200154141562001063579050620007ac565b806200106f81620015aa565b91505062000ff8565b50600160a060020a038316600090815260186020526040902054620007a9906064620014a9565b60009081526001919091016020526040902054151590565b7f3fa96d7b6bcbfe71ef171666d84db3cf52fa2d1c8afdb1cc8e486177f208b7df8282604051620010ea9291906200139e565b60405180910390a15050565b828054620011049062001554565b90600052602060002090601f01602090048101928262001128576000855562001173565b82601f106200114357805160ff191683800117855562001173565b8280016001018555821562001173579182015b828111156200117357825182559160200191906001019062001156565b506200118192915062001294565b5090565b6040518060c0016040528060008152602001600061ffff168152602001600081526020016000815260200160008152602001620011c1620012ab565b905290565b600183019183908215620011735791602002820160005b838211156200121f57835183826101000a81548161ffff021916908361ffff1602179055509260200192600201602081600101049283019260010302620011dd565b80156200124f5782816101000a81549061ffff02191690556002016020816001010492830192600103026200121f565b50506200118192915062001294565b600183019183908215620011735791600f016010900482015b828111156200117357825482559160010191906001019062001277565b5b8082111562001181576000815560010162001295565b60408051610120810190915280620011c16020820160088161010080368337509192915050565b600081830361012080821215620012e857600080fd5b620012f26200140a565b845160ff811681146200130457600080fd5b81526020610100601f19850112156200131c57600080fd5b6200132662001435565b935086603f8701126200133857600080fd5b620013426200145a565b8082880189868a0111156200135657600080fd5b60009550855b60088110156200138b57815161ffff8116811462001378578788fd5b845292840192908401906001016200135c565b5050855250810192909252509392505050565b6000604080830185845260208281860152818651808452606087019150828801935060005b81811015620013fc5784518051600160a060020a031684528401516001606060020a0316848401529383019391850191600101620013c3565b509098975050505050505050565b604080519081016001604060020a03811182821017156200142f576200142f62001655565b60405290565b604051602081016001604060020a03811182821017156200142f576200142f62001655565b60405161010081016001604060020a03811182821017156200142f576200142f62001655565b600061ffff808316818516808303821115620014a057620014a0620015c8565b01949350505050565b60008219821115620014bf57620014bf620015c8565b500190565b600061ffff8084168062001501577f4e487b7100000000000000000000000000000000000000000000000000000000600052601260045260246000fd5b92169190910492915050565b600061ffff80831681851681830481118215151615620015315762001531620015c8565b02949350505050565b6000828210156200154f576200154f620015c8565b500390565b6002810460018216806200156957607f821691505b60208210811415620015a4577f4e487b7100000000000000000000000000000000000000000000000000000000600052602260045260246000fd5b50919050565b6000600019821415620015c157620015c1620015c8565b5060010190565b7f4e487b7100000000000000000000000000000000000000000000000000000000600052601160045260246000fd5b7f4e487b7100000000000000000000000000000000000000000000000000000000600052603160045260246000fd5b7f4e487b7100000000000000000000000000000000000000000000000000000000600052603260045260246000fd5b7f4e487b7100000000000000000000000000000000000000000000000000000000600052604160045260246000fd5b6147bc80620016946000396000f3fe608060405234801561001057600080fd5b5060043610610328576000357c0100000000000000000000000000000000000000000000000000000000900480637896ab92116101ba578063b88d4fde11610106578063d5391393116100bf578063dc95c4a711610099578063dc95c4a7146107dc578063e985e9c5146107ef578063f2fde38b1461082b578063ff3528321461083e57600080fd5b8063d53913931461077f578063d547741f146107a6578063dabb0531146107b957600080fd5b8063b88d4fde146106ec578063c57d075f146106ff578063c87b56dd14610712578063ca15c87314610725578063cad96cca14610738578063d4c97f1a1461075857600080fd5b806391d1485411610173578063a217fddf1161014d578063a217fddf146106ab578063a22cb465146106b3578063a3fd0d99146106c6578063b36a43fd146106d957600080fd5b806391d148541461067d57806392e0150b1461069057806395d89b41146106a357600080fd5b80637896ab92146105b55780637b2f8f9b146105d55780637eba7ba6146105f55780638924af741461061a5780638da5cb5b146106595780639010d07c1461066a57600080fd5b80632f2ff15d116102795780634f558e79116102325780635ad3a0a81161020c5780635ad3a0a8146105725780636352211e1461058757806370a082311461059a578063715018a6146105ad57600080fd5b80634f558e7914610539578063520923a31461054c57806352bded471461055f57600080fd5b80632f2ff15d146104b35780633143d97c146104c657806333b75413146104d957806336568abe146105005780633cee42db1461051357806342842e0e1461052657600080fd5b8063113b2ec6116102e6578063217bf0f1116102c0578063217bf0f11461042b57806323b872dd1461044b578063248a9ca31461045e5780632a55205a1461048157600080fd5b8063113b2ec6146103f257806311fdb52e14610405578063143094db1461041857600080fd5b8062e23cfc1461032d57806301ffc9a71461036757806306fdde031461038a578063081812fc1461039f578063084879b1146103ca578063095ea7b3146103df575b600080fd5b6103547f19ac353dd86d6954025a359137447e1fda8f14ba7ba6373372af73b706fa3b2281565b6040519081526020015b60405180910390f35b61037a610375366004613dbf565b61085e565b604051901515815260200161035e565b6103926108e3565b60405161035e919061421f565b6103b26103ad366004613d5f565b610975565b604051600160a060020a03909116815260200161035e565b6103dd6103d8366004613f08565b610a16565b005b6103dd6103ed366004613d33565b610b03565b6103dd610400366004613d5f565b610c3b565b6103dd610413366004613fcc565b610ca4565b6103dd610426366004613eca565b610cfe565b61043e610439366004613d5f565b610e05565b60405161035e91906143e3565b6103dd610459366004613a57565b610ec8565b61035461046c366004613d5f565b60009081526006602052604090206001015490565b61049461048f366004613d9d565b610fb8565b60408051600160a060020a03909316835260208301919091520161035e565b6103dd6104c1366004613d78565b6110c8565b6103dd6104d4366004613d9d565b6110ee565b6103547ff981fb6fdf0d58703d02e1dadceeaa95ac8ae9afe74ea698f2124fae240aabb081565b6103dd61050e366004613d78565b611208565b61037a610521366004613b5c565b611297565b6103dd610534366004613a57565b6113e3565b61037a610547366004613d5f565b6113fe565b6103dd61055a366004613a01565b611409565b6103dd61056d366004613a01565b61147b565b61057a6114ca565b60405161035e919061419f565b6103b2610595366004613d5f565b611549565b6103546105a8366004613a01565b6115d7565b6103dd611674565b6105c86105c3366004613d5f565b6116ad565b60405161035e91906143b5565b6105e86105e3366004613a01565b611731565b60405161035e91906141e7565b610608610603366004613d5f565b61179d565b60405160ff909116815260200161035e565b61062d610628366004613d9d565b61184f565b60408051600160a060020a0390931683526bffffffffffffffffffffffff90911660208301520161035e565b600854600160a060020a03166103b2565b6103b2610678366004613d9d565b61189d565b61037a61068b366004613d78565b6118bc565b6103dd61069e366004613d5f565b6118e7565b610392611a9f565b610354600081565b6103dd6106c1366004613bfb565b611aae565b6103546106d4366004613d33565b611ab9565b6103dd6106e7366004613c2e565b611b59565b6103dd6106fa366004613a98565b611d28565b6103dd61070d366004613d9d565b611d5d565b610392610720366004613d5f565b611e17565b610354610733366004613d5f565b611ef2565b61074b610746366004613d5f565b611f09565b60405161035e919061418c565b6103547f88f9511c39c3ee69d3833e192741756ed3d5f98dc2682d8ae56ae60f2069ac8d81565b6103547f9f2df0fed2c77648de5860a4cc508cd0818c85b8b8a1ab4ceeef8d981c8956a681565b6103dd6107b4366004613d78565b611f9d565b6103546107c7366004613d5f565b60009081526017602052604090206003015490565b6103dd6107ea366004613a01565b611fc3565b61037a6107fd366004613a1e565b600160a060020a03918216600090815260056020908152604080832093909416825291909152205460ff1690565b6103dd610839366004613a01565b612012565b61085161084c366004613d5f565b6120c7565b60405161035e91906143c4565b6000600160e060020a031982167f44c74bcc00000000000000000000000000000000000000000000000000000000141561089a57506001919050565b600160e060020a031982167f2a55205a0000000000000000000000000000000000000000000000000000000014156108d457506001919050565b6108dd82612368565b92915050565b6060600080546108f290614618565b80601f016020809104026020016040519081016040528092919081815260200182805461091e90614618565b801561096b5780601f106109405761010080835404028352916020019161096b565b820191906000526020600020905b81548152906001019060200180831161094e57829003601f168201915b5050505050905090565b6000610980826123a6565b6109fa5760405160e560020a62461bcd02815260206004820152602c60248201527f4552433732313a20617070726f76656420717565727920666f72206e6f6e657860448201527f697374656e7420746f6b656e000000000000000000000000000000000000000060648201526084015b60405180910390fd5b50600090815260046020526040902054600160a060020a031690565b600854600160a060020a03163314610a435760405160e560020a62461bcd0281526004016109f190614323565b80518214610ae25760405160e560020a62461bcd02815260206004820152604860248201527f457863657074696f6e3a206d7573742070726f766964652061206d617472697860448201527f206f662076616c756573206f66207468652073616d65206c656e67687420746860648201527f616e206c6576656c000000000000000000000000000000000000000000000000608482015260a4016109f1565b600f8290558051610afa90601090602084019061380c565b505042600e5550565b6000610b0e82611549565b905080600160a060020a031683600160a060020a03161415610b9b5760405160e560020a62461bcd02815260206004820152602160248201527f4552433732313a20617070726f76616c20746f2063757272656e74206f776e6560448201527f720000000000000000000000000000000000000000000000000000000000000060648201526084016109f1565b33600160a060020a0382161480610bb75750610bb781336107fd565b610c2c5760405160e560020a62461bcd02815260206004820152603860248201527f4552433732313a20617070726f76652063616c6c6572206973206e6f74206f7760448201527f6e6572206e6f7220617070726f76656420666f7220616c6c000000000000000060648201526084016109f1565b610c3683836123c3565b505050565b600854600160a060020a03163314610c685760405160e560020a62461bcd0281526004016109f190614323565b600e546000828152601760205260409020600401541015610ca157600e54600082815260176020526040902060040155610ca181612431565b50565b600854600160a060020a03163314610cd15760405160e560020a62461bcd0281526004016109f190614323565b600d80546bffffffffffffffffffffffff90921660a060020a02600160a060020a03909216919091179055565b610d287f9f2df0fed2c77648de5860a4cc508cd0818c85b8b8a1ab4ceeef8d981c8956a6336118bc565b610d475760405160e560020a62461bcd0281526004016109f1906142c6565b604080516001808252818301909252600091816020015b6040805180820190915260008082526020820152815260200190600190039081610d5e5790505090508181600081518110610d9b57610d9b6146f2565b6020026020010151602001906bffffffffffffffffffffffff1690816bffffffffffffffffffffffff16815250508281600081518110610ddd57610ddd6146f2565b6020908102919091010151600160a060020a039091169052610dff84826126a7565b50505050565b610e0d6138b5565b6000828152601760209081526040808320815160c08101835281548152600182015461ffff1681850152600282015481840152600382015460608201526004820154608082015282516101208101938490529094919360a086019391926005860192849283019184916008918390855b82829054906101000a900461ffff1661ffff1681526020019060020190602082600101049283019260010382029150808411610e7d5790505050509190925250505090525092915050565b610ed3335b826128cb565b610ef25760405160e560020a62461bcd0281526004016109f190614358565b6000818152601760205260409020600201544211610f255760405160e560020a62461bcd0281526004016109f19061428f565b60008181526017602052604090206003015415610fad5760405160e560020a62461bcd02815260206004820152602b60248201527f457863657074696f6e3a2063616e6e6f74207472616e7366657220616e20657160448201527f756970706564206974656d00000000000000000000000000000000000000000060648201526084016109f1565b610c368383836129c9565b6000828152600960209081526040808320805482518185028101850190935280835284938493929190849084015b8282101561103a5760008481526020908190206040805180820190915290840154600160a060020a038116825260a060020a90046bffffffffffffffffffffffff1681830152825260019092019101610fe6565b5050505090506000815111156110b8578060008151811061105d5761105d6146f2565b6020026020010151600001516127108260008151811061107f5761107f6146f2565b6020026020010151602001516bffffffffffffffffffffffff16866110a4919061459f565b6110ae9190614561565b92509250506110c1565b60008092509250505b9250929050565b6000828152600660205260409020600101546110e481336129fc565b610c368383612a63565b6111187f19ac353dd86d6954025a359137447e1fda8f14ba7ba6373372af73b706fa3b22336118bc565b61118d5760405160e560020a62461bcd02815260206004820152603060248201527f457863657074696f6e3a206d757374206861766520515545535420726f6c652060448201527f746f207365742074696d656c6f636b730000000000000000000000000000000060648201526084016109f1565b611196826113fe565b6111e55760405160e560020a62461bcd02815260206004820181905260248201527f457863657074696f6e3a204765617220646f6573206e6f74206578697374737460448201526064016109f1565b6111ef8142614528565b6000928352601760205260409092206002019190915550565b600160a060020a03811633146112895760405160e560020a62461bcd02815260206004820152602f60248201527f416363657373436f6e74726f6c3a2063616e206f6e6c792072656e6f756e636560448201527f20726f6c657320666f722073656c66000000000000000000000000000000000060648201526084016109f1565b6112938282612a85565b5050565b6000805b600b8110156113d9578281600b81106112b6576112b66146f2565b60200201516112c4576113c7565b42601760008584600b81106112db576112db6146f2565b6020020151815260200190815260200160002060020154106113015760009150506108dd565b6113208382600b8110611316576113166146f2565b60200201516123a6565b61132e5760009150506108dd565b83600160a060020a03166113578483600b811061134d5761134d6146f2565b6020020151611549565b600160a060020a03161461136f5760009150506108dd565b61138e8382600b8110611384576113846146f2565b602002015161179d565b60ff166064141580156113b85750806113b28483600b8110611384576113846146f2565b60ff1614155b156113c75760009150506108dd565b806113d181614678565b91505061129b565b5060019392505050565b610c3683838360405180602001604052806000815250611d28565b60006108dd826123a6565b600854600160a060020a031633146114365760405160e560020a62461bcd0281526004016109f190614323565b600b8054600160a060020a031916600160a060020a038316179055610ca17f88f9511c39c3ee69d3833e192741756ed3d5f98dc2682d8ae56ae60f2069ac8d82612aa7565b600854600160a060020a031633146114a85760405160e560020a62461bcd0281526004016109f190614323565b600a8054600160a060020a031916600160a060020a0392909216919091179055565b6060601080548060200260200160405190810160405280929190818152602001828054801561096b57602002820191906000526020600020906000905b82829054906101000a900461ffff1661ffff16815260200190600201906020826001010492830192600103820291508084116115075790505050505050905090565b600081815260026020526040812054600160a060020a0316806108dd5760405160e560020a62461bcd02815260206004820152602960248201527f4552433732313a206f776e657220717565727920666f72206e6f6e657869737460448201527f656e7420746f6b656e000000000000000000000000000000000000000000000060648201526084016109f1565b6000600160a060020a0382166116585760405160e560020a62461bcd02815260206004820152602a60248201527f4552433732313a2062616c616e636520717565727920666f7220746865207a6560448201527f726f20616464726573730000000000000000000000000000000000000000000060648201526084016109f1565b50600160a060020a031660009081526003602052604090205490565b600854600160a060020a031633146116a15760405160e560020a62461bcd0281526004016109f190614323565b6116ab6000612ab1565b565b6116b56138f4565b6000828152601760209081526040918290208251610120810190935260050190829081018260088282826020028201916000905b82829054906101000a900461ffff1661ffff16815260200190600201906020826001010492830192600103820291508084116116e95790505050505050815250509050919050565b600160a060020a03811660009081526018602090815260409182902080548351818402810184019094528084526060939283018282801561179157602002820191906000526020600020905b81548152602001906001019080831161177d575b50505050509050919050565b600a546000828152601760205260408082205490517f4faf3560000000000000000000000000000000000000000000000000000000008152600481019190915290918291600160a060020a0390911690634faf3560906024016101206040518083038186803b15801561180f57600080fd5b505afa158015611823573d6000803e3d6000fd5b505050506040513d601f19601f820116820180604052508101906118479190613df9565b519392505050565b6009602052816000526040600020818154811061186b57600080fd5b600091825260209091200154600160a060020a038116925060a060020a90046bffffffffffffffffffffffff16905082565b60008281526007602052604081206118b59083612b03565b9392505050565b6000918252600660209081526040808420600160a060020a0393909316845291905290205460ff1690565b600081815260176020526040902060020154421161191a5760405160e560020a62461bcd0281526004016109f19061428f565b6119447ff981fb6fdf0d58703d02e1dadceeaa95ac8ae9afe74ea698f2124fae240aabb0336118bc565b6119b95760405160e560020a62461bcd02815260206004820152603360248201527f457863657074696f6e3a206f6e6c792074686520506f6c796d6174682063616e60448201527f2063616c6c20746869732066756e6374696f6e0000000000000000000000000060648201526084016109f1565b600f5460008281526017602052604090206001908101546119e09161ffff9091169061450b565b61ffff1610611a5a5760405160e560020a62461bcd02815260206004820152602c60248201527f457863657074696f6e3a2065717569706d656e7420697320616c72656164792060448201527f6174206d6178206c6576656c000000000000000000000000000000000000000060648201526084016109f1565b6000818152601760205260408120600101805461ffff1691611a7b83614656565b91906101000a81548161ffff021916908361ffff16021790555050610ca181612431565b6060600180546108f290614618565b611293338383612b0f565b6000805b600160a060020a038416600090815260186020526040902054811015611b3457600160a060020a0384166000908152601860205260409020805484919083908110611b0a57611b0a6146f2565b90600052602060002001541415611b225790506108dd565b80611b2c81614678565b915050611abd565b50600160a060020a0383166000908152601860205260409020546118b5906064614528565b611b837f9f2df0fed2c77648de5860a4cc508cd0818c85b8b8a1ab4ceeef8d981c8956a6336118bc565b611ba25760405160e560020a62461bcd0281526004016109f1906142c6565b600a60009054906101000a9004600160a060020a0316600160a060020a031663a5d839f66040518163ffffffff167c010000000000000000000000000000000000000000000000000000000002815260040160206040518083038186803b158015611c0c57600080fd5b505afa158015611c20573d6000803e3d6000fd5b505050506040513d601f19601f82011682018060405250810190611c449190613eb1565b815110611cbc5760405160e560020a62461bcd02815260206004820152602860248201527f457863657074696f6e3a2065717569706d656e7420696e646578206f7574206f60448201527f6620626f756e647300000000000000000000000000000000000000000000000060648201526084016109f1565b8051601190815560208201516012805461ffff191661ffff90921691909117905560408201516013556060820151601455608082015160155560a0820151805183929190601690611d109082906008613907565b50505090505061129382611d23600c5490565b61217f565b611d3233836128cb565b611d515760405160e560020a62461bcd0281526004016109f190614358565b610dff84848484612be1565b611d877f88f9511c39c3ee69d3833e192741756ed3d5f98dc2682d8ae56ae60f2069ac8d336118bc565b611dfc5760405160e560020a62461bcd02815260206004820152603660248201527f457863657074696f6e3a206f6e6c7920434841524154435245525f524f4c452060448201527f63616e2063616c6c20746869732066756e6374696f6e0000000000000000000060648201526084016109f1565b81156112935760009182526017602052604090912060030155565b6060611e22826123a6565b611e975760405160e560020a62461bcd02815260206004820152602f60248201527f4552433732314d657461646174613a2055524920717565727920666f72206e6f60448201527f6e6578697374656e7420746f6b656e000000000000000000000000000000000060648201526084016109f1565b6000611ea1612c17565b90506000815111611ec157604051806020016040528060008152506118b5565b80611ecb84612c37565b604051602001611edc9291906140a0565b6040516020818303038152906040529392505050565b60008181526007602052604081206108dd90612d70565b606060096000838152602001908152602001600020805480602002602001604051908101604052809291908181526020016000905b82821015611f925760008481526020908190206040805180820190915290840154600160a060020a038116825260a060020a90046bffffffffffffffffffffffff1681830152825260019092019101611f3e565b505050509050919050565b600082815260066020526040902060010154611fb981336129fc565b610c368383612a85565b600854600160a060020a03163314611ff05760405160e560020a62461bcd0281526004016109f190614323565b600d8054600160a060020a031916600160a060020a0392909216919091179055565b600854600160a060020a0316331461203f5760405160e560020a62461bcd0281526004016109f190614323565b600160a060020a0381166120be5760405160e560020a62461bcd02815260206004820152602660248201527f4f776e61626c653a206e6577206f776e657220697320746865207a65726f206160448201527f646472657373000000000000000000000000000000000000000000000000000060648201526084016109f1565b610ca181612ab1565b6120cf61395c565b600a54600083815260176020526040908190205490517f4faf3560000000000000000000000000000000000000000000000000000000008152600160a060020a0390921691634faf35609161212a9160040190815260200190565b6101206040518083038186803b15801561214357600080fd5b505afa158015612157573d6000803e3d6000fd5b505050506040513d601f19601f820116820180604052508101906108dd9190613df9565b5490565b600160a060020a0382166121d85760405160e560020a62461bcd02815260206004820181905260248201527f4552433732313a206d696e7420746f20746865207a65726f206164647265737360448201526064016109f1565b6121e1816123a6565b156122315760405160e560020a62461bcd02815260206004820152601c60248201527f4552433732313a20746f6b656e20616c7265616479206d696e7465640000000060448201526064016109f1565b61223d60008383612d7a565b600160a060020a0382166000908152600360205260408120805460019290612266908490614528565b90915550506000818152600260205260408082208054600160a060020a031916600160a060020a03861690811790915590518392907fddf252ad1be2c89b69c2b068fc378daa952ba7f163c4a11628f55a4df523b3ef908290a45050565b6122ce82826118bc565b611293576000828152600660209081526040808320600160a060020a03851684529091529020805460ff191660011790556123063390565b600160a060020a031681600160a060020a0316837f2f8788117e7eff1d82e926ec794901d17c78024a50270940304540a733656f0d60405160405180910390a45050565b60006118b583600160a060020a038416612eef565b80546001019055565b6000600160e060020a031982167f5a05180f0000000000000000000000000000000000000000000000000000000014806108dd57506108dd82612f3e565b600090815260026020526040902054600160a060020a0316151590565b60008181526004602052604090208054600160a060020a031916600160a060020a03841690811790915581906123f882611549565b600160a060020a03167f8c5be1e5ebec7d5bd14f71427d1e84f3dd0314c0f7b2291e5b200ac8c7c3b92560405160405180910390a45050565b806124395750565b600a546000828152601760205260408082205490517f4faf35600000000000000000000000000000000000000000000000000000000081529192600160a060020a031691634faf3560916124939160040190815260200190565b6101206040518083038186803b1580156124ac57600080fd5b505afa1580156124c0573d6000803e3d6000fd5b505050506040513d601f19601f820116820180604052508101906124e49190613df9565b905060005b60088110156125f5576000838152601760205260409020600101546010805460649261ffff1690811061251e5761251e6146f2565b90600052602060002090601091828204019190066002029054906101000a900461ffff16836020015160000151836008811061255c5761255c6146f2565b602002015161256b9190614575565b6125759190614540565b602083015151826008811061258c5761258c6146f2565b602002015161259b919061450b565b600084815260176020526040902060050182600881106125bd576125bd6146f2565b601091828204019190066002026101000a81548161ffff021916908361ffff16021790555080806125ed90614678565b9150506124e9565b506000828152601760205260409020426004820155600301541561129357600b54600083815260176020526040908190206003015490517f7846701b000000000000000000000000000000000000000000000000000000008152600160a060020a0390921691637846701b916126719160040190815260200190565b600060405180830381600087803b15801561268b57600080fd5b505af115801561269f573d6000803e3d6000fd5b505050505050565b60005b81518110156128c0576000600160a060020a03168282815181106126d0576126d06146f2565b602002602001015160000151600160a060020a031614156127365760405160e560020a62461bcd02815260206004820152601b60248201527f526563697069656e742073686f756c642062652070726573656e74000000000060448201526064016109f1565b818181518110612748576127486146f2565b6020026020010151602001516bffffffffffffffffffffffff16600014156127b55760405160e560020a62461bcd02815260206004820181905260248201527f526f79616c74792076616c75652073686f756c6420626520706f73697469766560448201526064016109f1565b60008381526009602052604090205461283657600083815260096020526040902082518390839081106127ea576127ea6146f2565b6020908102919091018101518254600181018455600093845292829020815191909201516bffffffffffffffffffffffff1660a060020a02600160a060020a03909116179101556128ae565b818181518110612848576128486146f2565b602002602001015160096000858152602001908152602001600020600081548110612875576128756146f2565b6000918252602091829020835193909201516bffffffffffffffffffffffff1660a060020a02600160a060020a03909316929092179101555b806128b881614678565b9150506126aa565b506112938282612f7c565b60006128d6826123a6565b61294b5760405160e560020a62461bcd02815260206004820152602c60248201527f4552433732313a206f70657261746f7220717565727920666f72206e6f6e657860448201527f697374656e7420746f6b656e000000000000000000000000000000000000000060648201526084016109f1565b600061295683611549565b905080600160a060020a031684600160a060020a03161480612991575083600160a060020a031661298684610975565b600160a060020a0316145b806129c15750600160a060020a0380821660009081526005602090815260408083209388168352929052205460ff165b949350505050565b6129d233610ecd565b6129f15760405160e560020a62461bcd0281526004016109f190614358565b610c36838383612fb9565b612a0682826118bc565b61129357612a1e81600160a060020a03166014613197565b612a29836020613197565b604051602001612a3a9291906140cf565b60408051601f198184030181529082905260e560020a62461bcd0282526109f19160040161421f565b612a6d82826122c4565b6000828152600760205260409020610c36908261234a565b612a8f8282613399565b6000828152600760205260409020610c369082613400565b6112938282612a63565b60088054600160a060020a03838116600160a060020a0319831681179093556040519116919082907f8be0079c531659141344cd1fd0a4f28419497f9722a3daafe3b4186f6b6457e090600090a35050565b60006118b58383613415565b81600160a060020a031683600160a060020a03161415612b745760405160e560020a62461bcd02815260206004820152601960248201527f4552433732313a20617070726f766520746f2063616c6c65720000000000000060448201526064016109f1565b600160a060020a03838116600081815260056020908152604080832094871680845294825291829020805460ff191686151590811790915591519182527f17307eab39ab6107e8899845ad3d59bd9653f200f220920489ca2b5937696c31910160405180910390a3505050565b612bec848484612fb9565b612bf88484848461343f565b610dff5760405160e560020a62461bcd0281526004016109f190614232565b606060405180606001604052806027815260200161476060279139905090565b606081612c7757505060408051808201909152600181527f3000000000000000000000000000000000000000000000000000000000000000602082015290565b8160005b8115612ca15780612c8b81614678565b9150612c9a9050600a83614561565b9150612c7b565b60008167ffffffffffffffff811115612cbc57612cbc61470b565b6040519080825280601f01601f191660200182016040528015612ce6576020820181803683370190505b5090505b84156129c157612cfb6001836145be565b9150612d08600a86614693565b612d13906030614528565b7f010000000000000000000000000000000000000000000000000000000000000002818381518110612d4757612d476146f2565b6020010190600160f860020a031916908160001a905350612d69600a86614561565b9450612cea565b60006108dd825490565b6000818152601760205260409020600201544211612dad5760405160e560020a62461bcd0281526004016109f19061428f565b600160a060020a038316612ea257601160176000612dca600c5490565b8152602081019190915260400160002081548155600180830154908201805461ffff191661ffff9092169190911790556002808301549082015560038083015490820155600480830154908201556005808301908201612e2c81836008613979565b505050905050612e40600c80546001019055565b600d54612e6e908290600160a060020a0381169060a060020a90046bffffffffffffffffffffffff16610cfe565b600160a060020a038216600090815260186020908152604082208054600181018255908352912001819055610c3681612431565b600160a060020a038216612eba57610c368382613581565b600160a060020a038216600090815260186020908152604082208054600181018255908352912001819055610c368382613581565b6000818152600183016020526040812054612f36575081546001818101845560008481526020808220909301849055845484825282860190935260409020919091556108dd565b5060006108dd565b6000600160e060020a031982167f7965db0b0000000000000000000000000000000000000000000000000000000014806108dd57506108dd82613677565b7f3fa96d7b6bcbfe71ef171666d84db3cf52fa2d1c8afdb1cc8e486177f208b7df8282604051612fad92919061442e565b60405180910390a15050565b82600160a060020a0316612fcc82611549565b600160a060020a03161461304b5760405160e560020a62461bcd02815260206004820152602960248201527f4552433732313a207472616e73666572206f6620746f6b656e2074686174206960448201527f73206e6f74206f776e000000000000000000000000000000000000000000000060648201526084016109f1565b600160a060020a0382166130c95760405160e560020a62461bcd028152602060048201526024808201527f4552433732313a207472616e7366657220746f20746865207a65726f2061646460448201527f726573730000000000000000000000000000000000000000000000000000000060648201526084016109f1565b6130d4838383612d7a565b6130df6000826123c3565b600160a060020a03831660009081526003602052604081208054600192906131089084906145be565b9091555050600160a060020a0382166000908152600360205260408120805460019290613136908490614528565b90915550506000818152600260205260408082208054600160a060020a031916600160a060020a0386811691821790925591518493918716917fddf252ad1be2c89b69c2b068fc378daa952ba7f163c4a11628f55a4df523b3ef91a4505050565b606060006131a683600261459f565b6131b1906002614528565b67ffffffffffffffff8111156131c9576131c961470b565b6040519080825280601f01601f1916602001820160405280156131f3576020820181803683370190505b5090507f30000000000000000000000000000000000000000000000000000000000000008160008151811061322a5761322a6146f2565b6020010190600160f860020a031916908160001a9053507f780000000000000000000000000000000000000000000000000000000000000081600181518110613275576132756146f2565b6020010190600160f860020a031916908160001a905350600061329984600261459f565b6132a4906001614528565b90505b6001811115613347577f303132333435363738396162636465660000000000000000000000000000000085600f16601081106132e5576132e56146f2565b1a7f01000000000000000000000000000000000000000000000000000000000000000282828151811061331a5761331a6146f2565b6020010190600160f860020a031916908160001a90535060109094049361334081614601565b90506132a7565b5083156118b55760405160e560020a62461bcd02815260206004820181905260248201527f537472696e67733a20686578206c656e67746820696e73756666696369656e7460448201526064016109f1565b6133a382826118bc565b15611293576000828152600660209081526040808320600160a060020a0385168085529252808320805460ff1916905551339285917ff6391f5c32d9c69d2a47ea670b442974b53935d1edc7fd64eb21e047a839171b9190a45050565b60006118b583600160a060020a038416613712565b600082600001828154811061342c5761342c6146f2565b9060005260206000200154905092915050565b6000600160a060020a0384163b15613576576040517f150b7a02000000000000000000000000000000000000000000000000000000008152600160a060020a0385169063150b7a029061349c903390899088908890600401614150565b602060405180830381600087803b1580156134b657600080fd5b505af19250505080156134e6575060408051601f3d908101601f191682019092526134e391810190613ddc565b60015b613543573d808015613514576040519150601f19603f3d011682016040523d82523d6000602084013e613519565b606091505b50805161353b5760405160e560020a62461bcd0281526004016109f190614232565b805181602001fd5b600160e060020a0319167f150b7a02000000000000000000000000000000000000000000000000000000001490506129c1565b506001949350505050565b600061358d8383611ab9565b600160a060020a038416600090815260186020526040902054909150811015610c3657600160a060020a038316600090815260186020526040902080546135d6906001906145be565b815481106135e6576135e66146f2565b90600052602060002001546018600085600160a060020a0316600160a060020a031681526020019081526020016000208281548110613627576136276146f2565b6000918252602080832090910192909255600160a060020a038516815260189091526040902080548061365c5761365c6146d9565b60019003818190600052602060002001600090559055505050565b6000600160e060020a031982167f80ac58cd0000000000000000000000000000000000000000000000000000000014806136da5750600160e060020a031982167f5b5e139f00000000000000000000000000000000000000000000000000000000145b806108dd57507f01ffc9a700000000000000000000000000000000000000000000000000000000600160e060020a03198316146108dd565b600081815260018301602052604081205480156137fb5760006137366001836145be565b855490915060009061374a906001906145be565b90508181146137af57600086600001828154811061376a5761376a6146f2565b906000526020600020015490508087600001848154811061378d5761378d6146f2565b6000918252602080832090910192909255918252600188019052604090208390555b85548690806137c0576137c06146d9565b6001900381819060005260206000200160009055905585600101600086815260200190815260200160002060009055600193505050506108dd565b60009150506108dd565b5092915050565b82805482825590600052602060002090600f016010900481019282156138a55791602002820160005b8382111561387557835183826101000a81548161ffff021916908361ffff1602179055509260200192600201602081600101049283019260010302613835565b80156138a35782816101000a81549061ffff0219169055600201602081600101049283019260010302613875565b505b506138b19291506139ac565b5090565b6040518060c0016040528060008152602001600061ffff1681526020016000815260200160008152602001600081526020016138ef6138f4565b905290565b60405180602001604052806138ef6139c1565b6001830191839082156138a55791602002820160008382111561387557835183826101000a81548161ffff021916908361ffff1602179055509260200192600201602081600101049283019260010302613835565b6040518060400160405280600060ff1681526020016138ef6138f4565b6001830191839082156138a55791600f016010900482015b828111156138a5578254825591600101919060010190613991565b5b808211156138b157600081556001016139ad565b6040518061010001604052806008906020820280368337509192915050565b80356bffffffffffffffffffffffff811681146139fc57600080fd5b919050565b600060208284031215613a1357600080fd5b81356118b581614724565b60008060408385031215613a3157600080fd5b8235613a3c81614724565b91506020830135613a4c81614724565b809150509250929050565b600080600060608486031215613a6c57600080fd5b8335613a7781614724565b92506020840135613a8781614724565b929592945050506040919091013590565b60008060008060808587031215613aae57600080fd5b8435613ab981614724565b9350602085810135613aca81614724565b935060408601359250606086013567ffffffffffffffff80821115613aee57600080fd5b818801915088601f830112613b0257600080fd5b813581811115613b1457613b1461470b565b613b26601f8201601f191685016144da565b91508082528984828501011115613b3c57600080fd5b808484018584013760008482840101525080935050505092959194509250565b600080610180808486031215613b7157600080fd5b8335613b7c81614724565b92506020603f85018613613b8f57600080fd5b604051610160810181811067ffffffffffffffff82111715613bb357613bb361470b565b60405280868301848801891015613bc957600080fd5b600094505b600b851015613bed578035825260019490940193908301908301613bce565b509497909650945050505050565b60008060408385031215613c0e57600080fd5b8235613c1981614724565b915060208301358015158114613a4c57600080fd5b6000808284036101c080821215613c4457600080fd5b8435613c4f81614724565b935060206101a0601f1984011215613c6657600080fd5b613c6e614447565b8187013581526040870135613c828161474f565b808383015250606087013560408201526080870135606082015260a0870135608082015261010060bf1985011215613cb957600080fd5b613cc1614470565b93508760df880112613cd257600080fd5b613cda6144b6565b8060c089018a868b011115613cee57600080fd5b600095505b6008861015613d1b578035613d078161474f565b835260019590950194918401918401613cf3565b5085525060a081019390935250929590945092505050565b60008060408385031215613d4657600080fd5b8235613d5181614724565b946020939093013593505050565b600060208284031215613d7157600080fd5b5035919050565b60008060408385031215613d8b57600080fd5b823591506020830135613a4c81614724565b60008060408385031215613db057600080fd5b50508035926020909101359150565b600060208284031215613dd157600080fd5b81356118b581614739565b600060208284031215613dee57600080fd5b81516118b581614739565b600081830361012080821215613e0e57600080fd5b613e16614493565b845160ff81168114613e2757600080fd5b81526020610100601f1985011215613e3e57600080fd5b613e46614470565b935086603f870112613e5757600080fd5b613e5f6144b6565b8082880189868a011115613e7257600080fd5b600095505b6008861015613e9f578051613e8b8161474f565b835260019590950194918301918301613e77565b50855250810192909252509392505050565b600060208284031215613ec357600080fd5b5051919050565b600080600060608486031215613edf57600080fd5b833592506020840135613ef181614724565b9150613eff604085016139e0565b90509250925092565b60008060408385031215613f1b57600080fd5b8235915060208084013567ffffffffffffffff80821115613f3b57600080fd5b818601915086601f830112613f4f57600080fd5b813581811115613f6157613f6161470b565b8381029150613f718483016144da565b8181528481019084860184860187018b1015613f8c57600080fd5b600095505b83861015613fbb5780359450613fa68561474f565b84835260019590950194918601918601613f91565b508096505050505050509250929050565b600060208284031215613fde57600080fd5b6118b5826139e0565b600081518084526020808501945080840160005b838110156140395781518051600160a060020a031688528301516bffffffffffffffffffffffff168388015260409096019590820190600101613ffb565b509495945050505050565b6000815180845261405c8160208601602086016145d5565b601f01601f19169290920160200192915050565b80518260005b600881101561409957825161ffff16825260209283019290910190600101614076565b5050505050565b600083516140b28184602088016145d5565b8351908301906140c68183602088016145d5565b01949350505050565b7f416363657373436f6e74726f6c3a206163636f756e74200000000000000000008152600083516141078160178501602088016145d5565b7f206973206d697373696e6720726f6c652000000000000000000000000000000060179184019182015283516141448160288401602088016145d5565b01602801949350505050565b6000600160a060020a038087168352808616602084015250836040830152608060608301526141826080830184614044565b9695505050505050565b6020815260006118b56020830184613fe7565b6020808252825182820181905260009190848201906040850190845b818110156141db57835161ffff16835292840192918401916001016141bb565b50909695505050505050565b6020808252825182820181905260009190848201906040850190845b818110156141db57835183529284019291840191600101614203565b6020815260006118b56020830184614044565b60208082526032908201527f4552433732313a207472616e7366657220746f206e6f6e20455243373231526560408201527f63656976657220696d706c656d656e7465720000000000000000000000000000606082015260800190565b6020808252601e908201527f457863657074696f6e3a2065717569706d656e74206973206c6f636b65640000604082015260600190565b60208082526028908201527f457863657074696f6e3a206d7573742068617665206d696e74657220726f6c6560408201527f20746f206d696e74000000000000000000000000000000000000000000000000606082015260800190565b6020808252818101527f4f776e61626c653a2063616c6c6572206973206e6f7420746865206f776e6572604082015260600190565b60208082526031908201527f4552433732313a207472616e736665722063616c6c6572206973206e6f74206f60408201527f776e6572206e6f7220617070726f766564000000000000000000000000000000606082015260800190565b61010081016108dd8284614070565b815160ff16815260208083015161012083019161380590840182614070565b60006101a0820190508251825261ffff602084015116602083015260408301516040830152606083015160608301526080830151608083015260a083015161380560a0840182614070565b8281526040602082015260006129c16040830184613fe7565b60405160c0810167ffffffffffffffff8111828210171561446a5761446a61470b565b60405290565b6040516020810167ffffffffffffffff8111828210171561446a5761446a61470b565b6040805190810167ffffffffffffffff8111828210171561446a5761446a61470b565b604051610100810167ffffffffffffffff8111828210171561446a5761446a61470b565b604051601f8201601f1916810167ffffffffffffffff811182821017156145035761450361470b565b604052919050565b600061ffff8083168185168083038211156140c6576140c66146a7565b6000821982111561453b5761453b6146a7565b500190565b600061ffff80841680614555576145556146c0565b92169190910492915050565b600082614570576145706146c0565b500490565b600061ffff80831681851681830481118215151615614596576145966146a7565b02949350505050565b60008160001904831182151516156145b9576145b96146a7565b500290565b6000828210156145d0576145d06146a7565b500390565b60005b838110156145f05781810151838201526020016145d8565b83811115610dff5750506000910152565b600081614610576146106146a7565b506000190190565b60028104600182168061462c57607f821691505b602082108114156146505760e060020a634e487b7102600052602260045260246000fd5b50919050565b600061ffff8083168181141561466e5761466e6146a7565b6001019392505050565b600060001982141561468c5761468c6146a7565b5060010190565b6000826146a2576146a26146c0565b500690565b60e060020a634e487b7102600052601160045260246000fd5b60e060020a634e487b7102600052601260045260246000fd5b60e060020a634e487b7102600052603160045260246000fd5b60e060020a634e487b7102600052603260045260246000fd5b60e060020a634e487b7102600052604160045260246000fd5b600160a060020a0381168114610ca157600080fd5b600160e060020a031981168114610ca157600080fd5b61ffff81168114610ca157600080fdfe68747470733a2f2f7777772e636861696e736f66676c6f72792e636f6d2f6d657461646174612fa26469706673582212200503335f1884209b6ff76668a44beca077b15d7b3ccc80223ca88bdab100a78764736f6c634300080600339f2df0fed2c77648de5860a4cc508cd0818c85b8b8a1ab4ceeef8d981c8956a6",
  "immutableReferences": {},
  "source": "//SPDX-License-Identifier: MIT\npragma solidity ^0.8.0;\n\nimport \"@openzeppelin/contracts/token/ERC721/ERC721.sol\";\nimport \"@openzeppelin/contracts/access/Ownable.sol\";\nimport \"@openzeppelin/contracts/access/AccessControlEnumerable.sol\";\nimport \"@openzeppelin/contracts/utils/Counters.sol\";\nimport \"./rarible/royalties/contracts/impl/RoyaltiesV2Impl.sol\";\nimport \"./rarible/royalties/contracts/LibPart.sol\";\nimport \"./rarible/royalties/contracts/LibRoyaltiesV2.sol\";\n\nimport \"./GameStats.sol\";\nimport \"./Characters.sol\";\n\ncontract Equipment is ERC721, AccessControlEnumerable, Ownable, RoyaltiesV2Impl {\n\n    /**********************************************\n     **********************************************\n                    VARIABLES\n    **********************************************                    \n    **********************************************/\n\n    //GameStats smart contract\n    GameStats internal _gameStats;\n\n    //Characters smart contract\n    Characters internal _characters;\n\n\n    using Counters for Counters.Counter;\n    Counters.Counter private _tokenIdTracker;\n    \n    //Adds support for OpenSea\n    bytes4 private constant _INTERFACE_ID_ERC2981 = 0x2a55205a;\n\n    //Roles of monter and burner\n    bytes32 public constant MINTER_ROLE = keccak256(\"MINTER_ROLE\");\n    bytes32 public constant POLYMATH_ROLE = keccak256(\"POLYMATH_ROLE\"); //May upgrade player level\n    bytes32 public constant QUEST_ROLE = keccak256(\"QUEST_ROLE\");       //May set timeLocks\n    bytes32 public constant CHARATCRER_ROLE = keccak256(\"CHARATCRER_ROLE\"); //May set equipedIn\n\n    //Royaties address and amntou\n    address payable private _royaltiesAddress;\n    uint96 private _royaltiesBasicPoints;\n\n    //Stats of players and enemies\n    struct gearData {\n        uint256  class;\t        //Type of NFT\n        uint16  level;     \t    //By default is 0. Evolvable NFTs may upgrade this level\n        uint256 timeLock;       //Timestamp until the player is locked (mission time)\n\n        uint256 equipedIn;      //Character index where the gear is equipped\n\n        uint256     lastCache;  //Last timestamp the calcucaltedStats has been calculated\n        GameStats.BaseStats   cachedStats;\n        //Change gear and/or update level will trigger a cache reload\n        //if globalCacheTimestamp is greater than lastCache it will also trigger a reload\n    }\n\n    //When a nerfing is done admin must set globalCacheTimestamp to 'now'\n    //to force the refresh of all cachedStats\n    uint256 private globalCacheTimestamp;\n\n    //maximum level a gear can go. \n    //This value may be updated based on the current tier\n    //For first tier we may limit to 10, the for second to 20, etc...\n    //The upgrade matrix MUST be also updated in order to go further with tiers\n    uint maxLevel;\n\n    //It MUST contains the coeficients to apply to each level upgrade\n    //There must be the same amount of element as maxLevel\n    //For example, in tier 1 maxLevel=10\n    //upgradeMatrix=[0, 5, 10, 14, 18, 21, 24, 26, 28, 30]\n    //Each level means the percentage of upgrade for the level regarding the basic stats    \n    uint16[] upgradeMatrix;\n\n    //Used by _beforeTokenTransfer to catch the after minting\n    gearData private gearToMint;\n\n\n    //Mapping from NFT to struct\n    mapping(uint256 => gearData) private values;\n\n    // Mapping from owner address to token ID. It is used to quickly get all NFTs on an address\n    mapping(address => uint256[]) private _tokensByOwner;\n\n\n    /**********************************************\n     **********************************************\n                    CONSTRUCTOR\n    **********************************************                    \n    **********************************************/\n    constructor() ERC721(\"Chains of Glory Equipment\", \"CGE\") {\n        _setupRole(DEFAULT_ADMIN_ROLE, _msgSender());\n\n        _setupRole(MINTER_ROLE, _msgSender());\n        _setupRole(POLYMATH_ROLE, _msgSender());\n        _setupRole(QUEST_ROLE, _msgSender());\n\n        //Royaties address and amntou\n        _royaltiesAddress=payable(address(this)); //Contract creator by default\n        _royaltiesBasicPoints=1500; //15% default\n\n        gearData memory gear;\n\n        //Creates the 0 NFT which is special. Means 'empty slot'\n        gearToMint=gear;\n        super._mint(_msgSender(), _tokenIdTracker.current());\n    }\n\n    /**********************************************\n     **********************************************\n                    MINTER\n              SETTERS AND GETTERS\n    **********************************************                    \n    **********************************************/\n\n    //Minter\n    function mint(address _to, gearData memory data) public {\n        require(hasRole(MINTER_ROLE, _msgSender()), \"Exception: must have minter role to mint\");\n        require(data.class<_gameStats.numEquipment(), \"Exception: equipment index out of bounds\");\n        //Stores the struct to assign when mint os ok\n        gearToMint=data;\n        super._mint(_to, _tokenIdTracker.current());\n    }\n\n    //Set functions\n\n    //GameToken Token Address\n    function setGameStatsAddress(address gameStats) public onlyOwner {\n        _gameStats=GameStats(gameStats);\n    }\n\n    function setCharactersAddress(address characters) public onlyOwner {\n        _characters=Characters(characters);\n        _setupRole(CHARATCRER_ROLE, characters);\n    }\n\n    \n    function setRoyaltiesAddress(address payable rAddress) public onlyOwner {\n        _royaltiesAddress=rAddress;\n    }\n\n    function setRoyaltiesBasicPoints(uint96 rBasicPoints) public onlyOwner {\n        _royaltiesBasicPoints=rBasicPoints;\n    }\n\n    //Set timelock\n    function setTimeLock(uint256 gearId, uint timestamp) public {\n        require(hasRole(QUEST_ROLE, _msgSender()), \"Exception: must have QUEST role to set timelocks\");\n        require(exists(gearId),\"Exception: Gear does not existst\");\n        values[gearId].timeLock=block.timestamp+timestamp;\n    }\n\n    //Set the max level of the gears\n    function setMaxLevel(uint lvl, uint16[] memory matrixValues) public onlyOwner {\n        require(lvl == matrixValues.length, \"Exception: must provide a matrix of values of the same lenght than level\");\n\n        maxLevel=lvl;\n        upgradeMatrix=matrixValues;\n\n        //Set cache timnestamp to current\n        //This will force updateCache to call recalculateStats\n        //The problem is... who will trigger the call and pay the fees?!?!?\n        globalCacheTimestamp=block.timestamp;\n    }\n\n    function getMatrix() public view returns (uint16[] memory){\n        return upgradeMatrix;\n    }\n\n    //Returns the base gearStats of the NFT \n    function getGearData(uint256 idGear) public view returns(gearData memory) {\n        return values[idGear];\n    }\n\n    //Returns the gearStats of the NFT aplying the level modifier\n    function getGearStats(uint256 idGear) public view returns(GameStats.EquipmentItem memory) {        \n        return _gameStats.equipmentAt(values[idGear].class);\n    }\n\n    function getCachedStats(uint256 idGear) public view returns(GameStats.BaseStats memory) {\n        return values[idGear].cachedStats;\n    }\n\n    //Returns the array of NFTs owned by an address\n    function getEquipment(address powner) public view returns (uint256[] memory) {\n        return _tokensByOwner[powner];\n    }\n\n    //GameToken Token Address\n    function getSlot(uint256 gear) public view returns (uint8 slot)  {\n        GameStats.EquipmentItem memory item = _gameStats.equipmentAt(values[gear].class);\n        return item.slot;\n    }\n\n    function getCharacter(uint256 gear) public view returns (uint256){\n        return values[gear].equipedIn;\n    }\n\n    function setCharacter(uint256 gear, uint256 character) public  {\n        require(hasRole(CHARATCRER_ROLE, _msgSender()), \"Exception: only CHARATCRER_ROLE can call this function\");\n        if(gear!=0)\n            values[gear].equipedIn=character;\n    }\n\n    /**********************************************\n     **********************************************\n                   UTILITY FUNCTIONS\n    **********************************************                    \n    **********************************************/\n\n    function isValidGearSet(address player, uint256[11] memory gear) public view returns (bool) {\n        for(uint i=0; i<gear.length; i++) {\n            \n            if(gear[i]==0)\n                continue;\n\n            //Gear timelocked\n            if(values[gear[i]].timeLock  >= block.timestamp)\n                return false;\n\n            //Gear NFT exists?\n            if(!_exists(gear[i]))\n                return false;\n\n            //player own all gear?\n            if(ownerOf(gear[i])!=player)\n                return false;    \n            \n            //gear are in apropriate slots?\n            if(getSlot(gear[i])!=100 && getSlot(gear[i])!=i) // slot 100 is for wildcards\n                return false;\n        }\n        return true;\n    }\n\n    //Update the level of the gear and recalculates all stats\n    //Only Polymath role can do it. \n    //To recalculate stats function uses the upgrade matrix. See above...\n    function updateLevel(uint256 gear) public {\n        require(values[gear].timeLock  < block.timestamp, \"Exception: equipment is locked\");\n        require(hasRole(POLYMATH_ROLE, _msgSender()), \"Exception: only the Polymath can call this function\");\n        require((values[gear].level + 1) < maxLevel, \"Exception: equipment is already at max level\");\n        \n        values[gear].level++;\n        recalculateStats(gear);\n    }\n\n    //Public wrapper of _exists\n    function exists(uint256 tokenId) public view returns (bool) {\n        return _exists(tokenId);\n    }\n\n    function updateCache(uint256 idGear) public onlyOwner {\n        if(values[idGear].lastCache < globalCacheTimestamp) {\n            values[idGear].lastCache=globalCacheTimestamp;\n            recalculateStats(idGear);\n        }\n    }\n\n    //Returns the actual stats of the player calculating all the equiped gear and leveling\n    function recalculateStats(uint256 idGear) internal { \n        //No calculations for 'empty' equipment\n        if(idGear==0)\n            return;\n\n        GameStats.EquipmentItem memory eqGear = _gameStats.equipmentAt(values[idGear].class);\n        \n        for(uint i=0; i<eqGear.stats.values.length; i++)\n            values[idGear].cachedStats.values[i]=eqGear.stats.values[i] + ((eqGear.stats.values[i] * upgradeMatrix[values[idGear].level]) / 100);\n\n        values[idGear].lastCache=block.timestamp;\n\n        if(values[idGear].equipedIn!=0)\n            _characters.recalculateStats(values[idGear].equipedIn);\n\n    }\n\n    /**********************************************\n     **********************************************\n                   ERC721 FUNCTIONS\n    **********************************************                    \n    **********************************************/\n\n    //Override of the transfer function\n    function transferFrom(\n        address from,\n        address to,\n        uint256 tokenId\n    ) public virtual override {\n        require(_isApprovedOrOwner(_msgSender(), tokenId), \"ERC721: transfer caller is not owner nor approved\");\n        require(values[tokenId].timeLock  < block.timestamp, \"Exception: equipment is locked\");\n        require(values[tokenId].equipedIn  == 0, \"Exception: cannot transfer an equipped item\");\n\n        super.transferFrom(from, to, tokenId);\n    }\n\n    function _beforeTokenTransfer(address from, address to, uint256 tokenId) internal virtual override(ERC721) {\n        require(values[tokenId].timeLock  < block.timestamp, \"Exception: equipment is locked\");\n        if(from==address(0)) {\n            //Minting ok, creates struct of stats\n            values[_tokenIdTracker.current()] = gearToMint;\n            _tokenIdTracker.increment();\n\n            //When mint a new NFT sets the royalties address\n            setRoyalties(tokenId, _royaltiesAddress, _royaltiesBasicPoints);\n\n            //Updates the _tokensByOwner mapping            \n            _tokensByOwner[to].push(tokenId);\n\n            recalculateStats(tokenId);\n        } else if(to==address(0)) {\n            //Burning\n\n            //Updates the _tokensByOwner mapping\n            deleteTokenId(from, tokenId);\n        } else {\n            //Normal transfer\n\n            //Updates the _tokensByOwner mapping\n            _tokensByOwner[to].push(tokenId);\n            deleteTokenId(from, tokenId);\n        }\n    }\n    \n    function _baseURI() internal view virtual override returns (string memory) {\n        return \"https://www.chainsofglory.com/metadata/\";\n    }\n\n    function setRoyalties(uint256 _tokenId, address payable _royaltiesReceipientAddress, uint96 _percentageBasisPoints) public {\n        require(hasRole(MINTER_ROLE, _msgSender()), \"Exception: must have minter role to mint\");\n        LibPart.Part[] memory _royalties = new LibPart.Part[](1);\n        _royalties[0].value = _percentageBasisPoints;\n        _royalties[0].account = _royaltiesReceipientAddress;\n        _saveRoyalties(_tokenId, _royalties);\n    }\n\n    function royaltyInfo(uint256 _tokenId, uint256 _salePrice ) external view returns ( address receiver, uint256 royaltyAmount) {\n        LibPart.Part[] memory _royalties = royalties[_tokenId];\n        if(_royalties.length > 0) {\n            return(_royalties[0].account, (_salePrice * _royalties[0].value)/10000);\n        }\n        return (address(0), 0);\n    }\n\n    function supportsInterface(bytes4 interfaceId) public view virtual override(ERC721, AccessControlEnumerable) returns (bool) {\n        if (interfaceId == LibRoyaltiesV2._INTERFACE_ID_ROYALTIES) {\n            return true;\n        }\n\n        if(interfaceId == _INTERFACE_ID_ERC2981) {\n            return true;\n        }\n\n        return super.supportsInterface(interfaceId);\n    }\n\n    \n\n    /**********************************************\n     **********************************************\n                REVERSE ARRAY FUNCTIONS\n    **********************************************                    \n    **********************************************/\n\n    function positionOf(address powner, uint256 tokenId) public view returns (uint) {\n        for(uint i=0; i<_tokensByOwner[powner].length; i++) {\n            if(_tokensByOwner[powner][i]==tokenId)\n                return i;\n        }\n        return _tokensByOwner[powner].length+100;\n    }\n\n    function deleteTokenId(address powner, uint256 tokenId) internal {\n        //Updates the _tokensByOwner mapping\n        uint pos=positionOf(powner, tokenId);\n        if(pos<_tokensByOwner[powner].length) {\n            _tokensByOwner[powner][pos]= _tokensByOwner[powner][ _tokensByOwner[powner].length-1];\n            _tokensByOwner[powner].pop();\n        }\n    }\n\n}",
  "sourcePath": "/home/javi/COG/contracts/Equipment.sol",
  "compiler": {
    "name": "solc",
    "version": "0.8.6+commit.11564f7e.Emscripten.clang"
  },
  "schemaVersion": "3.4.3",
  "updatedAt": "2022-01-17T16:05:19.130Z",
  "networkType": "ethereum",
  "devdoc": {
    "kind": "dev",
    "methods": {
      "approve(address,uint256)": {
        "details": "See {IERC721-approve}."
      },
      "balanceOf(address)": {
        "details": "See {IERC721-balanceOf}."
      },
      "getApproved(uint256)": {
        "details": "See {IERC721-getApproved}."
      },
      "getRoleAdmin(bytes32)": {
        "details": "Returns the admin role that controls `role`. See {grantRole} and {revokeRole}. To change a role's admin, use {_setRoleAdmin}."
      },
      "getRoleMember(bytes32,uint256)": {
        "details": "Returns one of the accounts that have `role`. `index` must be a value between 0 and {getRoleMemberCount}, non-inclusive. Role bearers are not sorted in any particular way, and their ordering may change at any point. WARNING: When using {getRoleMember} and {getRoleMemberCount}, make sure you perform all queries on the same block. See the following https://forum.openzeppelin.com/t/iterating-over-elements-on-enumerableset-in-openzeppelin-contracts/2296[forum post] for more information."
      },
      "getRoleMemberCount(bytes32)": {
        "details": "Returns the number of accounts that have `role`. Can be used together with {getRoleMember} to enumerate all bearers of a role."
      },
      "grantRole(bytes32,address)": {
        "details": "Grants `role` to `account`. If `account` had not been already granted `role`, emits a {RoleGranted} event. Requirements: - the caller must have ``role``'s admin role."
      },
      "hasRole(bytes32,address)": {
        "details": "Returns `true` if `account` has been granted `role`."
      },
      "isApprovedForAll(address,address)": {
        "details": "See {IERC721-isApprovedForAll}."
      },
      "name()": {
        "details": "See {IERC721Metadata-name}."
      },
      "owner()": {
        "details": "Returns the address of the current owner."
      },
      "ownerOf(uint256)": {
        "details": "See {IERC721-ownerOf}."
      },
      "renounceOwnership()": {
        "details": "Leaves the contract without owner. It will not be possible to call `onlyOwner` functions anymore. Can only be called by the current owner. NOTE: Renouncing ownership will leave the contract without an owner, thereby removing any functionality that is only available to the owner."
      },
      "renounceRole(bytes32,address)": {
        "details": "Revokes `role` from the calling account. Roles are often managed via {grantRole} and {revokeRole}: this function's purpose is to provide a mechanism for accounts to lose their privileges if they are compromised (such as when a trusted device is misplaced). If the calling account had been revoked `role`, emits a {RoleRevoked} event. Requirements: - the caller must be `account`."
      },
      "revokeRole(bytes32,address)": {
        "details": "Revokes `role` from `account`. If `account` had been granted `role`, emits a {RoleRevoked} event. Requirements: - the caller must have ``role``'s admin role."
      },
      "safeTransferFrom(address,address,uint256)": {
        "details": "See {IERC721-safeTransferFrom}."
      },
      "safeTransferFrom(address,address,uint256,bytes)": {
        "details": "See {IERC721-safeTransferFrom}."
      },
      "setApprovalForAll(address,bool)": {
        "details": "See {IERC721-setApprovalForAll}."
      },
      "symbol()": {
        "details": "See {IERC721Metadata-symbol}."
      },
      "tokenURI(uint256)": {
        "details": "See {IERC721Metadata-tokenURI}."
      },
      "transferFrom(address,address,uint256)": {
        "details": "See {IERC721-transferFrom}."
      },
      "transferOwnership(address)": {
        "details": "Transfers ownership of the contract to a new account (`newOwner`). Can only be called by the current owner."
      }
    },
    "version": 1
  },
  "userdoc": {
    "kind": "user",
    "methods": {},
    "version": 1
  }
}