{
  "contractName": "GameStats",
  "abi": [
    {
      "inputs": [],
      "stateMutability": "nonpayable",
      "type": "constructor"
    },
    {
      "anonymous": false,
      "inputs": [
        {
          "indexed": true,
          "internalType": "address",
          "name": "previousOwner",
          "type": "address"
        },
        {
          "indexed": true,
          "internalType": "address",
          "name": "newOwner",
          "type": "address"
        }
      ],
      "name": "OwnershipTransferred",
      "type": "event"
    },
    {
      "anonymous": false,
      "inputs": [
        {
          "indexed": true,
          "internalType": "bytes32",
          "name": "role",
          "type": "bytes32"
        },
        {
          "indexed": true,
          "internalType": "bytes32",
          "name": "previousAdminRole",
          "type": "bytes32"
        },
        {
          "indexed": true,
          "internalType": "bytes32",
          "name": "newAdminRole",
          "type": "bytes32"
        }
      ],
      "name": "RoleAdminChanged",
      "type": "event"
    },
    {
      "anonymous": false,
      "inputs": [
        {
          "indexed": true,
          "internalType": "bytes32",
          "name": "role",
          "type": "bytes32"
        },
        {
          "indexed": true,
          "internalType": "address",
          "name": "account",
          "type": "address"
        },
        {
          "indexed": true,
          "internalType": "address",
          "name": "sender",
          "type": "address"
        }
      ],
      "name": "RoleGranted",
      "type": "event"
    },
    {
      "anonymous": false,
      "inputs": [
        {
          "indexed": true,
          "internalType": "bytes32",
          "name": "role",
          "type": "bytes32"
        },
        {
          "indexed": true,
          "internalType": "address",
          "name": "account",
          "type": "address"
        },
        {
          "indexed": true,
          "internalType": "address",
          "name": "sender",
          "type": "address"
        }
      ],
      "name": "RoleRevoked",
      "type": "event"
    },
    {
      "inputs": [],
      "name": "DEFAULT_ADMIN_ROLE",
      "outputs": [
        {
          "internalType": "bytes32",
          "name": "",
          "type": "bytes32"
        }
      ],
      "stateMutability": "view",
      "type": "function",
      "constant": true
    },
    {
      "inputs": [],
      "name": "MASTER_ROLE",
      "outputs": [
        {
          "internalType": "bytes32",
          "name": "",
          "type": "bytes32"
        }
      ],
      "stateMutability": "view",
      "type": "function",
      "constant": true
    },
    {
      "inputs": [
        {
          "internalType": "bytes32",
          "name": "role",
          "type": "bytes32"
        }
      ],
      "name": "getRoleAdmin",
      "outputs": [
        {
          "internalType": "bytes32",
          "name": "",
          "type": "bytes32"
        }
      ],
      "stateMutability": "view",
      "type": "function",
      "constant": true
    },
    {
      "inputs": [
        {
          "internalType": "bytes32",
          "name": "role",
          "type": "bytes32"
        },
        {
          "internalType": "uint256",
          "name": "index",
          "type": "uint256"
        }
      ],
      "name": "getRoleMember",
      "outputs": [
        {
          "internalType": "address",
          "name": "",
          "type": "address"
        }
      ],
      "stateMutability": "view",
      "type": "function",
      "constant": true
    },
    {
      "inputs": [
        {
          "internalType": "bytes32",
          "name": "role",
          "type": "bytes32"
        }
      ],
      "name": "getRoleMemberCount",
      "outputs": [
        {
          "internalType": "uint256",
          "name": "",
          "type": "uint256"
        }
      ],
      "stateMutability": "view",
      "type": "function",
      "constant": true
    },
    {
      "inputs": [
        {
          "internalType": "bytes32",
          "name": "role",
          "type": "bytes32"
        },
        {
          "internalType": "address",
          "name": "account",
          "type": "address"
        }
      ],
      "name": "grantRole",
      "outputs": [],
      "stateMutability": "nonpayable",
      "type": "function"
    },
    {
      "inputs": [
        {
          "internalType": "bytes32",
          "name": "role",
          "type": "bytes32"
        },
        {
          "internalType": "address",
          "name": "account",
          "type": "address"
        }
      ],
      "name": "hasRole",
      "outputs": [
        {
          "internalType": "bool",
          "name": "",
          "type": "bool"
        }
      ],
      "stateMutability": "view",
      "type": "function",
      "constant": true
    },
    {
      "inputs": [],
      "name": "owner",
      "outputs": [
        {
          "internalType": "address",
          "name": "",
          "type": "address"
        }
      ],
      "stateMutability": "view",
      "type": "function",
      "constant": true
    },
    {
      "inputs": [],
      "name": "renounceOwnership",
      "outputs": [],
      "stateMutability": "nonpayable",
      "type": "function"
    },
    {
      "inputs": [
        {
          "internalType": "bytes32",
          "name": "role",
          "type": "bytes32"
        },
        {
          "internalType": "address",
          "name": "account",
          "type": "address"
        }
      ],
      "name": "renounceRole",
      "outputs": [],
      "stateMutability": "nonpayable",
      "type": "function"
    },
    {
      "inputs": [
        {
          "internalType": "bytes32",
          "name": "role",
          "type": "bytes32"
        },
        {
          "internalType": "address",
          "name": "account",
          "type": "address"
        }
      ],
      "name": "revokeRole",
      "outputs": [],
      "stateMutability": "nonpayable",
      "type": "function"
    },
    {
      "inputs": [
        {
          "internalType": "bytes4",
          "name": "interfaceId",
          "type": "bytes4"
        }
      ],
      "name": "supportsInterface",
      "outputs": [
        {
          "internalType": "bool",
          "name": "",
          "type": "bool"
        }
      ],
      "stateMutability": "view",
      "type": "function",
      "constant": true
    },
    {
      "inputs": [
        {
          "internalType": "address",
          "name": "newOwner",
          "type": "address"
        }
      ],
      "name": "transferOwnership",
      "outputs": [],
      "stateMutability": "nonpayable",
      "type": "function"
    },
    {
      "inputs": [
        {
          "components": [
            {
              "components": [
                {
                  "internalType": "uint16[8]",
                  "name": "values",
                  "type": "uint16[8]"
                }
              ],
              "internalType": "struct GameStats.BaseStats",
              "name": "stats",
              "type": "tuple"
            }
          ],
          "internalType": "struct GameStats.RaceItem",
          "name": "race",
          "type": "tuple"
        }
      ],
      "name": "addRace",
      "outputs": [],
      "stateMutability": "nonpayable",
      "type": "function"
    },
    {
      "inputs": [
        {
          "components": [
            {
              "internalType": "uint8",
              "name": "slot",
              "type": "uint8"
            },
            {
              "components": [
                {
                  "internalType": "uint16[8]",
                  "name": "values",
                  "type": "uint16[8]"
                }
              ],
              "internalType": "struct GameStats.BaseStats",
              "name": "stats",
              "type": "tuple"
            }
          ],
          "internalType": "struct GameStats.EquipmentItem",
          "name": "item",
          "type": "tuple"
        }
      ],
      "name": "addEquipment",
      "outputs": [],
      "stateMutability": "nonpayable",
      "type": "function"
    },
    {
      "inputs": [
        {
          "components": [
            {
              "internalType": "uint16[3]",
              "name": "values",
              "type": "uint16[3]"
            }
          ],
          "internalType": "struct GameStats.EnemyStats",
          "name": "enemmy",
          "type": "tuple"
        }
      ],
      "name": "addEnemy",
      "outputs": [],
      "stateMutability": "nonpayable",
      "type": "function"
    },
    {
      "inputs": [
        {
          "components": [
            {
              "internalType": "uint256",
              "name": "enemy",
              "type": "uint256"
            },
            {
              "internalType": "uint16[2]",
              "name": "values",
              "type": "uint16[2]"
            }
          ],
          "internalType": "struct GameStats.QuestStats",
          "name": "quest",
          "type": "tuple"
        }
      ],
      "name": "addQuest",
      "outputs": [],
      "stateMutability": "nonpayable",
      "type": "function"
    },
    {
      "inputs": [
        {
          "components": [
            {
              "components": [
                {
                  "internalType": "uint16[8]",
                  "name": "values",
                  "type": "uint16[8]"
                }
              ],
              "internalType": "struct GameStats.BaseStats",
              "name": "stats",
              "type": "tuple"
            }
          ],
          "internalType": "struct GameStats.RaceItem",
          "name": "race",
          "type": "tuple"
        },
        {
          "internalType": "uint256",
          "name": "pos",
          "type": "uint256"
        }
      ],
      "name": "replaceRace",
      "outputs": [],
      "stateMutability": "nonpayable",
      "type": "function"
    },
    {
      "inputs": [
        {
          "components": [
            {
              "internalType": "uint8",
              "name": "slot",
              "type": "uint8"
            },
            {
              "components": [
                {
                  "internalType": "uint16[8]",
                  "name": "values",
                  "type": "uint16[8]"
                }
              ],
              "internalType": "struct GameStats.BaseStats",
              "name": "stats",
              "type": "tuple"
            }
          ],
          "internalType": "struct GameStats.EquipmentItem",
          "name": "item",
          "type": "tuple"
        },
        {
          "internalType": "uint256",
          "name": "pos",
          "type": "uint256"
        }
      ],
      "name": "replaceEquipment",
      "outputs": [],
      "stateMutability": "nonpayable",
      "type": "function"
    },
    {
      "inputs": [
        {
          "components": [
            {
              "internalType": "uint16[3]",
              "name": "values",
              "type": "uint16[3]"
            }
          ],
          "internalType": "struct GameStats.EnemyStats",
          "name": "enemy",
          "type": "tuple"
        },
        {
          "internalType": "uint256",
          "name": "pos",
          "type": "uint256"
        }
      ],
      "name": "replaceEnemy",
      "outputs": [],
      "stateMutability": "nonpayable",
      "type": "function"
    },
    {
      "inputs": [
        {
          "components": [
            {
              "internalType": "uint256",
              "name": "enemy",
              "type": "uint256"
            },
            {
              "internalType": "uint16[2]",
              "name": "values",
              "type": "uint16[2]"
            }
          ],
          "internalType": "struct GameStats.QuestStats",
          "name": "quest",
          "type": "tuple"
        },
        {
          "internalType": "uint256",
          "name": "pos",
          "type": "uint256"
        }
      ],
      "name": "replaceQuest",
      "outputs": [],
      "stateMutability": "nonpayable",
      "type": "function"
    },
    {
      "inputs": [],
      "name": "numRaces",
      "outputs": [
        {
          "internalType": "uint256",
          "name": "",
          "type": "uint256"
        }
      ],
      "stateMutability": "view",
      "type": "function",
      "constant": true
    },
    {
      "inputs": [],
      "name": "numEquipment",
      "outputs": [
        {
          "internalType": "uint256",
          "name": "",
          "type": "uint256"
        }
      ],
      "stateMutability": "view",
      "type": "function",
      "constant": true
    },
    {
      "inputs": [],
      "name": "numEnemies",
      "outputs": [
        {
          "internalType": "uint256",
          "name": "",
          "type": "uint256"
        }
      ],
      "stateMutability": "view",
      "type": "function",
      "constant": true
    },
    {
      "inputs": [],
      "name": "numQuests",
      "outputs": [
        {
          "internalType": "uint256",
          "name": "",
          "type": "uint256"
        }
      ],
      "stateMutability": "view",
      "type": "function",
      "constant": true
    },
    {
      "inputs": [
        {
          "internalType": "uint256",
          "name": "pos",
          "type": "uint256"
        }
      ],
      "name": "raceAt",
      "outputs": [
        {
          "components": [
            {
              "components": [
                {
                  "internalType": "uint16[8]",
                  "name": "values",
                  "type": "uint16[8]"
                }
              ],
              "internalType": "struct GameStats.BaseStats",
              "name": "stats",
              "type": "tuple"
            }
          ],
          "internalType": "struct GameStats.RaceItem",
          "name": "race",
          "type": "tuple"
        }
      ],
      "stateMutability": "view",
      "type": "function",
      "constant": true
    },
    {
      "inputs": [
        {
          "internalType": "uint256",
          "name": "pos",
          "type": "uint256"
        }
      ],
      "name": "equipmentAt",
      "outputs": [
        {
          "components": [
            {
              "internalType": "uint8",
              "name": "slot",
              "type": "uint8"
            },
            {
              "components": [
                {
                  "internalType": "uint16[8]",
                  "name": "values",
                  "type": "uint16[8]"
                }
              ],
              "internalType": "struct GameStats.BaseStats",
              "name": "stats",
              "type": "tuple"
            }
          ],
          "internalType": "struct GameStats.EquipmentItem",
          "name": "item",
          "type": "tuple"
        }
      ],
      "stateMutability": "view",
      "type": "function",
      "constant": true
    },
    {
      "inputs": [
        {
          "internalType": "uint256",
          "name": "pos",
          "type": "uint256"
        }
      ],
      "name": "enemyAt",
      "outputs": [
        {
          "components": [
            {
              "internalType": "uint16[3]",
              "name": "values",
              "type": "uint16[3]"
            }
          ],
          "internalType": "struct GameStats.EnemyStats",
          "name": "enemy",
          "type": "tuple"
        }
      ],
      "stateMutability": "view",
      "type": "function",
      "constant": true
    },
    {
      "inputs": [
        {
          "internalType": "uint256",
          "name": "pos",
          "type": "uint256"
        }
      ],
      "name": "questAt",
      "outputs": [
        {
          "components": [
            {
              "internalType": "uint256",
              "name": "enemy",
              "type": "uint256"
            },
            {
              "internalType": "uint16[2]",
              "name": "values",
              "type": "uint16[2]"
            }
          ],
          "internalType": "struct GameStats.QuestStats",
          "name": "quest",
          "type": "tuple"
        }
      ],
      "stateMutability": "view",
      "type": "function",
      "constant": true
    }
  ],
  "bytecode": "0x60806040523480156200001157600080fd5b5062000038620000296401000000006200009e810204565b640100000000620000a2810204565b620000606000620000516401000000006200009e810204565b640100000000620000f4810204565b620000987f8b8c0776df2c2176edf6f82391c35ea4891146d7a976ee36fd07f1a6fb4ead4c620000516401000000006200009e810204565b620002b2565b3390565b60028054600160a060020a03838116600160a060020a0319831681179093556040519116919082907f8be0079c531659141344cd1fd0a4f28419497f9722a3daafe3b4186f6b6457e090600090a35050565b6200010982826401000000006200010d810204565b5050565b62000127828264010000000062000e236200015482021704565b60008281526001602052604090206200014f908264010000000062000ea7620001f082021704565b505050565b62000169828264010000000062000219810204565b6200010957600082815260208181526040808320600160a060020a03851684529091529020805460ff19166001179055620001ac6401000000006200009e810204565b600160a060020a031681600160a060020a0316837f2f8788117e7eff1d82e926ec794901d17c78024a50270940304540a733656f0d60405160405180910390a45050565b60006200021083600160a060020a03841664010000000062000242810204565b90505b92915050565b600091825260208281526040808420600160a060020a0393909316845291905290205460ff1690565b60006200025983836401000000006200029a810204565b620002915750815460018181018455600084815260208082209093018490558454848252828601909352604090209190915562000213565b50600062000213565b60009081526001919091016020526040902054151590565b611d8580620002c26000396000f3fe608060405234801561001057600080fd5b50600436106101ec576000357c010000000000000000000000000000000000000000000000000000000090048063715018a611610121578063a33a4876116100bf578063dc2248631161008e578063dc22486314610403578063e186640514610418578063f2fde38b14610438578063ffa499c11461044b57600080fd5b8063a33a4876146103cd578063a5d839f6146103d5578063ca15c873146103dd578063d547741f146103f057600080fd5b80639010d07c116100fb5780639010d07c1461038c57806390bba75d1461039f57806391d14854146103b2578063a217fddf146103c557600080fd5b8063715018a61461034c578063749880ee146103545780638da5cb5b1461036757600080fd5b80633fcfa98b1161018e57806355286d5c1161016857806355286d5c146102e657806366f02f78146103065780636a4deab1146103195780636b6026651461032c57600080fd5b80633fcfa98b146102ab578063473b4308146102b35780634faf3560146102c657600080fd5b8063253c68c8116101ca578063253c68c81461025f57806328a7f2e6146102725780632f2ff15d1461028557806336568abe1461029857600080fd5b806301ffc9a7146101f15780632165c89a14610219578063248a9ca31461022e575b600080fd5b6102046101ff3660046118ed565b610453565b60405190151581526020015b60405180910390f35b61022c61022736600461197b565b610497565b005b61025161023c366004611886565b60009081526020819052604090206001015490565b604051908152602001610210565b61022c61026d366004611917565b610538565b61022c61028036600461195e565b61059c565b61022c61029336600461189f565b610643565b61022c6102a636600461189f565b61066e565b600654610251565b61022c6102c13660046119a8565b6106fd565b6102d96102d4366004611886565b6107ac565b6040516102109190611b76565b6102f96102f4366004611886565b610883565b6040516102109190611b3f565b61022c6103143660046119e1565b610936565b61022c6103273660046119fe565b610998565b61033f61033a366004611886565b610a0c565b6040516102109190611bd6565b61022c610aa8565b61022c610362366004611933565b610b11565b600254600160a060020a03165b604051600160a060020a039091168152602001610210565b61037461039a3660046118cb565b610b86565b61022c6103ad3660046119c4565b610ba5565b6102046103c036600461189f565b610c25565b610251600081565b600354610251565b600454610251565b6102516103eb366004611886565b610c4e565b61022c6103fe36600461189f565b610c65565b610251600080516020611d3083398151915281565b61042b610426366004611886565b610c8b565b6040516102109190611b95565b61022c61044636600461186b565b610d3b565b600554610251565b6000600160e060020a031982167f5a05180f000000000000000000000000000000000000000000000000000000001480610491575061049182610ebc565b92915050565b600080516020611d308339815191526104b08133610f23565b60045482106104dd5760405160e560020a62461bcd0281526004016104d490611b08565b60405180910390fd5b82600483815481106104f1576104f1611cfd565b6000918252602091829020835160029290920201805460ff191660ff909216919091178155908201518051600183019061052e908290600861147a565b5050505050505050565b600080516020611d308339815191526105518133610f23565b60058054600181018255600091909152825183917f036b6384b5eca791c62761152d0c79bb0604c104a5fb6f4eb0703f3154bb3db00190610595908290600361147a565b5050505050565b600080516020611d308339815191526105b58133610f23565b6004805460018101825560009190915282517f8a35acfbc15ff81a39ae7d344fd709f28e8600b4aa8c65c6b64bfe7fe36bd19b6002909202918201805460ff191660ff9092169190911781556020840151805185937f8a35acfbc15ff81a39ae7d344fd709f28e8600b4aa8c65c6b64bfe7fe36bd19c019061063a908290600861147a565b50505050505050565b60008281526020819052604090206001015461065f8133610f23565b6106698383610f8a565b505050565b600160a060020a03811633146106ef5760405160e560020a62461bcd02815260206004820152602f60248201527f416363657373436f6e74726f6c3a2063616e206f6e6c792072656e6f756e636560448201527f20726f6c657320666f722073656c66000000000000000000000000000000000060648201526084016104d4565b6106f98282610fac565b5050565b600080516020611d308339815191526107168133610f23565b60055482511061073b5760405160e560020a62461bcd0281526004016104d490611b08565b60068054600181018255600091909152825160029182027ff652222313e28459528d920b65115c16c04f3efc82aaedc97be59f3f377c0d3f810191825560208501518593610595927ff652222313e28459528d920b65115c16c04f3efc82aaedc97be59f3f377c0d4001919061147a565b6107b4611510565b60045482106107d85760405160e560020a62461bcd0281526004016104d490611b08565b600482815481106107eb576107eb611cfd565b60009182526020918290206040805180820182526002909302909101805460ff16835281516101208101909252919283810191906001840190829081018260088282826020028201916000905b82829054906101000a900461ffff1661ffff16815260200190600201906020826001010492830192600103820291508084116108385790505050509190925250505090525092915050565b61088b611532565b60055482106108af5760405160e560020a62461bcd0281526004016104d490611b08565b600582815481106108c2576108c2611cfd565b6000918252602080832060408051608081019182905294939091019284928301918491600391908390855b82829054906101000a900461ffff1661ffff16815260200190600201906020826001010492830192600103820291508084116108ed5790505b5050505050815250509050919050565b600080516020611d3083398151915261094f8133610f23565b600380546001810182556000919091528251805184927fc2575a0e9e593c00f959f8c92f12db2869c3395a3b0502d05e2516446f71f85b019190829061063a908290600861147a565b600080516020611d308339815191526109b18133610f23565b60035482106109d55760405160e560020a62461bcd0281526004016104d490611b08565b82600383815481106109e9576109e9611cfd565b6000918252602090912082518051919092019190829061052e908290600861147a565b610a14611545565b6003548210610a385760405160e560020a62461bcd0281526004016104d490611b08565b60038281548110610a4b57610a4b611cfd565b600091825260209182902060408051610140810180835293909201805461ffff169183019182529193919284928301918491839190839060089082600260608a018084116108385790505050509190925250505090525092915050565b600254600160a060020a03163314610b055760405160e560020a62461bcd02815260206004820181905260248201527f4f776e61626c653a2063616c6c6572206973206e6f7420746865206f776e657260448201526064016104d4565b610b0f6000610fce565b565b600080516020611d30833981519152610b2a8133610f23565b6005548210610b4e5760405160e560020a62461bcd0281526004016104d490611b08565b8260058381548110610b6257610b62611cfd565b600091825260209091208251910190610b7e908290600361147a565b505050505050565b6000828152600160205260408120610b9e908361102d565b9392505050565b600080516020611d30833981519152610bbe8133610f23565b6006548210610be25760405160e560020a62461bcd0281526004016104d490611b08565b8260068381548110610bf657610bf6611cfd565b906000526020600020906002020160008201518160000155602082015181600101906002610b7e92919061147a565b600091825260208281526040808420600160a060020a0393909316845291905290205460ff1690565b600081815260016020526040812061049190611039565b600082815260208190526040902060010154610c818133610f23565b6106698383610fac565b610c93611558565b6006548210610cb75760405160e560020a62461bcd0281526004016104d490611b08565b60068281548110610cca57610cca611cfd565b9060005260206000209060020201604051806040016040529081600082015481526020016001820160028060200260405190810160405280929190826002801561092657815461ffff1683526020908102830192600291018084116108ed5790505050505050815250509050919050565b600254600160a060020a03163314610d985760405160e560020a62461bcd02815260206004820181905260248201527f4f776e61626c653a2063616c6c6572206973206e6f7420746865206f776e657260448201526064016104d4565b600160a060020a038116610e175760405160e560020a62461bcd02815260206004820152602660248201527f4f776e61626c653a206e6577206f776e657220697320746865207a65726f206160448201527f646472657373000000000000000000000000000000000000000000000000000060648201526084016104d4565b610e2081610fce565b50565b610e2d8282610c25565b6106f957600082815260208181526040808320600160a060020a03851684529091529020805460ff19166001179055610e633390565b600160a060020a031681600160a060020a0316837f2f8788117e7eff1d82e926ec794901d17c78024a50270940304540a733656f0d60405160405180910390a45050565b6000610b9e83600160a060020a038416611043565b6000600160e060020a031982167f7965db0b00000000000000000000000000000000000000000000000000000000148061049157507f01ffc9a700000000000000000000000000000000000000000000000000000000600160e060020a0319831614610491565b610f2d8282610c25565b6106f957610f4581600160a060020a03166014611092565b610f50836020611092565b604051602001610f61929190611a54565b60408051601f198184030181529082905260e560020a62461bcd0282526104d491600401611ad5565b610f948282610e23565b60008281526001602052604090206106699082610ea7565b610fb682826112dc565b60008281526001602052604090206106699082611341565b60028054600160a060020a0383811673ffffffffffffffffffffffffffffffffffffffff19831681179093556040519116919082907f8be0079c531659141344cd1fd0a4f28419497f9722a3daafe3b4186f6b6457e090600090a35050565b6000610b9e8383611356565b6000610491825490565b600081815260018301602052604081205461108a57508154600181810184556000848152602080822090930184905584548482528286019093526040902091909155610491565b506000610491565b606060006110a1836002611c4e565b6110ac906002611c36565b67ffffffffffffffff8111156110c4576110c4611d16565b6040519080825280601f01601f1916602001820160405280156110ee576020820181803683370190505b5090507f30000000000000000000000000000000000000000000000000000000000000008160008151811061112557611125611cfd565b60200101907effffffffffffffffffffffffffffffffffffffffffffffffffffffffffffff1916908160001a9053507f78000000000000000000000000000000000000000000000000000000000000008160018151811061118857611188611cfd565b60200101907effffffffffffffffffffffffffffffffffffffffffffffffffffffffffffff1916908160001a90535060006111c4846002611c4e565b6111cf906001611c36565b90505b600181111561128a577f303132333435363738396162636465660000000000000000000000000000000085600f166010811061121057611210611cfd565b1a7f01000000000000000000000000000000000000000000000000000000000000000282828151811061124557611245611cfd565b60200101907effffffffffffffffffffffffffffffffffffffffffffffffffffffffffffff1916908160001a90535060109094049361128381611cb4565b90506111d2565b508315610b9e5760405160e560020a62461bcd02815260206004820181905260248201527f537472696e67733a20686578206c656e67746820696e73756666696369656e7460448201526064016104d4565b6112e68282610c25565b156106f957600082815260208181526040808320600160a060020a0385168085529252808320805460ff1916905551339285917ff6391f5c32d9c69d2a47ea670b442974b53935d1edc7fd64eb21e047a839171b9190a45050565b6000610b9e83600160a060020a038416611380565b600082600001828154811061136d5761136d611cfd565b9060005260206000200154905092915050565b600081815260018301602052604081205480156114695760006113a4600183611c6d565b85549091506000906113b890600190611c6d565b905081811461141d5760008660000182815481106113d8576113d8611cfd565b90600052602060002001549050808760000184815481106113fb576113fb611cfd565b6000918252602080832090910192909255918252600188019052604090208390555b855486908061142e5761142e611ce4565b600190038181906000526020600020016000905590558560010160008681526020019081526020016000206000905560019350505050610491565b6000915050610491565b5092915050565b6001830191839082156115005791602002820160005b838211156114d057835183826101000a81548161ffff021916908361ffff1602179055509260200192600201602081600101049283019260010302611490565b80156114fe5782816101000a81549061ffff02191690556002016020816001010492830192600103026114d0565b505b5061150c929150611572565b5090565b6040518060400160405280600060ff16815260200161152d611587565b905290565b604051806020016040528061152d61159a565b604051806020016040528061152d611587565b60405180604001604052806000815260200161152d6115b8565b5b8082111561150c5760008155600101611573565b604051806020016040528061152d6115d6565b60405180606001604052806003906020820280368337509192915050565b60405180604001604052806002906020820280368337509192915050565b6040518061010001604052806008906020820280368337509192915050565b8035600160a060020a038116811461160c57600080fd5b919050565b600061010080838503121561162557600080fd5b61162d611bea565b915083601f84011261163e57600080fd5b60405181810181811067ffffffffffffffff8211171561166057611660611d16565b604052808483810187101561167457600080fd5b600093505b60088410156116a05761168b81611859565b82526001939093019260209182019101611679565b505082525092915050565b6000606082840312156116bd57600080fd5b6116c5611bea565b905082601f8301126116d657600080fd5b6040516060810181811067ffffffffffffffff821117156116f9576116f9611d16565b60405280836060810186101561170e57600080fd5b60005b60038110156117385761172382611859565b83526020928301929190910190600101611711565b505050815292915050565b6000610120828403121561175657600080fd5b61175e611c13565b9050813560ff8116811461177157600080fd5b81526117808360208401611611565b602082015292915050565b60006060828403121561179d57600080fd5b6117a5611c13565b905081358152602083603f8401126117bc57600080fd5b6040516040810181811067ffffffffffffffff821117156117df576117df611d16565b60405280848301606086018710156117f657600080fd5b60005b600281101561181d5761180b82611859565b835291840191908401906001016117f9565b5050509082015292915050565b6000610100828403121561183d57600080fd5b611845611bea565b90506118518383611611565b815292915050565b803561ffff8116811461160c57600080fd5b60006020828403121561187d57600080fd5b610b9e826115f5565b60006020828403121561189857600080fd5b5035919050565b600080604083850312156118b257600080fd5b823591506118c2602084016115f5565b90509250929050565b600080604083850312156118de57600080fd5b50508035926020909101359150565b6000602082840312156118ff57600080fd5b8135600160e060020a031981168114610b9e57600080fd5b60006060828403121561192957600080fd5b610b9e83836116ab565b6000806080838503121561194657600080fd5b61195084846116ab565b946060939093013593505050565b6000610120828403121561197157600080fd5b610b9e8383611743565b600080610140838503121561198f57600080fd5b6119998484611743565b94610120939093013593505050565b6000606082840312156119ba57600080fd5b610b9e838361178b565b600080608083850312156119d757600080fd5b611950848461178b565b600061010082840312156119f457600080fd5b610b9e838361182a565b6000806101208385031215611a1257600080fd5b611a1c848461182a565b94610100939093013593505050565b80518260005b600881101561059557825161ffff16825260209283019290910190600101611a31565b7f416363657373436f6e74726f6c3a206163636f756e7420000000000000000000815260008351611a8c816017850160208801611c84565b7f206973206d697373696e6720726f6c65200000000000000000000000000000006017918401918201528351611ac9816028840160208801611c84565b01602801949350505050565b6020815260008251806020840152611af4816040850160208701611c84565b601f01601f19169190910160400192915050565b6020808252601d908201527f457863657074696f6e3a20696e646578206f7574206f662072616e6765000000604082015260600190565b815160608201908260005b6003811015611b6d57825161ffff16825260209283019290910190600101611b4a565b50505092915050565b815160ff16815260208083015161012083019161147390840182611a2b565b8151815260208083015160608301919081840160005b6002811015611bcc57825161ffff1682529183019190830190600101611bab565b5050505092915050565b600061010082019050610491828451611a2b565b6040516020810167ffffffffffffffff81118282101715611c0d57611c0d611d16565b60405290565b6040805190810167ffffffffffffffff81118282101715611c0d57611c0d611d16565b60008219821115611c4957611c49611ccb565b500190565b6000816000190483118215151615611c6857611c68611ccb565b500290565b600082821015611c7f57611c7f611ccb565b500390565b60005b83811015611c9f578181015183820152602001611c87565b83811115611cae576000848401525b50505050565b600081611cc357611cc3611ccb565b506000190190565b60e060020a634e487b7102600052601160045260246000fd5b60e060020a634e487b7102600052603160045260246000fd5b60e060020a634e487b7102600052603260045260246000fd5b60e060020a634e487b7102600052604160045260246000fdfe8b8c0776df2c2176edf6f82391c35ea4891146d7a976ee36fd07f1a6fb4ead4ca264697066735822122048cfec54eb17c2666d65869ac2405c3a4ffb6c32ca1189098facda2a3233cd5e64736f6c63430008060033",
  "immutableReferences": {},
  "source": "//SPDX-License-Identifier: MIT\r\npragma solidity ^0.8.0;\r\n\r\nimport \"@openzeppelin/contracts/access/Ownable.sol\";\r\nimport \"@openzeppelin/contracts/access/AccessControlEnumerable.sol\";\r\n\r\n/*\r\nThis contracts contains all the relevan data of the Chains of Glory game\r\nWe may consider that it is acting as a database for the game.\r\n*/\r\ncontract GameStats is AccessControlEnumerable, Ownable {\r\n\r\n    //Roles of monter and burner\r\n    bytes32 public constant MASTER_ROLE = keccak256(\"MASTER_ROLE\");\r\n\r\n    //Stats shared by Characters and Equipment\r\n    struct BaseStats {\r\n        uint16[8] values;\r\n        // 0 - Health   Base life of character\r\n        // 1 - Vitality Increase Health in Vitality * 3\r\n        // 2 - Attack   Hit points\r\n        // 3 - Defense  Reduce each enemy hit in 'defense' points\r\n        // 4 - Mastery  % Reduce mission time (50 reduces to half)\r\n        // 5 - Speed    % Reduce travel time (50 reduces to half)\r\n        // 6 - Luck     % drop chance\r\n        // 7 - Faith    Increases health, attack and deffense\r\n    }\r\n\r\n    struct RaceItem {\r\n        BaseStats   stats;  //Base stats of the item\r\n    }\r\n\r\n    struct EquipmentItem {\r\n        uint8       slot;   // 0-Head 1-Neck 2-Chest 3-Belt 4-Legs 5-Feet 6-Arms \r\n                            // 7-RHand (weapon) 8-LHand(complement) 0-Finger 10-Mount\r\n                            // 100 - Wildcard\r\n        BaseStats   stats;  //Base stats of the item\r\n    }\r\n\r\n    struct EnemyStats {\r\n        uint16[3]   values;\r\n        // 0 - Health   Base life of enemies\r\n        // 1 - Attack   Hit points\r\n        // 2 - Defense  Reduce each player hit in 'defense' points\r\n    }\r\n\r\n    struct QuestStats {\r\n        uint256     enemy;  //Enemy of the quest (0 means no enemy)\r\n        uint16[2]   values;\r\n        // 0 - Distance  Time to complete the trip to the quest place\r\n        // 1 - Time  Standard time to complete the mission\r\n    }\r\n\r\n    //Database with all races, equipment types, enemies and quests\r\n    RaceItem[] races;\r\n    EquipmentItem[] equipment;\r\n    EnemyStats[] enemies;\r\n    QuestStats[] quests;\r\n\r\n    constructor() {\r\n        _setupRole(DEFAULT_ADMIN_ROLE, _msgSender());\r\n        _setupRole(MASTER_ROLE, _msgSender());\r\n    }\r\n\r\n    function addRace(RaceItem memory race) public onlyRole(MASTER_ROLE) {\r\n        races.push(race);\r\n    }\r\n\r\n    function addEquipment(EquipmentItem memory item) public onlyRole(MASTER_ROLE) {\r\n        equipment.push(item);\r\n    }\r\n\r\n    function addEnemy(EnemyStats memory enemmy) public onlyRole(MASTER_ROLE) {\r\n        enemies.push(enemmy);\r\n    }\r\n    \r\n    function addQuest(QuestStats memory quest) public onlyRole(MASTER_ROLE) {  \r\n        require(quest.enemy<enemies.length, \"Exception: index out of range\");      \r\n        quests.push(quest);\r\n    }\r\n\r\n    function replaceRace(RaceItem memory race, uint pos) public onlyRole(MASTER_ROLE) {\r\n        require(pos<races.length, \"Exception: index out of range\");\r\n        races[pos]= race;\r\n    }\r\n    \r\n    function replaceEquipment(EquipmentItem memory item, uint pos) public onlyRole(MASTER_ROLE) {\r\n        require(pos<equipment.length, \"Exception: index out of range\");\r\n        equipment[pos]= item;\r\n    }\r\n\r\n    function replaceEnemy(EnemyStats memory enemy, uint pos) public onlyRole(MASTER_ROLE) {\r\n        require(pos<enemies.length, \"Exception: index out of range\");\r\n        enemies[pos]= enemy;\r\n    }\r\n    \r\n    function replaceQuest(QuestStats memory quest, uint pos) public onlyRole(MASTER_ROLE) {\r\n        require(pos<quests.length, \"Exception: index out of range\");\r\n        quests[pos]= quest;\r\n    }\r\n\r\n    function numRaces() public view returns (uint256) {\r\n        return races.length;\r\n    }\r\n    \r\n    function numEquipment() public view returns (uint256) {\r\n        return equipment.length;\r\n    }\r\n\r\n    function numEnemies() public view returns (uint256) {\r\n        return enemies.length;\r\n    }\r\n\r\n    function numQuests() public view returns (uint256) {\r\n        return quests.length;\r\n    }\r\n\r\n    function raceAt(uint256 pos) public view returns (RaceItem memory race) {\r\n        require(pos<races.length, \"Exception: index out of range\");\r\n        return races[pos];\r\n    }\r\n\r\n    function equipmentAt(uint256 pos) public view returns (EquipmentItem memory item) {\r\n        require(pos<equipment.length, \"Exception: index out of range\");\r\n        return equipment[pos];\r\n    }\r\n\r\n    function enemyAt(uint256 pos) public view returns (EnemyStats memory enemy) {\r\n        require(pos<enemies.length, \"Exception: index out of range\");\r\n        return enemies[pos];\r\n    }\r\n\r\n    function questAt(uint256 pos) public view returns (QuestStats memory quest) {\r\n        require(pos<quests.length, \"Exception: index out of range\");\r\n        return quests[pos];\r\n    }\r\n\r\n}",
  "sourcePath": "/home/javi/COG/contracts/GameStats.sol",
  "compiler": {
    "name": "solc",
    "version": "0.8.6+commit.11564f7e.Emscripten.clang"
  },
  "schemaVersion": "3.4.3",
  "updatedAt": "2022-01-17T16:06:08.237Z",
  "networkType": "ethereum",
  "devdoc": {
    "kind": "dev",
    "methods": {
      "getRoleAdmin(bytes32)": {
        "details": "Returns the admin role that controls `role`. See {grantRole} and {revokeRole}. To change a role's admin, use {_setRoleAdmin}."
      },
      "getRoleMember(bytes32,uint256)": {
        "details": "Returns one of the accounts that have `role`. `index` must be a value between 0 and {getRoleMemberCount}, non-inclusive. Role bearers are not sorted in any particular way, and their ordering may change at any point. WARNING: When using {getRoleMember} and {getRoleMemberCount}, make sure you perform all queries on the same block. See the following https://forum.openzeppelin.com/t/iterating-over-elements-on-enumerableset-in-openzeppelin-contracts/2296[forum post] for more information."
      },
      "getRoleMemberCount(bytes32)": {
        "details": "Returns the number of accounts that have `role`. Can be used together with {getRoleMember} to enumerate all bearers of a role."
      },
      "grantRole(bytes32,address)": {
        "details": "Grants `role` to `account`. If `account` had not been already granted `role`, emits a {RoleGranted} event. Requirements: - the caller must have ``role``'s admin role."
      },
      "hasRole(bytes32,address)": {
        "details": "Returns `true` if `account` has been granted `role`."
      },
      "owner()": {
        "details": "Returns the address of the current owner."
      },
      "renounceOwnership()": {
        "details": "Leaves the contract without owner. It will not be possible to call `onlyOwner` functions anymore. Can only be called by the current owner. NOTE: Renouncing ownership will leave the contract without an owner, thereby removing any functionality that is only available to the owner."
      },
      "renounceRole(bytes32,address)": {
        "details": "Revokes `role` from the calling account. Roles are often managed via {grantRole} and {revokeRole}: this function's purpose is to provide a mechanism for accounts to lose their privileges if they are compromised (such as when a trusted device is misplaced). If the calling account had been revoked `role`, emits a {RoleRevoked} event. Requirements: - the caller must be `account`."
      },
      "revokeRole(bytes32,address)": {
        "details": "Revokes `role` from `account`. If `account` had been granted `role`, emits a {RoleRevoked} event. Requirements: - the caller must have ``role``'s admin role."
      },
      "supportsInterface(bytes4)": {
        "details": "See {IERC165-supportsInterface}."
      },
      "transferOwnership(address)": {
        "details": "Transfers ownership of the contract to a new account (`newOwner`). Can only be called by the current owner."
      }
    },
    "version": 1
  },
  "userdoc": {
    "kind": "user",
    "methods": {},
    "version": 1
  }
}