{
  "contractName": "GameCoin",
  "abi": [
    {
      "inputs": [
        {
          "internalType": "uint256",
          "name": "initialSupply",
          "type": "uint256"
        }
      ],
      "stateMutability": "nonpayable",
      "type": "constructor"
    },
    {
      "anonymous": false,
      "inputs": [
        {
          "indexed": true,
          "internalType": "address",
          "name": "owner",
          "type": "address"
        },
        {
          "indexed": true,
          "internalType": "address",
          "name": "spender",
          "type": "address"
        },
        {
          "indexed": false,
          "internalType": "uint256",
          "name": "value",
          "type": "uint256"
        }
      ],
      "name": "Approval",
      "type": "event"
    },
    {
      "anonymous": false,
      "inputs": [
        {
          "indexed": true,
          "internalType": "address",
          "name": "previousOwner",
          "type": "address"
        },
        {
          "indexed": true,
          "internalType": "address",
          "name": "newOwner",
          "type": "address"
        }
      ],
      "name": "OwnershipTransferred",
      "type": "event"
    },
    {
      "anonymous": false,
      "inputs": [
        {
          "indexed": true,
          "internalType": "bytes32",
          "name": "role",
          "type": "bytes32"
        },
        {
          "indexed": true,
          "internalType": "bytes32",
          "name": "previousAdminRole",
          "type": "bytes32"
        },
        {
          "indexed": true,
          "internalType": "bytes32",
          "name": "newAdminRole",
          "type": "bytes32"
        }
      ],
      "name": "RoleAdminChanged",
      "type": "event"
    },
    {
      "anonymous": false,
      "inputs": [
        {
          "indexed": true,
          "internalType": "bytes32",
          "name": "role",
          "type": "bytes32"
        },
        {
          "indexed": true,
          "internalType": "address",
          "name": "account",
          "type": "address"
        },
        {
          "indexed": true,
          "internalType": "address",
          "name": "sender",
          "type": "address"
        }
      ],
      "name": "RoleGranted",
      "type": "event"
    },
    {
      "anonymous": false,
      "inputs": [
        {
          "indexed": true,
          "internalType": "bytes32",
          "name": "role",
          "type": "bytes32"
        },
        {
          "indexed": true,
          "internalType": "address",
          "name": "account",
          "type": "address"
        },
        {
          "indexed": true,
          "internalType": "address",
          "name": "sender",
          "type": "address"
        }
      ],
      "name": "RoleRevoked",
      "type": "event"
    },
    {
      "anonymous": false,
      "inputs": [
        {
          "indexed": true,
          "internalType": "address",
          "name": "from",
          "type": "address"
        },
        {
          "indexed": true,
          "internalType": "address",
          "name": "to",
          "type": "address"
        },
        {
          "indexed": false,
          "internalType": "uint256",
          "name": "value",
          "type": "uint256"
        }
      ],
      "name": "Transfer",
      "type": "event"
    },
    {
      "inputs": [],
      "name": "BURNER_ROLE",
      "outputs": [
        {
          "internalType": "bytes32",
          "name": "",
          "type": "bytes32"
        }
      ],
      "stateMutability": "view",
      "type": "function",
      "constant": true
    },
    {
      "inputs": [],
      "name": "DEFAULT_ADMIN_ROLE",
      "outputs": [
        {
          "internalType": "bytes32",
          "name": "",
          "type": "bytes32"
        }
      ],
      "stateMutability": "view",
      "type": "function",
      "constant": true
    },
    {
      "inputs": [],
      "name": "MINTER_ROLE",
      "outputs": [
        {
          "internalType": "bytes32",
          "name": "",
          "type": "bytes32"
        }
      ],
      "stateMutability": "view",
      "type": "function",
      "constant": true
    },
    {
      "inputs": [
        {
          "internalType": "address",
          "name": "owner",
          "type": "address"
        },
        {
          "internalType": "address",
          "name": "spender",
          "type": "address"
        }
      ],
      "name": "allowance",
      "outputs": [
        {
          "internalType": "uint256",
          "name": "",
          "type": "uint256"
        }
      ],
      "stateMutability": "view",
      "type": "function",
      "constant": true
    },
    {
      "inputs": [
        {
          "internalType": "address",
          "name": "spender",
          "type": "address"
        },
        {
          "internalType": "uint256",
          "name": "amount",
          "type": "uint256"
        }
      ],
      "name": "approve",
      "outputs": [
        {
          "internalType": "bool",
          "name": "",
          "type": "bool"
        }
      ],
      "stateMutability": "nonpayable",
      "type": "function"
    },
    {
      "inputs": [
        {
          "internalType": "address",
          "name": "account",
          "type": "address"
        }
      ],
      "name": "balanceOf",
      "outputs": [
        {
          "internalType": "uint256",
          "name": "",
          "type": "uint256"
        }
      ],
      "stateMutability": "view",
      "type": "function",
      "constant": true
    },
    {
      "inputs": [
        {
          "internalType": "address",
          "name": "spender",
          "type": "address"
        },
        {
          "internalType": "uint256",
          "name": "subtractedValue",
          "type": "uint256"
        }
      ],
      "name": "decreaseAllowance",
      "outputs": [
        {
          "internalType": "bool",
          "name": "",
          "type": "bool"
        }
      ],
      "stateMutability": "nonpayable",
      "type": "function"
    },
    {
      "inputs": [
        {
          "internalType": "bytes32",
          "name": "role",
          "type": "bytes32"
        }
      ],
      "name": "getRoleAdmin",
      "outputs": [
        {
          "internalType": "bytes32",
          "name": "",
          "type": "bytes32"
        }
      ],
      "stateMutability": "view",
      "type": "function",
      "constant": true
    },
    {
      "inputs": [
        {
          "internalType": "bytes32",
          "name": "role",
          "type": "bytes32"
        },
        {
          "internalType": "uint256",
          "name": "index",
          "type": "uint256"
        }
      ],
      "name": "getRoleMember",
      "outputs": [
        {
          "internalType": "address",
          "name": "",
          "type": "address"
        }
      ],
      "stateMutability": "view",
      "type": "function",
      "constant": true
    },
    {
      "inputs": [
        {
          "internalType": "bytes32",
          "name": "role",
          "type": "bytes32"
        }
      ],
      "name": "getRoleMemberCount",
      "outputs": [
        {
          "internalType": "uint256",
          "name": "",
          "type": "uint256"
        }
      ],
      "stateMutability": "view",
      "type": "function",
      "constant": true
    },
    {
      "inputs": [
        {
          "internalType": "bytes32",
          "name": "role",
          "type": "bytes32"
        },
        {
          "internalType": "address",
          "name": "account",
          "type": "address"
        }
      ],
      "name": "grantRole",
      "outputs": [],
      "stateMutability": "nonpayable",
      "type": "function"
    },
    {
      "inputs": [
        {
          "internalType": "bytes32",
          "name": "role",
          "type": "bytes32"
        },
        {
          "internalType": "address",
          "name": "account",
          "type": "address"
        }
      ],
      "name": "hasRole",
      "outputs": [
        {
          "internalType": "bool",
          "name": "",
          "type": "bool"
        }
      ],
      "stateMutability": "view",
      "type": "function",
      "constant": true
    },
    {
      "inputs": [
        {
          "internalType": "address",
          "name": "spender",
          "type": "address"
        },
        {
          "internalType": "uint256",
          "name": "addedValue",
          "type": "uint256"
        }
      ],
      "name": "increaseAllowance",
      "outputs": [
        {
          "internalType": "bool",
          "name": "",
          "type": "bool"
        }
      ],
      "stateMutability": "nonpayable",
      "type": "function"
    },
    {
      "inputs": [],
      "name": "name",
      "outputs": [
        {
          "internalType": "string",
          "name": "",
          "type": "string"
        }
      ],
      "stateMutability": "view",
      "type": "function",
      "constant": true
    },
    {
      "inputs": [],
      "name": "owner",
      "outputs": [
        {
          "internalType": "address",
          "name": "",
          "type": "address"
        }
      ],
      "stateMutability": "view",
      "type": "function",
      "constant": true
    },
    {
      "inputs": [],
      "name": "renounceOwnership",
      "outputs": [],
      "stateMutability": "nonpayable",
      "type": "function"
    },
    {
      "inputs": [
        {
          "internalType": "bytes32",
          "name": "role",
          "type": "bytes32"
        },
        {
          "internalType": "address",
          "name": "account",
          "type": "address"
        }
      ],
      "name": "renounceRole",
      "outputs": [],
      "stateMutability": "nonpayable",
      "type": "function"
    },
    {
      "inputs": [
        {
          "internalType": "bytes32",
          "name": "role",
          "type": "bytes32"
        },
        {
          "internalType": "address",
          "name": "account",
          "type": "address"
        }
      ],
      "name": "revokeRole",
      "outputs": [],
      "stateMutability": "nonpayable",
      "type": "function"
    },
    {
      "inputs": [
        {
          "internalType": "uint256",
          "name": "",
          "type": "uint256"
        }
      ],
      "name": "storeGear",
      "outputs": [
        {
          "internalType": "uint16",
          "name": "itemIndex",
          "type": "uint16"
        },
        {
          "internalType": "uint256",
          "name": "price",
          "type": "uint256"
        }
      ],
      "stateMutability": "view",
      "type": "function",
      "constant": true
    },
    {
      "inputs": [
        {
          "internalType": "uint256",
          "name": "",
          "type": "uint256"
        }
      ],
      "name": "storeRaces",
      "outputs": [
        {
          "internalType": "uint16",
          "name": "itemIndex",
          "type": "uint16"
        },
        {
          "internalType": "uint256",
          "name": "price",
          "type": "uint256"
        }
      ],
      "stateMutability": "view",
      "type": "function",
      "constant": true
    },
    {
      "inputs": [
        {
          "internalType": "bytes4",
          "name": "interfaceId",
          "type": "bytes4"
        }
      ],
      "name": "supportsInterface",
      "outputs": [
        {
          "internalType": "bool",
          "name": "",
          "type": "bool"
        }
      ],
      "stateMutability": "view",
      "type": "function",
      "constant": true
    },
    {
      "inputs": [],
      "name": "symbol",
      "outputs": [
        {
          "internalType": "string",
          "name": "",
          "type": "string"
        }
      ],
      "stateMutability": "view",
      "type": "function",
      "constant": true
    },
    {
      "inputs": [],
      "name": "totalSupply",
      "outputs": [
        {
          "internalType": "uint256",
          "name": "",
          "type": "uint256"
        }
      ],
      "stateMutability": "view",
      "type": "function",
      "constant": true
    },
    {
      "inputs": [
        {
          "internalType": "address",
          "name": "recipient",
          "type": "address"
        },
        {
          "internalType": "uint256",
          "name": "amount",
          "type": "uint256"
        }
      ],
      "name": "transfer",
      "outputs": [
        {
          "internalType": "bool",
          "name": "",
          "type": "bool"
        }
      ],
      "stateMutability": "nonpayable",
      "type": "function"
    },
    {
      "inputs": [
        {
          "internalType": "address",
          "name": "sender",
          "type": "address"
        },
        {
          "internalType": "address",
          "name": "recipient",
          "type": "address"
        },
        {
          "internalType": "uint256",
          "name": "amount",
          "type": "uint256"
        }
      ],
      "name": "transferFrom",
      "outputs": [
        {
          "internalType": "bool",
          "name": "",
          "type": "bool"
        }
      ],
      "stateMutability": "nonpayable",
      "type": "function"
    },
    {
      "inputs": [
        {
          "internalType": "address",
          "name": "newOwner",
          "type": "address"
        }
      ],
      "name": "transferOwnership",
      "outputs": [],
      "stateMutability": "nonpayable",
      "type": "function"
    },
    {
      "stateMutability": "payable",
      "type": "receive",
      "payable": true
    },
    {
      "inputs": [],
      "name": "decimals",
      "outputs": [
        {
          "internalType": "uint8",
          "name": "",
          "type": "uint8"
        }
      ],
      "stateMutability": "pure",
      "type": "function",
      "constant": true
    },
    {
      "inputs": [
        {
          "internalType": "address",
          "name": "to",
          "type": "address"
        },
        {
          "internalType": "uint256",
          "name": "amount",
          "type": "uint256"
        }
      ],
      "name": "mint",
      "outputs": [],
      "stateMutability": "nonpayable",
      "type": "function"
    },
    {
      "inputs": [
        {
          "internalType": "uint256",
          "name": "amount",
          "type": "uint256"
        }
      ],
      "name": "burn",
      "outputs": [],
      "stateMutability": "nonpayable",
      "type": "function"
    },
    {
      "inputs": [
        {
          "internalType": "address",
          "name": "from",
          "type": "address"
        },
        {
          "internalType": "uint256",
          "name": "amount",
          "type": "uint256"
        }
      ],
      "name": "burn",
      "outputs": [],
      "stateMutability": "nonpayable",
      "type": "function"
    },
    {
      "inputs": [
        {
          "internalType": "uint256",
          "name": "amount",
          "type": "uint256"
        }
      ],
      "name": "withdraw",
      "outputs": [],
      "stateMutability": "nonpayable",
      "type": "function"
    },
    {
      "inputs": [
        {
          "internalType": "address",
          "name": "characterAddress",
          "type": "address"
        }
      ],
      "name": "setCharacterAddress",
      "outputs": [],
      "stateMutability": "nonpayable",
      "type": "function"
    },
    {
      "inputs": [
        {
          "internalType": "address",
          "name": "equipmentAddress",
          "type": "address"
        }
      ],
      "name": "setEquipmentAddress",
      "outputs": [],
      "stateMutability": "nonpayable",
      "type": "function"
    },
    {
      "inputs": [
        {
          "internalType": "address",
          "name": "gameStatsAddress",
          "type": "address"
        }
      ],
      "name": "setGameStatsAddress",
      "outputs": [],
      "stateMutability": "nonpayable",
      "type": "function"
    },
    {
      "inputs": [
        {
          "components": [
            {
              "internalType": "uint16",
              "name": "itemIndex",
              "type": "uint16"
            },
            {
              "internalType": "uint256",
              "name": "price",
              "type": "uint256"
            }
          ],
          "internalType": "struct GameCoin.StoreItem",
          "name": "item",
          "type": "tuple"
        },
        {
          "internalType": "uint8",
          "name": "class",
          "type": "uint8"
        }
      ],
      "name": "addItemToStore",
      "outputs": [],
      "stateMutability": "nonpayable",
      "type": "function"
    },
    {
      "inputs": [
        {
          "internalType": "uint256",
          "name": "index",
          "type": "uint256"
        },
        {
          "internalType": "uint8",
          "name": "class",
          "type": "uint8"
        }
      ],
      "name": "removeItemFromStore",
      "outputs": [],
      "stateMutability": "nonpayable",
      "type": "function"
    },
    {
      "inputs": [
        {
          "internalType": "uint8",
          "name": "class",
          "type": "uint8"
        }
      ],
      "name": "getItemLength",
      "outputs": [
        {
          "internalType": "uint256",
          "name": "",
          "type": "uint256"
        }
      ],
      "stateMutability": "view",
      "type": "function",
      "constant": true
    },
    {
      "inputs": [
        {
          "internalType": "uint256",
          "name": "index",
          "type": "uint256"
        }
      ],
      "name": "getEquipmentData",
      "outputs": [
        {
          "components": [
            {
              "internalType": "uint8",
              "name": "slot",
              "type": "uint8"
            },
            {
              "components": [
                {
                  "internalType": "uint16[8]",
                  "name": "values",
                  "type": "uint16[8]"
                }
              ],
              "internalType": "struct GameStats.BaseStats",
              "name": "stats",
              "type": "tuple"
            }
          ],
          "internalType": "struct GameStats.EquipmentItem",
          "name": "equipment",
          "type": "tuple"
        },
        {
          "internalType": "uint256",
          "name": "price",
          "type": "uint256"
        }
      ],
      "stateMutability": "view",
      "type": "function",
      "constant": true
    },
    {
      "inputs": [
        {
          "internalType": "uint256",
          "name": "index",
          "type": "uint256"
        }
      ],
      "name": "getRaceData",
      "outputs": [
        {
          "components": [
            {
              "components": [
                {
                  "internalType": "uint16[8]",
                  "name": "values",
                  "type": "uint16[8]"
                }
              ],
              "internalType": "struct GameStats.BaseStats",
              "name": "stats",
              "type": "tuple"
            }
          ],
          "internalType": "struct GameStats.RaceItem",
          "name": "race",
          "type": "tuple"
        },
        {
          "internalType": "uint256",
          "name": "price",
          "type": "uint256"
        }
      ],
      "stateMutability": "view",
      "type": "function",
      "constant": true
    },
    {
      "inputs": [
        {
          "internalType": "uint256",
          "name": "index",
          "type": "uint256"
        }
      ],
      "name": "purchaseEquipment",
      "outputs": [],
      "stateMutability": "nonpayable",
      "type": "function"
    },
    {
      "inputs": [
        {
          "internalType": "string",
          "name": "charName",
          "type": "string"
        },
        {
          "internalType": "uint256",
          "name": "index",
          "type": "uint256"
        }
      ],
      "name": "purchaseRace",
      "outputs": [],
      "stateMutability": "payable",
      "type": "function",
      "payable": true
    }
  ],
  "bytecode": "0x60806040523480156200001157600080fd5b506040516200363b3803806200363b833981016040819052620000349162000596565b6040518060400160405280601581526020017f436861696e73206f6620476c6f727920546f6b656e00000000000000000000008152506040518060400160405280600381526020017f4347540000000000000000000000000000000000000000000000000000000000815250620000cc620000bd620001b0640100000000026401000000009004565b640100000000620001b4810204565b8151620000e1906006906020850190620004f0565b508051620000f7906007906020840190620004f0565b506200012491506000905062000115640100000000620001b0810204565b64010000000062000206810204565b6200015c7f9f2df0fed2c77648de5860a4cc508cd0818c85b8b8a1ab4ceeef8d981c8956a662000115640100000000620001b0810204565b620001947f3c11d16cbaffd01df69ce1c404f6340ee057498f5f00246190ea54220576a84862000115640100000000620001b0810204565b620001a933826401000000006200021f810204565b5062000646565b3390565b60028054600160a060020a03838116600160a060020a0319831681179093556040519116919082907f8be0079c531659141344cd1fd0a4f28419497f9722a3daafe3b4186f6b6457e090600090a35050565b6200021b82826401000000006200034b810204565b5050565b600160a060020a03821662000294576040517f08c379a000000000000000000000000000000000000000000000000000000000815260206004820152601f60248201527f45524332303a206d696e7420746f20746865207a65726f206164647265737300604482015260640160405180910390fd5b620002ab600083836401000000006200038d810204565b8060056000828254620002bf9190620005b0565b9091555050600160a060020a03821660009081526003602052604081208054839290620002ee908490620005b0565b9091555050604051818152600160a060020a038316906000907fddf252ad1be2c89b69c2b068fc378daa952ba7f163c4a11628f55a4df523b3ef9060200160405180910390a36200021b600083836401000000006200038d810204565b6200036582826401000000006200199c6200039282021704565b60008281526001602052604090206200038d908264010000000062001a206200042e82021704565b505050565b620003a7828264010000000062000457810204565b6200021b57600082815260208181526040808320600160a060020a03851684529091529020805460ff19166001179055620003ea640100000000620001b0810204565b600160a060020a031681600160a060020a0316837f2f8788117e7eff1d82e926ec794901d17c78024a50270940304540a733656f0d60405160405180910390a45050565b60006200044e83600160a060020a03841664010000000062000480810204565b90505b92915050565b600091825260208281526040808420600160a060020a0393909316845291905290205460ff1690565b6000620004978383640100000000620004d8810204565b620004cf5750815460018181018455600084815260208082209093018490558454848252828601909352604090209190915562000451565b50600062000451565b60009081526001919091016020526040902054151590565b828054620004fe90620005f0565b90600052602060002090601f0160209004810192826200052257600085556200056d565b82601f106200053d57805160ff19168380011785556200056d565b828001600101855582156200056d579182015b828111156200056d57825182559160200191906001019062000550565b506200057b9291506200057f565b5090565b5b808211156200057b576000815560010162000580565b600060208284031215620005a957600080fd5b5051919050565b60008219821115620005eb577f4e487b7100000000000000000000000000000000000000000000000000000000600052601160045260246000fd5b500190565b6002810460018216806200060557607f821691505b6020821081141562000640577f4e487b7100000000000000000000000000000000000000000000000000000000600052602260045260246000fd5b50919050565b612fe580620006566000396000f3fe60806040526004361061024e5760003560e060020a90048063715018a61161013d578063a457c2d7116100ba578063d547741f1161007e578063d547741f14610736578063dc87a69814610756578063dd62ed3e14610776578063de4c4569146107bc578063f2392f2c146107dc578063f2fde38b146107fc57600080fd5b8063a457c2d714610674578063a9059cbb14610694578063c8d3951d146106b4578063ca15c873146106e2578063d53913931461070257600080fd5b806391d148541161010157806391d14854146105ea57806395d89b411461060a5780639dc29fac1461061f578063a217fddf1461063f578063a2846ad41461065457600080fd5b8063715018a6146105295780638108bcdf1461053e5780638cc975ad146105785780638da5cb5b146105985780639010d07c146105ca57600080fd5b80632e6a6e62116101cb57806339e209ec1161018f57806339e209ec1461047357806340c10f191461049357806342966c68146104b357806352bded47146104d357806370a08231146104f357600080fd5b80632e6a6e62146103e45780632f2ff15d146103f7578063313ce5671461041757806336568abe14610433578063395093511461045357600080fd5b806323b872dd1161021257806323b872dd14610312578063248a9ca3146103325780632777a04614610362578063282c51f3146103905780632e1a7d4d146103c457600080fd5b806301609cbb1461025a57806301ffc9a71461027c57806306fdde03146102b1578063095ea7b3146102d357806318160ddd146102f357600080fd5b3661025557005b600080fd5b34801561026657600080fd5b5061027a610275366004612aab565b61081c565b005b34801561028857600080fd5b5061029c610297366004612902565b6109e8565b60405190151581526020015b60405180910390f35b3480156102bd57600080fd5b506102c6610a2c565b6040516102a89190612c62565b3480156102df57600080fd5b5061029c6102ee36600461287a565b610abe565b3480156102ff57600080fd5b506005545b6040519081526020016102a8565b34801561031e57600080fd5b5061029c61032d36600461283e565b610ad4565b34801561033e57600080fd5b5061030461034d3660046128a4565b60009081526020819052604090206001015490565b34801561036e57600080fd5b5061038261037d3660046128a4565b610b96565b6040516102a8929190612d75565b34801561039c57600080fd5b506103047f3c11d16cbaffd01df69ce1c404f6340ee057498f5f00246190ea54220576a84881565b3480156103d057600080fd5b5061027a6103df3660046128a4565b610c9f565b61027a6103f236600461292c565b610cf9565b34801561040357600080fd5b5061027a6104123660046128bd565b610e2e565b34801561042357600080fd5b50604051600081526020016102a8565b34801561043f57600080fd5b5061027a61044e3660046128bd565b610e59565b34801561045f57600080fd5b5061029c61046e36600461287a565b610ee4565b34801561047f57600080fd5b5061027a61048e366004612a35565b610f20565b34801561049f57600080fd5b5061027a6104ae36600461287a565b611285565b3480156104bf57600080fd5b5061027a6104ce3660046128a4565b61132e565b3480156104df57600080fd5b5061027a6104ee3660046127f0565b611384565b3480156104ff57600080fd5b5061030461050e3660046127f0565b600160a060020a031660009081526003602052604090205490565b34801561053557600080fd5b5061027a6113e0565b34801561054a57600080fd5b5061055e6105593660046128a4565b611419565b6040805161ffff90931683526020830191909152016102a8565b34801561058457600080fd5b5061027a6105933660046128a4565b61144c565b3480156105a457600080fd5b50600254600160a060020a03165b604051600160a060020a0390911681526020016102a8565b3480156105d657600080fd5b506105b26105e53660046128e0565b61156f565b3480156105f657600080fd5b5061029c6106053660046128bd565b61158e565b34801561061657600080fd5b506102c66115b7565b34801561062b57600080fd5b5061027a61063a36600461287a565b6115c6565b34801561064b57600080fd5b50610304600081565b34801561066057600080fd5b5061027a61066f3660046127f0565b611619565b34801561068057600080fd5b5061029c61068f36600461287a565b611675565b3480156106a057600080fd5b5061029c6106af36600461287a565b611729565b3480156106c057600080fd5b506106d46106cf3660046128a4565b611736565b6040516102a8929190612da3565b3480156106ee57600080fd5b506103046106fd3660046128a4565b611824565b34801561070e57600080fd5b506103047f9f2df0fed2c77648de5860a4cc508cd0818c85b8b8a1ab4ceeef8d981c8956a681565b34801561074257600080fd5b5061027a6107513660046128bd565b61183b565b34801561076257600080fd5b5061055e6107713660046128a4565b611861565b34801561078257600080fd5b5061030461079136600461280b565b600160a060020a03918216600090815260046020908152604080832093909416825291909152205490565b3480156107c857600080fd5b5061027a6107d73660046127f0565b611871565b3480156107e857600080fd5b506103046107f7366004612ad0565b6118cd565b34801561080857600080fd5b5061027a6108173660046127f0565b6118e7565b600254600160a060020a031633146108525760405160e560020a62461bcd02815260040161084990612ce3565b60405180910390fd5b60ff811615806108635750600b5482105b6108825760405160e560020a62461bcd02815260040161084990612cac565b8060ff16600114806108955750600c5482105b6108b45760405160e560020a62461bcd02815260040161084990612c75565b60ff811661096457600c80546108cc90600190612e79565b815481106108dc576108dc612f5e565b9060005260206000209060020201600c83815481106108fd576108fd612f5e565b600091825260209091208254600290920201805461ffff191661ffff909216919091178155600191820154910155600c80548061093c5761093c612f45565b600082815260208120600260001990930192830201805461ffff191681556001015590555050565b600b805461097490600190612e79565b8154811061098457610984612f5e565b9060005260206000209060020201600b83815481106109a5576109a5612f5e565b600091825260209091208254600290920201805461ffff191661ffff909216919091178155600191820154910155600b80548061093c5761093c612f45565b5050565b6000600160e060020a031982167f5a05180f000000000000000000000000000000000000000000000000000000001480610a265750610a2682611a35565b92915050565b606060068054610a3b90612ed3565b80601f0160208091040260200160405190810160405280929190818152602001828054610a6790612ed3565b8015610ab45780601f10610a8957610100808354040283529160200191610ab4565b820191906000526020600020905b815481529060010190602001808311610a9757829003601f168201915b5050505050905090565b6000610acb338484611a9c565b50600192915050565b6000610ae1848484611bfa565b600160a060020a038416600090815260046020908152604080832033845290915290205482811015610b7e5760405160e560020a62461bcd02815260206004820152602860248201527f45524332303a207472616e7366657220616d6f756e742065786365656473206160448201527f6c6c6f77616e63650000000000000000000000000000000000000000000000006064820152608401610849565b610b8b8533858403611a9c565b506001949350505050565b610b9e6126a7565b600b546000908310610bc55760405160e560020a62461bcd02815260040161084990612cac565b600a54600b8054600160a060020a0390921691634faf3560919086908110610bef57610bef612f5e565b600091825260209091206002909102015460405163ffffffff831660e060020a02815261ffff90911660048201526024016101206040518083038186803b158015610c3957600080fd5b505afa158015610c4d573d6000803e3d6000fd5b505050506040513d601f19601f82011682018060405250810190610c7191906129c6565b600b8481548110610c8457610c84612f5e565b90600052602060002090600202016001015491509150915091565b600254600160a060020a03163314610ccc5760405160e560020a62461bcd02815260040161084990612ce3565b604051339082156108fc029083906000818181858888f193505050501580156109e4573d6000803e3d6000fd5b600c548110610d1d5760405160e560020a62461bcd02815260040161084990612c75565b600c8181548110610d3057610d30612f5e565b906000526020600020906002020160010154341015610d945760405160e560020a62461bcd02815260206004820152601660248201527f4e6f7420656e6f7567682066756e64732073656e7421000000000000000000006044820152606401610849565b600954600c8054600160a060020a0390921691633e5f2ebc91339186919086908110610dc257610dc2612f5e565b600091825260209091206002909102015460405160e060020a63ffffffff8616028152610df893929161ffff1690600401612bca565b600060405180830381600087803b158015610e1257600080fd5b505af1158015610e26573d6000803e3d6000fd5b505050505050565b600082815260208190526040902060010154610e4a8133611e1c565b610e548383611e83565b505050565b600160a060020a0381163314610eda5760405160e560020a62461bcd02815260206004820152602f60248201527f416363657373436f6e74726f6c3a2063616e206f6e6c792072656e6f756e636560448201527f20726f6c657320666f722073656c6600000000000000000000000000000000006064820152608401610849565b6109e48282611ea5565b336000818152600460209081526040808320600160a060020a03871684529091528120549091610acb918590610f1b908690612e42565b611a9c565b600254600160a060020a03163314610f4d5760405160e560020a62461bcd02815260040161084990612ce3565b8151610f5d9061ffff1682611ec7565b15610fad5760405160e560020a62461bcd02815260206004820152601b60248201527f456c656d656e742065786973747320696e2074686520617272617900000000006044820152606401610849565b60ff811615806110495750600a60009054906101000a9004600160a060020a0316600160a060020a031663a5d839f66040518163ffffffff1660e060020a02815260040160206040518083038186803b15801561100957600080fd5b505afa15801561101d573d6000803e3d6000fd5b505050506040513d601f19601f820116820180604052508101906110419190612a92565b825161ffff16105b6110985760405160e560020a62461bcd02815260206004820152601460248201527f4765617220646f6573206e6f74206578697374730000000000000000000000006044820152606401610849565b8060ff16600114806111365750600a60009054906101000a9004600160a060020a0316600160a060020a031663a33a48766040518163ffffffff1660e060020a02815260040160206040518083038186803b1580156110f657600080fd5b505afa15801561110a573d6000803e3d6000fd5b505050506040513d601f19601f8201168201806040525081019061112e9190612a92565b825161ffff16105b6111855760405160e560020a62461bcd02815260206004820152601460248201527f5261636520646f6573206e6f74206578697374730000000000000000000000006044820152606401610849565b60ff81166112095750600c805460018101825560009190915281517fdf6966c971051c3d54ec59162606531493a51404a002842f56009d7e5cf4a8c76002909202918201805461ffff191661ffff9092169190911790556020909101517fdf6966c971051c3d54ec59162606531493a51404a002842f56009d7e5cf4a8c890910155565b50600b805460018101825560009190915281517f0175b7a638427703f0dbe7bb9bbf987a2551717b34e79f33b5b1008d1fa01db96002909202918201805461ffff191661ffff9092169190911790556020909101517f0175b7a638427703f0dbe7bb9bbf987a2551717b34e79f33b5b1008d1fa01dba90910155565b6112af7f9f2df0fed2c77648de5860a4cc508cd0818c85b8b8a1ab4ceeef8d981c8956a63361158e565b6113245760405160e560020a62461bcd02815260206004820152602860248201527f457863657074696f6e3a206d7573742068617665206d696e74657220726f6c6560448201527f20746f206d696e740000000000000000000000000000000000000000000000006064820152608401610849565b6109e48282611f95565b6113587f3c11d16cbaffd01df69ce1c404f6340ee057498f5f00246190ea54220576a8483361158e565b6113775760405160e560020a62461bcd02815260040161084990612d18565b6113813382612077565b50565b600254600160a060020a031633146113b15760405160e560020a62461bcd02815260040161084990612ce3565b600a805473ffffffffffffffffffffffffffffffffffffffff1916600160a060020a0392909216919091179055565b600254600160a060020a0316331461140d5760405160e560020a62461bcd02815260040161084990612ce3565b6114176000612202565b565b600c818154811061142957600080fd5b60009182526020909120600290910201805460019091015461ffff909116915082565b600b5481106114705760405160e560020a62461bcd02815260040161084990612cac565b61149e30600b838154811061148757611487612f5e565b906000526020600020906002020160010154611729565b6114ed5760405160e560020a62461bcd02815260206004820152600d60248201527f5472616e73666572206661696c000000000000000000000000000000000000006044820152606401610849565b6114f56126c9565b600b828154811061150857611508612f5e565b6000918252602080832060029092029091015461ffff1683528201526008546040517fb36a43fd000000000000000000000000000000000000000000000000000000008152600160a060020a039091169063b36a43fd90610df89033908590600401612c00565b60008281526001602052604081206115879083612261565b9392505050565b600091825260208281526040808420600160a060020a0393909316845291905290205460ff1690565b606060078054610a3b90612ed3565b6115f07f3c11d16cbaffd01df69ce1c404f6340ee057498f5f00246190ea54220576a8483361158e565b61160f5760405160e560020a62461bcd02815260040161084990612d18565b6109e48282612077565b600254600160a060020a031633146116465760405160e560020a62461bcd02815260040161084990612ce3565b6008805473ffffffffffffffffffffffffffffffffffffffff1916600160a060020a0392909216919091179055565b336000908152600460209081526040808320600160a060020a0386168452909152812054828110156117125760405160e560020a62461bcd02815260206004820152602560248201527f45524332303a2064656372656173656420616c6c6f77616e63652062656c6f7760448201527f207a65726f0000000000000000000000000000000000000000000000000000006064820152608401610849565b61171f3385858403611a9c565b5060019392505050565b6000610acb338484611bfa565b61173e612703565b600c5460009083106117655760405160e560020a62461bcd02815260040161084990612c75565b600a54600c8054600160a060020a0390921691636b60266591908690811061178f5761178f612f5e565b600091825260209091206002909102015460405163ffffffff831660e060020a02815261ffff90911660048201526024016101006040518083038186803b1580156117d957600080fd5b505afa1580156117ed573d6000803e3d6000fd5b505050506040513d601f19601f820116820180604052508101906118119190612a07565b600c8481548110610c8457610c84612f5e565b6000818152600160205260408120610a269061226d565b6000828152602081905260409020600101546118578133611e1c565b610e548383611ea5565b600b818154811061142957600080fd5b600254600160a060020a0316331461189e5760405160e560020a62461bcd02815260040161084990612ce3565b6009805473ffffffffffffffffffffffffffffffffffffffff1916600160a060020a0392909216919091179055565b600060ff82166118df575050600c5490565b5050600b5490565b600254600160a060020a031633146119145760405160e560020a62461bcd02815260040161084990612ce3565b600160a060020a0381166119935760405160e560020a62461bcd02815260206004820152602660248201527f4f776e61626c653a206e6577206f776e657220697320746865207a65726f206160448201527f64647265737300000000000000000000000000000000000000000000000000006064820152608401610849565b61138181612202565b6119a6828261158e565b6109e457600082815260208181526040808320600160a060020a03851684529091529020805460ff191660011790556119dc3390565b600160a060020a031681600160a060020a0316837f2f8788117e7eff1d82e926ec794901d17c78024a50270940304540a733656f0d60405160405180910390a45050565b600061158783600160a060020a038416612277565b6000600160e060020a031982167f7965db0b000000000000000000000000000000000000000000000000000000001480610a2657507f01ffc9a700000000000000000000000000000000000000000000000000000000600160e060020a0319831614610a26565b600160a060020a038316611b1a5760405160e560020a62461bcd028152602060048201526024808201527f45524332303a20617070726f76652066726f6d20746865207a65726f2061646460448201527f72657373000000000000000000000000000000000000000000000000000000006064820152608401610849565b600160a060020a038216611b995760405160e560020a62461bcd02815260206004820152602260248201527f45524332303a20617070726f766520746f20746865207a65726f20616464726560448201527f73730000000000000000000000000000000000000000000000000000000000006064820152608401610849565b600160a060020a0383811660008181526004602090815260408083209487168084529482529182902085905590518481527f8c5be1e5ebec7d5bd14f71427d1e84f3dd0314c0f7b2291e5b200ac8c7c3b925910160405180910390a3505050565b600160a060020a038316611c795760405160e560020a62461bcd02815260206004820152602560248201527f45524332303a207472616e736665722066726f6d20746865207a65726f20616460448201527f64726573730000000000000000000000000000000000000000000000000000006064820152608401610849565b600160a060020a038216611cf85760405160e560020a62461bcd02815260206004820152602360248201527f45524332303a207472616e7366657220746f20746865207a65726f206164647260448201527f65737300000000000000000000000000000000000000000000000000000000006064820152608401610849565b600160a060020a03831660009081526003602052604090205481811015611d8a5760405160e560020a62461bcd02815260206004820152602660248201527f45524332303a207472616e7366657220616d6f756e742065786365656473206260448201527f616c616e636500000000000000000000000000000000000000000000000000006064820152608401610849565b600160a060020a03808516600090815260036020526040808220858503905591851681529081208054849290611dc1908490612e42565b9250508190555082600160a060020a031684600160a060020a03167fddf252ad1be2c89b69c2b068fc378daa952ba7f163c4a11628f55a4df523b3ef84604051611e0d91815260200190565b60405180910390a35b50505050565b611e26828261158e565b6109e457611e3e81600160a060020a031660146122c6565b611e498360206122c6565b604051602001611e5a929190612b49565b60408051601f198184030181529082905260e560020a62461bcd02825261084991600401612c62565b611e8d828261199c565b6000828152600160205260409020610e549082611a20565b611eaf8282612510565b6000828152600160205260409020610e549082612575565b600060ff8216611f335760005b600c54811015611f295783600c8281548110611ef257611ef2612f5e565b600091825260209091206002909102015461ffff161415611f17576001915050610a26565b80611f2181612f11565b915050611ed4565b5060009050610a26565b60005b600b54811015611f8b5783600b8281548110611f5457611f54612f5e565b600091825260209091206002909102015461ffff161415611f79576001915050610a26565b80611f8381612f11565b915050611f36565b5060009392505050565b600160a060020a038216611fee5760405160e560020a62461bcd02815260206004820152601f60248201527f45524332303a206d696e7420746f20746865207a65726f2061646472657373006044820152606401610849565b80600560008282546120009190612e42565b9091555050600160a060020a0382166000908152600360205260408120805483929061202d908490612e42565b9091555050604051818152600160a060020a038316906000907fddf252ad1be2c89b69c2b068fc378daa952ba7f163c4a11628f55a4df523b3ef9060200160405180910390a35050565b600160a060020a0382166120f65760405160e560020a62461bcd02815260206004820152602160248201527f45524332303a206275726e2066726f6d20746865207a65726f2061646472657360448201527f73000000000000000000000000000000000000000000000000000000000000006064820152608401610849565b600160a060020a038216600090815260036020526040902054818110156121885760405160e560020a62461bcd02815260206004820152602260248201527f45524332303a206275726e20616d6f756e7420657863656564732062616c616e60448201527f63650000000000000000000000000000000000000000000000000000000000006064820152608401610849565b600160a060020a03831660009081526003602052604081208383039055600580548492906121b7908490612e79565b9091555050604051828152600090600160a060020a038516907fddf252ad1be2c89b69c2b068fc378daa952ba7f163c4a11628f55a4df523b3ef9060200160405180910390a3505050565b60028054600160a060020a0383811673ffffffffffffffffffffffffffffffffffffffff19831681179093556040519116919082907f8be0079c531659141344cd1fd0a4f28419497f9722a3daafe3b4186f6b6457e090600090a35050565b6000611587838361258a565b6000610a26825490565b60008181526001830160205260408120546122be57508154600181810184556000848152602080822090930184905584548482528286019093526040902091909155610a26565b506000610a26565b606060006122d5836002612e5a565b6122e0906002612e42565b67ffffffffffffffff8111156122f8576122f8612f77565b6040519080825280601f01601f191660200182016040528015612322576020820181803683370190505b5090507f30000000000000000000000000000000000000000000000000000000000000008160008151811061235957612359612f5e565b60200101907effffffffffffffffffffffffffffffffffffffffffffffffffffffffffffff1916908160001a9053507f7800000000000000000000000000000000000000000000000000000000000000816001815181106123bc576123bc612f5e565b60200101907effffffffffffffffffffffffffffffffffffffffffffffffffffffffffffff1916908160001a90535060006123f8846002612e5a565b612403906001612e42565b90505b60018111156124be577f303132333435363738396162636465660000000000000000000000000000000085600f166010811061244457612444612f5e565b1a7f01000000000000000000000000000000000000000000000000000000000000000282828151811061247957612479612f5e565b60200101907effffffffffffffffffffffffffffffffffffffffffffffffffffffffffffff1916908160001a9053506010909404936124b781612ebc565b9050612406565b5083156115875760405160e560020a62461bcd02815260206004820181905260248201527f537472696e67733a20686578206c656e67746820696e73756666696369656e746044820152606401610849565b61251a828261158e565b156109e457600082815260208181526040808320600160a060020a0385168085529252808320805460ff1916905551339285917ff6391f5c32d9c69d2a47ea670b442974b53935d1edc7fd64eb21e047a839171b9190a45050565b600061158783600160a060020a0384166125b4565b60008260000182815481106125a1576125a1612f5e565b9060005260206000200154905092915050565b6000818152600183016020526040812054801561269d5760006125d8600183612e79565b85549091506000906125ec90600190612e79565b905081811461265157600086600001828154811061260c5761260c612f5e565b906000526020600020015490508087600001848154811061262f5761262f612f5e565b6000918252602080832090910192909255918252600188019052604090208390555b855486908061266257612662612f45565b600190038181906000526020600020016000905590558560010160008681526020019081526020016000206000905560019350505050610a26565b6000915050610a26565b6040518060400160405280600060ff1681526020016126c4612712565b905290565b6040518060c0016040528060008152602001600061ffff1681526020016000815260200160008152602001600081526020016126c4612712565b60405180602001604052806126c45b604080516101208101909152806126c46020820160088161010080368337509192915050565b8035600160a060020a038116811461274f57600080fd5b919050565b600061010080838503121561276857600080fd5b612770612dc5565b915083601f84011261278157600080fd5b60405181810181811067ffffffffffffffff821117156127a3576127a3612f77565b60405280848381018710156127b757600080fd5b600093505b60088410156127e55780516127d081612f90565b825260019390930192602091820191016127bc565b505082525092915050565b60006020828403121561280257600080fd5b61158782612738565b6000806040838503121561281e57600080fd5b61282783612738565b915061283560208401612738565b90509250929050565b60008060006060848603121561285357600080fd5b61285c84612738565b925061286a60208501612738565b9150604084013590509250925092565b6000806040838503121561288d57600080fd5b61289683612738565b946020939093013593505050565b6000602082840312156128b657600080fd5b5035919050565b600080604083850312156128d057600080fd5b8235915061283560208401612738565b600080604083850312156128f357600080fd5b50508035926020909101359150565b60006020828403121561291457600080fd5b8135600160e060020a03198116811461158757600080fd5b6000806040838503121561293f57600080fd5b823567ffffffffffffffff8082111561295757600080fd5b818501915085601f83011261296b57600080fd5b813560208282111561297f5761297f612f77565b612991601f8301601f19168201612e11565b925081835287818386010111156129a757600080fd5b8181850182850137600091830181019190915290969401359450505050565b600061012082840312156129d957600080fd5b6129e1612dee565b82516129ec81612fa0565b81526129fb8460208501612754565b60208201529392505050565b60006101008284031215612a1a57600080fd5b612a22612dc5565b612a2c8484612754565b81529392505050565b6000808284036060811215612a4957600080fd5b6040811215612a5757600080fd5b50612a60612dee565b8335612a6b81612f90565b81526020848101359082015291506040830135612a8781612fa0565b809150509250929050565b600060208284031215612aa457600080fd5b5051919050565b60008060408385031215612abe57600080fd5b823591506020830135612a8781612fa0565b600060208284031215612ae257600080fd5b813561158781612fa0565b60008151808452612b05816020860160208601612e90565b601f01601f19169290920160200192915050565b80518260005b6008811015612b4257825161ffff16825260209283019290910190600101612b1f565b5050505050565b7f416363657373436f6e74726f6c3a206163636f756e7420000000000000000000815260008351612b81816017850160208801612e90565b7f206973206d697373696e6720726f6c65200000000000000000000000000000006017918401918201528351612bbe816028840160208801612e90565b01602801949350505050565b600160a060020a0384168152606060208201526000612bec6060830185612aed565b905061ffff83166040830152949350505050565b60006101c082019050600160a060020a03841682528251602083015261ffff60208401511660408301526040830151606083015260608301516080830152608083015160a083015260a0830151612c5a60c0840182612b19565b509392505050565b6020815260006115876020830184612aed565b60208082526019908201527f496e646578206f7574206f6620726163657320626f756e647300000000000000604082015260600190565b6020808252601d908201527f496e646578206f7574206f662065717569706d656e7420626f756e6473000000604082015260600190565b6020808252818101527f4f776e61626c653a2063616c6c6572206973206e6f7420746865206f776e6572604082015260600190565b60208082526028908201527f457863657074696f6e3a206d7573742068617665206275726e657220726f6c6560408201527f20746f206275726e000000000000000000000000000000000000000000000000606082015260800190565b825160ff168152602080840151610140830191612d9490840182612b19565b50826101208301529392505050565b600061012082019050612db7828551612b19565b826101008301529392505050565b6040516020810167ffffffffffffffff81118282101715612de857612de8612f77565b60405290565b6040805190810167ffffffffffffffff81118282101715612de857612de8612f77565b604051601f8201601f1916810167ffffffffffffffff81118282101715612e3a57612e3a612f77565b604052919050565b60008219821115612e5557612e55612f2c565b500190565b6000816000190483118215151615612e7457612e74612f2c565b500290565b600082821015612e8b57612e8b612f2c565b500390565b60005b83811015612eab578181015183820152602001612e93565b83811115611e165750506000910152565b600081612ecb57612ecb612f2c565b506000190190565b600281046001821680612ee757607f821691505b60208210811415612f0b5760e060020a634e487b7102600052602260045260246000fd5b50919050565b6000600019821415612f2557612f25612f2c565b5060010190565b60e060020a634e487b7102600052601160045260246000fd5b60e060020a634e487b7102600052603160045260246000fd5b60e060020a634e487b7102600052603260045260246000fd5b60e060020a634e487b7102600052604160045260246000fd5b61ffff8116811461138157600080fd5b60ff8116811461138157600080fdfea2646970667358221220ce9af2f49b48e0a9319566888af89cf227155f3958f9393f34097b4cd6add1ff64736f6c63430008060033",
  "immutableReferences": {},
  "source": "//SPDX-License-Identifier: MIT\n\npragma solidity ^0.8.0;\n\nimport \"@openzeppelin/contracts/token/ERC20/ERC20.sol\";\nimport \"@openzeppelin/contracts/access/Ownable.sol\";\nimport \"@openzeppelin/contracts/access/AccessControlEnumerable.sol\";\nimport \"@openzeppelin/contracts/utils/Context.sol\";\n\nimport \"./Characters.sol\";\nimport \"./Equipment.sol\";\nimport \"./GameStats.sol\";\n\ncontract GameCoin is AccessControlEnumerable, Ownable, ERC20 {\n\n    //Equipment SC\n    Equipment private _equipment;\n    //Equipment SC\n    Characters private _character;\n    //Game Stats SC\n    GameStats private _gameStats;\n\n    bytes32 public constant MINTER_ROLE = keccak256(\"MINTER_ROLE\");\n    bytes32 public constant BURNER_ROLE = keccak256(\"BURNER_ROLE\");\n\n    //Gear offered in the stores\n    //Administrators may update, delete or modify the content\n    //The store should read this array and populate the store acording to it\n    //Elements are indexes of the equipment array of GameStats\n    struct StoreItem {\n        uint16 itemIndex;  //Index of the item, either equipment or race\n        uint256 price;      //Price in tokens or matic\n    }\n    StoreItem[] public storeGear;   //Equipment to sell\n    StoreItem[] public storeRaces;  //Races to sell\n\n    constructor(uint256 initialSupply) ERC20( \"Chains of Glory Token\", \"CGT\") {\n        _setupRole(DEFAULT_ADMIN_ROLE, _msgSender());\n\n        _setupRole(MINTER_ROLE, _msgSender());\n        _setupRole(BURNER_ROLE, _msgSender());\n\n        _mint(msg.sender, initialSupply);\n    }\n\n    function decimals() public pure override returns (uint8) {\n\t\treturn 0;\n\t}\n\n    function mint(address to, uint256 amount) public virtual {\n        require(hasRole(MINTER_ROLE, _msgSender()), \"Exception: must have minter role to mint\");\n        _mint(to, amount);\n    }\n\n    function burn(uint256 amount) public virtual {\n        require(hasRole(BURNER_ROLE, _msgSender()), \"Exception: must have burner role to burn\");\n        _burn(_msgSender(), amount);\n    }\n\n    function burn(address from, uint256 amount) public virtual {\n        require(hasRole(BURNER_ROLE, _msgSender()), \"Exception: must have burner role to burn\");\n        _burn(from, amount);\n    }\n\n    receive() external payable {}\n\n    function withdraw(uint amount) external onlyOwner {\n        payable(msg.sender).transfer(amount);\n    }\n\n    //GameToken Token Address\n    function setCharacterAddress(address characterAddress) public onlyOwner {\n        _character=Characters(characterAddress);\n    }\n    function setEquipmentAddress(address equipmentAddress) public onlyOwner {\n        _equipment=Equipment(equipmentAddress);\n    }\n\n    function setGameStatsAddress(address gameStatsAddress) public onlyOwner {\n        _gameStats=GameStats(gameStatsAddress);\n    }\n\n    //STORE FUNCTIONALITY\n    //\n    //Store is where the user pay in-game tokens for equipment\n\n    //Add an element to the store array\n    function addItemToStore(StoreItem memory item, uint8 class) public onlyOwner {\n        require(!itemExistsInStore(item.itemIndex, class), \"Element exists in the array\"); //Index of the item\n        require(class==0 || item.itemIndex<_gameStats.numEquipment(), \"Gear does not exists\");  //Index of the item\n        require(class==1 || item.itemIndex<_gameStats.numRaces(), \"Race does not exists\");\n        if(class==0)\n            storeRaces.push(item);\n        else\n            storeGear.push(item);\n    }\n\n    //Remove an element from the store array\n    function removeItemFromStore(uint256 index, uint8 class) public onlyOwner {\n        require(class==0 || index < storeGear.length, \"Index out of equipment bounds\");\n        require(class==1 || index < storeRaces.length, \"Index out of races bounds\");\n\n        if(class==0) {\n            storeRaces[index]= storeRaces[ storeRaces.length-1];\n            storeRaces.pop();\n        }            \n        else {            \n            storeGear[index]= storeGear[ storeGear.length-1];\n            storeGear.pop();\n        }            \n    }\n\n    //Returns especific item\n    function getItemLength(uint8 class) public view returns(uint256) {\n        if(class==0)\n            return storeRaces.length;\n\n        return storeGear.length;\n    }\n\n    //Returns especific item\n    function getEquipmentData(uint256 index) public view returns(GameStats.EquipmentItem memory equipment, uint256 price) {\n        require(index < storeGear.length, \"Index out of equipment bounds\");\n        return (_gameStats.equipmentAt(storeGear[index].itemIndex), storeGear[index].price);    //Index of the item\n    }\n\n    function getRaceData(uint256 index) public view returns(GameStats.RaceItem memory race, uint256 price) {\n        require(index < storeRaces.length, \"Index out of races bounds\");\n        return (_gameStats.raceAt(storeRaces[index].itemIndex), storeRaces[index].price);    //Index of the item\n    }\n\n    //Manages the purchase\n    function purchaseEquipment(uint256 index) public {\n        require(index < storeGear.length, \"Index out of equipment bounds\");        \n        require(transfer(address(this), storeGear[index].price), \"Transfer fail\");\n\n        Equipment.gearData memory gearData;\n        gearData.class=storeGear[index].itemIndex;  //Index of the item\n        gearData.level=0;\n\n        //Mint the gear to the payer\n        _equipment.mint(msg.sender, gearData);\n    }\n\n    function purchaseRace(string memory charName, uint256 index) external payable {\n        require(index < storeRaces.length, \"Index out of races bounds\");\n        require(msg.value>=storeRaces[index].price, \"Not enough funds sent!\");\n\n        //Mint the race to the payer\n        _character.mint(msg.sender, charName, storeRaces[index].itemIndex);\n    }\n\n    function itemExistsInStore(uint256 item, uint8 class) internal view returns (bool) {\n        if(class==0) {\n            for(uint256 i=0; i<storeRaces.length; i++)\n                if(storeRaces[i].itemIndex==item)\n                    return true;\n            return false;\n        }\n\n        for(uint256 i=0; i<storeGear.length; i++)\n            if(storeGear[i].itemIndex==item)    //Index of the item\n                return true;\n        return false;\n    }\n\n}",
  "sourcePath": "/home/javi/COG/contracts/GameCoin.sol",
  "compiler": {
    "name": "solc",
    "version": "0.8.6+commit.11564f7e.Emscripten.clang"
  },
  "schemaVersion": "3.4.3",
  "updatedAt": "2022-01-17T16:05:36.457Z",
  "networkType": "ethereum",
  "devdoc": {
    "kind": "dev",
    "methods": {
      "allowance(address,address)": {
        "details": "See {IERC20-allowance}."
      },
      "approve(address,uint256)": {
        "details": "See {IERC20-approve}. Requirements: - `spender` cannot be the zero address."
      },
      "balanceOf(address)": {
        "details": "See {IERC20-balanceOf}."
      },
      "decimals()": {
        "details": "Returns the number of decimals used to get its user representation. For example, if `decimals` equals `2`, a balance of `505` tokens should be displayed to a user as `5.05` (`505 / 10 ** 2`). Tokens usually opt for a value of 18, imitating the relationship between Ether and Wei. This is the value {ERC20} uses, unless this function is overridden; NOTE: This information is only used for _display_ purposes: it in no way affects any of the arithmetic of the contract, including {IERC20-balanceOf} and {IERC20-transfer}."
      },
      "decreaseAllowance(address,uint256)": {
        "details": "Atomically decreases the allowance granted to `spender` by the caller. This is an alternative to {approve} that can be used as a mitigation for problems described in {IERC20-approve}. Emits an {Approval} event indicating the updated allowance. Requirements: - `spender` cannot be the zero address. - `spender` must have allowance for the caller of at least `subtractedValue`."
      },
      "getRoleAdmin(bytes32)": {
        "details": "Returns the admin role that controls `role`. See {grantRole} and {revokeRole}. To change a role's admin, use {_setRoleAdmin}."
      },
      "getRoleMember(bytes32,uint256)": {
        "details": "Returns one of the accounts that have `role`. `index` must be a value between 0 and {getRoleMemberCount}, non-inclusive. Role bearers are not sorted in any particular way, and their ordering may change at any point. WARNING: When using {getRoleMember} and {getRoleMemberCount}, make sure you perform all queries on the same block. See the following https://forum.openzeppelin.com/t/iterating-over-elements-on-enumerableset-in-openzeppelin-contracts/2296[forum post] for more information."
      },
      "getRoleMemberCount(bytes32)": {
        "details": "Returns the number of accounts that have `role`. Can be used together with {getRoleMember} to enumerate all bearers of a role."
      },
      "grantRole(bytes32,address)": {
        "details": "Grants `role` to `account`. If `account` had not been already granted `role`, emits a {RoleGranted} event. Requirements: - the caller must have ``role``'s admin role."
      },
      "hasRole(bytes32,address)": {
        "details": "Returns `true` if `account` has been granted `role`."
      },
      "increaseAllowance(address,uint256)": {
        "details": "Atomically increases the allowance granted to `spender` by the caller. This is an alternative to {approve} that can be used as a mitigation for problems described in {IERC20-approve}. Emits an {Approval} event indicating the updated allowance. Requirements: - `spender` cannot be the zero address."
      },
      "name()": {
        "details": "Returns the name of the token."
      },
      "owner()": {
        "details": "Returns the address of the current owner."
      },
      "renounceOwnership()": {
        "details": "Leaves the contract without owner. It will not be possible to call `onlyOwner` functions anymore. Can only be called by the current owner. NOTE: Renouncing ownership will leave the contract without an owner, thereby removing any functionality that is only available to the owner."
      },
      "renounceRole(bytes32,address)": {
        "details": "Revokes `role` from the calling account. Roles are often managed via {grantRole} and {revokeRole}: this function's purpose is to provide a mechanism for accounts to lose their privileges if they are compromised (such as when a trusted device is misplaced). If the calling account had been revoked `role`, emits a {RoleRevoked} event. Requirements: - the caller must be `account`."
      },
      "revokeRole(bytes32,address)": {
        "details": "Revokes `role` from `account`. If `account` had been granted `role`, emits a {RoleRevoked} event. Requirements: - the caller must have ``role``'s admin role."
      },
      "supportsInterface(bytes4)": {
        "details": "See {IERC165-supportsInterface}."
      },
      "symbol()": {
        "details": "Returns the symbol of the token, usually a shorter version of the name."
      },
      "totalSupply()": {
        "details": "See {IERC20-totalSupply}."
      },
      "transfer(address,uint256)": {
        "details": "See {IERC20-transfer}. Requirements: - `recipient` cannot be the zero address. - the caller must have a balance of at least `amount`."
      },
      "transferFrom(address,address,uint256)": {
        "details": "See {IERC20-transferFrom}. Emits an {Approval} event indicating the updated allowance. This is not required by the EIP. See the note at the beginning of {ERC20}. Requirements: - `sender` and `recipient` cannot be the zero address. - `sender` must have a balance of at least `amount`. - the caller must have allowance for ``sender``'s tokens of at least `amount`."
      },
      "transferOwnership(address)": {
        "details": "Transfers ownership of the contract to a new account (`newOwner`). Can only be called by the current owner."
      }
    },
    "version": 1
  },
  "userdoc": {
    "kind": "user",
    "methods": {},
    "version": 1
  }
}