{
  "contractName": "GameStat",
  "abi": [
    {
      "inputs": [],
      "stateMutability": "nonpayable",
      "type": "constructor"
    },
    {
      "anonymous": false,
      "inputs": [
        {
          "indexed": true,
          "internalType": "address",
          "name": "previousOwner",
          "type": "address"
        },
        {
          "indexed": true,
          "internalType": "address",
          "name": "newOwner",
          "type": "address"
        }
      ],
      "name": "OwnershipTransferred",
      "type": "event"
    },
    {
      "anonymous": false,
      "inputs": [
        {
          "indexed": true,
          "internalType": "bytes32",
          "name": "role",
          "type": "bytes32"
        },
        {
          "indexed": true,
          "internalType": "bytes32",
          "name": "previousAdminRole",
          "type": "bytes32"
        },
        {
          "indexed": true,
          "internalType": "bytes32",
          "name": "newAdminRole",
          "type": "bytes32"
        }
      ],
      "name": "RoleAdminChanged",
      "type": "event"
    },
    {
      "anonymous": false,
      "inputs": [
        {
          "indexed": true,
          "internalType": "bytes32",
          "name": "role",
          "type": "bytes32"
        },
        {
          "indexed": true,
          "internalType": "address",
          "name": "account",
          "type": "address"
        },
        {
          "indexed": true,
          "internalType": "address",
          "name": "sender",
          "type": "address"
        }
      ],
      "name": "RoleGranted",
      "type": "event"
    },
    {
      "anonymous": false,
      "inputs": [
        {
          "indexed": true,
          "internalType": "bytes32",
          "name": "role",
          "type": "bytes32"
        },
        {
          "indexed": true,
          "internalType": "address",
          "name": "account",
          "type": "address"
        },
        {
          "indexed": true,
          "internalType": "address",
          "name": "sender",
          "type": "address"
        }
      ],
      "name": "RoleRevoked",
      "type": "event"
    },
    {
      "inputs": [],
      "name": "DEFAULT_ADMIN_ROLE",
      "outputs": [
        {
          "internalType": "bytes32",
          "name": "",
          "type": "bytes32"
        }
      ],
      "stateMutability": "view",
      "type": "function"
    },
    {
      "inputs": [],
      "name": "MASTER_ROLE",
      "outputs": [
        {
          "internalType": "bytes32",
          "name": "",
          "type": "bytes32"
        }
      ],
      "stateMutability": "view",
      "type": "function"
    },
    {
      "inputs": [
        {
          "internalType": "bytes32",
          "name": "role",
          "type": "bytes32"
        }
      ],
      "name": "getRoleAdmin",
      "outputs": [
        {
          "internalType": "bytes32",
          "name": "",
          "type": "bytes32"
        }
      ],
      "stateMutability": "view",
      "type": "function"
    },
    {
      "inputs": [
        {
          "internalType": "bytes32",
          "name": "role",
          "type": "bytes32"
        },
        {
          "internalType": "uint256",
          "name": "index",
          "type": "uint256"
        }
      ],
      "name": "getRoleMember",
      "outputs": [
        {
          "internalType": "address",
          "name": "",
          "type": "address"
        }
      ],
      "stateMutability": "view",
      "type": "function"
    },
    {
      "inputs": [
        {
          "internalType": "bytes32",
          "name": "role",
          "type": "bytes32"
        }
      ],
      "name": "getRoleMemberCount",
      "outputs": [
        {
          "internalType": "uint256",
          "name": "",
          "type": "uint256"
        }
      ],
      "stateMutability": "view",
      "type": "function"
    },
    {
      "inputs": [
        {
          "internalType": "bytes32",
          "name": "role",
          "type": "bytes32"
        },
        {
          "internalType": "address",
          "name": "account",
          "type": "address"
        }
      ],
      "name": "grantRole",
      "outputs": [],
      "stateMutability": "nonpayable",
      "type": "function"
    },
    {
      "inputs": [
        {
          "internalType": "bytes32",
          "name": "role",
          "type": "bytes32"
        },
        {
          "internalType": "address",
          "name": "account",
          "type": "address"
        }
      ],
      "name": "hasRole",
      "outputs": [
        {
          "internalType": "bool",
          "name": "",
          "type": "bool"
        }
      ],
      "stateMutability": "view",
      "type": "function"
    },
    {
      "inputs": [],
      "name": "owner",
      "outputs": [
        {
          "internalType": "address",
          "name": "",
          "type": "address"
        }
      ],
      "stateMutability": "view",
      "type": "function"
    },
    {
      "inputs": [],
      "name": "renounceOwnership",
      "outputs": [],
      "stateMutability": "nonpayable",
      "type": "function"
    },
    {
      "inputs": [
        {
          "internalType": "bytes32",
          "name": "role",
          "type": "bytes32"
        },
        {
          "internalType": "address",
          "name": "account",
          "type": "address"
        }
      ],
      "name": "renounceRole",
      "outputs": [],
      "stateMutability": "nonpayable",
      "type": "function"
    },
    {
      "inputs": [
        {
          "internalType": "bytes32",
          "name": "role",
          "type": "bytes32"
        },
        {
          "internalType": "address",
          "name": "account",
          "type": "address"
        }
      ],
      "name": "revokeRole",
      "outputs": [],
      "stateMutability": "nonpayable",
      "type": "function"
    },
    {
      "inputs": [
        {
          "internalType": "bytes4",
          "name": "interfaceId",
          "type": "bytes4"
        }
      ],
      "name": "supportsInterface",
      "outputs": [
        {
          "internalType": "bool",
          "name": "",
          "type": "bool"
        }
      ],
      "stateMutability": "view",
      "type": "function"
    },
    {
      "inputs": [
        {
          "internalType": "address",
          "name": "newOwner",
          "type": "address"
        }
      ],
      "name": "transferOwnership",
      "outputs": [],
      "stateMutability": "nonpayable",
      "type": "function"
    },
    {
      "inputs": [
        {
          "components": [
            {
              "internalType": "uint16[10]",
              "name": "values",
              "type": "uint16[10]"
            }
          ],
          "internalType": "struct GameStat.BaseStats",
          "name": "race",
          "type": "tuple"
        }
      ],
      "name": "addRace",
      "outputs": [],
      "stateMutability": "nonpayable",
      "type": "function"
    },
    {
      "inputs": [
        {
          "components": [
            {
              "internalType": "uint8",
              "name": "slot",
              "type": "uint8"
            },
            {
              "components": [
                {
                  "internalType": "uint16[10]",
                  "name": "values",
                  "type": "uint16[10]"
                }
              ],
              "internalType": "struct GameStat.BaseStats",
              "name": "stats",
              "type": "tuple"
            }
          ],
          "internalType": "struct GameStat.EquipmentItem",
          "name": "item",
          "type": "tuple"
        }
      ],
      "name": "addEquipment",
      "outputs": [],
      "stateMutability": "nonpayable",
      "type": "function"
    },
    {
      "inputs": [
        {
          "components": [
            {
              "internalType": "uint16[3]",
              "name": "values",
              "type": "uint16[3]"
            }
          ],
          "internalType": "struct GameStat.EnemyStats",
          "name": "enemmy",
          "type": "tuple"
        }
      ],
      "name": "addEnemies",
      "outputs": [],
      "stateMutability": "nonpayable",
      "type": "function"
    },
    {
      "inputs": [
        {
          "components": [
            {
              "internalType": "uint16[2]",
              "name": "values",
              "type": "uint16[2]"
            },
            {
              "internalType": "uint256",
              "name": "enemy",
              "type": "uint256"
            }
          ],
          "internalType": "struct GameStat.QuestStats",
          "name": "quest",
          "type": "tuple"
        }
      ],
      "name": "addQuest",
      "outputs": [],
      "stateMutability": "nonpayable",
      "type": "function"
    },
    {
      "inputs": [
        {
          "components": [
            {
              "internalType": "uint16[10]",
              "name": "values",
              "type": "uint16[10]"
            }
          ],
          "internalType": "struct GameStat.BaseStats",
          "name": "race",
          "type": "tuple"
        },
        {
          "internalType": "uint256",
          "name": "pos",
          "type": "uint256"
        }
      ],
      "name": "replaceRace",
      "outputs": [],
      "stateMutability": "nonpayable",
      "type": "function"
    },
    {
      "inputs": [
        {
          "components": [
            {
              "internalType": "uint8",
              "name": "slot",
              "type": "uint8"
            },
            {
              "components": [
                {
                  "internalType": "uint16[10]",
                  "name": "values",
                  "type": "uint16[10]"
                }
              ],
              "internalType": "struct GameStat.BaseStats",
              "name": "stats",
              "type": "tuple"
            }
          ],
          "internalType": "struct GameStat.EquipmentItem",
          "name": "item",
          "type": "tuple"
        },
        {
          "internalType": "uint256",
          "name": "pos",
          "type": "uint256"
        }
      ],
      "name": "replaceEquipment",
      "outputs": [],
      "stateMutability": "nonpayable",
      "type": "function"
    },
    {
      "inputs": [
        {
          "components": [
            {
              "internalType": "uint16[3]",
              "name": "values",
              "type": "uint16[3]"
            }
          ],
          "internalType": "struct GameStat.EnemyStats",
          "name": "enemy",
          "type": "tuple"
        },
        {
          "internalType": "uint256",
          "name": "pos",
          "type": "uint256"
        }
      ],
      "name": "replaceEnemy",
      "outputs": [],
      "stateMutability": "nonpayable",
      "type": "function"
    },
    {
      "inputs": [
        {
          "components": [
            {
              "internalType": "uint16[2]",
              "name": "values",
              "type": "uint16[2]"
            },
            {
              "internalType": "uint256",
              "name": "enemy",
              "type": "uint256"
            }
          ],
          "internalType": "struct GameStat.QuestStats",
          "name": "quest",
          "type": "tuple"
        },
        {
          "internalType": "uint256",
          "name": "pos",
          "type": "uint256"
        }
      ],
      "name": "replaceQuest",
      "outputs": [],
      "stateMutability": "nonpayable",
      "type": "function"
    },
    {
      "inputs": [],
      "name": "numRaces",
      "outputs": [
        {
          "internalType": "uint256",
          "name": "",
          "type": "uint256"
        }
      ],
      "stateMutability": "view",
      "type": "function"
    },
    {
      "inputs": [],
      "name": "numEquipment",
      "outputs": [
        {
          "internalType": "uint256",
          "name": "",
          "type": "uint256"
        }
      ],
      "stateMutability": "view",
      "type": "function"
    },
    {
      "inputs": [],
      "name": "numEnemies",
      "outputs": [
        {
          "internalType": "uint256",
          "name": "",
          "type": "uint256"
        }
      ],
      "stateMutability": "view",
      "type": "function"
    },
    {
      "inputs": [],
      "name": "numQuests",
      "outputs": [
        {
          "internalType": "uint256",
          "name": "",
          "type": "uint256"
        }
      ],
      "stateMutability": "view",
      "type": "function"
    },
    {
      "inputs": [
        {
          "internalType": "uint256",
          "name": "pos",
          "type": "uint256"
        }
      ],
      "name": "raceAt",
      "outputs": [
        {
          "components": [
            {
              "internalType": "uint16[10]",
              "name": "values",
              "type": "uint16[10]"
            }
          ],
          "internalType": "struct GameStat.BaseStats",
          "name": "race",
          "type": "tuple"
        }
      ],
      "stateMutability": "view",
      "type": "function"
    },
    {
      "inputs": [
        {
          "internalType": "uint256",
          "name": "pos",
          "type": "uint256"
        }
      ],
      "name": "equipmentAt",
      "outputs": [
        {
          "components": [
            {
              "internalType": "uint8",
              "name": "slot",
              "type": "uint8"
            },
            {
              "components": [
                {
                  "internalType": "uint16[10]",
                  "name": "values",
                  "type": "uint16[10]"
                }
              ],
              "internalType": "struct GameStat.BaseStats",
              "name": "stats",
              "type": "tuple"
            }
          ],
          "internalType": "struct GameStat.EquipmentItem",
          "name": "item",
          "type": "tuple"
        }
      ],
      "stateMutability": "view",
      "type": "function"
    },
    {
      "inputs": [
        {
          "internalType": "uint256",
          "name": "pos",
          "type": "uint256"
        }
      ],
      "name": "enemyAt",
      "outputs": [
        {
          "components": [
            {
              "internalType": "uint16[3]",
              "name": "values",
              "type": "uint16[3]"
            }
          ],
          "internalType": "struct GameStat.EnemyStats",
          "name": "enemy",
          "type": "tuple"
        }
      ],
      "stateMutability": "view",
      "type": "function"
    },
    {
      "inputs": [
        {
          "internalType": "uint256",
          "name": "pos",
          "type": "uint256"
        }
      ],
      "name": "questAt",
      "outputs": [
        {
          "components": [
            {
              "internalType": "uint16[2]",
              "name": "values",
              "type": "uint16[2]"
            },
            {
              "internalType": "uint256",
              "name": "enemy",
              "type": "uint256"
            }
          ],
          "internalType": "struct GameStat.QuestStats",
          "name": "quest",
          "type": "tuple"
        }
      ],
      "stateMutability": "view",
      "type": "function"
    }
  ],
  "bytecode": "0x60806040523480156200001157600080fd5b5062000038620000296401000000006200009e810204565b640100000000620000a2810204565b620000606000620000516401000000006200009e810204565b640100000000620000f4810204565b620000987f8b8c0776df2c2176edf6f82391c35ea4891146d7a976ee36fd07f1a6fb4ead4c620000516401000000006200009e810204565b620002b2565b3390565b60028054600160a060020a03838116600160a060020a0319831681179093556040519116919082907f8be0079c531659141344cd1fd0a4f28419497f9722a3daafe3b4186f6b6457e090600090a35050565b6200010982826401000000006200010d810204565b5050565b62000127828264010000000062000ddc6200015482021704565b60008281526001602052604090206200014f908264010000000062000e60620001f082021704565b505050565b62000169828264010000000062000219810204565b6200010957600082815260208181526040808320600160a060020a03851684529091529020805460ff19166001179055620001ac6401000000006200009e810204565b600160a060020a031681600160a060020a0316837f2f8788117e7eff1d82e926ec794901d17c78024a50270940304540a733656f0d60405160405180910390a45050565b60006200021083600160a060020a03841664010000000062000242810204565b90505b92915050565b600091825260208281526040808420600160a060020a0393909316845291905290205460ff1690565b60006200025983836401000000006200029a810204565b620002915750815460018181018455600084815260208082209093018490558454848252828601909352604090209190915562000213565b50600062000213565b60009081526001919091016020526040902054151590565b611d0080620002c26000396000f3fe608060405234801561001057600080fd5b50600436106101ec576000357c0100000000000000000000000000000000000000000000000000000000900480639010d07c11610121578063ca15c873116100bf578063e18664051161008e578063e186640514610405578063f2fde38b14610425578063fed3fdcc14610438578063ffa499c11461044b57600080fd5b8063ca15c873146103b7578063d547741f146103ca578063d999611d146103dd578063dc224863146103f057600080fd5b8063a217fddf116100fb578063a217fddf1461038c578063a33a487614610394578063a5d839f61461039c578063bc134dcb146103a457600080fd5b80639010d07c1461035357806391d14854146103665780639be48b221461037957600080fd5b80634faf35601161018e578063715018a611610168578063715018a614610300578063749880ee146103085780637a6d72f11461031b5780638da5cb5b1461032e57600080fd5b80634faf3560146102a057806355286d5c146102c05780636b602665146102e057600080fd5b806336568abe116101ca57806336568abe1461025f5780633fcfa98b1461027257806346afe05d1461027a578063485b5a8a1461028d57600080fd5b806301ffc9a7146101f1578063248a9ca3146102195780632f2ff15d1461024a575b600080fd5b6102046101ff36600461186d565b610453565b60405190151581526020015b60405180910390f35b61023c610227366004611806565b60009081526020819052604090206001015490565b604051908152602001610210565b61025d61025836600461181f565b610497565b005b61025d61026d36600461181f565b6104c2565b60065461023c565b61025d61028836600461198e565b610556565b61025d61029b366004611928565b6105da565b6102b36102ae366004611806565b610681565b6040516102109190611b05565b6102d36102ce366004611806565b610758565b6040516102109190611ace565b6102f36102ee366004611806565b61080a565b6040516102109190611abf565b61025d61089c565b61025d6103163660046118fd565b610905565b61025d610329366004611972565b61097a565b600254600160a060020a03165b604051600160a060020a039091168152602001610210565b61033b61036136600461184b565b6109ec565b61020461037436600461181f565b610a0b565b61025d610387366004611945565b610a34565b61023c600081565b60035461023c565b60045461023c565b61025d6103b23660046118b4565b610acc565b61023c6103c5366004611806565b610b39565b61025d6103d836600461181f565b610b50565b61025d6103eb3660046118e1565b610b76565b61023c600080516020611cab83398151915281565b610418610413366004611806565b610bda565b6040516102109190611b24565b61025d6104333660046117eb565b610c97565b61025d610446366004611897565b610d7f565b60055461023c565b6000600160e060020a031982167f5a05180f000000000000000000000000000000000000000000000000000000001480610491575061049182610e75565b92915050565b6000828152602081905260409020600101546104b38133610edc565b6104bd8383610f43565b505050565b600160a060020a03811633146105485760405160e560020a62461bcd02815260206004820152602f60248201527f416363657373436f6e74726f6c3a2063616e206f6e6c792072656e6f756e636560448201527f20726f6c657320666f722073656c66000000000000000000000000000000000060648201526084015b60405180910390fd5b6105528282610f65565b5050565b600080516020611cab83398151915261056f8133610edc565b60065482106105935760405160e560020a62461bcd02815260040161053f90611a88565b82600683815481106105a7576105a7611c78565b6000918252602090912082516002928302909101916105c7918391611433565b5060208201518160010155905050505050565b600080516020611cab8339815191526105f38133610edc565b6004805460018101825560009190915282517f8a35acfbc15ff81a39ae7d344fd709f28e8600b4aa8c65c6b64bfe7fe36bd19b6002909202918201805460ff191660ff9092169190911781556020840151805185937f8a35acfbc15ff81a39ae7d344fd709f28e8600b4aa8c65c6b64bfe7fe36bd19c0190610678908290600a611433565b50505050505050565b6106896114c9565b60045482106106ad5760405160e560020a62461bcd02815260040161053f90611a88565b600482815481106106c0576106c0611c78565b60009182526020918290206040805180820182526002909302909101805460ff168352815161016081019092529192838101919060018401908290810182600a8282826020028201916000905b82829054906101000a900461ffff1661ffff168152602001906002019060208260010104928301926001038202915080841161070d5790505050509190925250505090525092915050565b6107606114eb565b60055482106107845760405160e560020a62461bcd02815260040161053f90611a88565b6005828154811061079757610797611c78565b6000918252602080832060408051608081019182905294939091019284928301918491600391908390855b82829054906101000a900461ffff1661ffff16815260200190600201906020826001010492830192600103820291508084116107c25790505050505050815250509050919050565b6108126114fe565b60035482106108365760405160e560020a62461bcd02815260040161053f90611a88565b6003828154811061084957610849611c78565b600091825260209182902060408051610160810180835293909201805461ffff16948301948552919391928492918491600a91839060029087018084116107c25790505050505050815250509050919050565b600254600160a060020a031633146108f95760405160e560020a62461bcd02815260206004820181905260248201527f4f776e61626c653a2063616c6c6572206973206e6f7420746865206f776e6572604482015260640161053f565b6109036000610f87565b565b600080516020611cab83398151915261091e8133610edc565b60055482106109425760405160e560020a62461bcd02815260040161053f90611a88565b826005838154811061095657610956611c78565b6000918252602090912082519101906109729082906003611433565b505050505050565b600080516020611cab8339815191526109938133610edc565b600680546001810182556000919091528251839160029081027ff652222313e28459528d920b65115c16c04f3efc82aaedc97be59f3f377c0d3f01916109db91839190611433565b506020820151816001015550505050565b6000828152600160205260408120610a049083610fe6565b9392505050565b600091825260208281526040808420600160a060020a0393909316845291905290205460ff1690565b600080516020611cab833981519152610a4d8133610edc565b6004548210610a715760405160e560020a62461bcd02815260040161053f90611a88565b8260048381548110610a8557610a85611c78565b6000918252602091829020835160029290920201805460ff191660ff9092169190911781559082015180516001830190610ac2908290600a611433565b5050505050505050565b600080516020611cab833981519152610ae58133610edc565b6003548210610b095760405160e560020a62461bcd02815260040161053f90611a88565b8260038381548110610b1d57610b1d611c78565b600091825260209091208251910190610972908290600a611433565b600081815260016020526040812061049190610ff2565b600082815260208190526040902060010154610b6c8133610edc565b6104bd8383610f65565b600080516020611cab833981519152610b8f8133610edc565b60058054600181018255600091909152825183917f036b6384b5eca791c62761152d0c79bb0604c104a5fb6f4eb0703f3154bb3db00190610bd39082906003611433565b5050505050565b610be2611511565b6006548210610c065760405160e560020a62461bcd02815260040161053f90611a88565b60068281548110610c1957610c19611c78565b600091825260208220604080516080810180835290946002948502909301938593928401928592908390855b82829054906101000a900461ffff1661ffff1681526020019060020190602082600101049283019260010382029150808411610c45579050505050505081526020016001820154815250509050919050565b600254600160a060020a03163314610cf45760405160e560020a62461bcd02815260206004820181905260248201527f4f776e61626c653a2063616c6c6572206973206e6f7420746865206f776e6572604482015260640161053f565b600160a060020a038116610d735760405160e560020a62461bcd02815260206004820152602660248201527f4f776e61626c653a206e6577206f776e657220697320746865207a65726f206160448201527f6464726573730000000000000000000000000000000000000000000000000000606482015260840161053f565b610d7c81610f87565b50565b600080516020611cab833981519152610d988133610edc565b60038054600181018255600091909152825183917fc2575a0e9e593c00f959f8c92f12db2869c3395a3b0502d05e2516446f71f85b0190610bd3908290600a611433565b610de68282610a0b565b61055257600082815260208181526040808320600160a060020a03851684529091529020805460ff19166001179055610e1c3390565b600160a060020a031681600160a060020a0316837f2f8788117e7eff1d82e926ec794901d17c78024a50270940304540a733656f0d60405160405180910390a45050565b6000610a0483600160a060020a038416610ffc565b6000600160e060020a031982167f7965db0b00000000000000000000000000000000000000000000000000000000148061049157507f01ffc9a700000000000000000000000000000000000000000000000000000000600160e060020a0319831614610491565b610ee68282610a0b565b61055257610efe81600160a060020a0316601461104b565b610f0983602061104b565b604051602001610f1a9291906119d4565b60408051601f198184030181529082905260e560020a62461bcd02825261053f91600401611a55565b610f4d8282610ddc565b60008281526001602052604090206104bd9082610e60565b610f6f8282611295565b60008281526001602052604090206104bd90826112fa565b60028054600160a060020a0383811673ffffffffffffffffffffffffffffffffffffffff19831681179093556040519116919082907f8be0079c531659141344cd1fd0a4f28419497f9722a3daafe3b4186f6b6457e090600090a35050565b6000610a04838361130f565b6000610491825490565b600081815260018301602052604081205461104357508154600181810184556000848152602080822090930184905584548482528286019093526040902091909155610491565b506000610491565b6060600061105a836002611bc9565b611065906002611bb1565b67ffffffffffffffff81111561107d5761107d611c91565b6040519080825280601f01601f1916602001820160405280156110a7576020820181803683370190505b5090507f3000000000000000000000000000000000000000000000000000000000000000816000815181106110de576110de611c78565b60200101907effffffffffffffffffffffffffffffffffffffffffffffffffffffffffffff1916908160001a9053507f78000000000000000000000000000000000000000000000000000000000000008160018151811061114157611141611c78565b60200101907effffffffffffffffffffffffffffffffffffffffffffffffffffffffffffff1916908160001a905350600061117d846002611bc9565b611188906001611bb1565b90505b6001811115611243577f303132333435363738396162636465660000000000000000000000000000000085600f16601081106111c9576111c9611c78565b1a7f0100000000000000000000000000000000000000000000000000000000000000028282815181106111fe576111fe611c78565b60200101907effffffffffffffffffffffffffffffffffffffffffffffffffffffffffffff1916908160001a90535060109094049361123c81611c2f565b905061118b565b508315610a045760405160e560020a62461bcd02815260206004820181905260248201527f537472696e67733a20686578206c656e67746820696e73756666696369656e74604482015260640161053f565b61129f8282610a0b565b1561055257600082815260208181526040808320600160a060020a0385168085529252808320805460ff1916905551339285917ff6391f5c32d9c69d2a47ea670b442974b53935d1edc7fd64eb21e047a839171b9190a45050565b6000610a0483600160a060020a038416611339565b600082600001828154811061132657611326611c78565b9060005260206000200154905092915050565b6000818152600183016020526040812054801561142257600061135d600183611be8565b855490915060009061137190600190611be8565b90508181146113d657600086600001828154811061139157611391611c78565b90600052602060002001549050808760000184815481106113b4576113b4611c78565b6000918252602080832090910192909255918252600188019052604090208390555b85548690806113e7576113e7611c5f565b600190038181906000526020600020016000905590558560010160008681526020019081526020016000206000905560019350505050610491565b6000915050610491565b5092915050565b6001830191839082156114b95791602002820160005b8382111561148957835183826101000a81548161ffff021916908361ffff1602179055509260200192600201602081600101049283019260010302611449565b80156114b75782816101000a81549061ffff0219169055600201602081600101049283019260010302611489565b505b506114c5929150611531565b5090565b6040518060400160405280600060ff1681526020016114e66114fe565b905290565b60405180602001604052806114e6611546565b60405180602001604052806114e6611564565b6040518060400160405280611524611583565b8152602001600081525090565b5b808211156114c55760008155600101611532565b60405180606001604052806003906020820280368337509192915050565b604051806101400160405280600a906020820280368337509192915050565b60405180604001604052806002906020820280368337509192915050565b8035600160a060020a03811681146115b857600080fd5b919050565b60006101408083850312156115d157600080fd5b6115d9611b65565b915083601f8401126115ea57600080fd5b60405181810181811067ffffffffffffffff8211171561160c5761160c611c91565b604052808483810187101561162057600080fd5b600093505b600a84101561164c57611637816117d9565b82526001939093019260209182019101611625565b505082525092915050565b60006060828403121561166957600080fd5b611671611b65565b905082601f83011261168257600080fd5b6040516060810181811067ffffffffffffffff821117156116a5576116a5611c91565b6040528083606081018610156116ba57600080fd5b60005b60038110156116e4576116cf826117d9565b835260209283019291909101906001016116bd565b505050815292915050565b6000610160828403121561170257600080fd5b61170a611b8e565b9050813560ff8116811461171d57600080fd5b815261172c83602084016115bd565b602082015292915050565b60006060828403121561174957600080fd5b611751611b8e565b905082601f83011261176257600080fd5b6040516040810181811067ffffffffffffffff8211171561178557611785611c91565b80604052508083604085018681111561179d57600080fd5b60005b60028110156117c7576117b2836117d9565b845260209384019392909201916001016117a0565b50928452505035602082015292915050565b803561ffff811681146115b857600080fd5b6000602082840312156117fd57600080fd5b610a04826115a1565b60006020828403121561181857600080fd5b5035919050565b6000806040838503121561183257600080fd5b82359150611842602084016115a1565b90509250929050565b6000806040838503121561185e57600080fd5b50508035926020909101359150565b60006020828403121561187f57600080fd5b8135600160e060020a031981168114610a0457600080fd5b600061014082840312156118aa57600080fd5b610a0483836115bd565b60008061016083850312156118c857600080fd5b6118d284846115bd565b94610140939093013593505050565b6000606082840312156118f357600080fd5b610a048383611657565b6000806080838503121561191057600080fd5b61191a8484611657565b946060939093013593505050565b6000610160828403121561193b57600080fd5b610a0483836116ef565b600080610180838503121561195957600080fd5b61196384846116ef565b94610160939093013593505050565b60006060828403121561198457600080fd5b610a048383611737565b600080608083850312156119a157600080fd5b61191a8484611737565b80518260005b600a811015610bd357825161ffff168252602092830192909101906001016119b1565b7f416363657373436f6e74726f6c3a206163636f756e7420000000000000000000815260008351611a0c816017850160208801611bff565b7f206973206d697373696e6720726f6c65200000000000000000000000000000006017918401918201528351611a49816028840160208801611bff565b01602801949350505050565b6020815260008251806020840152611a74816040850160208701611bff565b601f01601f19169190910160400192915050565b6020808252601d908201527f457863657074696f6e3a20696e646578206f7574206f662072616e6765000000604082015260600190565b610140810161049182846119ab565b815160608201908260005b6003811015611afc57825161ffff16825260209283019290910190600101611ad9565b50505092915050565b815160ff16815260208083015161016083019161142c908401826119ab565b815160608201908260005b6002811015611b5257825161ffff16825260209283019290910190600101611b2f565b5050506020830151604083015292915050565b6040516020810167ffffffffffffffff81118282101715611b8857611b88611c91565b60405290565b6040805190810167ffffffffffffffff81118282101715611b8857611b88611c91565b60008219821115611bc457611bc4611c46565b500190565b6000816000190483118215151615611be357611be3611c46565b500290565b600082821015611bfa57611bfa611c46565b500390565b60005b83811015611c1a578181015183820152602001611c02565b83811115611c29576000848401525b50505050565b600081611c3e57611c3e611c46565b506000190190565b60e060020a634e487b7102600052601160045260246000fd5b60e060020a634e487b7102600052603160045260246000fd5b60e060020a634e487b7102600052603260045260246000fd5b60e060020a634e487b7102600052604160045260246000fdfe8b8c0776df2c2176edf6f82391c35ea4891146d7a976ee36fd07f1a6fb4ead4ca26469706673582212209eea5e77f5cf9589a395234b07f47e8ccdbede874f0003ad759978d2c1faf88e64736f6c63430008060033",
  "immutableReferences": {},
  "source": "//SPDX-License-Identifier: MIT\r\npragma solidity ^0.8.0;\r\n\r\nimport \"@openzeppelin/contracts/access/Ownable.sol\";\r\nimport \"@openzeppelin/contracts/access/AccessControlEnumerable.sol\";\r\n\r\n/*\r\nThis contracts contains all the relevan data of the Chains of Glory game\r\nWe may consider that it is acting as a database for the game.\r\n*/\r\ncontract GameStat is AccessControlEnumerable, Ownable {\r\n\r\n    //Roles of monter and burner\r\n    bytes32 public constant MASTER_ROLE = keccak256(\"MASTER_ROLE\");\r\n\r\n    //Stats shared by Characters and Equipment\r\n    struct BaseStats {\r\n        uint16[10] values;\r\n        // 0 - Health   Base life of character\r\n        // 1 - Vitality Increase Health in Vitality * 3\r\n        // 2 - Attack   Hit points\r\n        // 3 - Defense  Reduce each enemy hit in 'defense' points\r\n        // 4 - Mastery  % Reduce mission time (50 reduces to half)\r\n        // 5 - Speed    % Reduce travel time (50 reduces to half)\r\n        // 6 - Luck     % drop chance\r\n        // 7 - Faith    Increases health, attack and deffense\r\n    }\r\n\r\n    struct EquipmentItem {\r\n        uint8       slot;   // 0-Wildcard 1-Head 2-Neck 3-Chest 4-Belt 5-Legs 6-Feet 7-Arms \r\n                            // 8-RHand (weapon) 9-LHand(complement) 10-Finger 11-Mount\r\n        BaseStats   stats;  //Base stats of the item\r\n    }\r\n\r\n    struct EnemyStats {\r\n        uint16[3]   values;\r\n        // 0 - Health   Base life of enemies\r\n        // 1 - Attack   Hit points\r\n        // 2 - Defense  Reduce each player hit in 'defense' points\r\n    }\r\n\r\n    struct QuestStats {\r\n        uint16[2]   values;\r\n        // 0 - Distance  Time to complete the trip to the quest place\r\n        // 1 - Time  Standard time to complete the mission\r\n        uint256     enemy;\r\n    }\r\n\r\n    BaseStats[] races;\r\n    EquipmentItem[] equipment;\r\n    EnemyStats[] enemies;\r\n    QuestStats[] quests;\r\n\r\n    constructor() {\r\n        _setupRole(DEFAULT_ADMIN_ROLE, _msgSender());\r\n        _setupRole(MASTER_ROLE, _msgSender());\r\n    }\r\n\r\n    function addRace(BaseStats memory race) public onlyRole(MASTER_ROLE) {\r\n        races.push(race);\r\n    }\r\n\r\n    function addEquipment(EquipmentItem memory item) public onlyRole(MASTER_ROLE) {\r\n        equipment.push(item);\r\n    }\r\n\r\n    function addEnemies(EnemyStats memory enemmy) public onlyRole(MASTER_ROLE) {\r\n        enemies.push(enemmy);\r\n    }\r\n    \r\n    function addQuest(QuestStats memory quest) public onlyRole(MASTER_ROLE) {        \r\n        quests.push(quest);\r\n    }\r\n\r\n    function replaceRace(BaseStats memory race, uint pos) public onlyRole(MASTER_ROLE) {\r\n        require(pos<races.length, \"Exception: index out of range\");\r\n        races[pos]= race;\r\n    }\r\n    \r\n    function replaceEquipment(EquipmentItem memory item, uint pos) public onlyRole(MASTER_ROLE) {\r\n        require(pos<equipment.length, \"Exception: index out of range\");\r\n        equipment[pos]= item;\r\n    }\r\n\r\n    function replaceEnemy(EnemyStats memory enemy, uint pos) public onlyRole(MASTER_ROLE) {\r\n        require(pos<enemies.length, \"Exception: index out of range\");\r\n        enemies[pos]= enemy;\r\n    }\r\n    \r\n    function replaceQuest(QuestStats memory quest, uint pos) public onlyRole(MASTER_ROLE) {\r\n        require(pos<quests.length, \"Exception: index out of range\");\r\n        quests[pos]= quest;\r\n    }\r\n\r\n    function numRaces() public view returns (uint256) {\r\n        return races.length;\r\n    }\r\n    \r\n    function numEquipment() public view returns (uint256) {\r\n        return equipment.length;\r\n    }\r\n\r\n    function numEnemies() public view returns (uint256) {\r\n        return enemies.length;\r\n    }\r\n\r\n    function numQuests() public view returns (uint256) {\r\n        return quests.length;\r\n    }\r\n\r\n    function raceAt(uint256 pos) public view returns (BaseStats memory race) {\r\n        require(pos<races.length, \"Exception: index out of range\");\r\n        return races[pos];\r\n    }\r\n\r\n    function equipmentAt(uint256 pos) public view returns (EquipmentItem memory item) {\r\n        require(pos<equipment.length, \"Exception: index out of range\");\r\n        return equipment[pos];\r\n    }\r\n\r\n    function enemyAt(uint256 pos) public view returns (EnemyStats memory enemy) {\r\n        require(pos<enemies.length, \"Exception: index out of range\");\r\n        return enemies[pos];\r\n    }\r\n\r\n    function questAt(uint256 pos) public view returns (QuestStats memory quest) {\r\n        require(pos<quests.length, \"Exception: index out of range\");\r\n        return quests[pos];\r\n    }\r\n}",
  "sourcePath": "/home/javi/COG/contracts/GameStats.sol",
  "compiler": {
    "name": "solc",
    "version": "0.8.6+commit.11564f7e.Emscripten.clang"
  },
  "schemaVersion": "3.4.3",
  "updatedAt": "2022-01-12T17:29:53.910Z",
  "devdoc": {
    "kind": "dev",
    "methods": {
      "getRoleAdmin(bytes32)": {
        "details": "Returns the admin role that controls `role`. See {grantRole} and {revokeRole}. To change a role's admin, use {_setRoleAdmin}."
      },
      "getRoleMember(bytes32,uint256)": {
        "details": "Returns one of the accounts that have `role`. `index` must be a value between 0 and {getRoleMemberCount}, non-inclusive. Role bearers are not sorted in any particular way, and their ordering may change at any point. WARNING: When using {getRoleMember} and {getRoleMemberCount}, make sure you perform all queries on the same block. See the following https://forum.openzeppelin.com/t/iterating-over-elements-on-enumerableset-in-openzeppelin-contracts/2296[forum post] for more information."
      },
      "getRoleMemberCount(bytes32)": {
        "details": "Returns the number of accounts that have `role`. Can be used together with {getRoleMember} to enumerate all bearers of a role."
      },
      "grantRole(bytes32,address)": {
        "details": "Grants `role` to `account`. If `account` had not been already granted `role`, emits a {RoleGranted} event. Requirements: - the caller must have ``role``'s admin role."
      },
      "hasRole(bytes32,address)": {
        "details": "Returns `true` if `account` has been granted `role`."
      },
      "owner()": {
        "details": "Returns the address of the current owner."
      },
      "renounceOwnership()": {
        "details": "Leaves the contract without owner. It will not be possible to call `onlyOwner` functions anymore. Can only be called by the current owner. NOTE: Renouncing ownership will leave the contract without an owner, thereby removing any functionality that is only available to the owner."
      },
      "renounceRole(bytes32,address)": {
        "details": "Revokes `role` from the calling account. Roles are often managed via {grantRole} and {revokeRole}: this function's purpose is to provide a mechanism for accounts to lose their privileges if they are compromised (such as when a trusted device is misplaced). If the calling account had been revoked `role`, emits a {RoleRevoked} event. Requirements: - the caller must be `account`."
      },
      "revokeRole(bytes32,address)": {
        "details": "Revokes `role` from `account`. If `account` had been granted `role`, emits a {RoleRevoked} event. Requirements: - the caller must have ``role``'s admin role."
      },
      "supportsInterface(bytes4)": {
        "details": "See {IERC165-supportsInterface}."
      },
      "transferOwnership(address)": {
        "details": "Transfers ownership of the contract to a new account (`newOwner`). Can only be called by the current owner."
      }
    },
    "version": 1
  },
  "userdoc": {
    "kind": "user",
    "methods": {},
    "version": 1
  }
}