{
  "contractName": "Quest",
  "abi": [
    {
      "anonymous": false,
      "inputs": [
        {
          "indexed": true,
          "internalType": "address",
          "name": "previousOwner",
          "type": "address"
        },
        {
          "indexed": true,
          "internalType": "address",
          "name": "newOwner",
          "type": "address"
        }
      ],
      "name": "OwnershipTransferred",
      "type": "event"
    },
    {
      "anonymous": false,
      "inputs": [
        {
          "indexed": true,
          "internalType": "bytes32",
          "name": "role",
          "type": "bytes32"
        },
        {
          "indexed": true,
          "internalType": "bytes32",
          "name": "previousAdminRole",
          "type": "bytes32"
        },
        {
          "indexed": true,
          "internalType": "bytes32",
          "name": "newAdminRole",
          "type": "bytes32"
        }
      ],
      "name": "RoleAdminChanged",
      "type": "event"
    },
    {
      "anonymous": false,
      "inputs": [
        {
          "indexed": true,
          "internalType": "bytes32",
          "name": "role",
          "type": "bytes32"
        },
        {
          "indexed": true,
          "internalType": "address",
          "name": "account",
          "type": "address"
        },
        {
          "indexed": true,
          "internalType": "address",
          "name": "sender",
          "type": "address"
        }
      ],
      "name": "RoleGranted",
      "type": "event"
    },
    {
      "anonymous": false,
      "inputs": [
        {
          "indexed": true,
          "internalType": "bytes32",
          "name": "role",
          "type": "bytes32"
        },
        {
          "indexed": true,
          "internalType": "address",
          "name": "account",
          "type": "address"
        },
        {
          "indexed": true,
          "internalType": "address",
          "name": "sender",
          "type": "address"
        }
      ],
      "name": "RoleRevoked",
      "type": "event"
    },
    {
      "inputs": [],
      "name": "DEFAULT_ADMIN_ROLE",
      "outputs": [
        {
          "internalType": "bytes32",
          "name": "",
          "type": "bytes32"
        }
      ],
      "stateMutability": "view",
      "type": "function",
      "constant": true
    },
    {
      "inputs": [
        {
          "internalType": "uint256",
          "name": "",
          "type": "uint256"
        }
      ],
      "name": "allQuests",
      "outputs": [
        {
          "internalType": "uint256",
          "name": "",
          "type": "uint256"
        }
      ],
      "stateMutability": "view",
      "type": "function",
      "constant": true
    },
    {
      "inputs": [],
      "name": "combatLoops",
      "outputs": [
        {
          "internalType": "uint256",
          "name": "",
          "type": "uint256"
        }
      ],
      "stateMutability": "view",
      "type": "function",
      "constant": true
    },
    {
      "inputs": [
        {
          "internalType": "bytes32",
          "name": "role",
          "type": "bytes32"
        }
      ],
      "name": "getRoleAdmin",
      "outputs": [
        {
          "internalType": "bytes32",
          "name": "",
          "type": "bytes32"
        }
      ],
      "stateMutability": "view",
      "type": "function",
      "constant": true
    },
    {
      "inputs": [
        {
          "internalType": "bytes32",
          "name": "role",
          "type": "bytes32"
        },
        {
          "internalType": "uint256",
          "name": "index",
          "type": "uint256"
        }
      ],
      "name": "getRoleMember",
      "outputs": [
        {
          "internalType": "address",
          "name": "",
          "type": "address"
        }
      ],
      "stateMutability": "view",
      "type": "function",
      "constant": true
    },
    {
      "inputs": [
        {
          "internalType": "bytes32",
          "name": "role",
          "type": "bytes32"
        }
      ],
      "name": "getRoleMemberCount",
      "outputs": [
        {
          "internalType": "uint256",
          "name": "",
          "type": "uint256"
        }
      ],
      "stateMutability": "view",
      "type": "function",
      "constant": true
    },
    {
      "inputs": [
        {
          "internalType": "bytes32",
          "name": "role",
          "type": "bytes32"
        },
        {
          "internalType": "address",
          "name": "account",
          "type": "address"
        }
      ],
      "name": "grantRole",
      "outputs": [],
      "stateMutability": "nonpayable",
      "type": "function"
    },
    {
      "inputs": [
        {
          "internalType": "bytes32",
          "name": "role",
          "type": "bytes32"
        },
        {
          "internalType": "address",
          "name": "account",
          "type": "address"
        }
      ],
      "name": "hasRole",
      "outputs": [
        {
          "internalType": "bool",
          "name": "",
          "type": "bool"
        }
      ],
      "stateMutability": "view",
      "type": "function",
      "constant": true
    },
    {
      "inputs": [],
      "name": "owner",
      "outputs": [
        {
          "internalType": "address",
          "name": "",
          "type": "address"
        }
      ],
      "stateMutability": "view",
      "type": "function",
      "constant": true
    },
    {
      "inputs": [],
      "name": "renounceOwnership",
      "outputs": [],
      "stateMutability": "nonpayable",
      "type": "function"
    },
    {
      "inputs": [
        {
          "internalType": "bytes32",
          "name": "role",
          "type": "bytes32"
        },
        {
          "internalType": "address",
          "name": "account",
          "type": "address"
        }
      ],
      "name": "renounceRole",
      "outputs": [],
      "stateMutability": "nonpayable",
      "type": "function"
    },
    {
      "inputs": [
        {
          "internalType": "bytes32",
          "name": "role",
          "type": "bytes32"
        },
        {
          "internalType": "address",
          "name": "account",
          "type": "address"
        }
      ],
      "name": "revokeRole",
      "outputs": [],
      "stateMutability": "nonpayable",
      "type": "function"
    },
    {
      "inputs": [
        {
          "internalType": "bytes4",
          "name": "interfaceId",
          "type": "bytes4"
        }
      ],
      "name": "supportsInterface",
      "outputs": [
        {
          "internalType": "bool",
          "name": "",
          "type": "bool"
        }
      ],
      "stateMutability": "view",
      "type": "function",
      "constant": true
    },
    {
      "inputs": [
        {
          "internalType": "address",
          "name": "newOwner",
          "type": "address"
        }
      ],
      "name": "transferOwnership",
      "outputs": [],
      "stateMutability": "nonpayable",
      "type": "function"
    },
    {
      "inputs": [
        {
          "internalType": "uint256",
          "name": "newLoops",
          "type": "uint256"
        }
      ],
      "name": "setCombatLoops",
      "outputs": [],
      "stateMutability": "nonpayable",
      "type": "function"
    },
    {
      "inputs": [
        {
          "internalType": "uint256",
          "name": "spread",
          "type": "uint256"
        }
      ],
      "name": "setRandomSpread",
      "outputs": [],
      "stateMutability": "nonpayable",
      "type": "function"
    },
    {
      "inputs": [
        {
          "internalType": "address",
          "name": "equipment",
          "type": "address"
        }
      ],
      "name": "setEquipmentAddress",
      "outputs": [],
      "stateMutability": "nonpayable",
      "type": "function"
    },
    {
      "inputs": [
        {
          "internalType": "address",
          "name": "characters",
          "type": "address"
        }
      ],
      "name": "setCharactersAddress",
      "outputs": [],
      "stateMutability": "nonpayable",
      "type": "function"
    },
    {
      "inputs": [
        {
          "internalType": "address",
          "name": "gameCoin",
          "type": "address"
        }
      ],
      "name": "setGameCoinsAddress",
      "outputs": [],
      "stateMutability": "nonpayable",
      "type": "function"
    },
    {
      "inputs": [
        {
          "internalType": "address",
          "name": "gameStats",
          "type": "address"
        }
      ],
      "name": "setGameStatsAddress",
      "outputs": [],
      "stateMutability": "nonpayable",
      "type": "function"
    },
    {
      "inputs": [
        {
          "internalType": "uint256",
          "name": "lvl",
          "type": "uint256"
        },
        {
          "internalType": "uint256[]",
          "name": "matrixValues",
          "type": "uint256[]"
        }
      ],
      "name": "setMaxLevel",
      "outputs": [],
      "stateMutability": "nonpayable",
      "type": "function"
    },
    {
      "inputs": [],
      "name": "getMatrix",
      "outputs": [
        {
          "internalType": "uint256[]",
          "name": "",
          "type": "uint256[]"
        }
      ],
      "stateMutability": "view",
      "type": "function",
      "constant": true
    },
    {
      "inputs": [
        {
          "internalType": "uint256",
          "name": "questIndex",
          "type": "uint256"
        }
      ],
      "name": "addQuest",
      "outputs": [],
      "stateMutability": "nonpayable",
      "type": "function"
    },
    {
      "inputs": [
        {
          "internalType": "uint256",
          "name": "idQuest",
          "type": "uint256"
        }
      ],
      "name": "forceRecalculateStats",
      "outputs": [],
      "stateMutability": "view",
      "type": "function",
      "constant": true
    },
    {
      "inputs": [
        {
          "internalType": "uint256",
          "name": "index",
          "type": "uint256"
        }
      ],
      "name": "removeQuest",
      "outputs": [],
      "stateMutability": "nonpayable",
      "type": "function"
    },
    {
      "inputs": [],
      "name": "getQuestLength",
      "outputs": [
        {
          "internalType": "uint256",
          "name": "",
          "type": "uint256"
        }
      ],
      "stateMutability": "view",
      "type": "function",
      "constant": true
    },
    {
      "inputs": [
        {
          "internalType": "uint256",
          "name": "index",
          "type": "uint256"
        }
      ],
      "name": "getQuestData",
      "outputs": [
        {
          "internalType": "uint256",
          "name": "",
          "type": "uint256"
        }
      ],
      "stateMutability": "view",
      "type": "function",
      "constant": true
    },
    {
      "inputs": [
        {
          "internalType": "uint256",
          "name": "idQuest",
          "type": "uint256"
        },
        {
          "internalType": "uint256",
          "name": "idPlayer",
          "type": "uint256"
        },
        {
          "internalType": "uint256",
          "name": "questLevel",
          "type": "uint256"
        }
      ],
      "name": "playQuest",
      "outputs": [
        {
          "components": [
            {
              "internalType": "uint256",
              "name": "quest",
              "type": "uint256"
            },
            {
              "internalType": "uint256",
              "name": "level",
              "type": "uint256"
            },
            {
              "components": [
                {
                  "internalType": "string",
                  "name": "name",
                  "type": "string"
                },
                {
                  "internalType": "uint16",
                  "name": "race",
                  "type": "uint16"
                },
                {
                  "internalType": "uint16",
                  "name": "level",
                  "type": "uint16"
                },
                {
                  "internalType": "uint256[11]",
                  "name": "gear",
                  "type": "uint256[11]"
                },
                {
                  "internalType": "uint256",
                  "name": "timeLock",
                  "type": "uint256"
                },
                {
                  "internalType": "uint256",
                  "name": "lastCache",
                  "type": "uint256"
                },
                {
                  "components": [
                    {
                      "internalType": "uint16[8]",
                      "name": "values",
                      "type": "uint16[8]"
                    }
                  ],
                  "internalType": "struct GameStats.BaseStats",
                  "name": "cachedStats",
                  "type": "tuple"
                }
              ],
              "internalType": "struct Characters.charData",
              "name": "playerFinalStats",
              "type": "tuple"
            },
            {
              "internalType": "uint256",
              "name": "playerHealth",
              "type": "uint256"
            },
            {
              "internalType": "uint256",
              "name": "questHealth",
              "type": "uint256"
            },
            {
              "internalType": "uint256[20]",
              "name": "hits",
              "type": "uint256[20]"
            }
          ],
          "internalType": "struct Quest.combat",
          "name": "",
          "type": "tuple"
        }
      ],
      "stateMutability": "nonpayable",
      "type": "function"
    }
  ],
  "bytecode": "0x6080604052600a60035560146004556000600c5534801561001f57600080fd5b50610042610034640100000000610047810204565b64010000000061004b810204565b61009d565b3390565b60028054600160a060020a03838116600160a060020a0319831681179093556040519116919082907f8be0079c531659141344cd1fd0a4f28419497f9722a3daafe3b4186f6b6457e090600090a35050565b6118f2806100ac6000396000f3fe608060405234801561001057600080fd5b50600436106101e1576000357c0100000000000000000000000000000000000000000000000000000000900480638da5cb5b11610116578063b7bcbae6116100b4578063ca15c8731161008e578063ca15c873146103d9578063d547741f146103ec578063ee1468b4146103ff578063f2fde38b1461041257600080fd5b8063b7bcbae61461039d578063b7eed4dc146103a6578063c67f8631146103b957600080fd5b806391d14854116100f057806391d148541461035c578063a217fddf1461036f578063a2846ad414610377578063b3d0c9881461038a57600080fd5b80638da5cb5b146103115780638e5208e5146103365780639010d07c1461034957600080fd5b8063520923a31161018357806369204f351161015d57806369204f35146102db578063715018a6146102e357806376a66e8d146102eb57806383983889146102fe57600080fd5b8063520923a3146102a057806352bded47146102b35780635ad3a0a8146102c657600080fd5b8063248a9ca3116101bf578063248a9ca3146102365780632f2ff15d1461026757806336568abe1461027a5780634bdeaad51461028d57600080fd5b806301ffc9a7146101e65780631ca4d41c1461020e578063233af30614610223575b600080fd5b6101f96101f4366004611428565b610425565b60405190151581526020015b60405180910390f35b61022161021c3660046113c1565b610469565b005b6102216102313660046113c1565b610567565b6102596102443660046113c1565b60009081526020819052604090206001015490565b604051908152602001610205565b6102216102753660046113da565b610599565b6102216102883660046113da565b6105c4565b61022161029b3660046113c1565b610653565b6102216102ae3660046113a6565b610685565b6102216102c13660046113a6565b6106e1565b6102ce61073d565b6040516102059190611677565b600554610259565b610221610795565b6102216102f9366004611452565b6107ce565b61025961030c3660046113c1565b6108b2565b600254600160a060020a03165b604051600160a060020a039091168152602001610205565b6102596103443660046113c1565b6108d9565b61031e610357366004611406565b6108fa565b6101f961036a3660046113da565b610919565b610259600081565b6102216103853660046113a6565b610942565b6102216103983660046113c1565b61099e565b61025960035481565b6102216103b43660046113a6565b610a22565b6103cc6103c7366004611522565b610a7e565b6040516102059190611703565b6102596103e73660046113c1565b610a96565b6102216103fa3660046113da565b610aad565b61022161040d3660046113c1565b610ad3565b6102216104203660046113a6565b610b35565b6000600160e060020a031982167f5a05180f000000000000000000000000000000000000000000000000000000001480610463575061046382610bea565b92915050565b600254600160a060020a0316331461049f5760405160e560020a62461bcd028152600401610496906116ce565b60405180910390fd5b60055481106104f35760405160e560020a62461bcd02815260206004820152601360248201527f496e646578206f7574206f6620626f756e6473000000000000000000000000006044820152606401610496565b60058054610503906001906117fe565b815481106105135761051361188a565b9060005260206000200154600582815481106105315761053161188a565b600091825260209091200155600580548061054e5761054e611871565b6001900381819060005260206000200160009055905550565b600254600160a060020a031633146105945760405160e560020a62461bcd028152600401610496906116ce565b600455565b6000828152602081905260409020600101546105b58133610c51565b6105bf8383610cb8565b505050565b600160a060020a03811633146106455760405160e560020a62461bcd02815260206004820152602f60248201527f416363657373436f6e74726f6c3a2063616e206f6e6c792072656e6f756e636560448201527f20726f6c657320666f722073656c6600000000000000000000000000000000006064820152608401610496565b61064f8282610cda565b5050565b600254600160a060020a031633146106805760405160e560020a62461bcd028152600401610496906116ce565b600355565b600254600160a060020a031633146106b25760405160e560020a62461bcd028152600401610496906116ce565b6009805473ffffffffffffffffffffffffffffffffffffffff1916600160a060020a0392909216919091179055565b600254600160a060020a0316331461070e5760405160e560020a62461bcd028152600401610496906116ce565b600b805473ffffffffffffffffffffffffffffffffffffffff1916600160a060020a0392909216919091179055565b6060600780548060200260200160405190810160405280929190818152602001828054801561078b57602002820191906000526020600020905b815481526020019060010190808311610777575b5050505050905090565b600254600160a060020a031633146107c25760405160e560020a62461bcd028152600401610496906116ce565b6107cc6000610cfc565b565b600254600160a060020a031633146107fb5760405160e560020a62461bcd028152600401610496906116ce565b8051821461089a5760405160e560020a62461bcd02815260206004820152604860248201527f457863657074696f6e3a206d7573742070726f766964652061206d617472697860448201527f206f662076616c756573206f66207468652073616d65206c656e67687420746860648201527f616e206c6576656c000000000000000000000000000000000000000000000000608482015260a401610496565b600682905580516105bf90600790602084019061123a565b6000600582815481106108c7576108c761188a565b90600052602060002001549050919050565b600581815481106108e957600080fd5b600091825260209091200154905081565b60008281526001602052604081206109129083610d5b565b9392505050565b600091825260208281526040808420600160a060020a0393909316845291905290205460ff1690565b600254600160a060020a0316331461096f5760405160e560020a62461bcd028152600401610496906116ce565b6008805473ffffffffffffffffffffffffffffffffffffffff1916600160a060020a0392909216919091179055565b600254600160a060020a031633146109cb5760405160e560020a62461bcd028152600401610496906116ce565b6005548110610a1f5760405160e560020a62461bcd02815260206004820152601360248201527f496e646578206f7574206f6620626f756e6473000000000000000000000000006044820152606401610496565b50565b600254600160a060020a03163314610a4f5760405160e560020a62461bcd028152600401610496906116ce565b600a805473ffffffffffffffffffffffffffffffffffffffff1916600160a060020a0392909216919091179055565b610a86611285565b610a8e611285565b949350505050565b600081815260016020526040812061046390610d67565b600082815260208190526040902060010154610ac98133610c51565b6105bf8383610cda565b600254600160a060020a03163314610b005760405160e560020a62461bcd028152600401610496906116ce565b600580546001810182556000919091527f036b6384b5eca791c62761152d0c79bb0604c104a5fb6f4eb0703f3154bb3db00155565b600254600160a060020a03163314610b625760405160e560020a62461bcd028152600401610496906116ce565b600160a060020a038116610be15760405160e560020a62461bcd02815260206004820152602660248201527f4f776e61626c653a206e6577206f776e657220697320746865207a65726f206160448201527f64647265737300000000000000000000000000000000000000000000000000006064820152608401610496565b610a1f81610cfc565b6000600160e060020a031982167f7965db0b00000000000000000000000000000000000000000000000000000000148061046357507f01ffc9a700000000000000000000000000000000000000000000000000000000600160e060020a0319831614610463565b610c5b8282610919565b61064f57610c7381600160a060020a03166014610d71565b610c7e836020610d71565b604051602001610c8f9291906115f6565b60408051601f198184030181529082905260e560020a62461bcd028252610496916004016116bb565b610cc28282610fbb565b60008281526001602052604090206105bf908261103f565b610ce48282611054565b60008281526001602052604090206105bf90826110b9565b60028054600160a060020a0383811673ffffffffffffffffffffffffffffffffffffffff19831681179093556040519116919082907f8be0079c531659141344cd1fd0a4f28419497f9722a3daafe3b4186f6b6457e090600090a35050565b600061091283836110ce565b6000610463825490565b60606000610d808360026117df565b610d8b9060026117c7565b67ffffffffffffffff811115610da357610da36118a3565b6040519080825280601f01601f191660200182016040528015610dcd576020820181803683370190505b5090507f300000000000000000000000000000000000000000000000000000000000000081600081518110610e0457610e0461188a565b60200101907effffffffffffffffffffffffffffffffffffffffffffffffffffffffffffff1916908160001a9053507f780000000000000000000000000000000000000000000000000000000000000081600181518110610e6757610e6761188a565b60200101907effffffffffffffffffffffffffffffffffffffffffffffffffffffffffffff1916908160001a9053506000610ea38460026117df565b610eae9060016117c7565b90505b6001811115610f69577f303132333435363738396162636465660000000000000000000000000000000085600f1660108110610eef57610eef61188a565b1a7f010000000000000000000000000000000000000000000000000000000000000002828281518110610f2457610f2461188a565b60200101907effffffffffffffffffffffffffffffffffffffffffffffffffffffffffffff1916908160001a905350601090940493610f6281611841565b9050610eb1565b5083156109125760405160e560020a62461bcd02815260206004820181905260248201527f537472696e67733a20686578206c656e67746820696e73756666696369656e746044820152606401610496565b610fc58282610919565b61064f57600082815260208181526040808320600160a060020a03851684529091529020805460ff19166001179055610ffb3390565b600160a060020a031681600160a060020a0316837f2f8788117e7eff1d82e926ec794901d17c78024a50270940304540a733656f0d60405160405180910390a45050565b600061091283600160a060020a0384166110f8565b61105e8282610919565b1561064f57600082815260208181526040808320600160a060020a0385168085529252808320805460ff1916905551339285917ff6391f5c32d9c69d2a47ea670b442974b53935d1edc7fd64eb21e047a839171b9190a45050565b600061091283600160a060020a038416611147565b60008260000182815481106110e5576110e561188a565b9060005260206000200154905092915050565b600081815260018301602052604081205461113f57508154600181810184556000848152602080822090930184905584548482528286019093526040902091909155610463565b506000610463565b6000818152600183016020526040812054801561123057600061116b6001836117fe565b855490915060009061117f906001906117fe565b90508181146111e457600086600001828154811061119f5761119f61188a565b90600052602060002001549050808760000184815481106111c2576111c261188a565b6000918252602080832090910192909255918252600188019052604090208390555b85548690806111f5576111f5611871565b600190038181906000526020600020016000905590558560010160008681526020019081526020016000206000905560019350505050610463565b6000915050610463565b828054828255906000526020600020908101928215611275579160200282015b8281111561127557825182559160200191906001019061125a565b506112819291506112c6565b5090565b6040518060c0016040528060008152602001600081526020016112a66112db565b815260200160008152602001600081526020016112c1611326565b905290565b5b8082111561128157600081556001016112c7565b6040518060e0016040528060608152602001600061ffff168152602001600061ffff16815260200161130b611345565b815260200160008152602001600081526020016112c1611364565b6040518061028001604052806014906020820280368337509192915050565b604051806101600160405280600b906020820280368337509192915050565b604080516101208101909152806112c16020820160088161010080368337509192915050565b8035600160a060020a03811681146113a157600080fd5b919050565b6000602082840312156113b857600080fd5b6109128261138a565b6000602082840312156113d357600080fd5b5035919050565b600080604083850312156113ed57600080fd5b823591506113fd6020840161138a565b90509250929050565b6000806040838503121561141957600080fd5b50508035926020909101359150565b60006020828403121561143a57600080fd5b8135600160e060020a03198116811461091257600080fd5b6000806040838503121561146557600080fd5b8235915060208084013567ffffffffffffffff8082111561148557600080fd5b818601915086601f83011261149957600080fd5b8135818111156114ab576114ab6118a3565b838102604051601f19603f830116810181811085821117156114cf576114cf6118a3565b604052828152858101935084860182860187018b10156114ee57600080fd5b600095505b838610156115115780358552600195909501949386019386016114f3565b508096505050505050509250929050565b60008060006060848603121561153757600080fd5b505081359360208301359350604090920135919050565b8060005b600b811015611571578151845260209384019390910190600101611552565b50505050565b8060005b601481101561157157815184526020938401939091019060010161157b565b600081518084526115b2816020860160208601611815565b601f01601f19169290920160200192915050565b80518260005b60088110156115ef57825161ffff168252602092830192909101906001016115cc565b5050505050565b7f416363657373436f6e74726f6c3a206163636f756e742000000000000000000081526000835161162e816017850160208801611815565b7f206973206d697373696e6720726f6c6520000000000000000000000000000000601791840191820152835161166b816028840160208801611815565b01602801949350505050565b6020808252825182820181905260009190848201906040850190845b818110156116af57835183529284019291840191600101611693565b50909695505050505050565b602081526000610912602083018461159a565b6020808252818101527f4f776e61626c653a2063616c6c6572206973206e6f7420746865206f776e6572604082015260600190565b602081528151602082015260208201516040820152600060408301516103206060840152805161030061034085015261174061064085018261159a565b602083015161ffff90811661036087015260408401511661038086015260608301519091506117736103a086018261154e565b50608082015161050085015260a082015161052085015260c0820151915061179f6105408501836115c6565b60608501516080850152608085015160a085015260a08501519150610a8e60c0850183611577565b600082198211156117da576117da611858565b500190565b60008160001904831182151516156117f9576117f9611858565b500290565b60008282101561181057611810611858565b500390565b60005b83811015611830578181015183820152602001611818565b838111156115715750506000910152565b60008161185057611850611858565b506000190190565b60e060020a634e487b7102600052601160045260246000fd5b60e060020a634e487b7102600052603160045260246000fd5b60e060020a634e487b7102600052603260045260246000fd5b60e060020a634e487b7102600052604160045260246000fdfea2646970667358221220e76f9c0546c6fb2d8214d36c919f618117517f686f0c110afb362a0a92f9bdfc64736f6c63430008060033",
  "immutableReferences": {},
  "source": "//SPDX-License-Identifier: MIT\npragma solidity ^0.8.0;\n\nimport \"@openzeppelin/contracts/access/Ownable.sol\";\nimport \"@openzeppelin/contracts/access/AccessControlEnumerable.sol\";\n\nimport \"./Equipment.sol\";\nimport \"./Characters.sol\";\nimport \"./GameCoin.sol\";\n\nimport {StatsAndSlots} from \"./StatsAndSlots.sol\";\n\n    //***********************************\n    // SETUP AFTER DEPLOY\n    //***********************************\n    // SET EQUIPMENT MINTER_ROLE TO THIS ADDRESS\n    // SET TOKEN MINTER_ROLE TO THIS ADDRESS\n    // SET QUEST_ROLE TO THIS ADDRESS IN EQU AND CHAR SC\n    // SET GAMECOIN ADDRESS\n    // SET CHARACTER ADDRESS\n    // SET EQUIPMENT ADDRESS\n    //***********************************\n\ncontract Quest is AccessControlEnumerable, Ownable {\n\n    uint256 public combatLoops=10; //Number of loop on a combat\n    uint256 randomSpread=20;    //Random variation of attacks from 0 to 100. \n                                //A spread of 30 means that random moves from 70 to 130\n\n    //Quests to be played\n    //Administrators may update, delete or modify the content\n    uint256[] public allQuests;\n\n    //maximum level a quest can be played\n    //This value may be updated based on the current tier\n    //For first tier we may limit to 10, the for second to 20, etc...\n    //The upgrade matrix MUST be also updated in order to go further with tiers\n    uint maxLevel;\n\n    //It MUST contains the coeficients to apply to each level upgrade\n    //This coeficients will be applied to duration, range, loot, drop and base points\n    //TODO TODO TODO Think if it must be also applied to enemies\n    //There must be the same amount of element as maxLevel\n    //For example, in tier 1 maxLevel=10\n    //upgradeMatrix=[0, 5, 10, 14, 18, 21, 24, 26, 28, 30]\n    //Each level means the percentage of upgrade for the level regarding the basic stats    \n    uint256[] upgradeMatrix;\n\n    Equipment internal _gearNFT;    //Address of equipement NFT SC\n    Characters internal _charNFT;   //Address of characters, either players and enemies, NFT SC\n    GameCoin internal _gaemCoin;    //Address of characters, either players and enemies, NFT SC\n    GameStats internal _gameStats;  //Address if the GameStats SC\n\n    //Generic random counter, used to add a bit more of entropy\n    uint randomNonce=0;\n\n    //List of NFTs that can be drop\n    //It is a mapping that goes from the probability (in %1000) of get the drop to the array of drops to get\n    //For example, \n    // 1 per 1000 1=>array\n    // 10 per 1000 10=>array\n    // 100 per 1000 100=>array\n    //default      1000=>array\n    //TODO TODO TODO\n    //We must define the probability granularity of the drops\n    //that is, the keys of the mapping\n    //mapping (uint256 => Equipment.gearStats[]) private dropsNFT; \n\n    //Set combat loop\n    function setCombatLoops(uint256 newLoops) public onlyOwner {\n        combatLoops=newLoops;\n    }\n\n    //Set random spread\n    function setRandomSpread(uint256 spread) public onlyOwner {\n        randomSpread=spread;\n    }\n\n    \n\n    //Returns the drop array for an especific probability\n    //function getDropEquipment(uint prob) public view returns (Equipment.gearStats[] memory){\n    //    return dropsNFT[prob];\n    //}\n\n    //Set the array of gear for an especific probability\n    //function setDropEquipment(uint prob, Equipment.gearStats[] memory gear) public onlyOwner{\n    //     dropsNFT[prob]=gear;\n    //}\n\n    //To remove a drop do the following\n    //Get the array for especific probability\n    //Remove locally (at the react app) the element\n    //Set the array for especific probability\n\n\n    //Adds a single geat to the especific probability array\n    //function addDropToEquipment(uint prob, Equipment.gearData memory gear) public onlyOwner{\n    //     //dropsNFT[prob].push(gear);\n    //}\n\n    //Set the equipment sc afdress\n    function setEquipmentAddress(address equipment) public onlyOwner {\n        _gearNFT=Equipment(equipment);\n    }\n\n    //Set the charcaters sc address\n    function setCharactersAddress(address characters) public onlyOwner {\n        _charNFT=Characters(characters);\n    }\n\n    //Set the game coin sc address\n    function setGameCoinsAddress(address gameCoin) public onlyOwner {\n        _gaemCoin=GameCoin(payable(gameCoin));\n    }\n\n    //Set the equipment sc afdress\n    function setGameStatsAddress(address gameStats) public onlyOwner {\n        _gameStats=GameStats(gameStats);\n    }\n\n    //Set the max level of the quest\n    function setMaxLevel(uint lvl, uint256[] memory matrixValues) public onlyOwner{\n        require(lvl == matrixValues.length, \"Exception: must provide a matrix of values of the same lenght than level\");\n\n        maxLevel=lvl;\n        upgradeMatrix=matrixValues;\n    }\n\n    //Returns the upgrade matrix\n    function getMatrix() public view returns (uint256[] memory){\n        return upgradeMatrix;\n    }\n\n    //Add a quest and recalculate stats\n    function addQuest(uint256 questIndex) public onlyOwner {\n        allQuests.push(questIndex);\n    }\n\n    //Force recalculation of stats of a specific quest\n    //\n    //WARNING WARNING WARNING\n    //\n    //This function MUST be called for each quest whenever you updates \n    //an existing progress matrix of gear and or characters\n    function forceRecalculateStats(uint256 idQuest) public view onlyOwner {\n        require(idQuest < allQuests.length, \"Index out of bounds\");\n    }\n\n    //Remove an element from the store array\n    function removeQuest(uint256 index) public onlyOwner {\n        require(index < allQuests.length, \"Index out of bounds\");\n\n        allQuests[index]= allQuests[ allQuests.length-1];\n        allQuests.pop();\n    }\n\n    //Returns especific item\n    function getQuestLength() public view returns(uint256) {\n        return allQuests.length;\n    }\n\n    //Returns especific item\n    function getQuestData(uint256 index) public view returns(uint256) {\n        return allQuests[index];\n    }\n\n    function questExists(uint256 questIndex) internal view returns (bool) {\n        for(uint i=0; i<allQuests.length; i++)\n            if(allQuests[i]==questIndex)\n                return true;\n        return false;\n    }\n\n    function addCraracterStats(Characters.charData memory ca , Characters.charData memory cb) internal view returns(Characters.charData memory) {\n        \n        \n        return ca;\n    }\n\n\n    struct combat {\n        uint quest;\n        uint level;\n        Characters.charData playerFinalStats;\n        uint playerHealth;\n        uint questHealth;\n        uint[20] hits;\n    }\n\n    function playQuest(uint idQuest, uint idPlayer, uint questLevel) public returns (combat memory) {\n       \n        combat memory combarData;\n\n       \n\n        return combarData;\n    }\n\n    //Pseudo random. I think is enough for the game\n    function randMod(uint _modulus) internal returns(uint) {\n        randomNonce++; \n        return uint(keccak256(abi.encodePacked(block.timestamp, msg.sender, randomNonce))) % _modulus;\n    }\n\n    //Pseudo random. I think is enough for the game\n    function randMod(uint _modulus, uint256 salt) internal returns(uint) {\n        randomNonce++; \n        return uint(keccak256(abi.encodePacked(block.timestamp, msg.sender, randomNonce, salt))) % _modulus;\n    }\n\n}",
  "sourcePath": "/home/javi/COG/contracts/Quest.sol",
  "compiler": {
    "name": "solc",
    "version": "0.8.6+commit.11564f7e.Emscripten.clang"
  },
  "schemaVersion": "3.4.3",
  "updatedAt": "2022-01-17T16:05:53.202Z",
  "networkType": "ethereum",
  "devdoc": {
    "kind": "dev",
    "methods": {
      "getRoleAdmin(bytes32)": {
        "details": "Returns the admin role that controls `role`. See {grantRole} and {revokeRole}. To change a role's admin, use {_setRoleAdmin}."
      },
      "getRoleMember(bytes32,uint256)": {
        "details": "Returns one of the accounts that have `role`. `index` must be a value between 0 and {getRoleMemberCount}, non-inclusive. Role bearers are not sorted in any particular way, and their ordering may change at any point. WARNING: When using {getRoleMember} and {getRoleMemberCount}, make sure you perform all queries on the same block. See the following https://forum.openzeppelin.com/t/iterating-over-elements-on-enumerableset-in-openzeppelin-contracts/2296[forum post] for more information."
      },
      "getRoleMemberCount(bytes32)": {
        "details": "Returns the number of accounts that have `role`. Can be used together with {getRoleMember} to enumerate all bearers of a role."
      },
      "grantRole(bytes32,address)": {
        "details": "Grants `role` to `account`. If `account` had not been already granted `role`, emits a {RoleGranted} event. Requirements: - the caller must have ``role``'s admin role."
      },
      "hasRole(bytes32,address)": {
        "details": "Returns `true` if `account` has been granted `role`."
      },
      "owner()": {
        "details": "Returns the address of the current owner."
      },
      "renounceOwnership()": {
        "details": "Leaves the contract without owner. It will not be possible to call `onlyOwner` functions anymore. Can only be called by the current owner. NOTE: Renouncing ownership will leave the contract without an owner, thereby removing any functionality that is only available to the owner."
      },
      "renounceRole(bytes32,address)": {
        "details": "Revokes `role` from the calling account. Roles are often managed via {grantRole} and {revokeRole}: this function's purpose is to provide a mechanism for accounts to lose their privileges if they are compromised (such as when a trusted device is misplaced). If the calling account had been revoked `role`, emits a {RoleRevoked} event. Requirements: - the caller must be `account`."
      },
      "revokeRole(bytes32,address)": {
        "details": "Revokes `role` from `account`. If `account` had been granted `role`, emits a {RoleRevoked} event. Requirements: - the caller must have ``role``'s admin role."
      },
      "supportsInterface(bytes4)": {
        "details": "See {IERC165-supportsInterface}."
      },
      "transferOwnership(address)": {
        "details": "Transfers ownership of the contract to a new account (`newOwner`). Can only be called by the current owner."
      }
    },
    "version": 1
  },
  "userdoc": {
    "kind": "user",
    "methods": {},
    "version": 1
  }
}