{
  "contractName": "ChainsOfGlory",
  "abi": [
    {
      "inputs": [
        {
          "internalType": "address",
          "name": "creators",
          "type": "address"
        },
        {
          "internalType": "address",
          "name": "developers",
          "type": "address"
        },
        {
          "internalType": "address",
          "name": "reserve",
          "type": "address"
        }
      ],
      "stateMutability": "nonpayable",
      "type": "constructor"
    },
    {
      "anonymous": false,
      "inputs": [
        {
          "indexed": true,
          "internalType": "address",
          "name": "previousOwner",
          "type": "address"
        },
        {
          "indexed": true,
          "internalType": "address",
          "name": "newOwner",
          "type": "address"
        }
      ],
      "name": "OwnershipTransferred",
      "type": "event"
    },
    {
      "anonymous": false,
      "inputs": [
        {
          "indexed": true,
          "internalType": "bytes32",
          "name": "role",
          "type": "bytes32"
        },
        {
          "indexed": true,
          "internalType": "bytes32",
          "name": "previousAdminRole",
          "type": "bytes32"
        },
        {
          "indexed": true,
          "internalType": "bytes32",
          "name": "newAdminRole",
          "type": "bytes32"
        }
      ],
      "name": "RoleAdminChanged",
      "type": "event"
    },
    {
      "anonymous": false,
      "inputs": [
        {
          "indexed": true,
          "internalType": "bytes32",
          "name": "role",
          "type": "bytes32"
        },
        {
          "indexed": true,
          "internalType": "address",
          "name": "account",
          "type": "address"
        },
        {
          "indexed": true,
          "internalType": "address",
          "name": "sender",
          "type": "address"
        }
      ],
      "name": "RoleGranted",
      "type": "event"
    },
    {
      "anonymous": false,
      "inputs": [
        {
          "indexed": true,
          "internalType": "bytes32",
          "name": "role",
          "type": "bytes32"
        },
        {
          "indexed": true,
          "internalType": "address",
          "name": "account",
          "type": "address"
        },
        {
          "indexed": true,
          "internalType": "address",
          "name": "sender",
          "type": "address"
        }
      ],
      "name": "RoleRevoked",
      "type": "event"
    },
    {
      "inputs": [],
      "name": "DEFAULT_ADMIN_ROLE",
      "outputs": [
        {
          "internalType": "bytes32",
          "name": "",
          "type": "bytes32"
        }
      ],
      "stateMutability": "view",
      "type": "function"
    },
    {
      "inputs": [],
      "name": "decimals",
      "outputs": [
        {
          "internalType": "uint256",
          "name": "",
          "type": "uint256"
        }
      ],
      "stateMutability": "view",
      "type": "function"
    },
    {
      "inputs": [],
      "name": "gamePrice",
      "outputs": [
        {
          "internalType": "uint256",
          "name": "",
          "type": "uint256"
        }
      ],
      "stateMutability": "view",
      "type": "function"
    },
    {
      "inputs": [
        {
          "internalType": "bytes32",
          "name": "role",
          "type": "bytes32"
        }
      ],
      "name": "getRoleAdmin",
      "outputs": [
        {
          "internalType": "bytes32",
          "name": "",
          "type": "bytes32"
        }
      ],
      "stateMutability": "view",
      "type": "function"
    },
    {
      "inputs": [
        {
          "internalType": "bytes32",
          "name": "role",
          "type": "bytes32"
        },
        {
          "internalType": "uint256",
          "name": "index",
          "type": "uint256"
        }
      ],
      "name": "getRoleMember",
      "outputs": [
        {
          "internalType": "address",
          "name": "",
          "type": "address"
        }
      ],
      "stateMutability": "view",
      "type": "function"
    },
    {
      "inputs": [
        {
          "internalType": "bytes32",
          "name": "role",
          "type": "bytes32"
        }
      ],
      "name": "getRoleMemberCount",
      "outputs": [
        {
          "internalType": "uint256",
          "name": "",
          "type": "uint256"
        }
      ],
      "stateMutability": "view",
      "type": "function"
    },
    {
      "inputs": [
        {
          "internalType": "bytes32",
          "name": "role",
          "type": "bytes32"
        },
        {
          "internalType": "address",
          "name": "account",
          "type": "address"
        }
      ],
      "name": "grantRole",
      "outputs": [],
      "stateMutability": "nonpayable",
      "type": "function"
    },
    {
      "inputs": [
        {
          "internalType": "bytes32",
          "name": "role",
          "type": "bytes32"
        },
        {
          "internalType": "address",
          "name": "account",
          "type": "address"
        }
      ],
      "name": "hasRole",
      "outputs": [
        {
          "internalType": "bool",
          "name": "",
          "type": "bool"
        }
      ],
      "stateMutability": "view",
      "type": "function"
    },
    {
      "inputs": [],
      "name": "interval",
      "outputs": [
        {
          "internalType": "uint256",
          "name": "",
          "type": "uint256"
        }
      ],
      "stateMutability": "view",
      "type": "function"
    },
    {
      "inputs": [],
      "name": "lastTimeStamp",
      "outputs": [
        {
          "internalType": "uint256",
          "name": "",
          "type": "uint256"
        }
      ],
      "stateMutability": "view",
      "type": "function"
    },
    {
      "inputs": [],
      "name": "owner",
      "outputs": [
        {
          "internalType": "address",
          "name": "",
          "type": "address"
        }
      ],
      "stateMutability": "view",
      "type": "function"
    },
    {
      "inputs": [],
      "name": "renounceOwnership",
      "outputs": [],
      "stateMutability": "nonpayable",
      "type": "function"
    },
    {
      "inputs": [
        {
          "internalType": "bytes32",
          "name": "role",
          "type": "bytes32"
        },
        {
          "internalType": "address",
          "name": "account",
          "type": "address"
        }
      ],
      "name": "renounceRole",
      "outputs": [],
      "stateMutability": "nonpayable",
      "type": "function"
    },
    {
      "inputs": [
        {
          "internalType": "bytes32",
          "name": "role",
          "type": "bytes32"
        },
        {
          "internalType": "address",
          "name": "account",
          "type": "address"
        }
      ],
      "name": "revokeRole",
      "outputs": [],
      "stateMutability": "nonpayable",
      "type": "function"
    },
    {
      "inputs": [
        {
          "internalType": "bytes4",
          "name": "interfaceId",
          "type": "bytes4"
        }
      ],
      "name": "supportsInterface",
      "outputs": [
        {
          "internalType": "bool",
          "name": "",
          "type": "bool"
        }
      ],
      "stateMutability": "view",
      "type": "function"
    },
    {
      "inputs": [
        {
          "internalType": "address",
          "name": "newOwner",
          "type": "address"
        }
      ],
      "name": "transferOwnership",
      "outputs": [],
      "stateMutability": "nonpayable",
      "type": "function"
    },
    {
      "inputs": [],
      "name": "BuyPlayer",
      "outputs": [],
      "stateMutability": "payable",
      "type": "function"
    },
    {
      "inputs": [],
      "name": "CalculateGamePriceInLocal",
      "outputs": [
        {
          "internalType": "uint256",
          "name": "",
          "type": "uint256"
        }
      ],
      "stateMutability": "view",
      "type": "function"
    },
    {
      "inputs": [
        {
          "internalType": "uint256",
          "name": "price",
          "type": "uint256"
        }
      ],
      "name": "SetGamePrice",
      "outputs": [],
      "stateMutability": "nonpayable",
      "type": "function"
    },
    {
      "inputs": [
        {
          "internalType": "uint256",
          "name": "intv",
          "type": "uint256"
        }
      ],
      "name": "SetInterval",
      "outputs": [],
      "stateMutability": "nonpayable",
      "type": "function"
    },
    {
      "inputs": [
        {
          "internalType": "uint256",
          "name": "dec",
          "type": "uint256"
        }
      ],
      "name": "SetDecimals",
      "outputs": [],
      "stateMutability": "nonpayable",
      "type": "function"
    },
    {
      "inputs": [
        {
          "internalType": "address",
          "name": "gameToken",
          "type": "address"
        }
      ],
      "name": "SetGameToken",
      "outputs": [],
      "stateMutability": "nonpayable",
      "type": "function"
    },
    {
      "inputs": [
        {
          "internalType": "address",
          "name": "gameNFT",
          "type": "address"
        }
      ],
      "name": "SetGameNFT",
      "outputs": [],
      "stateMutability": "nonpayable",
      "type": "function"
    },
    {
      "inputs": [],
      "name": "getLatestPrice",
      "outputs": [
        {
          "internalType": "int256",
          "name": "",
          "type": "int256"
        }
      ],
      "stateMutability": "view",
      "type": "function"
    }
  ],
  "bytecode": "0x60806040523480156200001157600080fd5b506040516200157e3803806200157e833981016040819052620000349162000161565b6200005a6200004b640100000000620000e9810204565b640100000000620000ed810204565b600a8054600160a060020a03808616600160a060020a031992831617909255600b8054858416908316179055600c8054928416928216929092179091556003805490911673d0d5e3db44de05e9f294bb0a3beeaf030de24ada17905542600555610258600655620000d36401000000006200013f810204565b60045550506008600755506014600d55620001ab565b3390565b60028054600160a060020a03838116600160a060020a0319831681179093556040519116919082907f8be0079c531659141344cd1fd0a4f28419497f9722a3daafe3b4186f6b6457e090600090a35050565b600090565b8051600160a060020a03811681146200015c57600080fd5b919050565b6000806000606084860312156200017757600080fd5b620001828462000144565b9250620001926020850162000144565b9150620001a26040850162000144565b90509250925092565b6113c380620001bb6000396000f3fe608060405260043610610168576000357c0100000000000000000000000000000000000000000000000000000000900480639010d07c116100d3578063c70337eb1161008c578063c70337eb14610392578063ca15c873146103b2578063d547741f146103d2578063e0461634146103f2578063ec47e4e114610407578063f2fde38b1461042757600080fd5b80639010d07c146102f157806391d1485414610311578063947a36fb1461033157806396bf15bf14610347578063998d32511461035d578063a217fddf1461037d57600080fd5b806368fdb0a61161012557806368fdb0a61461024e578063715018a61461025657806376a4fa031461026b5780638072b9631461028b5780638da5cb5b146102ab5780638e15f473146102dd57600080fd5b806301ffc9a71461016d578063248a9ca3146101a25780632f2ff15d146101e0578063313ce5671461020257806336568abe146102185780633f3b3b2714610238575b600080fd5b34801561017957600080fd5b5061018d610188366004611093565b610447565b60405190151581526020015b60405180910390f35b3480156101ae57600080fd5b506101d26101bd36600461102c565b60009081526020819052604090206001015490565b604051908152602001610199565b3480156101ec57600080fd5b506102006101fb366004611045565b61048b565b005b34801561020e57600080fd5b506101d260075481565b34801561022457600080fd5b50610200610233366004611045565b6104b2565b34801561024457600080fd5b506101d260055481565b6102006104d4565b34801561026257600080fd5b506102006105ef565b34801561027757600080fd5b5061020061028636600461102c565b610628565b34801561029757600080fd5b506102006102a636600461102c565b61065a565b3480156102b757600080fd5b50600254600160a060020a03165b604051600160a060020a039091168152602001610199565b3480156102e957600080fd5b5060006101d2565b3480156102fd57600080fd5b506102c561030c366004611071565b61068c565b34801561031d57600080fd5b5061018d61032c366004611045565b6106ab565b34801561033d57600080fd5b506101d260065481565b34801561035357600080fd5b506101d2600d5481565b34801561036957600080fd5b5061020061037836600461102c565b6106d4565b34801561038957600080fd5b506101d2600081565b34801561039e57600080fd5b506102006103ad366004611011565b610706565b3480156103be57600080fd5b506101d26103cd36600461102c565b610762565b3480156103de57600080fd5b506102006103ed366004611045565b610779565b3480156103fe57600080fd5b506101d2610783565b34801561041357600080fd5b50610200610422366004611011565b6107be565b34801561043357600080fd5b50610200610442366004611011565b61081a565b6000600160e060020a031982167f5a05180f0000000000000000000000000000000000000000000000000000000014806104855750610485826108d2565b92915050565b6104958282610939565b60008281526001602052604090206104ad908261095f565b505050565b6104bc8282610974565b60008281526001602052604090206104ad9082610a03565b6104dc610a18565b6004819055600754600091906104f39060126112cb565b6104fe90600a611203565b600d5461050b91906112ac565b61051591906112ac565b90508034101561056f5760405160e560020a62461bcd02815260206004820181905260248201527f427579506c617965723a206e6f7420656e6f756768204d617469632073656e7460448201526064015b60405180910390fd5b6009546040517f40c10f1900000000000000000000000000000000000000000000000000000000815233600482015260006024820152600160a060020a03909116906340c10f1990604401600060405180830381600087803b1580156105d457600080fd5b505af11580156105e8573d6000803e3d6000fd5b5050505050565b600254600160a060020a0316331461061c5760405160e560020a62461bcd02815260040161056690611171565b6106266000610a54565b565b600254600160a060020a031633146106555760405160e560020a62461bcd02815260040161056690611171565b600655565b600254600160a060020a031633146106875760405160e560020a62461bcd02815260040161056690611171565b600755565b60008281526001602052604081206106a49083610ab3565b9392505050565b600091825260208281526040808420600160a060020a0393909316845291905290205460ff1690565b600254600160a060020a031633146107015760405160e560020a62461bcd02815260040161056690611171565b600d55565b600254600160a060020a031633146107335760405160e560020a62461bcd02815260040161056690611171565b6008805473ffffffffffffffffffffffffffffffffffffffff1916600160a060020a0392909216919091179055565b600081815260016020526040812061048590610abf565b6104bc8282610ac9565b60008080600754601261079691906112cb565b6107a190600a611203565b600d546107ae91906112ac565b6107b891906112ac565b91505090565b600254600160a060020a031633146107eb5760405160e560020a62461bcd02815260040161056690611171565b6009805473ffffffffffffffffffffffffffffffffffffffff1916600160a060020a0392909216919091179055565b600254600160a060020a031633146108475760405160e560020a62461bcd02815260040161056690611171565b600160a060020a0381166108c65760405160e560020a62461bcd02815260206004820152602660248201527f4f776e61626c653a206e6577206f776e657220697320746865207a65726f206160448201527f64647265737300000000000000000000000000000000000000000000000000006064820152608401610566565b6108cf81610a54565b50565b6000600160e060020a031982167f7965db0b00000000000000000000000000000000000000000000000000000000148061048557507f01ffc9a700000000000000000000000000000000000000000000000000000000600160e060020a0319831614610485565b6000828152602081905260409020600101546109558133610aef565b6104ad8383610b56565b60006106a483600160a060020a038416610bda565b600160a060020a03811633146109f55760405160e560020a62461bcd02815260206004820152602f60248201527f416363657373436f6e74726f6c3a2063616e206f6e6c792072656e6f756e636560448201527f20726f6c657320666f722073656c6600000000000000000000000000000000006064820152608401610566565b6109ff8282610c29565b5050565b60006106a483600160a060020a038416610c8e565b600060065460055442610a2b91906112cb565b108015610a39575060045415155b15610a45575060045490565b50426005556000600481905590565b60028054600160a060020a0383811673ffffffffffffffffffffffffffffffffffffffff19831681179093556040519116919082907f8be0079c531659141344cd1fd0a4f28419497f9722a3daafe3b4186f6b6457e090600090a35050565b60006106a48383610d81565b6000610485825490565b600082815260208190526040902060010154610ae58133610aef565b6104ad8383610c29565b610af982826106ab565b6109ff57610b1181600160a060020a03166014610dab565b610b1c836020610dab565b604051602001610b2d9291906110bd565b60408051601f198184030181529082905260e560020a62461bcd0282526105669160040161113e565b610b6082826106ab565b6109ff57600082815260208181526040808320600160a060020a03851684529091529020805460ff19166001179055610b963390565b600160a060020a031681600160a060020a0316837f2f8788117e7eff1d82e926ec794901d17c78024a50270940304540a733656f0d60405160405180910390a45050565b6000818152600183016020526040812054610c2157508154600181810184556000848152602080822090930184905584548482528286019093526040902091909155610485565b506000610485565b610c3382826106ab565b156109ff57600082815260208181526040808320600160a060020a0385168085529252808320805460ff1916905551339285917ff6391f5c32d9c69d2a47ea670b442974b53935d1edc7fd64eb21e047a839171b9190a45050565b60008181526001830160205260408120548015610d77576000610cb26001836112cb565b8554909150600090610cc6906001906112cb565b9050818114610d2b576000866000018281548110610ce657610ce661135b565b9060005260206000200154905080876000018481548110610d0957610d0961135b565b6000918252602080832090910192909255918252600188019052604090208390555b8554869080610d3c57610d3c611342565b600190038181906000526020600020016000905590558560010160008681526020019081526020016000206000905560019350505050610485565b6000915050610485565b6000826000018281548110610d9857610d9861135b565b9060005260206000200154905092915050565b60606000610dba8360026112ac565b610dc59060026111a6565b67ffffffffffffffff811115610ddd57610ddd611374565b6040519080825280601f01601f191660200182016040528015610e07576020820181803683370190505b5090507f300000000000000000000000000000000000000000000000000000000000000081600081518110610e3e57610e3e61135b565b60200101907effffffffffffffffffffffffffffffffffffffffffffffffffffffffffffff1916908160001a9053507f780000000000000000000000000000000000000000000000000000000000000081600181518110610ea157610ea161135b565b60200101907effffffffffffffffffffffffffffffffffffffffffffffffffffffffffffff1916908160001a9053506000610edd8460026112ac565b610ee89060016111a6565b90505b6001811115610fa3577f303132333435363738396162636465660000000000000000000000000000000085600f1660108110610f2957610f2961135b565b1a7f010000000000000000000000000000000000000000000000000000000000000002828281518110610f5e57610f5e61135b565b60200101907effffffffffffffffffffffffffffffffffffffffffffffffffffffffffffff1916908160001a905350601090940493610f9c81611312565b9050610eeb565b5083156106a45760405160e560020a62461bcd02815260206004820181905260248201527f537472696e67733a20686578206c656e67746820696e73756666696369656e746044820152606401610566565b8035600160a060020a038116811461100c57600080fd5b919050565b60006020828403121561102357600080fd5b6106a482610ff5565b60006020828403121561103e57600080fd5b5035919050565b6000806040838503121561105857600080fd5b8235915061106860208401610ff5565b90509250929050565b6000806040838503121561108457600080fd5b50508035926020909101359150565b6000602082840312156110a557600080fd5b8135600160e060020a0319811681146106a457600080fd5b7f416363657373436f6e74726f6c3a206163636f756e74200000000000000000008152600083516110f58160178501602088016112e2565b7f206973206d697373696e6720726f6c652000000000000000000000000000000060179184019182015283516111328160288401602088016112e2565b01602801949350505050565b602081526000825180602084015261115d8160408501602087016112e2565b601f01601f19169190910160400192915050565b6020808252818101527f4f776e61626c653a2063616c6c6572206973206e6f7420746865206f776e6572604082015260600190565b600082198211156111b9576111b9611329565b500190565b600181815b808511156111fb5781600019048211156111df576111df611329565b808516156111ec57918102915b600290940493908002906111c3565b509250929050565b60006106a4838360008261121957506001610485565b8161122657506000610485565b816001811461123c576002811461124657611263565b6001915050610485565b60ff84111561125757611257611329565b8360020a915050610485565b5060208310610133831016604e8410600b8410161715611286575081810a610485565b61129083836111be565b80600019048211156112a4576112a4611329565b029392505050565b60008160001904831182151516156112c6576112c6611329565b500290565b6000828210156112dd576112dd611329565b500390565b60005b838110156112fd5781810151838201526020016112e5565b8381111561130c576000848401525b50505050565b60008161132157611321611329565b506000190190565b60e060020a634e487b7102600052601160045260246000fd5b60e060020a634e487b7102600052603160045260246000fd5b60e060020a634e487b7102600052603260045260246000fd5b60e060020a634e487b7102600052604160045260246000fdfea2646970667358221220d23c87c4622faeb4e88c497f8c838cf41d12191ab0d244853654e15c9524aca164736f6c63430008060033",
  "immutableReferences": {},
  "source": "//SPDX-License-Identifier: MIT\r\n\r\npragma solidity ^0.8.0;\r\n\r\nimport \"@openzeppelin/contracts/access/Ownable.sol\";\r\nimport \"@openzeppelin/contracts/utils/Counters.sol\";\r\nimport \"@openzeppelin/contracts/access/AccessControlEnumerable.sol\";\r\nimport \"@chainlink/contracts/src/v0.8/interfaces/AggregatorV3Interface.sol\";\r\n\r\nimport \"./RoyaltyERC721.sol\";\r\nimport \"./TokenERC20.sol\";\r\n\r\ncontract ChainsOfGlory is AccessControlEnumerable, Ownable {\r\n\r\n   \r\n    AggregatorV3Interface internal priceFeed;\r\n    int latestPrice;               //Latest price of Matic taken\r\n    uint public lastTimeStamp;     //Internal use as timer\r\n    uint public interval;          //Number of seconds between reads\r\n    uint public decimals;          //Number of decimals in the price    \r\n\r\n    TokenERC20 internal _gameToken;  //Address of game token SC\r\n    RoyaltyERC721 internal _gameNFT;      //Address of game NFT SC\r\n    \r\n    //Tokenomics\r\n    address internal _creators;     //Address of the game creators\r\n    address internal _developers;   //Address of the game developers\r\n    address internal _reserve;      //Address of the game reserve\r\n    uint constant crebp = 30;       //Creators percentage basic points\r\n    uint constant devbp = 20;       //Developers percentage basic points\r\n    uint constant resbp = 50;       //Reserve percentage basic points\r\n    \r\n    uint public gamePrice;          //Number of decimals in the price\r\n   \r\n    constructor(address creators, address developers, address reserve) {\r\n\r\n        //Upon creation the addresses of creators, developers and reserve are set and cannot be changed never ever\r\n        //Periodically, those addresses may pake the correspondant percentage of incomes\r\n        //\r\n        _creators=creators;\r\n        _developers=developers;\r\n        _reserve=reserve;\r\n\r\n        //REMEMBER TO USE THE APROPRIATE ADDRESS HERE!!!\r\n        priceFeed = AggregatorV3Interface(0xd0D5e3DB44DE05E9F294BB0a3bEEaF030DE24Ada);\r\n\r\n        lastTimeStamp = block.timestamp;\r\n        interval=600; //By default 600 secs\r\n        latestPrice=getLatestPrice();\r\n        decimals=8;     //By default decimals provided by chainlink are 8, but... well who knows\r\n\r\n        gamePrice=20;   //Initially 20 USD\r\n    }\r\n\r\n    //Buy Player SIMPLE => REFINE!!\r\n    function BuyPlayer() public payable {\r\n        latestPrice=getLatestMaticUSD();\r\n        uint gamePriceMatic = gamePrice * (10 ** (18-decimals)) * uint(latestPrice);\r\n        require (msg.value >= gamePriceMatic, \"BuyPlayer: not enough Matic sent\");\r\n        _gameNFT.mint(msg.sender, 0);\r\n        \r\n        /*\r\n        uint moneyToReturn = msg.value - gamePriceMatic; \r\n        if(moneyToReturn > (0.001 * 10 ** decimals))\r\n            msg.sender.transfer(moneyToReturn);\r\n        */\r\n    }\r\n\r\n    function CalculateGamePriceInLocal() public view returns (uint) {\r\n        int locp =getLatestPrice();\r\n        return gamePrice * (10 ** (18-decimals)) * uint(locp);\r\n    }\r\n\r\n    //ets the game price in dollars\r\n    function SetGamePrice(uint price) public onlyOwner {\r\n        gamePrice=price;\r\n    }\r\n    //Read the Matic/USD feed each 'intv' seconds\r\n    function SetInterval(uint intv) public onlyOwner {\r\n        interval=intv;\r\n    }\r\n\r\n    //Read the Matic/USD feed each 'intv' seconds\r\n    function SetDecimals(uint dec) public onlyOwner {\r\n        decimals=dec;\r\n    }\r\n\r\n    //Game Token Address\r\n    function SetGameToken(address gameToken) public onlyOwner {\r\n        _gameToken=TokenERC20(gameToken);\r\n    }\r\n\r\n    //Game NFT Address\r\n    function SetGameNFT(address gameNFT) public onlyOwner {\r\n        _gameNFT=RoyaltyERC721(gameNFT);\r\n    }\r\n\r\n     /**\r\n     * Returns the latest price based on a time interval\r\n     */\r\n    function getLatestMaticUSD() internal returns (int) {\r\n\r\n        if((block.timestamp - lastTimeStamp) < interval && latestPrice!=0)\r\n            return latestPrice;\r\n\r\n        lastTimeStamp = block.timestamp;\r\n        latestPrice=getLatestPrice();\r\n        return latestPrice;\r\n    }\r\n\r\n    //Standard feed call\r\n    function getLatestPrice() public view returns (int) {        \r\n        /*\r\n        (\r\n            uint80 roundID, \r\n            int price,\r\n            uint startedAt,\r\n            uint timeStamp,\r\n            uint80 answeredInRound\r\n        ) = priceFeed.latestRoundData();\r\n        return price;\r\n        */\r\n        return 0;\r\n    }\r\n}",
  "sourcePath": "/Users/n65598/Development/Blockchain/ChainsOfGlory/contracts/Examples/CallerExample.sol",
  "compiler": {
    "name": "solc",
    "version": "0.8.6+commit.11564f7e.Emscripten.clang"
  },
  "schemaVersion": "3.4.3",
  "updatedAt": "2021-11-22T09:57:32.798Z",
  "devdoc": {
    "kind": "dev",
    "methods": {
      "getRoleAdmin(bytes32)": {
        "details": "Returns the admin role that controls `role`. See {grantRole} and {revokeRole}. To change a role's admin, use {_setRoleAdmin}."
      },
      "getRoleMember(bytes32,uint256)": {
        "details": "Returns one of the accounts that have `role`. `index` must be a value between 0 and {getRoleMemberCount}, non-inclusive. Role bearers are not sorted in any particular way, and their ordering may change at any point. WARNING: When using {getRoleMember} and {getRoleMemberCount}, make sure you perform all queries on the same block. See the following https://forum.openzeppelin.com/t/iterating-over-elements-on-enumerableset-in-openzeppelin-contracts/2296[forum post] for more information."
      },
      "getRoleMemberCount(bytes32)": {
        "details": "Returns the number of accounts that have `role`. Can be used together with {getRoleMember} to enumerate all bearers of a role."
      },
      "grantRole(bytes32,address)": {
        "details": "Overload {grantRole} to track enumerable memberships"
      },
      "hasRole(bytes32,address)": {
        "details": "Returns `true` if `account` has been granted `role`."
      },
      "owner()": {
        "details": "Returns the address of the current owner."
      },
      "renounceOwnership()": {
        "details": "Leaves the contract without owner. It will not be possible to call `onlyOwner` functions anymore. Can only be called by the current owner. NOTE: Renouncing ownership will leave the contract without an owner, thereby removing any functionality that is only available to the owner."
      },
      "renounceRole(bytes32,address)": {
        "details": "Overload {renounceRole} to track enumerable memberships"
      },
      "revokeRole(bytes32,address)": {
        "details": "Overload {revokeRole} to track enumerable memberships"
      },
      "supportsInterface(bytes4)": {
        "details": "See {IERC165-supportsInterface}."
      },
      "transferOwnership(address)": {
        "details": "Transfers ownership of the contract to a new account (`newOwner`). Can only be called by the current owner."
      }
    },
    "version": 1
  },
  "userdoc": {
    "kind": "user",
    "methods": {},
    "version": 1
  }
}