{
  "contractName": "Characters",
  "abi": [
    {
      "inputs": [],
      "stateMutability": "nonpayable",
      "type": "constructor"
    },
    {
      "anonymous": false,
      "inputs": [
        {
          "indexed": true,
          "internalType": "address",
          "name": "owner",
          "type": "address"
        },
        {
          "indexed": true,
          "internalType": "address",
          "name": "approved",
          "type": "address"
        },
        {
          "indexed": true,
          "internalType": "uint256",
          "name": "tokenId",
          "type": "uint256"
        }
      ],
      "name": "Approval",
      "type": "event"
    },
    {
      "anonymous": false,
      "inputs": [
        {
          "indexed": true,
          "internalType": "address",
          "name": "owner",
          "type": "address"
        },
        {
          "indexed": true,
          "internalType": "address",
          "name": "operator",
          "type": "address"
        },
        {
          "indexed": false,
          "internalType": "bool",
          "name": "approved",
          "type": "bool"
        }
      ],
      "name": "ApprovalForAll",
      "type": "event"
    },
    {
      "anonymous": false,
      "inputs": [
        {
          "indexed": true,
          "internalType": "address",
          "name": "previousOwner",
          "type": "address"
        },
        {
          "indexed": true,
          "internalType": "address",
          "name": "newOwner",
          "type": "address"
        }
      ],
      "name": "OwnershipTransferred",
      "type": "event"
    },
    {
      "anonymous": false,
      "inputs": [
        {
          "indexed": true,
          "internalType": "bytes32",
          "name": "role",
          "type": "bytes32"
        },
        {
          "indexed": true,
          "internalType": "bytes32",
          "name": "previousAdminRole",
          "type": "bytes32"
        },
        {
          "indexed": true,
          "internalType": "bytes32",
          "name": "newAdminRole",
          "type": "bytes32"
        }
      ],
      "name": "RoleAdminChanged",
      "type": "event"
    },
    {
      "anonymous": false,
      "inputs": [
        {
          "indexed": true,
          "internalType": "bytes32",
          "name": "role",
          "type": "bytes32"
        },
        {
          "indexed": true,
          "internalType": "address",
          "name": "account",
          "type": "address"
        },
        {
          "indexed": true,
          "internalType": "address",
          "name": "sender",
          "type": "address"
        }
      ],
      "name": "RoleGranted",
      "type": "event"
    },
    {
      "anonymous": false,
      "inputs": [
        {
          "indexed": true,
          "internalType": "bytes32",
          "name": "role",
          "type": "bytes32"
        },
        {
          "indexed": true,
          "internalType": "address",
          "name": "account",
          "type": "address"
        },
        {
          "indexed": true,
          "internalType": "address",
          "name": "sender",
          "type": "address"
        }
      ],
      "name": "RoleRevoked",
      "type": "event"
    },
    {
      "anonymous": false,
      "inputs": [
        {
          "indexed": false,
          "internalType": "uint256",
          "name": "tokenId",
          "type": "uint256"
        },
        {
          "components": [
            {
              "internalType": "address payable",
              "name": "account",
              "type": "address"
            },
            {
              "internalType": "uint96",
              "name": "value",
              "type": "uint96"
            }
          ],
          "indexed": false,
          "internalType": "struct LibPart.Part[]",
          "name": "royalties",
          "type": "tuple[]"
        }
      ],
      "name": "RoyaltiesSet",
      "type": "event"
    },
    {
      "anonymous": false,
      "inputs": [
        {
          "indexed": true,
          "internalType": "address",
          "name": "from",
          "type": "address"
        },
        {
          "indexed": true,
          "internalType": "address",
          "name": "to",
          "type": "address"
        },
        {
          "indexed": true,
          "internalType": "uint256",
          "name": "tokenId",
          "type": "uint256"
        }
      ],
      "name": "Transfer",
      "type": "event"
    },
    {
      "inputs": [],
      "name": "BURNER_ROLE",
      "outputs": [
        {
          "internalType": "bytes32",
          "name": "",
          "type": "bytes32"
        }
      ],
      "stateMutability": "view",
      "type": "function"
    },
    {
      "inputs": [],
      "name": "DEFAULT_ADMIN_ROLE",
      "outputs": [
        {
          "internalType": "bytes32",
          "name": "",
          "type": "bytes32"
        }
      ],
      "stateMutability": "view",
      "type": "function"
    },
    {
      "inputs": [],
      "name": "MINTER_ROLE",
      "outputs": [
        {
          "internalType": "bytes32",
          "name": "",
          "type": "bytes32"
        }
      ],
      "stateMutability": "view",
      "type": "function"
    },
    {
      "inputs": [
        {
          "internalType": "address",
          "name": "to",
          "type": "address"
        },
        {
          "internalType": "uint256",
          "name": "tokenId",
          "type": "uint256"
        }
      ],
      "name": "approve",
      "outputs": [],
      "stateMutability": "nonpayable",
      "type": "function"
    },
    {
      "inputs": [
        {
          "internalType": "address",
          "name": "owner",
          "type": "address"
        }
      ],
      "name": "balanceOf",
      "outputs": [
        {
          "internalType": "uint256",
          "name": "",
          "type": "uint256"
        }
      ],
      "stateMutability": "view",
      "type": "function"
    },
    {
      "inputs": [
        {
          "internalType": "uint256",
          "name": "tokenId",
          "type": "uint256"
        }
      ],
      "name": "getApproved",
      "outputs": [
        {
          "internalType": "address",
          "name": "",
          "type": "address"
        }
      ],
      "stateMutability": "view",
      "type": "function"
    },
    {
      "inputs": [
        {
          "internalType": "uint256",
          "name": "id",
          "type": "uint256"
        }
      ],
      "name": "getRaribleV2Royalties",
      "outputs": [
        {
          "components": [
            {
              "internalType": "address payable",
              "name": "account",
              "type": "address"
            },
            {
              "internalType": "uint96",
              "name": "value",
              "type": "uint96"
            }
          ],
          "internalType": "struct LibPart.Part[]",
          "name": "",
          "type": "tuple[]"
        }
      ],
      "stateMutability": "view",
      "type": "function"
    },
    {
      "inputs": [
        {
          "internalType": "bytes32",
          "name": "role",
          "type": "bytes32"
        }
      ],
      "name": "getRoleAdmin",
      "outputs": [
        {
          "internalType": "bytes32",
          "name": "",
          "type": "bytes32"
        }
      ],
      "stateMutability": "view",
      "type": "function"
    },
    {
      "inputs": [
        {
          "internalType": "bytes32",
          "name": "role",
          "type": "bytes32"
        },
        {
          "internalType": "uint256",
          "name": "index",
          "type": "uint256"
        }
      ],
      "name": "getRoleMember",
      "outputs": [
        {
          "internalType": "address",
          "name": "",
          "type": "address"
        }
      ],
      "stateMutability": "view",
      "type": "function"
    },
    {
      "inputs": [
        {
          "internalType": "bytes32",
          "name": "role",
          "type": "bytes32"
        }
      ],
      "name": "getRoleMemberCount",
      "outputs": [
        {
          "internalType": "uint256",
          "name": "",
          "type": "uint256"
        }
      ],
      "stateMutability": "view",
      "type": "function"
    },
    {
      "inputs": [
        {
          "internalType": "bytes32",
          "name": "role",
          "type": "bytes32"
        },
        {
          "internalType": "address",
          "name": "account",
          "type": "address"
        }
      ],
      "name": "grantRole",
      "outputs": [],
      "stateMutability": "nonpayable",
      "type": "function"
    },
    {
      "inputs": [
        {
          "internalType": "bytes32",
          "name": "role",
          "type": "bytes32"
        },
        {
          "internalType": "address",
          "name": "account",
          "type": "address"
        }
      ],
      "name": "hasRole",
      "outputs": [
        {
          "internalType": "bool",
          "name": "",
          "type": "bool"
        }
      ],
      "stateMutability": "view",
      "type": "function"
    },
    {
      "inputs": [
        {
          "internalType": "address",
          "name": "owner",
          "type": "address"
        },
        {
          "internalType": "address",
          "name": "operator",
          "type": "address"
        }
      ],
      "name": "isApprovedForAll",
      "outputs": [
        {
          "internalType": "bool",
          "name": "",
          "type": "bool"
        }
      ],
      "stateMutability": "view",
      "type": "function"
    },
    {
      "inputs": [],
      "name": "name",
      "outputs": [
        {
          "internalType": "string",
          "name": "",
          "type": "string"
        }
      ],
      "stateMutability": "view",
      "type": "function"
    },
    {
      "inputs": [],
      "name": "owner",
      "outputs": [
        {
          "internalType": "address",
          "name": "",
          "type": "address"
        }
      ],
      "stateMutability": "view",
      "type": "function"
    },
    {
      "inputs": [
        {
          "internalType": "uint256",
          "name": "tokenId",
          "type": "uint256"
        }
      ],
      "name": "ownerOf",
      "outputs": [
        {
          "internalType": "address",
          "name": "",
          "type": "address"
        }
      ],
      "stateMutability": "view",
      "type": "function"
    },
    {
      "inputs": [],
      "name": "renounceOwnership",
      "outputs": [],
      "stateMutability": "nonpayable",
      "type": "function"
    },
    {
      "inputs": [
        {
          "internalType": "bytes32",
          "name": "role",
          "type": "bytes32"
        },
        {
          "internalType": "address",
          "name": "account",
          "type": "address"
        }
      ],
      "name": "renounceRole",
      "outputs": [],
      "stateMutability": "nonpayable",
      "type": "function"
    },
    {
      "inputs": [
        {
          "internalType": "bytes32",
          "name": "role",
          "type": "bytes32"
        },
        {
          "internalType": "address",
          "name": "account",
          "type": "address"
        }
      ],
      "name": "revokeRole",
      "outputs": [],
      "stateMutability": "nonpayable",
      "type": "function"
    },
    {
      "inputs": [
        {
          "internalType": "uint256",
          "name": "",
          "type": "uint256"
        },
        {
          "internalType": "uint256",
          "name": "",
          "type": "uint256"
        }
      ],
      "name": "royalties",
      "outputs": [
        {
          "internalType": "address payable",
          "name": "account",
          "type": "address"
        },
        {
          "internalType": "uint96",
          "name": "value",
          "type": "uint96"
        }
      ],
      "stateMutability": "view",
      "type": "function"
    },
    {
      "inputs": [
        {
          "internalType": "address",
          "name": "from",
          "type": "address"
        },
        {
          "internalType": "address",
          "name": "to",
          "type": "address"
        },
        {
          "internalType": "uint256",
          "name": "tokenId",
          "type": "uint256"
        }
      ],
      "name": "safeTransferFrom",
      "outputs": [],
      "stateMutability": "nonpayable",
      "type": "function"
    },
    {
      "inputs": [
        {
          "internalType": "address",
          "name": "from",
          "type": "address"
        },
        {
          "internalType": "address",
          "name": "to",
          "type": "address"
        },
        {
          "internalType": "uint256",
          "name": "tokenId",
          "type": "uint256"
        },
        {
          "internalType": "bytes",
          "name": "_data",
          "type": "bytes"
        }
      ],
      "name": "safeTransferFrom",
      "outputs": [],
      "stateMutability": "nonpayable",
      "type": "function"
    },
    {
      "inputs": [
        {
          "internalType": "address",
          "name": "operator",
          "type": "address"
        },
        {
          "internalType": "bool",
          "name": "approved",
          "type": "bool"
        }
      ],
      "name": "setApprovalForAll",
      "outputs": [],
      "stateMutability": "nonpayable",
      "type": "function"
    },
    {
      "inputs": [],
      "name": "symbol",
      "outputs": [
        {
          "internalType": "string",
          "name": "",
          "type": "string"
        }
      ],
      "stateMutability": "view",
      "type": "function"
    },
    {
      "inputs": [
        {
          "internalType": "uint256",
          "name": "tokenId",
          "type": "uint256"
        }
      ],
      "name": "tokenURI",
      "outputs": [
        {
          "internalType": "string",
          "name": "",
          "type": "string"
        }
      ],
      "stateMutability": "view",
      "type": "function"
    },
    {
      "inputs": [
        {
          "internalType": "address",
          "name": "newOwner",
          "type": "address"
        }
      ],
      "name": "transferOwnership",
      "outputs": [],
      "stateMutability": "nonpayable",
      "type": "function"
    },
    {
      "inputs": [
        {
          "internalType": "address",
          "name": "_to",
          "type": "address"
        },
        {
          "components": [
            {
              "internalType": "uint256",
              "name": "class",
              "type": "uint256"
            },
            {
              "internalType": "uint256",
              "name": "level",
              "type": "uint256"
            },
            {
              "internalType": "uint256[10]",
              "name": "stats",
              "type": "uint256[10]"
            },
            {
              "internalType": "uint256[11]",
              "name": "gear",
              "type": "uint256[11]"
            }
          ],
          "internalType": "struct Characters.charData",
          "name": "data",
          "type": "tuple"
        }
      ],
      "name": "mint",
      "outputs": [],
      "stateMutability": "nonpayable",
      "type": "function"
    },
    {
      "inputs": [
        {
          "internalType": "uint256",
          "name": "player",
          "type": "uint256"
        },
        {
          "internalType": "uint256[11]",
          "name": "gear",
          "type": "uint256[11]"
        }
      ],
      "name": "equip",
      "outputs": [],
      "stateMutability": "nonpayable",
      "type": "function"
    },
    {
      "inputs": [
        {
          "internalType": "address",
          "name": "from",
          "type": "address"
        },
        {
          "internalType": "address",
          "name": "to",
          "type": "address"
        },
        {
          "internalType": "uint256",
          "name": "tokenId",
          "type": "uint256"
        }
      ],
      "name": "transferFrom",
      "outputs": [],
      "stateMutability": "nonpayable",
      "type": "function"
    },
    {
      "inputs": [
        {
          "internalType": "address",
          "name": "from",
          "type": "address"
        },
        {
          "internalType": "address",
          "name": "to",
          "type": "address"
        },
        {
          "internalType": "uint256",
          "name": "tokenId",
          "type": "uint256"
        }
      ],
      "name": "unequipAndTransferFrom",
      "outputs": [],
      "stateMutability": "nonpayable",
      "type": "function"
    },
    {
      "inputs": [
        {
          "internalType": "address",
          "name": "owner",
          "type": "address"
        }
      ],
      "name": "getCharacters",
      "outputs": [
        {
          "internalType": "uint256[]",
          "name": "",
          "type": "uint256[]"
        }
      ],
      "stateMutability": "view",
      "type": "function"
    },
    {
      "inputs": [
        {
          "internalType": "uint256",
          "name": "idPJ",
          "type": "uint256"
        }
      ],
      "name": "singleStats",
      "outputs": [
        {
          "internalType": "uint256[10]",
          "name": "",
          "type": "uint256[10]"
        }
      ],
      "stateMutability": "view",
      "type": "function"
    },
    {
      "inputs": [
        {
          "internalType": "uint256",
          "name": "idPJ",
          "type": "uint256"
        }
      ],
      "name": "calculatedStats",
      "outputs": [
        {
          "internalType": "uint256[10]",
          "name": "",
          "type": "uint256[10]"
        }
      ],
      "stateMutability": "view",
      "type": "function"
    },
    {
      "inputs": [
        {
          "internalType": "uint256",
          "name": "_tokenId",
          "type": "uint256"
        },
        {
          "internalType": "address payable",
          "name": "_royaltiesReceipientAddress",
          "type": "address"
        },
        {
          "internalType": "uint96",
          "name": "_percentageBasisPoints",
          "type": "uint96"
        }
      ],
      "name": "setRoyalties",
      "outputs": [],
      "stateMutability": "nonpayable",
      "type": "function"
    },
    {
      "inputs": [
        {
          "internalType": "uint256",
          "name": "_tokenId",
          "type": "uint256"
        },
        {
          "internalType": "uint256",
          "name": "_salePrice",
          "type": "uint256"
        }
      ],
      "name": "royaltyInfo",
      "outputs": [
        {
          "internalType": "address",
          "name": "receiver",
          "type": "address"
        },
        {
          "internalType": "uint256",
          "name": "royaltyAmount",
          "type": "uint256"
        }
      ],
      "stateMutability": "view",
      "type": "function"
    },
    {
      "inputs": [
        {
          "internalType": "bytes4",
          "name": "interfaceId",
          "type": "bytes4"
        }
      ],
      "name": "supportsInterface",
      "outputs": [
        {
          "internalType": "bool",
          "name": "",
          "type": "bool"
        }
      ],
      "stateMutability": "view",
      "type": "function"
    },
    {
      "inputs": [
        {
          "internalType": "address",
          "name": "owner",
          "type": "address"
        },
        {
          "internalType": "uint256",
          "name": "tokenId",
          "type": "uint256"
        }
      ],
      "name": "positionOf",
      "outputs": [
        {
          "internalType": "bool",
          "name": "",
          "type": "bool"
        },
        {
          "internalType": "uint256",
          "name": "",
          "type": "uint256"
        }
      ],
      "stateMutability": "view",
      "type": "function"
    },
    {
      "inputs": [
        {
          "internalType": "address",
          "name": "equipment",
          "type": "address"
        }
      ],
      "name": "setEquipmentAddress",
      "outputs": [],
      "stateMutability": "nonpayable",
      "type": "function"
    }
  ],
  "bytecode": "0x608060405260006025553480156200001657600080fd5b50604080518082018252601a81527f436861696e73206f6620476c6f7279204368617261637465727300000000000060208083019182528351808501909452600384527f434743000000000000000000000000000000000000000000000000000000000090840152815191929162000091916000916200038c565b508051620000a79060019060208401906200038c565b505050620000d6620000c762000174640100000000026401000000009004565b64010000000062000178810204565b620000fe6000620000ef64010000000062000174810204565b640100000000620001ca810204565b620001367f9f2df0fed2c77648de5860a4cc508cd0818c85b8b8a1ab4ceeef8d981c8956a6620000ef64010000000062000174810204565b6200016e7f3c11d16cbaffd01df69ce1c404f6340ee057498f5f00246190ea54220576a848620000ef64010000000062000174810204565b62000488565b3390565b60088054600160a060020a03838116600160a060020a0319831681179093556040519116919082907f8be0079c531659141344cd1fd0a4f28419497f9722a3daafe3b4186f6b6457e090600090a35050565b620001e4828264010000000062001c216200021182021704565b60008281526007602052604090206200020c908264010000000062001c2b6200022a82021704565b505050565b62000226828264010000000062000253810204565b5050565b60006200024a83600160a060020a038416640100000000620002f1810204565b90505b92915050565b62000268828264010000000062000349810204565b62000226576000828152600660209081526040808320600160a060020a03851684529091529020805460ff19166001179055620002ad64010000000062000174810204565b600160a060020a031681600160a060020a0316837f2f8788117e7eff1d82e926ec794901d17c78024a50270940304540a733656f0d60405160405180910390a45050565b600062000308838364010000000062000374810204565b62000340575081546001818101845560008481526020808220909301849055845484825282860190935260409020919091556200024d565b5060006200024d565b6000918252600660209081526040808420600160a060020a0393909316845291905290205460ff1690565b60009081526001919091016020526040902054151590565b8280546200039a9062000432565b90600052602060002090601f016020900481019282620003be576000855562000409565b82601f10620003d957805160ff191683800117855562000409565b8280016001018555821562000409579182015b8281111562000409578251825591602001919060010190620003ec565b50620004179291506200041b565b5090565b5b808211156200041757600081556001016200041c565b6002810460018216806200044757607f821691505b6020821081141562000482577f4e487b7100000000000000000000000000000000000000000000000000000000600052602260045260246000fd5b50919050565b61427d80620004986000396000f3fe608060405234801561001057600080fd5b50600436106102365760003560e060020a900480638da5cb5b11610134578063ad127c8a116100bc578063d539139311610080578063d539139314610577578063d547741f1461059e578063db20f89c146105b1578063e985e9c5146105c4578063f2fde38b1461060057600080fd5b8063ad127c8a146104fe578063b88d4fde1461051e578063c87b56dd14610531578063ca15c87314610544578063cad96cca1461055757600080fd5b8063968fae9411610103578063968fae9414610493578063a217fddf146104a6578063a22cb465146104ae578063a2846ad4146104c1578063a3fd0d99146104d457600080fd5b80638da5cb5b146104545780639010d07c1461046557806391d148541461047857806395d89b411461048b57600080fd5b80632f2ff15d116101c25780636352211e116101865780636352211e146103c757806370a08231146103da578063715018a6146103ed5780637b00aee5146103f55780638924af741461041557600080fd5b80632f2ff15d1461036857806336568abe1461037b578063377982031461038e57806342842e0e146103a157806359d36927146103b457600080fd5b8063143094db11610209578063143094db146102b857806323b872dd146102cb578063248a9ca3146102de578063282c51f31461030f5780632a55205a1461033657600080fd5b806301ffc9a71461023b57806306fdde0314610263578063081812fc14610278578063095ea7b3146102a3575b600080fd5b61024e610249366004613b99565b610613565b60405190151581526020015b60405180910390f35b61026b610698565b60405161025a9190613ee6565b61028b610286366004613b39565b61072a565b604051600160a060020a03909116815260200161025a565b6102b66102b1366004613af0565b6107d8565b005b6102b66102c6366004613c67565b610910565b6102b66102d93660046138f9565b6109fb565b6103016102ec366004613b39565b60009081526006602052604090206001015490565b60405190815260200161025a565b6103017f3c11d16cbaffd01df69ce1c404f6340ee057498f5f00246190ea54220576a84881565b610349610344366004613b77565b610a85565b60408051600160a060020a03909316835260208301919091520161025a565b6102b6610376366004613b52565b610ba6565b6102b6610389366004613b52565b610bc8565b6102b661039c366004613cba565b610bea565b6102b66103af3660046138f9565b610f1a565b6102b66103c2366004613a2c565b610f35565b61028b6103d5366004613b39565b611234565b6103016103e8366004613886565b6112c2565b6102b661135f565b610408610403366004613b39565b611398565b60405161025a9190613e70565b610428610423366004613b77565b61154c565b60408051600160a060020a0390931683526bffffffffffffffffffffffff90911660208301520161025a565b600854600160a060020a031661028b565b61028b610473366004613b77565b6115ab565b61024e610486366004613b52565b6115ca565b61026b6115f5565b6102b66104a13660046138f9565b611604565b610301600081565b6102b66104bc3660046139fe565b6116e4565b6102b66104cf366004613886565b6117ac565b6104e76104e2366004613af0565b611808565b60408051921515835260208301919091520161025a565b61051161050c366004613886565b611896565b60405161025a9190613ea2565b6102b661052c36600461393a565b611902565b61026b61053f366004613b39565b611937565b610301610552366004613b39565b611a54565b61056a610565366004613b39565b611a6b565b60405161025a9190613e5d565b6103017f9f2df0fed2c77648de5860a4cc508cd0818c85b8b8a1ab4ceeef8d981c8956a681565b6102b66105ac366004613b52565b611b10565b6104086105bf366004613b39565b611b1a565b61024e6105d23660046138c0565b600160a060020a03918216600090815260056020908152604080832093909416825291909152205460ff1690565b6102b661060e366004613886565b611b69565b6000600160e060020a031982167f44c74bcc00000000000000000000000000000000000000000000000000000000141561064f57506001919050565b600160e060020a031982167f2a55205a00000000000000000000000000000000000000000000000000000000141561068957506001919050565b61069282611c40565b92915050565b6060600080546106a790614124565b80601f01602080910402602001604051908101604052809291908181526020018280546106d390614124565b80156107205780601f106106f557610100808354040283529160200191610720565b820191906000526020600020905b81548152906001019060200180831161070357829003601f168201915b5050505050905090565b600081815260026020526040812054600160a060020a03166107bc5760405160e560020a62461bcd02815260206004820152602c60248201527f4552433732313a20617070726f76656420717565727920666f72206e6f6e657860448201527f697374656e7420746f6b656e000000000000000000000000000000000000000060648201526084015b60405180910390fd5b50600090815260046020526040902054600160a060020a031690565b60006107e382611234565b905080600160a060020a031683600160a060020a031614156108705760405160e560020a62461bcd02815260206004820152602160248201527f4552433732313a20617070726f76616c20746f2063757272656e74206f776e6560448201527f720000000000000000000000000000000000000000000000000000000000000060648201526084016107b3565b33600160a060020a038216148061088c575061088c81336105d2565b6109015760405160e560020a62461bcd02815260206004820152603860248201527f4552433732313a20617070726f76652063616c6c6572206973206e6f74206f7760448201527f6e6572206e6f7220617070726f76656420666f7220616c6c000000000000000060648201526084016107b3565b61090b8383611c7e565b505050565b600854600160a060020a0316331461093d5760405160e560020a62461bcd0281526004016107b390613f56565b604080516001808252818301909252600091816020015b60408051808201909152600080825260208201528152602001906001900390816109545790505090508181600081518110610991576109916141dc565b6020026020010151602001906bffffffffffffffffffffffff1690816bffffffffffffffffffffffff168152505082816000815181106109d3576109d36141dc565b6020908102919091010151600160a060020a0390911690526109f58482611cf9565b50505050565b610a0481611e9e565b15610a7a5760405160e560020a62461bcd02815260206004820152603960248201527f457863657074696f6e3a2063616e6e6f74207472616e73666572206120706c6160448201527f7965722077656172696e6720616e792065717569706d656e740000000000000060648201526084016107b3565b61090b838383611f9f565b6000828152600960209081526040808320805482518185028101850190935280835284938493929190849084015b82821015610b185760008481526020908190206040805180820190915290840154600160a060020a03811682527401000000000000000000000000000000000000000090046bffffffffffffffffffffffff1681830152825260019092019101610ab3565b505050509050600081511115610b965780600081518110610b3b57610b3b6141dc565b60200260200101516000015161271082600081518110610b5d57610b5d6141dc565b6020026020010151602001516bffffffffffffffffffffffff1686610b8291906140ab565b610b8c9190614097565b9250925050610b9f565b60008092509250505b9250929050565b610bb08282611fd2565b600082815260076020526040902061090b9082611c2b565b610bd28282611ff8565b600082815260076020526040902061090b9082612083565b60008281526023602052604090205415610c6f5760405160e560020a62461bcd02815260206004820152602160248201527f457863657074696f6e3a2043616e6e6f7420657175697020616e20656e656d7960448201527f210000000000000000000000000000000000000000000000000000000000000060648201526084016107b3565b33610c7983611234565b600160a060020a031614610cf85760405160e560020a62461bcd02815260206004820152602f60248201527f457863657074696f6e3a206d757374206265206f776e6572206f66207468652060448201527f706c6179657220746f206571756970000000000000000000000000000000000060648201526084016107b3565b610d0181612098565b610d765760405160e560020a62461bcd02815260206004820152603260248201527f457863657074696f6e3a20736f6d652067656172207573656420646f6573206e60448201527f6f742065786973747320696e206571756970000000000000000000000000000060648201526084016107b3565b610d88610d8283611234565b82612169565b610dfd5760405160e560020a62461bcd02815260206004820152603060248201527f457863657074696f6e3a20706c6179657220646f6573206e6f74206f776e206160448201527f6c6c206765617220696e2065717569700000000000000000000000000000000060648201526084016107b3565b610e0681612311565b610e7b5760405160e560020a62461bcd02815260206004820152603b60248201527f457863657074696f6e3a20736f6d652067656172206973206e6f7420696e207460448201527f6865206170726f70726961746520736c6f7420696e206571756970000000000060648201526084016107b3565b610e85828261241a565b15610efd576040805160e560020a62461bcd0281526020600482015260248101919091527f457863657074696f6e3a20736f6d65206765617220697320616c72656164792060448201527f6571756970656420696e206f7468657220706c6179657220696e20657175697060648201526084016107b3565b600082815260236020526040902061090b90600c0182600b6136f9565b61090b83838360405180602001604052806000815250611902565b610f5f7f9f2df0fed2c77648de5860a4cc508cd0818c85b8b8a1ab4ceeef8d981c8956a6336115ca565b610fd45760405160e560020a62461bcd02815260206004820152602860248201527f457863657074696f6e3a206d7573742068617665206d696e74657220726f6c6560448201527f20746f206d696e7400000000000000000000000000000000000000000000000060648201526084016107b3565b610fe18160600151612098565b6110565760405160e560020a62461bcd02815260206004820152603160248201527f457863657074696f6e3a20736f6d652067656172207573656420646f6573206e60448201527f6f742065786973747320696e206d696e7400000000000000000000000000000060648201526084016107b3565b611064828260600151612169565b6110d95760405160e560020a62461bcd02815260206004820152602f60248201527f457863657074696f6e3a20706c6179657220646f6573206e6f74206f776e206160448201527f6c6c206765617220696e206d696e74000000000000000000000000000000000060648201526084016107b3565b6110e68160600151612311565b61115b5760405160e560020a62461bcd02815260206004820152603a60248201527f457863657074696f6e3a20736f6d652067656172206973206e6f7420696e207460448201527f6865206170726f70726961746520736c6f7420696e206d696e7400000000000060648201526084016107b3565b611169828260600151612614565b156111df5760405160e560020a62461bcd02815260206004820152603f60248201527f457863657074696f6e3a20736f6d65206765617220697320616c72656164792060448201527f6571756970656420696e206f7468657220706c6179657220696e206d696e740060648201526084016107b3565b8051600c9081556020820151600d55604082015182919061120490600e90600a613737565b50606082015161121a90600c830190600b6136f9565b509050506112308261122b600a5490565b6127b8565b5050565b600081815260026020526040812054600160a060020a0316806106925760405160e560020a62461bcd02815260206004820152602960248201527f4552433732313a206f776e657220717565727920666f72206e6f6e657869737460448201527f656e7420746f6b656e000000000000000000000000000000000000000000000060648201526084016107b3565b6000600160a060020a0382166113435760405160e560020a62461bcd02815260206004820152602a60248201527f4552433732313a2062616c616e636520717565727920666f7220746865207a6560448201527f726f20616464726573730000000000000000000000000000000000000000000060648201526084016107b3565b50600160a060020a031660009081526003602052604090205490565b600854600160a060020a0316331461138c5760405160e560020a62461bcd0281526004016107b390613f56565b6113966000612919565b565b6113a0613764565b60008281526023602052604080822081516101408101909252600201600a8282826020028201915b8154815260200190600101908083116113c8575050505050905060005b60008490526023602052600b811015611545576000848152602360205260409020600c0181600b811061141a5761141a6141dc565b01541561153357600b805460008681526023602052604081209092600160a060020a039092169163db20f89c91600c01908590811061145b5761145b6141dc565b01546040518263ffffffff1660e060020a02815260040161147e91815260200190565b6101a06040518083038186803b15801561149757600080fd5b505afa1580156114ab573d6000803e3d6000fd5b505050506040513d601f19601f820116820180604052508101906114cf9190613bd3565b905060005b600a81101561153057816060015181600a81106114f3576114f36141dc565b60200201518482600a811061150a5761150a6141dc565b6020020181815161151b919061407f565b9052508061152881614162565b9150506114d4565b50505b8061153d81614162565b9150506113e5565b5092915050565b6009602052816000526040600020818154811061156857600080fd5b600091825260209091200154600160a060020a03811692507401000000000000000000000000000000000000000090046bffffffffffffffffffffffff16905082565b60008281526007602052604081206115c39083612978565b9392505050565b6000918252600660209081526040808420600160a060020a0393909316845291905290205460ff1690565b6060600180546106a790614124565b61160f335b82612984565b61162e5760405160e560020a62461bcd0281526004016107b390613f8b565b600081815260236020526040902054156116b35760405160e560020a62461bcd02815260206004820152602360248201527f457863657074696f6e3a2043616e6e6f7420756e657175697020616e20656e6560448201527f6d7921000000000000000000000000000000000000000000000000000000000060648201526084016107b3565b6116bb613783565b60008281526023602052604090206116d890600c0182600b6136f9565b506109f58484846109fb565b600160a060020a0382163314156117405760405160e560020a62461bcd02815260206004820152601960248201527f4552433732313a20617070726f766520746f2063616c6c65720000000000000060448201526064016107b3565b336000818152600560209081526040808320600160a060020a03871680855290835292819020805460ff191686151590811790915590519081529192917f17307eab39ab6107e8899845ad3d59bd9653f200f220920489ca2b5937696c31910160405180910390a35050565b600854600160a060020a031633146117d95760405160e560020a62461bcd0281526004016107b390613f56565b600b805473ffffffffffffffffffffffffffffffffffffffff1916600160a060020a0392909216919091179055565b60008060005b600160a060020a03851660009081526024602052604090205481101561188957600160a060020a038516600090815260246020526040902080548591908390811061185b5761185b6141dc565b9060005260206000200154141561187757600192509050610b9f565b8061188181614162565b91505061180e565b5060009485945092505050565b600160a060020a0381166000908152602460209081526040918290208054835181840281018401909452808452606093928301828280156118f657602002820191906000526020600020905b8154815260200190600101908083116118e2575b50505050509050919050565b61190c3383612984565b61192b5760405160e560020a62461bcd0281526004016107b390613f8b565b6109f584848484612a8f565b600081815260026020526040902054606090600160a060020a03166119c75760405160e560020a62461bcd02815260206004820152602f60248201527f4552433732314d657461646174613a2055524920717565727920666f72206e6f60448201527f6e6578697374656e7420746f6b656e000000000000000000000000000000000060648201526084016107b3565b6000611a0360408051808201909152601f81527f68747470733a2f2f6578616d706c65646f6d61696e2f6d657461646174612f00602082015290565b90506000815111611a2357604051806020016040528060008152506115c3565b80611a2d84612ac5565b604051602001611a3e929190613d71565b6040516020818303038152906040529392505050565b600081815260076020526040812061069290612bfe565b606060096000838152602001908152602001600020805480602002602001604051908101604052809291908181526020016000905b82821015611b055760008481526020908190206040805180820190915290840154600160a060020a03811682527401000000000000000000000000000000000000000090046bffffffffffffffffffffffff1681830152825260019092019101611aa0565b505050509050919050565b610bd28282612c08565b611b22613764565b6000828152602360205260409081902081516101408101909252600201600a8282826020028201918154815260200190600101908083116118e25750505050509050919050565b600854600160a060020a03163314611b965760405160e560020a62461bcd0281526004016107b390613f56565b600160a060020a038116611c155760405160e560020a62461bcd02815260206004820152602660248201527f4f776e61626c653a206e6577206f776e657220697320746865207a65726f206160448201527f646472657373000000000000000000000000000000000000000000000000000060648201526084016107b3565b611c1e81612919565b50565b6112308282612c2e565b60006115c383600160a060020a038416612cb4565b6000600160e060020a031982167f5a05180f000000000000000000000000000000000000000000000000000000001480610692575061069282612d03565b6000818152600460205260409020805473ffffffffffffffffffffffffffffffffffffffff1916600160a060020a0384169081179091558190611cc082611234565b600160a060020a03167f8c5be1e5ebec7d5bd14f71427d1e84f3dd0314c0f7b2291e5b200ac8c7c3b92560405160405180910390a45050565b60005b8151811015611e93576000600160a060020a0316828281518110611d2257611d226141dc565b602002602001015160000151600160a060020a03161415611d885760405160e560020a62461bcd02815260206004820152601b60248201527f526563697069656e742073686f756c642062652070726573656e74000000000060448201526064016107b3565b818181518110611d9a57611d9a6141dc565b6020026020010151602001516bffffffffffffffffffffffff1660001415611e075760405160e560020a62461bcd02815260206004820181905260248201527f526f79616c74792076616c75652073686f756c6420626520706f73697469766560448201526064016107b3565b60008381526009602052604090208251839083908110611e2957611e296141dc565b6020908102919091018101518254600181018455600093845292829020815191909201516bffffffffffffffffffffffff167401000000000000000000000000000000000000000002600160a060020a039091161791015580611e8b81614162565b915050611cfc565b506112308282612d41565b600081815260236020908152604080832081516080810183528154815260018201549381019390935281516101408101808452859493840191906002840190600a9082845b815481526020019060010190808311611ee35750505091835250506040805161016081019182905260209092019190600c840190600b9082845b815481526020019060010190808311611f1d5750505091909252505081519192505015611f4d5750600092915050565b60005b600b811015611f9557816060015181600b8110611f6f57611f6f6141dc565b602002015115611f83575060019392505050565b80611f8d81614162565b915050611f50565b5060009392505050565b611fa833611609565b611fc75760405160e560020a62461bcd0281526004016107b390613f8b565b61090b838383612d7e565b600082815260066020526040902060010154611fee8133612f69565b61090b8383612c2e565b600160a060020a03811633146120795760405160e560020a62461bcd02815260206004820152602f60248201527f416363657373436f6e74726f6c3a2063616e206f6e6c792072656e6f756e636560448201527f20726f6c657320666f722073656c66000000000000000000000000000000000060648201526084016107b3565b6112308282612fd0565b60006115c383600160a060020a038416613037565b6000805b600b81101561216057600b8054600160a060020a031690634f558e79908590849081106120cb576120cb6141dc565b60200201516040518263ffffffff1660e060020a0281526004016120f191815260200190565b60206040518083038186803b15801561210957600080fd5b505afa15801561211d573d6000803e3d6000fd5b505050506040513d601f19601f820116820180604052508101906121419190613b1c565b61214e5750600092915050565b8061215881614162565b91505061209c565b50600192915050565b6000805b600b81101561230757600b8054600160a060020a031690634f558e799085908490811061219c5761219c6141dc565b60200201516040518263ffffffff1660e060020a0281526004016121c291815260200190565b60206040518083038186803b1580156121da57600080fd5b505afa1580156121ee573d6000803e3d6000fd5b505050506040513d601f19601f820116820180604052508101906122129190613b1c565b612220576000915050610692565b8281600b8110612232576122326141dc565b6020020151156122f557600b8054600160a060020a0380871692911690636352211e90869085908110612267576122676141dc565b60200201516040518263ffffffff1660e060020a02815260040161228d91815260200190565b60206040518083038186803b1580156122a557600080fd5b505afa1580156122b9573d6000803e3d6000fd5b505050506040513d601f19601f820116820180604052508101906122dd91906138a3565b600160a060020a0316146122f5576000915050610692565b806122ff81614162565b91505061216d565b5060019392505050565b6000805b600b811015612160578281600b8110612330576123306141dc565b60200201511561240857600b8054600091600160a060020a039091169063db20f89c90869085908110612365576123656141dc565b60200201516040518263ffffffff1660e060020a02815260040161238b91815260200190565b6101a06040518083038186803b1580156123a457600080fd5b505afa1580156123b8573d6000803e3d6000fd5b505050506040513d601f19601f820116820180604052508101906123dc9190613bd3565b905080602001516064141580156123f7575081816020015114155b15612406575060009392505050565b505b8061241281614162565b915050612315565b60008061242684611234565b905060005b600160a060020a03821660009081526024602052604090205481101561260957600160a060020a0382166000908152602460205260409020805486919083908110612478576124786141dc565b9060005260206000200154146125f757600160a060020a038216600090815260246020526040812080546023918391859081106124b7576124b76141dc565b90600052602060002001548152602001908152602001600020604051806080016040529081600082015481526020016001820154815260200160028201600a806020026040519081016040528092919082600a801561252b576020028201915b815481526020019060010190808311612517575b50505091835250506040805161016081019182905260209092019190600c840190600b9082845b81548152602001906001019080831161255257505050505081525050905060005b600b8110156125f4578581600b811061258e5761258e6141dc565b6020020151826060015182600b81106125a9576125a96141dc565b60200201511480156125d057508581600b81106125c8576125c86141dc565b602002015115155b156125e2576001945050505050610692565b806125ec81614162565b915050612573565b50505b8061260181614162565b91505061242b565b506000949350505050565b6000805b600160a060020a038416600090815260246020526040902054811015611f9557600160a060020a03841660009081526024602052604081208054602391839185908110612667576126676141dc565b90600052602060002001548152602001908152602001600020604051806080016040529081600082015481526020016001820154815260200160028201600a806020026040519081016040528092919082600a80156126db576020028201915b8154815260200190600101908083116126c7575b50505091835250506040805161016081019182905260209092019190600c840190600b9082845b81548152602001906001019080831161270257505050505081525050905060005b600b8110156127a3578481600b811061273e5761273e6141dc565b6020020151826060015182600b8110612759576127596141dc565b602002015114801561278057508481600b8110612778576127786141dc565b602002015115155b156127915760019350505050610692565b8061279b81614162565b915050612723565b505080806127b090614162565b915050612618565b600160a060020a0382166128115760405160e560020a62461bcd02815260206004820181905260248201527f4552433732313a206d696e7420746f20746865207a65726f206164647265737360448201526064016107b3565b600081815260026020526040902054600160a060020a0316156128795760405160e560020a62461bcd02815260206004820152601c60248201527f4552433732313a20746f6b656e20616c7265616479206d696e7465640000000060448201526064016107b3565b6128856000838361312a565b600160a060020a03821660009081526003602052604081208054600192906128ae90849061407f565b9091555050600081815260026020526040808220805473ffffffffffffffffffffffffffffffffffffffff1916600160a060020a03861690811790915590518392907fddf252ad1be2c89b69c2b068fc378daa952ba7f163c4a11628f55a4df523b3ef908290a45050565b60088054600160a060020a0383811673ffffffffffffffffffffffffffffffffffffffff19831681179093556040519116919082907f8be0079c531659141344cd1fd0a4f28419497f9722a3daafe3b4186f6b6457e090600090a35050565b60006115c38383613211565b600081815260026020526040812054600160a060020a0316612a115760405160e560020a62461bcd02815260206004820152602c60248201527f4552433732313a206f70657261746f7220717565727920666f72206e6f6e657860448201527f697374656e7420746f6b656e000000000000000000000000000000000000000060648201526084016107b3565b6000612a1c83611234565b905080600160a060020a031684600160a060020a03161480612a57575083600160a060020a0316612a4c8461072a565b600160a060020a0316145b80612a875750600160a060020a0380821660009081526005602090815260408083209388168352929052205460ff165b949350505050565b612a9a848484612d7e565b612aa68484848461323b565b6109f55760405160e560020a62461bcd0281526004016107b390613ef9565b606081612b0557505060408051808201909152600181527f3000000000000000000000000000000000000000000000000000000000000000602082015290565b8160005b8115612b2f5780612b1981614162565b9150612b289050600a83614097565b9150612b09565b60008167ffffffffffffffff811115612b4a57612b4a6141f5565b6040519080825280601f01601f191660200182016040528015612b74576020820181803683370190505b5090505b8415612a8757612b896001836140ca565b9150612b96600a8661417d565b612ba190603061407f565b7f010000000000000000000000000000000000000000000000000000000000000002818381518110612bd557612bd56141dc565b6020010190600160f860020a031916908160001a905350612bf7600a86614097565b9450612b78565b6000610692825490565b600082815260066020526040902060010154612c248133612f69565b61090b8383612fd0565b612c3882826115ca565b611230576000828152600660209081526040808320600160a060020a03851684529091529020805460ff19166001179055612c703390565b600160a060020a031681600160a060020a0316837f2f8788117e7eff1d82e926ec794901d17c78024a50270940304540a733656f0d60405160405180910390a45050565b6000818152600183016020526040812054612cfb57508154600181810184556000848152602080822090930184905584548482528286019093526040902091909155610692565b506000610692565b6000600160e060020a031982167f7965db0b00000000000000000000000000000000000000000000000000000000148061069257506106928261337d565b7f3fa96d7b6bcbfe71ef171666d84db3cf52fa2d1c8afdb1cc8e486177f208b7df8282604051612d72929190613fe8565b60405180910390a15050565b82600160a060020a0316612d9182611234565b600160a060020a031614612e105760405160e560020a62461bcd02815260206004820152602960248201527f4552433732313a207472616e73666572206f6620746f6b656e2074686174206960448201527f73206e6f74206f776e000000000000000000000000000000000000000000000060648201526084016107b3565b600160a060020a038216612e8e5760405160e560020a62461bcd028152602060048201526024808201527f4552433732313a207472616e7366657220746f20746865207a65726f2061646460448201527f726573730000000000000000000000000000000000000000000000000000000060648201526084016107b3565b612e9983838361312a565b612ea4600082611c7e565b600160a060020a0383166000908152600360205260408120805460019290612ecd9084906140ca565b9091555050600160a060020a0382166000908152600360205260408120805460019290612efb90849061407f565b9091555050600081815260026020526040808220805473ffffffffffffffffffffffffffffffffffffffff1916600160a060020a0386811691821790925591518493918716917fddf252ad1be2c89b69c2b068fc378daa952ba7f163c4a11628f55a4df523b3ef91a4505050565b612f7382826115ca565b61123057612f8b81600160a060020a03166014613418565b612f96836020613418565b604051602001612fa7929190613da0565b60408051601f198184030181529082905260e560020a62461bcd0282526107b391600401613ee6565b612fda82826115ca565b15611230576000828152600660209081526040808320600160a060020a0385168085529252808320805460ff1916905551339285917ff6391f5c32d9c69d2a47ea670b442974b53935d1edc7fd64eb21e047a839171b9190a45050565b6000818152600183016020526040812054801561312057600061305b6001836140ca565b855490915060009061306f906001906140ca565b90508181146130d457600086600001828154811061308f5761308f6141dc565b90600052602060002001549050808760000184815481106130b2576130b26141dc565b6000918252602080832090910192909255918252600188019052604090208390555b85548690806130e5576130e56141c3565b600190038181906000526020600020016000905590558560010160008681526020019081526020016000206000905560019350505050610692565b6000915050610692565b600160a060020a0383166131c457600c60236000613147600a5490565b8152602081019190915260400160002081548155600180830154908201556131776002808301908401600a6137a2565b5061318a600c828101908401600b6137cd565b5050600a8054600101905550600160a060020a03919091166000908152602460209081526040822080546001810182559083529120015550565b600160a060020a0382166131dc5761090b838261361a565b600160a060020a03821660009081526024602090815260408220805460018101825590835291200181905561090b838261361a565b6000826000018281548110613228576132286141dc565b9060005260206000200154905092915050565b6000600160a060020a0384163b15613372576040517f150b7a02000000000000000000000000000000000000000000000000000000008152600160a060020a0385169063150b7a0290613298903390899088908890600401613e21565b602060405180830381600087803b1580156132b257600080fd5b505af19250505080156132e2575060408051601f3d908101601f191682019092526132df91810190613bb6565b60015b61333f573d808015613310576040519150601f19603f3d011682016040523d82523d6000602084013e613315565b606091505b5080516133375760405160e560020a62461bcd0281526004016107b390613ef9565b805181602001fd5b600160e060020a0319167f150b7a0200000000000000000000000000000000000000000000000000000000149050612a87565b506001949350505050565b6000600160e060020a031982167f80ac58cd0000000000000000000000000000000000000000000000000000000014806133e05750600160e060020a031982167f5b5e139f00000000000000000000000000000000000000000000000000000000145b8061069257507f01ffc9a700000000000000000000000000000000000000000000000000000000600160e060020a0319831614610692565b606060006134278360026140ab565b61343290600261407f565b67ffffffffffffffff81111561344a5761344a6141f5565b6040519080825280601f01601f191660200182016040528015613474576020820181803683370190505b5090507f3000000000000000000000000000000000000000000000000000000000000000816000815181106134ab576134ab6141dc565b6020010190600160f860020a031916908160001a9053507f7800000000000000000000000000000000000000000000000000000000000000816001815181106134f6576134f66141dc565b6020010190600160f860020a031916908160001a905350600061351a8460026140ab565b61352590600161407f565b90505b60018111156135c8577f303132333435363738396162636465660000000000000000000000000000000085600f1660108110613566576135666141dc565b1a7f01000000000000000000000000000000000000000000000000000000000000000282828151811061359b5761359b6141dc565b6020010190600160f860020a031916908160001a9053506010909404936135c18161410d565b9050613528565b5083156115c35760405160e560020a62461bcd02815260206004820181905260248201527f537472696e67733a20686578206c656e67746820696e73756666696369656e7460448201526064016107b3565b6000806136278484611808565b9150915081156109f557600160a060020a03841660009081526024602052604090208054613657906001906140ca565b81548110613667576136676141dc565b90600052602060002001546024600086600160a060020a0316600160a060020a0316815260200190815260200160002082815481106136a8576136a86141dc565b6000918252602080832090910192909255600160a060020a03861681526024909152604090208054806136dd576136dd6141c3565b6001900381819060005260206000200160009055905550505050565b82600b8101928215613727579160200282015b8281111561372757825182559160200191906001019061370c565b506137339291506137f7565b5090565b82600a8101928215613727579160200282018281111561372757825182559160200191906001019061370c565b604051806101400160405280600a906020820280368337509192915050565b604051806101600160405280600b906020820280368337509192915050565b82600a8101928215613727579182015b828111156137275782548255916001019190600101906137b2565b82600b810192821561372757918201828111156137275782548255916001019190600101906137b2565b5b8082111561373357600081556001016137f8565b600082601f83011261381d57600080fd5b60405161016080820182811067ffffffffffffffff82111715613842576138426141f5565b604052818482810187101561385657600080fd5b600092505b600b83101561387b5780358252600192909201916020918201910161385b565b509195945050505050565b60006020828403121561389857600080fd5b81356115c38161420e565b6000602082840312156138b557600080fd5b81516115c38161420e565b600080604083850312156138d357600080fd5b82356138de8161420e565b915060208301356138ee8161420e565b809150509250929050565b60008060006060848603121561390e57600080fd5b83356139198161420e565b925060208401356139298161420e565b929592945050506040919091013590565b6000806000806080858703121561395057600080fd5b843561395b8161420e565b935060208581013561396c8161420e565b935060408601359250606086013567ffffffffffffffff8082111561399057600080fd5b818801915088601f8301126139a457600080fd5b8135818111156139b6576139b66141f5565b6139c8601f8201601f1916850161404e565b915080825289848285010111156139de57600080fd5b808484018584013760008482840101525080935050505092959194509250565b60008060408385031215613a1157600080fd5b8235613a1c8161420e565b915060208301356138ee81614223565b600080828403610300811215613a4157600080fd5b8335613a4c8161420e565b925060206102e0601f1983011215613a6357600080fd5b613a6b614001565b915080850135825260408501358183015285607f860112613a8b57600080fd5b613a9361402a565b80606087016101a0880189811115613aaa57600080fd5b60005b600a811015613aca57823585529385019391850191600101613aad565b50826040870152613adb8a8261380c565b60608701525050505050809150509250929050565b60008060408385031215613b0357600080fd5b8235613b0e8161420e565b946020939093013593505050565b600060208284031215613b2e57600080fd5b81516115c381614223565b600060208284031215613b4b57600080fd5b5035919050565b60008060408385031215613b6557600080fd5b8235915060208301356138ee8161420e565b60008060408385031215613b8a57600080fd5b50508035926020909101359150565b600060208284031215613bab57600080fd5b81356115c381614231565b600060208284031215613bc857600080fd5b81516115c381614231565b60006101a0808385031215613be757600080fd5b613bef614001565b83518152602080850151818301526040850151604083015285607f860112613c1657600080fd5b613c1e61402a565b8060608701888689011115613c3257600080fd5b600095505b600a861015613c56578051835260019590950194918301918301613c37565b506060840152509095945050505050565b600080600060608486031215613c7c57600080fd5b833592506020840135613c8e8161420e565b915060408401356bffffffffffffffffffffffff81168114613caf57600080fd5b809150509250925092565b6000806101808385031215613cce57600080fd5b82359150613cdf846020850161380c565b90509250929050565b600081518084526020808501945080840160005b83811015613d3a5781518051600160a060020a031688528301516bffffffffffffffffffffffff168388015260409096019590820190600101613cfc565b509495945050505050565b60008151808452613d5d8160208601602086016140e1565b601f01601f19169290920160200192915050565b60008351613d838184602088016140e1565b835190830190613d978183602088016140e1565b01949350505050565b7f416363657373436f6e74726f6c3a206163636f756e7420000000000000000000815260008351613dd88160178501602088016140e1565b7f206973206d697373696e6720726f6c65200000000000000000000000000000006017918401918201528351613e158160288401602088016140e1565b01602801949350505050565b6000600160a060020a03808716835280861660208401525083604083015260806060830152613e536080830184613d45565b9695505050505050565b6020815260006115c36020830184613ce8565b6101408101818360005b600a811015613e99578151835260209283019290910190600101613e7a565b50505092915050565b6020808252825182820181905260009190848201906040850190845b81811015613eda57835183529284019291840191600101613ebe565b50909695505050505050565b6020815260006115c36020830184613d45565b60208082526032908201527f4552433732313a207472616e7366657220746f206e6f6e20455243373231526560408201527f63656976657220696d706c656d656e7465720000000000000000000000000000606082015260800190565b6020808252818101527f4f776e61626c653a2063616c6c6572206973206e6f7420746865206f776e6572604082015260600190565b60208082526031908201527f4552433732313a207472616e736665722063616c6c6572206973206e6f74206f60408201527f776e6572206e6f7220617070726f766564000000000000000000000000000000606082015260800190565b828152604060208201526000612a876040830184613ce8565b6040516080810167ffffffffffffffff81118282101715614024576140246141f5565b60405290565b604051610140810167ffffffffffffffff81118282101715614024576140246141f5565b604051601f8201601f1916810167ffffffffffffffff81118282101715614077576140776141f5565b604052919050565b6000821982111561409257614092614191565b500190565b6000826140a6576140a66141aa565b500490565b60008160001904831182151516156140c5576140c5614191565b500290565b6000828210156140dc576140dc614191565b500390565b60005b838110156140fc5781810151838201526020016140e4565b838111156109f55750506000910152565b60008161411c5761411c614191565b506000190190565b60028104600182168061413857607f821691505b6020821081141561415c5760e060020a634e487b7102600052602260045260246000fd5b50919050565b600060001982141561417657614176614191565b5060010190565b60008261418c5761418c6141aa565b500690565b60e060020a634e487b7102600052601160045260246000fd5b60e060020a634e487b7102600052601260045260246000fd5b60e060020a634e487b7102600052603160045260246000fd5b60e060020a634e487b7102600052603260045260246000fd5b60e060020a634e487b7102600052604160045260246000fd5b600160a060020a0381168114611c1e57600080fd5b8015158114611c1e57600080fd5b600160e060020a031981168114611c1e57600080fdfea26469706673582212206a86d9ccbc59bb4066c9bde1a79dbbca202ee20ab02398e1e6ac382bd4ed9aad64736f6c63430008060033",
  "immutableReferences": {},
  "source": "//SPDX-License-Identifier: MIT\npragma solidity ^0.8.0;\n\nimport \"@openzeppelin/contracts/token/ERC721/ERC721.sol\";\nimport \"@openzeppelin/contracts/access/Ownable.sol\";\nimport \"@openzeppelin/contracts/access/AccessControlEnumerable.sol\";\nimport \"@openzeppelin/contracts/utils/Counters.sol\";\nimport \"./rarible/royalties/contracts/impl/RoyaltiesV2Impl.sol\";\nimport \"./rarible/royalties/contracts/LibPart.sol\";\nimport \"./rarible/royalties/contracts/LibRoyaltiesV2.sol\";\n\nimport \"./Equipment.sol\";\n\n/*\nCharacters will contains both Players and Enemies\nConsicderations:\nMay equip any player with gear you own, but only if this gear is not used in any other player you own\nCannot equip any enemy. Only equiped at crestion time\nPlayers may be transfered only when naked (no wearing any gear)\nEnemies may be transferef always full equiped. This is an exception\nWhen equip a player, all current equipment is unequiped and substituted by new one\nCalls to funtion 'equip' allways send full equip structure\n*/\n\ncontract Characters is ERC721, AccessControlEnumerable, Ownable, RoyaltiesV2Impl {\n\n    using Counters for Counters.Counter;\n    Counters.Counter private _tokenIdTracker;\n    \n    //Adds support for OpenSea\n    bytes4 private constant _INTERFACE_ID_ERC2981 = 0x2a55205a;\n\n    //Roles of monter and burner\n    bytes32 public constant MINTER_ROLE = keccak256(\"MINTER_ROLE\");\n    bytes32 public constant BURNER_ROLE = keccak256(\"BURNER_ROLE\");\n\n    Equipment internal _gearNFT;      //Address of equipement NFT SC\n\n\n    //Stats of players and enemies\n    struct charData {\n        uint256 class;\t        //Internal class 0 for player, index of enemies\n        uint256 level;      \t//By default is 0. Evolvable NFTs may upgrade this level\n        uint256[10] stats;      //0-Health 1-Vitality 2-Attack 3-Defense 4-Mastery \n                                //5-Speed 6-Luck 7-Faith 8-reserved 9-reserved\n        uint256[11] gear;       //0-Head 1-Neck 2-Chest 3-Belt 4-Legs 5-Feet 6-Arms \n                                //7-RHand (weapon) 8-LHand(complement) 9-Finger 10-Mount\n                                //NOTE: slot #0 in the Equipment SC means wildcard\n                                //That means that what is in gear[n] matches slot n+1 in Equipment struct\n                                //NOTE: Value 0 in any position means empty.\n    }\n\n    //Used by _beforeTokenTransfer to catch the after minting\n    charData private statsToMint;\n\n\n    //Mapping from NFT to struct\n    mapping(uint256 => charData) private values;\n\n    // Mapping from owner address to token ID. It is used to quickly get all NFTs off an address\n    mapping(address => uint256[]) private _tokensByOwner;\n\n    //Generic random counter, used to add a bit more of entropy\n    uint randomNonce=0;\n\n    constructor() ERC721(\"Chains of Glory Characters\", \"CGC\")  {\n        _setupRole(DEFAULT_ADMIN_ROLE, _msgSender());\n\n        _setupRole(MINTER_ROLE, _msgSender());\n        _setupRole(BURNER_ROLE, _msgSender());\n    }\n\n    //Creation of a player or enemy\n    //Only MINTER_ROLE may create a player or enemy\n    //May equip it only with owned gear (nor weared in another player)\n    //It is the only place where contracts owners may equip an enemy\n    //Can only equip existing gear\n    //Can only equip with owned gear\n    //Verifies that gear is in the apropriate slot\n    //Can only equip gear not used in another players\n    function mint(address _to, charData memory data) public {\n        require(hasRole(MINTER_ROLE, _msgSender()), \"Exception: must have minter role to mint\");\n        require(gearExists(data.gear), \"Exception: some gear used does not exists in mint\");\n        require(ownAllGear(_to, data.gear), \"Exception: player does not own all gear in mint\");\n        require(gearSlotOk(data.gear), \"Exception: some gear is not in the apropriate slot in mint\");\n        require(!alreadyEquiped(_to, data.gear), \"Exception: some gear is already equiped in other player in mint\");\n        \n        //Stores the struct to assign when mint os ok\n        statsToMint=data;\n        super._mint(_to, _tokenIdTracker.current()); \n    }\n\n    //Equip al gear pased in the arrat\n    //The previous gear is replaced by the new one\n    //Cannot equip enemies\n    //Can only equip a player owned\n    //Can only equip existing gear\n    //Can only equip with owned gear\n    //Verifies that gear is in the apropriate slot\n    //Can only equip gear not used in another players\n    function equip(uint256 player, uint256[11] memory gear) public {\n        require(values[player].class == 0, \"Exception: Cannot equip an enemy!\");\n        require(ownerOf(player) == _msgSender(), \"Exception: must be owner of the player to equip\");\n        require(gearExists(gear), \"Exception: some gear used does not exists in equip\");\n        require(ownAllGear(ownerOf(player), gear), \"Exception: player does not own all gear in equip\");\n        require(gearSlotOk(gear), \"Exception: some gear is not in the apropriate slot in equip\");\n        require(!alreadyEquipedInOtherPlayer(player, gear), \"Exception: some gear is already equiped in other player in equip\");\n        \n        //Stores the struct to assign when mint os ok\n        values[player].gear=gear;\n    }\n    \n    //Override of the transfer function\n    //Verify that player has no equipment before transfer it\n    //hasEquipment do not test the enemies, remember that enemies are only cellectibles for users\n    function transferFrom(\n        address from,\n        address to,\n        uint256 tokenId\n    ) public virtual override {\n        require(!hasEquipment(tokenId), \"Exception: cannot transfer a player wearing any equipment\");\n\n        super.transferFrom(from, to, tokenId);\n    }\n\n    //Unequip a player before transfer ir\n    //This function has been created to optimize the transfer process\n    //All gear remains at owner wallet\n    function unequipAndTransferFrom(\n        address from,\n        address to,\n        uint256 tokenId\n    ) public {\n        //Vefiory unequip a player test that sender is owner\n        require(_isApprovedOrOwner(_msgSender(), tokenId), \"ERC721: transfer caller is not owner nor approved\");\n        require(values[tokenId].class == 0, \"Exception: Cannot unequip an enemy!\");\n        /*\n        charData memory data=values[tokenId];\n        for(uint j=0; j<data.gear.length; j++) {\n            data.gear[j]=0;\n        }\n        */\n        uint256[11] memory empty;\n        values[tokenId].gear=empty;\n        transferFrom(from, to, tokenId);\n    }\n\n    //Override of the function\n    //Test what actions has been performed and then asign stats and update the _tokensByOwner \n    function _beforeTokenTransfer(address from, address to, uint256 tokenId) internal virtual override(ERC721) {\n        if(from==address(0)) {\n            //Minting ok, creates struct of stats\n            values[_tokenIdTracker.current()] = statsToMint;\n            _tokenIdTracker.increment();\n\n            //Updates the _tokensByOwner mapping            \n            _tokensByOwner[to].push(tokenId);\n        } else if(to==address(0)) {\n            //Burning\n\n            //Updates the _tokensByOwner mapping\n            deleteTokenId(from, tokenId);\n        } else {\n            //Normal transfer\n\n            //Updates the _tokensByOwner mapping\n            _tokensByOwner[to].push(tokenId);\n            deleteTokenId(from, tokenId);\n        }\n    }\n\n    //Returns the array of NFTs owned by an address\n    function getCharacters(address owner) public view returns (uint256[] memory) {\n        return _tokensByOwner[owner];\n    }\n\n    //Returns the single stats of the PJ (without applying any equipement)\n    function singleStats(uint256 idPJ) public view returns(uint256[10] memory) {\n        return values[idPJ].stats;\n    }\n\n    //Returns the actual stats of the player calculating all the equped gear\n    function calculatedStats(uint256 idPJ) public view returns(uint256[10] memory) {\n        uint256[10] memory single = values[idPJ].stats;\n        for(uint i=0; i<values[idPJ].gear.length; i++) {\n            if(values[idPJ].gear[i]!=0) {\n                //Add stats from gear NFT\n                Equipment.gearStats memory gear = _gearNFT.singleStats(values[idPJ].gear[i]);\n                for(uint j=0; j<single.length; j++) {\n                    single[j]+=gear.stats[j];\n                }\n            }\n        }\n        return single;\n    }\n\n    function _baseURI() internal view virtual override returns (string memory) {\n        return \"https://exampledomain/metadata/\";\n    }\n\n    function setRoyalties(uint256 _tokenId, address payable _royaltiesReceipientAddress, uint96 _percentageBasisPoints) public onlyOwner {\n        LibPart.Part[] memory _royalties = new LibPart.Part[](1);\n        _royalties[0].value = _percentageBasisPoints;\n        _royalties[0].account = _royaltiesReceipientAddress;\n        _saveRoyalties(_tokenId, _royalties);\n    }\n\n    function royaltyInfo(uint256 _tokenId, uint256 _salePrice ) external view returns ( address receiver, uint256 royaltyAmount) {\n        LibPart.Part[] memory _royalties = royalties[_tokenId];\n        if(_royalties.length > 0) {\n            return(_royalties[0].account, (_salePrice * _royalties[0].value)/10000);\n        }\n        return (address(0), 0);\n    }\n\n    function supportsInterface(bytes4 interfaceId) public view virtual override(ERC721, AccessControlEnumerable) returns (bool) {\n        if (interfaceId == LibRoyaltiesV2._INTERFACE_ID_ROYALTIES) {\n            return true;\n        }\n\n        if(interfaceId == _INTERFACE_ID_ERC2981) {\n            return true;\n        }\n\n        return super.supportsInterface(interfaceId);\n    }\n\n    //Pseudo random. I think is enough for the game\n    function randMod(uint _modulus) internal returns(uint) {\n        randomNonce++; \n        return uint(keccak256(abi.encodePacked(block.timestamp, msg.sender, randomNonce))) % _modulus;\n    }\n\n    //************************************************************\n    // ARRAY functions \n    //************************************************************\n    function positionOf(address owner, uint256 tokenId) public view returns (bool, uint) {\n        for(uint i=0; i<_tokensByOwner[owner].length; i++) {\n            if(_tokensByOwner[owner][i]==tokenId)\n                return (true, i);\n        }\n        return (false, 0);\n    }\n\n    function deleteTokenId(address owner, uint256 tokenId) internal {\n        //Updates the _tokensByOwner mapping\n        (bool found, uint pos)=positionOf(owner, tokenId);\n        if(found) {\n            _tokensByOwner[owner][pos]= _tokensByOwner[owner][ _tokensByOwner[owner].length-1];\n            _tokensByOwner[owner].pop();\n        }\n    }\n\n    //Equipment Token Address\n    function setEquipmentAddress(address equipment) public onlyOwner {\n        _gearNFT=Equipment(equipment);\n    }\n\n    //Test that all gear passed exists \n    function gearExists(uint256[11] memory gear) internal view returns (bool) {\n        for(uint i=0; i<gear.length; i++) {            \n            if(!_gearNFT.exists(gear[i]))\n                return false;\n        }\n        return true;\n    }\n\n    //Test that all gear passed in the data is owned by _to     \n    function ownAllGear(address owner, uint256[11] memory gear) internal view returns (bool) {\n        for(uint i=0; i<gear.length; i++) {\n            \n            if(!_gearNFT.exists(gear[i]))\n                return false;\n\n            if(gear[i]!=0) { //gear=0 means empty\n                //Test that _to is the owner\n                if(_gearNFT.ownerOf(gear[i])!=owner) {\n                    return false;\n                }\n            }\n        }\n        return true;\n    }\n\n    //Test that every gear is on the apropriate slot\n    function gearSlotOk(uint256[11] memory gear) internal view returns (bool) {\n        for(uint i=0; i<gear.length; i++) {\n            if(gear[i]!=0) { //gear=0 means empty\n                //Test that equipment is on the right slot (or is a wildcard)\n                Equipment.gearStats memory gearNFT= _gearNFT.singleStats(gear[i]);\n                if(gearNFT.slot!=100 && gearNFT.slot!=i) // slot 100 is for wildcards\n                    return false;\n            }\n        }\n        return true;\n    }\n\n    //Test that all gear passed in the data is already equiped    \n    function alreadyEquiped(address powner, uint256[11] memory gear) internal view returns (bool) {\n        //For all PJs in the owner\n        for(uint i=0; i<_tokensByOwner[powner].length; i++) {\n            //Get the PJ data struct\n            charData memory dataTest= values[_tokensByOwner[powner][i]];\n\n            //Check 1 by 1 the slots\n            for(uint j=0; j<gear.length; j++) {\n                if(dataTest.gear[j]==gear[j] && gear[j]!=0)\n                    return true;\n            }\n        }\n        return false;\n    }\n\n    //Test that all gear passed in the data is already equiped    \n    function alreadyEquipedInOtherPlayer(uint256 player, uint256[11] memory gear) internal view returns (bool) {\n        address powner=ownerOf(player);\n        //For all PJs in the owner (except the one to equip)\n        for(uint i=0; i<_tokensByOwner[powner].length; i++) {\n            if(_tokensByOwner[powner][i] != player) {\n                //Get the PJ data struct\n                charData memory dataTest= values[_tokensByOwner[powner][i]];\n\n                //Check 1 by 1 the slots\n                for(uint j=0; j<gear.length; j++) {\n                    if(dataTest.gear[j]==gear[j] && gear[j]!=0)\n                        return true;\n                }\n            }\n        }\n        return false;\n    }\n\n    \n\n    //Test if the PJ has some gear equiped. Remember that cannot transfer a PJ with gear equiped\n    function hasEquipment(uint256 player) internal view returns (bool){\n        charData memory data=values[player];\n        \n        //If is an enemy, no problem in transfer it\n        if(data.class!=0)\n            return false;\n\n        for(uint j=0; j<data.gear.length; j++) {\n            if(data.gear[j]!=0)\n                return true;\n        }\n        return false;\n    }\n}",
  "sourcePath": "/home/javi/ChainsOfGlory/contracts/Characters.sol",
  "compiler": {
    "name": "solc",
    "version": "0.8.6+commit.11564f7e.Emscripten.clang"
  },
  "schemaVersion": "3.4.3",
  "updatedAt": "2021-11-22T19:51:36.914Z",
  "devdoc": {
    "kind": "dev",
    "methods": {
      "approve(address,uint256)": {
        "details": "See {IERC721-approve}."
      },
      "balanceOf(address)": {
        "details": "See {IERC721-balanceOf}."
      },
      "getApproved(uint256)": {
        "details": "See {IERC721-getApproved}."
      },
      "getRoleAdmin(bytes32)": {
        "details": "Returns the admin role that controls `role`. See {grantRole} and {revokeRole}. To change a role's admin, use {_setRoleAdmin}."
      },
      "getRoleMember(bytes32,uint256)": {
        "details": "Returns one of the accounts that have `role`. `index` must be a value between 0 and {getRoleMemberCount}, non-inclusive. Role bearers are not sorted in any particular way, and their ordering may change at any point. WARNING: When using {getRoleMember} and {getRoleMemberCount}, make sure you perform all queries on the same block. See the following https://forum.openzeppelin.com/t/iterating-over-elements-on-enumerableset-in-openzeppelin-contracts/2296[forum post] for more information."
      },
      "getRoleMemberCount(bytes32)": {
        "details": "Returns the number of accounts that have `role`. Can be used together with {getRoleMember} to enumerate all bearers of a role."
      },
      "grantRole(bytes32,address)": {
        "details": "Overload {grantRole} to track enumerable memberships"
      },
      "hasRole(bytes32,address)": {
        "details": "Returns `true` if `account` has been granted `role`."
      },
      "isApprovedForAll(address,address)": {
        "details": "See {IERC721-isApprovedForAll}."
      },
      "name()": {
        "details": "See {IERC721Metadata-name}."
      },
      "owner()": {
        "details": "Returns the address of the current owner."
      },
      "ownerOf(uint256)": {
        "details": "See {IERC721-ownerOf}."
      },
      "renounceOwnership()": {
        "details": "Leaves the contract without owner. It will not be possible to call `onlyOwner` functions anymore. Can only be called by the current owner. NOTE: Renouncing ownership will leave the contract without an owner, thereby removing any functionality that is only available to the owner."
      },
      "renounceRole(bytes32,address)": {
        "details": "Overload {renounceRole} to track enumerable memberships"
      },
      "revokeRole(bytes32,address)": {
        "details": "Overload {revokeRole} to track enumerable memberships"
      },
      "safeTransferFrom(address,address,uint256)": {
        "details": "See {IERC721-safeTransferFrom}."
      },
      "safeTransferFrom(address,address,uint256,bytes)": {
        "details": "See {IERC721-safeTransferFrom}."
      },
      "setApprovalForAll(address,bool)": {
        "details": "See {IERC721-setApprovalForAll}."
      },
      "symbol()": {
        "details": "See {IERC721Metadata-symbol}."
      },
      "tokenURI(uint256)": {
        "details": "See {IERC721Metadata-tokenURI}."
      },
      "transferFrom(address,address,uint256)": {
        "details": "See {IERC721-transferFrom}."
      },
      "transferOwnership(address)": {
        "details": "Transfers ownership of the contract to a new account (`newOwner`). Can only be called by the current owner."
      }
    },
    "version": 1
  },
  "userdoc": {
    "kind": "user",
    "methods": {},
    "version": 1
  }
}