{
  "contractName": "Characters",
  "abi": [
    {
      "inputs": [],
      "stateMutability": "payable",
      "type": "constructor"
    },
    {
      "anonymous": false,
      "inputs": [
        {
          "indexed": true,
          "internalType": "address",
          "name": "owner",
          "type": "address"
        },
        {
          "indexed": true,
          "internalType": "address",
          "name": "approved",
          "type": "address"
        },
        {
          "indexed": true,
          "internalType": "uint256",
          "name": "tokenId",
          "type": "uint256"
        }
      ],
      "name": "Approval",
      "type": "event"
    },
    {
      "anonymous": false,
      "inputs": [
        {
          "indexed": true,
          "internalType": "address",
          "name": "owner",
          "type": "address"
        },
        {
          "indexed": true,
          "internalType": "address",
          "name": "operator",
          "type": "address"
        },
        {
          "indexed": false,
          "internalType": "bool",
          "name": "approved",
          "type": "bool"
        }
      ],
      "name": "ApprovalForAll",
      "type": "event"
    },
    {
      "anonymous": false,
      "inputs": [
        {
          "indexed": true,
          "internalType": "address",
          "name": "previousOwner",
          "type": "address"
        },
        {
          "indexed": true,
          "internalType": "address",
          "name": "newOwner",
          "type": "address"
        }
      ],
      "name": "OwnershipTransferred",
      "type": "event"
    },
    {
      "anonymous": false,
      "inputs": [
        {
          "indexed": true,
          "internalType": "bytes32",
          "name": "role",
          "type": "bytes32"
        },
        {
          "indexed": true,
          "internalType": "bytes32",
          "name": "previousAdminRole",
          "type": "bytes32"
        },
        {
          "indexed": true,
          "internalType": "bytes32",
          "name": "newAdminRole",
          "type": "bytes32"
        }
      ],
      "name": "RoleAdminChanged",
      "type": "event"
    },
    {
      "anonymous": false,
      "inputs": [
        {
          "indexed": true,
          "internalType": "bytes32",
          "name": "role",
          "type": "bytes32"
        },
        {
          "indexed": true,
          "internalType": "address",
          "name": "account",
          "type": "address"
        },
        {
          "indexed": true,
          "internalType": "address",
          "name": "sender",
          "type": "address"
        }
      ],
      "name": "RoleGranted",
      "type": "event"
    },
    {
      "anonymous": false,
      "inputs": [
        {
          "indexed": true,
          "internalType": "bytes32",
          "name": "role",
          "type": "bytes32"
        },
        {
          "indexed": true,
          "internalType": "address",
          "name": "account",
          "type": "address"
        },
        {
          "indexed": true,
          "internalType": "address",
          "name": "sender",
          "type": "address"
        }
      ],
      "name": "RoleRevoked",
      "type": "event"
    },
    {
      "anonymous": false,
      "inputs": [
        {
          "indexed": false,
          "internalType": "uint256",
          "name": "tokenId",
          "type": "uint256"
        },
        {
          "components": [
            {
              "internalType": "address payable",
              "name": "account",
              "type": "address"
            },
            {
              "internalType": "uint96",
              "name": "value",
              "type": "uint96"
            }
          ],
          "indexed": false,
          "internalType": "struct LibPart.Part[]",
          "name": "royalties",
          "type": "tuple[]"
        }
      ],
      "name": "RoyaltiesSet",
      "type": "event"
    },
    {
      "anonymous": false,
      "inputs": [
        {
          "indexed": true,
          "internalType": "address",
          "name": "from",
          "type": "address"
        },
        {
          "indexed": true,
          "internalType": "address",
          "name": "to",
          "type": "address"
        },
        {
          "indexed": true,
          "internalType": "uint256",
          "name": "tokenId",
          "type": "uint256"
        }
      ],
      "name": "Transfer",
      "type": "event"
    },
    {
      "inputs": [],
      "name": "DEFAULT_ADMIN_ROLE",
      "outputs": [
        {
          "internalType": "bytes32",
          "name": "",
          "type": "bytes32"
        }
      ],
      "stateMutability": "view",
      "type": "function"
    },
    {
      "inputs": [],
      "name": "MINTER_ROLE",
      "outputs": [
        {
          "internalType": "bytes32",
          "name": "",
          "type": "bytes32"
        }
      ],
      "stateMutability": "view",
      "type": "function"
    },
    {
      "inputs": [],
      "name": "POLYMATH_ROLE",
      "outputs": [
        {
          "internalType": "bytes32",
          "name": "",
          "type": "bytes32"
        }
      ],
      "stateMutability": "view",
      "type": "function"
    },
    {
      "inputs": [
        {
          "internalType": "address",
          "name": "to",
          "type": "address"
        },
        {
          "internalType": "uint256",
          "name": "tokenId",
          "type": "uint256"
        }
      ],
      "name": "approve",
      "outputs": [],
      "stateMutability": "nonpayable",
      "type": "function"
    },
    {
      "inputs": [
        {
          "internalType": "address",
          "name": "owner",
          "type": "address"
        }
      ],
      "name": "balanceOf",
      "outputs": [
        {
          "internalType": "uint256",
          "name": "",
          "type": "uint256"
        }
      ],
      "stateMutability": "view",
      "type": "function"
    },
    {
      "inputs": [
        {
          "internalType": "uint256",
          "name": "tokenId",
          "type": "uint256"
        }
      ],
      "name": "getApproved",
      "outputs": [
        {
          "internalType": "address",
          "name": "",
          "type": "address"
        }
      ],
      "stateMutability": "view",
      "type": "function"
    },
    {
      "inputs": [
        {
          "internalType": "uint256",
          "name": "id",
          "type": "uint256"
        }
      ],
      "name": "getRaribleV2Royalties",
      "outputs": [
        {
          "components": [
            {
              "internalType": "address payable",
              "name": "account",
              "type": "address"
            },
            {
              "internalType": "uint96",
              "name": "value",
              "type": "uint96"
            }
          ],
          "internalType": "struct LibPart.Part[]",
          "name": "",
          "type": "tuple[]"
        }
      ],
      "stateMutability": "view",
      "type": "function"
    },
    {
      "inputs": [
        {
          "internalType": "bytes32",
          "name": "role",
          "type": "bytes32"
        }
      ],
      "name": "getRoleAdmin",
      "outputs": [
        {
          "internalType": "bytes32",
          "name": "",
          "type": "bytes32"
        }
      ],
      "stateMutability": "view",
      "type": "function"
    },
    {
      "inputs": [
        {
          "internalType": "bytes32",
          "name": "role",
          "type": "bytes32"
        },
        {
          "internalType": "uint256",
          "name": "index",
          "type": "uint256"
        }
      ],
      "name": "getRoleMember",
      "outputs": [
        {
          "internalType": "address",
          "name": "",
          "type": "address"
        }
      ],
      "stateMutability": "view",
      "type": "function"
    },
    {
      "inputs": [
        {
          "internalType": "bytes32",
          "name": "role",
          "type": "bytes32"
        }
      ],
      "name": "getRoleMemberCount",
      "outputs": [
        {
          "internalType": "uint256",
          "name": "",
          "type": "uint256"
        }
      ],
      "stateMutability": "view",
      "type": "function"
    },
    {
      "inputs": [
        {
          "internalType": "bytes32",
          "name": "role",
          "type": "bytes32"
        },
        {
          "internalType": "address",
          "name": "account",
          "type": "address"
        }
      ],
      "name": "grantRole",
      "outputs": [],
      "stateMutability": "nonpayable",
      "type": "function"
    },
    {
      "inputs": [
        {
          "internalType": "bytes32",
          "name": "role",
          "type": "bytes32"
        },
        {
          "internalType": "address",
          "name": "account",
          "type": "address"
        }
      ],
      "name": "hasRole",
      "outputs": [
        {
          "internalType": "bool",
          "name": "",
          "type": "bool"
        }
      ],
      "stateMutability": "view",
      "type": "function"
    },
    {
      "inputs": [
        {
          "internalType": "address",
          "name": "owner",
          "type": "address"
        },
        {
          "internalType": "address",
          "name": "operator",
          "type": "address"
        }
      ],
      "name": "isApprovedForAll",
      "outputs": [
        {
          "internalType": "bool",
          "name": "",
          "type": "bool"
        }
      ],
      "stateMutability": "view",
      "type": "function"
    },
    {
      "inputs": [],
      "name": "name",
      "outputs": [
        {
          "internalType": "string",
          "name": "",
          "type": "string"
        }
      ],
      "stateMutability": "view",
      "type": "function"
    },
    {
      "inputs": [],
      "name": "owner",
      "outputs": [
        {
          "internalType": "address",
          "name": "",
          "type": "address"
        }
      ],
      "stateMutability": "view",
      "type": "function"
    },
    {
      "inputs": [
        {
          "internalType": "uint256",
          "name": "tokenId",
          "type": "uint256"
        }
      ],
      "name": "ownerOf",
      "outputs": [
        {
          "internalType": "address",
          "name": "",
          "type": "address"
        }
      ],
      "stateMutability": "view",
      "type": "function"
    },
    {
      "inputs": [],
      "name": "renounceOwnership",
      "outputs": [],
      "stateMutability": "nonpayable",
      "type": "function"
    },
    {
      "inputs": [
        {
          "internalType": "bytes32",
          "name": "role",
          "type": "bytes32"
        },
        {
          "internalType": "address",
          "name": "account",
          "type": "address"
        }
      ],
      "name": "renounceRole",
      "outputs": [],
      "stateMutability": "nonpayable",
      "type": "function"
    },
    {
      "inputs": [
        {
          "internalType": "bytes32",
          "name": "role",
          "type": "bytes32"
        },
        {
          "internalType": "address",
          "name": "account",
          "type": "address"
        }
      ],
      "name": "revokeRole",
      "outputs": [],
      "stateMutability": "nonpayable",
      "type": "function"
    },
    {
      "inputs": [
        {
          "internalType": "uint256",
          "name": "",
          "type": "uint256"
        },
        {
          "internalType": "uint256",
          "name": "",
          "type": "uint256"
        }
      ],
      "name": "royalties",
      "outputs": [
        {
          "internalType": "address payable",
          "name": "account",
          "type": "address"
        },
        {
          "internalType": "uint96",
          "name": "value",
          "type": "uint96"
        }
      ],
      "stateMutability": "view",
      "type": "function"
    },
    {
      "inputs": [
        {
          "internalType": "address",
          "name": "from",
          "type": "address"
        },
        {
          "internalType": "address",
          "name": "to",
          "type": "address"
        },
        {
          "internalType": "uint256",
          "name": "tokenId",
          "type": "uint256"
        }
      ],
      "name": "safeTransferFrom",
      "outputs": [],
      "stateMutability": "nonpayable",
      "type": "function"
    },
    {
      "inputs": [
        {
          "internalType": "address",
          "name": "from",
          "type": "address"
        },
        {
          "internalType": "address",
          "name": "to",
          "type": "address"
        },
        {
          "internalType": "uint256",
          "name": "tokenId",
          "type": "uint256"
        },
        {
          "internalType": "bytes",
          "name": "_data",
          "type": "bytes"
        }
      ],
      "name": "safeTransferFrom",
      "outputs": [],
      "stateMutability": "nonpayable",
      "type": "function"
    },
    {
      "inputs": [
        {
          "internalType": "address",
          "name": "operator",
          "type": "address"
        },
        {
          "internalType": "bool",
          "name": "approved",
          "type": "bool"
        }
      ],
      "name": "setApprovalForAll",
      "outputs": [],
      "stateMutability": "nonpayable",
      "type": "function"
    },
    {
      "inputs": [],
      "name": "symbol",
      "outputs": [
        {
          "internalType": "string",
          "name": "",
          "type": "string"
        }
      ],
      "stateMutability": "view",
      "type": "function"
    },
    {
      "inputs": [
        {
          "internalType": "uint256",
          "name": "tokenId",
          "type": "uint256"
        }
      ],
      "name": "tokenURI",
      "outputs": [
        {
          "internalType": "string",
          "name": "",
          "type": "string"
        }
      ],
      "stateMutability": "view",
      "type": "function"
    },
    {
      "inputs": [
        {
          "internalType": "address",
          "name": "newOwner",
          "type": "address"
        }
      ],
      "name": "transferOwnership",
      "outputs": [],
      "stateMutability": "nonpayable",
      "type": "function"
    },
    {
      "inputs": [
        {
          "internalType": "address",
          "name": "_to",
          "type": "address"
        },
        {
          "components": [
            {
              "internalType": "uint256",
              "name": "class",
              "type": "uint256"
            },
            {
              "internalType": "uint256",
              "name": "level",
              "type": "uint256"
            },
            {
              "internalType": "uint256[10]",
              "name": "stats",
              "type": "uint256[10]"
            },
            {
              "internalType": "uint256[11]",
              "name": "gear",
              "type": "uint256[11]"
            }
          ],
          "internalType": "struct Characters.charData",
          "name": "data",
          "type": "tuple"
        }
      ],
      "name": "mint",
      "outputs": [],
      "stateMutability": "nonpayable",
      "type": "function"
    },
    {
      "inputs": [
        {
          "internalType": "address",
          "name": "equipment",
          "type": "address"
        }
      ],
      "name": "setEquipmentAddress",
      "outputs": [],
      "stateMutability": "nonpayable",
      "type": "function"
    },
    {
      "inputs": [
        {
          "internalType": "address payable",
          "name": "rAddress",
          "type": "address"
        }
      ],
      "name": "setRoyaltiesAddress",
      "outputs": [],
      "stateMutability": "nonpayable",
      "type": "function"
    },
    {
      "inputs": [
        {
          "internalType": "uint96",
          "name": "rBasicPoints",
          "type": "uint96"
        }
      ],
      "name": "setRoyaltiesBasicPoints",
      "outputs": [],
      "stateMutability": "nonpayable",
      "type": "function"
    },
    {
      "inputs": [
        {
          "internalType": "uint256",
          "name": "player",
          "type": "uint256"
        }
      ],
      "name": "updateLevel",
      "outputs": [],
      "stateMutability": "nonpayable",
      "type": "function"
    },
    {
      "inputs": [
        {
          "internalType": "uint256",
          "name": "lvl",
          "type": "uint256"
        },
        {
          "internalType": "uint256[]",
          "name": "matrixValues",
          "type": "uint256[]"
        }
      ],
      "name": "setMaxLevel",
      "outputs": [],
      "stateMutability": "nonpayable",
      "type": "function"
    },
    {
      "inputs": [],
      "name": "getMatrix",
      "outputs": [
        {
          "internalType": "uint256[]",
          "name": "",
          "type": "uint256[]"
        }
      ],
      "stateMutability": "view",
      "type": "function"
    },
    {
      "inputs": [
        {
          "internalType": "uint256",
          "name": "player",
          "type": "uint256"
        },
        {
          "internalType": "uint256[11]",
          "name": "gear",
          "type": "uint256[11]"
        }
      ],
      "name": "equip",
      "outputs": [],
      "stateMutability": "nonpayable",
      "type": "function"
    },
    {
      "inputs": [
        {
          "internalType": "address",
          "name": "from",
          "type": "address"
        },
        {
          "internalType": "address",
          "name": "to",
          "type": "address"
        },
        {
          "internalType": "uint256",
          "name": "tokenId",
          "type": "uint256"
        }
      ],
      "name": "transferFrom",
      "outputs": [],
      "stateMutability": "nonpayable",
      "type": "function"
    },
    {
      "inputs": [
        {
          "internalType": "address",
          "name": "from",
          "type": "address"
        },
        {
          "internalType": "address",
          "name": "to",
          "type": "address"
        },
        {
          "internalType": "uint256",
          "name": "tokenId",
          "type": "uint256"
        }
      ],
      "name": "unequipAndTransferFrom",
      "outputs": [],
      "stateMutability": "nonpayable",
      "type": "function"
    },
    {
      "inputs": [
        {
          "internalType": "address",
          "name": "powner",
          "type": "address"
        }
      ],
      "name": "getCharacters",
      "outputs": [
        {
          "internalType": "uint256[]",
          "name": "",
          "type": "uint256[]"
        }
      ],
      "stateMutability": "view",
      "type": "function"
    },
    {
      "inputs": [
        {
          "internalType": "uint256",
          "name": "idPJ",
          "type": "uint256"
        }
      ],
      "name": "baseStats",
      "outputs": [
        {
          "components": [
            {
              "internalType": "uint256",
              "name": "class",
              "type": "uint256"
            },
            {
              "internalType": "uint256",
              "name": "level",
              "type": "uint256"
            },
            {
              "internalType": "uint256[10]",
              "name": "stats",
              "type": "uint256[10]"
            },
            {
              "internalType": "uint256[11]",
              "name": "gear",
              "type": "uint256[11]"
            }
          ],
          "internalType": "struct Characters.charData",
          "name": "",
          "type": "tuple"
        }
      ],
      "stateMutability": "view",
      "type": "function"
    },
    {
      "inputs": [
        {
          "internalType": "uint256",
          "name": "idPJ",
          "type": "uint256"
        }
      ],
      "name": "singleStats",
      "outputs": [
        {
          "components": [
            {
              "internalType": "uint256",
              "name": "class",
              "type": "uint256"
            },
            {
              "internalType": "uint256",
              "name": "level",
              "type": "uint256"
            },
            {
              "internalType": "uint256[10]",
              "name": "stats",
              "type": "uint256[10]"
            },
            {
              "internalType": "uint256[11]",
              "name": "gear",
              "type": "uint256[11]"
            }
          ],
          "internalType": "struct Characters.charData",
          "name": "",
          "type": "tuple"
        }
      ],
      "stateMutability": "view",
      "type": "function"
    },
    {
      "inputs": [
        {
          "internalType": "uint256",
          "name": "idPJ",
          "type": "uint256"
        }
      ],
      "name": "calculatedStats",
      "outputs": [
        {
          "components": [
            {
              "internalType": "uint256",
              "name": "class",
              "type": "uint256"
            },
            {
              "internalType": "uint256",
              "name": "level",
              "type": "uint256"
            },
            {
              "internalType": "uint256[10]",
              "name": "stats",
              "type": "uint256[10]"
            },
            {
              "internalType": "uint256[11]",
              "name": "gear",
              "type": "uint256[11]"
            }
          ],
          "internalType": "struct Characters.charData",
          "name": "",
          "type": "tuple"
        }
      ],
      "stateMutability": "view",
      "type": "function"
    },
    {
      "inputs": [
        {
          "internalType": "uint256",
          "name": "_tokenId",
          "type": "uint256"
        },
        {
          "internalType": "address payable",
          "name": "_royaltiesReceipientAddress",
          "type": "address"
        },
        {
          "internalType": "uint96",
          "name": "_percentageBasisPoints",
          "type": "uint96"
        }
      ],
      "name": "setRoyalties",
      "outputs": [],
      "stateMutability": "nonpayable",
      "type": "function"
    },
    {
      "inputs": [
        {
          "internalType": "uint256",
          "name": "_tokenId",
          "type": "uint256"
        },
        {
          "internalType": "uint256",
          "name": "_salePrice",
          "type": "uint256"
        }
      ],
      "name": "royaltyInfo",
      "outputs": [
        {
          "internalType": "address",
          "name": "receiver",
          "type": "address"
        },
        {
          "internalType": "uint256",
          "name": "royaltyAmount",
          "type": "uint256"
        }
      ],
      "stateMutability": "view",
      "type": "function"
    },
    {
      "inputs": [
        {
          "internalType": "bytes4",
          "name": "interfaceId",
          "type": "bytes4"
        }
      ],
      "name": "supportsInterface",
      "outputs": [
        {
          "internalType": "bool",
          "name": "",
          "type": "bool"
        }
      ],
      "stateMutability": "view",
      "type": "function"
    },
    {
      "inputs": [
        {
          "internalType": "address",
          "name": "powner",
          "type": "address"
        },
        {
          "internalType": "uint256",
          "name": "tokenId",
          "type": "uint256"
        }
      ],
      "name": "positionOf",
      "outputs": [
        {
          "internalType": "bool",
          "name": "",
          "type": "bool"
        },
        {
          "internalType": "uint256",
          "name": "",
          "type": "uint256"
        }
      ],
      "stateMutability": "view",
      "type": "function"
    }
  ],
  "bytecode": "0x601a60808181527f436861696e73206f6620476c6f7279204368617261637465727300000000000060a0908152610100604052600360c09081527f434743000000000000000000000000000000000000000000000000000000000060e05291926200006d9160009162000368565b5080516200008390600190602084019062000368565b505050620000b2620000a362000150640100000000026401000000009004565b64010000000062000154810204565b620000da6000620000cb64010000000062000150810204565b640100000000620001a6810204565b620001127f9f2df0fed2c77648de5860a4cc508cd0818c85b8b8a1ab4ceeef8d981c8956a6620000cb64010000000062000150810204565b6200014a7ff981fb6fdf0d58703d02e1dadceeaa95ac8ae9afe74ea698f2124fae240aabb0620000cb64010000000062000150810204565b62000464565b3390565b60088054600160a060020a03838116600160a060020a0319831681179093556040519116919082907f8be0079c531659141344cd1fd0a4f28419497f9722a3daafe3b4186f6b6457e090600090a35050565b620001c082826401000000006200216d620001ed82021704565b6000828152600760205260409020620001e89082640100000000620021776200020682021704565b505050565b6200020282826401000000006200022f810204565b5050565b60006200022683600160a060020a038416640100000000620002cd810204565b90505b92915050565b62000244828264010000000062000325810204565b62000202576000828152600660209081526040808320600160a060020a03851684529091529020805460ff191660011790556200028964010000000062000150810204565b600160a060020a031681600160a060020a0316837f2f8788117e7eff1d82e926ec794901d17c78024a50270940304540a733656f0d60405160405180910390a45050565b6000620002e4838364010000000062000350810204565b6200031c5750815460018181018455600084815260208082209093018490558454848252828601909352604090209190915562000229565b50600062000229565b6000918252600660209081526040808420600160a060020a0393909316845291905290205460ff1690565b60009081526001919091016020526040902054151590565b82805462000376906200040e565b90600052602060002090601f0160209004810192826200039a5760008555620003e5565b82601f10620003b557805160ff1916838001178555620003e5565b82800160010185558215620003e5579182015b82811115620003e5578251825591602001919060010190620003c8565b50620003f3929150620003f7565b5090565b5b80821115620003f35760008155600101620003f8565b6002810460018216806200042357607f821691505b602082108114156200045e577f4e487b7100000000000000000000000000000000000000000000000000000000600052602260045260246000fd5b50919050565b614a5280620004746000396000f3fe608060405234801561001057600080fd5b50600436106102785760003560e060020a900480638da5cb5b11610155578063b88d4fde116100c7578063d547741f1161008b578063d547741f14610621578063db20f89c14610634578063dc95c4a714610647578063e985e9c51461065a578063ea13259114610696578063f2fde38b146106a957600080fd5b8063b88d4fde146105a1578063c87b56dd146105b4578063ca15c873146105c7578063cad96cca146105da578063d5391393146105fa57600080fd5b8063968fae9411610119578063968fae9414610523578063a217fddf14610536578063a22cb4651461053e578063a2846ad414610551578063a3fd0d9914610564578063ad127c8a1461058e57600080fd5b80638da5cb5b146104d15780639010d07c146104e257806391d14854146104f557806392e0150b1461050857806395d89b411461051b57600080fd5b806336568abe116101ee5780636352211e116101b25780636352211e1461043157806370a0823114610444578063715018a61461045757806376a66e8d1461045f5780637b00aee5146104725780638924af741461049257600080fd5b806336568abe146103d057806337798203146103e357806342842e0e146103f657806359d36927146104095780635ad3a0a81461041c57600080fd5b8063143094db11610240578063143094db1461030d57806323b872dd14610320578063248a9ca3146103335780632a55205a146103645780632f2ff15d1461039657806333b75413146103a957600080fd5b806301ffc9a71461027d57806306fdde03146102a5578063081812fc146102ba578063095ea7b3146102e557806311fdb52e146102fa575b600080fd5b61029061028b366004614211565b6106bc565b60405190151581526020015b60405180910390f35b6102ad610741565b60405161029c91906145ea565b6102cd6102c83660046141b1565b6107d3565b604051600160a060020a03909116815260200161029c565b6102f86102f3366004614168565b610881565b005b6102f8610308366004614403565b6109b9565b6102f861031b3660046142df565b610a13565b6102f861032e366004613f71565b610b1a565b6103566103413660046141b1565b60009081526006602052604090206001015490565b60405190815260200161029c565b6103776103723660046141ef565b610bce565b60408051600160a060020a03909316835260208301919091520161029c565b6102f86103a43660046141ca565b610cde565b6103567ff981fb6fdf0d58703d02e1dadceeaa95ac8ae9afe74ea698f2124fae240aabb081565b6102f86103de3660046141ca565b610d00565b6102f86103f136600461431d565b610d22565b6102f8610404366004613f71565b611052565b6102f86104173660046140a4565b61106d565b610424611332565b60405161029c91906145a6565b6102cd61043f3660046141b1565b611389565b610356610452366004613efe565b611417565b6102f86114b4565b6102f861046d36600461434b565b6114ed565b6104856104803660046141b1565b6115d1565b60405161029c9190614749565b6104a56104a03660046141ef565b611752565b60408051600160a060020a0390931683526bffffffffffffffffffffffff90911660208301520161029c565b600854600160a060020a03166102cd565b6102cd6104f03660046141ef565b6117a0565b6102906105033660046141ca565b6117bf565b6102f86105163660046141b1565b6117ea565b6102ad611944565b6102f8610531366004613f71565b611953565b610356600081565b6102f861054c366004614076565b611a31565b6102f861055f366004613efe565b611af9565b610577610572366004614168565b611b55565b60408051921515835260208301919091520161029c565b61042461059c366004613efe565b611be3565b6102f86105af366004613fb2565b611c4f565b6102ad6105c23660046141b1565b611c84565b6103566105d53660046141b1565b611da1565b6105ed6105e83660046141b1565b611db8565b60405161029c9190614593565b6103567f9f2df0fed2c77648de5860a4cc508cd0818c85b8b8a1ab4ceeef8d981c8956a681565b6102f861062f3660046141ca565b611e4c565b6104856106423660046141b1565b611e56565b6102f8610655366004613efe565b611fad565b610290610668366004613f38565b600160a060020a03918216600090815260056020908152604080832093909416825291909152205460ff1690565b6104856106a43660046141b1565b612009565b6102f86106b7366004613efe565b6120b5565b6000600160e060020a031982167f44c74bcc0000000000000000000000000000000000000000000000000000000014156106f857506001919050565b600160e060020a031982167f2a55205a00000000000000000000000000000000000000000000000000000000141561073257506001919050565b61073b8261218c565b92915050565b606060008054610750906148f9565b80601f016020809104026020016040519081016040528092919081815260200182805461077c906148f9565b80156107c95780601f1061079e576101008083540402835291602001916107c9565b820191906000526020600020905b8154815290600101906020018083116107ac57829003601f168201915b5050505050905090565b600081815260026020526040812054600160a060020a03166108655760405160e560020a62461bcd02815260206004820152602c60248201527f4552433732313a20617070726f76656420717565727920666f72206e6f6e657860448201527f697374656e7420746f6b656e000000000000000000000000000000000000000060648201526084015b60405180910390fd5b50600090815260046020526040902054600160a060020a031690565b600061088c82611389565b905080600160a060020a031683600160a060020a031614156109195760405160e560020a62461bcd02815260206004820152602160248201527f4552433732313a20617070726f76616c20746f2063757272656e74206f776e6560448201527f7200000000000000000000000000000000000000000000000000000000000000606482015260840161085c565b33600160a060020a038216148061093557506109358133610668565b6109aa5760405160e560020a62461bcd02815260206004820152603860248201527f4552433732313a20617070726f76652063616c6c6572206973206e6f74206f7760448201527f6e6572206e6f7220617070726f76656420666f7220616c6c0000000000000000606482015260840161085c565b6109b483836121ca565b505050565b600854600160a060020a031633146109e65760405160e560020a62461bcd02815260040161085c906146b7565b600b80546bffffffffffffffffffffffff90921660a060020a02600160a060020a03909216919091179055565b610a3d7f9f2df0fed2c77648de5860a4cc508cd0818c85b8b8a1ab4ceeef8d981c8956a6336117bf565b610a5c5760405160e560020a62461bcd02815260040161085c9061465a565b604080516001808252818301909252600091816020015b6040805180820190915260008082526020820152815260200190600190039081610a735790505090508181600081518110610ab057610ab06149b1565b6020026020010151602001906bffffffffffffffffffffffff1690816bffffffffffffffffffffffff16815250508281600081518110610af257610af26149b1565b6020908102919091010151600160a060020a039091169052610b148482612245565b50505050565b610b25335b82612469565b610b445760405160e560020a62461bcd02815260040161085c906146ec565b610b4d81612574565b15610bc35760405160e560020a62461bcd02815260206004820152603960248201527f457863657074696f6e3a2063616e6e6f74207472616e73666572206120706c6160448201527f7965722077656172696e6720616e792065717569706d656e7400000000000000606482015260840161085c565b6109b4838383612675565b6000828152600960209081526040808320805482518185028101850190935280835284938493929190849084015b82821015610c505760008481526020908190206040805180820190915290840154600160a060020a038116825260a060020a90046bffffffffffffffffffffffff1681830152825260019092019101610bfc565b505050509050600081511115610cce5780600081518110610c7357610c736149b1565b60200260200101516000015161271082600081518110610c9557610c956149b1565b6020026020010151602001516bffffffffffffffffffffffff1686610cba9190614880565b610cc4919061486c565b9250925050610cd7565b60008092509250505b9250929050565b610ce882826126a8565b60008281526007602052604090206109b49082612177565b610d0a82826126ce565b60008281526007602052604090206109b49082612759565b60008281526026602052604090205415610da75760405160e560020a62461bcd02815260206004820152602160248201527f457863657074696f6e3a2043616e6e6f7420657175697020616e20656e656d7960448201527f2100000000000000000000000000000000000000000000000000000000000000606482015260840161085c565b33610db183611389565b600160a060020a031614610e305760405160e560020a62461bcd02815260206004820152602f60248201527f457863657074696f6e3a206d757374206265206f776e6572206f66207468652060448201527f706c6179657220746f2065717569700000000000000000000000000000000000606482015260840161085c565b610e398161276e565b610eae5760405160e560020a62461bcd02815260206004820152603260248201527f457863657074696f6e3a20736f6d652067656172207573656420646f6573206e60448201527f6f742065786973747320696e2065717569700000000000000000000000000000606482015260840161085c565b610ec0610eba83611389565b8261283c565b610f355760405160e560020a62461bcd02815260206004820152603060248201527f457863657074696f6e3a20706c6179657220646f6573206e6f74206f776e206160448201527f6c6c206765617220696e20657175697000000000000000000000000000000000606482015260840161085c565b610f3e816129dd565b610fb35760405160e560020a62461bcd02815260206004820152603b60248201527f457863657074696f6e3a20736f6d652067656172206973206e6f7420696e207460448201527f6865206170726f70726961746520736c6f7420696e2065717569700000000000606482015260840161085c565b610fbd8282612ae1565b15611035576040805160e560020a62461bcd0281526020600482015260248101919091527f457863657074696f6e3a20736f6d65206765617220697320616c72656164792060448201527f6571756970656420696e206f7468657220706c6179657220696e206571756970606482015260840161085c565b60008281526026602052604090206109b490600c0182600b613ce3565b6109b483838360405180602001604052806000815250611c4f565b6110977f9f2df0fed2c77648de5860a4cc508cd0818c85b8b8a1ab4ceeef8d981c8956a6336117bf565b6110b65760405160e560020a62461bcd02815260040161085c9061465a565b6110c3816060015161276e565b6111385760405160e560020a62461bcd02815260206004820152603160248201527f457863657074696f6e3a20736f6d652067656172207573656420646f6573206e60448201527f6f742065786973747320696e206d696e74000000000000000000000000000000606482015260840161085c565b61114682826060015161283c565b6111bb5760405160e560020a62461bcd02815260206004820152602f60248201527f457863657074696f6e3a20706c6179657220646f6573206e6f74206f776e206160448201527f6c6c206765617220696e206d696e740000000000000000000000000000000000606482015260840161085c565b6111c881606001516129dd565b61123d5760405160e560020a62461bcd02815260206004820152603a60248201527f457863657074696f6e3a20736f6d652067656172206973206e6f7420696e207460448201527f6865206170726f70726961746520736c6f7420696e206d696e74000000000000606482015260840161085c565b61124b828260600151612cdb565b156112c15760405160e560020a62461bcd02815260206004820152603f60248201527f457863657074696f6e3a20736f6d65206765617220697320616c72656164792060448201527f6571756970656420696e206f7468657220706c6179657220696e206d696e7400606482015260840161085c565b7505dc00000000000000000000000000000000000000003017600b558051600d9081556020820151600e55604082015182919061130290600f90600a613d21565b50606082015161131890600c830190600b613ce3565b5090505061132e82611329600a5490565b612e7f565b5050565b606060258054806020026020016040519081016040528092919081815260200182805480156107c957602002820191906000526020600020905b81548152602001906001019080831161136c575050505050905090565b600081815260026020526040812054600160a060020a03168061073b5760405160e560020a62461bcd02815260206004820152602960248201527f4552433732313a206f776e657220717565727920666f72206e6f6e657869737460448201527f656e7420746f6b656e0000000000000000000000000000000000000000000000606482015260840161085c565b6000600160a060020a0382166114985760405160e560020a62461bcd02815260206004820152602a60248201527f4552433732313a2062616c616e636520717565727920666f7220746865207a6560448201527f726f206164647265737300000000000000000000000000000000000000000000606482015260840161085c565b50600160a060020a031660009081526003602052604090205490565b600854600160a060020a031633146114e15760405160e560020a62461bcd02815260040161085c906146b7565b6114eb6000612fe0565b565b600854600160a060020a0316331461151a5760405160e560020a62461bcd02815260040161085c906146b7565b805182146115b95760405160e560020a62461bcd02815260206004820152604860248201527f457863657074696f6e3a206d7573742070726f766964652061206d617472697860448201527f206f662076616c756573206f66207468652073616d65206c656e67687420746860648201527f616e206c6576656c000000000000000000000000000000000000000000000000608482015260a40161085c565b602482905580516109b4906025906020840190613d4e565b6115d9613d88565b60006115e483611e56565b905060005b60008490526026602052600b81101561174b576000848152602660205260409020600c0181600b811061161e5761161e6149b1565b01541561173957600c805460008681526026602052604081209092600160a060020a039092169163db20f89c910184600b811061165d5761165d6149b1565b01546040518263ffffffff1660e060020a02815260040161168091815260200190565b6101a06040518083038186803b15801561169957600080fd5b505afa1580156116ad573d6000803e3d6000fd5b505050506040513d601f19601f820116820180604052508101906116d1919061424b565b905060005b600a81101561173657816060015181600a81106116f5576116f56149b1565b6020020151846040015182600a8110611710576117106149b1565b602002018181516117219190614854565b9052508061172e81614937565b9150506116d6565b50505b8061174381614937565b9150506115e9565b5092915050565b6009602052816000526040600020818154811061176e57600080fd5b600091825260209091200154600160a060020a038116925060a060020a90046bffffffffffffffffffffffff16905082565b60008281526007602052604081206117b8908361303f565b9392505050565b6000918252600660209081526040808420600160a060020a0393909316845291905290205460ff1690565b6118147ff981fb6fdf0d58703d02e1dadceeaa95ac8ae9afe74ea698f2124fae240aabb0336117bf565b6118895760405160e560020a62461bcd02815260206004820152603360248201527f457863657074696f6e3a206f6e6c792074686520506f6c796d6174682063616e60448201527f2063616c6c20746869732066756e6374696f6e00000000000000000000000000606482015260840161085c565b60245460008281526026602052604090206001908101546118a991614854565b1061191f5760405160e560020a62461bcd02815260206004820152602960248201527f457863657074696f6e3a20706c6179657220697320616c72656164792061742060448201527f6d6178206c6576656c0000000000000000000000000000000000000000000000606482015260840161085c565b600081815260266020526040812060010180549161193c83614937565b919050555050565b606060018054610750906148f9565b61195c33610b1f565b61197b5760405160e560020a62461bcd02815260040161085c906146ec565b60008181526026602052604090205415611a005760405160e560020a62461bcd02815260206004820152602360248201527f457863657074696f6e3a2043616e6e6f7420756e657175697020616e20656e6560448201527f6d79210000000000000000000000000000000000000000000000000000000000606482015260840161085c565b611a08613dbb565b6000828152602660205260409020611a2590600c0182600b613ce3565b50610b14848484610b1a565b600160a060020a038216331415611a8d5760405160e560020a62461bcd02815260206004820152601960248201527f4552433732313a20617070726f766520746f2063616c6c657200000000000000604482015260640161085c565b336000818152600560209081526040808320600160a060020a03871680855290835292819020805460ff191686151590811790915590519081529192917f17307eab39ab6107e8899845ad3d59bd9653f200f220920489ca2b5937696c31910160405180910390a35050565b600854600160a060020a03163314611b265760405160e560020a62461bcd02815260040161085c906146b7565b600c805473ffffffffffffffffffffffffffffffffffffffff1916600160a060020a0392909216919091179055565b60008060005b600160a060020a038516600090815260276020526040902054811015611bd657600160a060020a0385166000908152602760205260409020805485919083908110611ba857611ba86149b1565b90600052602060002001541415611bc457600192509050610cd7565b80611bce81614937565b915050611b5b565b5060009485945092505050565b600160a060020a038116600090815260276020908152604091829020805483518184028101840190945280845260609392830182828015611c4357602002820191906000526020600020905b815481526020019060010190808311611c2f575b50505050509050919050565b611c593383612469565b611c785760405160e560020a62461bcd02815260040161085c906146ec565b610b148484848461304b565b600081815260026020526040902054606090600160a060020a0316611d145760405160e560020a62461bcd02815260206004820152602f60248201527f4552433732314d657461646174613a2055524920717565727920666f72206e6f60448201527f6e6578697374656e7420746f6b656e0000000000000000000000000000000000606482015260840161085c565b6000611d5060408051808201909152601f81527f68747470733a2f2f6578616d706c65646f6d61696e2f6d657461646174612f00602082015290565b90506000815111611d7057604051806020016040528060008152506117b8565b80611d7a84613081565b604051602001611d8b9291906144a7565b6040516020818303038152906040529392505050565b600081815260076020526040812061073b906131ba565b606060096000838152602001908152602001600020805480602002602001604051908101604052809291908181526020016000905b82821015611e415760008481526020908190206040805180820190915290840154600160a060020a038116825260a060020a90046bffffffffffffffffffffffff1681830152825260019092019101611ded565b505050509050919050565b610d0a82826131c4565b611e5e613d88565b60008281526026602090815260408083208151608081018352815481526001820154938101939093528151610140810180845291928401916002840190600a9082845b815481526020019060010190808311611ea15750505091835250506040805161016081019182905260209092019190600c840190600b9082845b815481526020019060010190808311611edb575050505050815250509050806020015160001461073b5760006025826020015181548110611f1e57611f1e6149b1565b9060005260206000200154905060005b600a811015611fa557606482846040015183600a8110611f5057611f506149b1565b6020020151611f5f9190614880565b611f69919061486c565b836040015182600a8110611f7f57611f7f6149b1565b60200201818151611f909190614854565b90525080611f9d81614937565b915050611f2e565b505092915050565b600854600160a060020a03163314611fda5760405160e560020a62461bcd02815260040161085c906146b7565b600b805473ffffffffffffffffffffffffffffffffffffffff1916600160a060020a0392909216919091179055565b612011613d88565b6000828152602660209081526040918290208251608081018452815481526001820154928101929092528251610140810180855292939192918401916002840190600a9082845b8154815260200190600101908083116120585750505091835250506040805161016081019182905260209092019190600c840190600b9082845b815481526020019060010190808311612092575050505050815250509050919050565b600854600160a060020a031633146120e25760405160e560020a62461bcd02815260040161085c906146b7565b600160a060020a0381166121615760405160e560020a62461bcd02815260206004820152602660248201527f4f776e61626c653a206e6577206f776e657220697320746865207a65726f206160448201527f6464726573730000000000000000000000000000000000000000000000000000606482015260840161085c565b61216a81612fe0565b50565b61132e82826131ea565b60006117b883600160a060020a038416613270565b6000600160e060020a031982167f5a05180f00000000000000000000000000000000000000000000000000000000148061073b575061073b826132bf565b6000818152600460205260409020805473ffffffffffffffffffffffffffffffffffffffff1916600160a060020a038416908117909155819061220c82611389565b600160a060020a03167f8c5be1e5ebec7d5bd14f71427d1e84f3dd0314c0f7b2291e5b200ac8c7c3b92560405160405180910390a45050565b60005b815181101561245e576000600160a060020a031682828151811061226e5761226e6149b1565b602002602001015160000151600160a060020a031614156122d45760405160e560020a62461bcd02815260206004820152601b60248201527f526563697069656e742073686f756c642062652070726573656e740000000000604482015260640161085c565b8181815181106122e6576122e66149b1565b6020026020010151602001516bffffffffffffffffffffffff16600014156123535760405160e560020a62461bcd02815260206004820181905260248201527f526f79616c74792076616c75652073686f756c6420626520706f736974697665604482015260640161085c565b6000838152600960205260409020546123d45760008381526009602052604090208251839083908110612388576123886149b1565b6020908102919091018101518254600181018455600093845292829020815191909201516bffffffffffffffffffffffff1660a060020a02600160a060020a039091161791015561244c565b8181815181106123e6576123e66149b1565b602002602001015160096000858152602001908152602001600020600081548110612413576124136149b1565b6000918252602091829020835193909201516bffffffffffffffffffffffff1660a060020a02600160a060020a03909316929092179101555b8061245681614937565b915050612248565b5061132e82826132fd565b600081815260026020526040812054600160a060020a03166124f65760405160e560020a62461bcd02815260206004820152602c60248201527f4552433732313a206f70657261746f7220717565727920666f72206e6f6e657860448201527f697374656e7420746f6b656e0000000000000000000000000000000000000000606482015260840161085c565b600061250183611389565b905080600160a060020a031684600160a060020a0316148061253c575083600160a060020a0316612531846107d3565b600160a060020a0316145b8061256c5750600160a060020a0380821660009081526005602090815260408083209388168352929052205460ff165b949350505050565b600081815260266020908152604080832081516080810183528154815260018201549381019390935281516101408101808452859493840191906002840190600a9082845b8154815260200190600101908083116125b95750505091835250506040805161016081019182905260209092019190600c840190600b9082845b8154815260200190600101908083116125f357505050919092525050815191925050156126235750600092915050565b60005b600b81101561266b57816060015181600b8110612645576126456149b1565b602002015115612659575060019392505050565b8061266381614937565b915050612626565b5060009392505050565b61267e33610b1f565b61269d5760405160e560020a62461bcd02815260040161085c906146ec565b6109b483838361333a565b6000828152600660205260409020600101546126c48133613525565b6109b483836131ea565b600160a060020a038116331461274f5760405160e560020a62461bcd02815260206004820152602f60248201527f416363657373436f6e74726f6c3a2063616e206f6e6c792072656e6f756e636560448201527f20726f6c657320666f722073656c660000000000000000000000000000000000606482015260840161085c565b61132e828261358c565b60006117b883600160a060020a0384166135f3565b6000805b600b81101561283357600c54600160a060020a0316634f558e798483600b811061279e5761279e6149b1565b60200201516040518263ffffffff1660e060020a0281526004016127c491815260200190565b60206040518083038186803b1580156127dc57600080fd5b505afa1580156127f0573d6000803e3d6000fd5b505050506040513d601f19601f820116820180604052508101906128149190614194565b6128215750600092915050565b8061282b81614937565b915050612772565b50600192915050565b6000805b600b8110156129d357600c54600160a060020a0316634f558e798483600b811061286c5761286c6149b1565b60200201516040518263ffffffff1660e060020a02815260040161289291815260200190565b60206040518083038186803b1580156128aa57600080fd5b505afa1580156128be573d6000803e3d6000fd5b505050506040513d601f19601f820116820180604052508101906128e29190614194565b6128f057600091505061073b565b8281600b8110612902576129026149b1565b6020020151156129c157600c54600160a060020a038086169116636352211e8584600b8110612933576129336149b1565b60200201516040518263ffffffff1660e060020a02815260040161295991815260200190565b60206040518083038186803b15801561297157600080fd5b505afa158015612985573d6000803e3d6000fd5b505050506040513d601f19601f820116820180604052508101906129a99190613f1b565b600160a060020a0316146129c157600091505061073b565b806129cb81614937565b915050612840565b5060019392505050565b6000805b600b811015612833578281600b81106129fc576129fc6149b1565b602002015115612acf57600c54600090600160a060020a031663db20f89c8584600b8110612a2c57612a2c6149b1565b60200201516040518263ffffffff1660e060020a028152600401612a5291815260200190565b6101a06040518083038186803b158015612a6b57600080fd5b505afa158015612a7f573d6000803e3d6000fd5b505050506040513d601f19601f82011682018060405250810190612aa3919061424b565b90508060200151606414158015612abe575081816020015114155b15612acd575060009392505050565b505b80612ad981614937565b9150506129e1565b600080612aed84611389565b905060005b600160a060020a038216600090815260276020526040902054811015612cd057600160a060020a0382166000908152602760205260409020805486919083908110612b3f57612b3f6149b1565b906000526020600020015414612cbe57600160a060020a03821660009081526027602052604081208054602691839185908110612b7e57612b7e6149b1565b90600052602060002001548152602001908152602001600020604051806080016040529081600082015481526020016001820154815260200160028201600a806020026040519081016040528092919082600a8015612bf2576020028201915b815481526020019060010190808311612bde575b50505091835250506040805161016081019182905260209092019190600c840190600b9082845b815481526020019060010190808311612c1957505050505081525050905060005b600b811015612cbb578581600b8110612c5557612c556149b1565b6020020151826060015182600b8110612c7057612c706149b1565b6020020151148015612c9757508581600b8110612c8f57612c8f6149b1565b602002015115155b15612ca957600194505050505061073b565b80612cb381614937565b915050612c3a565b50505b80612cc881614937565b915050612af2565b506000949350505050565b6000805b600160a060020a03841660009081526027602052604090205481101561266b57600160a060020a03841660009081526027602052604081208054602691839185908110612d2e57612d2e6149b1565b90600052602060002001548152602001908152602001600020604051806080016040529081600082015481526020016001820154815260200160028201600a806020026040519081016040528092919082600a8015612da2576020028201915b815481526020019060010190808311612d8e575b50505091835250506040805161016081019182905260209092019190600c840190600b9082845b815481526020019060010190808311612dc957505050505081525050905060005b600b811015612e6a578481600b8110612e0557612e056149b1565b6020020151826060015182600b8110612e2057612e206149b1565b6020020151148015612e4757508481600b8110612e3f57612e3f6149b1565b602002015115155b15612e58576001935050505061073b565b80612e6281614937565b915050612dea565b50508080612e7790614937565b915050612cdf565b600160a060020a038216612ed85760405160e560020a62461bcd02815260206004820181905260248201527f4552433732313a206d696e7420746f20746865207a65726f2061646472657373604482015260640161085c565b600081815260026020526040902054600160a060020a031615612f405760405160e560020a62461bcd02815260206004820152601c60248201527f4552433732313a20746f6b656e20616c7265616479206d696e74656400000000604482015260640161085c565b612f4c600083836136e6565b600160a060020a0382166000908152600360205260408120805460019290612f75908490614854565b9091555050600081815260026020526040808220805473ffffffffffffffffffffffffffffffffffffffff1916600160a060020a03861690811790915590518392907fddf252ad1be2c89b69c2b068fc378daa952ba7f163c4a11628f55a4df523b3ef908290a45050565b60088054600160a060020a0383811673ffffffffffffffffffffffffffffffffffffffff19831681179093556040519116919082907f8be0079c531659141344cd1fd0a4f28419497f9722a3daafe3b4186f6b6457e090600090a35050565b60006117b883836137fb565b61305684848461333a565b61306284848484613825565b610b145760405160e560020a62461bcd02815260040161085c906145fd565b6060816130c157505060408051808201909152600181527f3000000000000000000000000000000000000000000000000000000000000000602082015290565b8160005b81156130eb57806130d581614937565b91506130e49050600a8361486c565b91506130c5565b60008167ffffffffffffffff811115613106576131066149ca565b6040519080825280601f01601f191660200182016040528015613130576020820181803683370190505b5090505b841561256c5761314560018361489f565b9150613152600a86614952565b61315d906030614854565b7f010000000000000000000000000000000000000000000000000000000000000002818381518110613191576131916149b1565b6020010190600160f860020a031916908160001a9053506131b3600a8661486c565b9450613134565b600061073b825490565b6000828152600660205260409020600101546131e08133613525565b6109b4838361358c565b6131f482826117bf565b61132e576000828152600660209081526040808320600160a060020a03851684529091529020805460ff1916600117905561322c3390565b600160a060020a031681600160a060020a0316837f2f8788117e7eff1d82e926ec794901d17c78024a50270940304540a733656f0d60405160405180910390a45050565b60008181526001830160205260408120546132b75750815460018181018455600084815260208082209093018490558454848252828601909352604090209190915561073b565b50600061073b565b6000600160e060020a031982167f7965db0b00000000000000000000000000000000000000000000000000000000148061073b575061073b82613967565b7f3fa96d7b6bcbfe71ef171666d84db3cf52fa2d1c8afdb1cc8e486177f208b7df828260405161332e9291906147bd565b60405180910390a15050565b82600160a060020a031661334d82611389565b600160a060020a0316146133cc5760405160e560020a62461bcd02815260206004820152602960248201527f4552433732313a207472616e73666572206f6620746f6b656e2074686174206960448201527f73206e6f74206f776e0000000000000000000000000000000000000000000000606482015260840161085c565b600160a060020a03821661344a5760405160e560020a62461bcd028152602060048201526024808201527f4552433732313a207472616e7366657220746f20746865207a65726f2061646460448201527f7265737300000000000000000000000000000000000000000000000000000000606482015260840161085c565b6134558383836136e6565b6134606000826121ca565b600160a060020a038316600090815260036020526040812080546001929061348990849061489f565b9091555050600160a060020a03821660009081526003602052604081208054600192906134b7908490614854565b9091555050600081815260026020526040808220805473ffffffffffffffffffffffffffffffffffffffff1916600160a060020a0386811691821790925591518493918716917fddf252ad1be2c89b69c2b068fc378daa952ba7f163c4a11628f55a4df523b3ef91a4505050565b61352f82826117bf565b61132e5761354781600160a060020a03166014613a02565b613552836020613a02565b6040516020016135639291906144d6565b60408051601f198184030181529082905260e560020a62461bcd02825261085c916004016145ea565b61359682826117bf565b1561132e576000828152600660209081526040808320600160a060020a0385168085529252808320805460ff1916905551339285917ff6391f5c32d9c69d2a47ea670b442974b53935d1edc7fd64eb21e047a839171b9190a45050565b600081815260018301602052604081205480156136dc57600061361760018361489f565b855490915060009061362b9060019061489f565b905081811461369057600086600001828154811061364b5761364b6149b1565b906000526020600020015490508087600001848154811061366e5761366e6149b1565b6000918252602080832090910192909255918252600188019052604090208390555b85548690806136a1576136a1614998565b60019003818190600052602060002001600090559055856001016000868152602001908152602001600020600090556001935050505061073b565b600091505061073b565b600160a060020a0383166137ae57600d60266000613703600a5490565b8152602081019190915260400160002081548155600180830154908201556137336002808301908401600a613dda565b50613746600c828101908401600b613e05565b5050600a8054600101905550600b54613780908290600160a060020a0381169060a060020a90046bffffffffffffffffffffffff16610a13565b600160a060020a03919091166000908152602760209081526040822080546001810182559083529120015550565b600160a060020a0382166137c6576109b48382613c04565b600160a060020a0382166000908152602760209081526040822080546001810182559083529120018190556109b48382613c04565b6000826000018281548110613812576138126149b1565b9060005260206000200154905092915050565b6000600160a060020a0384163b1561395c576040517f150b7a02000000000000000000000000000000000000000000000000000000008152600160a060020a0385169063150b7a0290613882903390899088908890600401614557565b602060405180830381600087803b15801561389c57600080fd5b505af19250505080156138cc575060408051601f3d908101601f191682019092526138c99181019061422e565b60015b613929573d8080156138fa576040519150601f19603f3d011682016040523d82523d6000602084013e6138ff565b606091505b5080516139215760405160e560020a62461bcd02815260040161085c906145fd565b805181602001fd5b600160e060020a0319167f150b7a020000000000000000000000000000000000000000000000000000000014905061256c565b506001949350505050565b6000600160e060020a031982167f80ac58cd0000000000000000000000000000000000000000000000000000000014806139ca5750600160e060020a031982167f5b5e139f00000000000000000000000000000000000000000000000000000000145b8061073b57507f01ffc9a700000000000000000000000000000000000000000000000000000000600160e060020a031983161461073b565b60606000613a11836002614880565b613a1c906002614854565b67ffffffffffffffff811115613a3457613a346149ca565b6040519080825280601f01601f191660200182016040528015613a5e576020820181803683370190505b5090507f300000000000000000000000000000000000000000000000000000000000000081600081518110613a9557613a956149b1565b6020010190600160f860020a031916908160001a9053507f780000000000000000000000000000000000000000000000000000000000000081600181518110613ae057613ae06149b1565b6020010190600160f860020a031916908160001a9053506000613b04846002614880565b613b0f906001614854565b90505b6001811115613bb2577f303132333435363738396162636465660000000000000000000000000000000085600f1660108110613b5057613b506149b1565b1a7f010000000000000000000000000000000000000000000000000000000000000002828281518110613b8557613b856149b1565b6020010190600160f860020a031916908160001a905350601090940493613bab816148e2565b9050613b12565b5083156117b85760405160e560020a62461bcd02815260206004820181905260248201527f537472696e67733a20686578206c656e67746820696e73756666696369656e74604482015260640161085c565b600080613c118484611b55565b915091508115610b1457600160a060020a03841660009081526027602052604090208054613c419060019061489f565b81548110613c5157613c516149b1565b90600052602060002001546027600086600160a060020a0316600160a060020a031681526020019081526020016000208281548110613c9257613c926149b1565b6000918252602080832090910192909255600160a060020a0386168152602790915260409020805480613cc757613cc7614998565b6001900381819060005260206000200160009055905550505050565b82600b8101928215613d11579160200282015b82811115613d11578251825591602001919060010190613cf6565b50613d1d929150613e2f565b5090565b82600a8101928215613d115791602002820182811115613d11578251825591602001919060010190613cf6565b828054828255906000526020600020908101928215613d115791602002820182811115613d11578251825591602001919060010190613cf6565b60405180608001604052806000815260200160008152602001613da9613e44565b8152602001613db6613dbb565b905290565b604051806101600160405280600b906020820280368337509192915050565b82600a8101928215613d11579182015b82811115613d11578254825591600101919060010190613dea565b82600b8101928215613d115791820182811115613d11578254825591600101919060010190613dea565b5b80821115613d1d5760008155600101613e30565b604051806101400160405280600a906020820280368337509192915050565b600082601f830112613e7457600080fd5b60405161016080820182811067ffffffffffffffff82111715613e9957613e996149ca565b6040528184828101871015613ead57600080fd5b600092505b600b831015613ed257803582526001929092019160209182019101613eb2565b509195945050505050565b80356bffffffffffffffffffffffff81168114613ef957600080fd5b919050565b600060208284031215613f1057600080fd5b81356117b8816149e3565b600060208284031215613f2d57600080fd5b81516117b8816149e3565b60008060408385031215613f4b57600080fd5b8235613f56816149e3565b91506020830135613f66816149e3565b809150509250929050565b600080600060608486031215613f8657600080fd5b8335613f91816149e3565b92506020840135613fa1816149e3565b929592945050506040919091013590565b60008060008060808587031215613fc857600080fd5b8435613fd3816149e3565b9350602085810135613fe4816149e3565b935060408601359250606086013567ffffffffffffffff8082111561400857600080fd5b818801915088601f83011261401c57600080fd5b81358181111561402e5761402e6149ca565b614040601f8201601f19168501614823565b9150808252898482850101111561405657600080fd5b808484018584013760008482840101525080935050505092959194509250565b6000806040838503121561408957600080fd5b8235614094816149e3565b91506020830135613f66816149f8565b6000808284036103008112156140b957600080fd5b83356140c4816149e3565b925060206102e0601f19830112156140db57600080fd5b6140e36147d6565b915080850135825260408501358183015285607f86011261410357600080fd5b61410b6147ff565b80606087016101a088018981111561412257600080fd5b60005b600a81101561414257823585529385019391850191600101614125565b508260408701526141538a82613e63565b60608701525050505050809150509250929050565b6000806040838503121561417b57600080fd5b8235614186816149e3565b946020939093013593505050565b6000602082840312156141a657600080fd5b81516117b8816149f8565b6000602082840312156141c357600080fd5b5035919050565b600080604083850312156141dd57600080fd5b823591506020830135613f66816149e3565b6000806040838503121561420257600080fd5b50508035926020909101359150565b60006020828403121561422357600080fd5b81356117b881614a06565b60006020828403121561424057600080fd5b81516117b881614a06565b60006101a080838503121561425f57600080fd5b6142676147d6565b83518152602080850151818301526040850151604083015285607f86011261428e57600080fd5b6142966147ff565b80606087018886890111156142aa57600080fd5b600095505b600a8610156142ce5780518352600195909501949183019183016142af565b506060840152509095945050505050565b6000806000606084860312156142f457600080fd5b833592506020840135614306816149e3565b915061431460408501613edd565b90509250925092565b600080610180838503121561433157600080fd5b823591506143428460208501613e63565b90509250929050565b6000806040838503121561435e57600080fd5b8235915060208084013567ffffffffffffffff8082111561437e57600080fd5b818601915086601f83011261439257600080fd5b8135818111156143a4576143a46149ca565b83810291506143b4848301614823565b8181528481019084860184860187018b10156143cf57600080fd5b600095505b838610156143f25780358352600195909501949186019186016143d4565b508096505050505050509250929050565b60006020828403121561441557600080fd5b6117b882613edd565b600081518084526020808501945080840160005b838110156144705781518051600160a060020a031688528301516bffffffffffffffffffffffff168388015260409096019590820190600101614432565b509495945050505050565b600081518084526144938160208601602086016148b6565b601f01601f19169290920160200192915050565b600083516144b98184602088016148b6565b8351908301906144cd8183602088016148b6565b01949350505050565b7f416363657373436f6e74726f6c3a206163636f756e742000000000000000000081526000835161450e8160178501602088016148b6565b7f206973206d697373696e6720726f6c6520000000000000000000000000000000601791840191820152835161454b8160288401602088016148b6565b01602801949350505050565b6000600160a060020a03808716835280861660208401525083604083015260806060830152614589608083018461447b565b9695505050505050565b6020815260006117b8602083018461441e565b6020808252825182820181905260009190848201906040850190845b818110156145de578351835292840192918401916001016145c2565b50909695505050505050565b6020815260006117b8602083018461447b565b60208082526032908201527f4552433732313a207472616e7366657220746f206e6f6e20455243373231526560408201527f63656976657220696d706c656d656e7465720000000000000000000000000000606082015260800190565b60208082526028908201527f457863657074696f6e3a206d7573742068617665206d696e74657220726f6c6560408201527f20746f206d696e74000000000000000000000000000000000000000000000000606082015260800190565b6020808252818101527f4f776e61626c653a2063616c6c6572206973206e6f7420746865206f776e6572604082015260600190565b60208082526031908201527f4552433732313a207472616e736665722063616c6c6572206973206e6f74206f60408201527f776e6572206e6f7220617070726f766564000000000000000000000000000000606082015260800190565b81518152602080830151818301526040808401516102e084019291840160005b600a81101561478657825182529183019190830190600101614769565b5050506060840151610180840160005b600b8110156147b357825182529183019190830190600101614796565b5050505092915050565b82815260406020820152600061256c604083018461441e565b6040516080810167ffffffffffffffff811182821017156147f9576147f96149ca565b60405290565b604051610140810167ffffffffffffffff811182821017156147f9576147f96149ca565b604051601f8201601f1916810167ffffffffffffffff8111828210171561484c5761484c6149ca565b604052919050565b6000821982111561486757614867614966565b500190565b60008261487b5761487b61497f565b500490565b600081600019048311821515161561489a5761489a614966565b500290565b6000828210156148b1576148b1614966565b500390565b60005b838110156148d15781810151838201526020016148b9565b83811115610b145750506000910152565b6000816148f1576148f1614966565b506000190190565b60028104600182168061490d57607f821691505b602082108114156149315760e060020a634e487b7102600052602260045260246000fd5b50919050565b600060001982141561494b5761494b614966565b5060010190565b6000826149615761496161497f565b500690565b60e060020a634e487b7102600052601160045260246000fd5b60e060020a634e487b7102600052601260045260246000fd5b60e060020a634e487b7102600052603160045260246000fd5b60e060020a634e487b7102600052603260045260246000fd5b60e060020a634e487b7102600052604160045260246000fd5b600160a060020a038116811461216a57600080fd5b801515811461216a57600080fd5b600160e060020a03198116811461216a57600080fdfea2646970667358221220c5e390d7724b636fa4207141f2cc389a379a72821e1cd929cb576eb69ad328c064736f6c63430008060033",
  "immutableReferences": {},
  "source": "//SPDX-License-Identifier: MIT\npragma solidity ^0.8.0;\n\nimport \"@openzeppelin/contracts/token/ERC721/ERC721.sol\";\nimport \"@openzeppelin/contracts/access/Ownable.sol\";\nimport \"@openzeppelin/contracts/access/AccessControlEnumerable.sol\";\nimport \"@openzeppelin/contracts/utils/Counters.sol\";\nimport \"./rarible/royalties/contracts/impl/RoyaltiesV2Impl.sol\";\nimport \"./rarible/royalties/contracts/LibPart.sol\";\nimport \"./rarible/royalties/contracts/LibRoyaltiesV2.sol\";\n\nimport \"./Equipment.sol\";\n\n/*\nCharacters will contains both Players and Enemies\nConsicderations:\nMay equip any player with gear you own, but only if this gear is not used in any other player you own\nCannot equip any enemy. Only equiped at crestion time\nPlayers may be transfered only when naked (no wearing any gear)\nEnemies may be transferef always full equiped. This is an exception\nWhen equip a player, all current equipment is unequiped and substituted by new one\nCalls to funtion 'equip' allways send full equip structure\n*/\n\ncontract Characters is ERC721, AccessControlEnumerable, Ownable, RoyaltiesV2Impl {\n\n    using Counters for Counters.Counter;\n    Counters.Counter private _tokenIdTracker;\n    \n    //Adds support for OpenSea\n    bytes4 private constant _INTERFACE_ID_ERC2981 = 0x2a55205a;\n\n    //Roles of monter and burner\n    bytes32 public constant MINTER_ROLE = keccak256(\"MINTER_ROLE\");\n    bytes32 public constant POLYMATH_ROLE = keccak256(\"POLYMATH_ROLE\");\n\n    //Royaties address and amntou\n    address payable private _royaltiesAddress;\n    uint96 _royaltiesBasicPoints;\n\n    Equipment internal _gearNFT;      //Address of equipement NFT SC\n\n\n    //Stats of players and enemies\n    struct charData {\n        uint256 class;\t        //Internal class 0 for player, index of enemies\n        uint256 level;      \t//By default is 0. Evolvable NFTs may upgrade this level\n\n        uint256[10] stats;      //0-Health 1-Vitality 2-Attack 3-Defense 4-Mastery \n                                //5-Speed 6-Luck 7-Faith 8-reserved 9-reserved\n                                //NOTE: DO NOT USE DECIMALS, INSTEAD MULTIPLY BY 100\n\n        uint256[11] gear;       //0-Head 1-Neck 2-Chest 3-Belt 4-Legs 5-Feet 6-Arms \n                                //7-RHand (weapon) 8-LHand(complement) 9-Finger 10-Mount\n                                //NOTE: slot #0 in the Equipment SC means wildcard\n                                //That means that what is in gear[n] matches slot n+1 in Equipment struct\n                                //NOTE: Value 0 in any position means empty.\n    }\n\n    //Used by _beforeTokenTransfer to catch the after minting\n    charData private statsToMint;\n\n    //maximum level a player can go. \n    //This value may be updated based on the current tier\n    //For first tier we may limit to 10, the for second to 20, etc...\n    //The upgrade matrix MUST be also updated in order to go further with tiers\n    uint maxLevel;\n\n    //It MUST contains the coeficients to apply to each level upgrade\n    //There must be the same amount of element as maxLevel\n    //For example, in tier 1 maxLevel=10\n    //upgradeMatrix=[0, 5, 10, 14, 18, 21, 24, 26, 28, 30]\n    //Each level means the percentage of upgrade for the level regarding the basic stats    \n    uint256[] upgradeMatrix;\n\n\n    //Mapping from NFT to struct\n    mapping(uint256 => charData) private values;\n\n    // Mapping from owner address to token ID. It is used to quickly get all NFTs off an address\n    mapping(address => uint256[]) private _tokensByOwner;\n\n    constructor() ERC721(\"Chains of Glory Characters\", \"CGC\") payable {\n        _setupRole(DEFAULT_ADMIN_ROLE, _msgSender());\n\n        _setupRole(MINTER_ROLE, _msgSender());\n        _setupRole(POLYMATH_ROLE, _msgSender());\n    }\n\n    //Creation of a player or enemy\n    //Only MINTER_ROLE may create a player or enemy\n    //May equip it only with owned gear (nor weared in another player)\n    //It is the only place where contracts owners may equip an enemy\n    //Can only equip existing gear\n    //Can only equip with owned gear\n    //Verifies that gear is in the apropriate slot\n    //Can only equip gear not used in another players\n    function mint(address _to, charData memory data) public {\n        require(hasRole(MINTER_ROLE, _msgSender()), \"Exception: must have minter role to mint\");\n        require(gearExists(data.gear), \"Exception: some gear used does not exists in mint\");\n        require(ownAllGear(_to, data.gear), \"Exception: player does not own all gear in mint\");\n        require(gearSlotOk(data.gear), \"Exception: some gear is not in the apropriate slot in mint\");\n        require(!alreadyEquiped(_to, data.gear), \"Exception: some gear is already equiped in other player in mint\");\n        \n        //Royaties address and amntou\n        _royaltiesAddress=payable(address(this)); //Contract creator by default\n        _royaltiesBasicPoints=1500; //15% default\n\n        //Stores the struct to assign when mint os ok\n        statsToMint=data;\n        super._mint(_to, _tokenIdTracker.current()); \n    }\n\n\n    //Equipment Token Address\n    function setEquipmentAddress(address equipment) public onlyOwner {\n        _gearNFT=Equipment(equipment);\n    }\n\n    //Royalties Address\n    function setRoyaltiesAddress(address payable rAddress) public onlyOwner {\n        _royaltiesAddress=rAddress;\n    }\n\n    //Royalties fee\n    function setRoyaltiesBasicPoints(uint96 rBasicPoints) public onlyOwner {\n        _royaltiesBasicPoints=rBasicPoints;\n    }\n\n    //Update the level of the player \n    //Only Polymath role can do it. \n    //To recalculate stats function uses the upgrade matrix. See above...\n    function updateLevel(uint256 player) public {\n        require(hasRole(POLYMATH_ROLE, _msgSender()), \"Exception: only the Polymath can call this function\");\n        require((values[player].level + 1) < maxLevel, \"Exception: player is already at max level\");\n        \n        values[player].level++;\n    }\n\n    //Set the max level of the gears\n    function setMaxLevel(uint lvl, uint256[] memory matrixValues) public {\n        require(owner() == _msgSender(), \"Ownable: caller is not the owner\");\n        require(lvl == matrixValues.length, \"Exception: must provide a matrix of values of the same lenght than level\");\n\n        maxLevel=lvl;\n        upgradeMatrix=matrixValues;\n    }\n\n    function getMatrix() public view returns (uint256[] memory){\n        return upgradeMatrix;\n    }\n\n    //Equip al gear pased in the arrat\n    //The previous gear is replaced by the new one\n    //Cannot equip enemies\n    //Can only equip a player owned\n    //Can only equip existing gear\n    //Can only equip with owned gear\n    //Verifies that gear is in the apropriate slot\n    //Can only equip gear not used in another players\n    function equip(uint256 player, uint256[11] memory gear) public {\n        require(values[player].class == 0, \"Exception: Cannot equip an enemy!\");\n        require(ownerOf(player) == _msgSender(), \"Exception: must be owner of the player to equip\");\n        require(gearExists(gear), \"Exception: some gear used does not exists in equip\");\n        require(ownAllGear(ownerOf(player), gear), \"Exception: player does not own all gear in equip\");\n        require(gearSlotOk(gear), \"Exception: some gear is not in the apropriate slot in equip\");\n        require(!alreadyEquipedInOtherPlayer(player, gear), \"Exception: some gear is already equiped in other player in equip\");\n        \n        //Stores the struct to assign when mint os ok\n        values[player].gear=gear;\n    }\n    \n    //Override of the transfer function\n    //Verify that player has no equipment before transfer it\n    //hasEquipment do not test the enemies, remember that enemies are only cellectibles for users\n    function transferFrom(\n        address from,\n        address to,\n        uint256 tokenId\n    ) public virtual override {\n        require(_isApprovedOrOwner(_msgSender(), tokenId), \"ERC721: transfer caller is not owner nor approved\");\n        require(!hasEquipment(tokenId), \"Exception: cannot transfer a player wearing any equipment\");\n\n        super.transferFrom(from, to, tokenId);\n    }\n\n    //Unequip a player before transfer ir\n    //This function has been created to optimize the transfer process\n    //All gear remains at owner wallet\n    function unequipAndTransferFrom(\n        address from,\n        address to,\n        uint256 tokenId\n    ) public {\n        //Vefiory unequip a player test that sender is owner\n        require(_isApprovedOrOwner(_msgSender(), tokenId), \"ERC721: transfer caller is not owner nor approved\");\n        require(values[tokenId].class == 0, \"Exception: Cannot unequip an enemy!\");\n        /*\n        charData memory data=values[tokenId];\n        for(uint j=0; j<data.gear.length; j++) {\n            data.gear[j]=0;\n        }\n        */\n        uint256[11] memory empty;\n        values[tokenId].gear=empty;\n        transferFrom(from, to, tokenId);\n    }\n\n    //Override of the function\n    //Test what actions has been performed and then asign stats and update the _tokensByOwner \n    function _beforeTokenTransfer(address from, address to, uint256 tokenId) internal virtual override(ERC721) {\n        if(from==address(0)) {\n            //Minting ok, creates struct of stats\n            values[_tokenIdTracker.current()] = statsToMint;\n            _tokenIdTracker.increment();\n\n            //When mint a new NFT sets the royalties address\n            setRoyalties(tokenId, _royaltiesAddress, _royaltiesBasicPoints);\n\n            //Updates the _tokensByOwner mapping            \n            _tokensByOwner[to].push(tokenId);\n        } else if(to==address(0)) {\n            //Burning\n\n            //Updates the _tokensByOwner mapping\n            deleteTokenId(from, tokenId);\n        } else {\n            //Normal transfer\n\n            //Updates the _tokensByOwner mapping\n            _tokensByOwner[to].push(tokenId);\n            deleteTokenId(from, tokenId);\n        }\n    }\n\n    //Returns the array of NFTs owned by an address\n    function getCharacters(address powner) public view returns (uint256[] memory) {\n        return _tokensByOwner[powner];\n    }\n\n\n    //Returns the base gearStats of the NFT (without applying any equipement or level)\n    function baseStats(uint256 idPJ) public view returns(charData memory) {\n        return values[idPJ];\n    }\n\n    //Returns the gearStats of the NFT aplying the level modifier\n    function singleStats(uint256 idPJ) public view returns(charData memory) {\n        charData memory baseChar=values[idPJ];\n        if(baseChar.level!=0) {\n            uint256 multiplier=upgradeMatrix[baseChar.level];        \n            for(uint i=0; i< baseChar.stats.length; i++) {\n                baseChar.stats[i]+=(baseChar.stats[i]*multiplier)/100;\n            }\n        }\n        return baseChar;\n    }    \n\n    //Returns the actual stats of the player calculating all the equped gear and leveling\n    function calculatedStats(uint256 idPJ) public view returns(charData memory) {\n        charData memory baseChar=singleStats(idPJ);\n        for(uint i=0; i<values[idPJ].gear.length; i++) {\n            if(values[idPJ].gear[i]!=0) {\n                //Add stats from gear NFT\n                Equipment.gearStats memory gear = _gearNFT.singleStats(values[idPJ].gear[i]);\n                for(uint j=0; j<baseChar.stats.length; j++) {\n                    baseChar.stats[j]+=gear.stats[j];\n                }\n            }\n        }\n        return baseChar;\n    }\n\n    function _baseURI() internal view virtual override returns (string memory) {\n        return \"https://exampledomain/metadata/\";\n    }\n\n    function setRoyalties(uint256 _tokenId, address payable _royaltiesReceipientAddress, uint96 _percentageBasisPoints) public {\n        require(hasRole(MINTER_ROLE, _msgSender()), \"Exception: must have minter role to mint\");\n        LibPart.Part[] memory _royalties = new LibPart.Part[](1);\n        _royalties[0].value = _percentageBasisPoints;\n        _royalties[0].account = _royaltiesReceipientAddress;\n        _saveRoyalties(_tokenId, _royalties);\n    }\n\n    function royaltyInfo(uint256 _tokenId, uint256 _salePrice ) external view returns ( address receiver, uint256 royaltyAmount) {\n        LibPart.Part[] memory _royalties = royalties[_tokenId];\n        if(_royalties.length > 0) {\n            return(_royalties[0].account, (_salePrice * _royalties[0].value)/10000);\n        }\n        return (address(0), 0);\n    }\n\n    function supportsInterface(bytes4 interfaceId) public view virtual override(ERC721, AccessControlEnumerable) returns (bool) {\n        if (interfaceId == LibRoyaltiesV2._INTERFACE_ID_ROYALTIES) {\n            return true;\n        }\n\n        if(interfaceId == _INTERFACE_ID_ERC2981) {\n            return true;\n        }\n\n        return super.supportsInterface(interfaceId);\n    }\n\n    //************************************************************\n    // ARRAY functions \n    //************************************************************\n    function positionOf(address powner, uint256 tokenId) public view returns (bool, uint) {\n        for(uint i=0; i<_tokensByOwner[powner].length; i++) {\n            if(_tokensByOwner[powner][i]==tokenId)\n                return (true, i);\n        }\n        return (false, 0);\n    }\n\n    function deleteTokenId(address powner, uint256 tokenId) internal {\n        //Updates the _tokensByOwner mapping\n        (bool found, uint pos)=positionOf(powner, tokenId);\n        if(found) {\n            _tokensByOwner[powner][pos]= _tokensByOwner[powner][ _tokensByOwner[powner].length-1];\n            _tokensByOwner[powner].pop();\n        }\n    }\n\n    //Test that all gear passed exists \n    function gearExists(uint256[11] memory gear) internal view returns (bool) {\n        for(uint i=0; i<gear.length; i++) {            \n            if(!_gearNFT.exists(gear[i]))\n                return false;\n        }\n        return true;\n    }\n\n    //Test that all gear passed in the data is owned by _to     \n    function ownAllGear(address powner, uint256[11] memory gear) internal view returns (bool) {\n        for(uint i=0; i<gear.length; i++) {\n            \n            if(!_gearNFT.exists(gear[i]))\n                return false;\n\n            if(gear[i]!=0) { //gear=0 means empty\n                //Test that _to is the owner\n                if(_gearNFT.ownerOf(gear[i])!=powner) {\n                    return false;\n                }\n            }\n        }\n        return true;\n    }\n\n    //Test that every gear is on the apropriate slot\n    function gearSlotOk(uint256[11] memory gear) internal view returns (bool) {\n        for(uint i=0; i<gear.length; i++) {\n            if(gear[i]!=0) { //gear=0 means empty\n                //Test that equipment is on the right slot (or is a wildcard)\n                Equipment.gearStats memory gearNFT= _gearNFT.singleStats(gear[i]);\n                if(gearNFT.slot!=100 && gearNFT.slot!=i) // slot 100 is for wildcards\n                    return false;\n            }\n        }\n        return true;\n    }\n\n    //Test that all gear passed in the data is already equiped    \n    function alreadyEquiped(address powner, uint256[11] memory gear) internal view returns (bool) {\n        //For all PJs in the owner\n        for(uint i=0; i<_tokensByOwner[powner].length; i++) {\n            //Get the PJ data struct\n            charData memory dataTest= values[_tokensByOwner[powner][i]];\n\n            //Check 1 by 1 the slots\n            for(uint j=0; j<gear.length; j++) {\n                if(dataTest.gear[j]==gear[j] && gear[j]!=0)\n                    return true;\n            }\n        }\n        return false;\n    }\n\n    //Test that all gear passed in the data is already equiped    \n    function alreadyEquipedInOtherPlayer(uint256 player, uint256[11] memory gear) internal view returns (bool) {\n        address powner=ownerOf(player);\n        //For all PJs in the owner (except the one to equip)\n        for(uint i=0; i<_tokensByOwner[powner].length; i++) {\n            if(_tokensByOwner[powner][i] != player) {\n                //Get the PJ data struct\n                charData memory dataTest= values[_tokensByOwner[powner][i]];\n\n                //Check 1 by 1 the slots\n                for(uint j=0; j<gear.length; j++) {\n                    if(dataTest.gear[j]==gear[j] && gear[j]!=0)\n                        return true;\n                }\n            }\n        }\n        return false;\n    }\n\n    \n\n    //Test if the PJ has some gear equiped. Remember that cannot transfer a PJ with gear equiped\n    function hasEquipment(uint256 player) internal view returns (bool){\n        charData memory data=values[player];\n        \n        //If is an enemy, no problem in transfer it\n        if(data.class!=0)\n            return false;\n\n        for(uint j=0; j<data.gear.length; j++) {\n            if(data.gear[j]!=0)\n                return true;\n        }\n        return false;\n    }\n}",
  "sourcePath": "/home/javi/ChainsOfGlory/contracts/Characters.sol",
  "compiler": {
    "name": "solc",
    "version": "0.8.6+commit.11564f7e.Emscripten.clang"
  },
  "schemaVersion": "3.4.3",
  "updatedAt": "2021-11-23T19:19:58.410Z",
  "devdoc": {
    "kind": "dev",
    "methods": {
      "approve(address,uint256)": {
        "details": "See {IERC721-approve}."
      },
      "balanceOf(address)": {
        "details": "See {IERC721-balanceOf}."
      },
      "getApproved(uint256)": {
        "details": "See {IERC721-getApproved}."
      },
      "getRoleAdmin(bytes32)": {
        "details": "Returns the admin role that controls `role`. See {grantRole} and {revokeRole}. To change a role's admin, use {_setRoleAdmin}."
      },
      "getRoleMember(bytes32,uint256)": {
        "details": "Returns one of the accounts that have `role`. `index` must be a value between 0 and {getRoleMemberCount}, non-inclusive. Role bearers are not sorted in any particular way, and their ordering may change at any point. WARNING: When using {getRoleMember} and {getRoleMemberCount}, make sure you perform all queries on the same block. See the following https://forum.openzeppelin.com/t/iterating-over-elements-on-enumerableset-in-openzeppelin-contracts/2296[forum post] for more information."
      },
      "getRoleMemberCount(bytes32)": {
        "details": "Returns the number of accounts that have `role`. Can be used together with {getRoleMember} to enumerate all bearers of a role."
      },
      "grantRole(bytes32,address)": {
        "details": "Overload {grantRole} to track enumerable memberships"
      },
      "hasRole(bytes32,address)": {
        "details": "Returns `true` if `account` has been granted `role`."
      },
      "isApprovedForAll(address,address)": {
        "details": "See {IERC721-isApprovedForAll}."
      },
      "name()": {
        "details": "See {IERC721Metadata-name}."
      },
      "owner()": {
        "details": "Returns the address of the current owner."
      },
      "ownerOf(uint256)": {
        "details": "See {IERC721-ownerOf}."
      },
      "renounceOwnership()": {
        "details": "Leaves the contract without owner. It will not be possible to call `onlyOwner` functions anymore. Can only be called by the current owner. NOTE: Renouncing ownership will leave the contract without an owner, thereby removing any functionality that is only available to the owner."
      },
      "renounceRole(bytes32,address)": {
        "details": "Overload {renounceRole} to track enumerable memberships"
      },
      "revokeRole(bytes32,address)": {
        "details": "Overload {revokeRole} to track enumerable memberships"
      },
      "safeTransferFrom(address,address,uint256)": {
        "details": "See {IERC721-safeTransferFrom}."
      },
      "safeTransferFrom(address,address,uint256,bytes)": {
        "details": "See {IERC721-safeTransferFrom}."
      },
      "setApprovalForAll(address,bool)": {
        "details": "See {IERC721-setApprovalForAll}."
      },
      "symbol()": {
        "details": "See {IERC721Metadata-symbol}."
      },
      "tokenURI(uint256)": {
        "details": "See {IERC721Metadata-tokenURI}."
      },
      "transferFrom(address,address,uint256)": {
        "details": "See {IERC721-transferFrom}."
      },
      "transferOwnership(address)": {
        "details": "Transfers ownership of the contract to a new account (`newOwner`). Can only be called by the current owner."
      }
    },
    "version": 1
  },
  "userdoc": {
    "kind": "user",
    "methods": {},
    "version": 1
  }
}