{
  "contractName": "Characters",
  "abi": [
    {
      "inputs": [],
      "stateMutability": "nonpayable",
      "type": "constructor"
    },
    {
      "anonymous": false,
      "inputs": [
        {
          "indexed": true,
          "internalType": "address",
          "name": "owner",
          "type": "address"
        },
        {
          "indexed": true,
          "internalType": "address",
          "name": "approved",
          "type": "address"
        },
        {
          "indexed": true,
          "internalType": "uint256",
          "name": "tokenId",
          "type": "uint256"
        }
      ],
      "name": "Approval",
      "type": "event"
    },
    {
      "anonymous": false,
      "inputs": [
        {
          "indexed": true,
          "internalType": "address",
          "name": "owner",
          "type": "address"
        },
        {
          "indexed": true,
          "internalType": "address",
          "name": "operator",
          "type": "address"
        },
        {
          "indexed": false,
          "internalType": "bool",
          "name": "approved",
          "type": "bool"
        }
      ],
      "name": "ApprovalForAll",
      "type": "event"
    },
    {
      "anonymous": false,
      "inputs": [
        {
          "indexed": true,
          "internalType": "address",
          "name": "previousOwner",
          "type": "address"
        },
        {
          "indexed": true,
          "internalType": "address",
          "name": "newOwner",
          "type": "address"
        }
      ],
      "name": "OwnershipTransferred",
      "type": "event"
    },
    {
      "anonymous": false,
      "inputs": [
        {
          "indexed": true,
          "internalType": "bytes32",
          "name": "role",
          "type": "bytes32"
        },
        {
          "indexed": true,
          "internalType": "bytes32",
          "name": "previousAdminRole",
          "type": "bytes32"
        },
        {
          "indexed": true,
          "internalType": "bytes32",
          "name": "newAdminRole",
          "type": "bytes32"
        }
      ],
      "name": "RoleAdminChanged",
      "type": "event"
    },
    {
      "anonymous": false,
      "inputs": [
        {
          "indexed": true,
          "internalType": "bytes32",
          "name": "role",
          "type": "bytes32"
        },
        {
          "indexed": true,
          "internalType": "address",
          "name": "account",
          "type": "address"
        },
        {
          "indexed": true,
          "internalType": "address",
          "name": "sender",
          "type": "address"
        }
      ],
      "name": "RoleGranted",
      "type": "event"
    },
    {
      "anonymous": false,
      "inputs": [
        {
          "indexed": true,
          "internalType": "bytes32",
          "name": "role",
          "type": "bytes32"
        },
        {
          "indexed": true,
          "internalType": "address",
          "name": "account",
          "type": "address"
        },
        {
          "indexed": true,
          "internalType": "address",
          "name": "sender",
          "type": "address"
        }
      ],
      "name": "RoleRevoked",
      "type": "event"
    },
    {
      "anonymous": false,
      "inputs": [
        {
          "indexed": false,
          "internalType": "uint256",
          "name": "tokenId",
          "type": "uint256"
        },
        {
          "components": [
            {
              "internalType": "address payable",
              "name": "account",
              "type": "address"
            },
            {
              "internalType": "uint96",
              "name": "value",
              "type": "uint96"
            }
          ],
          "indexed": false,
          "internalType": "struct LibPart.Part[]",
          "name": "royalties",
          "type": "tuple[]"
        }
      ],
      "name": "RoyaltiesSet",
      "type": "event"
    },
    {
      "anonymous": false,
      "inputs": [
        {
          "indexed": true,
          "internalType": "address",
          "name": "from",
          "type": "address"
        },
        {
          "indexed": true,
          "internalType": "address",
          "name": "to",
          "type": "address"
        },
        {
          "indexed": true,
          "internalType": "uint256",
          "name": "tokenId",
          "type": "uint256"
        }
      ],
      "name": "Transfer",
      "type": "event"
    },
    {
      "inputs": [],
      "name": "DEFAULT_ADMIN_ROLE",
      "outputs": [
        {
          "internalType": "bytes32",
          "name": "",
          "type": "bytes32"
        }
      ],
      "stateMutability": "view",
      "type": "function"
    },
    {
      "inputs": [],
      "name": "MINTER_ROLE",
      "outputs": [
        {
          "internalType": "bytes32",
          "name": "",
          "type": "bytes32"
        }
      ],
      "stateMutability": "view",
      "type": "function"
    },
    {
      "inputs": [],
      "name": "POLYMATH_ROLE",
      "outputs": [
        {
          "internalType": "bytes32",
          "name": "",
          "type": "bytes32"
        }
      ],
      "stateMutability": "view",
      "type": "function"
    },
    {
      "inputs": [],
      "name": "QUEST_ROLE",
      "outputs": [
        {
          "internalType": "bytes32",
          "name": "",
          "type": "bytes32"
        }
      ],
      "stateMutability": "view",
      "type": "function"
    },
    {
      "inputs": [
        {
          "internalType": "address",
          "name": "to",
          "type": "address"
        },
        {
          "internalType": "uint256",
          "name": "tokenId",
          "type": "uint256"
        }
      ],
      "name": "approve",
      "outputs": [],
      "stateMutability": "nonpayable",
      "type": "function"
    },
    {
      "inputs": [
        {
          "internalType": "address",
          "name": "owner",
          "type": "address"
        }
      ],
      "name": "balanceOf",
      "outputs": [
        {
          "internalType": "uint256",
          "name": "",
          "type": "uint256"
        }
      ],
      "stateMutability": "view",
      "type": "function"
    },
    {
      "inputs": [
        {
          "internalType": "uint256",
          "name": "tokenId",
          "type": "uint256"
        }
      ],
      "name": "getApproved",
      "outputs": [
        {
          "internalType": "address",
          "name": "",
          "type": "address"
        }
      ],
      "stateMutability": "view",
      "type": "function"
    },
    {
      "inputs": [
        {
          "internalType": "uint256",
          "name": "id",
          "type": "uint256"
        }
      ],
      "name": "getRaribleV2Royalties",
      "outputs": [
        {
          "components": [
            {
              "internalType": "address payable",
              "name": "account",
              "type": "address"
            },
            {
              "internalType": "uint96",
              "name": "value",
              "type": "uint96"
            }
          ],
          "internalType": "struct LibPart.Part[]",
          "name": "",
          "type": "tuple[]"
        }
      ],
      "stateMutability": "view",
      "type": "function"
    },
    {
      "inputs": [
        {
          "internalType": "bytes32",
          "name": "role",
          "type": "bytes32"
        }
      ],
      "name": "getRoleAdmin",
      "outputs": [
        {
          "internalType": "bytes32",
          "name": "",
          "type": "bytes32"
        }
      ],
      "stateMutability": "view",
      "type": "function"
    },
    {
      "inputs": [
        {
          "internalType": "bytes32",
          "name": "role",
          "type": "bytes32"
        },
        {
          "internalType": "uint256",
          "name": "index",
          "type": "uint256"
        }
      ],
      "name": "getRoleMember",
      "outputs": [
        {
          "internalType": "address",
          "name": "",
          "type": "address"
        }
      ],
      "stateMutability": "view",
      "type": "function"
    },
    {
      "inputs": [
        {
          "internalType": "bytes32",
          "name": "role",
          "type": "bytes32"
        }
      ],
      "name": "getRoleMemberCount",
      "outputs": [
        {
          "internalType": "uint256",
          "name": "",
          "type": "uint256"
        }
      ],
      "stateMutability": "view",
      "type": "function"
    },
    {
      "inputs": [
        {
          "internalType": "bytes32",
          "name": "role",
          "type": "bytes32"
        },
        {
          "internalType": "address",
          "name": "account",
          "type": "address"
        }
      ],
      "name": "grantRole",
      "outputs": [],
      "stateMutability": "nonpayable",
      "type": "function"
    },
    {
      "inputs": [
        {
          "internalType": "bytes32",
          "name": "role",
          "type": "bytes32"
        },
        {
          "internalType": "address",
          "name": "account",
          "type": "address"
        }
      ],
      "name": "hasRole",
      "outputs": [
        {
          "internalType": "bool",
          "name": "",
          "type": "bool"
        }
      ],
      "stateMutability": "view",
      "type": "function"
    },
    {
      "inputs": [
        {
          "internalType": "address",
          "name": "owner",
          "type": "address"
        },
        {
          "internalType": "address",
          "name": "operator",
          "type": "address"
        }
      ],
      "name": "isApprovedForAll",
      "outputs": [
        {
          "internalType": "bool",
          "name": "",
          "type": "bool"
        }
      ],
      "stateMutability": "view",
      "type": "function"
    },
    {
      "inputs": [],
      "name": "name",
      "outputs": [
        {
          "internalType": "string",
          "name": "",
          "type": "string"
        }
      ],
      "stateMutability": "view",
      "type": "function"
    },
    {
      "inputs": [],
      "name": "owner",
      "outputs": [
        {
          "internalType": "address",
          "name": "",
          "type": "address"
        }
      ],
      "stateMutability": "view",
      "type": "function"
    },
    {
      "inputs": [
        {
          "internalType": "uint256",
          "name": "tokenId",
          "type": "uint256"
        }
      ],
      "name": "ownerOf",
      "outputs": [
        {
          "internalType": "address",
          "name": "",
          "type": "address"
        }
      ],
      "stateMutability": "view",
      "type": "function"
    },
    {
      "inputs": [],
      "name": "renounceOwnership",
      "outputs": [],
      "stateMutability": "nonpayable",
      "type": "function"
    },
    {
      "inputs": [
        {
          "internalType": "bytes32",
          "name": "role",
          "type": "bytes32"
        },
        {
          "internalType": "address",
          "name": "account",
          "type": "address"
        }
      ],
      "name": "renounceRole",
      "outputs": [],
      "stateMutability": "nonpayable",
      "type": "function"
    },
    {
      "inputs": [
        {
          "internalType": "bytes32",
          "name": "role",
          "type": "bytes32"
        },
        {
          "internalType": "address",
          "name": "account",
          "type": "address"
        }
      ],
      "name": "revokeRole",
      "outputs": [],
      "stateMutability": "nonpayable",
      "type": "function"
    },
    {
      "inputs": [
        {
          "internalType": "uint256",
          "name": "",
          "type": "uint256"
        },
        {
          "internalType": "uint256",
          "name": "",
          "type": "uint256"
        }
      ],
      "name": "royalties",
      "outputs": [
        {
          "internalType": "address payable",
          "name": "account",
          "type": "address"
        },
        {
          "internalType": "uint96",
          "name": "value",
          "type": "uint96"
        }
      ],
      "stateMutability": "view",
      "type": "function"
    },
    {
      "inputs": [
        {
          "internalType": "address",
          "name": "from",
          "type": "address"
        },
        {
          "internalType": "address",
          "name": "to",
          "type": "address"
        },
        {
          "internalType": "uint256",
          "name": "tokenId",
          "type": "uint256"
        }
      ],
      "name": "safeTransferFrom",
      "outputs": [],
      "stateMutability": "nonpayable",
      "type": "function"
    },
    {
      "inputs": [
        {
          "internalType": "address",
          "name": "from",
          "type": "address"
        },
        {
          "internalType": "address",
          "name": "to",
          "type": "address"
        },
        {
          "internalType": "uint256",
          "name": "tokenId",
          "type": "uint256"
        },
        {
          "internalType": "bytes",
          "name": "_data",
          "type": "bytes"
        }
      ],
      "name": "safeTransferFrom",
      "outputs": [],
      "stateMutability": "nonpayable",
      "type": "function"
    },
    {
      "inputs": [
        {
          "internalType": "address",
          "name": "operator",
          "type": "address"
        },
        {
          "internalType": "bool",
          "name": "approved",
          "type": "bool"
        }
      ],
      "name": "setApprovalForAll",
      "outputs": [],
      "stateMutability": "nonpayable",
      "type": "function"
    },
    {
      "inputs": [],
      "name": "symbol",
      "outputs": [
        {
          "internalType": "string",
          "name": "",
          "type": "string"
        }
      ],
      "stateMutability": "view",
      "type": "function"
    },
    {
      "inputs": [
        {
          "internalType": "uint256",
          "name": "tokenId",
          "type": "uint256"
        }
      ],
      "name": "tokenURI",
      "outputs": [
        {
          "internalType": "string",
          "name": "",
          "type": "string"
        }
      ],
      "stateMutability": "view",
      "type": "function"
    },
    {
      "inputs": [
        {
          "internalType": "address",
          "name": "newOwner",
          "type": "address"
        }
      ],
      "name": "transferOwnership",
      "outputs": [],
      "stateMutability": "nonpayable",
      "type": "function"
    },
    {
      "inputs": [
        {
          "internalType": "address",
          "name": "_to",
          "type": "address"
        },
        {
          "components": [
            {
              "internalType": "uint256",
              "name": "class",
              "type": "uint256"
            },
            {
              "internalType": "uint256",
              "name": "level",
              "type": "uint256"
            },
            {
              "internalType": "uint256[10]",
              "name": "stats",
              "type": "uint256[10]"
            },
            {
              "internalType": "uint256[11]",
              "name": "gear",
              "type": "uint256[11]"
            },
            {
              "internalType": "uint256",
              "name": "timeLock",
              "type": "uint256"
            }
          ],
          "internalType": "struct Characters.charData",
          "name": "data",
          "type": "tuple"
        }
      ],
      "name": "mint",
      "outputs": [],
      "stateMutability": "nonpayable",
      "type": "function"
    },
    {
      "inputs": [
        {
          "internalType": "uint256",
          "name": "playerId",
          "type": "uint256"
        },
        {
          "internalType": "uint256",
          "name": "timestamp",
          "type": "uint256"
        }
      ],
      "name": "setTimeLock",
      "outputs": [],
      "stateMutability": "nonpayable",
      "type": "function"
    },
    {
      "inputs": [],
      "name": "getTimestamp",
      "outputs": [
        {
          "internalType": "uint256",
          "name": "",
          "type": "uint256"
        }
      ],
      "stateMutability": "view",
      "type": "function"
    },
    {
      "inputs": [
        {
          "internalType": "address",
          "name": "equipment",
          "type": "address"
        }
      ],
      "name": "setEquipmentAddress",
      "outputs": [],
      "stateMutability": "nonpayable",
      "type": "function"
    },
    {
      "inputs": [
        {
          "internalType": "address payable",
          "name": "rAddress",
          "type": "address"
        }
      ],
      "name": "setRoyaltiesAddress",
      "outputs": [],
      "stateMutability": "nonpayable",
      "type": "function"
    },
    {
      "inputs": [
        {
          "internalType": "uint96",
          "name": "rBasicPoints",
          "type": "uint96"
        }
      ],
      "name": "setRoyaltiesBasicPoints",
      "outputs": [],
      "stateMutability": "nonpayable",
      "type": "function"
    },
    {
      "inputs": [
        {
          "internalType": "uint256",
          "name": "player",
          "type": "uint256"
        }
      ],
      "name": "updateLevel",
      "outputs": [],
      "stateMutability": "nonpayable",
      "type": "function"
    },
    {
      "inputs": [
        {
          "internalType": "uint256",
          "name": "lvl",
          "type": "uint256"
        },
        {
          "internalType": "uint256[]",
          "name": "matrixValues",
          "type": "uint256[]"
        }
      ],
      "name": "setMaxLevel",
      "outputs": [],
      "stateMutability": "nonpayable",
      "type": "function"
    },
    {
      "inputs": [],
      "name": "getMatrix",
      "outputs": [
        {
          "internalType": "uint256[]",
          "name": "",
          "type": "uint256[]"
        }
      ],
      "stateMutability": "view",
      "type": "function"
    },
    {
      "inputs": [
        {
          "internalType": "uint256",
          "name": "player",
          "type": "uint256"
        },
        {
          "internalType": "uint256[11]",
          "name": "gear",
          "type": "uint256[11]"
        }
      ],
      "name": "equip",
      "outputs": [],
      "stateMutability": "nonpayable",
      "type": "function"
    },
    {
      "inputs": [
        {
          "internalType": "address",
          "name": "from",
          "type": "address"
        },
        {
          "internalType": "address",
          "name": "to",
          "type": "address"
        },
        {
          "internalType": "uint256",
          "name": "tokenId",
          "type": "uint256"
        }
      ],
      "name": "transferFrom",
      "outputs": [],
      "stateMutability": "nonpayable",
      "type": "function"
    },
    {
      "inputs": [
        {
          "internalType": "address",
          "name": "from",
          "type": "address"
        },
        {
          "internalType": "address",
          "name": "to",
          "type": "address"
        },
        {
          "internalType": "uint256",
          "name": "tokenId",
          "type": "uint256"
        }
      ],
      "name": "unequipAndTransferFrom",
      "outputs": [],
      "stateMutability": "nonpayable",
      "type": "function"
    },
    {
      "inputs": [
        {
          "internalType": "address",
          "name": "powner",
          "type": "address"
        }
      ],
      "name": "getCharacters",
      "outputs": [
        {
          "internalType": "uint256[]",
          "name": "",
          "type": "uint256[]"
        }
      ],
      "stateMutability": "view",
      "type": "function"
    },
    {
      "inputs": [
        {
          "internalType": "uint256",
          "name": "idPJ",
          "type": "uint256"
        }
      ],
      "name": "baseStats",
      "outputs": [
        {
          "components": [
            {
              "internalType": "uint256",
              "name": "class",
              "type": "uint256"
            },
            {
              "internalType": "uint256",
              "name": "level",
              "type": "uint256"
            },
            {
              "internalType": "uint256[10]",
              "name": "stats",
              "type": "uint256[10]"
            },
            {
              "internalType": "uint256[11]",
              "name": "gear",
              "type": "uint256[11]"
            },
            {
              "internalType": "uint256",
              "name": "timeLock",
              "type": "uint256"
            }
          ],
          "internalType": "struct Characters.charData",
          "name": "",
          "type": "tuple"
        }
      ],
      "stateMutability": "view",
      "type": "function"
    },
    {
      "inputs": [
        {
          "internalType": "uint256",
          "name": "idPJ",
          "type": "uint256"
        }
      ],
      "name": "singleStats",
      "outputs": [
        {
          "components": [
            {
              "internalType": "uint256",
              "name": "class",
              "type": "uint256"
            },
            {
              "internalType": "uint256",
              "name": "level",
              "type": "uint256"
            },
            {
              "internalType": "uint256[10]",
              "name": "stats",
              "type": "uint256[10]"
            },
            {
              "internalType": "uint256[11]",
              "name": "gear",
              "type": "uint256[11]"
            },
            {
              "internalType": "uint256",
              "name": "timeLock",
              "type": "uint256"
            }
          ],
          "internalType": "struct Characters.charData",
          "name": "",
          "type": "tuple"
        }
      ],
      "stateMutability": "view",
      "type": "function"
    },
    {
      "inputs": [
        {
          "internalType": "uint256",
          "name": "idPJ",
          "type": "uint256"
        }
      ],
      "name": "calculatedStats",
      "outputs": [
        {
          "components": [
            {
              "internalType": "uint256",
              "name": "class",
              "type": "uint256"
            },
            {
              "internalType": "uint256",
              "name": "level",
              "type": "uint256"
            },
            {
              "internalType": "uint256[10]",
              "name": "stats",
              "type": "uint256[10]"
            },
            {
              "internalType": "uint256[11]",
              "name": "gear",
              "type": "uint256[11]"
            },
            {
              "internalType": "uint256",
              "name": "timeLock",
              "type": "uint256"
            }
          ],
          "internalType": "struct Characters.charData",
          "name": "",
          "type": "tuple"
        }
      ],
      "stateMutability": "view",
      "type": "function"
    },
    {
      "inputs": [
        {
          "internalType": "uint256",
          "name": "_tokenId",
          "type": "uint256"
        },
        {
          "internalType": "address payable",
          "name": "_royaltiesReceipientAddress",
          "type": "address"
        },
        {
          "internalType": "uint96",
          "name": "_percentageBasisPoints",
          "type": "uint96"
        }
      ],
      "name": "setRoyalties",
      "outputs": [],
      "stateMutability": "nonpayable",
      "type": "function"
    },
    {
      "inputs": [
        {
          "internalType": "uint256",
          "name": "_tokenId",
          "type": "uint256"
        },
        {
          "internalType": "uint256",
          "name": "_salePrice",
          "type": "uint256"
        }
      ],
      "name": "royaltyInfo",
      "outputs": [
        {
          "internalType": "address",
          "name": "receiver",
          "type": "address"
        },
        {
          "internalType": "uint256",
          "name": "royaltyAmount",
          "type": "uint256"
        }
      ],
      "stateMutability": "view",
      "type": "function"
    },
    {
      "inputs": [
        {
          "internalType": "bytes4",
          "name": "interfaceId",
          "type": "bytes4"
        }
      ],
      "name": "supportsInterface",
      "outputs": [
        {
          "internalType": "bool",
          "name": "",
          "type": "bool"
        }
      ],
      "stateMutability": "view",
      "type": "function"
    },
    {
      "inputs": [
        {
          "internalType": "address",
          "name": "powner",
          "type": "address"
        },
        {
          "internalType": "uint256",
          "name": "tokenId",
          "type": "uint256"
        }
      ],
      "name": "positionOf",
      "outputs": [
        {
          "internalType": "bool",
          "name": "",
          "type": "bool"
        },
        {
          "internalType": "uint256",
          "name": "",
          "type": "uint256"
        }
      ],
      "stateMutability": "view",
      "type": "function"
    },
    {
      "inputs": [
        {
          "internalType": "uint256[11]",
          "name": "gear",
          "type": "uint256[11]"
        }
      ],
      "name": "gearLocked",
      "outputs": [
        {
          "internalType": "bool",
          "name": "",
          "type": "bool"
        }
      ],
      "stateMutability": "view",
      "type": "function"
    }
  ],
  "bytecode": "0x60806040523480156200001157600080fd5b50604080518082018252601a81527f436861696e73206f6620476c6f7279204368617261637465727300000000000060208083019182528351808501909452600384527f43474300000000000000000000000000000000000000000000000000000000009084015281519192916200008c916000916200142a565b508051620000a29060019060208401906200142a565b505050620000d1620000c2620001cc640100000000026401000000009004565b640100000000620001d0810204565b620000f96000620000ea640100000000620001cc810204565b64010000000062000222810204565b6200012060008051602062006279833981519152620000ea640100000000620001cc810204565b620001587ff981fb6fdf0d58703d02e1dadceeaa95ac8ae9afe74ea698f2124fae240aabb0620000ea640100000000620001cc810204565b620001907f19ac353dd86d6954025a359137447e1fda8f14ba7ba6373372af73b706fa3b22620000ea640100000000620001cc810204565b6200019a620014b9565b60018152620001c5620001b5640100000000620001cc810204565b8264010000000062000269810204565b5062001924565b3390565b60088054600160a060020a03838116600160a060020a0319831681179093556040519116919082907f8be0079c531659141344cd1fd0a4f28419497f9722a3daafe3b4186f6b6457e090600090a35050565b6200023c8282640100000000620022006200051b82021704565b60008281526007602052604090206200026490826401000000006200220a6200053082021704565b505050565b6200029f6000805160206200627983398151915262000290640100000000620001cc810204565b64010000000062000559810204565b62000320576040517f08c379a000000000000000000000000000000000000000000000000000000000815260206004820152602860248201526000805160206200625983398151915260448201527f20746f206d696e7400000000000000000000000000000000000000000000000060648201526084015b60405180910390fd5b6200033f82826060015162000584640100000000026401000000009004565b620003cd576040517f08c379a000000000000000000000000000000000000000000000000000000000815260206004820152602160248201527f457863657074696f6e3a20736f6d652067656172206973206e6f742076616c6960448201527f6400000000000000000000000000000000000000000000000000000000000000606482015260840162000317565b620003ec8282606001516200085e640100000000026401000000009004565b156200047b576040517f08c379a000000000000000000000000000000000000000000000000000000000815260206004820152603f60248201527f457863657074696f6e3a20736f6d65206765617220697320616c72656164792060448201527f6571756970656420696e206f7468657220706c6179657220696e206d696e7400606482015260840162000317565b7505dc00000000000000000000000000000000000000003017600b558051600d9081556020820151600e556040820151829190620004be90600f90600a620014f8565b506060820151620004d690600c830190600b62001528565b5060809190910151601790910155620005178262000503600a6401000000006200221f62000a3082021704565b6401000000006200222362000a3482021704565b5050565b62000517828264010000000062000bc3810204565b60006200055083600160a060020a03841664010000000062000c61810204565b90505b92915050565b6000918252600660209081526040808420600160a060020a0393909316845291905290205460ff1690565b6000805b600b81101562000857578281600b8110620005a757620005a7620018c6565b6020020151156200084257600c54600160a060020a0316634f558e798483600b8110620005d857620005d8620018c6565b60200201516040518263ffffffff167c01000000000000000000000000000000000000000000000000000000000281526004016200061891815260200190565b60206040518083038186803b1580156200063157600080fd5b505afa15801562000646573d6000803e3d6000fd5b505050506040513d601f19601f820116820180604052508101906200066c91906200163a565b6200067c57600091505062000553565b600c54600160a060020a038086169116636352211e8584600b8110620006a657620006a6620018c6565b60200201516040518263ffffffff167c0100000000000000000000000000000000000000000000000000000000028152600401620006e691815260200190565b60206040518083038186803b158015620006ff57600080fd5b505afa15801562000714573d6000803e3d6000fd5b505050506040513d601f19601f820116820180604052508101906200073a919062001608565b600160a060020a0316146200075457600091505062000553565b600c54600090600160a060020a031663db20f89c8584600b81106200077d576200077d620018c6565b60200201516040518263ffffffff167c0100000000000000000000000000000000000000000000000000000000028152600401620007bd91815260200190565b6101c06040518083038186803b158015620007d757600080fd5b505afa158015620007ec573d6000803e3d6000fd5b505050506040513d601f19601f820116820180604052508101906200081291906200165e565b905080602001516064141580156200082e575081816020015114155b15620008405760009250505062000553565b505b806200084e816200184a565b91505062000588565b5092915050565b6000805b600160a060020a03841660009081526028602052604090205481101562000a2657600160a060020a03841660009081526028602052604081208054602791839185908110620008b557620008b5620018c6565b906000526020600020015481526020019081526020016000206040518060a0016040529081600082015481526020016001820154815260200160028201600a806020026040519081016040528092919082600a80156200092b576020028201915b81548152602001906001019080831162000916575b50505091835250506040805161016081019182905260209092019190600c840190600b9082845b815481526020019060010190808311620009525750505050508152602001601782015481525050905060005b600b81101562000a0e578481600b81106200099d576200099d620018c6565b6020020151826060015182600b8110620009bb57620009bb620018c6565b6020020151148015620009e657508481600b8110620009de57620009de620018c6565b602002015115155b15620009f9576001935050505062000553565b8062000a05816200184a565b9150506200097e565b5050808062000a1d906200184a565b91505062000862565b5060009392505050565b5490565b600160a060020a03821662000aa6576040517f08c379a000000000000000000000000000000000000000000000000000000000815260206004820181905260248201527f4552433732313a206d696e7420746f20746865207a65726f2061646472657373604482015260640162000317565b62000aba8164010000000062000cb9810204565b1562000b23576040517f08c379a000000000000000000000000000000000000000000000000000000000815260206004820152601c60248201527f4552433732313a20746f6b656e20616c7265616479206d696e74656400000000604482015260640162000317565b62000b3a6000838364010000000062000cd6810204565b600160a060020a038216600090815260036020526040812080546001929062000b65908490620017bf565b90915550506000818152600260205260408082208054600160a060020a031916600160a060020a03861690811790915590518392907fddf252ad1be2c89b69c2b068fc378daa952ba7f163c4a11628f55a4df523b3ef908290a45050565b62000bd8828264010000000062000559810204565b62000517576000828152600660209081526040808320600160a060020a03851684529091529020805460ff1916600117905562000c1d640100000000620001cc810204565b600160a060020a031681600160a060020a0316837f2f8788117e7eff1d82e926ec794901d17c78024a50270940304540a733656f0d60405160405180910390a45050565b600062000c78838364010000000062000e47810204565b62000cb05750815460018181018455600084815260208082209093018490558454848252828601909352604090209190915562000553565b50600062000553565b600090815260026020526040902054600160a060020a0316151590565b600160a060020a03831662000de357600d6027600062000d05600a6401000000006200221f62000a3082021704565b81526020810191909152604001600020815481556001808301549082015562000d376002808301908401600a62001558565b5062000d4c600c828101908401600b62001586565b5060179182015491015562000d70600a6401000000006200238462000e5f82021704565b600b5462000db5908290600160a060020a038116907401000000000000000000000000000000000000000090046001606060020a031664010000000062000e68810204565b600160a060020a03919091166000908152602860209081526040822080546001810182559083529120015550565b600160a060020a03821662000e075762000264838264010000000062000fd2810204565b600160a060020a03821660009081526028602090815260408220805460018101825590835291200181905562000264838264010000000062000fd2810204565b60009081526001919091016020526040902054151590565b80546001019055565b62000e8f6000805160206200627983398151915262000290640100000000620001cc810204565b62000f0c576040517f08c379a000000000000000000000000000000000000000000000000000000000815260206004820152602860248201526000805160206200625983398151915260448201527f20746f206d696e74000000000000000000000000000000000000000000000000606482015260840162000317565b604080516001808252818301909252600091816020015b604080518082019091526000808252602082015281526020019060019003908162000f23579050509050818160008151811062000f645762000f64620018c6565b6020026020010151602001906001606060020a031690816001606060020a031681525050828160008151811062000f9f5762000f9f620018c6565b6020908102919091010151600160a060020a03909116905262000fcc8482640100000000620010c8810204565b50505050565b60008062000fea848464010000000062001351810204565b91509150811562000fcc57600160a060020a038416600090815260286020526040902080546200101d90600190620017da565b81548110620010305762001030620018c6565b90600052602060002001546028600086600160a060020a0316600160a060020a031681526020019081526020016000208281548110620010745762001074620018c6565b6000918252602080832090910192909255600160a060020a0386168152602890915260409020805480620010ac57620010ac62001897565b6001900381819060005260206000200160009055905550505050565b60005b81518110156200133b576000600160a060020a0316828281518110620010f557620010f5620018c6565b602002602001015160000151600160a060020a0316141562001174576040517f08c379a000000000000000000000000000000000000000000000000000000000815260206004820152601b60248201527f526563697069656e742073686f756c642062652070726573656e740000000000604482015260640162000317565b818181518110620011895762001189620018c6565b6020026020010151602001516001606060020a0316600014156200120a576040517f08c379a000000000000000000000000000000000000000000000000000000000815260206004820181905260248201527f526f79616c74792076616c75652073686f756c6420626520706f736974697665604482015260640162000317565b6000838152600960205260409020546200129c5760008381526009602052604090208251839083908110620012435762001243620018c6565b6020908102919091018101518254600181018455600093845292829020815191909201516001606060020a03167401000000000000000000000000000000000000000002600160a060020a039091161791015562001326565b818181518110620012b157620012b1620018c6565b602002602001015160096000858152602001908152602001600020600081548110620012e157620012e1620018c6565b6000918252602091829020835193909201516001606060020a03167401000000000000000000000000000000000000000002600160a060020a03909316929092179101555b8062001332816200184a565b915050620010cb565b50620005178282640100000000620013eb810204565b60008060005b600160a060020a038516600090815260286020526040902054811015620013db57600160a060020a0385166000908152602860205260409020805485919083908110620013a857620013a8620018c6565b90600052602060002001541415620013c657600192509050620013e4565b80620013d2816200184a565b91505062001357565b50600080915091505b9250929050565b7f3fa96d7b6bcbfe71ef171666d84db3cf52fa2d1c8afdb1cc8e486177f208b7df82826040516200141e92919062001702565b60405180910390a15050565b8280546200143890620017f4565b90600052602060002090601f0160209004810192826200145c5760008555620014a7565b82601f106200147757805160ff1916838001178555620014a7565b82800160010185558215620014a7579182015b82811115620014a75782518255916020019190600101906200148a565b50620014b5929150620015b3565b5090565b6040518060a001604052806000815260200160008152602001620014dc620015ca565b8152602001620014eb620015e9565b8152602001600081525090565b82600a8101928215620014a75791602002820182811115620014a75782518255916020019190600101906200148a565b82600b8101928215620014a75791602002820182811115620014a75782518255916020019190600101906200148a565b82600a8101928215620014a7579182015b82811115620014a757825482559160010191906001019062001569565b82600b8101928215620014a75791820182811115620014a757825482559160010191906001019062001569565b5b80821115620014b55760008155600101620015b4565b604051806101400160405280600a906020820280368337509192915050565b604051806101600160405280600b906020820280368337509192915050565b6000602082840312156200161b57600080fd5b8151600160a060020a03811681146200163357600080fd5b9392505050565b6000602082840312156200164d57600080fd5b815180151581146200163357600080fd5b60006101c082840312156200167257600080fd5b6200167c6200176e565b82518152602080840151818301526040840151604083015284607f850112620016a457600080fd5b620016ae62001799565b80606086016101a0870188811115620016c657600080fd5b60005b600a811015620016e857825185529385019391850191600101620016c9565b506060860192909252505160808401525090949350505050565b6000604080830185845260208281860152818651808452606087019150828801935060005b81811015620017605784518051600160a060020a031684528401516001606060020a031684840152938301939185019160010162001727565b509098975050505050505050565b60405160a081016001604060020a0381118282101715620017935762001793620018f5565b60405290565b60405161014081016001604060020a0381118282101715620017935762001793620018f5565b60008219821115620017d557620017d562001868565b500190565b600082821015620017ef57620017ef62001868565b500390565b6002810460018216806200180957607f821691505b6020821081141562001844577f4e487b7100000000000000000000000000000000000000000000000000000000600052602260045260246000fd5b50919050565b600060001982141562001861576200186162001868565b5060010190565b7f4e487b7100000000000000000000000000000000000000000000000000000000600052601160045260246000fd5b7f4e487b7100000000000000000000000000000000000000000000000000000000600052603160045260246000fd5b7f4e487b7100000000000000000000000000000000000000000000000000000000600052603260045260246000fd5b7f4e487b7100000000000000000000000000000000000000000000000000000000600052604160045260246000fd5b61492580620019346000396000f3fe608060405234801561001057600080fd5b50600436106102a35760003560e060020a900480638924af741161016b578063b88d4fde116100d2578063d547741f1161008b578063d547741f1461069f578063db20f89c146106b2578063dc95c4a7146106c5578063e985e9c5146106d8578063ea13259114610714578063f2fde38b1461072757600080fd5b8063b88d4fde1461060c578063c87b56dd1461061f578063ca15c87314610632578063cad96cca14610645578063d432334c14610665578063d53913931461067857600080fd5b8063968fae9411610124578063968fae941461058e578063a217fddf146105a1578063a22cb465146105a9578063a2846ad4146105bc578063a3fd0d99146105cf578063ad127c8a146105f957600080fd5b80638924af74146104fd5780638da5cb5b1461053c5780639010d07c1461054d57806391d148541461056057806392e0150b1461057357806395d89b411461058657600080fd5b80633143d97c1161020f5780636352211e116101c85780636352211e1461048957806370a082311461049c578063715018a6146104af57806376a66e8d146104b75780637b00aee5146104ca57806389230a86146104ea57600080fd5b80633143d97c1461040157806333b754131461041457806336568abe1461043b578063377982031461044e57806342842e0e146104615780635ad3a0a81461047457600080fd5b8063143094db11610261578063143094db1461036d578063188ec3561461038057806323b872dd14610386578063248a9ca3146103995780632a55205a146103bc5780632f2ff15d146103ee57600080fd5b8062e23cfc146102a857806301ffc9a7146102e257806306fdde0314610305578063081812fc1461031a578063095ea7b31461034557806311fdb52e1461035a575b600080fd5b6102cf7f19ac353dd86d6954025a359137447e1fda8f14ba7ba6373372af73b706fa3b2281565b6040519081526020015b60405180910390f35b6102f56102f0366004614017565b61073a565b60405190151581526020016102d9565b61030d6107bf565b6040516102d991906143f7565b61032d610328366004613fb7565b610851565b604051600160a060020a0390911681526020016102d9565b610358610353366004613f51565b6108ff565b005b610358610368366004614210565b610a37565b61035861037b3660046140ec565b610a91565b426102cf565b610358610394366004613d50565b610b98565b6102cf6103a7366004613fb7565b60009081526006602052604090206001015490565b6103cf6103ca366004613ff5565b610c7f565b60408051600160a060020a0390931683526020830191909152016102d9565b6103586103fc366004613fd0565b610d8f565b61035861040f366004613ff5565b610db1565b6102cf7ff981fb6fdf0d58703d02e1dadceeaa95ac8ae9afe74ea698f2124fae240aabb081565b610358610449366004613fd0565b610e73565b61035861045c36600461412a565b610e95565b61035861046f366004613d50565b61107e565b61047c611099565b6040516102d991906143b3565b61032d610497366004613fb7565b6110f0565b6102cf6104aa366004613cdd565b61117e565b61035861121b565b6103586104c5366004614158565b611254565b6104dd6104d8366004613fb7565b611338565b6040516102d991906145ea565b6102f56104f8366004613f7d565b6114b9565b61051061050b366004613ff5565b611590565b60408051600160a060020a0390931683526bffffffffffffffffffffffff9091166020830152016102d9565b600854600160a060020a031661032d565b61032d61055b366004613ff5565b6115de565b6102f561056e366004613fd0565b6115fd565b610358610581366004613fb7565b611628565b61030d6117b5565b61035861059c366004613d50565b6117c4565b6102cf600081565b6103586105b7366004613e55565b61196d565b6103586105ca366004613cdd565b611a35565b6105e26105dd366004613f51565b611a91565b6040805192151583526020830191909152016102d9565b61047c610607366004613cdd565b611b1f565b61035861061a366004613d91565b611b8b565b61030d61062d366004613fb7565b611bc0565b6102cf610640366004613fb7565b611cab565b610658610653366004613fb7565b611cc2565b6040516102d991906143a0565b610358610673366004613e83565b611d56565b6102cf7f9f2df0fed2c77648de5860a4cc508cd0818c85b8b8a1ab4ceeef8d981c8956a681565b6103586106ad366004613fd0565b611ecb565b6104dd6106c0366004613fb7565b611ed5565b6103586106d3366004613cdd565b612036565b6102f56106e6366004613d17565b600160a060020a03918216600090815260056020908152604080832093909416825291909152205460ff1690565b6104dd610722366004613fb7565b612092565b610358610735366004613cdd565b612148565b6000600160e060020a031982167f44c74bcc00000000000000000000000000000000000000000000000000000000141561077657506001919050565b600160e060020a031982167f2a55205a0000000000000000000000000000000000000000000000000000000014156107b057506001919050565b6107b98261238d565b92915050565b6060600080546107ce906147a5565b80601f01602080910402602001604051908101604052809291908181526020018280546107fa906147a5565b80156108475780601f1061081c57610100808354040283529160200191610847565b820191906000526020600020905b81548152906001019060200180831161082a57829003601f168201915b5050505050905090565b600081815260026020526040812054600160a060020a03166108e35760405160e560020a62461bcd02815260206004820152602c60248201527f4552433732313a20617070726f76656420717565727920666f72206e6f6e657860448201527f697374656e7420746f6b656e000000000000000000000000000000000000000060648201526084015b60405180910390fd5b50600090815260046020526040902054600160a060020a031690565b600061090a826110f0565b905080600160a060020a031683600160a060020a031614156109975760405160e560020a62461bcd02815260206004820152602160248201527f4552433732313a20617070726f76616c20746f2063757272656e74206f776e6560448201527f720000000000000000000000000000000000000000000000000000000000000060648201526084016108da565b33600160a060020a03821614806109b357506109b381336106e6565b610a285760405160e560020a62461bcd02815260206004820152603860248201527f4552433732313a20617070726f76652063616c6c6572206973206e6f74206f7760448201527f6e6572206e6f7220617070726f76656420666f7220616c6c000000000000000060648201526084016108da565b610a3283836123cb565b505050565b600854600160a060020a03163314610a645760405160e560020a62461bcd0281526004016108da906144fb565b600b80546bffffffffffffffffffffffff90921660a060020a02600160a060020a03909216919091179055565b610abb7f9f2df0fed2c77648de5860a4cc508cd0818c85b8b8a1ab4ceeef8d981c8956a6336115fd565b610ada5760405160e560020a62461bcd0281526004016108da9061449e565b604080516001808252818301909252600091816020015b6040805180820190915260008082526020820152815260200190600190039081610af15790505090508181600081518110610b2e57610b2e61485d565b6020026020010151602001906bffffffffffffffffffffffff1690816bffffffffffffffffffffffff16815250508281600081518110610b7057610b7061485d565b6020908102919091010151600160a060020a039091169052610b928482612446565b50505050565b610ba3335b8261266a565b610bc25760405160e560020a62461bcd0281526004016108da90614530565b610bcb81612775565b15610c415760405160e560020a62461bcd02815260206004820152603960248201527f457863657074696f6e3a2063616e6e6f74207472616e73666572206120706c6160448201527f7965722077656172696e6720616e792065717569706d656e740000000000000060648201526084016108da565b6000818152602760205260409020601701544211610c745760405160e560020a62461bcd0281526004016108da90614467565b610a32838383612883565b6000828152600960209081526040808320805482518185028101850190935280835284938493929190849084015b82821015610d015760008481526020908190206040805180820190915290840154600160a060020a038116825260a060020a90046bffffffffffffffffffffffff1681830152825260019092019101610cad565b505050509050600081511115610d7f5780600081518110610d2457610d2461485d565b60200260200101516000015161271082600081518110610d4657610d4661485d565b6020026020010151602001516bffffffffffffffffffffffff1686610d6b919061472c565b610d759190614718565b9250925050610d88565b60008092509250505b9250929050565b610d9982826128b6565b6000828152600760205260409020610a32908261220a565b610ddb7f19ac353dd86d6954025a359137447e1fda8f14ba7ba6373372af73b706fa3b22336115fd565b610e505760405160e560020a62461bcd02815260206004820152602760248201527f457863657074696f6e3a206d757374206861766520515545535420726f6c652060448201527f746f206d696e740000000000000000000000000000000000000000000000000060648201526084016108da565b610e5a8142614700565b6000928352602760205260409092206017019190915550565b610e7d82826128dc565b6000828152600760205260409020610a329082612967565b60008281526027602052604090205415610f1a5760405160e560020a62461bcd02815260206004820152602160248201527f457863657074696f6e3a2043616e6e6f7420657175697020616e20656e656d7960448201527f210000000000000000000000000000000000000000000000000000000000000060648201526084016108da565b6000828152602760205260409020601701544211610f4d5760405160e560020a62461bcd0281526004016108da90614467565b610f5f610f59836110f0565b8261297c565b610f7e5760405160e560020a62461bcd0281526004016108da9061458d565b610f87816114b9565b15610fd75760405160e560020a62461bcd02815260206004820152601e60248201527f457863657074696f6e3a20736f6d652067656172206973206c6f636b6564000060448201526064016108da565b610fe9610fe3836110f0565b82612bdd565b15611061576040805160e560020a62461bcd0281526020600482015260248101919091527f457863657074696f6e3a20736f6d65206765617220697320616c72656164792060448201527f6571756970656420696e206f7468657220706c6179657220696e20657175697060648201526084016108da565b6000828152602760205260409020610a3290600c0182600b613aba565b610a3283838360405180602001604052806000815250611b8b565b6060602680548060200260200160405190810160405280929190818152602001828054801561084757602002820191906000526020600020905b8154815260200190600101908083116110d3575050505050905090565b600081815260026020526040812054600160a060020a0316806107b95760405160e560020a62461bcd02815260206004820152602960248201527f4552433732313a206f776e657220717565727920666f72206e6f6e657869737460448201527f656e7420746f6b656e000000000000000000000000000000000000000000000060648201526084016108da565b6000600160a060020a0382166111ff5760405160e560020a62461bcd02815260206004820152602a60248201527f4552433732313a2062616c616e636520717565727920666f7220746865207a6560448201527f726f20616464726573730000000000000000000000000000000000000000000060648201526084016108da565b50600160a060020a031660009081526003602052604090205490565b600854600160a060020a031633146112485760405160e560020a62461bcd0281526004016108da906144fb565b6112526000612d8b565b565b600854600160a060020a031633146112815760405160e560020a62461bcd0281526004016108da906144fb565b805182146113205760405160e560020a62461bcd02815260206004820152604860248201527f457863657074696f6e3a206d7573742070726f766964652061206d617472697860448201527f206f662076616c756573206f66207468652073616d65206c656e67687420746860648201527f616e206c6576656c000000000000000000000000000000000000000000000000608482015260a4016108da565b60258290558051610a32906026906020840190613af8565b611340613b32565b600061134b83611ed5565b905060005b60008490526027602052600b8110156114b2576000848152602760205260409020600c0181600b81106113855761138561485d565b0154156114a057600c805460008681526027602052604081209092600160a060020a039092169163db20f89c910184600b81106113c4576113c461485d565b01546040518263ffffffff1660e060020a0281526004016113e791815260200190565b6101c06040518083038186803b15801561140057600080fd5b505afa158015611414573d6000803e3d6000fd5b505050506040513d601f19601f820116820180604052508101906114389190614051565b905060005b600a81101561149d57816060015181600a811061145c5761145c61485d565b6020020151846040015182600a81106114775761147761485d565b602002018181516114889190614700565b90525080611495816147e3565b91505061143d565b50505b806114aa816147e3565b915050611350565b5092915050565b6000805b600b81101561158757600c544290600160a060020a031663db20f89c8584600b81106114eb576114eb61485d565b60200201516040518263ffffffff1660e060020a02815260040161151191815260200190565b6101c06040518083038186803b15801561152a57600080fd5b505afa15801561153e573d6000803e3d6000fd5b505050506040513d601f19601f820116820180604052508101906115629190614051565b6080015111156115755750600192915050565b8061157f816147e3565b9150506114bd565b50600092915050565b600960205281600052604060002081815481106115ac57600080fd5b600091825260209091200154600160a060020a038116925060a060020a90046bffffffffffffffffffffffff16905082565b60008281526007602052604081206115f69083612dea565b9392505050565b6000918252600660209081526040808420600160a060020a0393909316845291905290205460ff1690565b600081815260276020526040902060170154421161165b5760405160e560020a62461bcd0281526004016108da90614467565b6116857ff981fb6fdf0d58703d02e1dadceeaa95ac8ae9afe74ea698f2124fae240aabb0336115fd565b6116fa5760405160e560020a62461bcd02815260206004820152603360248201527f457863657074696f6e3a206f6e6c792074686520506f6c796d6174682063616e60448201527f2063616c6c20746869732066756e6374696f6e0000000000000000000000000060648201526084016108da565b602554600082815260276020526040902060019081015461171a91614700565b106117905760405160e560020a62461bcd02815260206004820152602960248201527f457863657074696f6e3a20706c6179657220697320616c72656164792061742060448201527f6d6178206c6576656c000000000000000000000000000000000000000000000060648201526084016108da565b60008181526027602052604081206001018054916117ad836147e3565b919050555050565b6060600180546107ce906147a5565b6117cd33610b9d565b6117ec5760405160e560020a62461bcd0281526004016108da90614530565b600081815260276020526040902054156118715760405160e560020a62461bcd02815260206004820152602360248201527f457863657074696f6e3a2043616e6e6f7420756e657175697020616e20656e6560448201527f6d7921000000000000000000000000000000000000000000000000000000000060648201526084016108da565b60008181526027602052604090206017015442116118a45760405160e560020a62461bcd0281526004016108da90614467565b6000818152602760205260409081902081516101608101928390526118ec929091600c0190600b9082845b8154815260200190600101908083116118cf5750505050506114b9565b1561193c5760405160e560020a62461bcd02815260206004820152601e60248201527f457863657074696f6e3a20736f6d652067656172206973206c6f636b6564000060448201526064016108da565b611944613b6d565b600082815260276020526040902061196190600c0182600b613aba565b50610b92848484610b98565b600160a060020a0382163314156119c95760405160e560020a62461bcd02815260206004820152601960248201527f4552433732313a20617070726f766520746f2063616c6c65720000000000000060448201526064016108da565b336000818152600560209081526040808320600160a060020a03871680855290835292819020805460ff191686151590811790915590519081529192917f17307eab39ab6107e8899845ad3d59bd9653f200f220920489ca2b5937696c31910160405180910390a35050565b600854600160a060020a03163314611a625760405160e560020a62461bcd0281526004016108da906144fb565b600c805473ffffffffffffffffffffffffffffffffffffffff1916600160a060020a0392909216919091179055565b60008060005b600160a060020a038516600090815260286020526040902054811015611b1257600160a060020a0385166000908152602860205260409020805485919083908110611ae457611ae461485d565b90600052602060002001541415611b0057600192509050610d88565b80611b0a816147e3565b915050611a97565b5060009485945092505050565b600160a060020a038116600090815260286020908152604091829020805483518184028101840190945280845260609392830182828015611b7f57602002820191906000526020600020905b815481526020019060010190808311611b6b575b50505050509050919050565b611b95338361266a565b611bb45760405160e560020a62461bcd0281526004016108da90614530565b610b9284848484612df6565b600081815260026020526040902054606090600160a060020a0316611c505760405160e560020a62461bcd02815260206004820152602f60248201527f4552433732314d657461646174613a2055524920717565727920666f72206e6f60448201527f6e6578697374656e7420746f6b656e000000000000000000000000000000000060648201526084016108da565b6000611c5a612e2c565b90506000815111611c7a57604051806020016040528060008152506115f6565b80611c8484612e4c565b604051602001611c959291906142b4565b6040516020818303038152906040529392505050565b60008181526007602052604081206107b990612f85565b606060096000838152602001908152602001600020805480602002602001604051908101604052809291908181526020016000905b82821015611d4b5760008481526020908190206040805180820190915290840154600160a060020a038116825260a060020a90046bffffffffffffffffffffffff1681830152825260019092019101611cf7565b505050509050919050565b611d807f9f2df0fed2c77648de5860a4cc508cd0818c85b8b8a1ab4ceeef8d981c8956a6336115fd565b611d9f5760405160e560020a62461bcd0281526004016108da9061449e565b611dad82826060015161297c565b611dcc5760405160e560020a62461bcd0281526004016108da9061458d565b611dda828260600151612bdd565b15611e505760405160e560020a62461bcd02815260206004820152603f60248201527f457863657074696f6e3a20736f6d65206765617220697320616c72656164792060448201527f6571756970656420696e206f7468657220706c6179657220696e206d696e740060648201526084016108da565b7505dc00000000000000000000000000000000000000003017600b558051600d9081556020820151600e556040820151829190611e9190600f90600a613b8c565b506060820151611ea790600c830190600b613aba565b5060808201518160170155905050611ec782611ec2600a5490565b612223565b5050565b610e7d8282612f8f565b611edd613b32565b6000828152602760209081526040808320815160a081018352815481526001820154938101939093528151610140810180845291928401916002840190600a9082845b815481526020019060010190808311611f205750505091835250506040805161016081019182905260209092019190600c840190600b9082845b815481526020019060010190808311611f5a5750505050508152602001601782015481525050905080602001516000146107b95760006026826020015181548110611fa757611fa761485d565b9060005260206000200154905060005b600a81101561202e57606482846040015183600a8110611fd957611fd961485d565b6020020151611fe8919061472c565b611ff29190614718565b836040015182600a81106120085761200861485d565b602002018181516120199190614700565b90525080612026816147e3565b915050611fb7565b505092915050565b600854600160a060020a031633146120635760405160e560020a62461bcd0281526004016108da906144fb565b600b805473ffffffffffffffffffffffffffffffffffffffff1916600160a060020a0392909216919091179055565b61209a613b32565b600082815260276020908152604091829020825160a081018452815481526001820154928101929092528251610140810180855292939192918401916002840190600a9082845b8154815260200190600101908083116120e15750505091835250506040805161016081019182905260209092019190600c840190600b9082845b81548152602001906001019080831161211b57505050505081526020016017820154815250509050919050565b600854600160a060020a031633146121755760405160e560020a62461bcd0281526004016108da906144fb565b600160a060020a0381166121f45760405160e560020a62461bcd02815260206004820152602660248201527f4f776e61626c653a206e6577206f776e657220697320746865207a65726f206160448201527f646472657373000000000000000000000000000000000000000000000000000060648201526084016108da565b6121fd81612d8b565b50565b611ec78282612fb5565b60006115f683600160a060020a03841661303b565b5490565b600160a060020a03821661227c5760405160e560020a62461bcd02815260206004820181905260248201527f4552433732313a206d696e7420746f20746865207a65726f206164647265737360448201526064016108da565b600081815260026020526040902054600160a060020a0316156122e45760405160e560020a62461bcd02815260206004820152601c60248201527f4552433732313a20746f6b656e20616c7265616479206d696e7465640000000060448201526064016108da565b6122f06000838361308a565b600160a060020a0382166000908152600360205260408120805460019290612319908490614700565b9091555050600081815260026020526040808220805473ffffffffffffffffffffffffffffffffffffffff1916600160a060020a03861690811790915590518392907fddf252ad1be2c89b69c2b068fc378daa952ba7f163c4a11628f55a4df523b3ef908290a45050565b80546001019055565b6000600160e060020a031982167f5a05180f0000000000000000000000000000000000000000000000000000000014806107b957506107b9826131ab565b6000818152600460205260409020805473ffffffffffffffffffffffffffffffffffffffff1916600160a060020a038416908117909155819061240d826110f0565b600160a060020a03167f8c5be1e5ebec7d5bd14f71427d1e84f3dd0314c0f7b2291e5b200ac8c7c3b92560405160405180910390a45050565b60005b815181101561265f576000600160a060020a031682828151811061246f5761246f61485d565b602002602001015160000151600160a060020a031614156124d55760405160e560020a62461bcd02815260206004820152601b60248201527f526563697069656e742073686f756c642062652070726573656e74000000000060448201526064016108da565b8181815181106124e7576124e761485d565b6020026020010151602001516bffffffffffffffffffffffff16600014156125545760405160e560020a62461bcd02815260206004820181905260248201527f526f79616c74792076616c75652073686f756c6420626520706f73697469766560448201526064016108da565b6000838152600960205260409020546125d557600083815260096020526040902082518390839081106125895761258961485d565b6020908102919091018101518254600181018455600093845292829020815191909201516bffffffffffffffffffffffff1660a060020a02600160a060020a039091161791015561264d565b8181815181106125e7576125e761485d565b6020026020010151600960008581526020019081526020016000206000815481106126145761261461485d565b6000918252602091829020835193909201516bffffffffffffffffffffffff1660a060020a02600160a060020a03909316929092179101555b80612657816147e3565b915050612449565b50611ec782826131e9565b600081815260026020526040812054600160a060020a03166126f75760405160e560020a62461bcd02815260206004820152602c60248201527f4552433732313a206f70657261746f7220717565727920666f72206e6f6e657860448201527f697374656e7420746f6b656e000000000000000000000000000000000000000060648201526084016108da565b6000612702836110f0565b905080600160a060020a031684600160a060020a0316148061273d575083600160a060020a031661273284610851565b600160a060020a0316145b8061276d5750600160a060020a0380821660009081526005602090815260408083209388168352929052205460ff165b949350505050565b6000818152602760209081526040808320815160a0810183528154815260018201549381019390935281516101408101808452859493840191906002840190600a9082845b8154815260200190600101908083116127ba5750505091835250506040805161016081019182905260209092019190600c840190600b9082845b8154815260200190600101908083116127f45750505050508152602001601782015481525050905080600001516000146128315750600092915050565b60005b600b81101561287957816060015181600b81106128535761285361485d565b602002015115612867575060019392505050565b80612871816147e3565b915050612834565b5060009392505050565b61288c33610b9d565b6128ab5760405160e560020a62461bcd0281526004016108da90614530565b610a32838383613226565b6000828152600660205260409020600101546128d28133613411565b610a328383612fb5565b600160a060020a038116331461295d5760405160e560020a62461bcd02815260206004820152602f60248201527f416363657373436f6e74726f6c3a2063616e206f6e6c792072656e6f756e636560448201527f20726f6c657320666f722073656c66000000000000000000000000000000000060648201526084016108da565b611ec78282613478565b60006115f683600160a060020a0384166134df565b6000805b600b8110156114b2578281600b811061299b5761299b61485d565b602002015115612bcb57600c54600160a060020a0316634f558e798483600b81106129c8576129c861485d565b60200201516040518263ffffffff1660e060020a0281526004016129ee91815260200190565b60206040518083038186803b158015612a0657600080fd5b505afa158015612a1a573d6000803e3d6000fd5b505050506040513d601f19601f82011682018060405250810190612a3e9190613f9a565b612a4c5760009150506107b9565b600c54600160a060020a038086169116636352211e8584600b8110612a7357612a7361485d565b60200201516040518263ffffffff1660e060020a028152600401612a9991815260200190565b60206040518083038186803b158015612ab157600080fd5b505afa158015612ac5573d6000803e3d6000fd5b505050506040513d601f19601f82011682018060405250810190612ae99190613cfa565b600160a060020a031614612b015760009150506107b9565b600c54600090600160a060020a031663db20f89c8584600b8110612b2757612b2761485d565b60200201516040518263ffffffff1660e060020a028152600401612b4d91815260200190565b6101c06040518083038186803b158015612b6657600080fd5b505afa158015612b7a573d6000803e3d6000fd5b505050506040513d601f19601f82011682018060405250810190612b9e9190614051565b90508060200151606414158015612bb9575081816020015114155b15612bc9576000925050506107b9565b505b80612bd5816147e3565b915050612980565b6000805b600160a060020a03841660009081526028602052604090205481101561287957600160a060020a03841660009081526028602052604081208054602791839185908110612c3057612c3061485d565b906000526020600020015481526020019081526020016000206040518060a0016040529081600082015481526020016001820154815260200160028201600a806020026040519081016040528092919082600a8015612ca4576020028201915b815481526020019060010190808311612c90575b50505091835250506040805161016081019182905260209092019190600c840190600b9082845b815481526020019060010190808311612ccb5750505050508152602001601782015481525050905060005b600b811015612d76578481600b8110612d1157612d1161485d565b6020020151826060015182600b8110612d2c57612d2c61485d565b6020020151148015612d5357508481600b8110612d4b57612d4b61485d565b602002015115155b15612d6457600193505050506107b9565b80612d6e816147e3565b915050612cf6565b50508080612d83906147e3565b915050612be1565b60088054600160a060020a0383811673ffffffffffffffffffffffffffffffffffffffff19831681179093556040519116919082907f8be0079c531659141344cd1fd0a4f28419497f9722a3daafe3b4186f6b6457e090600090a35050565b60006115f683836135d2565b612e01848484613226565b612e0d848484846135fc565b610b925760405160e560020a62461bcd0281526004016108da9061440a565b60606040518060600160405280602781526020016148c960279139905090565b606081612e8c57505060408051808201909152600181527f3000000000000000000000000000000000000000000000000000000000000000602082015290565b8160005b8115612eb65780612ea0816147e3565b9150612eaf9050600a83614718565b9150612e90565b60008167ffffffffffffffff811115612ed157612ed1614876565b6040519080825280601f01601f191660200182016040528015612efb576020820181803683370190505b5090505b841561276d57612f1060018361474b565b9150612f1d600a866147fe565b612f28906030614700565b7f010000000000000000000000000000000000000000000000000000000000000002818381518110612f5c57612f5c61485d565b6020010190600160f860020a031916908160001a905350612f7e600a86614718565b9450612eff565b60006107b9825490565b600082815260066020526040902060010154612fab8133613411565b610a328383613478565b612fbf82826115fd565b611ec7576000828152600660209081526040808320600160a060020a03851684529091529020805460ff19166001179055612ff73390565b600160a060020a031681600160a060020a0316837f2f8788117e7eff1d82e926ec794901d17c78024a50270940304540a733656f0d60405160405180910390a45050565b6000818152600183016020526040812054613082575081546001818101845560008481526020808220909301849055845484825282860190935260409020919091556107b9565b5060006107b9565b600160a060020a03831661315e57600d602760006130a7600a5490565b8152602081019190915260400160002081548155600180830154908201556130d76002808301908401600a613bb9565b506130ea600c828101908401600b613be4565b50601791820154910155613102600a80546001019055565b600b54613130908290600160a060020a0381169060a060020a90046bffffffffffffffffffffffff16610a91565b600160a060020a03919091166000908152602860209081526040822080546001810182559083529120015550565b600160a060020a03821661317657610a32838261373e565b600160a060020a038216600090815260286020908152604082208054600181018255908352912001819055610a32838261373e565b6000600160e060020a031982167f7965db0b0000000000000000000000000000000000000000000000000000000014806107b957506107b98261381d565b7f3fa96d7b6bcbfe71ef171666d84db3cf52fa2d1c8afdb1cc8e486177f208b7df828260405161321a929190614669565b60405180910390a15050565b82600160a060020a0316613239826110f0565b600160a060020a0316146132b85760405160e560020a62461bcd02815260206004820152602960248201527f4552433732313a207472616e73666572206f6620746f6b656e2074686174206960448201527f73206e6f74206f776e000000000000000000000000000000000000000000000060648201526084016108da565b600160a060020a0382166133365760405160e560020a62461bcd028152602060048201526024808201527f4552433732313a207472616e7366657220746f20746865207a65726f2061646460448201527f726573730000000000000000000000000000000000000000000000000000000060648201526084016108da565b61334183838361308a565b61334c6000826123cb565b600160a060020a038316600090815260036020526040812080546001929061337590849061474b565b9091555050600160a060020a03821660009081526003602052604081208054600192906133a3908490614700565b9091555050600081815260026020526040808220805473ffffffffffffffffffffffffffffffffffffffff1916600160a060020a0386811691821790925591518493918716917fddf252ad1be2c89b69c2b068fc378daa952ba7f163c4a11628f55a4df523b3ef91a4505050565b61341b82826115fd565b611ec75761343381600160a060020a031660146138b8565b61343e8360206138b8565b60405160200161344f9291906142e3565b60408051601f198184030181529082905260e560020a62461bcd0282526108da916004016143f7565b61348282826115fd565b15611ec7576000828152600660209081526040808320600160a060020a0385168085529252808320805460ff1916905551339285917ff6391f5c32d9c69d2a47ea670b442974b53935d1edc7fd64eb21e047a839171b9190a45050565b600081815260018301602052604081205480156135c857600061350360018361474b565b85549091506000906135179060019061474b565b905081811461357c5760008660000182815481106135375761353761485d565b906000526020600020015490508087600001848154811061355a5761355a61485d565b6000918252602080832090910192909255918252600188019052604090208390555b855486908061358d5761358d614844565b6001900381819060005260206000200160009055905585600101600086815260200190815260200160002060009055600193505050506107b9565b60009150506107b9565b60008260000182815481106135e9576135e961485d565b9060005260206000200154905092915050565b6000600160a060020a0384163b15613733576040517f150b7a02000000000000000000000000000000000000000000000000000000008152600160a060020a0385169063150b7a0290613659903390899088908890600401614364565b602060405180830381600087803b15801561367357600080fd5b505af19250505080156136a3575060408051601f3d908101601f191682019092526136a091810190614034565b60015b613700573d8080156136d1576040519150601f19603f3d011682016040523d82523d6000602084013e6136d6565b606091505b5080516136f85760405160e560020a62461bcd0281526004016108da9061440a565b805181602001fd5b600160e060020a0319167f150b7a020000000000000000000000000000000000000000000000000000000014905061276d565b506001949350505050565b60008061374b8484611a91565b915091508115610b9257600160a060020a0384166000908152602860205260409020805461377b9060019061474b565b8154811061378b5761378b61485d565b90600052602060002001546028600086600160a060020a0316600160a060020a0316815260200190815260200160002082815481106137cc576137cc61485d565b6000918252602080832090910192909255600160a060020a038616815260289091526040902080548061380157613801614844565b6001900381819060005260206000200160009055905550505050565b6000600160e060020a031982167f80ac58cd0000000000000000000000000000000000000000000000000000000014806138805750600160e060020a031982167f5b5e139f00000000000000000000000000000000000000000000000000000000145b806107b957507f01ffc9a700000000000000000000000000000000000000000000000000000000600160e060020a03198316146107b9565b606060006138c783600261472c565b6138d2906002614700565b67ffffffffffffffff8111156138ea576138ea614876565b6040519080825280601f01601f191660200182016040528015613914576020820181803683370190505b5090507f30000000000000000000000000000000000000000000000000000000000000008160008151811061394b5761394b61485d565b6020010190600160f860020a031916908160001a9053507f7800000000000000000000000000000000000000000000000000000000000000816001815181106139965761399661485d565b6020010190600160f860020a031916908160001a90535060006139ba84600261472c565b6139c5906001614700565b90505b6001811115613a68577f303132333435363738396162636465660000000000000000000000000000000085600f1660108110613a0657613a0661485d565b1a7f010000000000000000000000000000000000000000000000000000000000000002828281518110613a3b57613a3b61485d565b6020010190600160f860020a031916908160001a905350601090940493613a618161478e565b90506139c8565b5083156115f65760405160e560020a62461bcd02815260206004820181905260248201527f537472696e67733a20686578206c656e67746820696e73756666696369656e7460448201526064016108da565b82600b8101928215613ae8579160200282015b82811115613ae8578251825591602001919060010190613acd565b50613af4929150613c0e565b5090565b828054828255906000526020600020908101928215613ae85791602002820182811115613ae8578251825591602001919060010190613acd565b6040518060a001604052806000815260200160008152602001613b53613c23565b8152602001613b60613b6d565b8152602001600081525090565b604051806101600160405280600b906020820280368337509192915050565b82600a8101928215613ae85791602002820182811115613ae8578251825591602001919060010190613acd565b82600a8101928215613ae8579182015b82811115613ae8578254825591600101919060010190613bc9565b82600b8101928215613ae85791820182811115613ae8578254825591600101919060010190613bc9565b5b80821115613af45760008155600101613c0f565b604051806101400160405280600a906020820280368337509192915050565b600082601f830112613c5357600080fd5b60405161016080820182811067ffffffffffffffff82111715613c7857613c78614876565b6040528184828101871015613c8c57600080fd5b600092505b600b831015613cb157803582526001929092019160209182019101613c91565b509195945050505050565b80356bffffffffffffffffffffffff81168114613cd857600080fd5b919050565b600060208284031215613cef57600080fd5b81356115f68161488f565b600060208284031215613d0c57600080fd5b81516115f68161488f565b60008060408385031215613d2a57600080fd5b8235613d358161488f565b91506020830135613d458161488f565b809150509250929050565b600080600060608486031215613d6557600080fd5b8335613d708161488f565b92506020840135613d808161488f565b929592945050506040919091013590565b60008060008060808587031215613da757600080fd5b8435613db28161488f565b9350602085810135613dc38161488f565b935060408601359250606086013567ffffffffffffffff80821115613de757600080fd5b818801915088601f830112613dfb57600080fd5b813581811115613e0d57613e0d614876565b613e1f601f8201601f191685016146cf565b91508082528984828501011115613e3557600080fd5b808484018584013760008482840101525080935050505092959194509250565b60008060408385031215613e6857600080fd5b8235613e738161488f565b91506020830135613d45816148a4565b600080828403610320811215613e9857600080fd5b8335613ea38161488f565b92506020610300601f198301811315613ebb57600080fd5b613ec3614682565b925081860135835260408601358284015286607f870112613ee357600080fd5b613eeb6146ab565b80606088016101a089018a811115613f0257600080fd5b60005b600a811015613f2257823585529386019391860191600101613f05565b50826040880152613f338b82613c42565b60608801525050505094909401356080820152919491935090915050565b60008060408385031215613f6457600080fd5b8235613f6f8161488f565b946020939093013593505050565b60006101608284031215613f9057600080fd5b6115f68383613c42565b600060208284031215613fac57600080fd5b81516115f6816148a4565b600060208284031215613fc957600080fd5b5035919050565b60008060408385031215613fe357600080fd5b823591506020830135613d458161488f565b6000806040838503121561400857600080fd5b50508035926020909101359150565b60006020828403121561402957600080fd5b81356115f6816148b2565b60006020828403121561404657600080fd5b81516115f6816148b2565b60006101c0828403121561406457600080fd5b61406c614682565b82518152602080840151818301526040840151604083015284607f85011261409357600080fd5b61409b6146ab565b80606086016101a08701888111156140b257600080fd5b60005b600a8110156140d2578251855293850193918501916001016140b5565b506060860192909252505160808401525090949350505050565b60008060006060848603121561410157600080fd5b8335925060208401356141138161488f565b915061412160408501613cbc565b90509250925092565b600080610180838503121561413e57600080fd5b8235915061414f8460208501613c42565b90509250929050565b6000806040838503121561416b57600080fd5b8235915060208084013567ffffffffffffffff8082111561418b57600080fd5b818601915086601f83011261419f57600080fd5b8135818111156141b1576141b1614876565b83810291506141c18483016146cf565b8181528481019084860184860187018b10156141dc57600080fd5b600095505b838610156141ff5780358352600195909501949186019186016141e1565b508096505050505050509250929050565b60006020828403121561422257600080fd5b6115f682613cbc565b600081518084526020808501945080840160005b8381101561427d5781518051600160a060020a031688528301516bffffffffffffffffffffffff16838801526040909601959082019060010161423f565b509495945050505050565b600081518084526142a0816020860160208601614762565b601f01601f19169290920160200192915050565b600083516142c6818460208801614762565b8351908301906142da818360208801614762565b01949350505050565b7f416363657373436f6e74726f6c3a206163636f756e742000000000000000000081526000835161431b816017850160208801614762565b7f206973206d697373696e6720726f6c65200000000000000000000000000000006017918401918201528351614358816028840160208801614762565b01602801949350505050565b6000600160a060020a038087168352808616602084015250836040830152608060608301526143966080830184614288565b9695505050505050565b6020815260006115f6602083018461422b565b6020808252825182820181905260009190848201906040850190845b818110156143eb578351835292840192918401916001016143cf565b50909695505050505050565b6020815260006115f66020830184614288565b60208082526032908201527f4552433732313a207472616e7366657220746f206e6f6e20455243373231526560408201527f63656976657220696d706c656d656e7465720000000000000000000000000000606082015260800190565b6020808252601b908201527f457863657074696f6e3a20706c61796572206973206c6f636b65640000000000604082015260600190565b60208082526028908201527f457863657074696f6e3a206d7573742068617665206d696e74657220726f6c6560408201527f20746f206d696e74000000000000000000000000000000000000000000000000606082015260800190565b6020808252818101527f4f776e61626c653a2063616c6c6572206973206e6f7420746865206f776e6572604082015260600190565b60208082526031908201527f4552433732313a207472616e736665722063616c6c6572206973206e6f74206f60408201527f776e6572206e6f7220617070726f766564000000000000000000000000000000606082015260800190565b60208082526021908201527f457863657074696f6e3a20736f6d652067656172206973206e6f742076616c6960408201527f6400000000000000000000000000000000000000000000000000000000000000606082015260800190565b815181526020808301518183015260408084015161030084019291840160005b600a8110156146275782518252918301919083019060010161460a565b5050506060840151610180840160005b600b81101561465457825182529183019190830190600101614637565b5050505060808301516102e083015292915050565b82815260406020820152600061276d604083018461422b565b60405160a0810167ffffffffffffffff811182821017156146a5576146a5614876565b60405290565b604051610140810167ffffffffffffffff811182821017156146a5576146a5614876565b604051601f8201601f1916810167ffffffffffffffff811182821017156146f8576146f8614876565b604052919050565b6000821982111561471357614713614812565b500190565b6000826147275761472761482b565b500490565b600081600019048311821515161561474657614746614812565b500290565b60008282101561475d5761475d614812565b500390565b60005b8381101561477d578181015183820152602001614765565b83811115610b925750506000910152565b60008161479d5761479d614812565b506000190190565b6002810460018216806147b957607f821691505b602082108114156147dd5760e060020a634e487b7102600052602260045260246000fd5b50919050565b60006000198214156147f7576147f7614812565b5060010190565b60008261480d5761480d61482b565b500690565b60e060020a634e487b7102600052601160045260246000fd5b60e060020a634e487b7102600052601260045260246000fd5b60e060020a634e487b7102600052603160045260246000fd5b60e060020a634e487b7102600052603260045260246000fd5b60e060020a634e487b7102600052604160045260246000fd5b600160a060020a03811681146121fd57600080fd5b80151581146121fd57600080fd5b600160e060020a0319811681146121fd57600080fdfe68747470733a2f2f7777772e636861696e736f66676c6f72792e636f6d2f6d657461646174612fa2646970667358221220638a1d2dcfd53d825550dcf0ac3089ce575fe9e46bf73b69e35a266459ad359164736f6c63430008060033457863657074696f6e3a206d7573742068617665206d696e74657220726f6c659f2df0fed2c77648de5860a4cc508cd0818c85b8b8a1ab4ceeef8d981c8956a6",
  "immutableReferences": {},
  "source": "//SPDX-License-Identifier: MIT\npragma solidity ^0.8.0;\n\nimport \"@openzeppelin/contracts/token/ERC721/ERC721.sol\";\nimport \"@openzeppelin/contracts/access/Ownable.sol\";\nimport \"@openzeppelin/contracts/access/AccessControlEnumerable.sol\";\nimport \"@openzeppelin/contracts/utils/Counters.sol\";\nimport \"./rarible/royalties/contracts/impl/RoyaltiesV2Impl.sol\";\nimport \"./rarible/royalties/contracts/LibPart.sol\";\nimport \"./rarible/royalties/contracts/LibRoyaltiesV2.sol\";\n\nimport \"./Equipment.sol\";\n\n    //***********************************\n    // SETUP AFTER DEPLOY\n    //***********************************\n    // SET EQUIPMENT ADDRESS\n    //***********************************\n\n/*\nCharacters will contains both Players and Enemies\nConsicderations:\nMay equip any player with gear you own, but only if this gear is not used in any other player you own\nCannot equip any enemy. Only equiped at crestion time\nPlayers may be transfered only when naked (no wearing any gear)\nEnemies may be transferef always full equiped. This is an exception\nWhen equip a player, all current equipment is unequiped and substituted by new one\nCalls to funtion 'equip' allways send full equip structure\n*/\n\ncontract Characters is ERC721, AccessControlEnumerable, Ownable, RoyaltiesV2Impl {\n\n    using Counters for Counters.Counter;\n    Counters.Counter private _tokenIdTracker;\n    \n    //Adds support for OpenSea\n    bytes4 private constant _INTERFACE_ID_ERC2981 = 0x2a55205a;\n\n    //Roles of monter and burner\n    bytes32 public constant MINTER_ROLE = keccak256(\"MINTER_ROLE\");\n    bytes32 public constant POLYMATH_ROLE = keccak256(\"POLYMATH_ROLE\"); //May upgrade player level\n    bytes32 public constant QUEST_ROLE = keccak256(\"QUEST_ROLE\");       //May set timeLocks\n\n    //Royaties address and amntou\n    address payable private _royaltiesAddress;\n    uint96 _royaltiesBasicPoints;\n\n    Equipment internal _gearNFT;      //Address of equipement NFT SC\n\n\n    //Stats of players and enemies\n    struct charData {\n        uint256 class;\t        //Internal class 0 for player, index of enemies\n        uint256 level;      \t//By default is 0. Evolvable NFTs may upgrade this level\n\n        uint256[10] stats;      //0-Health 1-Vitality 2-Attack 3-Defense 4-Mastery \n                                //5-Speed 6-Luck 7-Faith 8-reserved 9-reserved\n                                //NOTE: DO NOT USE DECIMALS, INSTEAD MULTIPLY BY 100\n\n        uint256[11] gear;       //0-Head 1-Neck 2-Chest 3-Belt 4-Legs 5-Feet 6-Arms \n                                //7-RHand (weapon) 8-LHand(complement) 9-Finger 10-Mount\n                                //NOTE: slot #0 in the Equipment SC means wildcard\n                                //That means that what is in gear[n] matches slot n+1 in Equipment struct\n                                //NOTE: Value 0 in any position means empty.\n        uint timeLock;          //Timestamp until the player is locked (mission time)\n    }\n\n    //Used by _beforeTokenTransfer to catch the after minting\n    charData private statsToMint;\n\n    //maximum level a player can go. \n    //This value may be updated based on the current tier\n    //For first tier we may limit to 10, the for second to 20, etc...\n    //The upgrade matrix MUST be also updated in order to go further with tiers\n    uint maxLevel;\n\n    //It MUST contains the coeficients to apply to each level upgrade\n    //There must be the same amount of element as maxLevel\n    //For example, in tier 1 maxLevel=10\n    //upgradeMatrix=[0, 5, 10, 14, 18, 21, 24, 26, 28, 30]\n    //Each level means the percentage of upgrade for the level regarding the basic stats    \n    uint256[] upgradeMatrix;\n\n\n    //Mapping from NFT to struct\n    mapping(uint256 => charData) private values;\n\n    // Mapping from owner address to token ID. It is used to quickly get all NFTs off an address\n    mapping(address => uint256[]) private _tokensByOwner;\n\n    constructor() ERC721(\"Chains of Glory Characters\", \"CGC\") {\n        _setupRole(DEFAULT_ADMIN_ROLE, _msgSender());\n\n        _setupRole(MINTER_ROLE, _msgSender());\n        _setupRole(POLYMATH_ROLE, _msgSender());\n        _setupRole(QUEST_ROLE, _msgSender());\n\n        charData memory fakeEnemy;\n        fakeEnemy.class=1; //1 represent no enemy\n        //Creates the 0 NFT which is special. Means 'empty slot' for the characters\n        mint(_msgSender(), fakeEnemy);\n    }\n\n    //Creation of a player or enemy\n    //Only MINTER_ROLE may create a player or enemy\n    //May equip it only with owned gear (nor weared in another player)\n    //It is the only place where contracts owners may equip an enemy\n    //Can only equip existing gear\n    //Can only equip with owned gear\n    //Verifies that gear is in the apropriate slot\n    //Can only equip gear not used in another players\n    function mint(address _to, charData memory data) public {\n        require(hasRole(MINTER_ROLE, _msgSender()), \"Exception: must have minter role to mint\");\n        require(validGear(_to, data.gear), \"Exception: some gear is not valid\");\n        require(!alreadyEquiped(_to, data.gear), \"Exception: some gear is already equiped in other player in mint\");\n        \n        //Royaties address and amntou\n        _royaltiesAddress=payable(address(this)); //Contract creator by default\n        _royaltiesBasicPoints=1500; //15% default\n\n        //Stores the struct to assign when mint os ok\n        statsToMint=data;\n        super._mint(_to, _tokenIdTracker.current()); \n    }\n\n\n    function setTimeLock(uint256 playerId, uint timestamp) public {\n        require(hasRole(QUEST_ROLE, _msgSender()), \"Exception: must have QUEST role to mint\");\n        values[playerId].timeLock=block.timestamp+timestamp;\n    }\n\n    function getTimestamp() public view returns (uint) {\n        return block.timestamp;\n    }\n\n    //Equipment Token Address\n    function setEquipmentAddress(address equipment) public onlyOwner {\n        _gearNFT=Equipment(equipment);\n    }\n\n    //Royalties Address\n    function setRoyaltiesAddress(address payable rAddress) public onlyOwner {\n        _royaltiesAddress=rAddress;\n    }\n\n    //Royalties fee\n    function setRoyaltiesBasicPoints(uint96 rBasicPoints) public onlyOwner {\n        _royaltiesBasicPoints=rBasicPoints;\n    }\n\n    //Update the level of the player \n    //Only Polymath role can do it. \n    //To recalculate stats function uses the upgrade matrix. See above...\n    function updateLevel(uint256 player) public {\n        require(values[player].timeLock  < block.timestamp, \"Exception: player is locked\");\n        require(hasRole(POLYMATH_ROLE, _msgSender()), \"Exception: only the Polymath can call this function\");\n        require((values[player].level + 1) < maxLevel, \"Exception: player is already at max level\");\n        \n        values[player].level++;\n    }\n\n    //Set the max level of the gears\n    function setMaxLevel(uint lvl, uint256[] memory matrixValues) public {\n        require(owner() == _msgSender(), \"Ownable: caller is not the owner\");\n        require(lvl == matrixValues.length, \"Exception: must provide a matrix of values of the same lenght than level\");\n\n        maxLevel=lvl;\n        upgradeMatrix=matrixValues;\n    }\n\n    function getMatrix() public view returns (uint256[] memory){\n        return upgradeMatrix;\n    }\n\n    //Equip al gear pased in the arrat\n    //The previous gear is replaced by the new one\n    //Cannot equip enemies\n    //Can only equip a player owned\n    //Can only equip existing gear\n    //Can only equip with owned gear\n    //Verifies that gear is in the apropriate slot\n    //Can only equip gear not used in another players\n    function equip(uint256 player, uint256[11] memory gear) public {\n        require(values[player].class == 0, \"Exception: Cannot equip an enemy!\");\n        require(values[player].timeLock  < block.timestamp, \"Exception: player is locked\");\n        require(validGear(ownerOf(player), gear), \"Exception: some gear is not valid\");        \n        require(!gearLocked(gear), \"Exception: some gear is locked\");\n        require(!alreadyEquiped(ownerOf(player), gear), \"Exception: some gear is already equiped in other player in equip\");\n        \n        //Stores the struct to assign when mint os ok\n        values[player].gear=gear;\n    }\n    \n    //Override of the transfer function\n    //Verify that player has no equipment before transfer it\n    //hasEquipment do not test the enemies, remember that enemies are only cellectibles for users\n    function transferFrom(\n        address from,\n        address to,\n        uint256 tokenId\n    ) public virtual override {\n        require(_isApprovedOrOwner(_msgSender(), tokenId), \"ERC721: transfer caller is not owner nor approved\");\n        require(!hasEquipment(tokenId), \"Exception: cannot transfer a player wearing any equipment\");\n        require(values[tokenId].timeLock  < block.timestamp, \"Exception: player is locked\");\n\n        super.transferFrom(from, to, tokenId);\n    }\n\n    //Unequip a player before transfer ir\n    //This function has been created to optimize the transfer process\n    //All gear remains at owner wallet\n    function unequipAndTransferFrom(\n        address from,\n        address to,\n        uint256 tokenId\n    ) public {\n        //Vefiory unequip a player test that sender is owner\n        require(_isApprovedOrOwner(_msgSender(), tokenId), \"ERC721: transfer caller is not owner nor approved\");\n        require(values[tokenId].class == 0, \"Exception: Cannot unequip an enemy!\");\n        require(values[tokenId].timeLock  < block.timestamp, \"Exception: player is locked\");\n        require(!gearLocked(values[tokenId].gear), \"Exception: some gear is locked\");\n        /*\n        charData memory data=values[tokenId];\n        for(uint j=0; j<data.gear.length; j++) {\n            data.gear[j]=0;\n        }\n        */\n        uint256[11] memory empty;\n        values[tokenId].gear=empty;\n        transferFrom(from, to, tokenId);\n    }\n\n    //Override of the function\n    //Test what actions has been performed and then asign stats and update the _tokensByOwner \n    function _beforeTokenTransfer(address from, address to, uint256 tokenId) internal virtual override(ERC721) {\n        if(from==address(0)) {\n            //Minting ok, creates struct of stats\n            values[_tokenIdTracker.current()] = statsToMint;\n            _tokenIdTracker.increment();\n\n            //When mint a new NFT sets the royalties address\n            setRoyalties(tokenId, _royaltiesAddress, _royaltiesBasicPoints);\n\n            //Updates the _tokensByOwner mapping            \n            _tokensByOwner[to].push(tokenId);\n        } else if(to==address(0)) {\n            //Burning\n\n            //Updates the _tokensByOwner mapping\n            deleteTokenId(from, tokenId);\n        } else {\n            //Normal transfer\n\n            //Updates the _tokensByOwner mapping\n            _tokensByOwner[to].push(tokenId);\n            deleteTokenId(from, tokenId);\n        }\n    }\n\n    //Returns the array of NFTs owned by an address\n    function getCharacters(address powner) public view returns (uint256[] memory) {\n        return _tokensByOwner[powner];\n    }\n\n\n    //Returns the base gearStats of the NFT (without applying any equipement or level)\n    function baseStats(uint256 idPJ) public view returns(charData memory) {\n        return values[idPJ];\n    }\n\n    //Returns the gearStats of the NFT aplying the level modifier\n    function singleStats(uint256 idPJ) public view returns(charData memory) {\n        charData memory baseChar=values[idPJ];\n        if(baseChar.level!=0) {\n            uint256 multiplier=upgradeMatrix[baseChar.level];        \n            for(uint i=0; i< baseChar.stats.length; i++) {\n                baseChar.stats[i]+=(baseChar.stats[i]*multiplier)/100;\n            }\n        }\n        return baseChar;\n    }    \n\n    //Returns the actual stats of the player calculating all the equped gear and leveling\n    function calculatedStats(uint256 idPJ) public view returns(charData memory) {\n        charData memory baseChar=singleStats(idPJ);\n        for(uint i=0; i<values[idPJ].gear.length; i++) {\n            if(values[idPJ].gear[i]!=0) {\n                //Add stats from gear NFT\n                Equipment.gearStats memory gear = _gearNFT.singleStats(values[idPJ].gear[i]);\n                for(uint j=0; j<baseChar.stats.length; j++) {\n                    baseChar.stats[j]+=gear.stats[j];\n                }\n            }\n        }\n        return baseChar;\n    }\n\n    function _baseURI() internal view virtual override returns (string memory) {\n        return \"https://www.chainsofglory.com/metadata/\";\n    }\n\n    function setRoyalties(uint256 _tokenId, address payable _royaltiesReceipientAddress, uint96 _percentageBasisPoints) public {\n        require(hasRole(MINTER_ROLE, _msgSender()), \"Exception: must have minter role to mint\");\n        LibPart.Part[] memory _royalties = new LibPart.Part[](1);\n        _royalties[0].value = _percentageBasisPoints;\n        _royalties[0].account = _royaltiesReceipientAddress;\n        _saveRoyalties(_tokenId, _royalties);\n    }\n\n    function royaltyInfo(uint256 _tokenId, uint256 _salePrice ) external view returns ( address receiver, uint256 royaltyAmount) {\n        LibPart.Part[] memory _royalties = royalties[_tokenId];\n        if(_royalties.length > 0) {\n            return(_royalties[0].account, (_salePrice * _royalties[0].value)/10000);\n        }\n        return (address(0), 0);\n    }\n\n    function supportsInterface(bytes4 interfaceId) public view virtual override(ERC721, AccessControlEnumerable) returns (bool) {\n        if (interfaceId == LibRoyaltiesV2._INTERFACE_ID_ROYALTIES) {\n            return true;\n        }\n\n        if(interfaceId == _INTERFACE_ID_ERC2981) {\n            return true;\n        }\n\n        return super.supportsInterface(interfaceId);\n    }\n\n    //************************************************************\n    // ARRAY functions \n    //************************************************************\n    function positionOf(address powner, uint256 tokenId) public view returns (bool, uint) {\n        for(uint i=0; i<_tokensByOwner[powner].length; i++) {\n            if(_tokensByOwner[powner][i]==tokenId)\n                return (true, i);\n        }\n        return (false, 0);\n    }\n\n    function deleteTokenId(address powner, uint256 tokenId) internal {\n        //Updates the _tokensByOwner mapping\n        (bool found, uint pos)=positionOf(powner, tokenId);\n        if(found) {\n            _tokensByOwner[powner][pos]= _tokensByOwner[powner][ _tokensByOwner[powner].length-1];\n            _tokensByOwner[powner].pop();\n        }\n    }\n\n\n    /*\n        require(gearExists(data.gear), \"Exception: some gear used does not exists in mint\");\n        require(ownAllGear(_to, data.gear), \"Exception: player does not own all gear in mint\");\n        require(gearSlotOk(data.gear), \"Exception: some gear is not in the apropriate slot in mint\");\n        require(!alreadyEquiped(_to, data.gear), \"Exception: some gear is already equiped in other player in mint\");\n\n        require(gearExists(gear), \"Exception: some gear used does not exists in equip\");\n        require(values[player].timeLock  < block.timestamp, \"Exception: player is locked\");\n        require(!gearLocked(gear), \"Exception: some gear is locked\");\n        require(ownAllGear(ownerOf(player), gear), \"Exception: player does not own all gear in equip\");\n        require(gearSlotOk(gear), \"Exception: some gear is not in the apropriate slot in equip\");\n        require(!alreadyEquipedInOtherPlayer(player, gear), \"Exception: some gear is already equiped in other player in equip\");\n    */\n    //Lets create a function that test that:\n    // - gear exists\n    // - player own all gear\n    // - gear are in apropriate slots\n    // - gear is not already equipped\n    //\n    // Lets call this function 'validGear'\n    function validGear(address powner, uint256[11] memory gear) internal view returns (bool) {\n        for(uint i=0; i<gear.length; i++) {            \n            if(gear[i]!=0) {\n                \n                //Gear exists?\n                if(!_gearNFT.exists(gear[i]))\n                        return false;\n                    \n                //player own all gear?\n                if(_gearNFT.ownerOf(gear[i])!=powner)\n                    return false;\n\n                //gear are in apropriate slots?\n                Equipment.gearStats memory gearNFT= _gearNFT.singleStats(gear[i]);\n                if(gearNFT.slot!=100 && gearNFT.slot!=i) // slot 100 is for wildcards\n                    return false;\n            }\n        }\n    }\n\n    //Test that all gear is not locked \n    function gearLocked(uint256[11] memory gear) public view returns (bool) {\n        for(uint i=0; i<gear.length; i++) {            \n            if(_gearNFT.singleStats(gear[i]).timeLock > block.timestamp)\n                return true;\n        }\n        return false;\n    }\n\n    //Test that all gear passed in the data is already equiped    \n    function alreadyEquiped(address powner, uint256[11] memory gear) internal view returns (bool) {\n        //For all PJs in the owner\n        for(uint i=0; i<_tokensByOwner[powner].length; i++) {\n            //Get the PJ data struct\n            charData memory dataTest= values[_tokensByOwner[powner][i]];\n\n            //Check 1 by 1 the slots\n            for(uint j=0; j<gear.length; j++) {\n                if(dataTest.gear[j]==gear[j] && gear[j]!=0)\n                    return true;\n            }\n        }\n        return false;\n    }    \n\n    //Test if the PJ has some gear equiped. Remember that cannot transfer a PJ with gear equiped\n    function hasEquipment(uint256 player) internal view returns (bool){\n        charData memory data=values[player];\n        \n        //If is an enemy, no problem in transfer it\n        if(data.class!=0)\n            return false;\n\n        for(uint j=0; j<data.gear.length; j++) {\n            if(data.gear[j]!=0)\n                return true;\n        }\n        return false;\n    }\n}",
  "sourcePath": "/home/javi/ChainsOfGlory/contracts/Characters.sol",
  "compiler": {
    "name": "solc",
    "version": "0.8.6+commit.11564f7e.Emscripten.clang"
  },
  "schemaVersion": "3.4.3",
  "updatedAt": "2021-12-02T12:07:08.122Z",
  "devdoc": {
    "kind": "dev",
    "methods": {
      "approve(address,uint256)": {
        "details": "See {IERC721-approve}."
      },
      "balanceOf(address)": {
        "details": "See {IERC721-balanceOf}."
      },
      "getApproved(uint256)": {
        "details": "See {IERC721-getApproved}."
      },
      "getRoleAdmin(bytes32)": {
        "details": "Returns the admin role that controls `role`. See {grantRole} and {revokeRole}. To change a role's admin, use {_setRoleAdmin}."
      },
      "getRoleMember(bytes32,uint256)": {
        "details": "Returns one of the accounts that have `role`. `index` must be a value between 0 and {getRoleMemberCount}, non-inclusive. Role bearers are not sorted in any particular way, and their ordering may change at any point. WARNING: When using {getRoleMember} and {getRoleMemberCount}, make sure you perform all queries on the same block. See the following https://forum.openzeppelin.com/t/iterating-over-elements-on-enumerableset-in-openzeppelin-contracts/2296[forum post] for more information."
      },
      "getRoleMemberCount(bytes32)": {
        "details": "Returns the number of accounts that have `role`. Can be used together with {getRoleMember} to enumerate all bearers of a role."
      },
      "grantRole(bytes32,address)": {
        "details": "Overload {grantRole} to track enumerable memberships"
      },
      "hasRole(bytes32,address)": {
        "details": "Returns `true` if `account` has been granted `role`."
      },
      "isApprovedForAll(address,address)": {
        "details": "See {IERC721-isApprovedForAll}."
      },
      "name()": {
        "details": "See {IERC721Metadata-name}."
      },
      "owner()": {
        "details": "Returns the address of the current owner."
      },
      "ownerOf(uint256)": {
        "details": "See {IERC721-ownerOf}."
      },
      "renounceOwnership()": {
        "details": "Leaves the contract without owner. It will not be possible to call `onlyOwner` functions anymore. Can only be called by the current owner. NOTE: Renouncing ownership will leave the contract without an owner, thereby removing any functionality that is only available to the owner."
      },
      "renounceRole(bytes32,address)": {
        "details": "Overload {renounceRole} to track enumerable memberships"
      },
      "revokeRole(bytes32,address)": {
        "details": "Overload {revokeRole} to track enumerable memberships"
      },
      "safeTransferFrom(address,address,uint256)": {
        "details": "See {IERC721-safeTransferFrom}."
      },
      "safeTransferFrom(address,address,uint256,bytes)": {
        "details": "See {IERC721-safeTransferFrom}."
      },
      "setApprovalForAll(address,bool)": {
        "details": "See {IERC721-setApprovalForAll}."
      },
      "symbol()": {
        "details": "See {IERC721Metadata-symbol}."
      },
      "tokenURI(uint256)": {
        "details": "See {IERC721Metadata-tokenURI}."
      },
      "transferFrom(address,address,uint256)": {
        "details": "See {IERC721-transferFrom}."
      },
      "transferOwnership(address)": {
        "details": "Transfers ownership of the contract to a new account (`newOwner`). Can only be called by the current owner."
      }
    },
    "version": 1
  },
  "userdoc": {
    "kind": "user",
    "methods": {},
    "version": 1
  }
}