{
  "contractName": "Characters",
  "abi": [
    {
      "inputs": [],
      "stateMutability": "nonpayable",
      "type": "constructor"
    },
    {
      "anonymous": false,
      "inputs": [
        {
          "indexed": true,
          "internalType": "address",
          "name": "owner",
          "type": "address"
        },
        {
          "indexed": true,
          "internalType": "address",
          "name": "approved",
          "type": "address"
        },
        {
          "indexed": true,
          "internalType": "uint256",
          "name": "tokenId",
          "type": "uint256"
        }
      ],
      "name": "Approval",
      "type": "event"
    },
    {
      "anonymous": false,
      "inputs": [
        {
          "indexed": true,
          "internalType": "address",
          "name": "owner",
          "type": "address"
        },
        {
          "indexed": true,
          "internalType": "address",
          "name": "operator",
          "type": "address"
        },
        {
          "indexed": false,
          "internalType": "bool",
          "name": "approved",
          "type": "bool"
        }
      ],
      "name": "ApprovalForAll",
      "type": "event"
    },
    {
      "anonymous": false,
      "inputs": [
        {
          "indexed": true,
          "internalType": "address",
          "name": "previousOwner",
          "type": "address"
        },
        {
          "indexed": true,
          "internalType": "address",
          "name": "newOwner",
          "type": "address"
        }
      ],
      "name": "OwnershipTransferred",
      "type": "event"
    },
    {
      "anonymous": false,
      "inputs": [
        {
          "indexed": true,
          "internalType": "bytes32",
          "name": "role",
          "type": "bytes32"
        },
        {
          "indexed": true,
          "internalType": "bytes32",
          "name": "previousAdminRole",
          "type": "bytes32"
        },
        {
          "indexed": true,
          "internalType": "bytes32",
          "name": "newAdminRole",
          "type": "bytes32"
        }
      ],
      "name": "RoleAdminChanged",
      "type": "event"
    },
    {
      "anonymous": false,
      "inputs": [
        {
          "indexed": true,
          "internalType": "bytes32",
          "name": "role",
          "type": "bytes32"
        },
        {
          "indexed": true,
          "internalType": "address",
          "name": "account",
          "type": "address"
        },
        {
          "indexed": true,
          "internalType": "address",
          "name": "sender",
          "type": "address"
        }
      ],
      "name": "RoleGranted",
      "type": "event"
    },
    {
      "anonymous": false,
      "inputs": [
        {
          "indexed": true,
          "internalType": "bytes32",
          "name": "role",
          "type": "bytes32"
        },
        {
          "indexed": true,
          "internalType": "address",
          "name": "account",
          "type": "address"
        },
        {
          "indexed": true,
          "internalType": "address",
          "name": "sender",
          "type": "address"
        }
      ],
      "name": "RoleRevoked",
      "type": "event"
    },
    {
      "anonymous": false,
      "inputs": [
        {
          "indexed": false,
          "internalType": "uint256",
          "name": "tokenId",
          "type": "uint256"
        },
        {
          "components": [
            {
              "internalType": "address payable",
              "name": "account",
              "type": "address"
            },
            {
              "internalType": "uint96",
              "name": "value",
              "type": "uint96"
            }
          ],
          "indexed": false,
          "internalType": "struct LibPart.Part[]",
          "name": "royalties",
          "type": "tuple[]"
        }
      ],
      "name": "RoyaltiesSet",
      "type": "event"
    },
    {
      "anonymous": false,
      "inputs": [
        {
          "indexed": true,
          "internalType": "address",
          "name": "from",
          "type": "address"
        },
        {
          "indexed": true,
          "internalType": "address",
          "name": "to",
          "type": "address"
        },
        {
          "indexed": true,
          "internalType": "uint256",
          "name": "tokenId",
          "type": "uint256"
        }
      ],
      "name": "Transfer",
      "type": "event"
    },
    {
      "inputs": [],
      "name": "BURNER_ROLE",
      "outputs": [
        {
          "internalType": "bytes32",
          "name": "",
          "type": "bytes32"
        }
      ],
      "stateMutability": "view",
      "type": "function"
    },
    {
      "inputs": [],
      "name": "DEFAULT_ADMIN_ROLE",
      "outputs": [
        {
          "internalType": "bytes32",
          "name": "",
          "type": "bytes32"
        }
      ],
      "stateMutability": "view",
      "type": "function"
    },
    {
      "inputs": [],
      "name": "MINTER_ROLE",
      "outputs": [
        {
          "internalType": "bytes32",
          "name": "",
          "type": "bytes32"
        }
      ],
      "stateMutability": "view",
      "type": "function"
    },
    {
      "inputs": [
        {
          "internalType": "address",
          "name": "to",
          "type": "address"
        },
        {
          "internalType": "uint256",
          "name": "tokenId",
          "type": "uint256"
        }
      ],
      "name": "approve",
      "outputs": [],
      "stateMutability": "nonpayable",
      "type": "function"
    },
    {
      "inputs": [
        {
          "internalType": "address",
          "name": "owner",
          "type": "address"
        }
      ],
      "name": "balanceOf",
      "outputs": [
        {
          "internalType": "uint256",
          "name": "",
          "type": "uint256"
        }
      ],
      "stateMutability": "view",
      "type": "function"
    },
    {
      "inputs": [
        {
          "internalType": "uint256",
          "name": "tokenId",
          "type": "uint256"
        }
      ],
      "name": "getApproved",
      "outputs": [
        {
          "internalType": "address",
          "name": "",
          "type": "address"
        }
      ],
      "stateMutability": "view",
      "type": "function"
    },
    {
      "inputs": [
        {
          "internalType": "uint256",
          "name": "id",
          "type": "uint256"
        }
      ],
      "name": "getRaribleV2Royalties",
      "outputs": [
        {
          "components": [
            {
              "internalType": "address payable",
              "name": "account",
              "type": "address"
            },
            {
              "internalType": "uint96",
              "name": "value",
              "type": "uint96"
            }
          ],
          "internalType": "struct LibPart.Part[]",
          "name": "",
          "type": "tuple[]"
        }
      ],
      "stateMutability": "view",
      "type": "function"
    },
    {
      "inputs": [
        {
          "internalType": "bytes32",
          "name": "role",
          "type": "bytes32"
        }
      ],
      "name": "getRoleAdmin",
      "outputs": [
        {
          "internalType": "bytes32",
          "name": "",
          "type": "bytes32"
        }
      ],
      "stateMutability": "view",
      "type": "function"
    },
    {
      "inputs": [
        {
          "internalType": "bytes32",
          "name": "role",
          "type": "bytes32"
        },
        {
          "internalType": "uint256",
          "name": "index",
          "type": "uint256"
        }
      ],
      "name": "getRoleMember",
      "outputs": [
        {
          "internalType": "address",
          "name": "",
          "type": "address"
        }
      ],
      "stateMutability": "view",
      "type": "function"
    },
    {
      "inputs": [
        {
          "internalType": "bytes32",
          "name": "role",
          "type": "bytes32"
        }
      ],
      "name": "getRoleMemberCount",
      "outputs": [
        {
          "internalType": "uint256",
          "name": "",
          "type": "uint256"
        }
      ],
      "stateMutability": "view",
      "type": "function"
    },
    {
      "inputs": [
        {
          "internalType": "bytes32",
          "name": "role",
          "type": "bytes32"
        },
        {
          "internalType": "address",
          "name": "account",
          "type": "address"
        }
      ],
      "name": "grantRole",
      "outputs": [],
      "stateMutability": "nonpayable",
      "type": "function"
    },
    {
      "inputs": [
        {
          "internalType": "bytes32",
          "name": "role",
          "type": "bytes32"
        },
        {
          "internalType": "address",
          "name": "account",
          "type": "address"
        }
      ],
      "name": "hasRole",
      "outputs": [
        {
          "internalType": "bool",
          "name": "",
          "type": "bool"
        }
      ],
      "stateMutability": "view",
      "type": "function"
    },
    {
      "inputs": [
        {
          "internalType": "address",
          "name": "owner",
          "type": "address"
        },
        {
          "internalType": "address",
          "name": "operator",
          "type": "address"
        }
      ],
      "name": "isApprovedForAll",
      "outputs": [
        {
          "internalType": "bool",
          "name": "",
          "type": "bool"
        }
      ],
      "stateMutability": "view",
      "type": "function"
    },
    {
      "inputs": [],
      "name": "name",
      "outputs": [
        {
          "internalType": "string",
          "name": "",
          "type": "string"
        }
      ],
      "stateMutability": "view",
      "type": "function"
    },
    {
      "inputs": [],
      "name": "owner",
      "outputs": [
        {
          "internalType": "address",
          "name": "",
          "type": "address"
        }
      ],
      "stateMutability": "view",
      "type": "function"
    },
    {
      "inputs": [
        {
          "internalType": "uint256",
          "name": "tokenId",
          "type": "uint256"
        }
      ],
      "name": "ownerOf",
      "outputs": [
        {
          "internalType": "address",
          "name": "",
          "type": "address"
        }
      ],
      "stateMutability": "view",
      "type": "function"
    },
    {
      "inputs": [],
      "name": "renounceOwnership",
      "outputs": [],
      "stateMutability": "nonpayable",
      "type": "function"
    },
    {
      "inputs": [
        {
          "internalType": "bytes32",
          "name": "role",
          "type": "bytes32"
        },
        {
          "internalType": "address",
          "name": "account",
          "type": "address"
        }
      ],
      "name": "renounceRole",
      "outputs": [],
      "stateMutability": "nonpayable",
      "type": "function"
    },
    {
      "inputs": [
        {
          "internalType": "bytes32",
          "name": "role",
          "type": "bytes32"
        },
        {
          "internalType": "address",
          "name": "account",
          "type": "address"
        }
      ],
      "name": "revokeRole",
      "outputs": [],
      "stateMutability": "nonpayable",
      "type": "function"
    },
    {
      "inputs": [
        {
          "internalType": "uint256",
          "name": "",
          "type": "uint256"
        },
        {
          "internalType": "uint256",
          "name": "",
          "type": "uint256"
        }
      ],
      "name": "royalties",
      "outputs": [
        {
          "internalType": "address payable",
          "name": "account",
          "type": "address"
        },
        {
          "internalType": "uint96",
          "name": "value",
          "type": "uint96"
        }
      ],
      "stateMutability": "view",
      "type": "function"
    },
    {
      "inputs": [
        {
          "internalType": "address",
          "name": "from",
          "type": "address"
        },
        {
          "internalType": "address",
          "name": "to",
          "type": "address"
        },
        {
          "internalType": "uint256",
          "name": "tokenId",
          "type": "uint256"
        }
      ],
      "name": "safeTransferFrom",
      "outputs": [],
      "stateMutability": "nonpayable",
      "type": "function"
    },
    {
      "inputs": [
        {
          "internalType": "address",
          "name": "from",
          "type": "address"
        },
        {
          "internalType": "address",
          "name": "to",
          "type": "address"
        },
        {
          "internalType": "uint256",
          "name": "tokenId",
          "type": "uint256"
        },
        {
          "internalType": "bytes",
          "name": "_data",
          "type": "bytes"
        }
      ],
      "name": "safeTransferFrom",
      "outputs": [],
      "stateMutability": "nonpayable",
      "type": "function"
    },
    {
      "inputs": [
        {
          "internalType": "address",
          "name": "operator",
          "type": "address"
        },
        {
          "internalType": "bool",
          "name": "approved",
          "type": "bool"
        }
      ],
      "name": "setApprovalForAll",
      "outputs": [],
      "stateMutability": "nonpayable",
      "type": "function"
    },
    {
      "inputs": [],
      "name": "symbol",
      "outputs": [
        {
          "internalType": "string",
          "name": "",
          "type": "string"
        }
      ],
      "stateMutability": "view",
      "type": "function"
    },
    {
      "inputs": [
        {
          "internalType": "uint256",
          "name": "tokenId",
          "type": "uint256"
        }
      ],
      "name": "tokenURI",
      "outputs": [
        {
          "internalType": "string",
          "name": "",
          "type": "string"
        }
      ],
      "stateMutability": "view",
      "type": "function"
    },
    {
      "inputs": [
        {
          "internalType": "address",
          "name": "newOwner",
          "type": "address"
        }
      ],
      "name": "transferOwnership",
      "outputs": [],
      "stateMutability": "nonpayable",
      "type": "function"
    },
    {
      "inputs": [
        {
          "internalType": "address",
          "name": "_to",
          "type": "address"
        },
        {
          "components": [
            {
              "internalType": "uint256",
              "name": "class",
              "type": "uint256"
            },
            {
              "internalType": "uint256",
              "name": "level",
              "type": "uint256"
            },
            {
              "internalType": "uint256[10]",
              "name": "stats",
              "type": "uint256[10]"
            },
            {
              "internalType": "uint256[11]",
              "name": "gear",
              "type": "uint256[11]"
            }
          ],
          "internalType": "struct Characters.charData",
          "name": "data",
          "type": "tuple"
        }
      ],
      "name": "mint",
      "outputs": [],
      "stateMutability": "nonpayable",
      "type": "function"
    },
    {
      "inputs": [
        {
          "internalType": "uint256",
          "name": "player",
          "type": "uint256"
        },
        {
          "internalType": "uint256[11]",
          "name": "gear",
          "type": "uint256[11]"
        }
      ],
      "name": "equip",
      "outputs": [],
      "stateMutability": "nonpayable",
      "type": "function"
    },
    {
      "inputs": [
        {
          "internalType": "address",
          "name": "from",
          "type": "address"
        },
        {
          "internalType": "address",
          "name": "to",
          "type": "address"
        },
        {
          "internalType": "uint256",
          "name": "tokenId",
          "type": "uint256"
        }
      ],
      "name": "transferFrom",
      "outputs": [],
      "stateMutability": "nonpayable",
      "type": "function"
    },
    {
      "inputs": [
        {
          "internalType": "address",
          "name": "owner",
          "type": "address"
        }
      ],
      "name": "getCharacters",
      "outputs": [
        {
          "internalType": "uint256[]",
          "name": "",
          "type": "uint256[]"
        }
      ],
      "stateMutability": "view",
      "type": "function"
    },
    {
      "inputs": [
        {
          "internalType": "uint256",
          "name": "idPJ",
          "type": "uint256"
        }
      ],
      "name": "singleStats",
      "outputs": [
        {
          "internalType": "uint256[10]",
          "name": "",
          "type": "uint256[10]"
        }
      ],
      "stateMutability": "view",
      "type": "function"
    },
    {
      "inputs": [
        {
          "internalType": "uint256",
          "name": "idPJ",
          "type": "uint256"
        }
      ],
      "name": "calculatedStats",
      "outputs": [
        {
          "internalType": "uint256[10]",
          "name": "",
          "type": "uint256[10]"
        }
      ],
      "stateMutability": "view",
      "type": "function"
    },
    {
      "inputs": [
        {
          "internalType": "uint256",
          "name": "_tokenId",
          "type": "uint256"
        },
        {
          "internalType": "address payable",
          "name": "_royaltiesReceipientAddress",
          "type": "address"
        },
        {
          "internalType": "uint96",
          "name": "_percentageBasisPoints",
          "type": "uint96"
        }
      ],
      "name": "setRoyalties",
      "outputs": [],
      "stateMutability": "nonpayable",
      "type": "function"
    },
    {
      "inputs": [
        {
          "internalType": "uint256",
          "name": "_tokenId",
          "type": "uint256"
        },
        {
          "internalType": "uint256",
          "name": "_salePrice",
          "type": "uint256"
        }
      ],
      "name": "royaltyInfo",
      "outputs": [
        {
          "internalType": "address",
          "name": "receiver",
          "type": "address"
        },
        {
          "internalType": "uint256",
          "name": "royaltyAmount",
          "type": "uint256"
        }
      ],
      "stateMutability": "view",
      "type": "function"
    },
    {
      "inputs": [
        {
          "internalType": "bytes4",
          "name": "interfaceId",
          "type": "bytes4"
        }
      ],
      "name": "supportsInterface",
      "outputs": [
        {
          "internalType": "bool",
          "name": "",
          "type": "bool"
        }
      ],
      "stateMutability": "view",
      "type": "function"
    },
    {
      "inputs": [
        {
          "internalType": "address",
          "name": "owner",
          "type": "address"
        },
        {
          "internalType": "uint256",
          "name": "tokenId",
          "type": "uint256"
        }
      ],
      "name": "positionOf",
      "outputs": [
        {
          "internalType": "bool",
          "name": "",
          "type": "bool"
        },
        {
          "internalType": "uint256",
          "name": "",
          "type": "uint256"
        }
      ],
      "stateMutability": "view",
      "type": "function"
    },
    {
      "inputs": [
        {
          "internalType": "address",
          "name": "equipment",
          "type": "address"
        }
      ],
      "name": "setEquipmentAddress",
      "outputs": [],
      "stateMutability": "nonpayable",
      "type": "function"
    }
  ],
  "bytecode": "0x608060405260006025553480156200001657600080fd5b50604080518082018252601a81527f436861696e73206f6620476c6f7279204368617261637465727300000000000060208083019182528351808501909452600384527f434743000000000000000000000000000000000000000000000000000000000090840152815191929162000091916000916200038c565b508051620000a79060019060208401906200038c565b505050620000d6620000c762000174640100000000026401000000009004565b64010000000062000178810204565b620000fe6000620000ef64010000000062000174810204565b640100000000620001ca810204565b620001367f9f2df0fed2c77648de5860a4cc508cd0818c85b8b8a1ab4ceeef8d981c8956a6620000ef64010000000062000174810204565b6200016e7f3c11d16cbaffd01df69ce1c404f6340ee057498f5f00246190ea54220576a848620000ef64010000000062000174810204565b62000488565b3390565b60088054600160a060020a03838116600160a060020a0319831681179093556040519116919082907f8be0079c531659141344cd1fd0a4f28419497f9722a3daafe3b4186f6b6457e090600090a35050565b620001e4828264010000000062001aa66200021182021704565b60008281526007602052604090206200020c908264010000000062001ab06200022a82021704565b505050565b62000226828264010000000062000253810204565b5050565b60006200024a83600160a060020a038416640100000000620002f1810204565b90505b92915050565b62000268828264010000000062000349810204565b62000226576000828152600660209081526040808320600160a060020a03851684529091529020805460ff19166001179055620002ad64010000000062000174810204565b600160a060020a031681600160a060020a0316837f2f8788117e7eff1d82e926ec794901d17c78024a50270940304540a733656f0d60405160405180910390a45050565b600062000308838364010000000062000374810204565b62000340575081546001818101845560008481526020808220909301849055845484825282860190935260409020919091556200024d565b5060006200024d565b6000918252600660209081526040808420600160a060020a0393909316845291905290205460ff1690565b60009081526001919091016020526040902054151590565b8280546200039a9062000432565b90600052602060002090601f016020900481019282620003be576000855562000409565b82601f10620003d957805160ff191683800117855562000409565b8280016001018555821562000409579182015b8281111562000409578251825591602001919060010190620003ec565b50620004179291506200041b565b5090565b5b808211156200041757600081556001016200041c565b6002810460018216806200044757607f821691505b6020821081141562000482577f4e487b7100000000000000000000000000000000000000000000000000000000600052602260045260246000fd5b50919050565b613ee280620004986000396000f3fe608060405234801561001057600080fd5b506004361061022b5760003560e060020a900480638924af7411610134578063ad127c8a116100bc578063d539139311610080578063d539139314610559578063d547741f14610580578063db20f89c14610593578063e985e9c5146105a6578063f2fde38b146105e257600080fd5b8063ad127c8a146104e0578063b88d4fde14610500578063c87b56dd14610513578063ca15c87314610526578063cad96cca1461053957600080fd5b806395d89b411161010357806395d89b4114610480578063a217fddf14610488578063a22cb46514610490578063a2846ad4146104a3578063a3fd0d99146104b657600080fd5b80638924af741461040a5780638da5cb5b146104495780639010d07c1461045a57806391d148541461046d57600080fd5b80632f2ff15d116101b757806359d369271161018657806359d36927146103a95780636352211e146103bc57806370a08231146103cf578063715018a6146103e25780637b00aee5146103ea57600080fd5b80632f2ff15d1461035d57806336568abe14610370578063377982031461038357806342842e0e1461039657600080fd5b8063143094db116101fe578063143094db146102ad57806323b872dd146102c0578063248a9ca3146102d3578063282c51f3146103045780632a55205a1461032b57600080fd5b806301ffc9a71461023057806306fdde0314610258578063081812fc1461026d578063095ea7b314610298575b600080fd5b61024361023e3660046137fe565b6105f5565b60405190151581526020015b60405180910390f35b61026061067a565b60405161024f9190613b4b565b61028061027b36600461379e565b61070c565b604051600160a060020a03909116815260200161024f565b6102ab6102a6366004613755565b6107ba565b005b6102ab6102bb3660046138cc565b6108f2565b6102ab6102ce36600461355e565b6109dd565b6102f66102e136600461379e565b60009081526006602052604090206001015490565b60405190815260200161024f565b6102f67f3c11d16cbaffd01df69ce1c404f6340ee057498f5f00246190ea54220576a84881565b61033e6103393660046137dc565b610a67565b60408051600160a060020a03909316835260208301919091520161024f565b6102ab61036b3660046137b7565b610b88565b6102ab61037e3660046137b7565b610baa565b6102ab61039136600461391f565b610bcc565b6102ab6103a436600461355e565b610e7f565b6102ab6103b7366004613691565b610e9a565b6102806103ca36600461379e565b611199565b6102f66103dd3660046134eb565b611227565b6102ab6112c4565b6103fd6103f836600461379e565b6112fd565b60405161024f9190613ad5565b61041d6104183660046137dc565b6114b1565b60408051600160a060020a0390931683526bffffffffffffffffffffffff90911660208301520161024f565b600854600160a060020a0316610280565b6102806104683660046137dc565b611510565b61024361047b3660046137b7565b61152f565b61026061155a565b6102f6600081565b6102ab61049e366004613663565b611569565b6102ab6104b13660046134eb565b611631565b6104c96104c4366004613755565b61168d565b60408051921515835260208301919091520161024f565b6104f36104ee3660046134eb565b61171b565b60405161024f9190613b07565b6102ab61050e36600461359f565b611787565b61026061052136600461379e565b6117bc565b6102f661053436600461379e565b6118d9565b61054c61054736600461379e565b6118f0565b60405161024f9190613ac2565b6102f67f9f2df0fed2c77648de5860a4cc508cd0818c85b8b8a1ab4ceeef8d981c8956a681565b6102ab61058e3660046137b7565b611995565b6103fd6105a136600461379e565b61199f565b6102436105b4366004613525565b600160a060020a03918216600090815260056020908152604080832093909416825291909152205460ff1690565b6102ab6105f03660046134eb565b6119ee565b6000600160e060020a031982167f44c74bcc00000000000000000000000000000000000000000000000000000000141561063157506001919050565b600160e060020a031982167f2a55205a00000000000000000000000000000000000000000000000000000000141561066b57506001919050565b61067482611ac5565b92915050565b60606000805461068990613d89565b80601f01602080910402602001604051908101604052809291908181526020018280546106b590613d89565b80156107025780601f106106d757610100808354040283529160200191610702565b820191906000526020600020905b8154815290600101906020018083116106e557829003601f168201915b5050505050905090565b600081815260026020526040812054600160a060020a031661079e5760405160e560020a62461bcd02815260206004820152602c60248201527f4552433732313a20617070726f76656420717565727920666f72206e6f6e657860448201527f697374656e7420746f6b656e000000000000000000000000000000000000000060648201526084015b60405180910390fd5b50600090815260046020526040902054600160a060020a031690565b60006107c582611199565b905080600160a060020a031683600160a060020a031614156108525760405160e560020a62461bcd02815260206004820152602160248201527f4552433732313a20617070726f76616c20746f2063757272656e74206f776e6560448201527f72000000000000000000000000000000000000000000000000000000000000006064820152608401610795565b33600160a060020a038216148061086e575061086e81336105b4565b6108e35760405160e560020a62461bcd02815260206004820152603860248201527f4552433732313a20617070726f76652063616c6c6572206973206e6f74206f7760448201527f6e6572206e6f7220617070726f76656420666f7220616c6c00000000000000006064820152608401610795565b6108ed8383611b03565b505050565b600854600160a060020a0316331461091f5760405160e560020a62461bcd02815260040161079590613bbb565b604080516001808252818301909252600091816020015b6040805180820190915260008082526020820152815260200190600190039081610936579050509050818160008151811061097357610973613e41565b6020026020010151602001906bffffffffffffffffffffffff1690816bffffffffffffffffffffffff168152505082816000815181106109b5576109b5613e41565b6020908102919091010151600160a060020a0390911690526109d78482611b7e565b50505050565b6109e681611d23565b15610a5c5760405160e560020a62461bcd02815260206004820152603a60248201527f457863657074696f6e3a2063616e6e6f74207472616e7366657220616e20706c60448201527f617965722077656172696e6720616e792065717569706d656e740000000000006064820152608401610795565b6108ed838383611e12565b6000828152600960209081526040808320805482518185028101850190935280835284938493929190849084015b82821015610afa5760008481526020908190206040805180820190915290840154600160a060020a03811682527401000000000000000000000000000000000000000090046bffffffffffffffffffffffff1681830152825260019092019101610a95565b505050509050600081511115610b785780600081518110610b1d57610b1d613e41565b60200260200101516000015161271082600081518110610b3f57610b3f613e41565b6020026020010151602001516bffffffffffffffffffffffff1686610b649190613d10565b610b6e9190613cfc565b9250925050610b81565b60008092509250505b9250929050565b610b928282611e46565b60008281526007602052604090206108ed9082611ab0565b610bb48282611e6c565b60008281526007602052604090206108ed9082611ef7565b33610bd683611199565b600160a060020a031614610c555760405160e560020a62461bcd02815260206004820152602f60248201527f457863657074696f6e3a206d757374206265206f776e6572206f66207468652060448201527f706c6179657220746f20657175697000000000000000000000000000000000006064820152608401610795565b610c5e81611f0c565b610cd35760405160e560020a62461bcd02815260206004820152603260248201527f457863657074696f6e3a20736f6d652067656172207573656420646f6573206e60448201527f6f742065786973747320696e20657175697000000000000000000000000000006064820152608401610795565b610ce5610cdf83611199565b82611fdd565b610d5a5760405160e560020a62461bcd02815260206004820152603060248201527f457863657074696f6e3a20706c6179657220646f6573206e6f74206f776e206160448201527f6c6c206765617220696e206571756970000000000000000000000000000000006064820152608401610795565b610d6381612185565b610dd85760405160e560020a62461bcd02815260206004820152603b60248201527f457863657074696f6e3a20736f6d652067656172206973206e6f7420696e207460448201527f6865206170726f70726961746520736c6f7420696e20657175697000000000006064820152608401610795565b610dea610de483611199565b82612298565b15610e62576040805160e560020a62461bcd0281526020600482015260248101919091527f457863657074696f6e3a20736f6d65206765617220697320616c72656164792060448201527f6571756970656420696e206f7468657220706c6179657220696e2065717569706064820152608401610795565b60008281526023602052604090206108ed90600c0182600b61337d565b6108ed83838360405180602001604052806000815250611787565b610ec47f9f2df0fed2c77648de5860a4cc508cd0818c85b8b8a1ab4ceeef8d981c8956a63361152f565b610f395760405160e560020a62461bcd02815260206004820152602860248201527f457863657074696f6e3a206d7573742068617665206d696e74657220726f6c6560448201527f20746f206d696e740000000000000000000000000000000000000000000000006064820152608401610795565b610f468160600151611f0c565b610fbb5760405160e560020a62461bcd02815260206004820152603160248201527f457863657074696f6e3a20736f6d652067656172207573656420646f6573206e60448201527f6f742065786973747320696e206d696e740000000000000000000000000000006064820152608401610795565b610fc9828260600151611fdd565b61103e5760405160e560020a62461bcd02815260206004820152602f60248201527f457863657074696f6e3a20706c6179657220646f6573206e6f74206f776e206160448201527f6c6c206765617220696e206d696e7400000000000000000000000000000000006064820152608401610795565b61104b8160600151612185565b6110c05760405160e560020a62461bcd02815260206004820152603a60248201527f457863657074696f6e3a20736f6d652067656172206973206e6f7420696e207460448201527f6865206170726f70726961746520736c6f7420696e206d696e740000000000006064820152608401610795565b6110ce828260600151612298565b156111445760405160e560020a62461bcd02815260206004820152603f60248201527f457863657074696f6e3a20736f6d65206765617220697320616c72656164792060448201527f6571756970656420696e206f7468657220706c6179657220696e206d696e74006064820152608401610795565b8051600c9081556020820151600d55604082015182919061116990600e90600a6133bb565b50606082015161117f90600c830190600b61337d565b5090505061119582611190600a5490565b61243c565b5050565b600081815260026020526040812054600160a060020a0316806106745760405160e560020a62461bcd02815260206004820152602960248201527f4552433732313a206f776e657220717565727920666f72206e6f6e657869737460448201527f656e7420746f6b656e00000000000000000000000000000000000000000000006064820152608401610795565b6000600160a060020a0382166112a85760405160e560020a62461bcd02815260206004820152602a60248201527f4552433732313a2062616c616e636520717565727920666f7220746865207a6560448201527f726f2061646472657373000000000000000000000000000000000000000000006064820152608401610795565b50600160a060020a031660009081526003602052604090205490565b600854600160a060020a031633146112f15760405160e560020a62461bcd02815260040161079590613bbb565b6112fb600061259d565b565b6113056133e8565b60008281526023602052604080822081516101408101909252600201600a8282826020028201915b81548152602001906001019080831161132d575050505050905060005b60008490526023602052600b8110156114aa576000848152602360205260409020600c0181600b811061137f5761137f613e41565b01541561149857600b805460008681526023602052604081209092600160a060020a039092169163db20f89c91600c0190859081106113c0576113c0613e41565b01546040518263ffffffff1660e060020a0281526004016113e391815260200190565b6101a06040518083038186803b1580156113fc57600080fd5b505afa158015611410573d6000803e3d6000fd5b505050506040513d601f19601f820116820180604052508101906114349190613838565b905060005b600a81101561149557816060015181600a811061145857611458613e41565b60200201518482600a811061146f5761146f613e41565b602002018181516114809190613ce4565b9052508061148d81613dc7565b915050611439565b50505b806114a281613dc7565b91505061134a565b5092915050565b600960205281600052604060002081815481106114cd57600080fd5b600091825260209091200154600160a060020a03811692507401000000000000000000000000000000000000000090046bffffffffffffffffffffffff16905082565b600082815260076020526040812061152890836125fc565b9392505050565b6000918252600660209081526040808420600160a060020a0393909316845291905290205460ff1690565b60606001805461068990613d89565b600160a060020a0382163314156115c55760405160e560020a62461bcd02815260206004820152601960248201527f4552433732313a20617070726f766520746f2063616c6c6572000000000000006044820152606401610795565b336000818152600560209081526040808320600160a060020a03871680855290835292819020805460ff191686151590811790915590519081529192917f17307eab39ab6107e8899845ad3d59bd9653f200f220920489ca2b5937696c31910160405180910390a35050565b600854600160a060020a0316331461165e5760405160e560020a62461bcd02815260040161079590613bbb565b600b805473ffffffffffffffffffffffffffffffffffffffff1916600160a060020a0392909216919091179055565b60008060005b600160a060020a03851660009081526024602052604090205481101561170e57600160a060020a03851660009081526024602052604090208054859190839081106116e0576116e0613e41565b906000526020600020015414156116fc57600192509050610b81565b8061170681613dc7565b915050611693565b5060009485945092505050565b600160a060020a03811660009081526024602090815260409182902080548351818402810184019094528084526060939283018282801561177b57602002820191906000526020600020905b815481526020019060010190808311611767575b50505050509050919050565b6117913383612608565b6117b05760405160e560020a62461bcd02815260040161079590613bf0565b6109d784848484612713565b600081815260026020526040902054606090600160a060020a031661184c5760405160e560020a62461bcd02815260206004820152602f60248201527f4552433732314d657461646174613a2055524920717565727920666f72206e6f60448201527f6e6578697374656e7420746f6b656e00000000000000000000000000000000006064820152608401610795565b600061188860408051808201909152601f81527f68747470733a2f2f6578616d706c65646f6d61696e2f6d657461646174612f00602082015290565b905060008151116118a85760405180602001604052806000815250611528565b806118b284612749565b6040516020016118c39291906139d6565b6040516020818303038152906040529392505050565b600081815260076020526040812061067490612882565b606060096000838152602001908152602001600020805480602002602001604051908101604052809291908181526020016000905b8282101561198a5760008481526020908190206040805180820190915290840154600160a060020a03811682527401000000000000000000000000000000000000000090046bffffffffffffffffffffffff1681830152825260019092019101611925565b505050509050919050565b610bb4828261288c565b6119a76133e8565b6000828152602360205260409081902081516101408101909252600201600a8282826020028201918154815260200190600101908083116117675750505050509050919050565b600854600160a060020a03163314611a1b5760405160e560020a62461bcd02815260040161079590613bbb565b600160a060020a038116611a9a5760405160e560020a62461bcd02815260206004820152602660248201527f4f776e61626c653a206e6577206f776e657220697320746865207a65726f206160448201527f64647265737300000000000000000000000000000000000000000000000000006064820152608401610795565b611aa38161259d565b50565b61119582826128b2565b600061152883600160a060020a038416612938565b6000600160e060020a031982167f5a05180f000000000000000000000000000000000000000000000000000000001480610674575061067482612987565b6000818152600460205260409020805473ffffffffffffffffffffffffffffffffffffffff1916600160a060020a0384169081179091558190611b4582611199565b600160a060020a03167f8c5be1e5ebec7d5bd14f71427d1e84f3dd0314c0f7b2291e5b200ac8c7c3b92560405160405180910390a45050565b60005b8151811015611d18576000600160a060020a0316828281518110611ba757611ba7613e41565b602002602001015160000151600160a060020a03161415611c0d5760405160e560020a62461bcd02815260206004820152601b60248201527f526563697069656e742073686f756c642062652070726573656e7400000000006044820152606401610795565b818181518110611c1f57611c1f613e41565b6020026020010151602001516bffffffffffffffffffffffff1660001415611c8c5760405160e560020a62461bcd02815260206004820181905260248201527f526f79616c74792076616c75652073686f756c6420626520706f7369746976656044820152606401610795565b60008381526009602052604090208251839083908110611cae57611cae613e41565b6020908102919091018101518254600181018455600093845292829020815191909201516bffffffffffffffffffffffff167401000000000000000000000000000000000000000002600160a060020a039091161791015580611d1081613dc7565b915050611b81565b5061119582826129c5565b600081815260236020908152604080832081516080810183528154815260018201549381019390935281516101408101808452859493840191906002840190600a9082845b815481526020019060010190808311611d685750505091835250506040805161016081019182905260209092019190600c840190600b9082845b815481526020019060010190808311611da257505050505081525050905060005b600b811015611e0857816060015181600b8110611de257611de2613e41565b602002015115611df6575060019392505050565b80611e0081613dc7565b915050611dc3565b5060009392505050565b611e1c3382612608565b611e3b5760405160e560020a62461bcd02815260040161079590613bf0565b6108ed838383612a02565b600082815260066020526040902060010154611e628133612bed565b6108ed83836128b2565b600160a060020a0381163314611eed5760405160e560020a62461bcd02815260206004820152602f60248201527f416363657373436f6e74726f6c3a2063616e206f6e6c792072656e6f756e636560448201527f20726f6c657320666f722073656c6600000000000000000000000000000000006064820152608401610795565b6111958282612c54565b600061152883600160a060020a038416612cbb565b6000805b600b811015611fd457600b8054600160a060020a031690634f558e7990859084908110611f3f57611f3f613e41565b60200201516040518263ffffffff1660e060020a028152600401611f6591815260200190565b60206040518083038186803b158015611f7d57600080fd5b505afa158015611f91573d6000803e3d6000fd5b505050506040513d601f19601f82011682018060405250810190611fb59190613781565b611fc25750600092915050565b80611fcc81613dc7565b915050611f10565b50600192915050565b6000805b600b81101561217b57600b8054600160a060020a031690634f558e799085908490811061201057612010613e41565b60200201516040518263ffffffff1660e060020a02815260040161203691815260200190565b60206040518083038186803b15801561204e57600080fd5b505afa158015612062573d6000803e3d6000fd5b505050506040513d601f19601f820116820180604052508101906120869190613781565b612094576000915050610674565b8281600b81106120a6576120a6613e41565b60200201511561216957600b8054600160a060020a0380871692911690636352211e908690859081106120db576120db613e41565b60200201516040518263ffffffff1660e060020a02815260040161210191815260200190565b60206040518083038186803b15801561211957600080fd5b505afa15801561212d573d6000803e3d6000fd5b505050506040513d601f19601f820116820180604052508101906121519190613508565b600160a060020a031614612169576000915050610674565b8061217381613dc7565b915050611fe1565b5060019392505050565b6000805b600b811015611fd4578281600b81106121a4576121a4613e41565b60200201511561228657600b8054600091600160a060020a039091169063db20f89c908690859081106121d9576121d9613e41565b60200201516040518263ffffffff1660e060020a0281526004016121ff91815260200190565b6101a06040518083038186803b15801561221857600080fd5b505afa15801561222c573d6000803e3d6000fd5b505050506040513d601f19601f820116820180604052508101906122509190613838565b90508060200151600014158015612275575061226d826001613ce4565b816020015114155b15612284575060009392505050565b505b8061229081613dc7565b915050612189565b6000805b600160a060020a038416600090815260246020526040902054811015611e0857600160a060020a038416600090815260246020526040812080546023918391859081106122eb576122eb613e41565b90600052602060002001548152602001908152602001600020604051806080016040529081600082015481526020016001820154815260200160028201600a806020026040519081016040528092919082600a801561235f576020028201915b81548152602001906001019080831161234b575b50505091835250506040805161016081019182905260209092019190600c840190600b9082845b81548152602001906001019080831161238657505050505081525050905060005b600b811015612427578481600b81106123c2576123c2613e41565b6020020151826060015182600b81106123dd576123dd613e41565b602002015114801561240457508481600b81106123fc576123fc613e41565b602002015115155b156124155760019350505050610674565b8061241f81613dc7565b9150506123a7565b5050808061243490613dc7565b91505061229c565b600160a060020a0382166124955760405160e560020a62461bcd02815260206004820181905260248201527f4552433732313a206d696e7420746f20746865207a65726f20616464726573736044820152606401610795565b600081815260026020526040902054600160a060020a0316156124fd5760405160e560020a62461bcd02815260206004820152601c60248201527f4552433732313a20746f6b656e20616c7265616479206d696e746564000000006044820152606401610795565b61250960008383612dae565b600160a060020a0382166000908152600360205260408120805460019290612532908490613ce4565b9091555050600081815260026020526040808220805473ffffffffffffffffffffffffffffffffffffffff1916600160a060020a03861690811790915590518392907fddf252ad1be2c89b69c2b068fc378daa952ba7f163c4a11628f55a4df523b3ef908290a45050565b60088054600160a060020a0383811673ffffffffffffffffffffffffffffffffffffffff19831681179093556040519116919082907f8be0079c531659141344cd1fd0a4f28419497f9722a3daafe3b4186f6b6457e090600090a35050565b60006115288383612e95565b600081815260026020526040812054600160a060020a03166126955760405160e560020a62461bcd02815260206004820152602c60248201527f4552433732313a206f70657261746f7220717565727920666f72206e6f6e657860448201527f697374656e7420746f6b656e00000000000000000000000000000000000000006064820152608401610795565b60006126a083611199565b905080600160a060020a031684600160a060020a031614806126db575083600160a060020a03166126d08461070c565b600160a060020a0316145b8061270b5750600160a060020a0380821660009081526005602090815260408083209388168352929052205460ff165b949350505050565b61271e848484612a02565b61272a84848484612ebf565b6109d75760405160e560020a62461bcd02815260040161079590613b5e565b60608161278957505060408051808201909152600181527f3000000000000000000000000000000000000000000000000000000000000000602082015290565b8160005b81156127b3578061279d81613dc7565b91506127ac9050600a83613cfc565b915061278d565b60008167ffffffffffffffff8111156127ce576127ce613e5a565b6040519080825280601f01601f1916602001820160405280156127f8576020820181803683370190505b5090505b841561270b5761280d600183613d2f565b915061281a600a86613de2565b612825906030613ce4565b7f01000000000000000000000000000000000000000000000000000000000000000281838151811061285957612859613e41565b6020010190600160f860020a031916908160001a90535061287b600a86613cfc565b94506127fc565b6000610674825490565b6000828152600660205260409020600101546128a88133612bed565b6108ed8383612c54565b6128bc828261152f565b611195576000828152600660209081526040808320600160a060020a03851684529091529020805460ff191660011790556128f43390565b600160a060020a031681600160a060020a0316837f2f8788117e7eff1d82e926ec794901d17c78024a50270940304540a733656f0d60405160405180910390a45050565b600081815260018301602052604081205461297f57508154600181810184556000848152602080822090930184905584548482528286019093526040902091909155610674565b506000610674565b6000600160e060020a031982167f7965db0b000000000000000000000000000000000000000000000000000000001480610674575061067482613001565b7f3fa96d7b6bcbfe71ef171666d84db3cf52fa2d1c8afdb1cc8e486177f208b7df82826040516129f6929190613c4d565b60405180910390a15050565b82600160a060020a0316612a1582611199565b600160a060020a031614612a945760405160e560020a62461bcd02815260206004820152602960248201527f4552433732313a207472616e73666572206f6620746f6b656e2074686174206960448201527f73206e6f74206f776e00000000000000000000000000000000000000000000006064820152608401610795565b600160a060020a038216612b125760405160e560020a62461bcd028152602060048201526024808201527f4552433732313a207472616e7366657220746f20746865207a65726f2061646460448201527f72657373000000000000000000000000000000000000000000000000000000006064820152608401610795565b612b1d838383612dae565b612b28600082611b03565b600160a060020a0383166000908152600360205260408120805460019290612b51908490613d2f565b9091555050600160a060020a0382166000908152600360205260408120805460019290612b7f908490613ce4565b9091555050600081815260026020526040808220805473ffffffffffffffffffffffffffffffffffffffff1916600160a060020a0386811691821790925591518493918716917fddf252ad1be2c89b69c2b068fc378daa952ba7f163c4a11628f55a4df523b3ef91a4505050565b612bf7828261152f565b61119557612c0f81600160a060020a0316601461309c565b612c1a83602061309c565b604051602001612c2b929190613a05565b60408051601f198184030181529082905260e560020a62461bcd02825261079591600401613b4b565b612c5e828261152f565b15611195576000828152600660209081526040808320600160a060020a0385168085529252808320805460ff1916905551339285917ff6391f5c32d9c69d2a47ea670b442974b53935d1edc7fd64eb21e047a839171b9190a45050565b60008181526001830160205260408120548015612da4576000612cdf600183613d2f565b8554909150600090612cf390600190613d2f565b9050818114612d58576000866000018281548110612d1357612d13613e41565b9060005260206000200154905080876000018481548110612d3657612d36613e41565b6000918252602080832090910192909255918252600188019052604090208390555b8554869080612d6957612d69613e28565b600190038181906000526020600020016000905590558560010160008681526020019081526020016000206000905560019350505050610674565b6000915050610674565b600160a060020a038316612e4857600c60236000612dcb600a5490565b815260208101919091526040016000208154815560018083015490820155612dfb6002808301908401600a613407565b50612e0e600c828101908401600b613432565b5050600a8054600101905550600160a060020a03919091166000908152602460209081526040822080546001810182559083529120015550565b600160a060020a038216612e60576108ed838261329e565b600160a060020a0382166000908152602460209081526040822080546001810182559083529120018190556108ed838261329e565b6000826000018281548110612eac57612eac613e41565b9060005260206000200154905092915050565b6000600160a060020a0384163b15612ff6576040517f150b7a02000000000000000000000000000000000000000000000000000000008152600160a060020a0385169063150b7a0290612f1c903390899088908890600401613a86565b602060405180830381600087803b158015612f3657600080fd5b505af1925050508015612f66575060408051601f3d908101601f19168201909252612f639181019061381b565b60015b612fc3573d808015612f94576040519150601f19603f3d011682016040523d82523d6000602084013e612f99565b606091505b508051612fbb5760405160e560020a62461bcd02815260040161079590613b5e565b805181602001fd5b600160e060020a0319167f150b7a020000000000000000000000000000000000000000000000000000000014905061270b565b506001949350505050565b6000600160e060020a031982167f80ac58cd0000000000000000000000000000000000000000000000000000000014806130645750600160e060020a031982167f5b5e139f00000000000000000000000000000000000000000000000000000000145b8061067457507f01ffc9a700000000000000000000000000000000000000000000000000000000600160e060020a0319831614610674565b606060006130ab836002613d10565b6130b6906002613ce4565b67ffffffffffffffff8111156130ce576130ce613e5a565b6040519080825280601f01601f1916602001820160405280156130f8576020820181803683370190505b5090507f30000000000000000000000000000000000000000000000000000000000000008160008151811061312f5761312f613e41565b6020010190600160f860020a031916908160001a9053507f78000000000000000000000000000000000000000000000000000000000000008160018151811061317a5761317a613e41565b6020010190600160f860020a031916908160001a905350600061319e846002613d10565b6131a9906001613ce4565b90505b600181111561324c577f303132333435363738396162636465660000000000000000000000000000000085600f16601081106131ea576131ea613e41565b1a7f01000000000000000000000000000000000000000000000000000000000000000282828151811061321f5761321f613e41565b6020010190600160f860020a031916908160001a90535060109094049361324581613d72565b90506131ac565b5083156115285760405160e560020a62461bcd02815260206004820181905260248201527f537472696e67733a20686578206c656e67746820696e73756666696369656e746044820152606401610795565b6000806132ab848461168d565b9150915081156109d757600160a060020a038416600090815260246020526040902080546132db90600190613d2f565b815481106132eb576132eb613e41565b90600052602060002001546024600086600160a060020a0316600160a060020a03168152602001908152602001600020828154811061332c5761332c613e41565b6000918252602080832090910192909255600160a060020a038616815260249091526040902080548061336157613361613e28565b6001900381819060005260206000200160009055905550505050565b82600b81019282156133ab579160200282015b828111156133ab578251825591602001919060010190613390565b506133b792915061345c565b5090565b82600a81019282156133ab57916020028201828111156133ab578251825591602001919060010190613390565b604051806101400160405280600a906020820280368337509192915050565b82600a81019282156133ab579182015b828111156133ab578254825591600101919060010190613417565b82600b81019282156133ab57918201828111156133ab578254825591600101919060010190613417565b5b808211156133b7576000815560010161345d565b600082601f83011261348257600080fd5b60405161016080820182811067ffffffffffffffff821117156134a7576134a7613e5a565b60405281848281018710156134bb57600080fd5b600092505b600b8310156134e0578035825260019290920191602091820191016134c0565b509195945050505050565b6000602082840312156134fd57600080fd5b813561152881613e73565b60006020828403121561351a57600080fd5b815161152881613e73565b6000806040838503121561353857600080fd5b823561354381613e73565b9150602083013561355381613e73565b809150509250929050565b60008060006060848603121561357357600080fd5b833561357e81613e73565b9250602084013561358e81613e73565b929592945050506040919091013590565b600080600080608085870312156135b557600080fd5b84356135c081613e73565b93506020858101356135d181613e73565b935060408601359250606086013567ffffffffffffffff808211156135f557600080fd5b818801915088601f83011261360957600080fd5b81358181111561361b5761361b613e5a565b61362d601f8201601f19168501613cb3565b9150808252898482850101111561364357600080fd5b808484018584013760008482840101525080935050505092959194509250565b6000806040838503121561367657600080fd5b823561368181613e73565b9150602083013561355381613e88565b6000808284036103008112156136a657600080fd5b83356136b181613e73565b925060206102e0601f19830112156136c857600080fd5b6136d0613c66565b915080850135825260408501358183015285607f8601126136f057600080fd5b6136f8613c8f565b80606087016101a088018981111561370f57600080fd5b60005b600a81101561372f57823585529385019391850191600101613712565b508260408701526137408a82613471565b60608701525050505050809150509250929050565b6000806040838503121561376857600080fd5b823561377381613e73565b946020939093013593505050565b60006020828403121561379357600080fd5b815161152881613e88565b6000602082840312156137b057600080fd5b5035919050565b600080604083850312156137ca57600080fd5b82359150602083013561355381613e73565b600080604083850312156137ef57600080fd5b50508035926020909101359150565b60006020828403121561381057600080fd5b813561152881613e96565b60006020828403121561382d57600080fd5b815161152881613e96565b60006101a080838503121561384c57600080fd5b613854613c66565b83518152602080850151818301526040850151604083015285607f86011261387b57600080fd5b613883613c8f565b806060870188868901111561389757600080fd5b600095505b600a8610156138bb57805183526001959095019491830191830161389c565b506060840152509095945050505050565b6000806000606084860312156138e157600080fd5b8335925060208401356138f381613e73565b915060408401356bffffffffffffffffffffffff8116811461391457600080fd5b809150509250925092565b600080610180838503121561393357600080fd5b823591506139448460208501613471565b90509250929050565b600081518084526020808501945080840160005b8381101561399f5781518051600160a060020a031688528301516bffffffffffffffffffffffff168388015260409096019590820190600101613961565b509495945050505050565b600081518084526139c2816020860160208601613d46565b601f01601f19169290920160200192915050565b600083516139e8818460208801613d46565b8351908301906139fc818360208801613d46565b01949350505050565b7f416363657373436f6e74726f6c3a206163636f756e7420000000000000000000815260008351613a3d816017850160208801613d46565b7f206973206d697373696e6720726f6c65200000000000000000000000000000006017918401918201528351613a7a816028840160208801613d46565b01602801949350505050565b6000600160a060020a03808716835280861660208401525083604083015260806060830152613ab860808301846139aa565b9695505050505050565b602081526000611528602083018461394d565b6101408101818360005b600a811015613afe578151835260209283019290910190600101613adf565b50505092915050565b6020808252825182820181905260009190848201906040850190845b81811015613b3f57835183529284019291840191600101613b23565b50909695505050505050565b60208152600061152860208301846139aa565b60208082526032908201527f4552433732313a207472616e7366657220746f206e6f6e20455243373231526560408201527f63656976657220696d706c656d656e7465720000000000000000000000000000606082015260800190565b6020808252818101527f4f776e61626c653a2063616c6c6572206973206e6f7420746865206f776e6572604082015260600190565b60208082526031908201527f4552433732313a207472616e736665722063616c6c6572206973206e6f74206f60408201527f776e6572206e6f7220617070726f766564000000000000000000000000000000606082015260800190565b82815260406020820152600061270b604083018461394d565b6040516080810167ffffffffffffffff81118282101715613c8957613c89613e5a565b60405290565b604051610140810167ffffffffffffffff81118282101715613c8957613c89613e5a565b604051601f8201601f1916810167ffffffffffffffff81118282101715613cdc57613cdc613e5a565b604052919050565b60008219821115613cf757613cf7613df6565b500190565b600082613d0b57613d0b613e0f565b500490565b6000816000190483118215151615613d2a57613d2a613df6565b500290565b600082821015613d4157613d41613df6565b500390565b60005b83811015613d61578181015183820152602001613d49565b838111156109d75750506000910152565b600081613d8157613d81613df6565b506000190190565b600281046001821680613d9d57607f821691505b60208210811415613dc15760e060020a634e487b7102600052602260045260246000fd5b50919050565b6000600019821415613ddb57613ddb613df6565b5060010190565b600082613df157613df1613e0f565b500690565b60e060020a634e487b7102600052601160045260246000fd5b60e060020a634e487b7102600052601260045260246000fd5b60e060020a634e487b7102600052603160045260246000fd5b60e060020a634e487b7102600052603260045260246000fd5b60e060020a634e487b7102600052604160045260246000fd5b600160a060020a0381168114611aa357600080fd5b8015158114611aa357600080fd5b600160e060020a031981168114611aa357600080fdfea26469706673582212203bfe3ac03d8e1b7ea90ac2849f8c685080133611e33fadc97952916ae04b927e64736f6c63430008060033",
  "immutableReferences": {},
  "source": "//SPDX-License-Identifier: MIT\npragma solidity ^0.8.0;\n\nimport \"@openzeppelin/contracts/token/ERC721/ERC721.sol\";\nimport \"@openzeppelin/contracts/access/Ownable.sol\";\nimport \"@openzeppelin/contracts/access/AccessControlEnumerable.sol\";\nimport \"@openzeppelin/contracts/utils/Counters.sol\";\nimport \"./rarible/royalties/contracts/impl/RoyaltiesV2Impl.sol\";\nimport \"./rarible/royalties/contracts/LibPart.sol\";\nimport \"./rarible/royalties/contracts/LibRoyaltiesV2.sol\";\n\nimport \"./Equipment.sol\";\n\ncontract Characters is ERC721, AccessControlEnumerable, Ownable, RoyaltiesV2Impl {\n\n    using Counters for Counters.Counter;\n    Counters.Counter private _tokenIdTracker;\n    \n    //Adds support for OpenSea\n    bytes4 private constant _INTERFACE_ID_ERC2981 = 0x2a55205a;\n\n    //Roles of monter and burner\n    bytes32 public constant MINTER_ROLE = keccak256(\"MINTER_ROLE\");\n    bytes32 public constant BURNER_ROLE = keccak256(\"BURNER_ROLE\");\n\n    Equipment internal _gearNFT;      //Address of equipement NFT SC\n\n    //Stats of players and enemies\n    //Stats of players and enemies\n    struct charData {\n        uint256 class;\t        //Internal class 0 for player, index of enemies\n        uint256 level;      \t//By default is 0. Evolvable NFTs may upgrade this level\n        uint256[10] stats;      //0-Health 1-Vitality 2-Attack 3-Defense 4-Mastery \n                                //5-Speed 6-Luck 7-Faith 8-reserved 9-reserved\n        uint256[11] gear;       //0-Head 1-Neck 2-Chest 3-Belt 4-Legs 5-Feet 6-Arms \n                                //7-RHand (weapon) 8-LHand(complement) 9-Finger 10-Mount\n                                //NOTE: slot #0 in the Equipment SC means wildcard\n                                //That means that what is in gear[n] matches slot n+1 in Equipment struct\n                                //NOTE: Value 0 in any position means empty.\n    }\n\n    //Used by _beforeTokenTransfer to catch the after minting\n    charData private statsToMint;\n\n\n    //Mapping from NFT to struct\n    mapping(uint256 => charData) private values;\n\n    // Mapping from owner address to token ID. It is used to quickly get all NFTs off an address\n    mapping(address => uint256[]) private _tokensByOwner;\n\n    //Generic random counter, used to add a bit more of entropy\n    uint randomNonce=0;\n\n    constructor() ERC721(\"Chains of Glory Characters\", \"CGC\")  {\n        _setupRole(DEFAULT_ADMIN_ROLE, _msgSender());\n\n        _setupRole(MINTER_ROLE, _msgSender());\n        _setupRole(BURNER_ROLE, _msgSender());\n    }\n\n    function mint(address _to, charData memory data) public {\n        require(hasRole(MINTER_ROLE, _msgSender()), \"Exception: must have minter role to mint\");\n        require(gearExists(data.gear), \"Exception: some gear used does not exists in mint\");\n        require(ownAllGear(_to, data.gear), \"Exception: player does not own all gear in mint\");\n        require(gearSlotOk(data.gear), \"Exception: some gear is not in the apropriate slot in mint\");\n        require(!alreadyEquiped(_to, data.gear), \"Exception: some gear is already equiped in other player in mint\");\n        \n        //Stores the struct to assign when mint os ok\n        statsToMint=data;\n        super._mint(_to, _tokenIdTracker.current()); \n    }\n\n    //Equip al gear pased\n    function equip(uint256 player, uint256[11] memory gear) public {\n        require(ownerOf(player) == _msgSender(), \"Exception: must be owner of the player to equip\");\n        require(gearExists(gear), \"Exception: some gear used does not exists in equip\");\n        require(ownAllGear(ownerOf(player), gear), \"Exception: player does not own all gear in equip\");\n        require(gearSlotOk(gear), \"Exception: some gear is not in the apropriate slot in equip\");\n        require(!alreadyEquiped(ownerOf(player), gear), \"Exception: some gear is already equiped in other player in equip\");\n        \n        //Stores the struct to assign when mint os ok\n        values[player].gear=gear;\n    }\n    \n    function transferFrom(\n        address from,\n        address to,\n        uint256 tokenId\n    ) public virtual override {\n        require(!hasEquipment(tokenId), \"Exception: cannot transfer an player wearing any equipment\");\n\n        super.transferFrom(from, to, tokenId);\n    }\n\n    function _beforeTokenTransfer(address from, address to, uint256 tokenId) internal virtual override(ERC721) {\n        if(from==address(0)) {\n            //Minting ok, creates struct of stats\n            values[_tokenIdTracker.current()] = statsToMint;\n            _tokenIdTracker.increment();\n\n            //Updates the _tokensByOwner mapping            \n            _tokensByOwner[to].push(tokenId);\n        } else if(to==address(0)) {\n            //Burning\n\n            //Updates the _tokensByOwner mapping\n            deleteTokenId(from, tokenId);\n        } else {\n            //Normal transfer\n\n            //Updates the _tokensByOwner mapping\n            _tokensByOwner[to].push(tokenId);\n            deleteTokenId(from, tokenId);\n        }\n    }\n\n    //Returns the array of NFTs owned by an address\n    function getCharacters(address owner) public view returns (uint256[] memory) {\n        return _tokensByOwner[owner];\n    }\n\n    //Returns the single stats of the PJ (without applying any equipement)\n    function singleStats(uint256 idPJ) public view returns(uint256[10] memory) {\n        return values[idPJ].stats;\n    }\n\n    //Returns the actual stats of the player calculating all the equped gear\n    function calculatedStats(uint256 idPJ) public view returns(uint256[10] memory) {\n        uint256[10] memory single = values[idPJ].stats;\n        for(uint i=0; i<values[idPJ].gear.length; i++) {\n            if(values[idPJ].gear[i]!=0) {\n                //Add stats from gear NFT\n                Equipment.gearStats memory gear = _gearNFT.singleStats(values[idPJ].gear[i]);\n                for(uint j=0; j<single.length; j++) {\n                    single[j]+=gear.stats[j];\n                }\n            }\n        }\n        return single;\n    }\n\n    function _baseURI() internal view virtual override returns (string memory) {\n        return \"https://exampledomain/metadata/\";\n    }\n\n    function setRoyalties(uint256 _tokenId, address payable _royaltiesReceipientAddress, uint96 _percentageBasisPoints) public onlyOwner {\n        LibPart.Part[] memory _royalties = new LibPart.Part[](1);\n        _royalties[0].value = _percentageBasisPoints;\n        _royalties[0].account = _royaltiesReceipientAddress;\n        _saveRoyalties(_tokenId, _royalties);\n    }\n\n    function royaltyInfo(uint256 _tokenId, uint256 _salePrice ) external view returns ( address receiver, uint256 royaltyAmount) {\n        LibPart.Part[] memory _royalties = royalties[_tokenId];\n        if(_royalties.length > 0) {\n            return(_royalties[0].account, (_salePrice * _royalties[0].value)/10000);\n        }\n        return (address(0), 0);\n    }\n\n    function supportsInterface(bytes4 interfaceId) public view virtual override(ERC721, AccessControlEnumerable) returns (bool) {\n        if (interfaceId == LibRoyaltiesV2._INTERFACE_ID_ROYALTIES) {\n            return true;\n        }\n\n        if(interfaceId == _INTERFACE_ID_ERC2981) {\n            return true;\n        }\n\n        return super.supportsInterface(interfaceId);\n    }\n\n    //Pseudo random. I think is enough for the game\n    function randMod(uint _modulus) internal returns(uint) {\n        randomNonce++; \n        return uint(keccak256(abi.encodePacked(block.timestamp, msg.sender, randomNonce))) % _modulus;\n    }\n\n    //************************************************************\n    // ARRAY functions \n    //************************************************************\n    function positionOf(address owner, uint256 tokenId) public view returns (bool, uint) {\n        for(uint i=0; i<_tokensByOwner[owner].length; i++) {\n            if(_tokensByOwner[owner][i]==tokenId)\n                return (true, i);\n        }\n        return (false, 0);\n    }\n\n    function deleteTokenId(address owner, uint256 tokenId) internal {\n        //Updates the _tokensByOwner mapping\n        (bool found, uint pos)=positionOf(owner, tokenId);\n        if(found) {\n            _tokensByOwner[owner][pos]= _tokensByOwner[owner][ _tokensByOwner[owner].length-1];\n            _tokensByOwner[owner].pop();\n        }\n    }\n\n    //Equipment Token Address\n    function setEquipmentAddress(address equipment) public onlyOwner {\n        _gearNFT=Equipment(equipment);\n    }\n\n    //Test that all gear passed exists \n    function gearExists(uint256[11] memory gear) internal view returns (bool) {\n        for(uint i=0; i<gear.length; i++) {            \n            if(!_gearNFT.exists(gear[i]))\n                return false;\n        }\n        return true;\n    }\n\n    //Test that all gear passed in the data is owned by _to     \n    function ownAllGear(address owner, uint256[11] memory gear) internal view returns (bool) {\n        for(uint i=0; i<gear.length; i++) {\n            \n            if(!_gearNFT.exists(gear[i]))\n                return false;\n\n            if(gear[i]!=0) { //gear=0 means empty\n                //Test that _to is the owner\n                if(_gearNFT.ownerOf(gear[i])!=owner) {\n                    return false;\n                }\n            }\n        }\n        return true;\n    }\n\n    //Test that every gear is on the apropriate slot\n    function gearSlotOk(uint256[11] memory gear) internal view returns (bool) {\n        for(uint i=0; i<gear.length; i++) {\n            if(gear[i]!=0) { //gear=0 means empty\n                //Test that equipment is on the right slot (or is a wildcard)\n                Equipment.gearStats memory gearNFT= _gearNFT.singleStats(gear[i]);\n                if(gearNFT.slot!=0 && gearNFT.slot!=(i+1)) // (i+1) because slot 0 is for wildcards\n                    return false;\n            }\n        }\n        return true;\n    }\n\n    //Test that all gear passed in the data is already equiped    \n    function alreadyEquiped(address owner, uint256[11] memory gear) internal view returns (bool) {\n        //For all PJs in the owner\n        for(uint i=0; i<_tokensByOwner[owner].length; i++) {\n            //Get the PJ data struct\n            charData memory dataTest= values[_tokensByOwner[owner][i]];\n\n            //Check 1 by 1 the slots\n            for(uint j=0; j<gear.length; j++) {\n                if(dataTest.gear[j]==gear[j] && gear[j]!=0)\n                    return true;\n            }\n        }\n        return false;\n    }\n\n    //Test that all gear passed in the data is already equiped    \n    function alreadyEquiped(address owner, uint256 player) internal view returns (bool) {\n        \n        charData memory data=values[player];\n\n        //For all PJs in the owner, except the passed in params\n        for(uint i=0; i<_tokensByOwner[owner].length; i++) {\n            if(_tokensByOwner[owner][i] != player) {\n                //Get the PJ data struct\n                charData memory dataTest= values[_tokensByOwner[owner][i]];\n\n                //Check 1 by 1 the slots\n                for(uint j=0; j<data.gear.length; j++) {\n                    if(dataTest.gear[j]==data.gear[j] && data.gear[j]!=0)\n                        return true;\n                }\n            }\n        }\n        return false;\n    }\n\n    //Test if the PJ has some gear equiped. Remember that cannot transfer a PJ with gear equiped\n    function hasEquipment(uint256 player) internal view returns (bool){\n        charData memory data=values[player];\n        for(uint j=0; j<data.gear.length; j++) {\n            if(data.gear[j]!=0)\n                return true;\n        }\n        return false;\n    }\n    \n}\n",
  "sourcePath": "/Users/n65598/Development/Blockchain/ChainsOfGlory/contracts/Characters.sol",
  "compiler": {
    "name": "solc",
    "version": "0.8.6+commit.11564f7e.Emscripten.clang"
  },
  "schemaVersion": "3.4.3",
  "updatedAt": "2021-11-22T10:34:43.129Z",
  "devdoc": {
    "kind": "dev",
    "methods": {
      "approve(address,uint256)": {
        "details": "See {IERC721-approve}."
      },
      "balanceOf(address)": {
        "details": "See {IERC721-balanceOf}."
      },
      "getApproved(uint256)": {
        "details": "See {IERC721-getApproved}."
      },
      "getRoleAdmin(bytes32)": {
        "details": "Returns the admin role that controls `role`. See {grantRole} and {revokeRole}. To change a role's admin, use {_setRoleAdmin}."
      },
      "getRoleMember(bytes32,uint256)": {
        "details": "Returns one of the accounts that have `role`. `index` must be a value between 0 and {getRoleMemberCount}, non-inclusive. Role bearers are not sorted in any particular way, and their ordering may change at any point. WARNING: When using {getRoleMember} and {getRoleMemberCount}, make sure you perform all queries on the same block. See the following https://forum.openzeppelin.com/t/iterating-over-elements-on-enumerableset-in-openzeppelin-contracts/2296[forum post] for more information."
      },
      "getRoleMemberCount(bytes32)": {
        "details": "Returns the number of accounts that have `role`. Can be used together with {getRoleMember} to enumerate all bearers of a role."
      },
      "grantRole(bytes32,address)": {
        "details": "Overload {grantRole} to track enumerable memberships"
      },
      "hasRole(bytes32,address)": {
        "details": "Returns `true` if `account` has been granted `role`."
      },
      "isApprovedForAll(address,address)": {
        "details": "See {IERC721-isApprovedForAll}."
      },
      "name()": {
        "details": "See {IERC721Metadata-name}."
      },
      "owner()": {
        "details": "Returns the address of the current owner."
      },
      "ownerOf(uint256)": {
        "details": "See {IERC721-ownerOf}."
      },
      "renounceOwnership()": {
        "details": "Leaves the contract without owner. It will not be possible to call `onlyOwner` functions anymore. Can only be called by the current owner. NOTE: Renouncing ownership will leave the contract without an owner, thereby removing any functionality that is only available to the owner."
      },
      "renounceRole(bytes32,address)": {
        "details": "Overload {renounceRole} to track enumerable memberships"
      },
      "revokeRole(bytes32,address)": {
        "details": "Overload {revokeRole} to track enumerable memberships"
      },
      "safeTransferFrom(address,address,uint256)": {
        "details": "See {IERC721-safeTransferFrom}."
      },
      "safeTransferFrom(address,address,uint256,bytes)": {
        "details": "See {IERC721-safeTransferFrom}."
      },
      "setApprovalForAll(address,bool)": {
        "details": "See {IERC721-setApprovalForAll}."
      },
      "symbol()": {
        "details": "See {IERC721Metadata-symbol}."
      },
      "tokenURI(uint256)": {
        "details": "See {IERC721Metadata-tokenURI}."
      },
      "transferFrom(address,address,uint256)": {
        "details": "See {IERC721-transferFrom}."
      },
      "transferOwnership(address)": {
        "details": "Transfers ownership of the contract to a new account (`newOwner`). Can only be called by the current owner."
      }
    },
    "version": 1
  },
  "userdoc": {
    "kind": "user",
    "methods": {},
    "version": 1
  }
}