{
  "contractName": "Characters",
  "abi": [
    {
      "inputs": [],
      "stateMutability": "nonpayable",
      "type": "constructor"
    },
    {
      "inputs": [
        {
          "components": [
            {
              "internalType": "uint256",
              "name": "class",
              "type": "uint256"
            },
            {
              "internalType": "uint256",
              "name": "level",
              "type": "uint256"
            },
            {
              "internalType": "uint256[10]",
              "name": "stats",
              "type": "uint256[10]"
            },
            {
              "internalType": "uint256[10]",
              "name": "gear",
              "type": "uint256[10]"
            }
          ],
          "internalType": "struct Characters.Char_Stats",
          "name": "stats",
          "type": "tuple"
        }
      ],
      "name": "mint",
      "outputs": [],
      "stateMutability": "nonpayable",
      "type": "function"
    },
    {
      "inputs": [],
      "name": "postMint",
      "outputs": [],
      "stateMutability": "nonpayable",
      "type": "function"
    },
    {
      "inputs": [],
      "name": "changeArray",
      "outputs": [],
      "stateMutability": "nonpayable",
      "type": "function"
    },
    {
      "inputs": [],
      "name": "addToArray",
      "outputs": [],
      "stateMutability": "nonpayable",
      "type": "function"
    },
    {
      "inputs": [
        {
          "internalType": "uint256",
          "name": "pos",
          "type": "uint256"
        }
      ],
      "name": "removeFromArray",
      "outputs": [],
      "stateMutability": "nonpayable",
      "type": "function"
    },
    {
      "inputs": [],
      "name": "GetStats",
      "outputs": [
        {
          "components": [
            {
              "internalType": "uint256",
              "name": "class",
              "type": "uint256"
            },
            {
              "internalType": "uint256",
              "name": "level",
              "type": "uint256"
            },
            {
              "internalType": "uint256[10]",
              "name": "stats",
              "type": "uint256[10]"
            },
            {
              "internalType": "uint256[10]",
              "name": "gear",
              "type": "uint256[10]"
            }
          ],
          "internalType": "struct Characters.Char_Stats",
          "name": "",
          "type": "tuple"
        }
      ],
      "stateMutability": "view",
      "type": "function"
    },
    {
      "inputs": [],
      "name": "GetArray",
      "outputs": [
        {
          "internalType": "uint256[]",
          "name": "",
          "type": "uint256[]"
        }
      ],
      "stateMutability": "view",
      "type": "function"
    }
  ],
  "bytecode": "0x608060405234801561001057600080fd5b50610817806100206000396000f3fe608060405234801561001057600080fd5b506004361061009a576000357c01000000000000000000000000000000000000000000000000000000009004806399dda9781161007857806399dda978146100dc5780639cc9ac01146100ef578063d34e768d146100f7578063eb56ea901461011f57600080fd5b8063072982031461009f5780632b723b7f146100bd57806362b8df6a146100c7575b600080fd5b6100a7610132565b6040516100b4919061072a565b60405180910390f35b6100c56101c8565b005b6100cf6102b3565b6040516100b491906106e6565b6100c56100ea36600461062f565b610314565b6100c561035e565b6100c5336000908152602c602090815260408220805460018101825590835291206017910155565b6100c561012d3660046106a4565b61040c565b61013a6104ab565b604080516080810182526016805482526017546020830152825161014081018085529293919291840191601890600a9082845b81548152602001906001019080831161016d5750505091835250506040805161014081019182905260209092019190600c840190600a9082845b8154815260200190600101908083116101a757505050505081525050905090565b60408051600580825260c082019092526000916020820160a080368337019050509050600881600081518110610200576102006107af565b602002602001018181525050600781600181518110610221576102216107af565b602002602001018181525050600681600281518110610242576102426107af565b602002602001018181525050600581600381518110610263576102636107af565b602002602001018181525050600381600481518110610284576102846107af565b602090810291909101810191909152336000908152602c82526040902082516102af928401906104de565b5050565b336000908152602c602090815260409182902080548351818402810184019094528084526060939283018282801561030a57602002820191906000526020600020905b8154815260200190600101908083116102f6575b5050505050905090565b805160009081556020820151600155604082015182919061033990600290600a610529565b50606082015161034f90600c830190600a610529565b5090505061035b61035e565b50565b60008054601690815560015460175561037b60186002600a610556565b5061038e600c828101908401600a610556565b5050604080516003808252608082019092526000925090602082016060803683370190505090506003816000815181106103ca576103ca6107af565b6020026020010181815250506007816001815181106103eb576103eb6107af565b602002602001018181525050600b81600281518110610284576102846107af565b336000908152602c6020526040902080546104299060019061076e565b81548110610439576104396107af565b6000918252602080832090910154338352602c9091526040909120805483908110610466576104666107af565b6000918252602080832090910192909255338152602c9091526040902080548061049257610492610796565b6001900381819060005260206000200160009055905550565b604051806080016040528060008152602001600081526020016104cc610581565b81526020016104d9610581565b905290565b828054828255906000526020600020908101928215610519579160200282015b828111156105195782518255916020019190600101906104fe565b506105259291506105a0565b5090565b82600a810192821561051957916020028201828111156105195782518255916020019190600101906104fe565b82600a8101928215610519579182015b82811115610519578254825591600101919060010190610566565b604051806101400160405280600a906020820280368337509192915050565b5b8082111561052557600081556001016105a1565b600082601f8301126105c657600080fd5b60405161014080820182811067ffffffffffffffff821117156105eb576105eb6107c8565b60405281848281018710156105ff57600080fd5b600092505b600a83101561062457803582526001929092019160209182019101610604565b509195945050505050565b60006102c0828403121561064257600080fd5b6040516080810181811067ffffffffffffffff82111715610665576106656107c8565b8060405250823581526020830135602082015261068584604085016105b5565b60408201526106988461018085016105b5565b60608201529392505050565b6000602082840312156106b657600080fd5b5035919050565b8060005b600a8110156106e05781518452602093840193909101906001016106c1565b50505050565b6020808252825182820181905260009190848201906040850190845b8181101561071e57835183529284019291840191600101610702565b50909695505050505050565b60006102c0820190508251825260208301516020830152604083015161075360408401826106bd565b5060608301516107676101808401826106bd565b5092915050565b6000828210156107915760e060020a634e487b7102600052601160045260246000fd5b500390565b60e060020a634e487b7102600052603160045260246000fd5b60e060020a634e487b7102600052603260045260246000fd5b60e060020a634e487b7102600052604160045260246000fdfea2646970667358221220f4f32d97bbfe49e985bae976ab32a5ab89356e3913b1d1d64922c00ff4bfb9a764736f6c63430008060033",
  "immutableReferences": {},
  "source": "//SPDX-License-Identifier: MIT\r\npragma solidity ^0.8.0;\r\n\r\ncontract Characters  {\r\n    //Stats of players and enemies\r\n    struct Char_Stats {\r\n        uint256 class;\t        //Internal class 0 for player, index of enemies\r\n        uint256 level;      \t//By default is 0. Evolvable NFTs may upgrade this level\r\n        uint256[10] stats;      //0-Health 1-Vitality 2-Attack 3-Defense 4-Mastery 5-Speed 6-Luck 7-Faith 8-reserved 9-reserved\r\n        uint256[10] gear;       //0-Head 1-Neck 2-Chest 3-Belt 4-Legs 5-Feet 6-Arms 7-RHand (weapon) 8-LHand(complement) 9-Finger 10-Mount\r\n    }\r\n\r\n    //Used by _beforeTokenTransfer to catch the after minting\r\n    Char_Stats private statsToMint;\r\n    \r\n    Char_Stats private statsFinal;\r\n    \r\n    mapping (address => uint256[]) gear;\r\n    \r\n    constructor()   {    }\r\n    \r\n    function mint(Char_Stats memory stats) public {\r\n        statsToMint = stats;\r\n        postMint();\r\n    }\r\n    \r\n    function postMint() public {\r\n        statsFinal = statsToMint;\r\n        uint[] memory myArray = new uint[](3);\r\n        myArray[0]=3; \r\n        myArray[1]=7; \r\n        myArray[2]=11; \r\n        gear[msg.sender]=myArray;\r\n    }\r\n    \r\n    function changeArray() public {\r\n        uint[] memory myArray = new uint[](5);\r\n        myArray[0]=8; \r\n        myArray[1]=7; \r\n        myArray[2]=6; \r\n        myArray[3]=5; \r\n        myArray[4]=3; \r\n        gear[msg.sender]=myArray;\r\n    }\r\n    \r\n    function addToArray() public {\r\n        gear[msg.sender].push(23);\r\n    }\r\n    \r\n    function removeFromArray(uint256 pos) public {\r\n        gear[msg.sender][pos]=gear[msg.sender][gear[msg.sender].length-1];\r\n        gear[msg.sender].pop();\r\n    }\r\n    \r\n    \r\n    function GetStats() public view returns (Char_Stats memory){\r\n        return statsFinal;\r\n    }\r\n    \r\n    function GetArray() public view returns (uint256[] memory){\r\n        return gear[msg.sender];\r\n    }\r\n}",
  "sourcePath": "/home/javi/ChainsOfGlory/contracts/Examples/TestBench.sol",
  "compiler": {
    "name": "solc",
    "version": "0.8.6+commit.11564f7e.Emscripten.clang"
  },
  "schemaVersion": "3.4.3",
  "updatedAt": "2021-11-21T18:32:42.805Z",
  "devdoc": {
    "kind": "dev",
    "methods": {},
    "version": 1
  },
  "userdoc": {
    "kind": "user",
    "methods": {},
    "version": 1
  }
}