{
  "contractName": "Characters",
  "abi": [
    {
      "inputs": [],
      "stateMutability": "nonpayable",
      "type": "constructor"
    },
    {
      "anonymous": false,
      "inputs": [
        {
          "indexed": true,
          "internalType": "address",
          "name": "owner",
          "type": "address"
        },
        {
          "indexed": true,
          "internalType": "address",
          "name": "approved",
          "type": "address"
        },
        {
          "indexed": true,
          "internalType": "uint256",
          "name": "tokenId",
          "type": "uint256"
        }
      ],
      "name": "Approval",
      "type": "event"
    },
    {
      "anonymous": false,
      "inputs": [
        {
          "indexed": true,
          "internalType": "address",
          "name": "owner",
          "type": "address"
        },
        {
          "indexed": true,
          "internalType": "address",
          "name": "operator",
          "type": "address"
        },
        {
          "indexed": false,
          "internalType": "bool",
          "name": "approved",
          "type": "bool"
        }
      ],
      "name": "ApprovalForAll",
      "type": "event"
    },
    {
      "anonymous": false,
      "inputs": [
        {
          "indexed": true,
          "internalType": "address",
          "name": "previousOwner",
          "type": "address"
        },
        {
          "indexed": true,
          "internalType": "address",
          "name": "newOwner",
          "type": "address"
        }
      ],
      "name": "OwnershipTransferred",
      "type": "event"
    },
    {
      "anonymous": false,
      "inputs": [
        {
          "indexed": true,
          "internalType": "bytes32",
          "name": "role",
          "type": "bytes32"
        },
        {
          "indexed": true,
          "internalType": "bytes32",
          "name": "previousAdminRole",
          "type": "bytes32"
        },
        {
          "indexed": true,
          "internalType": "bytes32",
          "name": "newAdminRole",
          "type": "bytes32"
        }
      ],
      "name": "RoleAdminChanged",
      "type": "event"
    },
    {
      "anonymous": false,
      "inputs": [
        {
          "indexed": true,
          "internalType": "bytes32",
          "name": "role",
          "type": "bytes32"
        },
        {
          "indexed": true,
          "internalType": "address",
          "name": "account",
          "type": "address"
        },
        {
          "indexed": true,
          "internalType": "address",
          "name": "sender",
          "type": "address"
        }
      ],
      "name": "RoleGranted",
      "type": "event"
    },
    {
      "anonymous": false,
      "inputs": [
        {
          "indexed": true,
          "internalType": "bytes32",
          "name": "role",
          "type": "bytes32"
        },
        {
          "indexed": true,
          "internalType": "address",
          "name": "account",
          "type": "address"
        },
        {
          "indexed": true,
          "internalType": "address",
          "name": "sender",
          "type": "address"
        }
      ],
      "name": "RoleRevoked",
      "type": "event"
    },
    {
      "anonymous": false,
      "inputs": [
        {
          "indexed": false,
          "internalType": "uint256",
          "name": "tokenId",
          "type": "uint256"
        },
        {
          "components": [
            {
              "internalType": "address payable",
              "name": "account",
              "type": "address"
            },
            {
              "internalType": "uint96",
              "name": "value",
              "type": "uint96"
            }
          ],
          "indexed": false,
          "internalType": "struct LibPart.Part[]",
          "name": "royalties",
          "type": "tuple[]"
        }
      ],
      "name": "RoyaltiesSet",
      "type": "event"
    },
    {
      "anonymous": false,
      "inputs": [
        {
          "indexed": true,
          "internalType": "address",
          "name": "from",
          "type": "address"
        },
        {
          "indexed": true,
          "internalType": "address",
          "name": "to",
          "type": "address"
        },
        {
          "indexed": true,
          "internalType": "uint256",
          "name": "tokenId",
          "type": "uint256"
        }
      ],
      "name": "Transfer",
      "type": "event"
    },
    {
      "inputs": [],
      "name": "BURNER_ROLE",
      "outputs": [
        {
          "internalType": "bytes32",
          "name": "",
          "type": "bytes32"
        }
      ],
      "stateMutability": "view",
      "type": "function"
    },
    {
      "inputs": [],
      "name": "DEFAULT_ADMIN_ROLE",
      "outputs": [
        {
          "internalType": "bytes32",
          "name": "",
          "type": "bytes32"
        }
      ],
      "stateMutability": "view",
      "type": "function"
    },
    {
      "inputs": [],
      "name": "MINTER_ROLE",
      "outputs": [
        {
          "internalType": "bytes32",
          "name": "",
          "type": "bytes32"
        }
      ],
      "stateMutability": "view",
      "type": "function"
    },
    {
      "inputs": [
        {
          "internalType": "address",
          "name": "to",
          "type": "address"
        },
        {
          "internalType": "uint256",
          "name": "tokenId",
          "type": "uint256"
        }
      ],
      "name": "approve",
      "outputs": [],
      "stateMutability": "nonpayable",
      "type": "function"
    },
    {
      "inputs": [
        {
          "internalType": "address",
          "name": "owner",
          "type": "address"
        }
      ],
      "name": "balanceOf",
      "outputs": [
        {
          "internalType": "uint256",
          "name": "",
          "type": "uint256"
        }
      ],
      "stateMutability": "view",
      "type": "function"
    },
    {
      "inputs": [
        {
          "internalType": "uint256",
          "name": "tokenId",
          "type": "uint256"
        }
      ],
      "name": "getApproved",
      "outputs": [
        {
          "internalType": "address",
          "name": "",
          "type": "address"
        }
      ],
      "stateMutability": "view",
      "type": "function"
    },
    {
      "inputs": [
        {
          "internalType": "uint256",
          "name": "id",
          "type": "uint256"
        }
      ],
      "name": "getRaribleV2Royalties",
      "outputs": [
        {
          "components": [
            {
              "internalType": "address payable",
              "name": "account",
              "type": "address"
            },
            {
              "internalType": "uint96",
              "name": "value",
              "type": "uint96"
            }
          ],
          "internalType": "struct LibPart.Part[]",
          "name": "",
          "type": "tuple[]"
        }
      ],
      "stateMutability": "view",
      "type": "function"
    },
    {
      "inputs": [
        {
          "internalType": "bytes32",
          "name": "role",
          "type": "bytes32"
        }
      ],
      "name": "getRoleAdmin",
      "outputs": [
        {
          "internalType": "bytes32",
          "name": "",
          "type": "bytes32"
        }
      ],
      "stateMutability": "view",
      "type": "function"
    },
    {
      "inputs": [
        {
          "internalType": "bytes32",
          "name": "role",
          "type": "bytes32"
        },
        {
          "internalType": "uint256",
          "name": "index",
          "type": "uint256"
        }
      ],
      "name": "getRoleMember",
      "outputs": [
        {
          "internalType": "address",
          "name": "",
          "type": "address"
        }
      ],
      "stateMutability": "view",
      "type": "function"
    },
    {
      "inputs": [
        {
          "internalType": "bytes32",
          "name": "role",
          "type": "bytes32"
        }
      ],
      "name": "getRoleMemberCount",
      "outputs": [
        {
          "internalType": "uint256",
          "name": "",
          "type": "uint256"
        }
      ],
      "stateMutability": "view",
      "type": "function"
    },
    {
      "inputs": [
        {
          "internalType": "bytes32",
          "name": "role",
          "type": "bytes32"
        },
        {
          "internalType": "address",
          "name": "account",
          "type": "address"
        }
      ],
      "name": "grantRole",
      "outputs": [],
      "stateMutability": "nonpayable",
      "type": "function"
    },
    {
      "inputs": [
        {
          "internalType": "bytes32",
          "name": "role",
          "type": "bytes32"
        },
        {
          "internalType": "address",
          "name": "account",
          "type": "address"
        }
      ],
      "name": "hasRole",
      "outputs": [
        {
          "internalType": "bool",
          "name": "",
          "type": "bool"
        }
      ],
      "stateMutability": "view",
      "type": "function"
    },
    {
      "inputs": [
        {
          "internalType": "address",
          "name": "owner",
          "type": "address"
        },
        {
          "internalType": "address",
          "name": "operator",
          "type": "address"
        }
      ],
      "name": "isApprovedForAll",
      "outputs": [
        {
          "internalType": "bool",
          "name": "",
          "type": "bool"
        }
      ],
      "stateMutability": "view",
      "type": "function"
    },
    {
      "inputs": [],
      "name": "name",
      "outputs": [
        {
          "internalType": "string",
          "name": "",
          "type": "string"
        }
      ],
      "stateMutability": "view",
      "type": "function"
    },
    {
      "inputs": [],
      "name": "owner",
      "outputs": [
        {
          "internalType": "address",
          "name": "",
          "type": "address"
        }
      ],
      "stateMutability": "view",
      "type": "function"
    },
    {
      "inputs": [
        {
          "internalType": "uint256",
          "name": "tokenId",
          "type": "uint256"
        }
      ],
      "name": "ownerOf",
      "outputs": [
        {
          "internalType": "address",
          "name": "",
          "type": "address"
        }
      ],
      "stateMutability": "view",
      "type": "function"
    },
    {
      "inputs": [],
      "name": "renounceOwnership",
      "outputs": [],
      "stateMutability": "nonpayable",
      "type": "function"
    },
    {
      "inputs": [
        {
          "internalType": "bytes32",
          "name": "role",
          "type": "bytes32"
        },
        {
          "internalType": "address",
          "name": "account",
          "type": "address"
        }
      ],
      "name": "renounceRole",
      "outputs": [],
      "stateMutability": "nonpayable",
      "type": "function"
    },
    {
      "inputs": [
        {
          "internalType": "bytes32",
          "name": "role",
          "type": "bytes32"
        },
        {
          "internalType": "address",
          "name": "account",
          "type": "address"
        }
      ],
      "name": "revokeRole",
      "outputs": [],
      "stateMutability": "nonpayable",
      "type": "function"
    },
    {
      "inputs": [
        {
          "internalType": "uint256",
          "name": "",
          "type": "uint256"
        },
        {
          "internalType": "uint256",
          "name": "",
          "type": "uint256"
        }
      ],
      "name": "royalties",
      "outputs": [
        {
          "internalType": "address payable",
          "name": "account",
          "type": "address"
        },
        {
          "internalType": "uint96",
          "name": "value",
          "type": "uint96"
        }
      ],
      "stateMutability": "view",
      "type": "function"
    },
    {
      "inputs": [
        {
          "internalType": "address",
          "name": "from",
          "type": "address"
        },
        {
          "internalType": "address",
          "name": "to",
          "type": "address"
        },
        {
          "internalType": "uint256",
          "name": "tokenId",
          "type": "uint256"
        }
      ],
      "name": "safeTransferFrom",
      "outputs": [],
      "stateMutability": "nonpayable",
      "type": "function"
    },
    {
      "inputs": [
        {
          "internalType": "address",
          "name": "from",
          "type": "address"
        },
        {
          "internalType": "address",
          "name": "to",
          "type": "address"
        },
        {
          "internalType": "uint256",
          "name": "tokenId",
          "type": "uint256"
        },
        {
          "internalType": "bytes",
          "name": "_data",
          "type": "bytes"
        }
      ],
      "name": "safeTransferFrom",
      "outputs": [],
      "stateMutability": "nonpayable",
      "type": "function"
    },
    {
      "inputs": [
        {
          "internalType": "address",
          "name": "operator",
          "type": "address"
        },
        {
          "internalType": "bool",
          "name": "approved",
          "type": "bool"
        }
      ],
      "name": "setApprovalForAll",
      "outputs": [],
      "stateMutability": "nonpayable",
      "type": "function"
    },
    {
      "inputs": [],
      "name": "symbol",
      "outputs": [
        {
          "internalType": "string",
          "name": "",
          "type": "string"
        }
      ],
      "stateMutability": "view",
      "type": "function"
    },
    {
      "inputs": [
        {
          "internalType": "uint256",
          "name": "tokenId",
          "type": "uint256"
        }
      ],
      "name": "tokenURI",
      "outputs": [
        {
          "internalType": "string",
          "name": "",
          "type": "string"
        }
      ],
      "stateMutability": "view",
      "type": "function"
    },
    {
      "inputs": [
        {
          "internalType": "address",
          "name": "from",
          "type": "address"
        },
        {
          "internalType": "address",
          "name": "to",
          "type": "address"
        },
        {
          "internalType": "uint256",
          "name": "tokenId",
          "type": "uint256"
        }
      ],
      "name": "transferFrom",
      "outputs": [],
      "stateMutability": "nonpayable",
      "type": "function"
    },
    {
      "inputs": [
        {
          "internalType": "address",
          "name": "newOwner",
          "type": "address"
        }
      ],
      "name": "transferOwnership",
      "outputs": [],
      "stateMutability": "nonpayable",
      "type": "function"
    },
    {
      "inputs": [
        {
          "internalType": "address",
          "name": "_to",
          "type": "address"
        },
        {
          "components": [
            {
              "internalType": "uint256",
              "name": "class",
              "type": "uint256"
            },
            {
              "internalType": "uint256",
              "name": "level",
              "type": "uint256"
            },
            {
              "internalType": "uint256",
              "name": "stat01",
              "type": "uint256"
            },
            {
              "internalType": "uint256",
              "name": "stat02",
              "type": "uint256"
            },
            {
              "internalType": "uint256",
              "name": "stat03",
              "type": "uint256"
            },
            {
              "internalType": "uint256",
              "name": "stat04",
              "type": "uint256"
            },
            {
              "internalType": "uint256",
              "name": "stat05",
              "type": "uint256"
            },
            {
              "internalType": "uint256",
              "name": "stat06",
              "type": "uint256"
            },
            {
              "internalType": "uint256",
              "name": "stat07",
              "type": "uint256"
            },
            {
              "internalType": "uint256",
              "name": "stat08",
              "type": "uint256"
            }
          ],
          "internalType": "struct Characters.Char_Stats",
          "name": "stats",
          "type": "tuple"
        }
      ],
      "name": "mint",
      "outputs": [],
      "stateMutability": "nonpayable",
      "type": "function"
    },
    {
      "inputs": [
        {
          "internalType": "uint256",
          "name": "_tokenId",
          "type": "uint256"
        },
        {
          "internalType": "address payable",
          "name": "_royaltiesReceipientAddress",
          "type": "address"
        },
        {
          "internalType": "uint96",
          "name": "_percentageBasisPoints",
          "type": "uint96"
        }
      ],
      "name": "setRoyalties",
      "outputs": [],
      "stateMutability": "nonpayable",
      "type": "function"
    },
    {
      "inputs": [
        {
          "internalType": "uint256",
          "name": "_tokenId",
          "type": "uint256"
        },
        {
          "internalType": "uint256",
          "name": "_salePrice",
          "type": "uint256"
        }
      ],
      "name": "royaltyInfo",
      "outputs": [
        {
          "internalType": "address",
          "name": "receiver",
          "type": "address"
        },
        {
          "internalType": "uint256",
          "name": "royaltyAmount",
          "type": "uint256"
        }
      ],
      "stateMutability": "view",
      "type": "function"
    },
    {
      "inputs": [
        {
          "internalType": "bytes4",
          "name": "interfaceId",
          "type": "bytes4"
        }
      ],
      "name": "supportsInterface",
      "outputs": [
        {
          "internalType": "bool",
          "name": "",
          "type": "bool"
        }
      ],
      "stateMutability": "view",
      "type": "function"
    }
  ],
  "bytecode": "0x608060405260006018553480156200001657600080fd5b50604080518082018252601a81527f436861696e73206f6620476c6f7279204368617261637465727300000000000060208083019182528351808501909452600384527f434743000000000000000000000000000000000000000000000000000000000090840152815191929162000091916000916200038c565b508051620000a79060019060208401906200038c565b505050620000d6620000c762000174640100000000026401000000009004565b64010000000062000178810204565b620000fe6000620000ef64010000000062000174810204565b640100000000620001ca810204565b620001367f9f2df0fed2c77648de5860a4cc508cd0818c85b8b8a1ab4ceeef8d981c8956a6620000ef64010000000062000174810204565b6200016e7f3c11d16cbaffd01df69ce1c404f6340ee057498f5f00246190ea54220576a848620000ef64010000000062000174810204565b62000488565b3390565b60088054600160a060020a03838116600160a060020a0319831681179093556040519116919082907f8be0079c531659141344cd1fd0a4f28419497f9722a3daafe3b4186f6b6457e090600090a35050565b620001e482826401000000006200117d6200021182021704565b60008281526007602052604090206200020c9082640100000000620011876200022a82021704565b505050565b62000226828264010000000062000253810204565b5050565b60006200024a83600160a060020a038416640100000000620002f1810204565b90505b92915050565b62000268828264010000000062000349810204565b62000226576000828152600660209081526040808320600160a060020a03851684529091529020805460ff19166001179055620002ad64010000000062000174810204565b600160a060020a031681600160a060020a0316837f2f8788117e7eff1d82e926ec794901d17c78024a50270940304540a733656f0d60405160405180910390a45050565b600062000308838364010000000062000374810204565b62000340575081546001818101845560008481526020808220909301849055845484825282860190935260409020919091556200024d565b5060006200024d565b6000918252600660209081526040808420600160a060020a0393909316845291905290205460ff1690565b60009081526001919091016020526040902054151590565b8280546200039a9062000432565b90600052602060002090601f016020900481019282620003be576000855562000409565b82601f10620003d957805160ff191683800117855562000409565b8280016001018555821562000409579182015b8281111562000409578251825591602001919060010190620003ec565b50620004179291506200041b565b5090565b5b808211156200041757600081556001016200041c565b6002810460018216806200044757607f821691505b6020821081141562000482577f4e487b7100000000000000000000000000000000000000000000000000000000600052602260045260246000fd5b50919050565b612d0080620004986000396000f3fe608060405234801561001057600080fd5b5060043610610202576000357c010000000000000000000000000000000000000000000000000000000090048063715018a61161012c578063b88d4fde116100bf578063d53913931161008e578063d5391393146104a0578063d547741f146104c7578063e985e9c5146104da578063f2fde38b1461051657600080fd5b8063b88d4fde14610447578063c87b56dd1461045a578063ca15c8731461046d578063cad96cca1461048057600080fd5b806391d14854116100fb57806391d148541461041157806395d89b4114610424578063a217fddf1461042c578063a22cb4651461043457600080fd5b8063715018a6146103a65780638924af74146103ae5780638da5cb5b146103ed5780639010d07c146103fe57600080fd5b8063282c51f3116101a457806336568abe1161017357806336568abe1461035a57806342842e0e1461036d5780636352211e1461038057806370a082311461039357600080fd5b8063282c51f3146102db5780632a55205a146103025780632f2ff15d146103345780633335edc11461034757600080fd5b8063095ea7b3116101e0578063095ea7b31461026f578063143094db1461028457806323b872dd14610297578063248a9ca3146102aa57600080fd5b806301ffc9a71461020757806306fdde031461022f578063081812fc14610244575b600080fd5b61021a61021536600461269d565b610529565b60405190151581526020015b60405180910390f35b6102376105ae565b60405161022691906128b2565b61025761025236600461263d565b610640565b604051600160a060020a039091168152602001610226565b61028261027d366004612611565b6106ee565b005b6102826102923660046126d7565b610826565b6102826102a5366004612429565b610911565b6102cd6102b836600461263d565b60009081526006602052604090206001015490565b604051908152602001610226565b6102cd7f3c11d16cbaffd01df69ce1c404f6340ee057498f5f00246190ea54220576a84881565b61031561031036600461267b565b610945565b60408051600160a060020a039093168352602083019190915201610226565b610282610342366004612656565b610a66565b610282610355366004612561565b610a88565b610282610368366004612656565b610b8c565b61028261037b366004612429565b610bae565b61025761038e36600461263d565b610bc9565b6102cd6103a13660046123d3565b610c57565b610282610cf4565b6103c16103bc36600461267b565b610d2d565b60408051600160a060020a0390931683526bffffffffffffffffffffffff909116602083015201610226565b600854600160a060020a0316610257565b61025761040c36600461267b565b610d8c565b61021a61041f366004612656565b610dab565b610237610dd6565b6102cd600081565b61028261044236600461252e565b610de5565b61028261045536600461246a565b610ead565b61023761046836600461263d565b610ee2565b6102cd61047b36600461263d565b610fff565b61049361048e36600461263d565b611016565b604051610226919061289f565b6102cd7f9f2df0fed2c77648de5860a4cc508cd0818c85b8b8a1ab4ceeef8d981c8956a681565b6102826104d5366004612656565b6110bb565b61021a6104e83660046123f0565b600160a060020a03918216600090815260056020908152604080832093909416825291909152205460ff1690565b6102826105243660046123d3565b6110c5565b6000600160e060020a031982167f44c74bcc00000000000000000000000000000000000000000000000000000000141561056557506001919050565b600160e060020a031982167f2a55205a00000000000000000000000000000000000000000000000000000000141561059f57506001919050565b6105a88261119c565b92915050565b6060600080546105bd90612bb5565b80601f01602080910402602001604051908101604052809291908181526020018280546105e990612bb5565b80156106365780601f1061060b57610100808354040283529160200191610636565b820191906000526020600020905b81548152906001019060200180831161061957829003601f168201915b5050505050905090565b600081815260026020526040812054600160a060020a03166106d25760405160e560020a62461bcd02815260206004820152602c60248201527f4552433732313a20617070726f76656420717565727920666f72206e6f6e657860448201527f697374656e7420746f6b656e000000000000000000000000000000000000000060648201526084015b60405180910390fd5b50600090815260046020526040902054600160a060020a031690565b60006106f982610bc9565b905080600160a060020a031683600160a060020a031614156107865760405160e560020a62461bcd02815260206004820152602160248201527f4552433732313a20617070726f76616c20746f2063757272656e74206f776e6560448201527f720000000000000000000000000000000000000000000000000000000000000060648201526084016106c9565b33600160a060020a03821614806107a257506107a281336104e8565b6108175760405160e560020a62461bcd02815260206004820152603860248201527f4552433732313a20617070726f76652063616c6c6572206973206e6f74206f7760448201527f6e6572206e6f7220617070726f76656420666f7220616c6c000000000000000060648201526084016106c9565b61082183836111da565b505050565b600854600160a060020a031633146108535760405160e560020a62461bcd0281526004016106c990612922565b604080516001808252818301909252600091816020015b604080518082019091526000808252602082015281526020019060019003908161086a57905050905081816000815181106108a7576108a7612c6d565b6020026020010151602001906bffffffffffffffffffffffff1690816bffffffffffffffffffffffff168152505082816000815181106108e9576108e9612c6d565b6020908102919091010151600160a060020a03909116905261090b8482611255565b50505050565b61091b33826113fa565b61093a5760405160e560020a62461bcd0281526004016106c990612957565b610821838383611505565b6000828152600960209081526040808320805482518185028101850190935280835284938493929190849084015b828210156109d85760008481526020908190206040805180820190915290840154600160a060020a03811682527401000000000000000000000000000000000000000090046bffffffffffffffffffffffff1681830152825260019092019101610973565b505050509050600081511115610a5657806000815181106109fb576109fb612c6d565b60200260200101516000015161271082600081518110610a1d57610a1d612c6d565b6020026020010151602001516bffffffffffffffffffffffff1686610a429190612ac8565b610a4c9190612ab4565b9250925050610a5f565b60008092509250505b9250929050565b610a7082826116f0565b60008281526007602052604090206108219082611187565b610ab27f9f2df0fed2c77648de5860a4cc508cd0818c85b8b8a1ab4ceeef8d981c8956a633610dab565b610b275760405160e560020a62461bcd02815260206004820152602860248201527f457863657074696f6e3a206d7573742068617665206d696e74657220726f6c6560448201527f20746f206d696e7400000000000000000000000000000000000000000000000060648201526084016106c9565b8051600b556020810151600c556040810151600d556060810151600e556080810151600f5560a081015160105560c081015160115560e0810151601255610100810151601355610120810151601455610b8882610b83600a5490565b611716565b5050565b610b968282611877565b60008281526007602052604090206108219082611902565b61082183838360405180602001604052806000815250610ead565b600081815260026020526040812054600160a060020a0316806105a85760405160e560020a62461bcd02815260206004820152602960248201527f4552433732313a206f776e657220717565727920666f72206e6f6e657869737460448201527f656e7420746f6b656e000000000000000000000000000000000000000000000060648201526084016106c9565b6000600160a060020a038216610cd85760405160e560020a62461bcd02815260206004820152602a60248201527f4552433732313a2062616c616e636520717565727920666f7220746865207a6560448201527f726f20616464726573730000000000000000000000000000000000000000000060648201526084016106c9565b50600160a060020a031660009081526003602052604090205490565b600854600160a060020a03163314610d215760405160e560020a62461bcd0281526004016106c990612922565b610d2b6000611917565b565b60096020528160005260406000208181548110610d4957600080fd5b600091825260209091200154600160a060020a03811692507401000000000000000000000000000000000000000090046bffffffffffffffffffffffff16905082565b6000828152600760205260408120610da49083611976565b9392505050565b6000918252600660209081526040808420600160a060020a0393909316845291905290205460ff1690565b6060600180546105bd90612bb5565b600160a060020a038216331415610e415760405160e560020a62461bcd02815260206004820152601960248201527f4552433732313a20617070726f766520746f2063616c6c65720000000000000060448201526064016106c9565b336000818152600560209081526040808320600160a060020a03871680855290835292819020805460ff191686151590811790915590519081529192917f17307eab39ab6107e8899845ad3d59bd9653f200f220920489ca2b5937696c31910160405180910390a35050565b610eb733836113fa565b610ed65760405160e560020a62461bcd0281526004016106c990612957565b61090b84848484611982565b600081815260026020526040902054606090600160a060020a0316610f725760405160e560020a62461bcd02815260206004820152602f60248201527f4552433732314d657461646174613a2055524920717565727920666f72206e6f60448201527f6e6578697374656e7420746f6b656e000000000000000000000000000000000060648201526084016106c9565b6000610fae60408051808201909152601f81527f68747470733a2f2f6578616d706c65646f6d61696e2f6d657461646174612f00602082015290565b90506000815111610fce5760405180602001604052806000815250610da4565b80610fd8846119b8565b604051602001610fe99291906127b3565b6040516020818303038152906040529392505050565b60008181526007602052604081206105a890611af1565b606060096000838152602001908152602001600020805480602002602001604051908101604052809291908181526020016000905b828210156110b05760008481526020908190206040805180820190915290840154600160a060020a03811682527401000000000000000000000000000000000000000090046bffffffffffffffffffffffff168183015282526001909201910161104b565b505050509050919050565b610b968282611afb565b600854600160a060020a031633146110f25760405160e560020a62461bcd0281526004016106c990612922565b600160a060020a0381166111715760405160e560020a62461bcd02815260206004820152602660248201527f4f776e61626c653a206e6577206f776e657220697320746865207a65726f206160448201527f646472657373000000000000000000000000000000000000000000000000000060648201526084016106c9565b61117a81611917565b50565b610b888282611b21565b6000610da483600160a060020a038416611ba7565b6000600160e060020a031982167f5a05180f0000000000000000000000000000000000000000000000000000000014806105a857506105a882611bf6565b6000818152600460205260409020805473ffffffffffffffffffffffffffffffffffffffff1916600160a060020a038416908117909155819061121c82610bc9565b600160a060020a03167f8c5be1e5ebec7d5bd14f71427d1e84f3dd0314c0f7b2291e5b200ac8c7c3b92560405160405180910390a45050565b60005b81518110156113ef576000600160a060020a031682828151811061127e5761127e612c6d565b602002602001015160000151600160a060020a031614156112e45760405160e560020a62461bcd02815260206004820152601b60248201527f526563697069656e742073686f756c642062652070726573656e74000000000060448201526064016106c9565b8181815181106112f6576112f6612c6d565b6020026020010151602001516bffffffffffffffffffffffff16600014156113635760405160e560020a62461bcd02815260206004820181905260248201527f526f79616c74792076616c75652073686f756c6420626520706f73697469766560448201526064016106c9565b6000838152600960205260409020825183908390811061138557611385612c6d565b6020908102919091018101518254600181018455600093845292829020815191909201516bffffffffffffffffffffffff167401000000000000000000000000000000000000000002600160a060020a0390911617910155806113e781612bf3565b915050611258565b50610b888282611c34565b600081815260026020526040812054600160a060020a03166114875760405160e560020a62461bcd02815260206004820152602c60248201527f4552433732313a206f70657261746f7220717565727920666f72206e6f6e657860448201527f697374656e7420746f6b656e000000000000000000000000000000000000000060648201526084016106c9565b600061149283610bc9565b905080600160a060020a031684600160a060020a031614806114cd575083600160a060020a03166114c284610640565b600160a060020a0316145b806114fd5750600160a060020a0380821660009081526005602090815260408083209388168352929052205460ff165b949350505050565b82600160a060020a031661151882610bc9565b600160a060020a0316146115975760405160e560020a62461bcd02815260206004820152602960248201527f4552433732313a207472616e73666572206f6620746f6b656e2074686174206960448201527f73206e6f74206f776e000000000000000000000000000000000000000000000060648201526084016106c9565b600160a060020a0382166116155760405160e560020a62461bcd028152602060048201526024808201527f4552433732313a207472616e7366657220746f20746865207a65726f2061646460448201527f726573730000000000000000000000000000000000000000000000000000000060648201526084016106c9565b611620838383611c71565b61162b6000826111da565b600160a060020a0383166000908152600360205260408120805460019290611654908490612b5b565b9091555050600160a060020a0382166000908152600360205260408120805460019290611682908490612a9c565b9091555050600081815260026020526040808220805473ffffffffffffffffffffffffffffffffffffffff1916600160a060020a0386811691821790925591518493918716917fddf252ad1be2c89b69c2b068fc378daa952ba7f163c4a11628f55a4df523b3ef91a4505050565b60008281526006602052604090206001015461170c8133611e09565b6108218383611b21565b600160a060020a03821661176f5760405160e560020a62461bcd02815260206004820181905260248201527f4552433732313a206d696e7420746f20746865207a65726f206164647265737360448201526064016106c9565b600081815260026020526040902054600160a060020a0316156117d75760405160e560020a62461bcd02815260206004820152601c60248201527f4552433732313a20746f6b656e20616c7265616479206d696e7465640000000060448201526064016106c9565b6117e360008383611c71565b600160a060020a038216600090815260036020526040812080546001929061180c908490612a9c565b9091555050600081815260026020526040808220805473ffffffffffffffffffffffffffffffffffffffff1916600160a060020a03861690811790915590518392907fddf252ad1be2c89b69c2b068fc378daa952ba7f163c4a11628f55a4df523b3ef908290a45050565b600160a060020a03811633146118f85760405160e560020a62461bcd02815260206004820152602f60248201527f416363657373436f6e74726f6c3a2063616e206f6e6c792072656e6f756e636560448201527f20726f6c657320666f722073656c66000000000000000000000000000000000060648201526084016106c9565b610b888282611e70565b6000610da483600160a060020a038416611ed7565b60088054600160a060020a0383811673ffffffffffffffffffffffffffffffffffffffff19831681179093556040519116919082907f8be0079c531659141344cd1fd0a4f28419497f9722a3daafe3b4186f6b6457e090600090a35050565b6000610da48383611fca565b61198d848484611505565b61199984848484611ff4565b61090b5760405160e560020a62461bcd0281526004016106c9906128c5565b6060816119f857505060408051808201909152600181527f3000000000000000000000000000000000000000000000000000000000000000602082015290565b8160005b8115611a225780611a0c81612bf3565b9150611a1b9050600a83612ab4565b91506119fc565b60008167ffffffffffffffff811115611a3d57611a3d612c86565b6040519080825280601f01601f191660200182016040528015611a67576020820181803683370190505b5090505b84156114fd57611a7c600183612b5b565b9150611a89600a86612c0e565b611a94906030612a9c565b7f010000000000000000000000000000000000000000000000000000000000000002818381518110611ac857611ac8612c6d565b6020010190600160f860020a031916908160001a905350611aea600a86612ab4565b9450611a6b565b60006105a8825490565b600082815260066020526040902060010154611b178133611e09565b6108218383611e70565b611b2b8282610dab565b610b88576000828152600660209081526040808320600160a060020a03851684529091529020805460ff19166001179055611b633390565b600160a060020a031681600160a060020a0316837f2f8788117e7eff1d82e926ec794901d17c78024a50270940304540a733656f0d60405160405180910390a45050565b6000818152600183016020526040812054611bee575081546001818101845560008481526020808220909301849055845484825282860190935260409020919091556105a8565b5060006105a8565b6000600160e060020a031982167f7965db0b0000000000000000000000000000000000000000000000000000000014806105a857506105a882612136565b7f3fa96d7b6bcbfe71ef171666d84db3cf52fa2d1c8afdb1cc8e486177f208b7df8282604051611c659291906129b4565b60405180910390a15050565b600160a060020a038316611d5057600b60156000611c8e600a5490565b815260200190815260200160002060008201548160000155600182015481600101556002820154816002015560038201548160030155600482015481600401556005820154816005015560068201548160060155600782015481600701556008820154816008015560098201548160090155905050611d11600a80546001019055565b600160a060020a03821660009081526016602090815260408083208484529091528120805460019290611d45908490612a28565b909155506108219050565b600160a060020a038216611d9257600160a060020a03831660009081526016602090815260408083208484529091528120805460019290611d45908490612ae7565b600160a060020a03831660009081526016602090815260408083208484529091528120805460019290611dc6908490612ae7565b9091555050600160a060020a03821660009081526016602090815260408083208484529091528120805460019290611dff908490612a28565b9091555050505050565b611e138282610dab565b610b8857611e2b81600160a060020a031660146121d1565b611e368360206121d1565b604051602001611e479291906127e2565b60408051601f198184030181529082905260e560020a62461bcd0282526106c9916004016128b2565b611e7a8282610dab565b15610b88576000828152600660209081526040808320600160a060020a0385168085529252808320805460ff1916905551339285917ff6391f5c32d9c69d2a47ea670b442974b53935d1edc7fd64eb21e047a839171b9190a45050565b60008181526001830160205260408120548015611fc0576000611efb600183612b5b565b8554909150600090611f0f90600190612b5b565b9050818114611f74576000866000018281548110611f2f57611f2f612c6d565b9060005260206000200154905080876000018481548110611f5257611f52612c6d565b6000918252602080832090910192909255918252600188019052604090208390555b8554869080611f8557611f85612c54565b6001900381819060005260206000200160009055905585600101600086815260200190815260200160002060009055600193505050506105a8565b60009150506105a8565b6000826000018281548110611fe157611fe1612c6d565b9060005260206000200154905092915050565b6000600160a060020a0384163b1561212b576040517f150b7a02000000000000000000000000000000000000000000000000000000008152600160a060020a0385169063150b7a0290612051903390899088908890600401612863565b602060405180830381600087803b15801561206b57600080fd5b505af192505050801561209b575060408051601f3d908101601f19168201909252612098918101906126ba565b60015b6120f8573d8080156120c9576040519150601f19603f3d011682016040523d82523d6000602084013e6120ce565b606091505b5080516120f05760405160e560020a62461bcd0281526004016106c9906128c5565b805181602001fd5b600160e060020a0319167f150b7a02000000000000000000000000000000000000000000000000000000001490506114fd565b506001949350505050565b6000600160e060020a031982167f80ac58cd0000000000000000000000000000000000000000000000000000000014806121995750600160e060020a031982167f5b5e139f00000000000000000000000000000000000000000000000000000000145b806105a857507f01ffc9a700000000000000000000000000000000000000000000000000000000600160e060020a03198316146105a8565b606060006121e0836002612ac8565b6121eb906002612a9c565b67ffffffffffffffff81111561220357612203612c86565b6040519080825280601f01601f19166020018201604052801561222d576020820181803683370190505b5090507f30000000000000000000000000000000000000000000000000000000000000008160008151811061226457612264612c6d565b6020010190600160f860020a031916908160001a9053507f7800000000000000000000000000000000000000000000000000000000000000816001815181106122af576122af612c6d565b6020010190600160f860020a031916908160001a90535060006122d3846002612ac8565b6122de906001612a9c565b90505b6001811115612381577f303132333435363738396162636465660000000000000000000000000000000085600f166010811061231f5761231f612c6d565b1a7f01000000000000000000000000000000000000000000000000000000000000000282828151811061235457612354612c6d565b6020010190600160f860020a031916908160001a90535060109094049361237a81612b9e565b90506122e1565b508315610da45760405160e560020a62461bcd02815260206004820181905260248201527f537472696e67733a20686578206c656e67746820696e73756666696369656e7460448201526064016106c9565b6000602082840312156123e557600080fd5b8135610da481612c9f565b6000806040838503121561240357600080fd5b823561240e81612c9f565b9150602083013561241e81612c9f565b809150509250929050565b60008060006060848603121561243e57600080fd5b833561244981612c9f565b9250602084013561245981612c9f565b929592945050506040919091013590565b6000806000806080858703121561248057600080fd5b843561248b81612c9f565b935060208581013561249c81612c9f565b935060408601359250606086013567ffffffffffffffff808211156124c057600080fd5b818801915088601f8301126124d457600080fd5b8135818111156124e6576124e6612c86565b6124f8601f8201601f191685016129f7565b9150808252898482850101111561250e57600080fd5b808484018584013760008482840101525080935050505092959194509250565b6000806040838503121561254157600080fd5b823561254c81612c9f565b91506020830135801515811461241e57600080fd5b60008082840361016081121561257657600080fd5b833561258181612c9f565b9250610140601f19820181131561259757600080fd5b61259f6129cd565b91506020850135825260408501356020830152606085013560408301526080850135606083015260a0850135608083015260c085013560a083015260e085013560c08301526101008086013560e084015261012080870135828501528287013581850152505050809150509250929050565b6000806040838503121561262457600080fd5b823561262f81612c9f565b946020939093013593505050565b60006020828403121561264f57600080fd5b5035919050565b6000806040838503121561266957600080fd5b82359150602083013561241e81612c9f565b6000806040838503121561268e57600080fd5b50508035926020909101359150565b6000602082840312156126af57600080fd5b8135610da481612cb4565b6000602082840312156126cc57600080fd5b8151610da481612cb4565b6000806000606084860312156126ec57600080fd5b8335925060208401356126fe81612c9f565b915060408401356bffffffffffffffffffffffff8116811461271f57600080fd5b809150509250925092565b600081518084526020808501945080840160005b8381101561277c5781518051600160a060020a031688528301516bffffffffffffffffffffffff16838801526040909601959082019060010161273e565b509495945050505050565b6000815180845261279f816020860160208601612b72565b601f01601f19169290920160200192915050565b600083516127c5818460208801612b72565b8351908301906127d9818360208801612b72565b01949350505050565b7f416363657373436f6e74726f6c3a206163636f756e742000000000000000000081526000835161281a816017850160208801612b72565b7f206973206d697373696e6720726f6c65200000000000000000000000000000006017918401918201528351612857816028840160208801612b72565b01602801949350505050565b6000600160a060020a038087168352808616602084015250836040830152608060608301526128956080830184612787565b9695505050505050565b602081526000610da4602083018461272a565b602081526000610da46020830184612787565b60208082526032908201527f4552433732313a207472616e7366657220746f206e6f6e20455243373231526560408201527f63656976657220696d706c656d656e7465720000000000000000000000000000606082015260800190565b6020808252818101527f4f776e61626c653a2063616c6c6572206973206e6f7420746865206f776e6572604082015260600190565b60208082526031908201527f4552433732313a207472616e736665722063616c6c6572206973206e6f74206f60408201527f776e6572206e6f7220617070726f766564000000000000000000000000000000606082015260800190565b8281526040602082015260006114fd604083018461272a565b604051610140810167ffffffffffffffff811182821017156129f1576129f1612c86565b60405290565b604051601f8201601f1916810167ffffffffffffffff81118282101715612a2057612a20612c86565b604052919050565b6000808212827f7fffffffffffffffffffffffffffffffffffffffffffffffffffffffffffffff03841381151615612a6257612a62612c22565b827f8000000000000000000000000000000000000000000000000000000000000000038412811615612a9657612a96612c22565b50500190565b60008219821115612aaf57612aaf612c22565b500190565b600082612ac357612ac3612c3b565b500490565b6000816000190483118215151615612ae257612ae2612c22565b500290565b6000808312837f800000000000000000000000000000000000000000000000000000000000000001831281151615612b2157612b21612c22565b837f7fffffffffffffffffffffffffffffffffffffffffffffffffffffffffffffff018313811615612b5557612b55612c22565b50500390565b600082821015612b6d57612b6d612c22565b500390565b60005b83811015612b8d578181015183820152602001612b75565b8381111561090b5750506000910152565b600081612bad57612bad612c22565b506000190190565b600281046001821680612bc957607f821691505b60208210811415612bed5760e060020a634e487b7102600052602260045260246000fd5b50919050565b6000600019821415612c0757612c07612c22565b5060010190565b600082612c1d57612c1d612c3b565b500690565b60e060020a634e487b7102600052601160045260246000fd5b60e060020a634e487b7102600052601260045260246000fd5b60e060020a634e487b7102600052603160045260246000fd5b60e060020a634e487b7102600052603260045260246000fd5b60e060020a634e487b7102600052604160045260246000fd5b600160a060020a038116811461117a57600080fd5b600160e060020a03198116811461117a57600080fdfea26469706673582212205601918346386b0178e11bce532252a5778b8100baa0f6747775ac2b6fc32ffb64736f6c63430008060033",
  "immutableReferences": {},
  "source": "//SPDX-License-Identifier: MIT\npragma solidity ^0.8.0;\n\nimport \"@openzeppelin/contracts/token/ERC721/ERC721.sol\";\nimport \"@openzeppelin/contracts/access/Ownable.sol\";\nimport \"@openzeppelin/contracts/access/AccessControlEnumerable.sol\";\nimport \"@openzeppelin/contracts/utils/Counters.sol\";\nimport \"./rarible/royalties/contracts/impl/RoyaltiesV2Impl.sol\";\nimport \"./rarible/royalties/contracts/LibPart.sol\";\nimport \"./rarible/royalties/contracts/LibRoyaltiesV2.sol\";\n\ncontract Characters is ERC721, AccessControlEnumerable, Ownable, RoyaltiesV2Impl {\n    using Counters for Counters.Counter;\n    Counters.Counter private _tokenIdTracker;\n    \n    //Adds support for OpenSea\n    bytes4 private constant _INTERFACE_ID_ERC2981 = 0x2a55205a;\n\n    //Roles of monter and burner\n    bytes32 public constant MINTER_ROLE = keccak256(\"MINTER_ROLE\");\n    bytes32 public constant BURNER_ROLE = keccak256(\"BURNER_ROLE\");\n\n    //Stats of players and enemies\n    struct Char_Stats {\n        uint class;\t        //Internal class 0 for player, index of enemies\n        uint level;     \t//By default is 0. Evolvable NFTs may upgrade this level\n        uint stat01;    \t//Health\n        uint stat02;    \t//Vitality\n        uint stat03;    \t//Attack\n        uint stat04;    \t//Defense\n        uint stat05;    \t//Mastery\n        uint stat06;    \t//Speed\n        uint stat07;    \t//Luck\n        uint stat08;    \t//Faith\n    }\n\n    //Used by _beforeTokenTransfer to catch the after minting\n    Char_Stats private statsToMint;\n\n\n    //Mapping from NFT to struct\n    mapping(uint256 => Char_Stats) private values;\n\n    // Mapping from owner address to token ID. It is used to quickly get all NFTs on an address\n    mapping(address => mapping(uint256 => int)) private _tokensByOwner;\n\n    //Mapping from CharacterID => (mapping slot => equipementId)\n    mapping( uint256 => mapping (uint256 => uint256)) private equiped;\n\n    //Generic random counter, used to add a bit more of entropy\n    uint randomNonce=0;\n\n    //Pseudo random. I think is enough for the game\n    function randMod(uint _modulus) internal returns(uint) {\n        randomNonce++; \n        return uint(keccak256(abi.encodePacked(block.timestamp, msg.sender, randomNonce))) % _modulus;\n    }\n\n    constructor() ERC721(\"Chains of Glory Characters\", \"CGC\")  {\n        _setupRole(DEFAULT_ADMIN_ROLE, _msgSender());\n\n        _setupRole(MINTER_ROLE, _msgSender());\n        _setupRole(BURNER_ROLE, _msgSender());\n    }\n\n    function mint(address _to, Char_Stats memory stats) public {\n        require(hasRole(MINTER_ROLE, _msgSender()), \"Exception: must have minter role to mint\");\n        \n        //Stores the struct to assign when mint os ok\n        statsToMint=stats;\n        super._mint(_to, _tokenIdTracker.current()); \n    }\n\n    function _beforeTokenTransfer(address from, address to, uint256 tokenId) internal virtual override(ERC721) {\n        if(from==address(0)) {\n            //Minting ok, creates struct of stats\n            values[_tokenIdTracker.current()] = statsToMint;\n            _tokenIdTracker.increment();\n\n            //Updates the _tokensByOwner mapping\n            _tokensByOwner[to][tokenId]+=1;\n        } else if(to==address(0)) {\n            //Burning\n\n            //Updates the _tokensByOwner mapping\n             _tokensByOwner[from][tokenId]-=1;\n        } else {\n            //Normal transfer\n\n            //Updates the _tokensByOwner mapping\n            _tokensByOwner[from][tokenId]-=1;\n            _tokensByOwner[to][tokenId]+=1;\n        }\n    }\n\n    function _baseURI() internal view virtual override returns (string memory) {\n        return \"https://exampledomain/metadata/\";\n    }\n\n    function setRoyalties(uint256 _tokenId, address payable _royaltiesReceipientAddress, uint96 _percentageBasisPoints) public onlyOwner {\n        LibPart.Part[] memory _royalties = new LibPart.Part[](1);\n        _royalties[0].value = _percentageBasisPoints;\n        _royalties[0].account = _royaltiesReceipientAddress;\n        _saveRoyalties(_tokenId, _royalties);\n    }\n\n    function royaltyInfo(uint256 _tokenId, uint256 _salePrice ) external view returns ( address receiver, uint256 royaltyAmount) {\n        LibPart.Part[] memory _royalties = royalties[_tokenId];\n        if(_royalties.length > 0) {\n            return(_royalties[0].account, (_salePrice * _royalties[0].value)/10000);\n        }\n        return (address(0), 0);\n    }\n\n    function supportsInterface(bytes4 interfaceId) public view virtual override(ERC721, AccessControlEnumerable) returns (bool) {\n        if (interfaceId == LibRoyaltiesV2._INTERFACE_ID_ROYALTIES) {\n            return true;\n        }\n\n        if(interfaceId == _INTERFACE_ID_ERC2981) {\n            return true;\n        }\n\n        return super.supportsInterface(interfaceId);\n    }\n}\n",
  "sourcePath": "/Users/n65598/Development/Blockchain/ChainsOfGlory/contracts/Characters.sol",
  "compiler": {
    "name": "solc",
    "version": "0.8.6+commit.11564f7e.Emscripten.clang"
  },
  "schemaVersion": "3.4.3",
  "updatedAt": "2021-11-20T21:07:03.940Z",
  "devdoc": {
    "kind": "dev",
    "methods": {
      "approve(address,uint256)": {
        "details": "See {IERC721-approve}."
      },
      "balanceOf(address)": {
        "details": "See {IERC721-balanceOf}."
      },
      "getApproved(uint256)": {
        "details": "See {IERC721-getApproved}."
      },
      "getRoleAdmin(bytes32)": {
        "details": "Returns the admin role that controls `role`. See {grantRole} and {revokeRole}. To change a role's admin, use {_setRoleAdmin}."
      },
      "getRoleMember(bytes32,uint256)": {
        "details": "Returns one of the accounts that have `role`. `index` must be a value between 0 and {getRoleMemberCount}, non-inclusive. Role bearers are not sorted in any particular way, and their ordering may change at any point. WARNING: When using {getRoleMember} and {getRoleMemberCount}, make sure you perform all queries on the same block. See the following https://forum.openzeppelin.com/t/iterating-over-elements-on-enumerableset-in-openzeppelin-contracts/2296[forum post] for more information."
      },
      "getRoleMemberCount(bytes32)": {
        "details": "Returns the number of accounts that have `role`. Can be used together with {getRoleMember} to enumerate all bearers of a role."
      },
      "grantRole(bytes32,address)": {
        "details": "Overload {grantRole} to track enumerable memberships"
      },
      "hasRole(bytes32,address)": {
        "details": "Returns `true` if `account` has been granted `role`."
      },
      "isApprovedForAll(address,address)": {
        "details": "See {IERC721-isApprovedForAll}."
      },
      "name()": {
        "details": "See {IERC721Metadata-name}."
      },
      "owner()": {
        "details": "Returns the address of the current owner."
      },
      "ownerOf(uint256)": {
        "details": "See {IERC721-ownerOf}."
      },
      "renounceOwnership()": {
        "details": "Leaves the contract without owner. It will not be possible to call `onlyOwner` functions anymore. Can only be called by the current owner. NOTE: Renouncing ownership will leave the contract without an owner, thereby removing any functionality that is only available to the owner."
      },
      "renounceRole(bytes32,address)": {
        "details": "Overload {renounceRole} to track enumerable memberships"
      },
      "revokeRole(bytes32,address)": {
        "details": "Overload {revokeRole} to track enumerable memberships"
      },
      "safeTransferFrom(address,address,uint256)": {
        "details": "See {IERC721-safeTransferFrom}."
      },
      "safeTransferFrom(address,address,uint256,bytes)": {
        "details": "See {IERC721-safeTransferFrom}."
      },
      "setApprovalForAll(address,bool)": {
        "details": "See {IERC721-setApprovalForAll}."
      },
      "symbol()": {
        "details": "See {IERC721Metadata-symbol}."
      },
      "tokenURI(uint256)": {
        "details": "See {IERC721Metadata-tokenURI}."
      },
      "transferFrom(address,address,uint256)": {
        "details": "See {IERC721-transferFrom}."
      },
      "transferOwnership(address)": {
        "details": "Transfers ownership of the contract to a new account (`newOwner`). Can only be called by the current owner."
      }
    },
    "version": 1
  },
  "userdoc": {
    "kind": "user",
    "methods": {},
    "version": 1
  }
}