{
  "contractName": "Equipment",
  "abi": [
    {
      "inputs": [],
      "stateMutability": "nonpayable",
      "type": "constructor"
    },
    {
      "anonymous": false,
      "inputs": [
        {
          "indexed": true,
          "internalType": "address",
          "name": "owner",
          "type": "address"
        },
        {
          "indexed": true,
          "internalType": "address",
          "name": "approved",
          "type": "address"
        },
        {
          "indexed": true,
          "internalType": "uint256",
          "name": "tokenId",
          "type": "uint256"
        }
      ],
      "name": "Approval",
      "type": "event"
    },
    {
      "anonymous": false,
      "inputs": [
        {
          "indexed": true,
          "internalType": "address",
          "name": "owner",
          "type": "address"
        },
        {
          "indexed": true,
          "internalType": "address",
          "name": "operator",
          "type": "address"
        },
        {
          "indexed": false,
          "internalType": "bool",
          "name": "approved",
          "type": "bool"
        }
      ],
      "name": "ApprovalForAll",
      "type": "event"
    },
    {
      "anonymous": false,
      "inputs": [
        {
          "indexed": true,
          "internalType": "address",
          "name": "previousOwner",
          "type": "address"
        },
        {
          "indexed": true,
          "internalType": "address",
          "name": "newOwner",
          "type": "address"
        }
      ],
      "name": "OwnershipTransferred",
      "type": "event"
    },
    {
      "anonymous": false,
      "inputs": [
        {
          "indexed": true,
          "internalType": "bytes32",
          "name": "role",
          "type": "bytes32"
        },
        {
          "indexed": true,
          "internalType": "bytes32",
          "name": "previousAdminRole",
          "type": "bytes32"
        },
        {
          "indexed": true,
          "internalType": "bytes32",
          "name": "newAdminRole",
          "type": "bytes32"
        }
      ],
      "name": "RoleAdminChanged",
      "type": "event"
    },
    {
      "anonymous": false,
      "inputs": [
        {
          "indexed": true,
          "internalType": "bytes32",
          "name": "role",
          "type": "bytes32"
        },
        {
          "indexed": true,
          "internalType": "address",
          "name": "account",
          "type": "address"
        },
        {
          "indexed": true,
          "internalType": "address",
          "name": "sender",
          "type": "address"
        }
      ],
      "name": "RoleGranted",
      "type": "event"
    },
    {
      "anonymous": false,
      "inputs": [
        {
          "indexed": true,
          "internalType": "bytes32",
          "name": "role",
          "type": "bytes32"
        },
        {
          "indexed": true,
          "internalType": "address",
          "name": "account",
          "type": "address"
        },
        {
          "indexed": true,
          "internalType": "address",
          "name": "sender",
          "type": "address"
        }
      ],
      "name": "RoleRevoked",
      "type": "event"
    },
    {
      "anonymous": false,
      "inputs": [
        {
          "indexed": false,
          "internalType": "uint256",
          "name": "tokenId",
          "type": "uint256"
        },
        {
          "components": [
            {
              "internalType": "address payable",
              "name": "account",
              "type": "address"
            },
            {
              "internalType": "uint96",
              "name": "value",
              "type": "uint96"
            }
          ],
          "indexed": false,
          "internalType": "struct LibPart.Part[]",
          "name": "royalties",
          "type": "tuple[]"
        }
      ],
      "name": "RoyaltiesSet",
      "type": "event"
    },
    {
      "anonymous": false,
      "inputs": [
        {
          "indexed": true,
          "internalType": "address",
          "name": "from",
          "type": "address"
        },
        {
          "indexed": true,
          "internalType": "address",
          "name": "to",
          "type": "address"
        },
        {
          "indexed": true,
          "internalType": "uint256",
          "name": "tokenId",
          "type": "uint256"
        }
      ],
      "name": "Transfer",
      "type": "event"
    },
    {
      "inputs": [],
      "name": "BURNER_ROLE",
      "outputs": [
        {
          "internalType": "bytes32",
          "name": "",
          "type": "bytes32"
        }
      ],
      "stateMutability": "view",
      "type": "function",
      "constant": true
    },
    {
      "inputs": [],
      "name": "DEFAULT_ADMIN_ROLE",
      "outputs": [
        {
          "internalType": "bytes32",
          "name": "",
          "type": "bytes32"
        }
      ],
      "stateMutability": "view",
      "type": "function",
      "constant": true
    },
    {
      "inputs": [],
      "name": "MINTER_ROLE",
      "outputs": [
        {
          "internalType": "bytes32",
          "name": "",
          "type": "bytes32"
        }
      ],
      "stateMutability": "view",
      "type": "function",
      "constant": true
    },
    {
      "inputs": [
        {
          "internalType": "address",
          "name": "to",
          "type": "address"
        },
        {
          "internalType": "uint256",
          "name": "tokenId",
          "type": "uint256"
        }
      ],
      "name": "approve",
      "outputs": [],
      "stateMutability": "nonpayable",
      "type": "function"
    },
    {
      "inputs": [
        {
          "internalType": "address",
          "name": "owner",
          "type": "address"
        }
      ],
      "name": "balanceOf",
      "outputs": [
        {
          "internalType": "uint256",
          "name": "",
          "type": "uint256"
        }
      ],
      "stateMutability": "view",
      "type": "function",
      "constant": true
    },
    {
      "inputs": [
        {
          "internalType": "uint256",
          "name": "tokenId",
          "type": "uint256"
        }
      ],
      "name": "getApproved",
      "outputs": [
        {
          "internalType": "address",
          "name": "",
          "type": "address"
        }
      ],
      "stateMutability": "view",
      "type": "function",
      "constant": true
    },
    {
      "inputs": [
        {
          "internalType": "uint256",
          "name": "id",
          "type": "uint256"
        }
      ],
      "name": "getRaribleV2Royalties",
      "outputs": [
        {
          "components": [
            {
              "internalType": "address payable",
              "name": "account",
              "type": "address"
            },
            {
              "internalType": "uint96",
              "name": "value",
              "type": "uint96"
            }
          ],
          "internalType": "struct LibPart.Part[]",
          "name": "",
          "type": "tuple[]"
        }
      ],
      "stateMutability": "view",
      "type": "function",
      "constant": true
    },
    {
      "inputs": [
        {
          "internalType": "bytes32",
          "name": "role",
          "type": "bytes32"
        }
      ],
      "name": "getRoleAdmin",
      "outputs": [
        {
          "internalType": "bytes32",
          "name": "",
          "type": "bytes32"
        }
      ],
      "stateMutability": "view",
      "type": "function",
      "constant": true
    },
    {
      "inputs": [
        {
          "internalType": "bytes32",
          "name": "role",
          "type": "bytes32"
        },
        {
          "internalType": "uint256",
          "name": "index",
          "type": "uint256"
        }
      ],
      "name": "getRoleMember",
      "outputs": [
        {
          "internalType": "address",
          "name": "",
          "type": "address"
        }
      ],
      "stateMutability": "view",
      "type": "function",
      "constant": true
    },
    {
      "inputs": [
        {
          "internalType": "bytes32",
          "name": "role",
          "type": "bytes32"
        }
      ],
      "name": "getRoleMemberCount",
      "outputs": [
        {
          "internalType": "uint256",
          "name": "",
          "type": "uint256"
        }
      ],
      "stateMutability": "view",
      "type": "function",
      "constant": true
    },
    {
      "inputs": [
        {
          "internalType": "bytes32",
          "name": "role",
          "type": "bytes32"
        },
        {
          "internalType": "address",
          "name": "account",
          "type": "address"
        }
      ],
      "name": "grantRole",
      "outputs": [],
      "stateMutability": "nonpayable",
      "type": "function"
    },
    {
      "inputs": [
        {
          "internalType": "bytes32",
          "name": "role",
          "type": "bytes32"
        },
        {
          "internalType": "address",
          "name": "account",
          "type": "address"
        }
      ],
      "name": "hasRole",
      "outputs": [
        {
          "internalType": "bool",
          "name": "",
          "type": "bool"
        }
      ],
      "stateMutability": "view",
      "type": "function",
      "constant": true
    },
    {
      "inputs": [
        {
          "internalType": "address",
          "name": "owner",
          "type": "address"
        },
        {
          "internalType": "address",
          "name": "operator",
          "type": "address"
        }
      ],
      "name": "isApprovedForAll",
      "outputs": [
        {
          "internalType": "bool",
          "name": "",
          "type": "bool"
        }
      ],
      "stateMutability": "view",
      "type": "function",
      "constant": true
    },
    {
      "inputs": [],
      "name": "name",
      "outputs": [
        {
          "internalType": "string",
          "name": "",
          "type": "string"
        }
      ],
      "stateMutability": "view",
      "type": "function",
      "constant": true
    },
    {
      "inputs": [],
      "name": "owner",
      "outputs": [
        {
          "internalType": "address",
          "name": "",
          "type": "address"
        }
      ],
      "stateMutability": "view",
      "type": "function",
      "constant": true
    },
    {
      "inputs": [
        {
          "internalType": "uint256",
          "name": "tokenId",
          "type": "uint256"
        }
      ],
      "name": "ownerOf",
      "outputs": [
        {
          "internalType": "address",
          "name": "",
          "type": "address"
        }
      ],
      "stateMutability": "view",
      "type": "function",
      "constant": true
    },
    {
      "inputs": [],
      "name": "renounceOwnership",
      "outputs": [],
      "stateMutability": "nonpayable",
      "type": "function"
    },
    {
      "inputs": [
        {
          "internalType": "bytes32",
          "name": "role",
          "type": "bytes32"
        },
        {
          "internalType": "address",
          "name": "account",
          "type": "address"
        }
      ],
      "name": "renounceRole",
      "outputs": [],
      "stateMutability": "nonpayable",
      "type": "function"
    },
    {
      "inputs": [
        {
          "internalType": "bytes32",
          "name": "role",
          "type": "bytes32"
        },
        {
          "internalType": "address",
          "name": "account",
          "type": "address"
        }
      ],
      "name": "revokeRole",
      "outputs": [],
      "stateMutability": "nonpayable",
      "type": "function"
    },
    {
      "inputs": [
        {
          "internalType": "uint256",
          "name": "",
          "type": "uint256"
        },
        {
          "internalType": "uint256",
          "name": "",
          "type": "uint256"
        }
      ],
      "name": "royalties",
      "outputs": [
        {
          "internalType": "address payable",
          "name": "account",
          "type": "address"
        },
        {
          "internalType": "uint96",
          "name": "value",
          "type": "uint96"
        }
      ],
      "stateMutability": "view",
      "type": "function",
      "constant": true
    },
    {
      "inputs": [
        {
          "internalType": "address",
          "name": "from",
          "type": "address"
        },
        {
          "internalType": "address",
          "name": "to",
          "type": "address"
        },
        {
          "internalType": "uint256",
          "name": "tokenId",
          "type": "uint256"
        }
      ],
      "name": "safeTransferFrom",
      "outputs": [],
      "stateMutability": "nonpayable",
      "type": "function"
    },
    {
      "inputs": [
        {
          "internalType": "address",
          "name": "from",
          "type": "address"
        },
        {
          "internalType": "address",
          "name": "to",
          "type": "address"
        },
        {
          "internalType": "uint256",
          "name": "tokenId",
          "type": "uint256"
        },
        {
          "internalType": "bytes",
          "name": "_data",
          "type": "bytes"
        }
      ],
      "name": "safeTransferFrom",
      "outputs": [],
      "stateMutability": "nonpayable",
      "type": "function"
    },
    {
      "inputs": [
        {
          "internalType": "address",
          "name": "operator",
          "type": "address"
        },
        {
          "internalType": "bool",
          "name": "approved",
          "type": "bool"
        }
      ],
      "name": "setApprovalForAll",
      "outputs": [],
      "stateMutability": "nonpayable",
      "type": "function"
    },
    {
      "inputs": [],
      "name": "symbol",
      "outputs": [
        {
          "internalType": "string",
          "name": "",
          "type": "string"
        }
      ],
      "stateMutability": "view",
      "type": "function",
      "constant": true
    },
    {
      "inputs": [
        {
          "internalType": "uint256",
          "name": "tokenId",
          "type": "uint256"
        }
      ],
      "name": "tokenURI",
      "outputs": [
        {
          "internalType": "string",
          "name": "",
          "type": "string"
        }
      ],
      "stateMutability": "view",
      "type": "function",
      "constant": true
    },
    {
      "inputs": [
        {
          "internalType": "address",
          "name": "from",
          "type": "address"
        },
        {
          "internalType": "address",
          "name": "to",
          "type": "address"
        },
        {
          "internalType": "uint256",
          "name": "tokenId",
          "type": "uint256"
        }
      ],
      "name": "transferFrom",
      "outputs": [],
      "stateMutability": "nonpayable",
      "type": "function"
    },
    {
      "inputs": [
        {
          "internalType": "address",
          "name": "newOwner",
          "type": "address"
        }
      ],
      "name": "transferOwnership",
      "outputs": [],
      "stateMutability": "nonpayable",
      "type": "function"
    },
    {
      "inputs": [
        {
          "internalType": "address",
          "name": "_to",
          "type": "address"
        },
        {
          "components": [
            {
              "internalType": "uint256",
              "name": "class",
              "type": "uint256"
            },
            {
              "internalType": "uint256",
              "name": "slot",
              "type": "uint256"
            },
            {
              "internalType": "uint256",
              "name": "level",
              "type": "uint256"
            },
            {
              "internalType": "uint256[10]",
              "name": "stats",
              "type": "uint256[10]"
            }
          ],
          "internalType": "struct Equipment.gearStats",
          "name": "data",
          "type": "tuple"
        }
      ],
      "name": "mint",
      "outputs": [],
      "stateMutability": "nonpayable",
      "type": "function"
    },
    {
      "inputs": [
        {
          "internalType": "uint256",
          "name": "idGear",
          "type": "uint256"
        }
      ],
      "name": "singleStats",
      "outputs": [
        {
          "components": [
            {
              "internalType": "uint256",
              "name": "class",
              "type": "uint256"
            },
            {
              "internalType": "uint256",
              "name": "slot",
              "type": "uint256"
            },
            {
              "internalType": "uint256",
              "name": "level",
              "type": "uint256"
            },
            {
              "internalType": "uint256[10]",
              "name": "stats",
              "type": "uint256[10]"
            }
          ],
          "internalType": "struct Equipment.gearStats",
          "name": "",
          "type": "tuple"
        }
      ],
      "stateMutability": "view",
      "type": "function",
      "constant": true
    },
    {
      "inputs": [
        {
          "internalType": "uint256",
          "name": "_tokenId",
          "type": "uint256"
        },
        {
          "internalType": "address payable",
          "name": "_royaltiesReceipientAddress",
          "type": "address"
        },
        {
          "internalType": "uint96",
          "name": "_percentageBasisPoints",
          "type": "uint96"
        }
      ],
      "name": "setRoyalties",
      "outputs": [],
      "stateMutability": "nonpayable",
      "type": "function"
    },
    {
      "inputs": [
        {
          "internalType": "uint256",
          "name": "_tokenId",
          "type": "uint256"
        },
        {
          "internalType": "uint256",
          "name": "_salePrice",
          "type": "uint256"
        }
      ],
      "name": "royaltyInfo",
      "outputs": [
        {
          "internalType": "address",
          "name": "receiver",
          "type": "address"
        },
        {
          "internalType": "uint256",
          "name": "royaltyAmount",
          "type": "uint256"
        }
      ],
      "stateMutability": "view",
      "type": "function",
      "constant": true
    },
    {
      "inputs": [
        {
          "internalType": "bytes4",
          "name": "interfaceId",
          "type": "bytes4"
        }
      ],
      "name": "supportsInterface",
      "outputs": [
        {
          "internalType": "bool",
          "name": "",
          "type": "bool"
        }
      ],
      "stateMutability": "view",
      "type": "function",
      "constant": true
    },
    {
      "inputs": [
        {
          "internalType": "address",
          "name": "owner",
          "type": "address"
        },
        {
          "internalType": "uint256",
          "name": "tokenId",
          "type": "uint256"
        }
      ],
      "name": "positionOf",
      "outputs": [
        {
          "internalType": "uint256",
          "name": "",
          "type": "uint256"
        }
      ],
      "stateMutability": "view",
      "type": "function",
      "constant": true
    }
  ],
  "bytecode": "0x60806040526000601a553480156200001657600080fd5b50604080518082018252601a81527f436861696e73206f6620476c6f7279204368617261637465727300000000000060208083019182528351808501909452600384527f434743000000000000000000000000000000000000000000000000000000000090840152815191929162000091916000916200038c565b508051620000a79060019060208401906200038c565b505050620000d6620000c762000174640100000000026401000000009004565b64010000000062000178810204565b620000fe6000620000ef64010000000062000174810204565b640100000000620001ca810204565b620001367f9f2df0fed2c77648de5860a4cc508cd0818c85b8b8a1ab4ceeef8d981c8956a6620000ef64010000000062000174810204565b6200016e7f3c11d16cbaffd01df69ce1c404f6340ee057498f5f00246190ea54220576a848620000ef64010000000062000174810204565b62000488565b3390565b60088054600160a060020a03838116600160a060020a0319831681179093556040519116919082907f8be0079c531659141344cd1fd0a4f28419497f9722a3daafe3b4186f6b6457e090600090a35050565b620001e48282640100000000620012c56200021182021704565b60008281526007602052604090206200020c9082640100000000620012cf6200022a82021704565b505050565b62000226828264010000000062000253810204565b5050565b60006200024a83600160a060020a038416640100000000620002f1810204565b90505b92915050565b62000268828264010000000062000349810204565b62000226576000828152600660209081526040808320600160a060020a03851684529091529020805460ff19166001179055620002ad64010000000062000174810204565b600160a060020a031681600160a060020a0316837f2f8788117e7eff1d82e926ec794901d17c78024a50270940304540a733656f0d60405160405180910390a45050565b600062000308838364010000000062000374810204565b62000340575081546001818101845560008481526020808220909301849055845484825282860190935260409020919091556200024d565b5060006200024d565b6000918252600660209081526040808420600160a060020a0393909316845291905290205460ff1690565b60009081526001919091016020526040902054151590565b8280546200039a9062000432565b90600052602060002090601f016020900481019282620003be576000855562000409565b82601f10620003d957805160ff191683800117855562000409565b8280016001018555821562000409579182015b8281111562000409578251825591602001919060010190620003ec565b50620004179291506200041b565b5090565b5b808211156200041757600081556001016200041c565b6002810460018216806200044757607f821691505b6020821081141562000482577f4e487b7100000000000000000000000000000000000000000000000000000000600052602260045260246000fd5b50919050565b612eeb80620004986000396000f3fe608060405234801561001057600080fd5b5060043610610218576000357c0100000000000000000000000000000000000000000000000000000000900480638da5cb5b11610137578063c87b56dd116100ca578063d547741f11610099578063d547741f146104dd578063db20f89c146104f0578063e985e9c514610510578063f2fde38b1461054c578063fb7f972c1461055f57600080fd5b8063c87b56dd14610470578063ca15c87314610483578063cad96cca14610496578063d5391393146104b657600080fd5b8063a217fddf11610106578063a217fddf1461042f578063a22cb46514610437578063a3fd0d991461044a578063b88d4fde1461045d57600080fd5b80638da5cb5b146103f05780639010d07c1461040157806391d148541461041457806395d89b411461042757600080fd5b80632a55205a116101af5780636352211e1161017e5780636352211e1461038357806370a0823114610396578063715018a6146103a95780638924af74146103b157600080fd5b80632a55205a146103185780632f2ff15d1461034a57806336568abe1461035d57806342842e0e1461037057600080fd5b8063143094db116101eb578063143094db1461029a57806323b872dd146102ad578063248a9ca3146102c0578063282c51f3146102f157600080fd5b806301ffc9a71461021d57806306fdde0314610245578063081812fc1461025a578063095ea7b314610285575b600080fd5b61023061022b3660046128f9565b610572565b60405190151581526020015b60405180910390f35b61024d6105f7565b60405161023c9190612b0e565b61026d610268366004612899565b610689565b604051600160a060020a03909116815260200161023c565b61029861029336600461286d565b610737565b005b6102986102a8366004612933565b61086f565b6102986102bb366004612677565b61095a565b6102e36102ce366004612899565b60009081526006602052604090206001015490565b60405190815260200161023c565b6102e37f3c11d16cbaffd01df69ce1c404f6340ee057498f5f00246190ea54220576a84881565b61032b6103263660046128d7565b61098e565b60408051600160a060020a03909316835260208301919091520161023c565b6102986103583660046128b2565b610aaf565b61029861036b3660046128b2565b610ad1565b61029861037e366004612677565b610af3565b61026d610391366004612899565b610b0e565b6102e36103a4366004612621565b610b9c565b610298610c39565b6103c46103bf3660046128d7565b610c72565b60408051600160a060020a0390931683526bffffffffffffffffffffffff90911660208301520161023c565b600854600160a060020a031661026d565b61026d61040f3660046128d7565b610cd1565b6102306104223660046128b2565b610cf0565b61024d610d1b565b6102e3600081565b61029861044536600461277c565b610d2a565b6102e361045836600461286d565b610df2565b61029861046b3660046126b8565b610e92565b61024d61047e366004612899565b610ec7565b6102e3610491366004612899565b610fe4565b6104a96104a4366004612899565b610ffb565b60405161023c9190612afb565b6102e37f9f2df0fed2c77648de5860a4cc508cd0818c85b8b8a1ab4ceeef8d981c8956a681565b6102986104eb3660046128b2565b6110a0565b6105036104fe366004612899565b6110aa565b60405161023c9190612c10565b61023061051e36600461263e565b600160a060020a03918216600090815260056020908152604080832093909416825291909152205460ff1690565b61029861055a366004612621565b611127565b61029861056d3660046127af565b6111df565b6000600160e060020a031982167f44c74bcc0000000000000000000000000000000000000000000000000000000014156105ae57506001919050565b600160e060020a031982167f2a55205a0000000000000000000000000000000000000000000000000000000014156105e857506001919050565b6105f1826112e4565b92915050565b60606000805461060690612da0565b80601f016020809104026020016040519081016040528092919081815260200182805461063290612da0565b801561067f5780601f106106545761010080835404028352916020019161067f565b820191906000526020600020905b81548152906001019060200180831161066257829003601f168201915b5050505050905090565b600081815260026020526040812054600160a060020a031661071b5760405160e560020a62461bcd02815260206004820152602c60248201527f4552433732313a20617070726f76656420717565727920666f72206e6f6e657860448201527f697374656e7420746f6b656e000000000000000000000000000000000000000060648201526084015b60405180910390fd5b50600090815260046020526040902054600160a060020a031690565b600061074282610b0e565b905080600160a060020a031683600160a060020a031614156107cf5760405160e560020a62461bcd02815260206004820152602160248201527f4552433732313a20617070726f76616c20746f2063757272656e74206f776e6560448201527f72000000000000000000000000000000000000000000000000000000000000006064820152608401610712565b33600160a060020a03821614806107eb57506107eb813361051e565b6108605760405160e560020a62461bcd02815260206004820152603860248201527f4552433732313a20617070726f76652063616c6c6572206973206e6f74206f7760448201527f6e6572206e6f7220617070726f76656420666f7220616c6c00000000000000006064820152608401610712565b61086a8383611322565b505050565b600854600160a060020a0316331461089c5760405160e560020a62461bcd02815260040161071290612b7e565b604080516001808252818301909252600091816020015b60408051808201909152600080825260208201528152602001906001900390816108b357905050905081816000815181106108f0576108f0612e58565b6020026020010151602001906bffffffffffffffffffffffff1690816bffffffffffffffffffffffff1681525050828160008151811061093257610932612e58565b6020908102919091010151600160a060020a039091169052610954848261139d565b50505050565b6109643382611542565b6109835760405160e560020a62461bcd02815260040161071290612bb3565b61086a83838361164d565b6000828152600960209081526040808320805482518185028101850190935280835284938493929190849084015b82821015610a215760008481526020908190206040805180820190915290840154600160a060020a03811682527401000000000000000000000000000000000000000090046bffffffffffffffffffffffff16818301528252600190920191016109bc565b505050509050600081511115610a9f5780600081518110610a4457610a44612e58565b60200260200101516000015161271082600081518110610a6657610a66612e58565b6020026020010151602001516bffffffffffffffffffffffff1686610a8b9190612d27565b610a959190612d13565b9250925050610aa8565b60008092509250505b9250929050565b610ab98282611838565b600082815260076020526040902061086a90826112cf565b610adb828261185e565b600082815260076020526040902061086a90826118e9565b61086a83838360405180602001604052806000815250610e92565b600081815260026020526040812054600160a060020a0316806105f15760405160e560020a62461bcd02815260206004820152602960248201527f4552433732313a206f776e657220717565727920666f72206e6f6e657869737460448201527f656e7420746f6b656e00000000000000000000000000000000000000000000006064820152608401610712565b6000600160a060020a038216610c1d5760405160e560020a62461bcd02815260206004820152602a60248201527f4552433732313a2062616c616e636520717565727920666f7220746865207a6560448201527f726f2061646472657373000000000000000000000000000000000000000000006064820152608401610712565b50600160a060020a031660009081526003602052604090205490565b600854600160a060020a03163314610c665760405160e560020a62461bcd02815260040161071290612b7e565b610c7060006118fe565b565b60096020528160005260406000208181548110610c8e57600080fd5b600091825260209091200154600160a060020a03811692507401000000000000000000000000000000000000000090046bffffffffffffffffffffffff16905082565b6000828152600760205260408120610ce9908361195d565b9392505050565b6000918252600660209081526040808420600160a060020a0393909316845291905290205460ff1690565b60606001805461060690612da0565b600160a060020a038216331415610d865760405160e560020a62461bcd02815260206004820152601960248201527f4552433732313a20617070726f766520746f2063616c6c6572000000000000006044820152606401610712565b336000818152600560209081526040808320600160a060020a03871680855290835292819020805460ff191686151590811790915590519081529192917f17307eab39ab6107e8899845ad3d59bd9653f200f220920489ca2b5937696c31910160405180910390a35050565b6000805b600160a060020a038416600090815260196020526040902054811015610e6d57600160a060020a0384166000908152601960205260409020805484919083908110610e4357610e43612e58565b90600052602060002001541415610e5b5790506105f1565b80610e6581612dde565b915050610df6565b50600160a060020a038316600090815260196020526040902054610ce9906064612cfb565b610e9c3383611542565b610ebb5760405160e560020a62461bcd02815260040161071290612bb3565b61095484848484611969565b600081815260026020526040902054606090600160a060020a0316610f575760405160e560020a62461bcd02815260206004820152602f60248201527f4552433732314d657461646174613a2055524920717565727920666f72206e6f60448201527f6e6578697374656e7420746f6b656e00000000000000000000000000000000006064820152608401610712565b6000610f9360408051808201909152601f81527f68747470733a2f2f6578616d706c65646f6d61696e2f6d657461646174612f00602082015290565b90506000815111610fb35760405180602001604052806000815250610ce9565b80610fbd8461199f565b604051602001610fce929190612a0f565b6040516020818303038152906040529392505050565b60008181526007602052604081206105f190611ad8565b606060096000838152602001908152602001600020805480602002602001604051908101604052809291908181526020016000905b828210156110955760008481526020908190206040805180820190915290840154600160a060020a03811682527401000000000000000000000000000000000000000090046bffffffffffffffffffffffff1681830152825260019092019101611030565b505050509050919050565b610adb8282611ae2565b6110b2612557565b60008281526018602090815260409182902082516080810184528154815260018201549281019290925260028101548284015282516101408101938490529192909160608401916003840190600a9082845b815481526020019060010190808311611104575050505050815250509050919050565b600854600160a060020a031633146111545760405160e560020a62461bcd02815260040161071290612b7e565b600160a060020a0381166111d35760405160e560020a62461bcd02815260206004820152602660248201527f4f776e61626c653a206e6577206f776e657220697320746865207a65726f206160448201527f64647265737300000000000000000000000000000000000000000000000000006064820152608401610712565b6111dc816118fe565b50565b6112097f9f2df0fed2c77648de5860a4cc508cd0818c85b8b8a1ab4ceeef8d981c8956a633610cf0565b61127e5760405160e560020a62461bcd02815260206004820152602860248201527f457863657074696f6e3a206d7573742068617665206d696e74657220726f6c6560448201527f20746f206d696e740000000000000000000000000000000000000000000000006064820152608401610712565b8051600b9081556020820151600c556040820151600d5560608201518291906112ab90600e90600a612584565b509050506112c1826112bc600a5490565b611b08565b5050565b6112c18282611c69565b6000610ce983600160a060020a038416611cef565b6000600160e060020a031982167f5a05180f0000000000000000000000000000000000000000000000000000000014806105f157506105f182611d3e565b6000818152600460205260409020805473ffffffffffffffffffffffffffffffffffffffff1916600160a060020a038416908117909155819061136482610b0e565b600160a060020a03167f8c5be1e5ebec7d5bd14f71427d1e84f3dd0314c0f7b2291e5b200ac8c7c3b92560405160405180910390a45050565b60005b8151811015611537576000600160a060020a03168282815181106113c6576113c6612e58565b602002602001015160000151600160a060020a0316141561142c5760405160e560020a62461bcd02815260206004820152601b60248201527f526563697069656e742073686f756c642062652070726573656e7400000000006044820152606401610712565b81818151811061143e5761143e612e58565b6020026020010151602001516bffffffffffffffffffffffff16600014156114ab5760405160e560020a62461bcd02815260206004820181905260248201527f526f79616c74792076616c75652073686f756c6420626520706f7369746976656044820152606401610712565b600083815260096020526040902082518390839081106114cd576114cd612e58565b6020908102919091018101518254600181018455600093845292829020815191909201516bffffffffffffffffffffffff167401000000000000000000000000000000000000000002600160a060020a03909116179101558061152f81612dde565b9150506113a0565b506112c18282611d7c565b600081815260026020526040812054600160a060020a03166115cf5760405160e560020a62461bcd02815260206004820152602c60248201527f4552433732313a206f70657261746f7220717565727920666f72206e6f6e657860448201527f697374656e7420746f6b656e00000000000000000000000000000000000000006064820152608401610712565b60006115da83610b0e565b905080600160a060020a031684600160a060020a03161480611615575083600160a060020a031661160a84610689565b600160a060020a0316145b806116455750600160a060020a0380821660009081526005602090815260408083209388168352929052205460ff165b949350505050565b82600160a060020a031661166082610b0e565b600160a060020a0316146116df5760405160e560020a62461bcd02815260206004820152602960248201527f4552433732313a207472616e73666572206f6620746f6b656e2074686174206960448201527f73206e6f74206f776e00000000000000000000000000000000000000000000006064820152608401610712565b600160a060020a03821661175d5760405160e560020a62461bcd028152602060048201526024808201527f4552433732313a207472616e7366657220746f20746865207a65726f2061646460448201527f72657373000000000000000000000000000000000000000000000000000000006064820152608401610712565b611768838383611db9565b611773600082611322565b600160a060020a038316600090815260036020526040812080546001929061179c908490612d46565b9091555050600160a060020a03821660009081526003602052604081208054600192906117ca908490612cfb565b9091555050600081815260026020526040808220805473ffffffffffffffffffffffffffffffffffffffff1916600160a060020a0386811691821790925591518493918716917fddf252ad1be2c89b69c2b068fc378daa952ba7f163c4a11628f55a4df523b3ef91a4505050565b6000828152600660205260409020600101546118548133611e97565b61086a8383611c69565b600160a060020a03811633146118df5760405160e560020a62461bcd02815260206004820152602f60248201527f416363657373436f6e74726f6c3a2063616e206f6e6c792072656e6f756e636560448201527f20726f6c657320666f722073656c6600000000000000000000000000000000006064820152608401610712565b6112c18282611efe565b6000610ce983600160a060020a038416611f65565b60088054600160a060020a0383811673ffffffffffffffffffffffffffffffffffffffff19831681179093556040519116919082907f8be0079c531659141344cd1fd0a4f28419497f9722a3daafe3b4186f6b6457e090600090a35050565b6000610ce98383612058565b61197484848461164d565b61198084848484612082565b6109545760405160e560020a62461bcd02815260040161071290612b21565b6060816119df57505060408051808201909152600181527f3000000000000000000000000000000000000000000000000000000000000000602082015290565b8160005b8115611a0957806119f381612dde565b9150611a029050600a83612d13565b91506119e3565b60008167ffffffffffffffff811115611a2457611a24612e71565b6040519080825280601f01601f191660200182016040528015611a4e576020820181803683370190505b5090505b841561164557611a63600183612d46565b9150611a70600a86612df9565b611a7b906030612cfb565b7f010000000000000000000000000000000000000000000000000000000000000002818381518110611aaf57611aaf612e58565b6020010190600160f860020a031916908160001a905350611ad1600a86612d13565b9450611a52565b60006105f1825490565b600082815260066020526040902060010154611afe8133611e97565b61086a8383611efe565b600160a060020a038216611b615760405160e560020a62461bcd02815260206004820181905260248201527f4552433732313a206d696e7420746f20746865207a65726f20616464726573736044820152606401610712565b600081815260026020526040902054600160a060020a031615611bc95760405160e560020a62461bcd02815260206004820152601c60248201527f4552433732313a20746f6b656e20616c7265616479206d696e746564000000006044820152606401610712565b611bd560008383611db9565b600160a060020a0382166000908152600360205260408120805460019290611bfe908490612cfb565b9091555050600081815260026020526040808220805473ffffffffffffffffffffffffffffffffffffffff1916600160a060020a03861690811790915590518392907fddf252ad1be2c89b69c2b068fc378daa952ba7f163c4a11628f55a4df523b3ef908290a45050565b611c738282610cf0565b6112c1576000828152600660209081526040808320600160a060020a03851684529091529020805460ff19166001179055611cab3390565b600160a060020a031681600160a060020a0316837f2f8788117e7eff1d82e926ec794901d17c78024a50270940304540a733656f0d60405160405180910390a45050565b6000818152600183016020526040812054611d36575081546001818101845560008481526020808220909301849055845484825282860190935260409020919091556105f1565b5060006105f1565b6000600160e060020a031982167f7965db0b0000000000000000000000000000000000000000000000000000000014806105f157506105f1826121c4565b7f3fa96d7b6bcbfe71ef171666d84db3cf52fa2d1c8afdb1cc8e486177f208b7df8282604051611dad929190612c64565b60405180910390a15050565b600160a060020a038316611e4a57600b60186000611dd6600a5490565b81526020810191909152604001600020815481556001808301549082015560028083015490820155611e106003808301908401600a6125c2565b5050600a8054600101905550600160a060020a03919091166000908152601960209081526040822080546001810182559083529120015550565b600160a060020a038216611e625761086a838261225f565b600160a060020a03821660009081526019602090815260408220805460018101825590835291200181905561086a838261225f565b611ea18282610cf0565b6112c157611eb981600160a060020a03166014612355565b611ec4836020612355565b604051602001611ed5929190612a3e565b60408051601f198184030181529082905260e560020a62461bcd02825261071291600401612b0e565b611f088282610cf0565b156112c1576000828152600660209081526040808320600160a060020a0385168085529252808320805460ff1916905551339285917ff6391f5c32d9c69d2a47ea670b442974b53935d1edc7fd64eb21e047a839171b9190a45050565b6000818152600183016020526040812054801561204e576000611f89600183612d46565b8554909150600090611f9d90600190612d46565b9050818114612002576000866000018281548110611fbd57611fbd612e58565b9060005260206000200154905080876000018481548110611fe057611fe0612e58565b6000918252602080832090910192909255918252600188019052604090208390555b855486908061201357612013612e3f565b6001900381819060005260206000200160009055905585600101600086815260200190815260200160002060009055600193505050506105f1565b60009150506105f1565b600082600001828154811061206f5761206f612e58565b9060005260206000200154905092915050565b6000600160a060020a0384163b156121b9576040517f150b7a02000000000000000000000000000000000000000000000000000000008152600160a060020a0385169063150b7a02906120df903390899088908890600401612abf565b602060405180830381600087803b1580156120f957600080fd5b505af1925050508015612129575060408051601f3d908101601f1916820190925261212691810190612916565b60015b612186573d808015612157576040519150601f19603f3d011682016040523d82523d6000602084013e61215c565b606091505b50805161217e5760405160e560020a62461bcd02815260040161071290612b21565b805181602001fd5b600160e060020a0319167f150b7a0200000000000000000000000000000000000000000000000000000000149050611645565b506001949350505050565b6000600160e060020a031982167f80ac58cd0000000000000000000000000000000000000000000000000000000014806122275750600160e060020a031982167f5b5e139f00000000000000000000000000000000000000000000000000000000145b806105f157507f01ffc9a700000000000000000000000000000000000000000000000000000000600160e060020a03198316146105f1565b600061226b8383610df2565b600160a060020a03841660009081526019602052604090205490915081101561086a57600160a060020a038316600090815260196020526040902080546122b490600190612d46565b815481106122c4576122c4612e58565b90600052602060002001546019600085600160a060020a0316600160a060020a03168152602001908152602001600020828154811061230557612305612e58565b6000918252602080832090910192909255600160a060020a038516815260199091526040902080548061233a5761233a612e3f565b60019003818190600052602060002001600090559055505050565b60606000612364836002612d27565b61236f906002612cfb565b67ffffffffffffffff81111561238757612387612e71565b6040519080825280601f01601f1916602001820160405280156123b1576020820181803683370190505b5090507f3000000000000000000000000000000000000000000000000000000000000000816000815181106123e8576123e8612e58565b6020010190600160f860020a031916908160001a9053507f78000000000000000000000000000000000000000000000000000000000000008160018151811061243357612433612e58565b6020010190600160f860020a031916908160001a9053506000612457846002612d27565b612462906001612cfb565b90505b6001811115612505577f303132333435363738396162636465660000000000000000000000000000000085600f16601081106124a3576124a3612e58565b1a7f0100000000000000000000000000000000000000000000000000000000000000028282815181106124d8576124d8612e58565b6020010190600160f860020a031916908160001a9053506010909404936124fe81612d89565b9050612465565b508315610ce95760405160e560020a62461bcd02815260206004820181905260248201527f537472696e67733a20686578206c656e67746820696e73756666696369656e746044820152606401610712565b604051806080016040528060008152602001600081526020016000815260200161257f6125ed565b905290565b82600a81019282156125b2579160200282015b828111156125b2578251825591602001919060010190612597565b506125be92915061260c565b5090565b82600a81019282156125b2579182015b828111156125b25782548255916001019190600101906125d2565b604051806101400160405280600a906020820280368337509192915050565b5b808211156125be576000815560010161260d565b60006020828403121561263357600080fd5b8135610ce981612e8a565b6000806040838503121561265157600080fd5b823561265c81612e8a565b9150602083013561266c81612e8a565b809150509250929050565b60008060006060848603121561268c57600080fd5b833561269781612e8a565b925060208401356126a781612e8a565b929592945050506040919091013590565b600080600080608085870312156126ce57600080fd5b84356126d981612e8a565b93506020858101356126ea81612e8a565b935060408601359250606086013567ffffffffffffffff8082111561270e57600080fd5b818801915088601f83011261272257600080fd5b81358181111561273457612734612e71565b612746601f8201601f19168501612cca565b9150808252898482850101111561275c57600080fd5b808484018584013760008482840101525080935050505092959194509250565b6000806040838503121561278f57600080fd5b823561279a81612e8a565b91506020830135801515811461266c57600080fd5b6000808284036101c0808212156127c557600080fd5b84356127d081612e8a565b935060206101a0601f19840112156127e757600080fd5b6127ef612c7d565b92508086013583526040860135818401526060860135604084015286609f87011261281957600080fd5b612821612ca6565b806080880189858a01111561283557600080fd5b600094505b600a85101561285957803583526001949094019391830191830161283a565b506060850152509396919550909350505050565b6000806040838503121561288057600080fd5b823561288b81612e8a565b946020939093013593505050565b6000602082840312156128ab57600080fd5b5035919050565b600080604083850312156128c557600080fd5b82359150602083013561266c81612e8a565b600080604083850312156128ea57600080fd5b50508035926020909101359150565b60006020828403121561290b57600080fd5b8135610ce981612e9f565b60006020828403121561292857600080fd5b8151610ce981612e9f565b60008060006060848603121561294857600080fd5b83359250602084013561295a81612e8a565b915060408401356bffffffffffffffffffffffff8116811461297b57600080fd5b809150509250925092565b600081518084526020808501945080840160005b838110156129d85781518051600160a060020a031688528301516bffffffffffffffffffffffff16838801526040909601959082019060010161299a565b509495945050505050565b600081518084526129fb816020860160208601612d5d565b601f01601f19169290920160200192915050565b60008351612a21818460208801612d5d565b835190830190612a35818360208801612d5d565b01949350505050565b7f416363657373436f6e74726f6c3a206163636f756e7420000000000000000000815260008351612a76816017850160208801612d5d565b7f206973206d697373696e6720726f6c65200000000000000000000000000000006017918401918201528351612ab3816028840160208801612d5d565b01602801949350505050565b6000600160a060020a03808716835280861660208401525083604083015260806060830152612af160808301846129e3565b9695505050505050565b602081526000610ce96020830184612986565b602081526000610ce960208301846129e3565b60208082526032908201527f4552433732313a207472616e7366657220746f206e6f6e20455243373231526560408201527f63656976657220696d706c656d656e7465720000000000000000000000000000606082015260800190565b6020808252818101527f4f776e61626c653a2063616c6c6572206973206e6f7420746865206f776e6572604082015260600190565b60208082526031908201527f4552433732313a207472616e736665722063616c6c6572206973206e6f74206f60408201527f776e6572206e6f7220617070726f766564000000000000000000000000000000606082015260800190565b60006101a08201905082518252602080840151818401526040840151604084015260608401516060840160005b600a811015612c5a57825182529183019190830190600101612c3d565b5050505092915050565b8281526040602082015260006116456040830184612986565b6040516080810167ffffffffffffffff81118282101715612ca057612ca0612e71565b60405290565b604051610140810167ffffffffffffffff81118282101715612ca057612ca0612e71565b604051601f8201601f1916810167ffffffffffffffff81118282101715612cf357612cf3612e71565b604052919050565b60008219821115612d0e57612d0e612e0d565b500190565b600082612d2257612d22612e26565b500490565b6000816000190483118215151615612d4157612d41612e0d565b500290565b600082821015612d5857612d58612e0d565b500390565b60005b83811015612d78578181015183820152602001612d60565b838111156109545750506000910152565b600081612d9857612d98612e0d565b506000190190565b600281046001821680612db457607f821691505b60208210811415612dd85760e060020a634e487b7102600052602260045260246000fd5b50919050565b6000600019821415612df257612df2612e0d565b5060010190565b600082612e0857612e08612e26565b500690565b60e060020a634e487b7102600052601160045260246000fd5b60e060020a634e487b7102600052601260045260246000fd5b60e060020a634e487b7102600052603160045260246000fd5b60e060020a634e487b7102600052603260045260246000fd5b60e060020a634e487b7102600052604160045260246000fd5b600160a060020a03811681146111dc57600080fd5b600160e060020a0319811681146111dc57600080fdfea26469706673582212207495550eb4f398a142a220deeb6113a3bc0b7cf2e931eb23fc506bb855d6d38964736f6c63430008060033",
  "immutableReferences": {},
  "source": "//SPDX-License-Identifier: MIT\npragma solidity ^0.8.0;\n\nimport \"@openzeppelin/contracts/token/ERC721/ERC721.sol\";\nimport \"@openzeppelin/contracts/access/Ownable.sol\";\nimport \"@openzeppelin/contracts/access/AccessControlEnumerable.sol\";\nimport \"@openzeppelin/contracts/utils/Counters.sol\";\nimport \"./rarible/royalties/contracts/impl/RoyaltiesV2Impl.sol\";\nimport \"./rarible/royalties/contracts/LibPart.sol\";\nimport \"./rarible/royalties/contracts/LibRoyaltiesV2.sol\";\n\ncontract Equipment is ERC721, AccessControlEnumerable, Ownable, RoyaltiesV2Impl {\n    using Counters for Counters.Counter;\n    Counters.Counter private _tokenIdTracker;\n    \n    //Adds support for OpenSea\n    bytes4 private constant _INTERFACE_ID_ERC2981 = 0x2a55205a;\n\n    //Roles of monter and burner\n    bytes32 public constant MINTER_ROLE = keccak256(\"MINTER_ROLE\");\n    bytes32 public constant BURNER_ROLE = keccak256(\"BURNER_ROLE\");\n\n    //Stats of players and enemies\n    struct gearStats {\n        uint class;\t            //Index on the NFT for client use\n        uint slot;\t\t        //0-Head 1-Neck 2-Chest 3-Belt 4-Legs 5-Feet 6-Arms \n                                //7-RHand (weapon) 8-LHand(complement) 9-Finger 10-Mount\n        uint level;     \t    //By default is 0. Evolvable NFTs may upgrade this level\n        uint256[10] stats;      //0-Health 1-Vitality 2-Attack 3-Defense 4-Mastery \n                                //5-Speed 6-Luck 7-Faith 8-reserved 9-reserved\n    }\n\n\n    //Used by _beforeTokenTransfer to catch the after minting\n    gearStats private gearToMint;\n\n\n    //Mapping from NFT to struct\n    mapping(uint256 => gearStats) private values;\n\n    // Mapping from owner address to token ID. It is used to quickly get all NFTs on an address\n    mapping(address => uint256[]) private _tokensByOwner;\n\n    //Generic random counter, used to add a bit more of entropy\n    uint randomNonce=0;\n\n    constructor() ERC721(\"Chains of Glory Characters\", \"CGC\")  {\n        _setupRole(DEFAULT_ADMIN_ROLE, _msgSender());\n\n        _setupRole(MINTER_ROLE, _msgSender());\n        _setupRole(BURNER_ROLE, _msgSender());\n    }\n\n    function mint(address _to, gearStats memory data) public {\n        require(hasRole(MINTER_ROLE, _msgSender()), \"Exception: must have minter role to mint\");\n        \n        //Stores the struct to assign when mint os ok\n        gearToMint=data;\n        super._mint(_to, _tokenIdTracker.current()); \n    }\n\n    \n    function _beforeTokenTransfer(address from, address to, uint256 tokenId) internal virtual override(ERC721) {\n        if(from==address(0)) {\n            //Minting ok, creates struct of stats\n            values[_tokenIdTracker.current()] = gearToMint;\n            _tokenIdTracker.increment();\n\n            //Updates the _tokensByOwner mapping            \n            _tokensByOwner[to].push(tokenId);\n        } else if(to==address(0)) {\n            //Burning\n\n            //Updates the _tokensByOwner mapping\n            deleteTokenId(from, tokenId);\n        } else {\n            //Normal transfer\n\n            //Updates the _tokensByOwner mapping\n            _tokensByOwner[to].push(tokenId);\n            deleteTokenId(from, tokenId);\n        }\n    }\n\n    //Returns the gearStats of the NFT \n    function singleStats(uint256 idGear) public view returns(gearStats memory) {\n        return values[idGear];\n    }\n\n    function _baseURI() internal view virtual override returns (string memory) {\n        return \"https://exampledomain/metadata/\";\n    }\n\n    function setRoyalties(uint256 _tokenId, address payable _royaltiesReceipientAddress, uint96 _percentageBasisPoints) public onlyOwner {\n        LibPart.Part[] memory _royalties = new LibPart.Part[](1);\n        _royalties[0].value = _percentageBasisPoints;\n        _royalties[0].account = _royaltiesReceipientAddress;\n        _saveRoyalties(_tokenId, _royalties);\n    }\n\n    function royaltyInfo(uint256 _tokenId, uint256 _salePrice ) external view returns ( address receiver, uint256 royaltyAmount) {\n        LibPart.Part[] memory _royalties = royalties[_tokenId];\n        if(_royalties.length > 0) {\n            return(_royalties[0].account, (_salePrice * _royalties[0].value)/10000);\n        }\n        return (address(0), 0);\n    }\n\n    function supportsInterface(bytes4 interfaceId) public view virtual override(ERC721, AccessControlEnumerable) returns (bool) {\n        if (interfaceId == LibRoyaltiesV2._INTERFACE_ID_ROYALTIES) {\n            return true;\n        }\n\n        if(interfaceId == _INTERFACE_ID_ERC2981) {\n            return true;\n        }\n\n        return super.supportsInterface(interfaceId);\n    }\n\n    //Pseudo random. I think is enough for the game\n    function randMod(uint _modulus) internal returns(uint) {\n        randomNonce++; \n        return uint(keccak256(abi.encodePacked(block.timestamp, msg.sender, randomNonce))) % _modulus;\n    }\n\n    //************************************************************\n    // ARRAY functions \n    //************************************************************\n    function positionOf(address owner, uint256 tokenId) public view returns (uint) {\n        for(uint i=0; i<_tokensByOwner[owner].length; i++) {\n            if(_tokensByOwner[owner][i]==tokenId)\n                return i;\n        }\n        return _tokensByOwner[owner].length+100;\n    }\n\n    function deleteTokenId(address owner, uint256 tokenId) internal {\n        //Updates the _tokensByOwner mapping\n        uint pos=positionOf(owner, tokenId);\n        if(pos<_tokensByOwner[owner].length) {\n            _tokensByOwner[owner][pos]= _tokensByOwner[owner][ _tokensByOwner[owner].length-1];\n            _tokensByOwner[owner].pop();\n        }\n    }\n}\n",
  "sourcePath": "/home/javi/ChainsOfGlory/contracts/Equipment.sol",
  "compiler": {
    "name": "solc",
    "version": "0.8.6+commit.11564f7e.Emscripten.clang"
  },
  "schemaVersion": "3.4.3",
  "updatedAt": "2021-11-21T17:45:46.972Z",
  "networkType": "ethereum",
  "devdoc": {
    "kind": "dev",
    "methods": {
      "approve(address,uint256)": {
        "details": "See {IERC721-approve}."
      },
      "balanceOf(address)": {
        "details": "See {IERC721-balanceOf}."
      },
      "getApproved(uint256)": {
        "details": "See {IERC721-getApproved}."
      },
      "getRoleAdmin(bytes32)": {
        "details": "Returns the admin role that controls `role`. See {grantRole} and {revokeRole}. To change a role's admin, use {_setRoleAdmin}."
      },
      "getRoleMember(bytes32,uint256)": {
        "details": "Returns one of the accounts that have `role`. `index` must be a value between 0 and {getRoleMemberCount}, non-inclusive. Role bearers are not sorted in any particular way, and their ordering may change at any point. WARNING: When using {getRoleMember} and {getRoleMemberCount}, make sure you perform all queries on the same block. See the following https://forum.openzeppelin.com/t/iterating-over-elements-on-enumerableset-in-openzeppelin-contracts/2296[forum post] for more information."
      },
      "getRoleMemberCount(bytes32)": {
        "details": "Returns the number of accounts that have `role`. Can be used together with {getRoleMember} to enumerate all bearers of a role."
      },
      "grantRole(bytes32,address)": {
        "details": "Overload {grantRole} to track enumerable memberships"
      },
      "hasRole(bytes32,address)": {
        "details": "Returns `true` if `account` has been granted `role`."
      },
      "isApprovedForAll(address,address)": {
        "details": "See {IERC721-isApprovedForAll}."
      },
      "name()": {
        "details": "See {IERC721Metadata-name}."
      },
      "owner()": {
        "details": "Returns the address of the current owner."
      },
      "ownerOf(uint256)": {
        "details": "See {IERC721-ownerOf}."
      },
      "renounceOwnership()": {
        "details": "Leaves the contract without owner. It will not be possible to call `onlyOwner` functions anymore. Can only be called by the current owner. NOTE: Renouncing ownership will leave the contract without an owner, thereby removing any functionality that is only available to the owner."
      },
      "renounceRole(bytes32,address)": {
        "details": "Overload {renounceRole} to track enumerable memberships"
      },
      "revokeRole(bytes32,address)": {
        "details": "Overload {revokeRole} to track enumerable memberships"
      },
      "safeTransferFrom(address,address,uint256)": {
        "details": "See {IERC721-safeTransferFrom}."
      },
      "safeTransferFrom(address,address,uint256,bytes)": {
        "details": "See {IERC721-safeTransferFrom}."
      },
      "setApprovalForAll(address,bool)": {
        "details": "See {IERC721-setApprovalForAll}."
      },
      "symbol()": {
        "details": "See {IERC721Metadata-symbol}."
      },
      "tokenURI(uint256)": {
        "details": "See {IERC721Metadata-tokenURI}."
      },
      "transferFrom(address,address,uint256)": {
        "details": "See {IERC721-transferFrom}."
      },
      "transferOwnership(address)": {
        "details": "Transfers ownership of the contract to a new account (`newOwner`). Can only be called by the current owner."
      }
    },
    "version": 1
  },
  "userdoc": {
    "kind": "user",
    "methods": {},
    "version": 1
  }
}