{
  "contractName": "Equipment",
  "abi": [
    {
      "inputs": [],
      "stateMutability": "nonpayable",
      "type": "constructor"
    },
    {
      "anonymous": false,
      "inputs": [
        {
          "indexed": true,
          "internalType": "address",
          "name": "owner",
          "type": "address"
        },
        {
          "indexed": true,
          "internalType": "address",
          "name": "approved",
          "type": "address"
        },
        {
          "indexed": true,
          "internalType": "uint256",
          "name": "tokenId",
          "type": "uint256"
        }
      ],
      "name": "Approval",
      "type": "event"
    },
    {
      "anonymous": false,
      "inputs": [
        {
          "indexed": true,
          "internalType": "address",
          "name": "owner",
          "type": "address"
        },
        {
          "indexed": true,
          "internalType": "address",
          "name": "operator",
          "type": "address"
        },
        {
          "indexed": false,
          "internalType": "bool",
          "name": "approved",
          "type": "bool"
        }
      ],
      "name": "ApprovalForAll",
      "type": "event"
    },
    {
      "anonymous": false,
      "inputs": [
        {
          "indexed": true,
          "internalType": "address",
          "name": "previousOwner",
          "type": "address"
        },
        {
          "indexed": true,
          "internalType": "address",
          "name": "newOwner",
          "type": "address"
        }
      ],
      "name": "OwnershipTransferred",
      "type": "event"
    },
    {
      "anonymous": false,
      "inputs": [
        {
          "indexed": true,
          "internalType": "bytes32",
          "name": "role",
          "type": "bytes32"
        },
        {
          "indexed": true,
          "internalType": "bytes32",
          "name": "previousAdminRole",
          "type": "bytes32"
        },
        {
          "indexed": true,
          "internalType": "bytes32",
          "name": "newAdminRole",
          "type": "bytes32"
        }
      ],
      "name": "RoleAdminChanged",
      "type": "event"
    },
    {
      "anonymous": false,
      "inputs": [
        {
          "indexed": true,
          "internalType": "bytes32",
          "name": "role",
          "type": "bytes32"
        },
        {
          "indexed": true,
          "internalType": "address",
          "name": "account",
          "type": "address"
        },
        {
          "indexed": true,
          "internalType": "address",
          "name": "sender",
          "type": "address"
        }
      ],
      "name": "RoleGranted",
      "type": "event"
    },
    {
      "anonymous": false,
      "inputs": [
        {
          "indexed": true,
          "internalType": "bytes32",
          "name": "role",
          "type": "bytes32"
        },
        {
          "indexed": true,
          "internalType": "address",
          "name": "account",
          "type": "address"
        },
        {
          "indexed": true,
          "internalType": "address",
          "name": "sender",
          "type": "address"
        }
      ],
      "name": "RoleRevoked",
      "type": "event"
    },
    {
      "anonymous": false,
      "inputs": [
        {
          "indexed": false,
          "internalType": "uint256",
          "name": "tokenId",
          "type": "uint256"
        },
        {
          "components": [
            {
              "internalType": "address payable",
              "name": "account",
              "type": "address"
            },
            {
              "internalType": "uint96",
              "name": "value",
              "type": "uint96"
            }
          ],
          "indexed": false,
          "internalType": "struct LibPart.Part[]",
          "name": "royalties",
          "type": "tuple[]"
        }
      ],
      "name": "RoyaltiesSet",
      "type": "event"
    },
    {
      "anonymous": false,
      "inputs": [
        {
          "indexed": true,
          "internalType": "address",
          "name": "from",
          "type": "address"
        },
        {
          "indexed": true,
          "internalType": "address",
          "name": "to",
          "type": "address"
        },
        {
          "indexed": true,
          "internalType": "uint256",
          "name": "tokenId",
          "type": "uint256"
        }
      ],
      "name": "Transfer",
      "type": "event"
    },
    {
      "inputs": [],
      "name": "BURNER_ROLE",
      "outputs": [
        {
          "internalType": "bytes32",
          "name": "",
          "type": "bytes32"
        }
      ],
      "stateMutability": "view",
      "type": "function"
    },
    {
      "inputs": [],
      "name": "DEFAULT_ADMIN_ROLE",
      "outputs": [
        {
          "internalType": "bytes32",
          "name": "",
          "type": "bytes32"
        }
      ],
      "stateMutability": "view",
      "type": "function"
    },
    {
      "inputs": [],
      "name": "MINTER_ROLE",
      "outputs": [
        {
          "internalType": "bytes32",
          "name": "",
          "type": "bytes32"
        }
      ],
      "stateMutability": "view",
      "type": "function"
    },
    {
      "inputs": [],
      "name": "POLYMATH_ROLE",
      "outputs": [
        {
          "internalType": "bytes32",
          "name": "",
          "type": "bytes32"
        }
      ],
      "stateMutability": "view",
      "type": "function"
    },
    {
      "inputs": [
        {
          "internalType": "address",
          "name": "to",
          "type": "address"
        },
        {
          "internalType": "uint256",
          "name": "tokenId",
          "type": "uint256"
        }
      ],
      "name": "approve",
      "outputs": [],
      "stateMutability": "nonpayable",
      "type": "function"
    },
    {
      "inputs": [
        {
          "internalType": "address",
          "name": "owner",
          "type": "address"
        }
      ],
      "name": "balanceOf",
      "outputs": [
        {
          "internalType": "uint256",
          "name": "",
          "type": "uint256"
        }
      ],
      "stateMutability": "view",
      "type": "function"
    },
    {
      "inputs": [
        {
          "internalType": "uint256",
          "name": "tokenId",
          "type": "uint256"
        }
      ],
      "name": "getApproved",
      "outputs": [
        {
          "internalType": "address",
          "name": "",
          "type": "address"
        }
      ],
      "stateMutability": "view",
      "type": "function"
    },
    {
      "inputs": [
        {
          "internalType": "uint256",
          "name": "id",
          "type": "uint256"
        }
      ],
      "name": "getRaribleV2Royalties",
      "outputs": [
        {
          "components": [
            {
              "internalType": "address payable",
              "name": "account",
              "type": "address"
            },
            {
              "internalType": "uint96",
              "name": "value",
              "type": "uint96"
            }
          ],
          "internalType": "struct LibPart.Part[]",
          "name": "",
          "type": "tuple[]"
        }
      ],
      "stateMutability": "view",
      "type": "function"
    },
    {
      "inputs": [
        {
          "internalType": "bytes32",
          "name": "role",
          "type": "bytes32"
        }
      ],
      "name": "getRoleAdmin",
      "outputs": [
        {
          "internalType": "bytes32",
          "name": "",
          "type": "bytes32"
        }
      ],
      "stateMutability": "view",
      "type": "function"
    },
    {
      "inputs": [
        {
          "internalType": "bytes32",
          "name": "role",
          "type": "bytes32"
        },
        {
          "internalType": "uint256",
          "name": "index",
          "type": "uint256"
        }
      ],
      "name": "getRoleMember",
      "outputs": [
        {
          "internalType": "address",
          "name": "",
          "type": "address"
        }
      ],
      "stateMutability": "view",
      "type": "function"
    },
    {
      "inputs": [
        {
          "internalType": "bytes32",
          "name": "role",
          "type": "bytes32"
        }
      ],
      "name": "getRoleMemberCount",
      "outputs": [
        {
          "internalType": "uint256",
          "name": "",
          "type": "uint256"
        }
      ],
      "stateMutability": "view",
      "type": "function"
    },
    {
      "inputs": [
        {
          "internalType": "bytes32",
          "name": "role",
          "type": "bytes32"
        },
        {
          "internalType": "address",
          "name": "account",
          "type": "address"
        }
      ],
      "name": "grantRole",
      "outputs": [],
      "stateMutability": "nonpayable",
      "type": "function"
    },
    {
      "inputs": [
        {
          "internalType": "bytes32",
          "name": "role",
          "type": "bytes32"
        },
        {
          "internalType": "address",
          "name": "account",
          "type": "address"
        }
      ],
      "name": "hasRole",
      "outputs": [
        {
          "internalType": "bool",
          "name": "",
          "type": "bool"
        }
      ],
      "stateMutability": "view",
      "type": "function"
    },
    {
      "inputs": [
        {
          "internalType": "address",
          "name": "owner",
          "type": "address"
        },
        {
          "internalType": "address",
          "name": "operator",
          "type": "address"
        }
      ],
      "name": "isApprovedForAll",
      "outputs": [
        {
          "internalType": "bool",
          "name": "",
          "type": "bool"
        }
      ],
      "stateMutability": "view",
      "type": "function"
    },
    {
      "inputs": [],
      "name": "name",
      "outputs": [
        {
          "internalType": "string",
          "name": "",
          "type": "string"
        }
      ],
      "stateMutability": "view",
      "type": "function"
    },
    {
      "inputs": [],
      "name": "owner",
      "outputs": [
        {
          "internalType": "address",
          "name": "",
          "type": "address"
        }
      ],
      "stateMutability": "view",
      "type": "function"
    },
    {
      "inputs": [
        {
          "internalType": "uint256",
          "name": "tokenId",
          "type": "uint256"
        }
      ],
      "name": "ownerOf",
      "outputs": [
        {
          "internalType": "address",
          "name": "",
          "type": "address"
        }
      ],
      "stateMutability": "view",
      "type": "function"
    },
    {
      "inputs": [],
      "name": "renounceOwnership",
      "outputs": [],
      "stateMutability": "nonpayable",
      "type": "function"
    },
    {
      "inputs": [
        {
          "internalType": "bytes32",
          "name": "role",
          "type": "bytes32"
        },
        {
          "internalType": "address",
          "name": "account",
          "type": "address"
        }
      ],
      "name": "renounceRole",
      "outputs": [],
      "stateMutability": "nonpayable",
      "type": "function"
    },
    {
      "inputs": [
        {
          "internalType": "bytes32",
          "name": "role",
          "type": "bytes32"
        },
        {
          "internalType": "address",
          "name": "account",
          "type": "address"
        }
      ],
      "name": "revokeRole",
      "outputs": [],
      "stateMutability": "nonpayable",
      "type": "function"
    },
    {
      "inputs": [
        {
          "internalType": "uint256",
          "name": "",
          "type": "uint256"
        },
        {
          "internalType": "uint256",
          "name": "",
          "type": "uint256"
        }
      ],
      "name": "royalties",
      "outputs": [
        {
          "internalType": "address payable",
          "name": "account",
          "type": "address"
        },
        {
          "internalType": "uint96",
          "name": "value",
          "type": "uint96"
        }
      ],
      "stateMutability": "view",
      "type": "function"
    },
    {
      "inputs": [
        {
          "internalType": "address",
          "name": "from",
          "type": "address"
        },
        {
          "internalType": "address",
          "name": "to",
          "type": "address"
        },
        {
          "internalType": "uint256",
          "name": "tokenId",
          "type": "uint256"
        }
      ],
      "name": "safeTransferFrom",
      "outputs": [],
      "stateMutability": "nonpayable",
      "type": "function"
    },
    {
      "inputs": [
        {
          "internalType": "address",
          "name": "from",
          "type": "address"
        },
        {
          "internalType": "address",
          "name": "to",
          "type": "address"
        },
        {
          "internalType": "uint256",
          "name": "tokenId",
          "type": "uint256"
        },
        {
          "internalType": "bytes",
          "name": "_data",
          "type": "bytes"
        }
      ],
      "name": "safeTransferFrom",
      "outputs": [],
      "stateMutability": "nonpayable",
      "type": "function"
    },
    {
      "inputs": [
        {
          "internalType": "address",
          "name": "operator",
          "type": "address"
        },
        {
          "internalType": "bool",
          "name": "approved",
          "type": "bool"
        }
      ],
      "name": "setApprovalForAll",
      "outputs": [],
      "stateMutability": "nonpayable",
      "type": "function"
    },
    {
      "inputs": [],
      "name": "symbol",
      "outputs": [
        {
          "internalType": "string",
          "name": "",
          "type": "string"
        }
      ],
      "stateMutability": "view",
      "type": "function"
    },
    {
      "inputs": [
        {
          "internalType": "uint256",
          "name": "tokenId",
          "type": "uint256"
        }
      ],
      "name": "tokenURI",
      "outputs": [
        {
          "internalType": "string",
          "name": "",
          "type": "string"
        }
      ],
      "stateMutability": "view",
      "type": "function"
    },
    {
      "inputs": [
        {
          "internalType": "address",
          "name": "from",
          "type": "address"
        },
        {
          "internalType": "address",
          "name": "to",
          "type": "address"
        },
        {
          "internalType": "uint256",
          "name": "tokenId",
          "type": "uint256"
        }
      ],
      "name": "transferFrom",
      "outputs": [],
      "stateMutability": "nonpayable",
      "type": "function"
    },
    {
      "inputs": [
        {
          "internalType": "address",
          "name": "newOwner",
          "type": "address"
        }
      ],
      "name": "transferOwnership",
      "outputs": [],
      "stateMutability": "nonpayable",
      "type": "function"
    },
    {
      "inputs": [
        {
          "internalType": "address",
          "name": "_to",
          "type": "address"
        },
        {
          "components": [
            {
              "internalType": "uint256",
              "name": "class",
              "type": "uint256"
            },
            {
              "internalType": "uint256",
              "name": "slot",
              "type": "uint256"
            },
            {
              "internalType": "uint256",
              "name": "level",
              "type": "uint256"
            },
            {
              "internalType": "uint256[10]",
              "name": "stats",
              "type": "uint256[10]"
            }
          ],
          "internalType": "struct Equipment.gearStats",
          "name": "data",
          "type": "tuple"
        }
      ],
      "name": "mint",
      "outputs": [],
      "stateMutability": "nonpayable",
      "type": "function"
    },
    {
      "inputs": [
        {
          "internalType": "uint256",
          "name": "gear",
          "type": "uint256"
        }
      ],
      "name": "updateLevel",
      "outputs": [],
      "stateMutability": "nonpayable",
      "type": "function"
    },
    {
      "inputs": [
        {
          "internalType": "uint256",
          "name": "lvl",
          "type": "uint256"
        },
        {
          "internalType": "uint256[]",
          "name": "matrixValues",
          "type": "uint256[]"
        }
      ],
      "name": "setMaxLevel",
      "outputs": [],
      "stateMutability": "nonpayable",
      "type": "function"
    },
    {
      "inputs": [],
      "name": "getMatrix",
      "outputs": [
        {
          "internalType": "uint256[]",
          "name": "",
          "type": "uint256[]"
        }
      ],
      "stateMutability": "view",
      "type": "function"
    },
    {
      "inputs": [
        {
          "internalType": "uint256",
          "name": "idGear",
          "type": "uint256"
        }
      ],
      "name": "baseStats",
      "outputs": [
        {
          "components": [
            {
              "internalType": "uint256",
              "name": "class",
              "type": "uint256"
            },
            {
              "internalType": "uint256",
              "name": "slot",
              "type": "uint256"
            },
            {
              "internalType": "uint256",
              "name": "level",
              "type": "uint256"
            },
            {
              "internalType": "uint256[10]",
              "name": "stats",
              "type": "uint256[10]"
            }
          ],
          "internalType": "struct Equipment.gearStats",
          "name": "",
          "type": "tuple"
        }
      ],
      "stateMutability": "view",
      "type": "function"
    },
    {
      "inputs": [
        {
          "internalType": "uint256",
          "name": "idGear",
          "type": "uint256"
        }
      ],
      "name": "singleStats",
      "outputs": [
        {
          "components": [
            {
              "internalType": "uint256",
              "name": "class",
              "type": "uint256"
            },
            {
              "internalType": "uint256",
              "name": "slot",
              "type": "uint256"
            },
            {
              "internalType": "uint256",
              "name": "level",
              "type": "uint256"
            },
            {
              "internalType": "uint256[10]",
              "name": "stats",
              "type": "uint256[10]"
            }
          ],
          "internalType": "struct Equipment.gearStats",
          "name": "",
          "type": "tuple"
        }
      ],
      "stateMutability": "view",
      "type": "function"
    },
    {
      "inputs": [
        {
          "internalType": "address",
          "name": "powner",
          "type": "address"
        }
      ],
      "name": "getEquipment",
      "outputs": [
        {
          "internalType": "uint256[]",
          "name": "",
          "type": "uint256[]"
        }
      ],
      "stateMutability": "view",
      "type": "function"
    },
    {
      "inputs": [
        {
          "internalType": "uint256",
          "name": "_tokenId",
          "type": "uint256"
        },
        {
          "internalType": "address payable",
          "name": "_royaltiesReceipientAddress",
          "type": "address"
        },
        {
          "internalType": "uint96",
          "name": "_percentageBasisPoints",
          "type": "uint96"
        }
      ],
      "name": "setRoyalties",
      "outputs": [],
      "stateMutability": "nonpayable",
      "type": "function"
    },
    {
      "inputs": [
        {
          "internalType": "uint256",
          "name": "_tokenId",
          "type": "uint256"
        },
        {
          "internalType": "uint256",
          "name": "_salePrice",
          "type": "uint256"
        }
      ],
      "name": "royaltyInfo",
      "outputs": [
        {
          "internalType": "address",
          "name": "receiver",
          "type": "address"
        },
        {
          "internalType": "uint256",
          "name": "royaltyAmount",
          "type": "uint256"
        }
      ],
      "stateMutability": "view",
      "type": "function"
    },
    {
      "inputs": [
        {
          "internalType": "bytes4",
          "name": "interfaceId",
          "type": "bytes4"
        }
      ],
      "name": "supportsInterface",
      "outputs": [
        {
          "internalType": "bool",
          "name": "",
          "type": "bool"
        }
      ],
      "stateMutability": "view",
      "type": "function"
    },
    {
      "inputs": [
        {
          "internalType": "uint256",
          "name": "tokenId",
          "type": "uint256"
        }
      ],
      "name": "exists",
      "outputs": [
        {
          "internalType": "bool",
          "name": "",
          "type": "bool"
        }
      ],
      "stateMutability": "view",
      "type": "function"
    },
    {
      "inputs": [
        {
          "internalType": "address",
          "name": "powner",
          "type": "address"
        },
        {
          "internalType": "uint256",
          "name": "tokenId",
          "type": "uint256"
        }
      ],
      "name": "positionOf",
      "outputs": [
        {
          "internalType": "uint256",
          "name": "",
          "type": "uint256"
        }
      ],
      "stateMutability": "view",
      "type": "function"
    }
  ],
  "bytecode": "0x60806040526000601c553480156200001657600080fd5b50604080518082018252601981527f436861696e73206f6620476c6f72792045717569706d656e740000000000000060208083019182528351808501909452600384527f43474500000000000000000000000000000000000000000000000000000000009084015281519192916200009191600091620009ab565b508051620000a7906001906020840190620009ab565b505050620000d6620000c7620001cd640100000000026401000000009004565b640100000000620001d1810204565b620000fe6000620000ef640100000000620001cd810204565b64010000000062000223810204565b62000125600080516020620041ad833981519152620000ef640100000000620001cd810204565b6200015d7f3c11d16cbaffd01df69ce1c404f6340ee057498f5f00246190ea54220576a848620000ef640100000000620001cd810204565b620001957ff981fb6fdf0d58703d02e1dadceeaa95ac8ae9afe74ea698f2124fae240aabb0620000ef640100000000620001cd810204565b6200019f62000a3a565b620001c6620001b6640100000000620001cd810204565b826401000000006200026a810204565b5062000c33565b3390565b60088054600160a060020a03838116600160a060020a0319831681179093556040519116919082907f8be0079c531659141344cd1fd0a4f28419497f9722a3daafe3b4186f6b6457e090600090a35050565b6200023d828264010000000062001801620003a282021704565b60008281526007602052604090206200026590826401000000006200180b620003b782021704565b505050565b620002a0600080516020620041ad83398151915262000291640100000000620001cd810204565b640100000000620003e0810204565b62000332576040517f08c379a000000000000000000000000000000000000000000000000000000000815260206004820152602860248201527f457863657074696f6e3a206d7573742068617665206d696e74657220726f6c6560448201527f20746f206d696e7400000000000000000000000000000000000000000000000060648201526084015b60405180910390fd5b8051600d9081556020820151600e556040820151600f5560608201518291906200036190601090600a62000a69565b509050506200039e826200038a600a6200040b6401000000000262001820176401000000009004565b640100000000620018246200040f82021704565b5050565b6200039e82826401000000006200059e810204565b6000620003d783600160a060020a0384166401000000006200063c810204565b90505b92915050565b6000918252600660209081526040808420600160a060020a0393909316845291905290205460ff1690565b5490565b600160a060020a03821662000481576040517f08c379a000000000000000000000000000000000000000000000000000000000815260206004820181905260248201527f4552433732313a206d696e7420746f20746865207a65726f2061646472657373604482015260640162000329565b620004958164010000000062000694810204565b15620004fe576040517f08c379a000000000000000000000000000000000000000000000000000000000815260206004820152601c60248201527f4552433732313a20746f6b656e20616c7265616479206d696e74656400000000604482015260640162000329565b6200051560008383640100000000620006b1810204565b600160a060020a03821660009081526003602052604081208054600192906200054090849062000afd565b90915550506000818152600260205260408082208054600160a060020a031916600160a060020a03861690811790915590518392907fddf252ad1be2c89b69c2b068fc378daa952ba7f163c4a11628f55a4df523b3ef908290a45050565b620005b38282640100000000620003e0810204565b6200039e576000828152600660209081526040808320600160a060020a03851684529091529020805460ff19166001179055620005f8640100000000620001cd810204565b600160a060020a031681600160a060020a0316837f2f8788117e7eff1d82e926ec794901d17c78024a50270940304540a733656f0d60405160405180910390a45050565b6000620006538383640100000000620007d2810204565b6200068b57508154600181810184556000848152602080822090930184905584548482528286019093526040902091909155620003da565b506000620003da565b600090815260026020526040902054600160a060020a0316151590565b600160a060020a0383166200076e57600d601a6000620006e0600a640100000000620018206200040b82021704565b815260208101919091526040016000208154815560018083015490820155600280830154908201556200071c6003808301908401600a62000a99565b5090505062000740600a620007ea6401000000000262001985176401000000009004565b600160a060020a03919091166000908152601b60209081526040822080546001810182559083529120015550565b600160a060020a0382166200079257620002658382640100000000620007f3810204565b600160a060020a0382166000908152601b6020908152604082208054600181018255908352912001819055620002658382640100000000620007f3810204565b60009081526001919091016020526040902054151590565b80546001019055565b60006200080a838364010000000062000900810204565b600160a060020a0384166000908152601b60205260409020549091508110156200026557600160a060020a0383166000908152601b602052604090208054620008569060019062000b18565b8154811062000869576200086962000c04565b9060005260206000200154601b600085600160a060020a0316600160a060020a031681526020019081526020016000208281548110620008ad57620008ad62000c04565b6000918252602080832090910192909255600160a060020a0385168152601b90915260409020805480620008e557620008e562000bd5565b60019003818190600052602060002001600090559055505050565b6000805b600160a060020a0384166000908152601b60205260409020548110156200098457600160a060020a0384166000908152601b6020526040902080548491908390811062000955576200095562000c04565b906000526020600020015414156200096f579050620003da565b806200097b8162000b88565b91505062000904565b50600160a060020a0383166000908152601b6020526040902054620003d790606462000afd565b828054620009b99062000b32565b90600052602060002090601f016020900481019282620009dd576000855562000a28565b82601f10620009f857805160ff191683800117855562000a28565b8280016001018555821562000a28579182015b8281111562000a2857825182559160200191906001019062000a0b565b5062000a3692915062000ac7565b5090565b604051806080016040528060008152602001600081526020016000815260200162000a6462000ade565b905290565b82600a810192821562000a28579160200282018281111562000a2857825182559160200191906001019062000a0b565b82600a810192821562000a28579182015b8281111562000a2857825482559160010191906001019062000aaa565b5b8082111562000a36576000815560010162000ac8565b604051806101400160405280600a906020820280368337509192915050565b6000821982111562000b135762000b1362000ba6565b500190565b60008282101562000b2d5762000b2d62000ba6565b500390565b60028104600182168062000b4757607f821691505b6020821081141562000b82577f4e487b7100000000000000000000000000000000000000000000000000000000600052602260045260246000fd5b50919050565b600060001982141562000b9f5762000b9f62000ba6565b5060010190565b7f4e487b7100000000000000000000000000000000000000000000000000000000600052601160045260246000fd5b7f4e487b7100000000000000000000000000000000000000000000000000000000600052603160045260246000fd5b7f4e487b7100000000000000000000000000000000000000000000000000000000600052603260045260246000fd5b61356a8062000c436000396000f3fe608060405234801561001057600080fd5b5060043610610265576000357c0100000000000000000000000000000000000000000000000000000000900480638924af7411610158578063c87b56dd116100d5578063db20f89c11610099578063db20f89c146105c5578063e985e9c5146105e5578063ea13259114610621578063f2fde38b14610634578063fb7f972c1461064757600080fd5b8063c87b56dd14610545578063ca15c87314610558578063cad96cca1461056b578063d53913931461058b578063d547741f146105b257600080fd5b806395d89b411161011c57806395d89b41146104fc578063a217fddf14610504578063a22cb4651461050c578063a3fd0d991461051f578063b88d4fde1461053257600080fd5b80638924af74146104735780638da5cb5b146104b25780639010d07c146104c357806391d14854146104d657806392e0150b146104e957600080fd5b806333b75413116101e65780636352211e116101aa5780636352211e1461041f57806370a0823114610432578063715018a61461044557806376a66e8d1461044d5780637b2f8f9b1461046057600080fd5b806333b75413146103aa57806336568abe146103d157806342842e0e146103e45780634f558e79146103f75780635ad3a0a81461040a57600080fd5b806323b872dd1161022d57806323b872dd146102fa578063248a9ca31461030d578063282c51f31461033e5780632a55205a146103655780632f2ff15d1461039757600080fd5b806301ffc9a71461026a57806306fdde0314610292578063081812fc146102a7578063095ea7b3146102d2578063143094db146102e7575b600080fd5b61027d610278366004612e7c565b61065a565b60405190151581526020015b60405180910390f35b61029a6106df565b604051610289919061318d565b6102ba6102b5366004612e1c565b610771565b604051600160a060020a039091168152602001610289565b6102e56102e0366004612df0565b61081f565b005b6102e56102f5366004612eb6565b610957565b6102e5610308366004612bfa565b610a42565b61033061031b366004612e1c565b60009081526006602052604090206001015490565b604051908152602001610289565b6103307f3c11d16cbaffd01df69ce1c404f6340ee057498f5f00246190ea54220576a84881565b610378610373366004612e5a565b610a76565b60408051600160a060020a039093168352602083019190915201610289565b6102e56103a5366004612e35565b610b97565b6103307ff981fb6fdf0d58703d02e1dadceeaa95ac8ae9afe74ea698f2124fae240aabb081565b6102e56103df366004612e35565b610bb9565b6102e56103f2366004612bfa565b610bdb565b61027d610405366004612e1c565b610bf6565b610412610c15565b6040516102899190613149565b6102ba61042d366004612e1c565b610c6c565b610330610440366004612ba4565b610cfa565b6102e5610d97565b6102e561045b366004612f09565b610dd0565b61041261046e366004612ba4565b610eb4565b610486610481366004612e5a565b610f20565b60408051600160a060020a0390931683526bffffffffffffffffffffffff909116602083015201610289565b600854600160a060020a03166102ba565b6102ba6104d1366004612e5a565b610f7f565b61027d6104e4366004612e35565b610f9e565b6102e56104f7366004612e1c565b610fc9565b61029a611123565b610330600081565b6102e561051a366004612cff565b611132565b61033061052d366004612df0565b6111fa565b6102e5610540366004612c3b565b61129a565b61029a610553366004612e1c565b6112cf565b610330610566366004612e1c565b6113ec565b61057e610579366004612e1c565b611403565b6040516102899190613136565b6103307f9f2df0fed2c77648de5860a4cc508cd0818c85b8b8a1ab4ceeef8d981c8956a681565b6102e56105c0366004612e35565b6114a8565b6105d86105d3366004612e1c565b6114b2565b604051610289919061328f565b61027d6105f3366004612bc1565b600160a060020a03918216600090815260056020908152604080832093909416825291909152205460ff1690565b6105d861062f366004612e1c565b6115e6565b6102e5610642366004612ba4565b611663565b6102e5610655366004612d32565b61171b565b6000600160e060020a031982167f44c74bcc00000000000000000000000000000000000000000000000000000000141561069657506001919050565b600160e060020a031982167f2a55205a0000000000000000000000000000000000000000000000000000000014156106d057506001919050565b6106d98261198e565b92915050565b6060600080546106ee9061341f565b80601f016020809104026020016040519081016040528092919081815260200182805461071a9061341f565b80156107675780601f1061073c57610100808354040283529160200191610767565b820191906000526020600020905b81548152906001019060200180831161074a57829003601f168201915b5050505050905090565b600081815260026020526040812054600160a060020a03166108035760405160e560020a62461bcd02815260206004820152602c60248201527f4552433732313a20617070726f76656420717565727920666f72206e6f6e657860448201527f697374656e7420746f6b656e000000000000000000000000000000000000000060648201526084015b60405180910390fd5b50600090815260046020526040902054600160a060020a031690565b600061082a82610c6c565b905080600160a060020a031683600160a060020a031614156108b75760405160e560020a62461bcd02815260206004820152602160248201527f4552433732313a20617070726f76616c20746f2063757272656e74206f776e6560448201527f720000000000000000000000000000000000000000000000000000000000000060648201526084016107fa565b33600160a060020a03821614806108d357506108d381336105f3565b6109485760405160e560020a62461bcd02815260206004820152603860248201527f4552433732313a20617070726f76652063616c6c6572206973206e6f74206f7760448201527f6e6572206e6f7220617070726f76656420666f7220616c6c000000000000000060648201526084016107fa565b61095283836119cc565b505050565b600854600160a060020a031633146109845760405160e560020a62461bcd0281526004016107fa906131fd565b604080516001808252818301909252600091816020015b604080518082019091526000808252602082015281526020019060019003908161099b57905050905081816000815181106109d8576109d86134d7565b6020026020010151602001906bffffffffffffffffffffffff1690816bffffffffffffffffffffffff16815250508281600081518110610a1a57610a1a6134d7565b6020908102919091010151600160a060020a039091169052610a3c8482611a47565b50505050565b610a4c3382611bec565b610a6b5760405160e560020a62461bcd0281526004016107fa90613232565b610952838383611cf7565b6000828152600960209081526040808320805482518185028101850190935280835284938493929190849084015b82821015610b095760008481526020908190206040805180820190915290840154600160a060020a03811682527401000000000000000000000000000000000000000090046bffffffffffffffffffffffff1681830152825260019092019101610aa4565b505050509050600081511115610b875780600081518110610b2c57610b2c6134d7565b60200260200101516000015161271082600081518110610b4e57610b4e6134d7565b6020026020010151602001516bffffffffffffffffffffffff1686610b7391906133a6565b610b7d9190613392565b9250925050610b90565b60008092509250505b9250929050565b610ba18282611ee2565b6000828152600760205260409020610952908261180b565b610bc38282611f08565b60008281526007602052604090206109529082611f93565b6109528383836040518060200160405280600081525061129a565b600081815260026020526040812054600160a060020a031615156106d9565b6060600c80548060200260200160405190810160405280929190818152602001828054801561076757602002820191906000526020600020905b815481526020019060010190808311610c4f575050505050905090565b600081815260026020526040812054600160a060020a0316806106d95760405160e560020a62461bcd02815260206004820152602960248201527f4552433732313a206f776e657220717565727920666f72206e6f6e657869737460448201527f656e7420746f6b656e000000000000000000000000000000000000000000000060648201526084016107fa565b6000600160a060020a038216610d7b5760405160e560020a62461bcd02815260206004820152602a60248201527f4552433732313a2062616c616e636520717565727920666f7220746865207a6560448201527f726f20616464726573730000000000000000000000000000000000000000000060648201526084016107fa565b50600160a060020a031660009081526003602052604090205490565b600854600160a060020a03163314610dc45760405160e560020a62461bcd0281526004016107fa906131fd565b610dce6000611fa8565b565b600854600160a060020a03163314610dfd5760405160e560020a62461bcd0281526004016107fa906131fd565b80518214610e9c5760405160e560020a62461bcd02815260206004820152604860248201527f457863657074696f6e3a206d7573742070726f766964652061206d617472697860448201527f206f662076616c756573206f66207468652073616d65206c656e67687420746860648201527f616e206c6576656c000000000000000000000000000000000000000000000000608482015260a4016107fa565b600b829055805161095290600c906020840190612aa0565b600160a060020a0381166000908152601b6020908152604091829020805483518184028101840190945280845260609392830182828015610f1457602002820191906000526020600020905b815481526020019060010190808311610f00575b50505050509050919050565b60096020528160005260406000208181548110610f3c57600080fd5b600091825260209091200154600160a060020a03811692507401000000000000000000000000000000000000000090046bffffffffffffffffffffffff16905082565b6000828152600760205260408120610f979083612007565b9392505050565b6000918252600660209081526040808420600160a060020a0393909316845291905290205460ff1690565b610ff37ff981fb6fdf0d58703d02e1dadceeaa95ac8ae9afe74ea698f2124fae240aabb033610f9e565b6110685760405160e560020a62461bcd02815260206004820152603360248201527f457863657074696f6e3a206f6e6c792074686520506f6c796d6174682063616e60448201527f2063616c6c20746869732066756e6374696f6e0000000000000000000000000060648201526084016107fa565b600b546000828152601a602052604090206002015461108890600161337a565b106110fe5760405160e560020a62461bcd02815260206004820152602c60248201527f457863657074696f6e3a2065717569706d656e7420697320616c72656164792060448201527f6174206d6178206c6576656c000000000000000000000000000000000000000060648201526084016107fa565b6000818152601a6020526040812060020180549161111b8361345d565b919050555050565b6060600180546106ee9061341f565b600160a060020a03821633141561118e5760405160e560020a62461bcd02815260206004820152601960248201527f4552433732313a20617070726f766520746f2063616c6c65720000000000000060448201526064016107fa565b336000818152600560209081526040808320600160a060020a03871680855290835292819020805460ff191686151590811790915590519081529192917f17307eab39ab6107e8899845ad3d59bd9653f200f220920489ca2b5937696c31910160405180910390a35050565b6000805b600160a060020a0384166000908152601b602052604090205481101561127557600160a060020a0384166000908152601b6020526040902080548491908390811061124b5761124b6134d7565b906000526020600020015414156112635790506106d9565b8061126d8161345d565b9150506111fe565b50600160a060020a0383166000908152601b6020526040902054610f9790606461337a565b6112a43383611bec565b6112c35760405160e560020a62461bcd0281526004016107fa90613232565b610a3c84848484612013565b600081815260026020526040902054606090600160a060020a031661135f5760405160e560020a62461bcd02815260206004820152602f60248201527f4552433732314d657461646174613a2055524920717565727920666f72206e6f60448201527f6e6578697374656e7420746f6b656e000000000000000000000000000000000060648201526084016107fa565b600061139b60408051808201909152601f81527f68747470733a2f2f6578616d706c65646f6d61696e2f6d657461646174612f00602082015290565b905060008151116113bb5760405180602001604052806000815250610f97565b806113c584612049565b6040516020016113d692919061304a565b6040516020818303038152906040529392505050565b60008181526007602052604081206106d990612182565b606060096000838152602001908152602001600020805480602002602001604051908101604052809291908181526020016000905b8282101561149d5760008481526020908190206040805180820190915290840154600160a060020a03811682527401000000000000000000000000000000000000000090046bffffffffffffffffffffffff1681830152825260019092019101611438565b505050509050919050565b610bc3828261218c565b6114ba612aeb565b6114c2612aeb565b6000838152601a602090815260409182902082516080810184528154815260018201549281019290925260028101548284015282516101408101938490529192909160608401916003840190600a9082845b81548152602001906001019080831161151457505050505081525050905080604001516000146106d9576000600c826040015181548110611557576115576134d7565b9060005260206000200154905060005b600a8110156115de57606482846060015183600a8110611589576115896134d7565b602002015161159891906133a6565b6115a29190613392565b836060015182600a81106115b8576115b86134d7565b602002018181516115c9919061337a565b905250806115d68161345d565b915050611567565b505092915050565b6115ee612aeb565b6000828152601a602090815260409182902082516080810184528154815260018201549281019290925260028101548284015282516101408101938490529192909160608401916003840190600a9082845b815481526020019060010190808311611640575050505050815250509050919050565b600854600160a060020a031633146116905760405160e560020a62461bcd0281526004016107fa906131fd565b600160a060020a03811661170f5760405160e560020a62461bcd02815260206004820152602660248201527f4f776e61626c653a206e6577206f776e657220697320746865207a65726f206160448201527f646472657373000000000000000000000000000000000000000000000000000060648201526084016107fa565b61171881611fa8565b50565b6117457f9f2df0fed2c77648de5860a4cc508cd0818c85b8b8a1ab4ceeef8d981c8956a633610f9e565b6117ba5760405160e560020a62461bcd02815260206004820152602860248201527f457863657074696f6e3a206d7573742068617665206d696e74657220726f6c6560448201527f20746f206d696e7400000000000000000000000000000000000000000000000060648201526084016107fa565b8051600d9081556020820151600e556040820151600f5560608201518291906117e790601090600a612b18565b509050506117fd826117f8600a5490565b611824565b5050565b6117fd82826121b2565b6000610f9783600160a060020a038416612238565b5490565b600160a060020a03821661187d5760405160e560020a62461bcd02815260206004820181905260248201527f4552433732313a206d696e7420746f20746865207a65726f206164647265737360448201526064016107fa565b600081815260026020526040902054600160a060020a0316156118e55760405160e560020a62461bcd02815260206004820152601c60248201527f4552433732313a20746f6b656e20616c7265616479206d696e7465640000000060448201526064016107fa565b6118f160008383612287565b600160a060020a038216600090815260036020526040812080546001929061191a90849061337a565b9091555050600081815260026020526040808220805473ffffffffffffffffffffffffffffffffffffffff1916600160a060020a03861690811790915590518392907fddf252ad1be2c89b69c2b068fc378daa952ba7f163c4a11628f55a4df523b3ef908290a45050565b80546001019055565b6000600160e060020a031982167f5a05180f0000000000000000000000000000000000000000000000000000000014806106d957506106d982612365565b6000818152600460205260409020805473ffffffffffffffffffffffffffffffffffffffff1916600160a060020a0384169081179091558190611a0e82610c6c565b600160a060020a03167f8c5be1e5ebec7d5bd14f71427d1e84f3dd0314c0f7b2291e5b200ac8c7c3b92560405160405180910390a45050565b60005b8151811015611be1576000600160a060020a0316828281518110611a7057611a706134d7565b602002602001015160000151600160a060020a03161415611ad65760405160e560020a62461bcd02815260206004820152601b60248201527f526563697069656e742073686f756c642062652070726573656e74000000000060448201526064016107fa565b818181518110611ae857611ae86134d7565b6020026020010151602001516bffffffffffffffffffffffff1660001415611b555760405160e560020a62461bcd02815260206004820181905260248201527f526f79616c74792076616c75652073686f756c6420626520706f73697469766560448201526064016107fa565b60008381526009602052604090208251839083908110611b7757611b776134d7565b6020908102919091018101518254600181018455600093845292829020815191909201516bffffffffffffffffffffffff167401000000000000000000000000000000000000000002600160a060020a039091161791015580611bd98161345d565b915050611a4a565b506117fd82826123a3565b600081815260026020526040812054600160a060020a0316611c795760405160e560020a62461bcd02815260206004820152602c60248201527f4552433732313a206f70657261746f7220717565727920666f72206e6f6e657860448201527f697374656e7420746f6b656e000000000000000000000000000000000000000060648201526084016107fa565b6000611c8483610c6c565b905080600160a060020a031684600160a060020a03161480611cbf575083600160a060020a0316611cb484610771565b600160a060020a0316145b80611cef5750600160a060020a0380821660009081526005602090815260408083209388168352929052205460ff165b949350505050565b82600160a060020a0316611d0a82610c6c565b600160a060020a031614611d895760405160e560020a62461bcd02815260206004820152602960248201527f4552433732313a207472616e73666572206f6620746f6b656e2074686174206960448201527f73206e6f74206f776e000000000000000000000000000000000000000000000060648201526084016107fa565b600160a060020a038216611e075760405160e560020a62461bcd028152602060048201526024808201527f4552433732313a207472616e7366657220746f20746865207a65726f2061646460448201527f726573730000000000000000000000000000000000000000000000000000000060648201526084016107fa565b611e12838383612287565b611e1d6000826119cc565b600160a060020a0383166000908152600360205260408120805460019290611e469084906133c5565b9091555050600160a060020a0382166000908152600360205260408120805460019290611e7490849061337a565b9091555050600081815260026020526040808220805473ffffffffffffffffffffffffffffffffffffffff1916600160a060020a0386811691821790925591518493918716917fddf252ad1be2c89b69c2b068fc378daa952ba7f163c4a11628f55a4df523b3ef91a4505050565b600082815260066020526040902060010154611efe81336123e0565b61095283836121b2565b600160a060020a0381163314611f895760405160e560020a62461bcd02815260206004820152602f60248201527f416363657373436f6e74726f6c3a2063616e206f6e6c792072656e6f756e636560448201527f20726f6c657320666f722073656c66000000000000000000000000000000000060648201526084016107fa565b6117fd8282612447565b6000610f9783600160a060020a0384166124ae565b60088054600160a060020a0383811673ffffffffffffffffffffffffffffffffffffffff19831681179093556040519116919082907f8be0079c531659141344cd1fd0a4f28419497f9722a3daafe3b4186f6b6457e090600090a35050565b6000610f9783836125a1565b61201e848484611cf7565b61202a848484846125cb565b610a3c5760405160e560020a62461bcd0281526004016107fa906131a0565b60608161208957505060408051808201909152600181527f3000000000000000000000000000000000000000000000000000000000000000602082015290565b8160005b81156120b3578061209d8161345d565b91506120ac9050600a83613392565b915061208d565b60008167ffffffffffffffff8111156120ce576120ce6134f0565b6040519080825280601f01601f1916602001820160405280156120f8576020820181803683370190505b5090505b8415611cef5761210d6001836133c5565b915061211a600a86613478565b61212590603061337a565b7f010000000000000000000000000000000000000000000000000000000000000002818381518110612159576121596134d7565b6020010190600160f860020a031916908160001a90535061217b600a86613392565b94506120fc565b60006106d9825490565b6000828152600660205260409020600101546121a881336123e0565b6109528383612447565b6121bc8282610f9e565b6117fd576000828152600660209081526040808320600160a060020a03851684529091529020805460ff191660011790556121f43390565b600160a060020a031681600160a060020a0316837f2f8788117e7eff1d82e926ec794901d17c78024a50270940304540a733656f0d60405160405180910390a45050565b600081815260018301602052604081205461227f575081546001818101845560008481526020808220909301849055845484825282860190935260409020919091556106d9565b5060006106d9565b600160a060020a03831661231857600d601a60006122a4600a5490565b815260208101919091526040016000208154815560018083015490820155600280830154908201556122de6003808301908401600a612b45565b5050600a8054600101905550600160a060020a03919091166000908152601b60209081526040822080546001810182559083529120015550565b600160a060020a03821661233057610952838261270d565b600160a060020a0382166000908152601b6020908152604082208054600181018255908352912001819055610952838261270d565b6000600160e060020a031982167f7965db0b0000000000000000000000000000000000000000000000000000000014806106d957506106d982612803565b7f3fa96d7b6bcbfe71ef171666d84db3cf52fa2d1c8afdb1cc8e486177f208b7df82826040516123d49291906132e3565b60405180910390a15050565b6123ea8282610f9e565b6117fd5761240281600160a060020a0316601461289e565b61240d83602061289e565b60405160200161241e929190613079565b60408051601f198184030181529082905260e560020a62461bcd0282526107fa9160040161318d565b6124518282610f9e565b156117fd576000828152600660209081526040808320600160a060020a0385168085529252808320805460ff1916905551339285917ff6391f5c32d9c69d2a47ea670b442974b53935d1edc7fd64eb21e047a839171b9190a45050565b600081815260018301602052604081205480156125975760006124d26001836133c5565b85549091506000906124e6906001906133c5565b905081811461254b576000866000018281548110612506576125066134d7565b9060005260206000200154905080876000018481548110612529576125296134d7565b6000918252602080832090910192909255918252600188019052604090208390555b855486908061255c5761255c6134be565b6001900381819060005260206000200160009055905585600101600086815260200190815260200160002060009055600193505050506106d9565b60009150506106d9565b60008260000182815481106125b8576125b86134d7565b9060005260206000200154905092915050565b6000600160a060020a0384163b15612702576040517f150b7a02000000000000000000000000000000000000000000000000000000008152600160a060020a0385169063150b7a02906126289033908990889088906004016130fa565b602060405180830381600087803b15801561264257600080fd5b505af1925050508015612672575060408051601f3d908101601f1916820190925261266f91810190612e99565b60015b6126cf573d8080156126a0576040519150601f19603f3d011682016040523d82523d6000602084013e6126a5565b606091505b5080516126c75760405160e560020a62461bcd0281526004016107fa906131a0565b805181602001fd5b600160e060020a0319167f150b7a0200000000000000000000000000000000000000000000000000000000149050611cef565b506001949350505050565b600061271983836111fa565b600160a060020a0384166000908152601b602052604090205490915081101561095257600160a060020a0383166000908152601b602052604090208054612762906001906133c5565b81548110612772576127726134d7565b9060005260206000200154601b600085600160a060020a0316600160a060020a0316815260200190815260200160002082815481106127b3576127b36134d7565b6000918252602080832090910192909255600160a060020a0385168152601b909152604090208054806127e8576127e86134be565b60019003818190600052602060002001600090559055505050565b6000600160e060020a031982167f80ac58cd0000000000000000000000000000000000000000000000000000000014806128665750600160e060020a031982167f5b5e139f00000000000000000000000000000000000000000000000000000000145b806106d957507f01ffc9a700000000000000000000000000000000000000000000000000000000600160e060020a03198316146106d9565b606060006128ad8360026133a6565b6128b890600261337a565b67ffffffffffffffff8111156128d0576128d06134f0565b6040519080825280601f01601f1916602001820160405280156128fa576020820181803683370190505b5090507f300000000000000000000000000000000000000000000000000000000000000081600081518110612931576129316134d7565b6020010190600160f860020a031916908160001a9053507f78000000000000000000000000000000000000000000000000000000000000008160018151811061297c5761297c6134d7565b6020010190600160f860020a031916908160001a90535060006129a08460026133a6565b6129ab90600161337a565b90505b6001811115612a4e577f303132333435363738396162636465660000000000000000000000000000000085600f16601081106129ec576129ec6134d7565b1a7f010000000000000000000000000000000000000000000000000000000000000002828281518110612a2157612a216134d7565b6020010190600160f860020a031916908160001a905350601090940493612a4781613408565b90506129ae565b508315610f975760405160e560020a62461bcd02815260206004820181905260248201527f537472696e67733a20686578206c656e67746820696e73756666696369656e7460448201526064016107fa565b828054828255906000526020600020908101928215612adb579160200282015b82811115612adb578251825591602001919060010190612ac0565b50612ae7929150612b70565b5090565b6040518060800160405280600081526020016000815260200160008152602001612b13612b85565b905290565b82600a8101928215612adb5791602002820182811115612adb578251825591602001919060010190612ac0565b82600a8101928215612adb579182015b82811115612adb578254825591600101919060010190612b55565b5b80821115612ae75760008155600101612b71565b604051806101400160405280600a906020820280368337509192915050565b600060208284031215612bb657600080fd5b8135610f9781613509565b60008060408385031215612bd457600080fd5b8235612bdf81613509565b91506020830135612bef81613509565b809150509250929050565b600080600060608486031215612c0f57600080fd5b8335612c1a81613509565b92506020840135612c2a81613509565b929592945050506040919091013590565b60008060008060808587031215612c5157600080fd5b8435612c5c81613509565b9350602085810135612c6d81613509565b935060408601359250606086013567ffffffffffffffff80821115612c9157600080fd5b818801915088601f830112612ca557600080fd5b813581811115612cb757612cb76134f0565b612cc9601f8201601f19168501613349565b91508082528984828501011115612cdf57600080fd5b808484018584013760008482840101525080935050505092959194509250565b60008060408385031215612d1257600080fd5b8235612d1d81613509565b915060208301358015158114612bef57600080fd5b6000808284036101c080821215612d4857600080fd5b8435612d5381613509565b935060206101a0601f1984011215612d6a57600080fd5b612d726132fc565b92508086013583526040860135818401526060860135604084015286609f870112612d9c57600080fd5b612da4613325565b806080880189858a011115612db857600080fd5b600094505b600a851015612ddc578035835260019490940193918301918301612dbd565b506060850152509396919550909350505050565b60008060408385031215612e0357600080fd5b8235612e0e81613509565b946020939093013593505050565b600060208284031215612e2e57600080fd5b5035919050565b60008060408385031215612e4857600080fd5b823591506020830135612bef81613509565b60008060408385031215612e6d57600080fd5b50508035926020909101359150565b600060208284031215612e8e57600080fd5b8135610f978161351e565b600060208284031215612eab57600080fd5b8151610f978161351e565b600080600060608486031215612ecb57600080fd5b833592506020840135612edd81613509565b915060408401356bffffffffffffffffffffffff81168114612efe57600080fd5b809150509250925092565b60008060408385031215612f1c57600080fd5b8235915060208084013567ffffffffffffffff80821115612f3c57600080fd5b818601915086601f830112612f5057600080fd5b813581811115612f6257612f626134f0565b8381029150612f72848301613349565b8181528481019084860184860187018b1015612f8d57600080fd5b600095505b83861015612fb0578035835260019590950194918601918601612f92565b508096505050505050509250929050565b600081518084526020808501945080840160005b838110156130135781518051600160a060020a031688528301516bffffffffffffffffffffffff168388015260409096019590820190600101612fd5565b509495945050505050565b600081518084526130368160208601602086016133dc565b601f01601f19169290920160200192915050565b6000835161305c8184602088016133dc565b8351908301906130708183602088016133dc565b01949350505050565b7f416363657373436f6e74726f6c3a206163636f756e74200000000000000000008152600083516130b18160178501602088016133dc565b7f206973206d697373696e6720726f6c652000000000000000000000000000000060179184019182015283516130ee8160288401602088016133dc565b01602801949350505050565b6000600160a060020a0380871683528086166020840152508360408301526080606083015261312c608083018461301e565b9695505050505050565b602081526000610f976020830184612fc1565b6020808252825182820181905260009190848201906040850190845b8181101561318157835183529284019291840191600101613165565b50909695505050505050565b602081526000610f97602083018461301e565b60208082526032908201527f4552433732313a207472616e7366657220746f206e6f6e20455243373231526560408201527f63656976657220696d706c656d656e7465720000000000000000000000000000606082015260800190565b6020808252818101527f4f776e61626c653a2063616c6c6572206973206e6f7420746865206f776e6572604082015260600190565b60208082526031908201527f4552433732313a207472616e736665722063616c6c6572206973206e6f74206f60408201527f776e6572206e6f7220617070726f766564000000000000000000000000000000606082015260800190565b60006101a08201905082518252602080840151818401526040840151604084015260608401516060840160005b600a8110156132d9578251825291830191908301906001016132bc565b5050505092915050565b828152604060208201526000611cef6040830184612fc1565b6040516080810167ffffffffffffffff8111828210171561331f5761331f6134f0565b60405290565b604051610140810167ffffffffffffffff8111828210171561331f5761331f6134f0565b604051601f8201601f1916810167ffffffffffffffff81118282101715613372576133726134f0565b604052919050565b6000821982111561338d5761338d61348c565b500190565b6000826133a1576133a16134a5565b500490565b60008160001904831182151516156133c0576133c061348c565b500290565b6000828210156133d7576133d761348c565b500390565b60005b838110156133f75781810151838201526020016133df565b83811115610a3c5750506000910152565b6000816134175761341761348c565b506000190190565b60028104600182168061343357607f821691505b602082108114156134575760e060020a634e487b7102600052602260045260246000fd5b50919050565b60006000198214156134715761347161348c565b5060010190565b600082613487576134876134a5565b500690565b60e060020a634e487b7102600052601160045260246000fd5b60e060020a634e487b7102600052601260045260246000fd5b60e060020a634e487b7102600052603160045260246000fd5b60e060020a634e487b7102600052603260045260246000fd5b60e060020a634e487b7102600052604160045260246000fd5b600160a060020a038116811461171857600080fd5b600160e060020a03198116811461171857600080fdfea26469706673582212203939a71a00bd6cbd3c456d2a6c5b5b4cfd3ff4ea8421f9a2d17f3882b8bde60764736f6c634300080600339f2df0fed2c77648de5860a4cc508cd0818c85b8b8a1ab4ceeef8d981c8956a6",
  "immutableReferences": {},
  "source": "//SPDX-License-Identifier: MIT\npragma solidity ^0.8.0;\n\nimport \"@openzeppelin/contracts/token/ERC721/ERC721.sol\";\nimport \"@openzeppelin/contracts/access/Ownable.sol\";\nimport \"@openzeppelin/contracts/access/AccessControlEnumerable.sol\";\nimport \"@openzeppelin/contracts/utils/Counters.sol\";\nimport \"./rarible/royalties/contracts/impl/RoyaltiesV2Impl.sol\";\nimport \"./rarible/royalties/contracts/LibPart.sol\";\nimport \"./rarible/royalties/contracts/LibRoyaltiesV2.sol\";\n\ncontract Equipment is ERC721, AccessControlEnumerable, Ownable, RoyaltiesV2Impl {\n    using Counters for Counters.Counter;\n    Counters.Counter private _tokenIdTracker;\n    \n    //Adds support for OpenSea\n    bytes4 private constant _INTERFACE_ID_ERC2981 = 0x2a55205a;\n\n    //Roles of monter and burner\n    bytes32 public constant MINTER_ROLE = keccak256(\"MINTER_ROLE\");\n    bytes32 public constant BURNER_ROLE = keccak256(\"BURNER_ROLE\");\n    bytes32 public constant POLYMATH_ROLE = keccak256(\"POLYMATH_ROLE\");\n\n    //Stats of players and enemies\n    struct gearStats {\n        uint class;\t            //Index on the NFT for client use\n        uint slot;\t\t        //0-Head 1-Neck 2-Chest 3-Belt 4-Legs 5-Feet 6-Arms \n                                //7-RHand (weapon) 8-LHand(complement) 9-Finger 10-Mount 100-Wildcard\n        uint level;     \t    //By default is 0. Evolvable NFTs may upgrade this level\n        uint256[10] stats;      //0-Health 1-Vitality 2-Attack 3-Defense 4-Mastery \n                                //5-Speed 6-Luck 7-Faith 8-reserved 9-reserved\n    }\n\n    //maximum level a gear can go. \n    //This value may be updated based on the current tier\n    //For first tier we may limit to 10, the for second to 20, etc...\n    //The upgrade matrix MUST be also updated in order to go further with tiers\n    uint maxLevel;\n\n    //It MUST contains the coeficients to apply to each level upgrade\n    //There must be the same amount of element as maxLevel\n    //For example, in tier 1 maxLevel=10\n    //upgradeMatrix=[0, 5, 10, 14, 18, 21, 24, 26, 28, 30]\n    //Each level means the percentage of upgrade for the level regarding the basic stats    \n    uint256[] upgradeMatrix;\n\n    //Used by _beforeTokenTransfer to catch the after minting\n    gearStats private gearToMint;\n\n\n    //Mapping from NFT to struct\n    mapping(uint256 => gearStats) private values;\n\n    // Mapping from owner address to token ID. It is used to quickly get all NFTs on an address\n    mapping(address => uint256[]) private _tokensByOwner;\n\n    //Generic random counter, used to add a bit more of entropy\n    uint randomNonce=0;\n\n    constructor() ERC721(\"Chains of Glory Equipment\", \"CGE\")  {\n        _setupRole(DEFAULT_ADMIN_ROLE, _msgSender());\n\n        _setupRole(MINTER_ROLE, _msgSender());\n        _setupRole(BURNER_ROLE, _msgSender());\n        _setupRole(POLYMATH_ROLE, _msgSender());\n\n        gearStats memory gear;\n        //Creates the 0 NFT which is special. Means 'empty slot' for the characters\n        mint(_msgSender(), gear);\n    }\n\n    function mint(address _to, gearStats memory data) public {\n        require(hasRole(MINTER_ROLE, _msgSender()), \"Exception: must have minter role to mint\");\n        \n        //Stores the struct to assign when mint os ok\n        gearToMint=data;\n        super._mint(_to, _tokenIdTracker.current()); \n    }\n\n    //Update the level of the gear and recalculates all stats\n    //Only Polymath role can do it. \n    //To recalculate stats function uses the upgrade matrix. See above...\n    function updateLevel(uint256 gear) public {\n        require(hasRole(POLYMATH_ROLE, _msgSender()), \"Exception: only the Polymath can call this function\");\n        require((values[gear].level + 1) < maxLevel, \"Exception: equipment is already at max level\");\n        \n        values[gear].level++;\n    }\n\n    //Set the max level of the gears\n    function setMaxLevel(uint lvl, uint256[] memory matrixValues) public {\n        require(owner() == _msgSender(), \"Ownable: caller is not the owner\");\n        require(lvl == matrixValues.length, \"Exception: must provide a matrix of values of the same lenght than level\");\n\n        maxLevel=lvl;\n        upgradeMatrix=matrixValues;\n    }\n\n    function getMatrix() public view returns (uint256[] memory){\n        return upgradeMatrix;\n    }\n\n    function _beforeTokenTransfer(address from, address to, uint256 tokenId) internal virtual override(ERC721) {\n        if(from==address(0)) {\n            //Minting ok, creates struct of stats\n            values[_tokenIdTracker.current()] = gearToMint;\n            _tokenIdTracker.increment();\n\n            //Updates the _tokensByOwner mapping            \n            _tokensByOwner[to].push(tokenId);\n        } else if(to==address(0)) {\n            //Burning\n\n            //Updates the _tokensByOwner mapping\n            deleteTokenId(from, tokenId);\n        } else {\n            //Normal transfer\n\n            //Updates the _tokensByOwner mapping\n            _tokensByOwner[to].push(tokenId);\n            deleteTokenId(from, tokenId);\n        }\n    }\n\n    //Returns the base gearStats of the NFT \n    function baseStats(uint256 idGear) public view returns(gearStats memory) {\n        return values[idGear];\n    }\n\n    //Returns the gearStats of the NFT aplying the level modifier\n    function singleStats(uint256 idGear) public view returns(gearStats memory) {\n        gearStats memory baseGear;\n        baseGear=values[idGear];\n        if(baseGear.level!=0) {\n            uint256 multiplier=upgradeMatrix[baseGear.level];        \n            for(uint i=0; i< baseGear.stats.length; i++) {\n                baseGear.stats[i]+=(baseGear.stats[i]*multiplier)/100;\n            }\n        }\n        return baseGear;\n    }\n\n    //Returns the array of NFTs owned by an address\n    function getEquipment(address powner) public view returns (uint256[] memory) {\n        return _tokensByOwner[powner];\n    }\n\n    function _baseURI() internal view virtual override returns (string memory) {\n        return \"https://exampledomain/metadata/\";\n    }\n\n    function setRoyalties(uint256 _tokenId, address payable _royaltiesReceipientAddress, uint96 _percentageBasisPoints) public onlyOwner {\n        LibPart.Part[] memory _royalties = new LibPart.Part[](1);\n        _royalties[0].value = _percentageBasisPoints;\n        _royalties[0].account = _royaltiesReceipientAddress;\n        _saveRoyalties(_tokenId, _royalties);\n    }\n\n    function royaltyInfo(uint256 _tokenId, uint256 _salePrice ) external view returns ( address receiver, uint256 royaltyAmount) {\n        LibPart.Part[] memory _royalties = royalties[_tokenId];\n        if(_royalties.length > 0) {\n            return(_royalties[0].account, (_salePrice * _royalties[0].value)/10000);\n        }\n        return (address(0), 0);\n    }\n\n    function supportsInterface(bytes4 interfaceId) public view virtual override(ERC721, AccessControlEnumerable) returns (bool) {\n        if (interfaceId == LibRoyaltiesV2._INTERFACE_ID_ROYALTIES) {\n            return true;\n        }\n\n        if(interfaceId == _INTERFACE_ID_ERC2981) {\n            return true;\n        }\n\n        return super.supportsInterface(interfaceId);\n    }\n\n    //Public wrapper of _exists\n    function exists(uint256 tokenId) public view returns (bool) {\n        return _exists(tokenId);\n    }\n\n    //Pseudo random. I think is enough for the game\n    function randMod(uint _modulus) internal returns(uint) {\n        randomNonce++; \n        return uint(keccak256(abi.encodePacked(block.timestamp, msg.sender, randomNonce))) % _modulus;\n    }\n\n    //************************************************************\n    // ARRAY functions \n    //************************************************************\n    function positionOf(address powner, uint256 tokenId) public view returns (uint) {\n        for(uint i=0; i<_tokensByOwner[powner].length; i++) {\n            if(_tokensByOwner[powner][i]==tokenId)\n                return i;\n        }\n        return _tokensByOwner[powner].length+100;\n    }\n\n    function deleteTokenId(address powner, uint256 tokenId) internal {\n        //Updates the _tokensByOwner mapping\n        uint pos=positionOf(powner, tokenId);\n        if(pos<_tokensByOwner[powner].length) {\n            _tokensByOwner[powner][pos]= _tokensByOwner[powner][ _tokensByOwner[powner].length-1];\n            _tokensByOwner[powner].pop();\n        }\n    }\n}\n",
  "sourcePath": "/home/javi/ChainsOfGlory/contracts/Equipment.sol",
  "compiler": {
    "name": "solc",
    "version": "0.8.6+commit.11564f7e.Emscripten.clang"
  },
  "schemaVersion": "3.4.3",
  "updatedAt": "2021-11-22T19:51:36.938Z",
  "devdoc": {
    "kind": "dev",
    "methods": {
      "approve(address,uint256)": {
        "details": "See {IERC721-approve}."
      },
      "balanceOf(address)": {
        "details": "See {IERC721-balanceOf}."
      },
      "getApproved(uint256)": {
        "details": "See {IERC721-getApproved}."
      },
      "getRoleAdmin(bytes32)": {
        "details": "Returns the admin role that controls `role`. See {grantRole} and {revokeRole}. To change a role's admin, use {_setRoleAdmin}."
      },
      "getRoleMember(bytes32,uint256)": {
        "details": "Returns one of the accounts that have `role`. `index` must be a value between 0 and {getRoleMemberCount}, non-inclusive. Role bearers are not sorted in any particular way, and their ordering may change at any point. WARNING: When using {getRoleMember} and {getRoleMemberCount}, make sure you perform all queries on the same block. See the following https://forum.openzeppelin.com/t/iterating-over-elements-on-enumerableset-in-openzeppelin-contracts/2296[forum post] for more information."
      },
      "getRoleMemberCount(bytes32)": {
        "details": "Returns the number of accounts that have `role`. Can be used together with {getRoleMember} to enumerate all bearers of a role."
      },
      "grantRole(bytes32,address)": {
        "details": "Overload {grantRole} to track enumerable memberships"
      },
      "hasRole(bytes32,address)": {
        "details": "Returns `true` if `account` has been granted `role`."
      },
      "isApprovedForAll(address,address)": {
        "details": "See {IERC721-isApprovedForAll}."
      },
      "name()": {
        "details": "See {IERC721Metadata-name}."
      },
      "owner()": {
        "details": "Returns the address of the current owner."
      },
      "ownerOf(uint256)": {
        "details": "See {IERC721-ownerOf}."
      },
      "renounceOwnership()": {
        "details": "Leaves the contract without owner. It will not be possible to call `onlyOwner` functions anymore. Can only be called by the current owner. NOTE: Renouncing ownership will leave the contract without an owner, thereby removing any functionality that is only available to the owner."
      },
      "renounceRole(bytes32,address)": {
        "details": "Overload {renounceRole} to track enumerable memberships"
      },
      "revokeRole(bytes32,address)": {
        "details": "Overload {revokeRole} to track enumerable memberships"
      },
      "safeTransferFrom(address,address,uint256)": {
        "details": "See {IERC721-safeTransferFrom}."
      },
      "safeTransferFrom(address,address,uint256,bytes)": {
        "details": "See {IERC721-safeTransferFrom}."
      },
      "setApprovalForAll(address,bool)": {
        "details": "See {IERC721-setApprovalForAll}."
      },
      "symbol()": {
        "details": "See {IERC721Metadata-symbol}."
      },
      "tokenURI(uint256)": {
        "details": "See {IERC721Metadata-tokenURI}."
      },
      "transferFrom(address,address,uint256)": {
        "details": "See {IERC721-transferFrom}."
      },
      "transferOwnership(address)": {
        "details": "Transfers ownership of the contract to a new account (`newOwner`). Can only be called by the current owner."
      }
    },
    "version": 1
  },
  "userdoc": {
    "kind": "user",
    "methods": {},
    "version": 1
  }
}