{
  "contractName": "Equipment",
  "abi": [
    {
      "inputs": [],
      "stateMutability": "nonpayable",
      "type": "constructor"
    },
    {
      "anonymous": false,
      "inputs": [
        {
          "indexed": true,
          "internalType": "address",
          "name": "owner",
          "type": "address"
        },
        {
          "indexed": true,
          "internalType": "address",
          "name": "approved",
          "type": "address"
        },
        {
          "indexed": true,
          "internalType": "uint256",
          "name": "tokenId",
          "type": "uint256"
        }
      ],
      "name": "Approval",
      "type": "event"
    },
    {
      "anonymous": false,
      "inputs": [
        {
          "indexed": true,
          "internalType": "address",
          "name": "owner",
          "type": "address"
        },
        {
          "indexed": true,
          "internalType": "address",
          "name": "operator",
          "type": "address"
        },
        {
          "indexed": false,
          "internalType": "bool",
          "name": "approved",
          "type": "bool"
        }
      ],
      "name": "ApprovalForAll",
      "type": "event"
    },
    {
      "anonymous": false,
      "inputs": [
        {
          "indexed": true,
          "internalType": "address",
          "name": "previousOwner",
          "type": "address"
        },
        {
          "indexed": true,
          "internalType": "address",
          "name": "newOwner",
          "type": "address"
        }
      ],
      "name": "OwnershipTransferred",
      "type": "event"
    },
    {
      "anonymous": false,
      "inputs": [
        {
          "indexed": true,
          "internalType": "bytes32",
          "name": "role",
          "type": "bytes32"
        },
        {
          "indexed": true,
          "internalType": "bytes32",
          "name": "previousAdminRole",
          "type": "bytes32"
        },
        {
          "indexed": true,
          "internalType": "bytes32",
          "name": "newAdminRole",
          "type": "bytes32"
        }
      ],
      "name": "RoleAdminChanged",
      "type": "event"
    },
    {
      "anonymous": false,
      "inputs": [
        {
          "indexed": true,
          "internalType": "bytes32",
          "name": "role",
          "type": "bytes32"
        },
        {
          "indexed": true,
          "internalType": "address",
          "name": "account",
          "type": "address"
        },
        {
          "indexed": true,
          "internalType": "address",
          "name": "sender",
          "type": "address"
        }
      ],
      "name": "RoleGranted",
      "type": "event"
    },
    {
      "anonymous": false,
      "inputs": [
        {
          "indexed": true,
          "internalType": "bytes32",
          "name": "role",
          "type": "bytes32"
        },
        {
          "indexed": true,
          "internalType": "address",
          "name": "account",
          "type": "address"
        },
        {
          "indexed": true,
          "internalType": "address",
          "name": "sender",
          "type": "address"
        }
      ],
      "name": "RoleRevoked",
      "type": "event"
    },
    {
      "anonymous": false,
      "inputs": [
        {
          "indexed": false,
          "internalType": "uint256",
          "name": "tokenId",
          "type": "uint256"
        },
        {
          "components": [
            {
              "internalType": "address payable",
              "name": "account",
              "type": "address"
            },
            {
              "internalType": "uint96",
              "name": "value",
              "type": "uint96"
            }
          ],
          "indexed": false,
          "internalType": "struct LibPart.Part[]",
          "name": "royalties",
          "type": "tuple[]"
        }
      ],
      "name": "RoyaltiesSet",
      "type": "event"
    },
    {
      "anonymous": false,
      "inputs": [
        {
          "indexed": true,
          "internalType": "address",
          "name": "from",
          "type": "address"
        },
        {
          "indexed": true,
          "internalType": "address",
          "name": "to",
          "type": "address"
        },
        {
          "indexed": true,
          "internalType": "uint256",
          "name": "tokenId",
          "type": "uint256"
        }
      ],
      "name": "Transfer",
      "type": "event"
    },
    {
      "inputs": [],
      "name": "BURNER_ROLE",
      "outputs": [
        {
          "internalType": "bytes32",
          "name": "",
          "type": "bytes32"
        }
      ],
      "stateMutability": "view",
      "type": "function"
    },
    {
      "inputs": [],
      "name": "DEFAULT_ADMIN_ROLE",
      "outputs": [
        {
          "internalType": "bytes32",
          "name": "",
          "type": "bytes32"
        }
      ],
      "stateMutability": "view",
      "type": "function"
    },
    {
      "inputs": [],
      "name": "MINTER_ROLE",
      "outputs": [
        {
          "internalType": "bytes32",
          "name": "",
          "type": "bytes32"
        }
      ],
      "stateMutability": "view",
      "type": "function"
    },
    {
      "inputs": [
        {
          "internalType": "address",
          "name": "to",
          "type": "address"
        },
        {
          "internalType": "uint256",
          "name": "tokenId",
          "type": "uint256"
        }
      ],
      "name": "approve",
      "outputs": [],
      "stateMutability": "nonpayable",
      "type": "function"
    },
    {
      "inputs": [
        {
          "internalType": "address",
          "name": "owner",
          "type": "address"
        }
      ],
      "name": "balanceOf",
      "outputs": [
        {
          "internalType": "uint256",
          "name": "",
          "type": "uint256"
        }
      ],
      "stateMutability": "view",
      "type": "function"
    },
    {
      "inputs": [
        {
          "internalType": "uint256",
          "name": "tokenId",
          "type": "uint256"
        }
      ],
      "name": "getApproved",
      "outputs": [
        {
          "internalType": "address",
          "name": "",
          "type": "address"
        }
      ],
      "stateMutability": "view",
      "type": "function"
    },
    {
      "inputs": [
        {
          "internalType": "uint256",
          "name": "id",
          "type": "uint256"
        }
      ],
      "name": "getRaribleV2Royalties",
      "outputs": [
        {
          "components": [
            {
              "internalType": "address payable",
              "name": "account",
              "type": "address"
            },
            {
              "internalType": "uint96",
              "name": "value",
              "type": "uint96"
            }
          ],
          "internalType": "struct LibPart.Part[]",
          "name": "",
          "type": "tuple[]"
        }
      ],
      "stateMutability": "view",
      "type": "function"
    },
    {
      "inputs": [
        {
          "internalType": "bytes32",
          "name": "role",
          "type": "bytes32"
        }
      ],
      "name": "getRoleAdmin",
      "outputs": [
        {
          "internalType": "bytes32",
          "name": "",
          "type": "bytes32"
        }
      ],
      "stateMutability": "view",
      "type": "function"
    },
    {
      "inputs": [
        {
          "internalType": "bytes32",
          "name": "role",
          "type": "bytes32"
        },
        {
          "internalType": "uint256",
          "name": "index",
          "type": "uint256"
        }
      ],
      "name": "getRoleMember",
      "outputs": [
        {
          "internalType": "address",
          "name": "",
          "type": "address"
        }
      ],
      "stateMutability": "view",
      "type": "function"
    },
    {
      "inputs": [
        {
          "internalType": "bytes32",
          "name": "role",
          "type": "bytes32"
        }
      ],
      "name": "getRoleMemberCount",
      "outputs": [
        {
          "internalType": "uint256",
          "name": "",
          "type": "uint256"
        }
      ],
      "stateMutability": "view",
      "type": "function"
    },
    {
      "inputs": [
        {
          "internalType": "bytes32",
          "name": "role",
          "type": "bytes32"
        },
        {
          "internalType": "address",
          "name": "account",
          "type": "address"
        }
      ],
      "name": "grantRole",
      "outputs": [],
      "stateMutability": "nonpayable",
      "type": "function"
    },
    {
      "inputs": [
        {
          "internalType": "bytes32",
          "name": "role",
          "type": "bytes32"
        },
        {
          "internalType": "address",
          "name": "account",
          "type": "address"
        }
      ],
      "name": "hasRole",
      "outputs": [
        {
          "internalType": "bool",
          "name": "",
          "type": "bool"
        }
      ],
      "stateMutability": "view",
      "type": "function"
    },
    {
      "inputs": [
        {
          "internalType": "address",
          "name": "owner",
          "type": "address"
        },
        {
          "internalType": "address",
          "name": "operator",
          "type": "address"
        }
      ],
      "name": "isApprovedForAll",
      "outputs": [
        {
          "internalType": "bool",
          "name": "",
          "type": "bool"
        }
      ],
      "stateMutability": "view",
      "type": "function"
    },
    {
      "inputs": [],
      "name": "name",
      "outputs": [
        {
          "internalType": "string",
          "name": "",
          "type": "string"
        }
      ],
      "stateMutability": "view",
      "type": "function"
    },
    {
      "inputs": [],
      "name": "owner",
      "outputs": [
        {
          "internalType": "address",
          "name": "",
          "type": "address"
        }
      ],
      "stateMutability": "view",
      "type": "function"
    },
    {
      "inputs": [
        {
          "internalType": "uint256",
          "name": "tokenId",
          "type": "uint256"
        }
      ],
      "name": "ownerOf",
      "outputs": [
        {
          "internalType": "address",
          "name": "",
          "type": "address"
        }
      ],
      "stateMutability": "view",
      "type": "function"
    },
    {
      "inputs": [],
      "name": "renounceOwnership",
      "outputs": [],
      "stateMutability": "nonpayable",
      "type": "function"
    },
    {
      "inputs": [
        {
          "internalType": "bytes32",
          "name": "role",
          "type": "bytes32"
        },
        {
          "internalType": "address",
          "name": "account",
          "type": "address"
        }
      ],
      "name": "renounceRole",
      "outputs": [],
      "stateMutability": "nonpayable",
      "type": "function"
    },
    {
      "inputs": [
        {
          "internalType": "bytes32",
          "name": "role",
          "type": "bytes32"
        },
        {
          "internalType": "address",
          "name": "account",
          "type": "address"
        }
      ],
      "name": "revokeRole",
      "outputs": [],
      "stateMutability": "nonpayable",
      "type": "function"
    },
    {
      "inputs": [
        {
          "internalType": "uint256",
          "name": "",
          "type": "uint256"
        },
        {
          "internalType": "uint256",
          "name": "",
          "type": "uint256"
        }
      ],
      "name": "royalties",
      "outputs": [
        {
          "internalType": "address payable",
          "name": "account",
          "type": "address"
        },
        {
          "internalType": "uint96",
          "name": "value",
          "type": "uint96"
        }
      ],
      "stateMutability": "view",
      "type": "function"
    },
    {
      "inputs": [
        {
          "internalType": "address",
          "name": "from",
          "type": "address"
        },
        {
          "internalType": "address",
          "name": "to",
          "type": "address"
        },
        {
          "internalType": "uint256",
          "name": "tokenId",
          "type": "uint256"
        }
      ],
      "name": "safeTransferFrom",
      "outputs": [],
      "stateMutability": "nonpayable",
      "type": "function"
    },
    {
      "inputs": [
        {
          "internalType": "address",
          "name": "from",
          "type": "address"
        },
        {
          "internalType": "address",
          "name": "to",
          "type": "address"
        },
        {
          "internalType": "uint256",
          "name": "tokenId",
          "type": "uint256"
        },
        {
          "internalType": "bytes",
          "name": "_data",
          "type": "bytes"
        }
      ],
      "name": "safeTransferFrom",
      "outputs": [],
      "stateMutability": "nonpayable",
      "type": "function"
    },
    {
      "inputs": [
        {
          "internalType": "address",
          "name": "operator",
          "type": "address"
        },
        {
          "internalType": "bool",
          "name": "approved",
          "type": "bool"
        }
      ],
      "name": "setApprovalForAll",
      "outputs": [],
      "stateMutability": "nonpayable",
      "type": "function"
    },
    {
      "inputs": [],
      "name": "symbol",
      "outputs": [
        {
          "internalType": "string",
          "name": "",
          "type": "string"
        }
      ],
      "stateMutability": "view",
      "type": "function"
    },
    {
      "inputs": [
        {
          "internalType": "uint256",
          "name": "tokenId",
          "type": "uint256"
        }
      ],
      "name": "tokenURI",
      "outputs": [
        {
          "internalType": "string",
          "name": "",
          "type": "string"
        }
      ],
      "stateMutability": "view",
      "type": "function"
    },
    {
      "inputs": [
        {
          "internalType": "address",
          "name": "from",
          "type": "address"
        },
        {
          "internalType": "address",
          "name": "to",
          "type": "address"
        },
        {
          "internalType": "uint256",
          "name": "tokenId",
          "type": "uint256"
        }
      ],
      "name": "transferFrom",
      "outputs": [],
      "stateMutability": "nonpayable",
      "type": "function"
    },
    {
      "inputs": [
        {
          "internalType": "address",
          "name": "newOwner",
          "type": "address"
        }
      ],
      "name": "transferOwnership",
      "outputs": [],
      "stateMutability": "nonpayable",
      "type": "function"
    },
    {
      "inputs": [
        {
          "internalType": "address",
          "name": "_to",
          "type": "address"
        },
        {
          "components": [
            {
              "internalType": "uint256",
              "name": "class",
              "type": "uint256"
            },
            {
              "internalType": "uint256",
              "name": "slot",
              "type": "uint256"
            },
            {
              "internalType": "uint256",
              "name": "level",
              "type": "uint256"
            },
            {
              "internalType": "uint256",
              "name": "stat01",
              "type": "uint256"
            },
            {
              "internalType": "uint256",
              "name": "stat02",
              "type": "uint256"
            },
            {
              "internalType": "uint256",
              "name": "stat03",
              "type": "uint256"
            },
            {
              "internalType": "uint256",
              "name": "stat04",
              "type": "uint256"
            },
            {
              "internalType": "uint256",
              "name": "stat05",
              "type": "uint256"
            },
            {
              "internalType": "uint256",
              "name": "stat06",
              "type": "uint256"
            },
            {
              "internalType": "uint256",
              "name": "stat07",
              "type": "uint256"
            },
            {
              "internalType": "uint256",
              "name": "stat08",
              "type": "uint256"
            },
            {
              "internalType": "bool",
              "name": "equiped",
              "type": "bool"
            }
          ],
          "internalType": "struct Equipment.Gear_Stats",
          "name": "stats",
          "type": "tuple"
        }
      ],
      "name": "mint",
      "outputs": [],
      "stateMutability": "nonpayable",
      "type": "function"
    },
    {
      "inputs": [
        {
          "internalType": "uint256",
          "name": "idPJ",
          "type": "uint256"
        }
      ],
      "name": "singleStats",
      "outputs": [
        {
          "components": [
            {
              "internalType": "uint256",
              "name": "class",
              "type": "uint256"
            },
            {
              "internalType": "uint256",
              "name": "slot",
              "type": "uint256"
            },
            {
              "internalType": "uint256",
              "name": "level",
              "type": "uint256"
            },
            {
              "internalType": "uint256",
              "name": "stat01",
              "type": "uint256"
            },
            {
              "internalType": "uint256",
              "name": "stat02",
              "type": "uint256"
            },
            {
              "internalType": "uint256",
              "name": "stat03",
              "type": "uint256"
            },
            {
              "internalType": "uint256",
              "name": "stat04",
              "type": "uint256"
            },
            {
              "internalType": "uint256",
              "name": "stat05",
              "type": "uint256"
            },
            {
              "internalType": "uint256",
              "name": "stat06",
              "type": "uint256"
            },
            {
              "internalType": "uint256",
              "name": "stat07",
              "type": "uint256"
            },
            {
              "internalType": "uint256",
              "name": "stat08",
              "type": "uint256"
            },
            {
              "internalType": "bool",
              "name": "equiped",
              "type": "bool"
            }
          ],
          "internalType": "struct Equipment.Gear_Stats",
          "name": "",
          "type": "tuple"
        }
      ],
      "stateMutability": "view",
      "type": "function"
    },
    {
      "inputs": [
        {
          "internalType": "uint256",
          "name": "_tokenId",
          "type": "uint256"
        },
        {
          "internalType": "address payable",
          "name": "_royaltiesReceipientAddress",
          "type": "address"
        },
        {
          "internalType": "uint96",
          "name": "_percentageBasisPoints",
          "type": "uint96"
        }
      ],
      "name": "setRoyalties",
      "outputs": [],
      "stateMutability": "nonpayable",
      "type": "function"
    },
    {
      "inputs": [
        {
          "internalType": "uint256",
          "name": "_tokenId",
          "type": "uint256"
        },
        {
          "internalType": "uint256",
          "name": "_salePrice",
          "type": "uint256"
        }
      ],
      "name": "royaltyInfo",
      "outputs": [
        {
          "internalType": "address",
          "name": "receiver",
          "type": "address"
        },
        {
          "internalType": "uint256",
          "name": "royaltyAmount",
          "type": "uint256"
        }
      ],
      "stateMutability": "view",
      "type": "function"
    },
    {
      "inputs": [
        {
          "internalType": "bytes4",
          "name": "interfaceId",
          "type": "bytes4"
        }
      ],
      "name": "supportsInterface",
      "outputs": [
        {
          "internalType": "bool",
          "name": "",
          "type": "bool"
        }
      ],
      "stateMutability": "view",
      "type": "function"
    }
  ],
  "bytecode": "0x608060405260006019553480156200001657600080fd5b50604080518082018252601981527f436861696e73206f6620476c6f72792045717569706d656e740000000000000060208083019182528351808501909452600384527f434745000000000000000000000000000000000000000000000000000000000090840152815191929162000091916000916200038c565b508051620000a79060019060208401906200038c565b505050620000d6620000c762000174640100000000026401000000009004565b64010000000062000178810204565b620000fe6000620000ef64010000000062000174810204565b640100000000620001ca810204565b620001367f9f2df0fed2c77648de5860a4cc508cd0818c85b8b8a1ab4ceeef8d981c8956a6620000ef64010000000062000174810204565b6200016e7f3c11d16cbaffd01df69ce1c404f6340ee057498f5f00246190ea54220576a848620000ef64010000000062000174810204565b62000488565b3390565b60088054600160a060020a03838116600160a060020a0319831681179093556040519116919082907f8be0079c531659141344cd1fd0a4f28419497f9722a3daafe3b4186f6b6457e090600090a35050565b620001e48282640100000000620012c96200021182021704565b60008281526007602052604090206200020c9082640100000000620012d36200022a82021704565b505050565b62000226828264010000000062000253810204565b5050565b60006200024a83600160a060020a038416640100000000620002f1810204565b90505b92915050565b62000268828264010000000062000349810204565b62000226576000828152600660209081526040808320600160a060020a03851684529091529020805460ff19166001179055620002ad64010000000062000174810204565b600160a060020a031681600160a060020a0316837f2f8788117e7eff1d82e926ec794901d17c78024a50270940304540a733656f0d60405160405180910390a45050565b600062000308838364010000000062000374810204565b62000340575081546001818101845560008481526020808220909301849055845484825282860190935260409020919091556200024d565b5060006200024d565b6000918252600660209081526040808420600160a060020a0393909316845291905290205460ff1690565b60009081526001919091016020526040902054151590565b8280546200039a9062000432565b90600052602060002090601f016020900481019282620003be576000855562000409565b82601f10620003d957805160ff191683800117855562000409565b8280016001018555821562000409579182015b8281111562000409578251825591602001919060010190620003ec565b50620004179291506200041b565b5090565b5b808211156200041757600081556001016200041c565b6002810460018216806200044757607f821691505b6020821081141562000482577f4e487b7100000000000000000000000000000000000000000000000000000000600052602260045260246000fd5b50919050565b612f2e80620004986000396000f3fe608060405234801561001057600080fd5b506004361061020d576000357c0100000000000000000000000000000000000000000000000000000000900480638da5cb5b1161012c578063ca15c873116100bf578063d547741f1161008e578063d547741f146104d2578063db20f89c146104e5578063e985e9c514610505578063f2fde38b1461054157600080fd5b8063ca15c87314610465578063ca8df26514610478578063cad96cca1461048b578063d5391393146104ab57600080fd5b8063a217fddf116100fb578063a217fddf14610424578063a22cb4651461042c578063b88d4fde1461043f578063c87b56dd1461045257600080fd5b80638da5cb5b146103e55780639010d07c146103f657806391d148541461040957806395d89b411461041c57600080fd5b80632a55205a116101a45780636352211e116101735780636352211e1461037857806370a082311461038b578063715018a61461039e5780638924af74146103a657600080fd5b80632a55205a1461030d5780632f2ff15d1461033f57806336568abe1461035257806342842e0e1461036557600080fd5b8063143094db116101e0578063143094db1461028f57806323b872dd146102a2578063248a9ca3146102b5578063282c51f3146102e657600080fd5b806301ffc9a71461021257806306fdde031461023a578063081812fc1461024f578063095ea7b31461027a575b600080fd5b610225610220366004612838565b610554565b60405190151581526020015b60405180910390f35b6102426105d9565b6040516102319190612a4d565b61026261025d3660046127d8565b61066b565b604051600160a060020a039091168152602001610231565b61028d6102883660046127ac565b610719565b005b61028d61029d366004612872565b610851565b61028d6102b03660046125a4565b61093c565b6102d86102c33660046127d8565b60009081526006602052604090206001015490565b604051908152602001610231565b6102d87f3c11d16cbaffd01df69ce1c404f6340ee057498f5f00246190ea54220576a84881565b61032061031b366004612816565b610970565b60408051600160a060020a039093168352602083019190915201610231565b61028d61034d3660046127f1565b610a91565b61028d6103603660046127f1565b610ab3565b61028d6103733660046125a4565b610ad5565b6102626103863660046127d8565b610af0565b6102d861039936600461254e565b610b7e565b61028d610c1b565b6103b96103b4366004612816565b610c54565b60408051600160a060020a0390931683526bffffffffffffffffffffffff909116602083015201610231565b600854600160a060020a0316610262565b610262610404366004612816565b610cb3565b6102256104173660046127f1565b610cd2565b610242610cfd565b6102d8600081565b61028d61043a3660046126a9565b610d0c565b61028d61044d3660046125e5565b610dd4565b6102426104603660046127d8565b610e09565b6102d86104733660046127d8565b610f26565b61028d6104863660046126de565b610f3d565b61049e6104993660046127d8565b61105d565b6040516102319190612a3a565b6102d87f9f2df0fed2c77648de5860a4cc508cd0818c85b8b8a1ab4ceeef8d981c8956a681565b61028d6104e03660046127f1565b611102565b6104f86104f33660046127d8565b61110c565b6040516102319190612b4f565b61022561051336600461256b565b600160a060020a03918216600090815260056020908152604080832093909416825291909152205460ff1690565b61028d61054f36600461254e565b611211565b6000600160e060020a031982167f44c74bcc00000000000000000000000000000000000000000000000000000000141561059057506001919050565b600160e060020a031982167f2a55205a0000000000000000000000000000000000000000000000000000000014156105ca57506001919050565b6105d3826112e8565b92915050565b6060600080546105e890612de3565b80601f016020809104026020016040519081016040528092919081815260200182805461061490612de3565b80156106615780601f1061063657610100808354040283529160200191610661565b820191906000526020600020905b81548152906001019060200180831161064457829003601f168201915b5050505050905090565b600081815260026020526040812054600160a060020a03166106fd5760405160e560020a62461bcd02815260206004820152602c60248201527f4552433732313a20617070726f76656420717565727920666f72206e6f6e657860448201527f697374656e7420746f6b656e000000000000000000000000000000000000000060648201526084015b60405180910390fd5b50600090815260046020526040902054600160a060020a031690565b600061072482610af0565b905080600160a060020a031683600160a060020a031614156107b15760405160e560020a62461bcd02815260206004820152602160248201527f4552433732313a20617070726f76616c20746f2063757272656e74206f776e6560448201527f720000000000000000000000000000000000000000000000000000000000000060648201526084016106f4565b33600160a060020a03821614806107cd57506107cd8133610513565b6108425760405160e560020a62461bcd02815260206004820152603860248201527f4552433732313a20617070726f76652063616c6c6572206973206e6f74206f7760448201527f6e6572206e6f7220617070726f76656420666f7220616c6c000000000000000060648201526084016106f4565b61084c8383611326565b505050565b600854600160a060020a0316331461087e5760405160e560020a62461bcd0281526004016106f490612abd565b604080516001808252818301909252600091816020015b604080518082019091526000808252602082015281526020019060019003908161089557905050905081816000815181106108d2576108d2612e9b565b6020026020010151602001906bffffffffffffffffffffffff1690816bffffffffffffffffffffffff1681525050828160008151811061091457610914612e9b565b6020908102919091010151600160a060020a03909116905261093684826113a1565b50505050565b6109463382611546565b6109655760405160e560020a62461bcd0281526004016106f490612af2565b61084c838383611651565b6000828152600960209081526040808320805482518185028101850190935280835284938493929190849084015b82821015610a035760008481526020908190206040805180820190915290840154600160a060020a03811682527401000000000000000000000000000000000000000090046bffffffffffffffffffffffff168183015282526001909201910161099e565b505050509050600081511115610a815780600081518110610a2657610a26612e9b565b60200260200101516000015161271082600081518110610a4857610a48612e9b565b6020026020010151602001516bffffffffffffffffffffffff1686610a6d9190612cf6565b610a779190612ce2565b9250925050610a8a565b60008092509250505b9250929050565b610a9b828261183c565b600082815260076020526040902061084c90826112d3565b610abd8282611862565b600082815260076020526040902061084c90826118ed565b61084c83838360405180602001604052806000815250610dd4565b600081815260026020526040812054600160a060020a0316806105d35760405160e560020a62461bcd02815260206004820152602960248201527f4552433732313a206f776e657220717565727920666f72206e6f6e657869737460448201527f656e7420746f6b656e000000000000000000000000000000000000000000000060648201526084016106f4565b6000600160a060020a038216610bff5760405160e560020a62461bcd02815260206004820152602a60248201527f4552433732313a2062616c616e636520717565727920666f7220746865207a6560448201527f726f20616464726573730000000000000000000000000000000000000000000060648201526084016106f4565b50600160a060020a031660009081526003602052604090205490565b600854600160a060020a03163314610c485760405160e560020a62461bcd0281526004016106f490612abd565b610c526000611902565b565b60096020528160005260406000208181548110610c7057600080fd5b600091825260209091200154600160a060020a03811692507401000000000000000000000000000000000000000090046bffffffffffffffffffffffff16905082565b6000828152600760205260408120610ccb9083611961565b9392505050565b6000918252600660209081526040808420600160a060020a0393909316845291905290205460ff1690565b6060600180546105e890612de3565b600160a060020a038216331415610d685760405160e560020a62461bcd02815260206004820152601960248201527f4552433732313a20617070726f766520746f2063616c6c65720000000000000060448201526064016106f4565b336000818152600560209081526040808320600160a060020a03871680855290835292819020805460ff191686151590811790915590519081529192917f17307eab39ab6107e8899845ad3d59bd9653f200f220920489ca2b5937696c31910160405180910390a35050565b610dde3383611546565b610dfd5760405160e560020a62461bcd0281526004016106f490612af2565b6109368484848461196d565b600081815260026020526040902054606090600160a060020a0316610e995760405160e560020a62461bcd02815260206004820152602f60248201527f4552433732314d657461646174613a2055524920717565727920666f72206e6f60448201527f6e6578697374656e7420746f6b656e000000000000000000000000000000000060648201526084016106f4565b6000610ed560408051808201909152601f81527f68747470733a2f2f6578616d706c65646f6d61696e2f6d657461646174612f00602082015290565b90506000815111610ef55760405180602001604052806000815250610ccb565b80610eff846119a3565b604051602001610f1092919061294e565b6040516020818303038152906040529392505050565b60008181526007602052604081206105d390611adc565b610f677f9f2df0fed2c77648de5860a4cc508cd0818c85b8b8a1ab4ceeef8d981c8956a633610cd2565b610fdc5760405160e560020a62461bcd02815260206004820152602860248201527f457863657074696f6e3a206d7573742068617665206d696e74657220726f6c6560448201527f20746f206d696e7400000000000000000000000000000000000000000000000060648201526084016106f4565b8051600b556020810151600c556040810151600d556060810151600e556080810151600f5560a081015160105560c081015160115560e08101516012556101008101516013556101208101516014556101408101516015556101608101516016805460ff1916911515919091179055600a54611059908390611ae6565b5050565b606060096000838152602001908152602001600020805480602002602001604051908101604052809291908181526020016000905b828210156110f75760008481526020908190206040805180820190915290840154600160a060020a03811682527401000000000000000000000000000000000000000090046bffffffffffffffffffffffff1681830152825260019092019101611092565b505050509050919050565b610abd8282611c47565b61117260405180610180016040528060008152602001600081526020016000815260200160008152602001600081526020016000815260200160008152602001600081526020016000815260200160008152602001600081526020016000151581525090565b50600090815260176020908152604091829020825161018081018452815481526001820154928101929092526002810154928201929092526003820154606082015260048201546080820152600582015460a0820152600682015460c0820152600782015460e082015260088201546101008201526009820154610120820152600a820154610140820152600b9091015460ff16151561016082015290565b600854600160a060020a0316331461123e5760405160e560020a62461bcd0281526004016106f490612abd565b600160a060020a0381166112bd5760405160e560020a62461bcd02815260206004820152602660248201527f4f776e61626c653a206e6577206f776e657220697320746865207a65726f206160448201527f646472657373000000000000000000000000000000000000000000000000000060648201526084016106f4565b6112c681611902565b50565b6110598282611c6d565b6000610ccb83600160a060020a038416611cf3565b6000600160e060020a031982167f5a05180f0000000000000000000000000000000000000000000000000000000014806105d357506105d382611d42565b6000818152600460205260409020805473ffffffffffffffffffffffffffffffffffffffff1916600160a060020a038416908117909155819061136882610af0565b600160a060020a03167f8c5be1e5ebec7d5bd14f71427d1e84f3dd0314c0f7b2291e5b200ac8c7c3b92560405160405180910390a45050565b60005b815181101561153b576000600160a060020a03168282815181106113ca576113ca612e9b565b602002602001015160000151600160a060020a031614156114305760405160e560020a62461bcd02815260206004820152601b60248201527f526563697069656e742073686f756c642062652070726573656e74000000000060448201526064016106f4565b81818151811061144257611442612e9b565b6020026020010151602001516bffffffffffffffffffffffff16600014156114af5760405160e560020a62461bcd02815260206004820181905260248201527f526f79616c74792076616c75652073686f756c6420626520706f73697469766560448201526064016106f4565b600083815260096020526040902082518390839081106114d1576114d1612e9b565b6020908102919091018101518254600181018455600093845292829020815191909201516bffffffffffffffffffffffff167401000000000000000000000000000000000000000002600160a060020a03909116179101558061153381612e21565b9150506113a4565b506110598282611d80565b600081815260026020526040812054600160a060020a03166115d35760405160e560020a62461bcd02815260206004820152602c60248201527f4552433732313a206f70657261746f7220717565727920666f72206e6f6e657860448201527f697374656e7420746f6b656e000000000000000000000000000000000000000060648201526084016106f4565b60006115de83610af0565b905080600160a060020a031684600160a060020a03161480611619575083600160a060020a031661160e8461066b565b600160a060020a0316145b806116495750600160a060020a0380821660009081526005602090815260408083209388168352929052205460ff165b949350505050565b82600160a060020a031661166482610af0565b600160a060020a0316146116e35760405160e560020a62461bcd02815260206004820152602960248201527f4552433732313a207472616e73666572206f6620746f6b656e2074686174206960448201527f73206e6f74206f776e000000000000000000000000000000000000000000000060648201526084016106f4565b600160a060020a0382166117615760405160e560020a62461bcd028152602060048201526024808201527f4552433732313a207472616e7366657220746f20746865207a65726f2061646460448201527f726573730000000000000000000000000000000000000000000000000000000060648201526084016106f4565b61176c838383611dbd565b611777600082611326565b600160a060020a03831660009081526003602052604081208054600192906117a0908490612d89565b9091555050600160a060020a03821660009081526003602052604081208054600192906117ce908490612cca565b9091555050600081815260026020526040808220805473ffffffffffffffffffffffffffffffffffffffff1916600160a060020a0386811691821790925591518493918716917fddf252ad1be2c89b69c2b068fc378daa952ba7f163c4a11628f55a4df523b3ef91a4505050565b6000828152600660205260409020600101546118588133611f6f565b61084c8383611c6d565b600160a060020a03811633146118e35760405160e560020a62461bcd02815260206004820152602f60248201527f416363657373436f6e74726f6c3a2063616e206f6e6c792072656e6f756e636560448201527f20726f6c657320666f722073656c66000000000000000000000000000000000060648201526084016106f4565b6110598282611fd6565b6000610ccb83600160a060020a03841661203d565b60088054600160a060020a0383811673ffffffffffffffffffffffffffffffffffffffff19831681179093556040519116919082907f8be0079c531659141344cd1fd0a4f28419497f9722a3daafe3b4186f6b6457e090600090a35050565b6000610ccb8383612130565b611978848484611651565b6119848484848461215a565b6109365760405160e560020a62461bcd0281526004016106f490612a60565b6060816119e357505060408051808201909152600181527f3000000000000000000000000000000000000000000000000000000000000000602082015290565b8160005b8115611a0d57806119f781612e21565b9150611a069050600a83612ce2565b91506119e7565b60008167ffffffffffffffff811115611a2857611a28612eb4565b6040519080825280601f01601f191660200182016040528015611a52576020820181803683370190505b5090505b841561164957611a67600183612d89565b9150611a74600a86612e3c565b611a7f906030612cca565b7f010000000000000000000000000000000000000000000000000000000000000002818381518110611ab357611ab3612e9b565b6020010190600160f860020a031916908160001a905350611ad5600a86612ce2565b9450611a56565b60006105d3825490565b600160a060020a038216611b3f5760405160e560020a62461bcd02815260206004820181905260248201527f4552433732313a206d696e7420746f20746865207a65726f206164647265737360448201526064016106f4565b600081815260026020526040902054600160a060020a031615611ba75760405160e560020a62461bcd02815260206004820152601c60248201527f4552433732313a20746f6b656e20616c7265616479206d696e7465640000000060448201526064016106f4565b611bb360008383611dbd565b600160a060020a0382166000908152600360205260408120805460019290611bdc908490612cca565b9091555050600081815260026020526040808220805473ffffffffffffffffffffffffffffffffffffffff1916600160a060020a03861690811790915590518392907fddf252ad1be2c89b69c2b068fc378daa952ba7f163c4a11628f55a4df523b3ef908290a45050565b600082815260066020526040902060010154611c638133611f6f565b61084c8383611fd6565b611c778282610cd2565b611059576000828152600660209081526040808320600160a060020a03851684529091529020805460ff19166001179055611caf3390565b600160a060020a031681600160a060020a0316837f2f8788117e7eff1d82e926ec794901d17c78024a50270940304540a733656f0d60405160405180910390a45050565b6000818152600183016020526040812054611d3a575081546001818101845560008481526020808220909301849055845484825282860190935260409020919091556105d3565b5060006105d3565b6000600160e060020a031982167f7965db0b0000000000000000000000000000000000000000000000000000000014806105d357506105d38261229c565b7f3fa96d7b6bcbfe71ef171666d84db3cf52fa2d1c8afdb1cc8e486177f208b7df8282604051611db1929190612be2565b60405180910390a15050565b600160a060020a038316611eb657600b60176000611dda600a5490565b8152602081019190915260400160002081548155600180830154818301556002808401549083015560038084015490830155600480840154908301556005808401549083015560068084015490830155600780840154908301556008808401549083015560098084015490830155600a8084015481840155600b9384015493909201805460ff191660ff90941615159390931790925580549091019055600160a060020a03821660009081526018602090815260408083208484529091528120805460019290611eab908490612c56565b9091555061084c9050565b600160a060020a038216611ef857600160a060020a03831660009081526018602090815260408083208484529091528120805460019290611eab908490612d15565b600160a060020a03831660009081526018602090815260408083208484529091528120805460019290611f2c908490612d15565b9091555050600160a060020a03821660009081526018602090815260408083208484529091528120805460019290611f65908490612c56565b9091555050505050565b611f798282610cd2565b61105957611f9181600160a060020a03166014612337565b611f9c836020612337565b604051602001611fad92919061297d565b60408051601f198184030181529082905260e560020a62461bcd0282526106f491600401612a4d565b611fe08282610cd2565b15611059576000828152600660209081526040808320600160a060020a0385168085529252808320805460ff1916905551339285917ff6391f5c32d9c69d2a47ea670b442974b53935d1edc7fd64eb21e047a839171b9190a45050565b60008181526001830160205260408120548015612126576000612061600183612d89565b855490915060009061207590600190612d89565b90508181146120da57600086600001828154811061209557612095612e9b565b90600052602060002001549050808760000184815481106120b8576120b8612e9b565b6000918252602080832090910192909255918252600188019052604090208390555b85548690806120eb576120eb612e82565b6001900381819060005260206000200160009055905585600101600086815260200190815260200160002060009055600193505050506105d3565b60009150506105d3565b600082600001828154811061214757612147612e9b565b9060005260206000200154905092915050565b6000600160a060020a0384163b15612291576040517f150b7a02000000000000000000000000000000000000000000000000000000008152600160a060020a0385169063150b7a02906121b79033908990889088906004016129fe565b602060405180830381600087803b1580156121d157600080fd5b505af1925050508015612201575060408051601f3d908101601f191682019092526121fe91810190612855565b60015b61225e573d80801561222f576040519150601f19603f3d011682016040523d82523d6000602084013e612234565b606091505b5080516122565760405160e560020a62461bcd0281526004016106f490612a60565b805181602001fd5b600160e060020a0319167f150b7a0200000000000000000000000000000000000000000000000000000000149050611649565b506001949350505050565b6000600160e060020a031982167f80ac58cd0000000000000000000000000000000000000000000000000000000014806122ff5750600160e060020a031982167f5b5e139f00000000000000000000000000000000000000000000000000000000145b806105d357507f01ffc9a700000000000000000000000000000000000000000000000000000000600160e060020a03198316146105d3565b60606000612346836002612cf6565b612351906002612cca565b67ffffffffffffffff81111561236957612369612eb4565b6040519080825280601f01601f191660200182016040528015612393576020820181803683370190505b5090507f3000000000000000000000000000000000000000000000000000000000000000816000815181106123ca576123ca612e9b565b6020010190600160f860020a031916908160001a9053507f78000000000000000000000000000000000000000000000000000000000000008160018151811061241557612415612e9b565b6020010190600160f860020a031916908160001a9053506000612439846002612cf6565b612444906001612cca565b90505b60018111156124e7577f303132333435363738396162636465660000000000000000000000000000000085600f166010811061248557612485612e9b565b1a7f0100000000000000000000000000000000000000000000000000000000000000028282815181106124ba576124ba612e9b565b6020010190600160f860020a031916908160001a9053506010909404936124e081612dcc565b9050612447565b508315610ccb5760405160e560020a62461bcd02815260206004820181905260248201527f537472696e67733a20686578206c656e67746820696e73756666696369656e7460448201526064016106f4565b8035801515811461254957600080fd5b919050565b60006020828403121561256057600080fd5b8135610ccb81612ecd565b6000806040838503121561257e57600080fd5b823561258981612ecd565b9150602083013561259981612ecd565b809150509250929050565b6000806000606084860312156125b957600080fd5b83356125c481612ecd565b925060208401356125d481612ecd565b929592945050506040919091013590565b600080600080608085870312156125fb57600080fd5b843561260681612ecd565b935060208581013561261781612ecd565b935060408601359250606086013567ffffffffffffffff8082111561263b57600080fd5b818801915088601f83011261264f57600080fd5b81358181111561266157612661612eb4565b612673601f8201601f19168501612c25565b9150808252898482850101111561268957600080fd5b808484018584013760008482840101525080935050505092959194509250565b600080604083850312156126bc57600080fd5b82356126c781612ecd565b91506126d560208401612539565b90509250929050565b6000808284036101a08112156126f357600080fd5b83356126fe81612ecd565b9250610180601f19820181131561271457600080fd5b61271c612bfb565b91506020850135825260408501356020830152606085013560408301526080850135606083015260a0850135608083015260c085013560a083015260e085013560c08301526101008086013560e084015261012080870135828501526101409150818701358185015250610160808701358285015261279c838801612539565b9084015250929590945092505050565b600080604083850312156127bf57600080fd5b82356127ca81612ecd565b946020939093013593505050565b6000602082840312156127ea57600080fd5b5035919050565b6000806040838503121561280457600080fd5b82359150602083013561259981612ecd565b6000806040838503121561282957600080fd5b50508035926020909101359150565b60006020828403121561284a57600080fd5b8135610ccb81612ee2565b60006020828403121561286757600080fd5b8151610ccb81612ee2565b60008060006060848603121561288757600080fd5b83359250602084013561289981612ecd565b915060408401356bffffffffffffffffffffffff811681146128ba57600080fd5b809150509250925092565b600081518084526020808501945080840160005b838110156129175781518051600160a060020a031688528301516bffffffffffffffffffffffff1683880152604090960195908201906001016128d9565b509495945050505050565b6000815180845261293a816020860160208601612da0565b601f01601f19169290920160200192915050565b60008351612960818460208801612da0565b835190830190612974818360208801612da0565b01949350505050565b7f416363657373436f6e74726f6c3a206163636f756e74200000000000000000008152600083516129b5816017850160208801612da0565b7f206973206d697373696e6720726f6c652000000000000000000000000000000060179184019182015283516129f2816028840160208801612da0565b01602801949350505050565b6000600160a060020a03808716835280861660208401525083604083015260806060830152612a306080830184612922565b9695505050505050565b602081526000610ccb60208301846128c5565b602081526000610ccb6020830184612922565b60208082526032908201527f4552433732313a207472616e7366657220746f206e6f6e20455243373231526560408201527f63656976657220696d706c656d656e7465720000000000000000000000000000606082015260800190565b6020808252818101527f4f776e61626c653a2063616c6c6572206973206e6f7420746865206f776e6572604082015260600190565b60208082526031908201527f4552433732313a207472616e736665722063616c6c6572206973206e6f74206f60408201527f776e6572206e6f7220617070726f766564000000000000000000000000000000606082015260800190565b600061018082019050825182526020830151602083015260408301516040830152606083015160608301526080830151608083015260a083015160a083015260c083015160c083015260e083015160e083015261010080840151818401525061012080840151818401525061014080840151818401525061016080840151612bda8285018215159052565b505092915050565b82815260406020820152600061164960408301846128c5565b604051610180810167ffffffffffffffff81118282101715612c1f57612c1f612eb4565b60405290565b604051601f8201601f1916810167ffffffffffffffff81118282101715612c4e57612c4e612eb4565b604052919050565b6000808212827f7fffffffffffffffffffffffffffffffffffffffffffffffffffffffffffffff03841381151615612c9057612c90612e50565b827f8000000000000000000000000000000000000000000000000000000000000000038412811615612cc457612cc4612e50565b50500190565b60008219821115612cdd57612cdd612e50565b500190565b600082612cf157612cf1612e69565b500490565b6000816000190483118215151615612d1057612d10612e50565b500290565b6000808312837f800000000000000000000000000000000000000000000000000000000000000001831281151615612d4f57612d4f612e50565b837f7fffffffffffffffffffffffffffffffffffffffffffffffffffffffffffffff018313811615612d8357612d83612e50565b50500390565b600082821015612d9b57612d9b612e50565b500390565b60005b83811015612dbb578181015183820152602001612da3565b838111156109365750506000910152565b600081612ddb57612ddb612e50565b506000190190565b600281046001821680612df757607f821691505b60208210811415612e1b5760e060020a634e487b7102600052602260045260246000fd5b50919050565b6000600019821415612e3557612e35612e50565b5060010190565b600082612e4b57612e4b612e69565b500690565b60e060020a634e487b7102600052601160045260246000fd5b60e060020a634e487b7102600052601260045260246000fd5b60e060020a634e487b7102600052603160045260246000fd5b60e060020a634e487b7102600052603260045260246000fd5b60e060020a634e487b7102600052604160045260246000fd5b600160a060020a03811681146112c657600080fd5b600160e060020a0319811681146112c657600080fdfea264697066735822122047e65a889eb311f4bca46256fbbbf7cba7313195dd07779e832dfee04d98c94864736f6c63430008060033",
  "immutableReferences": {},
  "source": "//SPDX-License-Identifier: MIT\npragma solidity ^0.8.0;\n\nimport \"@openzeppelin/contracts/token/ERC721/ERC721.sol\";\nimport \"@openzeppelin/contracts/access/Ownable.sol\";\nimport \"@openzeppelin/contracts/access/AccessControlEnumerable.sol\";\nimport \"@openzeppelin/contracts/utils/Counters.sol\";\nimport \"./rarible/royalties/contracts/impl/RoyaltiesV2Impl.sol\";\nimport \"./rarible/royalties/contracts/LibPart.sol\";\nimport \"./rarible/royalties/contracts/LibRoyaltiesV2.sol\";\n\ncontract Equipment is ERC721, AccessControlEnumerable, Ownable, RoyaltiesV2Impl {\n    using Counters for Counters.Counter;\n    Counters.Counter private _tokenIdTracker;\n    \n    //Adds support for OpenSea\n    bytes4 private constant _INTERFACE_ID_ERC2981 = 0x2a55205a;\n\n    //Roles of monter and burner\n    bytes32 public constant MINTER_ROLE = keccak256(\"MINTER_ROLE\");\n    bytes32 public constant BURNER_ROLE = keccak256(\"BURNER_ROLE\");\n\n    //Stats of players and enemies\n    struct Gear_Stats {\n        uint class;\t        //Index on the NFT for client use\n        uint slot;\t\t    //Slot where the equipment match\n        uint level;     \t//By default is 0. Evolvable NFTs may upgrade this level\n        uint stat01;    \t//Health\n        uint stat02;    \t//Vitality\n        uint stat03;    \t//Attack\n        uint stat04;    \t//Defense\n        uint stat05;    \t//Mastery\n        uint stat06;    \t//Speed\n        uint stat07;    \t//Luck\n        uint stat08;    \t//Faith\n        bool equiped;       //Used internally to know if it is already equiped\n    }\n\n\n    //Used by _beforeTokenTransfer to catch the after minting\n    Gear_Stats private statsToMint;\n\n\n    //Mapping from NFT to struct\n    mapping(uint256 => Gear_Stats) private values;\n\n    // Mapping from owner address to token ID. It is used to quickly get all NFTs on an address\n    mapping(address => mapping(uint256 => int)) private _tokensByOwner;\n\n    //Generic random counter, used to add a bit more of entropy\n    uint randomNonce=0;\n\n    //Pseudo random. I think is enough for the game\n    function randMod(uint _modulus) internal returns(uint) {\n        randomNonce++; \n        return uint(keccak256(abi.encodePacked(block.timestamp, msg.sender, randomNonce))) % _modulus;\n    }\n\n    constructor() ERC721(\"Chains of Glory Equipment\", \"CGE\")  {\n        _setupRole(DEFAULT_ADMIN_ROLE, _msgSender());\n\n        _setupRole(MINTER_ROLE, _msgSender());\n        _setupRole(BURNER_ROLE, _msgSender());\n    }\n\n    function mint(address _to, Gear_Stats memory stats) public {\n        require(hasRole(MINTER_ROLE, _msgSender()), \"Exception: must have minter role to mint\");\n        \n        //Stores the struct to assign when mint os ok\n        statsToMint=stats;\n        super._mint(_to, _tokenIdTracker.current()); \n    }\n\n    //Returns the single stats of the PJ (without applying any equipement)\n    function singleStats(uint256 idPJ) public view returns(Gear_Stats memory) {\n        return values[idPJ];\n    }\n\n    function _beforeTokenTransfer(address from, address to, uint256 tokenId) internal virtual override(ERC721) {\n        if(from==address(0)) {\n            //Minting ok, creates struct of stats\n            values[_tokenIdTracker.current()] = statsToMint;\n            _tokenIdTracker.increment();\n\n            //Updates the _tokensByOwner mapping\n            _tokensByOwner[to][tokenId]+=1;\n        } else if(to==address(0)) {\n            //Burning\n\n            //Updates the _tokensByOwner mapping\n             _tokensByOwner[from][tokenId]-=1;\n        } else {\n            //Normal transfer\n\n            //Updates the _tokensByOwner mapping\n            _tokensByOwner[from][tokenId]-=1;\n            _tokensByOwner[to][tokenId]+=1;\n        }\n    }\n\n    function _baseURI() internal view virtual override returns (string memory) {\n        return \"https://exampledomain/metadata/\";\n    }\n\n    function setRoyalties(uint256 _tokenId, address payable _royaltiesReceipientAddress, uint96 _percentageBasisPoints) public onlyOwner {\n        LibPart.Part[] memory _royalties = new LibPart.Part[](1);\n        _royalties[0].value = _percentageBasisPoints;\n        _royalties[0].account = _royaltiesReceipientAddress;\n        _saveRoyalties(_tokenId, _royalties);\n    }\n\n    function royaltyInfo(uint256 _tokenId, uint256 _salePrice ) external view returns ( address receiver, uint256 royaltyAmount) {\n        LibPart.Part[] memory _royalties = royalties[_tokenId];\n        if(_royalties.length > 0) {\n            return(_royalties[0].account, (_salePrice * _royalties[0].value)/10000);\n        }\n        return (address(0), 0);\n    }\n\n    function supportsInterface(bytes4 interfaceId) public view virtual override(ERC721, AccessControlEnumerable) returns (bool) {\n        if (interfaceId == LibRoyaltiesV2._INTERFACE_ID_ROYALTIES) {\n            return true;\n        }\n\n        if(interfaceId == _INTERFACE_ID_ERC2981) {\n            return true;\n        }\n\n        return super.supportsInterface(interfaceId);\n    }\n}\n",
  "sourcePath": "/home/javi/ChainsOfGlory/contracts/Equipment.sol",
  "compiler": {
    "name": "solc",
    "version": "0.8.6+commit.11564f7e.Emscripten.clang"
  },
  "schemaVersion": "3.4.3",
  "updatedAt": "2021-11-21T13:11:44.124Z",
  "devdoc": {
    "kind": "dev",
    "methods": {
      "approve(address,uint256)": {
        "details": "See {IERC721-approve}."
      },
      "balanceOf(address)": {
        "details": "See {IERC721-balanceOf}."
      },
      "getApproved(uint256)": {
        "details": "See {IERC721-getApproved}."
      },
      "getRoleAdmin(bytes32)": {
        "details": "Returns the admin role that controls `role`. See {grantRole} and {revokeRole}. To change a role's admin, use {_setRoleAdmin}."
      },
      "getRoleMember(bytes32,uint256)": {
        "details": "Returns one of the accounts that have `role`. `index` must be a value between 0 and {getRoleMemberCount}, non-inclusive. Role bearers are not sorted in any particular way, and their ordering may change at any point. WARNING: When using {getRoleMember} and {getRoleMemberCount}, make sure you perform all queries on the same block. See the following https://forum.openzeppelin.com/t/iterating-over-elements-on-enumerableset-in-openzeppelin-contracts/2296[forum post] for more information."
      },
      "getRoleMemberCount(bytes32)": {
        "details": "Returns the number of accounts that have `role`. Can be used together with {getRoleMember} to enumerate all bearers of a role."
      },
      "grantRole(bytes32,address)": {
        "details": "Overload {grantRole} to track enumerable memberships"
      },
      "hasRole(bytes32,address)": {
        "details": "Returns `true` if `account` has been granted `role`."
      },
      "isApprovedForAll(address,address)": {
        "details": "See {IERC721-isApprovedForAll}."
      },
      "name()": {
        "details": "See {IERC721Metadata-name}."
      },
      "owner()": {
        "details": "Returns the address of the current owner."
      },
      "ownerOf(uint256)": {
        "details": "See {IERC721-ownerOf}."
      },
      "renounceOwnership()": {
        "details": "Leaves the contract without owner. It will not be possible to call `onlyOwner` functions anymore. Can only be called by the current owner. NOTE: Renouncing ownership will leave the contract without an owner, thereby removing any functionality that is only available to the owner."
      },
      "renounceRole(bytes32,address)": {
        "details": "Overload {renounceRole} to track enumerable memberships"
      },
      "revokeRole(bytes32,address)": {
        "details": "Overload {revokeRole} to track enumerable memberships"
      },
      "safeTransferFrom(address,address,uint256)": {
        "details": "See {IERC721-safeTransferFrom}."
      },
      "safeTransferFrom(address,address,uint256,bytes)": {
        "details": "See {IERC721-safeTransferFrom}."
      },
      "setApprovalForAll(address,bool)": {
        "details": "See {IERC721-setApprovalForAll}."
      },
      "symbol()": {
        "details": "See {IERC721Metadata-symbol}."
      },
      "tokenURI(uint256)": {
        "details": "See {IERC721Metadata-tokenURI}."
      },
      "transferFrom(address,address,uint256)": {
        "details": "See {IERC721-transferFrom}."
      },
      "transferOwnership(address)": {
        "details": "Transfers ownership of the contract to a new account (`newOwner`). Can only be called by the current owner."
      }
    },
    "version": 1
  },
  "userdoc": {
    "kind": "user",
    "methods": {},
    "version": 1
  }
}