{
  "contractName": "Equipment",
  "abi": [
    {
      "inputs": [],
      "stateMutability": "nonpayable",
      "type": "constructor"
    },
    {
      "anonymous": false,
      "inputs": [
        {
          "indexed": true,
          "internalType": "address",
          "name": "owner",
          "type": "address"
        },
        {
          "indexed": true,
          "internalType": "address",
          "name": "approved",
          "type": "address"
        },
        {
          "indexed": true,
          "internalType": "uint256",
          "name": "tokenId",
          "type": "uint256"
        }
      ],
      "name": "Approval",
      "type": "event"
    },
    {
      "anonymous": false,
      "inputs": [
        {
          "indexed": true,
          "internalType": "address",
          "name": "owner",
          "type": "address"
        },
        {
          "indexed": true,
          "internalType": "address",
          "name": "operator",
          "type": "address"
        },
        {
          "indexed": false,
          "internalType": "bool",
          "name": "approved",
          "type": "bool"
        }
      ],
      "name": "ApprovalForAll",
      "type": "event"
    },
    {
      "anonymous": false,
      "inputs": [
        {
          "indexed": true,
          "internalType": "address",
          "name": "previousOwner",
          "type": "address"
        },
        {
          "indexed": true,
          "internalType": "address",
          "name": "newOwner",
          "type": "address"
        }
      ],
      "name": "OwnershipTransferred",
      "type": "event"
    },
    {
      "anonymous": false,
      "inputs": [
        {
          "indexed": true,
          "internalType": "bytes32",
          "name": "role",
          "type": "bytes32"
        },
        {
          "indexed": true,
          "internalType": "bytes32",
          "name": "previousAdminRole",
          "type": "bytes32"
        },
        {
          "indexed": true,
          "internalType": "bytes32",
          "name": "newAdminRole",
          "type": "bytes32"
        }
      ],
      "name": "RoleAdminChanged",
      "type": "event"
    },
    {
      "anonymous": false,
      "inputs": [
        {
          "indexed": true,
          "internalType": "bytes32",
          "name": "role",
          "type": "bytes32"
        },
        {
          "indexed": true,
          "internalType": "address",
          "name": "account",
          "type": "address"
        },
        {
          "indexed": true,
          "internalType": "address",
          "name": "sender",
          "type": "address"
        }
      ],
      "name": "RoleGranted",
      "type": "event"
    },
    {
      "anonymous": false,
      "inputs": [
        {
          "indexed": true,
          "internalType": "bytes32",
          "name": "role",
          "type": "bytes32"
        },
        {
          "indexed": true,
          "internalType": "address",
          "name": "account",
          "type": "address"
        },
        {
          "indexed": true,
          "internalType": "address",
          "name": "sender",
          "type": "address"
        }
      ],
      "name": "RoleRevoked",
      "type": "event"
    },
    {
      "anonymous": false,
      "inputs": [
        {
          "indexed": false,
          "internalType": "uint256",
          "name": "tokenId",
          "type": "uint256"
        },
        {
          "components": [
            {
              "internalType": "address payable",
              "name": "account",
              "type": "address"
            },
            {
              "internalType": "uint96",
              "name": "value",
              "type": "uint96"
            }
          ],
          "indexed": false,
          "internalType": "struct LibPart.Part[]",
          "name": "royalties",
          "type": "tuple[]"
        }
      ],
      "name": "RoyaltiesSet",
      "type": "event"
    },
    {
      "anonymous": false,
      "inputs": [
        {
          "indexed": true,
          "internalType": "address",
          "name": "from",
          "type": "address"
        },
        {
          "indexed": true,
          "internalType": "address",
          "name": "to",
          "type": "address"
        },
        {
          "indexed": true,
          "internalType": "uint256",
          "name": "tokenId",
          "type": "uint256"
        }
      ],
      "name": "Transfer",
      "type": "event"
    },
    {
      "inputs": [],
      "name": "DEFAULT_ADMIN_ROLE",
      "outputs": [
        {
          "internalType": "bytes32",
          "name": "",
          "type": "bytes32"
        }
      ],
      "stateMutability": "view",
      "type": "function",
      "constant": true
    },
    {
      "inputs": [],
      "name": "MINTER_ROLE",
      "outputs": [
        {
          "internalType": "bytes32",
          "name": "",
          "type": "bytes32"
        }
      ],
      "stateMutability": "view",
      "type": "function",
      "constant": true
    },
    {
      "inputs": [],
      "name": "POLYMATH_ROLE",
      "outputs": [
        {
          "internalType": "bytes32",
          "name": "",
          "type": "bytes32"
        }
      ],
      "stateMutability": "view",
      "type": "function",
      "constant": true
    },
    {
      "inputs": [
        {
          "internalType": "address",
          "name": "to",
          "type": "address"
        },
        {
          "internalType": "uint256",
          "name": "tokenId",
          "type": "uint256"
        }
      ],
      "name": "approve",
      "outputs": [],
      "stateMutability": "nonpayable",
      "type": "function"
    },
    {
      "inputs": [
        {
          "internalType": "address",
          "name": "owner",
          "type": "address"
        }
      ],
      "name": "balanceOf",
      "outputs": [
        {
          "internalType": "uint256",
          "name": "",
          "type": "uint256"
        }
      ],
      "stateMutability": "view",
      "type": "function",
      "constant": true
    },
    {
      "inputs": [
        {
          "internalType": "uint256",
          "name": "tokenId",
          "type": "uint256"
        }
      ],
      "name": "getApproved",
      "outputs": [
        {
          "internalType": "address",
          "name": "",
          "type": "address"
        }
      ],
      "stateMutability": "view",
      "type": "function",
      "constant": true
    },
    {
      "inputs": [
        {
          "internalType": "uint256",
          "name": "id",
          "type": "uint256"
        }
      ],
      "name": "getRaribleV2Royalties",
      "outputs": [
        {
          "components": [
            {
              "internalType": "address payable",
              "name": "account",
              "type": "address"
            },
            {
              "internalType": "uint96",
              "name": "value",
              "type": "uint96"
            }
          ],
          "internalType": "struct LibPart.Part[]",
          "name": "",
          "type": "tuple[]"
        }
      ],
      "stateMutability": "view",
      "type": "function",
      "constant": true
    },
    {
      "inputs": [
        {
          "internalType": "bytes32",
          "name": "role",
          "type": "bytes32"
        }
      ],
      "name": "getRoleAdmin",
      "outputs": [
        {
          "internalType": "bytes32",
          "name": "",
          "type": "bytes32"
        }
      ],
      "stateMutability": "view",
      "type": "function",
      "constant": true
    },
    {
      "inputs": [
        {
          "internalType": "bytes32",
          "name": "role",
          "type": "bytes32"
        },
        {
          "internalType": "uint256",
          "name": "index",
          "type": "uint256"
        }
      ],
      "name": "getRoleMember",
      "outputs": [
        {
          "internalType": "address",
          "name": "",
          "type": "address"
        }
      ],
      "stateMutability": "view",
      "type": "function",
      "constant": true
    },
    {
      "inputs": [
        {
          "internalType": "bytes32",
          "name": "role",
          "type": "bytes32"
        }
      ],
      "name": "getRoleMemberCount",
      "outputs": [
        {
          "internalType": "uint256",
          "name": "",
          "type": "uint256"
        }
      ],
      "stateMutability": "view",
      "type": "function",
      "constant": true
    },
    {
      "inputs": [
        {
          "internalType": "bytes32",
          "name": "role",
          "type": "bytes32"
        },
        {
          "internalType": "address",
          "name": "account",
          "type": "address"
        }
      ],
      "name": "grantRole",
      "outputs": [],
      "stateMutability": "nonpayable",
      "type": "function"
    },
    {
      "inputs": [
        {
          "internalType": "bytes32",
          "name": "role",
          "type": "bytes32"
        },
        {
          "internalType": "address",
          "name": "account",
          "type": "address"
        }
      ],
      "name": "hasRole",
      "outputs": [
        {
          "internalType": "bool",
          "name": "",
          "type": "bool"
        }
      ],
      "stateMutability": "view",
      "type": "function",
      "constant": true
    },
    {
      "inputs": [
        {
          "internalType": "address",
          "name": "owner",
          "type": "address"
        },
        {
          "internalType": "address",
          "name": "operator",
          "type": "address"
        }
      ],
      "name": "isApprovedForAll",
      "outputs": [
        {
          "internalType": "bool",
          "name": "",
          "type": "bool"
        }
      ],
      "stateMutability": "view",
      "type": "function",
      "constant": true
    },
    {
      "inputs": [],
      "name": "name",
      "outputs": [
        {
          "internalType": "string",
          "name": "",
          "type": "string"
        }
      ],
      "stateMutability": "view",
      "type": "function",
      "constant": true
    },
    {
      "inputs": [],
      "name": "owner",
      "outputs": [
        {
          "internalType": "address",
          "name": "",
          "type": "address"
        }
      ],
      "stateMutability": "view",
      "type": "function",
      "constant": true
    },
    {
      "inputs": [
        {
          "internalType": "uint256",
          "name": "tokenId",
          "type": "uint256"
        }
      ],
      "name": "ownerOf",
      "outputs": [
        {
          "internalType": "address",
          "name": "",
          "type": "address"
        }
      ],
      "stateMutability": "view",
      "type": "function",
      "constant": true
    },
    {
      "inputs": [],
      "name": "renounceOwnership",
      "outputs": [],
      "stateMutability": "nonpayable",
      "type": "function"
    },
    {
      "inputs": [
        {
          "internalType": "bytes32",
          "name": "role",
          "type": "bytes32"
        },
        {
          "internalType": "address",
          "name": "account",
          "type": "address"
        }
      ],
      "name": "renounceRole",
      "outputs": [],
      "stateMutability": "nonpayable",
      "type": "function"
    },
    {
      "inputs": [
        {
          "internalType": "bytes32",
          "name": "role",
          "type": "bytes32"
        },
        {
          "internalType": "address",
          "name": "account",
          "type": "address"
        }
      ],
      "name": "revokeRole",
      "outputs": [],
      "stateMutability": "nonpayable",
      "type": "function"
    },
    {
      "inputs": [
        {
          "internalType": "uint256",
          "name": "",
          "type": "uint256"
        },
        {
          "internalType": "uint256",
          "name": "",
          "type": "uint256"
        }
      ],
      "name": "royalties",
      "outputs": [
        {
          "internalType": "address payable",
          "name": "account",
          "type": "address"
        },
        {
          "internalType": "uint96",
          "name": "value",
          "type": "uint96"
        }
      ],
      "stateMutability": "view",
      "type": "function",
      "constant": true
    },
    {
      "inputs": [
        {
          "internalType": "address",
          "name": "from",
          "type": "address"
        },
        {
          "internalType": "address",
          "name": "to",
          "type": "address"
        },
        {
          "internalType": "uint256",
          "name": "tokenId",
          "type": "uint256"
        }
      ],
      "name": "safeTransferFrom",
      "outputs": [],
      "stateMutability": "nonpayable",
      "type": "function"
    },
    {
      "inputs": [
        {
          "internalType": "address",
          "name": "from",
          "type": "address"
        },
        {
          "internalType": "address",
          "name": "to",
          "type": "address"
        },
        {
          "internalType": "uint256",
          "name": "tokenId",
          "type": "uint256"
        },
        {
          "internalType": "bytes",
          "name": "_data",
          "type": "bytes"
        }
      ],
      "name": "safeTransferFrom",
      "outputs": [],
      "stateMutability": "nonpayable",
      "type": "function"
    },
    {
      "inputs": [
        {
          "internalType": "address",
          "name": "operator",
          "type": "address"
        },
        {
          "internalType": "bool",
          "name": "approved",
          "type": "bool"
        }
      ],
      "name": "setApprovalForAll",
      "outputs": [],
      "stateMutability": "nonpayable",
      "type": "function"
    },
    {
      "inputs": [
        {
          "internalType": "uint256",
          "name": "",
          "type": "uint256"
        }
      ],
      "name": "storeGear",
      "outputs": [
        {
          "internalType": "uint256",
          "name": "class",
          "type": "uint256"
        },
        {
          "internalType": "uint256",
          "name": "slot",
          "type": "uint256"
        },
        {
          "internalType": "uint256",
          "name": "level",
          "type": "uint256"
        }
      ],
      "stateMutability": "view",
      "type": "function",
      "constant": true
    },
    {
      "inputs": [],
      "name": "symbol",
      "outputs": [
        {
          "internalType": "string",
          "name": "",
          "type": "string"
        }
      ],
      "stateMutability": "view",
      "type": "function",
      "constant": true
    },
    {
      "inputs": [
        {
          "internalType": "uint256",
          "name": "tokenId",
          "type": "uint256"
        }
      ],
      "name": "tokenURI",
      "outputs": [
        {
          "internalType": "string",
          "name": "",
          "type": "string"
        }
      ],
      "stateMutability": "view",
      "type": "function",
      "constant": true
    },
    {
      "inputs": [
        {
          "internalType": "address",
          "name": "from",
          "type": "address"
        },
        {
          "internalType": "address",
          "name": "to",
          "type": "address"
        },
        {
          "internalType": "uint256",
          "name": "tokenId",
          "type": "uint256"
        }
      ],
      "name": "transferFrom",
      "outputs": [],
      "stateMutability": "nonpayable",
      "type": "function"
    },
    {
      "inputs": [
        {
          "internalType": "address",
          "name": "newOwner",
          "type": "address"
        }
      ],
      "name": "transferOwnership",
      "outputs": [],
      "stateMutability": "nonpayable",
      "type": "function"
    },
    {
      "inputs": [
        {
          "internalType": "address",
          "name": "_to",
          "type": "address"
        },
        {
          "components": [
            {
              "internalType": "uint256",
              "name": "class",
              "type": "uint256"
            },
            {
              "internalType": "uint256",
              "name": "slot",
              "type": "uint256"
            },
            {
              "internalType": "uint256",
              "name": "level",
              "type": "uint256"
            },
            {
              "internalType": "uint256[10]",
              "name": "stats",
              "type": "uint256[10]"
            }
          ],
          "internalType": "struct Equipment.gearStats",
          "name": "data",
          "type": "tuple"
        }
      ],
      "name": "mint",
      "outputs": [],
      "stateMutability": "nonpayable",
      "type": "function"
    },
    {
      "inputs": [
        {
          "internalType": "address payable",
          "name": "rAddress",
          "type": "address"
        }
      ],
      "name": "setRoyaltiesAddress",
      "outputs": [],
      "stateMutability": "nonpayable",
      "type": "function"
    },
    {
      "inputs": [
        {
          "internalType": "uint96",
          "name": "rBasicPoints",
          "type": "uint96"
        }
      ],
      "name": "setRoyaltiesBasicPoints",
      "outputs": [],
      "stateMutability": "nonpayable",
      "type": "function"
    },
    {
      "inputs": [
        {
          "internalType": "uint256",
          "name": "gear",
          "type": "uint256"
        }
      ],
      "name": "updateLevel",
      "outputs": [],
      "stateMutability": "nonpayable",
      "type": "function"
    },
    {
      "inputs": [
        {
          "internalType": "uint256",
          "name": "lvl",
          "type": "uint256"
        },
        {
          "internalType": "uint256[]",
          "name": "matrixValues",
          "type": "uint256[]"
        }
      ],
      "name": "setMaxLevel",
      "outputs": [],
      "stateMutability": "nonpayable",
      "type": "function"
    },
    {
      "inputs": [],
      "name": "getMatrix",
      "outputs": [
        {
          "internalType": "uint256[]",
          "name": "",
          "type": "uint256[]"
        }
      ],
      "stateMutability": "view",
      "type": "function",
      "constant": true
    },
    {
      "inputs": [
        {
          "internalType": "uint256",
          "name": "idGear",
          "type": "uint256"
        }
      ],
      "name": "baseStats",
      "outputs": [
        {
          "components": [
            {
              "internalType": "uint256",
              "name": "class",
              "type": "uint256"
            },
            {
              "internalType": "uint256",
              "name": "slot",
              "type": "uint256"
            },
            {
              "internalType": "uint256",
              "name": "level",
              "type": "uint256"
            },
            {
              "internalType": "uint256[10]",
              "name": "stats",
              "type": "uint256[10]"
            }
          ],
          "internalType": "struct Equipment.gearStats",
          "name": "",
          "type": "tuple"
        }
      ],
      "stateMutability": "view",
      "type": "function",
      "constant": true
    },
    {
      "inputs": [
        {
          "internalType": "uint256",
          "name": "idGear",
          "type": "uint256"
        }
      ],
      "name": "singleStats",
      "outputs": [
        {
          "components": [
            {
              "internalType": "uint256",
              "name": "class",
              "type": "uint256"
            },
            {
              "internalType": "uint256",
              "name": "slot",
              "type": "uint256"
            },
            {
              "internalType": "uint256",
              "name": "level",
              "type": "uint256"
            },
            {
              "internalType": "uint256[10]",
              "name": "stats",
              "type": "uint256[10]"
            }
          ],
          "internalType": "struct Equipment.gearStats",
          "name": "",
          "type": "tuple"
        }
      ],
      "stateMutability": "view",
      "type": "function",
      "constant": true
    },
    {
      "inputs": [
        {
          "internalType": "address",
          "name": "powner",
          "type": "address"
        }
      ],
      "name": "getEquipment",
      "outputs": [
        {
          "internalType": "uint256[]",
          "name": "",
          "type": "uint256[]"
        }
      ],
      "stateMutability": "view",
      "type": "function",
      "constant": true
    },
    {
      "inputs": [
        {
          "internalType": "uint256",
          "name": "_tokenId",
          "type": "uint256"
        },
        {
          "internalType": "address payable",
          "name": "_royaltiesReceipientAddress",
          "type": "address"
        },
        {
          "internalType": "uint96",
          "name": "_percentageBasisPoints",
          "type": "uint96"
        }
      ],
      "name": "setRoyalties",
      "outputs": [],
      "stateMutability": "nonpayable",
      "type": "function"
    },
    {
      "inputs": [
        {
          "internalType": "uint256",
          "name": "_tokenId",
          "type": "uint256"
        },
        {
          "internalType": "uint256",
          "name": "_salePrice",
          "type": "uint256"
        }
      ],
      "name": "royaltyInfo",
      "outputs": [
        {
          "internalType": "address",
          "name": "receiver",
          "type": "address"
        },
        {
          "internalType": "uint256",
          "name": "royaltyAmount",
          "type": "uint256"
        }
      ],
      "stateMutability": "view",
      "type": "function",
      "constant": true
    },
    {
      "inputs": [
        {
          "internalType": "bytes4",
          "name": "interfaceId",
          "type": "bytes4"
        }
      ],
      "name": "supportsInterface",
      "outputs": [
        {
          "internalType": "bool",
          "name": "",
          "type": "bool"
        }
      ],
      "stateMutability": "view",
      "type": "function",
      "constant": true
    },
    {
      "inputs": [
        {
          "internalType": "uint256",
          "name": "tokenId",
          "type": "uint256"
        }
      ],
      "name": "exists",
      "outputs": [
        {
          "internalType": "bool",
          "name": "",
          "type": "bool"
        }
      ],
      "stateMutability": "view",
      "type": "function",
      "constant": true
    },
    {
      "inputs": [
        {
          "internalType": "address",
          "name": "powner",
          "type": "address"
        },
        {
          "internalType": "uint256",
          "name": "tokenId",
          "type": "uint256"
        }
      ],
      "name": "positionOf",
      "outputs": [
        {
          "internalType": "uint256",
          "name": "",
          "type": "uint256"
        }
      ],
      "stateMutability": "view",
      "type": "function",
      "constant": true
    }
  ],
  "bytecode": "0x60806040526000601e553480156200001657600080fd5b50604080518082018252601981527f436861696e73206f6620476c6f72792045717569706d656e740000000000000060208083019182528351808501909452600384527f4347450000000000000000000000000000000000000000000000000000000000908401528151919291620000919160009162000df5565b508051620000a790600190602084019062000df5565b505050620000d6620000c7620001b1640100000000026401000000009004565b640100000000620001b5810204565b620000fe6000620000ef640100000000620001b1810204565b64010000000062000207810204565b6200012560008051602062004873833981519152620000ef640100000000620001b1810204565b6200015d7ff981fb6fdf0d58703d02e1dadceeaa95ac8ae9afe74ea698f2124fae240aabb0620000ef640100000000620001b1810204565b7505dc00000000000000000000000000000000000000003017600b556200018362000e84565b620001aa6200019a640100000000620001b1810204565b826401000000006200024e810204565b50620010e9565b3390565b60088054600160a060020a03838116600160a060020a0319831681179093556040519116919082907f8be0079c531659141344cd1fd0a4f28419497f9722a3daafe3b4186f6b6457e090600090a35050565b620002218282640100000000620018c06200037582021704565b6000828152600760205260409020620002499082640100000000620018ca6200038a82021704565b505050565b620002846000805160206200487383398151915262000275640100000000620001b1810204565b640100000000620003b3810204565b62000305576040517f08c379a000000000000000000000000000000000000000000000000000000000815260206004820152602860248201526000805160206200485383398151915260448201527f20746f206d696e7400000000000000000000000000000000000000000000000060648201526084015b60405180910390fd5b8051600f9081556020820151601055604082015160115560608201518291906200033490601290600a62000eb3565b5090505062000371826200035d600a620003de64010000000002620018df176401000000009004565b640100000000620018e3620003e282021704565b5050565b62000371828264010000000062000571810204565b6000620003aa83600160a060020a0384166401000000006200060f810204565b90505b92915050565b6000918252600660209081526040808420600160a060020a0393909316845291905290205460ff1690565b5490565b600160a060020a03821662000454576040517f08c379a000000000000000000000000000000000000000000000000000000000815260206004820181905260248201527f4552433732313a206d696e7420746f20746865207a65726f20616464726573736044820152606401620002fc565b620004688164010000000062000667810204565b15620004d1576040517f08c379a000000000000000000000000000000000000000000000000000000000815260206004820152601c60248201527f4552433732313a20746f6b656e20616c7265616479206d696e746564000000006044820152606401620002fc565b620004e86000838364010000000062000684810204565b600160a060020a03821660009081526003602052604081208054600192906200051390849062000fb3565b90915550506000818152600260205260408082208054600160a060020a031916600160a060020a03861690811790915590518392907fddf252ad1be2c89b69c2b068fc378daa952ba7f163c4a11628f55a4df523b3ef908290a45050565b620005868282640100000000620003b3810204565b62000371576000828152600660209081526040808320600160a060020a03851684529091529020805460ff19166001179055620005cb640100000000620001b1810204565b600160a060020a031681600160a060020a0316837f2f8788117e7eff1d82e926ec794901d17c78024a50270940304540a733656f0d60405160405180910390a45050565b6000620006268383640100000000620007ea810204565b6200065e57508154600181810184556000848152602080822090930184905584548482528286019093526040902091909155620003ad565b506000620003ad565b600090815260026020526040902054600160a060020a0316151590565b600160a060020a0383166200078657600f601c6000620006b3600a640100000000620018df620003de82021704565b81526020810191909152604001600020815481556001808301549082015560028083015490820155620006ef6003808301908401600a62000ee3565b5090505062000713600a620008026401000000000262001a44176401000000009004565b600b5462000758908290600160a060020a038116907401000000000000000000000000000000000000000090046001606060020a03166401000000006200080b810204565b600160a060020a03919091166000908152601d60209081526040822080546001810182559083529120015550565b600160a060020a038216620007aa5762000249838264010000000062000975810204565b600160a060020a0382166000908152601d602090815260408220805460018101825590835291200181905562000249838264010000000062000975810204565b60009081526001919091016020526040902054151590565b80546001019055565b620008326000805160206200487383398151915262000275640100000000620001b1810204565b620008af576040517f08c379a000000000000000000000000000000000000000000000000000000000815260206004820152602860248201526000805160206200485383398151915260448201527f20746f206d696e740000000000000000000000000000000000000000000000006064820152608401620002fc565b604080516001808252818301909252600091816020015b6040805180820190915260008082526020820152815260200190600190039081620008c65790505090508181600081518110620009075762000907620010ba565b6020026020010151602001906001606060020a031690816001606060020a0316815250508281600081518110620009425762000942620010ba565b6020908102919091010151600160a060020a0390911690526200096f848264010000000062000a82810204565b50505050565b60006200098c838364010000000062000d0b810204565b600160a060020a0384166000908152601d60205260409020549091508110156200024957600160a060020a0383166000908152601d602052604090208054620009d89060019062000fce565b81548110620009eb57620009eb620010ba565b9060005260206000200154601d600085600160a060020a0316600160a060020a03168152602001908152602001600020828154811062000a2f5762000a2f620010ba565b6000918252602080832090910192909255600160a060020a0385168152601d9091526040902080548062000a675762000a676200108b565b60019003818190600052602060002001600090559055505050565b60005b815181101562000cf5576000600160a060020a031682828151811062000aaf5762000aaf620010ba565b602002602001015160000151600160a060020a0316141562000b2e576040517f08c379a000000000000000000000000000000000000000000000000000000000815260206004820152601b60248201527f526563697069656e742073686f756c642062652070726573656e7400000000006044820152606401620002fc565b81818151811062000b435762000b43620010ba565b6020026020010151602001516001606060020a03166000141562000bc4576040517f08c379a000000000000000000000000000000000000000000000000000000000815260206004820181905260248201527f526f79616c74792076616c75652073686f756c6420626520706f7369746976656044820152606401620002fc565b60008381526009602052604090205462000c56576000838152600960205260409020825183908390811062000bfd5762000bfd620010ba565b6020908102919091018101518254600181018455600093845292829020815191909201516001606060020a03167401000000000000000000000000000000000000000002600160a060020a039091161791015562000ce0565b81818151811062000c6b5762000c6b620010ba565b60200260200101516009600085815260200190815260200160002060008154811062000c9b5762000c9b620010ba565b6000918252602091829020835193909201516001606060020a03167401000000000000000000000000000000000000000002600160a060020a03909316929092179101555b8062000cec816200103e565b91505062000a85565b5062000371828264010000000062000db6810204565b6000805b600160a060020a0384166000908152601d602052604090205481101562000d8f57600160a060020a0384166000908152601d6020526040902080548491908390811062000d605762000d60620010ba565b9060005260206000200154141562000d7a579050620003ad565b8062000d86816200103e565b91505062000d0f565b50600160a060020a0383166000908152601d6020526040902054620003aa90606462000fb3565b7f3fa96d7b6bcbfe71ef171666d84db3cf52fa2d1c8afdb1cc8e486177f208b7df828260405162000de992919062000f47565b60405180910390a15050565b82805462000e039062000fe8565b90600052602060002090601f01602090048101928262000e27576000855562000e72565b82601f1062000e4257805160ff191683800117855562000e72565b8280016001018555821562000e72579182015b8281111562000e7257825182559160200191906001019062000e55565b5062000e8092915062000f11565b5090565b604051806080016040528060008152602001600081526020016000815260200162000eae62000f28565b905290565b82600a810192821562000e72579160200282018281111562000e7257825182559160200191906001019062000e55565b82600a810192821562000e72579182015b8281111562000e7257825482559160010191906001019062000ef4565b5b8082111562000e80576000815560010162000f12565b604051806101400160405280600a906020820280368337509192915050565b6000604080830185845260208281860152818651808452606087019150828801935060005b8181101562000fa55784518051600160a060020a031684528401516001606060020a031684840152938301939185019160010162000f6c565b509098975050505050505050565b6000821982111562000fc95762000fc96200105c565b500190565b60008282101562000fe35762000fe36200105c565b500390565b60028104600182168062000ffd57607f821691505b6020821081141562001038577f4e487b7100000000000000000000000000000000000000000000000000000000600052602260045260246000fd5b50919050565b60006000198214156200105557620010556200105c565b5060010190565b7f4e487b7100000000000000000000000000000000000000000000000000000000600052601160045260246000fd5b7f4e487b7100000000000000000000000000000000000000000000000000000000600052603160045260246000fd5b7f4e487b7100000000000000000000000000000000000000000000000000000000600052603260045260246000fd5b61375a80620010f96000396000f3fe608060405234801561001057600080fd5b506004361061027b576000357c0100000000000000000000000000000000000000000000000000000000900480638da5cb5b11610163578063ca15c873116100e0578063dc87a698116100a4578063dc87a698146105e7578063dc95c4a714610615578063e985e9c514610628578063ea13259114610664578063f2fde38b14610677578063fb7f972c1461068a57600080fd5b8063ca15c8731461055a578063cad96cca1461056d578063d53913931461058d578063d547741f146105b4578063db20f89c146105c757600080fd5b8063a217fddf11610127578063a217fddf14610506578063a22cb4651461050e578063a3fd0d9914610521578063b88d4fde14610534578063c87b56dd1461054757600080fd5b80638da5cb5b146104b45780639010d07c146104c557806391d14854146104d857806392e0150b146104eb57806395d89b41146104fe57600080fd5b806333b75413116101fc5780636352211e116101c05780636352211e1461042157806370a0823114610434578063715018a61461044757806376a66e8d1461044f5780637b2f8f9b146104625780638924af741461047557600080fd5b806333b75413146103ac57806336568abe146103d357806342842e0e146103e65780634f558e79146103f95780635ad3a0a81461040c57600080fd5b8063143094db11610243578063143094db1461031057806323b872dd14610323578063248a9ca3146103365780632a55205a146103675780632f2ff15d1461039957600080fd5b806301ffc9a71461028057806306fdde03146102a8578063081812fc146102bd578063095ea7b3146102e857806311fdb52e146102fd575b600080fd5b61029361028e366004613009565b61069d565b60405190151581526020015b60405180910390f35b6102b0610722565b60405161029f9190613320565b6102d06102cb366004612fa9565b6107b4565b604051600160a060020a03909116815260200161029f565b6102fb6102f6366004612f7d565b610862565b005b6102fb61030b366004613139565b61099a565b6102fb61031e366004613043565b6109f4565b6102fb610331366004612d87565b610afb565b610359610344366004612fa9565b60009081526006602052604090206001015490565b60405190815260200161029f565b61037a610375366004612fe7565b610b2f565b60408051600160a060020a03909316835260208301919091520161029f565b6102fb6103a7366004612fc2565b610c3f565b6103597ff981fb6fdf0d58703d02e1dadceeaa95ac8ae9afe74ea698f2124fae240aabb081565b6102fb6103e1366004612fc2565b610c61565b6102fb6103f4366004612d87565b610c83565b610293610407366004612fa9565b610c9e565b610414610cbd565b60405161029f91906132dc565b6102d061042f366004612fa9565b610d14565b610359610442366004612d31565b610da2565b6102fb610e3f565b6102fb61045d366004613081565b610e78565b610414610470366004612d31565b610f5c565b610488610483366004612fe7565b610fc8565b60408051600160a060020a0390931683526bffffffffffffffffffffffff90911660208301520161029f565b600854600160a060020a03166102d0565b6102d06104d3366004612fe7565b611016565b6102936104e6366004612fc2565b611035565b6102fb6104f9366004612fa9565b611060565b6102b06111ba565b610359600081565b6102fb61051c366004612e8c565b6111c9565b61035961052f366004612f7d565b611291565b6102fb610542366004612dc8565b611331565b6102b0610555366004612fa9565b611366565b610359610568366004612fa9565b611483565b61058061057b366004612fa9565b61149a565b60405161029f91906132c9565b6103597f9f2df0fed2c77648de5860a4cc508cd0818c85b8b8a1ab4ceeef8d981c8956a681565b6102fb6105c2366004612fc2565b61152e565b6105da6105d5366004612fa9565b611538565b60405161029f919061347f565b6105fa6105f5366004612fa9565b61166c565b6040805193845260208401929092529082015260600161029f565b6102fb610623366004612d31565b61169f565b610293610636366004612d4e565b600160a060020a03918216600090815260056020908152604080832093909416825291909152205460ff1690565b6105da610672366004612fa9565b6116fb565b6102fb610685366004612d31565b611778565b6102fb610698366004612ebf565b611830565b6000600160e060020a031982167f44c74bcc0000000000000000000000000000000000000000000000000000000014156106d957506001919050565b600160e060020a031982167f2a55205a00000000000000000000000000000000000000000000000000000000141561071357506001919050565b61071c82611a4d565b92915050565b6060600080546107319061360f565b80601f016020809104026020016040519081016040528092919081815260200182805461075d9061360f565b80156107aa5780601f1061077f576101008083540402835291602001916107aa565b820191906000526020600020905b81548152906001019060200180831161078d57829003601f168201915b5050505050905090565b600081815260026020526040812054600160a060020a03166108465760405160e560020a62461bcd02815260206004820152602c60248201527f4552433732313a20617070726f76656420717565727920666f72206e6f6e657860448201527f697374656e7420746f6b656e000000000000000000000000000000000000000060648201526084015b60405180910390fd5b50600090815260046020526040902054600160a060020a031690565b600061086d82610d14565b905080600160a060020a031683600160a060020a031614156108fa5760405160e560020a62461bcd02815260206004820152602160248201527f4552433732313a20617070726f76616c20746f2063757272656e74206f776e6560448201527f7200000000000000000000000000000000000000000000000000000000000000606482015260840161083d565b33600160a060020a038216148061091657506109168133610636565b61098b5760405160e560020a62461bcd02815260206004820152603860248201527f4552433732313a20617070726f76652063616c6c6572206973206e6f74206f7760448201527f6e6572206e6f7220617070726f76656420666f7220616c6c0000000000000000606482015260840161083d565b6109958383611a8b565b505050565b600854600160a060020a031633146109c75760405160e560020a62461bcd02815260040161083d906133ed565b600b80546bffffffffffffffffffffffff90921660a060020a02600160a060020a03909216919091179055565b610a1e7f9f2df0fed2c77648de5860a4cc508cd0818c85b8b8a1ab4ceeef8d981c8956a633611035565b610a3d5760405160e560020a62461bcd02815260040161083d90613390565b604080516001808252818301909252600091816020015b6040805180820190915260008082526020820152815260200190600190039081610a545790505090508181600081518110610a9157610a916136c7565b6020026020010151602001906bffffffffffffffffffffffff1690816bffffffffffffffffffffffff16815250508281600081518110610ad357610ad36136c7565b6020908102919091010151600160a060020a039091169052610af58482611b06565b50505050565b610b053382611d2a565b610b245760405160e560020a62461bcd02815260040161083d90613422565b610995838383611e35565b6000828152600960209081526040808320805482518185028101850190935280835284938493929190849084015b82821015610bb15760008481526020908190206040805180820190915290840154600160a060020a038116825260a060020a90046bffffffffffffffffffffffff1681830152825260019092019101610b5d565b505050509050600081511115610c2f5780600081518110610bd457610bd46136c7565b60200260200101516000015161271082600081518110610bf657610bf66136c7565b6020026020010151602001516bffffffffffffffffffffffff1686610c1b9190613596565b610c259190613582565b9250925050610c38565b60008092509250505b9250929050565b610c498282612020565b600082815260076020526040902061099590826118ca565b610c6b8282612046565b600082815260076020526040902061099590826120d1565b61099583838360405180602001604052806000815250611331565b600081815260026020526040812054600160a060020a0316151561071c565b6060600d8054806020026020016040519081016040528092919081815260200182805480156107aa57602002820191906000526020600020905b815481526020019060010190808311610cf7575050505050905090565b600081815260026020526040812054600160a060020a03168061071c5760405160e560020a62461bcd02815260206004820152602960248201527f4552433732313a206f776e657220717565727920666f72206e6f6e657869737460448201527f656e7420746f6b656e0000000000000000000000000000000000000000000000606482015260840161083d565b6000600160a060020a038216610e235760405160e560020a62461bcd02815260206004820152602a60248201527f4552433732313a2062616c616e636520717565727920666f7220746865207a6560448201527f726f206164647265737300000000000000000000000000000000000000000000606482015260840161083d565b50600160a060020a031660009081526003602052604090205490565b600854600160a060020a03163314610e6c5760405160e560020a62461bcd02815260040161083d906133ed565b610e7660006120e6565b565b600854600160a060020a03163314610ea55760405160e560020a62461bcd02815260040161083d906133ed565b80518214610f445760405160e560020a62461bcd02815260206004820152604860248201527f457863657074696f6e3a206d7573742070726f766964652061206d617472697860448201527f206f662076616c756573206f66207468652073616d65206c656e67687420746860648201527f616e206c6576656c000000000000000000000000000000000000000000000000608482015260a40161083d565b600c829055805161099590600d906020840190612c0c565b600160a060020a0381166000908152601d6020908152604091829020805483518184028101840190945280845260609392830182828015610fbc57602002820191906000526020600020905b815481526020019060010190808311610fa8575b50505050509050919050565b60096020528160005260406000208181548110610fe457600080fd5b600091825260209091200154600160a060020a038116925060a060020a90046bffffffffffffffffffffffff16905082565b600082815260076020526040812061102e9083612145565b9392505050565b6000918252600660209081526040808420600160a060020a0393909316845291905290205460ff1690565b61108a7ff981fb6fdf0d58703d02e1dadceeaa95ac8ae9afe74ea698f2124fae240aabb033611035565b6110ff5760405160e560020a62461bcd02815260206004820152603360248201527f457863657074696f6e3a206f6e6c792074686520506f6c796d6174682063616e60448201527f2063616c6c20746869732066756e6374696f6e00000000000000000000000000606482015260840161083d565b600c546000828152601c602052604090206002015461111f90600161356a565b106111955760405160e560020a62461bcd02815260206004820152602c60248201527f457863657074696f6e3a2065717569706d656e7420697320616c72656164792060448201527f6174206d6178206c6576656c0000000000000000000000000000000000000000606482015260840161083d565b6000818152601c602052604081206002018054916111b28361364d565b919050555050565b6060600180546107319061360f565b600160a060020a0382163314156112255760405160e560020a62461bcd02815260206004820152601960248201527f4552433732313a20617070726f766520746f2063616c6c657200000000000000604482015260640161083d565b336000818152600560209081526040808320600160a060020a03871680855290835292819020805460ff191686151590811790915590519081529192917f17307eab39ab6107e8899845ad3d59bd9653f200f220920489ca2b5937696c31910160405180910390a35050565b6000805b600160a060020a0384166000908152601d602052604090205481101561130c57600160a060020a0384166000908152601d602052604090208054849190839081106112e2576112e26136c7565b906000526020600020015414156112fa57905061071c565b806113048161364d565b915050611295565b50600160a060020a0383166000908152601d602052604090205461102e90606461356a565b61133b3383611d2a565b61135a5760405160e560020a62461bcd02815260040161083d90613422565b610af584848484612151565b600081815260026020526040902054606090600160a060020a03166113f65760405160e560020a62461bcd02815260206004820152602f60248201527f4552433732314d657461646174613a2055524920717565727920666f72206e6f60448201527f6e6578697374656e7420746f6b656e0000000000000000000000000000000000606482015260840161083d565b600061143260408051808201909152601f81527f68747470733a2f2f6578616d706c65646f6d61696e2f6d657461646174612f00602082015290565b90506000815111611452576040518060200160405280600081525061102e565b8061145c84612187565b60405160200161146d9291906131dd565b6040516020818303038152906040529392505050565b600081815260076020526040812061071c906122c0565b606060096000838152602001908152602001600020805480602002602001604051908101604052809291908181526020016000905b828210156115235760008481526020908190206040805180820190915290840154600160a060020a038116825260a060020a90046bffffffffffffffffffffffff16818301528252600190920191016114cf565b505050509050919050565b610c6b82826122ca565b611540612c57565b611548612c57565b6000838152601c602090815260409182902082516080810184528154815260018201549281019290925260028101548284015282516101408101938490529192909160608401916003840190600a9082845b81548152602001906001019080831161159a575050505050815250509050806040015160001461071c576000600d8260400151815481106115dd576115dd6136c7565b9060005260206000200154905060005b600a81101561166457606482846060015183600a811061160f5761160f6136c7565b602002015161161e9190613596565b6116289190613582565b836060015182600a811061163e5761163e6136c7565b6020020181815161164f919061356a565b9052508061165c8161364d565b9150506115ed565b505092915050565b600e818154811061167c57600080fd5b60009182526020909120600d909102018054600182015460029092015490925083565b600854600160a060020a031633146116cc5760405160e560020a62461bcd02815260040161083d906133ed565b600b805473ffffffffffffffffffffffffffffffffffffffff1916600160a060020a0392909216919091179055565b611703612c57565b6000828152601c602090815260409182902082516080810184528154815260018201549281019290925260028101548284015282516101408101938490529192909160608401916003840190600a9082845b815481526020019060010190808311611755575050505050815250509050919050565b600854600160a060020a031633146117a55760405160e560020a62461bcd02815260040161083d906133ed565b600160a060020a0381166118245760405160e560020a62461bcd02815260206004820152602660248201527f4f776e61626c653a206e6577206f776e657220697320746865207a65726f206160448201527f6464726573730000000000000000000000000000000000000000000000000000606482015260840161083d565b61182d816120e6565b50565b61185a7f9f2df0fed2c77648de5860a4cc508cd0818c85b8b8a1ab4ceeef8d981c8956a633611035565b6118795760405160e560020a62461bcd02815260040161083d90613390565b8051600f9081556020820151601055604082015160115560608201518291906118a690601290600a612c84565b509050506118bc826118b7600a5490565b6118e3565b5050565b6118bc82826122f0565b600061102e83600160a060020a038416612376565b5490565b600160a060020a03821661193c5760405160e560020a62461bcd02815260206004820181905260248201527f4552433732313a206d696e7420746f20746865207a65726f2061646472657373604482015260640161083d565b600081815260026020526040902054600160a060020a0316156119a45760405160e560020a62461bcd02815260206004820152601c60248201527f4552433732313a20746f6b656e20616c7265616479206d696e74656400000000604482015260640161083d565b6119b0600083836123c5565b600160a060020a03821660009081526003602052604081208054600192906119d990849061356a565b9091555050600081815260026020526040808220805473ffffffffffffffffffffffffffffffffffffffff1916600160a060020a03861690811790915590518392907fddf252ad1be2c89b69c2b068fc378daa952ba7f163c4a11628f55a4df523b3ef908290a45050565b80546001019055565b6000600160e060020a031982167f5a05180f00000000000000000000000000000000000000000000000000000000148061071c575061071c826124d1565b6000818152600460205260409020805473ffffffffffffffffffffffffffffffffffffffff1916600160a060020a0384169081179091558190611acd82610d14565b600160a060020a03167f8c5be1e5ebec7d5bd14f71427d1e84f3dd0314c0f7b2291e5b200ac8c7c3b92560405160405180910390a45050565b60005b8151811015611d1f576000600160a060020a0316828281518110611b2f57611b2f6136c7565b602002602001015160000151600160a060020a03161415611b955760405160e560020a62461bcd02815260206004820152601b60248201527f526563697069656e742073686f756c642062652070726573656e740000000000604482015260640161083d565b818181518110611ba757611ba76136c7565b6020026020010151602001516bffffffffffffffffffffffff1660001415611c145760405160e560020a62461bcd02815260206004820181905260248201527f526f79616c74792076616c75652073686f756c6420626520706f736974697665604482015260640161083d565b600083815260096020526040902054611c955760008381526009602052604090208251839083908110611c4957611c496136c7565b6020908102919091018101518254600181018455600093845292829020815191909201516bffffffffffffffffffffffff1660a060020a02600160a060020a0390911617910155611d0d565b818181518110611ca757611ca76136c7565b602002602001015160096000858152602001908152602001600020600081548110611cd457611cd46136c7565b6000918252602091829020835193909201516bffffffffffffffffffffffff1660a060020a02600160a060020a03909316929092179101555b80611d178161364d565b915050611b09565b506118bc828261250f565b600081815260026020526040812054600160a060020a0316611db75760405160e560020a62461bcd02815260206004820152602c60248201527f4552433732313a206f70657261746f7220717565727920666f72206e6f6e657860448201527f697374656e7420746f6b656e0000000000000000000000000000000000000000606482015260840161083d565b6000611dc283610d14565b905080600160a060020a031684600160a060020a03161480611dfd575083600160a060020a0316611df2846107b4565b600160a060020a0316145b80611e2d5750600160a060020a0380821660009081526005602090815260408083209388168352929052205460ff165b949350505050565b82600160a060020a0316611e4882610d14565b600160a060020a031614611ec75760405160e560020a62461bcd02815260206004820152602960248201527f4552433732313a207472616e73666572206f6620746f6b656e2074686174206960448201527f73206e6f74206f776e0000000000000000000000000000000000000000000000606482015260840161083d565b600160a060020a038216611f455760405160e560020a62461bcd028152602060048201526024808201527f4552433732313a207472616e7366657220746f20746865207a65726f2061646460448201527f7265737300000000000000000000000000000000000000000000000000000000606482015260840161083d565b611f508383836123c5565b611f5b600082611a8b565b600160a060020a0383166000908152600360205260408120805460019290611f849084906135b5565b9091555050600160a060020a0382166000908152600360205260408120805460019290611fb290849061356a565b9091555050600081815260026020526040808220805473ffffffffffffffffffffffffffffffffffffffff1916600160a060020a0386811691821790925591518493918716917fddf252ad1be2c89b69c2b068fc378daa952ba7f163c4a11628f55a4df523b3ef91a4505050565b60008281526006602052604090206001015461203c813361254c565b61099583836122f0565b600160a060020a03811633146120c75760405160e560020a62461bcd02815260206004820152602f60248201527f416363657373436f6e74726f6c3a2063616e206f6e6c792072656e6f756e636560448201527f20726f6c657320666f722073656c660000000000000000000000000000000000606482015260840161083d565b6118bc82826125b3565b600061102e83600160a060020a03841661261a565b60088054600160a060020a0383811673ffffffffffffffffffffffffffffffffffffffff19831681179093556040519116919082907f8be0079c531659141344cd1fd0a4f28419497f9722a3daafe3b4186f6b6457e090600090a35050565b600061102e838361270d565b61215c848484611e35565b61216884848484612737565b610af55760405160e560020a62461bcd02815260040161083d90613333565b6060816121c757505060408051808201909152600181527f3000000000000000000000000000000000000000000000000000000000000000602082015290565b8160005b81156121f157806121db8161364d565b91506121ea9050600a83613582565b91506121cb565b60008167ffffffffffffffff81111561220c5761220c6136e0565b6040519080825280601f01601f191660200182016040528015612236576020820181803683370190505b5090505b8415611e2d5761224b6001836135b5565b9150612258600a86613668565b61226390603061356a565b7f010000000000000000000000000000000000000000000000000000000000000002818381518110612297576122976136c7565b6020010190600160f860020a031916908160001a9053506122b9600a86613582565b945061223a565b600061071c825490565b6000828152600660205260409020600101546122e6813361254c565b61099583836125b3565b6122fa8282611035565b6118bc576000828152600660209081526040808320600160a060020a03851684529091529020805460ff191660011790556123323390565b600160a060020a031681600160a060020a0316837f2f8788117e7eff1d82e926ec794901d17c78024a50270940304540a733656f0d60405160405180910390a45050565b60008181526001830160205260408120546123bd5750815460018181018455600084815260208082209093018490558454848252828601909352604090209190915561071c565b50600061071c565b600160a060020a03831661248457600f601c60006123e2600a5490565b8152602081019190915260400160002081548155600180830154908201556002808301549082015561241c6003808301908401600a612cb1565b5050600a8054600101905550600b54612456908290600160a060020a0381169060a060020a90046bffffffffffffffffffffffff166109f4565b600160a060020a03919091166000908152601d60209081526040822080546001810182559083529120015550565b600160a060020a03821661249c576109958382612879565b600160a060020a0382166000908152601d60209081526040822080546001810182559083529120018190556109958382612879565b6000600160e060020a031982167f7965db0b00000000000000000000000000000000000000000000000000000000148061071c575061071c8261296f565b7f3fa96d7b6bcbfe71ef171666d84db3cf52fa2d1c8afdb1cc8e486177f208b7df82826040516125409291906134d3565b60405180910390a15050565b6125568282611035565b6118bc5761256e81600160a060020a03166014612a0a565b612579836020612a0a565b60405160200161258a92919061320c565b60408051601f198184030181529082905260e560020a62461bcd02825261083d91600401613320565b6125bd8282611035565b156118bc576000828152600660209081526040808320600160a060020a0385168085529252808320805460ff1916905551339285917ff6391f5c32d9c69d2a47ea670b442974b53935d1edc7fd64eb21e047a839171b9190a45050565b6000818152600183016020526040812054801561270357600061263e6001836135b5565b8554909150600090612652906001906135b5565b90508181146126b7576000866000018281548110612672576126726136c7565b9060005260206000200154905080876000018481548110612695576126956136c7565b6000918252602080832090910192909255918252600188019052604090208390555b85548690806126c8576126c86136ae565b60019003818190600052602060002001600090559055856001016000868152602001908152602001600020600090556001935050505061071c565b600091505061071c565b6000826000018281548110612724576127246136c7565b9060005260206000200154905092915050565b6000600160a060020a0384163b1561286e576040517f150b7a02000000000000000000000000000000000000000000000000000000008152600160a060020a0385169063150b7a029061279490339089908890889060040161328d565b602060405180830381600087803b1580156127ae57600080fd5b505af19250505080156127de575060408051601f3d908101601f191682019092526127db91810190613026565b60015b61283b573d80801561280c576040519150601f19603f3d011682016040523d82523d6000602084013e612811565b606091505b5080516128335760405160e560020a62461bcd02815260040161083d90613333565b805181602001fd5b600160e060020a0319167f150b7a0200000000000000000000000000000000000000000000000000000000149050611e2d565b506001949350505050565b60006128858383611291565b600160a060020a0384166000908152601d602052604090205490915081101561099557600160a060020a0383166000908152601d6020526040902080546128ce906001906135b5565b815481106128de576128de6136c7565b9060005260206000200154601d600085600160a060020a0316600160a060020a03168152602001908152602001600020828154811061291f5761291f6136c7565b6000918252602080832090910192909255600160a060020a0385168152601d90915260409020805480612954576129546136ae565b60019003818190600052602060002001600090559055505050565b6000600160e060020a031982167f80ac58cd0000000000000000000000000000000000000000000000000000000014806129d25750600160e060020a031982167f5b5e139f00000000000000000000000000000000000000000000000000000000145b8061071c57507f01ffc9a700000000000000000000000000000000000000000000000000000000600160e060020a031983161461071c565b60606000612a19836002613596565b612a2490600261356a565b67ffffffffffffffff811115612a3c57612a3c6136e0565b6040519080825280601f01601f191660200182016040528015612a66576020820181803683370190505b5090507f300000000000000000000000000000000000000000000000000000000000000081600081518110612a9d57612a9d6136c7565b6020010190600160f860020a031916908160001a9053507f780000000000000000000000000000000000000000000000000000000000000081600181518110612ae857612ae86136c7565b6020010190600160f860020a031916908160001a9053506000612b0c846002613596565b612b1790600161356a565b90505b6001811115612bba577f303132333435363738396162636465660000000000000000000000000000000085600f1660108110612b5857612b586136c7565b1a7f010000000000000000000000000000000000000000000000000000000000000002828281518110612b8d57612b8d6136c7565b6020010190600160f860020a031916908160001a905350601090940493612bb3816135f8565b9050612b1a565b50831561102e5760405160e560020a62461bcd02815260206004820181905260248201527f537472696e67733a20686578206c656e67746820696e73756666696369656e74604482015260640161083d565b828054828255906000526020600020908101928215612c47579160200282015b82811115612c47578251825591602001919060010190612c2c565b50612c53929150612cdc565b5090565b6040518060800160405280600081526020016000815260200160008152602001612c7f612cf1565b905290565b82600a8101928215612c475791602002820182811115612c47578251825591602001919060010190612c2c565b82600a8101928215612c47579182015b82811115612c47578254825591600101919060010190612cc1565b5b80821115612c535760008155600101612cdd565b604051806101400160405280600a906020820280368337509192915050565b80356bffffffffffffffffffffffff81168114612d2c57600080fd5b919050565b600060208284031215612d4357600080fd5b813561102e816136f9565b60008060408385031215612d6157600080fd5b8235612d6c816136f9565b91506020830135612d7c816136f9565b809150509250929050565b600080600060608486031215612d9c57600080fd5b8335612da7816136f9565b92506020840135612db7816136f9565b929592945050506040919091013590565b60008060008060808587031215612dde57600080fd5b8435612de9816136f9565b9350602085810135612dfa816136f9565b935060408601359250606086013567ffffffffffffffff80821115612e1e57600080fd5b818801915088601f830112612e3257600080fd5b813581811115612e4457612e446136e0565b612e56601f8201601f19168501613539565b91508082528984828501011115612e6c57600080fd5b808484018584013760008482840101525080935050505092959194509250565b60008060408385031215612e9f57600080fd5b8235612eaa816136f9565b915060208301358015158114612d7c57600080fd5b6000808284036101c080821215612ed557600080fd5b8435612ee0816136f9565b935060206101a0601f1984011215612ef757600080fd5b612eff6134ec565b92508086013583526040860135818401526060860135604084015286609f870112612f2957600080fd5b612f31613515565b806080880189858a011115612f4557600080fd5b600094505b600a851015612f69578035835260019490940193918301918301612f4a565b506060850152509396919550909350505050565b60008060408385031215612f9057600080fd5b8235612f9b816136f9565b946020939093013593505050565b600060208284031215612fbb57600080fd5b5035919050565b60008060408385031215612fd557600080fd5b823591506020830135612d7c816136f9565b60008060408385031215612ffa57600080fd5b50508035926020909101359150565b60006020828403121561301b57600080fd5b813561102e8161370e565b60006020828403121561303857600080fd5b815161102e8161370e565b60008060006060848603121561305857600080fd5b83359250602084013561306a816136f9565b915061307860408501612d10565b90509250925092565b6000806040838503121561309457600080fd5b8235915060208084013567ffffffffffffffff808211156130b457600080fd5b818601915086601f8301126130c857600080fd5b8135818111156130da576130da6136e0565b83810291506130ea848301613539565b8181528481019084860184860187018b101561310557600080fd5b600095505b8386101561312857803583526001959095019491860191860161310a565b508096505050505050509250929050565b60006020828403121561314b57600080fd5b61102e82612d10565b600081518084526020808501945080840160005b838110156131a65781518051600160a060020a031688528301516bffffffffffffffffffffffff168388015260409096019590820190600101613168565b509495945050505050565b600081518084526131c98160208601602086016135cc565b601f01601f19169290920160200192915050565b600083516131ef8184602088016135cc565b8351908301906132038183602088016135cc565b01949350505050565b7f416363657373436f6e74726f6c3a206163636f756e74200000000000000000008152600083516132448160178501602088016135cc565b7f206973206d697373696e6720726f6c652000000000000000000000000000000060179184019182015283516132818160288401602088016135cc565b01602801949350505050565b6000600160a060020a038087168352808616602084015250836040830152608060608301526132bf60808301846131b1565b9695505050505050565b60208152600061102e6020830184613154565b6020808252825182820181905260009190848201906040850190845b81811015613314578351835292840192918401916001016132f8565b50909695505050505050565b60208152600061102e60208301846131b1565b60208082526032908201527f4552433732313a207472616e7366657220746f206e6f6e20455243373231526560408201527f63656976657220696d706c656d656e7465720000000000000000000000000000606082015260800190565b60208082526028908201527f457863657074696f6e3a206d7573742068617665206d696e74657220726f6c6560408201527f20746f206d696e74000000000000000000000000000000000000000000000000606082015260800190565b6020808252818101527f4f776e61626c653a2063616c6c6572206973206e6f7420746865206f776e6572604082015260600190565b60208082526031908201527f4552433732313a207472616e736665722063616c6c6572206973206e6f74206f60408201527f776e6572206e6f7220617070726f766564000000000000000000000000000000606082015260800190565b60006101a08201905082518252602080840151818401526040840151604084015260608401516060840160005b600a8110156134c9578251825291830191908301906001016134ac565b5050505092915050565b828152604060208201526000611e2d6040830184613154565b6040516080810167ffffffffffffffff8111828210171561350f5761350f6136e0565b60405290565b604051610140810167ffffffffffffffff8111828210171561350f5761350f6136e0565b604051601f8201601f1916810167ffffffffffffffff81118282101715613562576135626136e0565b604052919050565b6000821982111561357d5761357d61367c565b500190565b60008261359157613591613695565b500490565b60008160001904831182151516156135b0576135b061367c565b500290565b6000828210156135c7576135c761367c565b500390565b60005b838110156135e75781810151838201526020016135cf565b83811115610af55750506000910152565b6000816136075761360761367c565b506000190190565b60028104600182168061362357607f821691505b602082108114156136475760e060020a634e487b7102600052602260045260246000fd5b50919050565b60006000198214156136615761366161367c565b5060010190565b60008261367757613677613695565b500690565b60e060020a634e487b7102600052601160045260246000fd5b60e060020a634e487b7102600052601260045260246000fd5b60e060020a634e487b7102600052603160045260246000fd5b60e060020a634e487b7102600052603260045260246000fd5b60e060020a634e487b7102600052604160045260246000fd5b600160a060020a038116811461182d57600080fd5b600160e060020a03198116811461182d57600080fdfea2646970667358221220a8fb7f6fadf6331cb84a0ce4a2ea04ae1462aac0709021410fa1f78e8c66d17a64736f6c63430008060033457863657074696f6e3a206d7573742068617665206d696e74657220726f6c659f2df0fed2c77648de5860a4cc508cd0818c85b8b8a1ab4ceeef8d981c8956a6",
  "immutableReferences": {},
  "source": "//SPDX-License-Identifier: MIT\npragma solidity ^0.8.0;\n\nimport \"@openzeppelin/contracts/token/ERC721/ERC721.sol\";\nimport \"@openzeppelin/contracts/access/Ownable.sol\";\nimport \"@openzeppelin/contracts/access/AccessControlEnumerable.sol\";\nimport \"@openzeppelin/contracts/utils/Counters.sol\";\nimport \"./rarible/royalties/contracts/impl/RoyaltiesV2Impl.sol\";\nimport \"./rarible/royalties/contracts/LibPart.sol\";\nimport \"./rarible/royalties/contracts/LibRoyaltiesV2.sol\";\n\ncontract Equipment is ERC721, AccessControlEnumerable, Ownable, RoyaltiesV2Impl {\n    using Counters for Counters.Counter;\n    Counters.Counter private _tokenIdTracker;\n    \n    //Adds support for OpenSea\n    bytes4 private constant _INTERFACE_ID_ERC2981 = 0x2a55205a;\n\n    //Roles of monter and burner\n    bytes32 public constant MINTER_ROLE = keccak256(\"MINTER_ROLE\");\n    bytes32 public constant POLYMATH_ROLE = keccak256(\"POLYMATH_ROLE\");\n\n    //Royaties address and amntou\n    address payable private _royaltiesAddress;\n    uint96 _royaltiesBasicPoints;\n\n    //Stats of players and enemies\n    struct gearStats {\n        uint class;\t            //Index on the NFT for client use\n        uint slot;\t\t        //0-Head 1-Neck 2-Chest 3-Belt 4-Legs 5-Feet 6-Arms \n                                //7-RHand (weapon) 8-LHand(complement) 9-Finger 10-Mount 100-Wildcard\n        uint level;     \t    //By default is 0. Evolvable NFTs may upgrade this level\n        uint256[10] stats;      //0-Health 1-Vitality 2-Attack 3-Defense 4-Mastery \n                                //5-Speed 6-Luck 7-Faith 8-reserved 9-reserved \n                                //NOTE: We use last two for the store, PRICE IN TOKENS AT POS 9!!\n        //NOTE: DO NOT USE DECIMALS, INSTEAD MULTIPLY BY 100\n    }\n\n    //maximum level a gear can go. \n    //This value may be updated based on the current tier\n    //For first tier we may limit to 10, the for second to 20, etc...\n    //The upgrade matrix MUST be also updated in order to go further with tiers\n    uint maxLevel;\n\n    //It MUST contains the coeficients to apply to each level upgrade\n    //There must be the same amount of element as maxLevel\n    //For example, in tier 1 maxLevel=10\n    //upgradeMatrix=[0, 5, 10, 14, 18, 21, 24, 26, 28, 30]\n    //Each level means the percentage of upgrade for the level regarding the basic stats    \n    uint256[] upgradeMatrix;\n\n    //Gear offered in the stores\n    //Administrators may update, delete or modify the content\n    //The store should read this array and populate the store acording to it\n    gearStats[] public storeGear;\n\n\n    //Used by _beforeTokenTransfer to catch the after minting\n    gearStats private gearToMint;\n\n\n    //Mapping from NFT to struct\n    mapping(uint256 => gearStats) private values;\n\n    // Mapping from owner address to token ID. It is used to quickly get all NFTs on an address\n    mapping(address => uint256[]) private _tokensByOwner;\n\n    //Generic random counter, used to add a bit more of entropy\n    uint randomNonce=0;\n\n    constructor() ERC721(\"Chains of Glory Equipment\", \"CGE\") {\n        _setupRole(DEFAULT_ADMIN_ROLE, _msgSender());\n\n        _setupRole(MINTER_ROLE, _msgSender());\n        _setupRole(POLYMATH_ROLE, _msgSender());\n\n        //Royaties address and amntou\n        _royaltiesAddress=payable(address(this)); //Contract creator by default\n        _royaltiesBasicPoints=1500; //15% default\n\n        gearStats memory gear;\n        //Creates the 0 NFT which is special. Means 'empty slot' for the characters\n        mint(_msgSender(), gear);\n    }\n\n    function mint(address _to, gearStats memory data) public {\n        require(hasRole(MINTER_ROLE, _msgSender()), \"Exception: must have minter role to mint\");\n        \n        //Stores the struct to assign when mint os ok\n        gearToMint=data;\n        super._mint(_to, _tokenIdTracker.current()); \n    }\n\n    //GameToken Token Address\n    function setRoyaltiesAddress(address payable rAddress) public onlyOwner {\n        _royaltiesAddress=rAddress;\n    }\n\n    //GameToken Token Address\n    function setRoyaltiesBasicPoints(uint96 rBasicPoints) public onlyOwner {\n        _royaltiesBasicPoints=rBasicPoints;\n    }\n\n    //Update the level of the gear and recalculates all stats\n    //Only Polymath role can do it. \n    //To recalculate stats function uses the upgrade matrix. See above...\n    function updateLevel(uint256 gear) public {\n        require(hasRole(POLYMATH_ROLE, _msgSender()), \"Exception: only the Polymath can call this function\");\n        require((values[gear].level + 1) < maxLevel, \"Exception: equipment is already at max level\");\n        \n        values[gear].level++;\n    }\n\n    //Set the max level of the gears\n    function setMaxLevel(uint lvl, uint256[] memory matrixValues) public {\n        require(owner() == _msgSender(), \"Ownable: caller is not the owner\");\n        require(lvl == matrixValues.length, \"Exception: must provide a matrix of values of the same lenght than level\");\n\n        maxLevel=lvl;\n        upgradeMatrix=matrixValues;\n    }\n\n    function getMatrix() public view returns (uint256[] memory){\n        return upgradeMatrix;\n    }\n\n    function _beforeTokenTransfer(address from, address to, uint256 tokenId) internal virtual override(ERC721) {\n        if(from==address(0)) {\n            //Minting ok, creates struct of stats\n            values[_tokenIdTracker.current()] = gearToMint;\n            _tokenIdTracker.increment();\n\n            //When mint a new NFT sets the royalties address\n            setRoyalties(tokenId, _royaltiesAddress, _royaltiesBasicPoints);\n\n            //Updates the _tokensByOwner mapping            \n            _tokensByOwner[to].push(tokenId);\n        } else if(to==address(0)) {\n            //Burning\n\n            //Updates the _tokensByOwner mapping\n            deleteTokenId(from, tokenId);\n        } else {\n            //Normal transfer\n\n            //Updates the _tokensByOwner mapping\n            _tokensByOwner[to].push(tokenId);\n            deleteTokenId(from, tokenId);\n        }\n    }\n\n    //Returns the base gearStats of the NFT \n    function baseStats(uint256 idGear) public view returns(gearStats memory) {\n        return values[idGear];\n    }\n\n    //Returns the gearStats of the NFT aplying the level modifier\n    function singleStats(uint256 idGear) public view returns(gearStats memory) {\n        gearStats memory baseGear;\n        baseGear=values[idGear];\n        if(baseGear.level!=0) {\n            uint256 multiplier=upgradeMatrix[baseGear.level];        \n            for(uint i=0; i< baseGear.stats.length; i++) { //Remkember that last 2 are reserved!!\n                baseGear.stats[i]+=(baseGear.stats[i]*multiplier)/100;\n            }\n        }\n        return baseGear;\n    }\n\n    //Returns the array of NFTs owned by an address\n    function getEquipment(address powner) public view returns (uint256[] memory) {\n        return _tokensByOwner[powner];\n    }\n\n    function _baseURI() internal view virtual override returns (string memory) {\n        return \"https://exampledomain/metadata/\";\n    }\n\n    function setRoyalties(uint256 _tokenId, address payable _royaltiesReceipientAddress, uint96 _percentageBasisPoints) public {\n        require(hasRole(MINTER_ROLE, _msgSender()), \"Exception: must have minter role to mint\");\n        LibPart.Part[] memory _royalties = new LibPart.Part[](1);\n        _royalties[0].value = _percentageBasisPoints;\n        _royalties[0].account = _royaltiesReceipientAddress;\n        _saveRoyalties(_tokenId, _royalties);\n    }\n\n    function royaltyInfo(uint256 _tokenId, uint256 _salePrice ) external view returns ( address receiver, uint256 royaltyAmount) {\n        LibPart.Part[] memory _royalties = royalties[_tokenId];\n        if(_royalties.length > 0) {\n            return(_royalties[0].account, (_salePrice * _royalties[0].value)/10000);\n        }\n        return (address(0), 0);\n    }\n\n    function supportsInterface(bytes4 interfaceId) public view virtual override(ERC721, AccessControlEnumerable) returns (bool) {\n        if (interfaceId == LibRoyaltiesV2._INTERFACE_ID_ROYALTIES) {\n            return true;\n        }\n\n        if(interfaceId == _INTERFACE_ID_ERC2981) {\n            return true;\n        }\n\n        return super.supportsInterface(interfaceId);\n    }\n\n    //Public wrapper of _exists\n    function exists(uint256 tokenId) public view returns (bool) {\n        return _exists(tokenId);\n    }\n\n    //Pseudo random. I think is enough for the game\n    function randMod(uint _modulus) internal returns(uint) {\n        randomNonce++; \n        return uint(keccak256(abi.encodePacked(block.timestamp, msg.sender, randomNonce))) % _modulus;\n    }\n\n    //************************************************************\n    // ARRAY functions \n    //************************************************************\n    function positionOf(address powner, uint256 tokenId) public view returns (uint) {\n        for(uint i=0; i<_tokensByOwner[powner].length; i++) {\n            if(_tokensByOwner[powner][i]==tokenId)\n                return i;\n        }\n        return _tokensByOwner[powner].length+100;\n    }\n\n    function deleteTokenId(address powner, uint256 tokenId) internal {\n        //Updates the _tokensByOwner mapping\n        uint pos=positionOf(powner, tokenId);\n        if(pos<_tokensByOwner[powner].length) {\n            _tokensByOwner[powner][pos]= _tokensByOwner[powner][ _tokensByOwner[powner].length-1];\n            _tokensByOwner[powner].pop();\n        }\n    }\n\n}",
  "sourcePath": "/home/javi/ChainsOfGlory/contracts/Equipment.sol",
  "compiler": {
    "name": "solc",
    "version": "0.8.6+commit.11564f7e.Emscripten.clang"
  },
  "schemaVersion": "3.4.3",
  "updatedAt": "2021-11-24T11:30:43.332Z",
  "networkType": "ethereum",
  "devdoc": {
    "kind": "dev",
    "methods": {
      "approve(address,uint256)": {
        "details": "See {IERC721-approve}."
      },
      "balanceOf(address)": {
        "details": "See {IERC721-balanceOf}."
      },
      "getApproved(uint256)": {
        "details": "See {IERC721-getApproved}."
      },
      "getRoleAdmin(bytes32)": {
        "details": "Returns the admin role that controls `role`. See {grantRole} and {revokeRole}. To change a role's admin, use {_setRoleAdmin}."
      },
      "getRoleMember(bytes32,uint256)": {
        "details": "Returns one of the accounts that have `role`. `index` must be a value between 0 and {getRoleMemberCount}, non-inclusive. Role bearers are not sorted in any particular way, and their ordering may change at any point. WARNING: When using {getRoleMember} and {getRoleMemberCount}, make sure you perform all queries on the same block. See the following https://forum.openzeppelin.com/t/iterating-over-elements-on-enumerableset-in-openzeppelin-contracts/2296[forum post] for more information."
      },
      "getRoleMemberCount(bytes32)": {
        "details": "Returns the number of accounts that have `role`. Can be used together with {getRoleMember} to enumerate all bearers of a role."
      },
      "grantRole(bytes32,address)": {
        "details": "Overload {grantRole} to track enumerable memberships"
      },
      "hasRole(bytes32,address)": {
        "details": "Returns `true` if `account` has been granted `role`."
      },
      "isApprovedForAll(address,address)": {
        "details": "See {IERC721-isApprovedForAll}."
      },
      "name()": {
        "details": "See {IERC721Metadata-name}."
      },
      "owner()": {
        "details": "Returns the address of the current owner."
      },
      "ownerOf(uint256)": {
        "details": "See {IERC721-ownerOf}."
      },
      "renounceOwnership()": {
        "details": "Leaves the contract without owner. It will not be possible to call `onlyOwner` functions anymore. Can only be called by the current owner. NOTE: Renouncing ownership will leave the contract without an owner, thereby removing any functionality that is only available to the owner."
      },
      "renounceRole(bytes32,address)": {
        "details": "Overload {renounceRole} to track enumerable memberships"
      },
      "revokeRole(bytes32,address)": {
        "details": "Overload {revokeRole} to track enumerable memberships"
      },
      "safeTransferFrom(address,address,uint256)": {
        "details": "See {IERC721-safeTransferFrom}."
      },
      "safeTransferFrom(address,address,uint256,bytes)": {
        "details": "See {IERC721-safeTransferFrom}."
      },
      "setApprovalForAll(address,bool)": {
        "details": "See {IERC721-setApprovalForAll}."
      },
      "symbol()": {
        "details": "See {IERC721Metadata-symbol}."
      },
      "tokenURI(uint256)": {
        "details": "See {IERC721Metadata-tokenURI}."
      },
      "transferFrom(address,address,uint256)": {
        "details": "See {IERC721-transferFrom}."
      },
      "transferOwnership(address)": {
        "details": "Transfers ownership of the contract to a new account (`newOwner`). Can only be called by the current owner."
      }
    },
    "version": 1
  },
  "userdoc": {
    "kind": "user",
    "methods": {},
    "version": 1
  }
}