{
  "contractName": "Equipment",
  "abi": [
    {
      "inputs": [],
      "stateMutability": "nonpayable",
      "type": "constructor"
    },
    {
      "anonymous": false,
      "inputs": [
        {
          "indexed": true,
          "internalType": "address",
          "name": "owner",
          "type": "address"
        },
        {
          "indexed": true,
          "internalType": "address",
          "name": "approved",
          "type": "address"
        },
        {
          "indexed": true,
          "internalType": "uint256",
          "name": "tokenId",
          "type": "uint256"
        }
      ],
      "name": "Approval",
      "type": "event"
    },
    {
      "anonymous": false,
      "inputs": [
        {
          "indexed": true,
          "internalType": "address",
          "name": "owner",
          "type": "address"
        },
        {
          "indexed": true,
          "internalType": "address",
          "name": "operator",
          "type": "address"
        },
        {
          "indexed": false,
          "internalType": "bool",
          "name": "approved",
          "type": "bool"
        }
      ],
      "name": "ApprovalForAll",
      "type": "event"
    },
    {
      "anonymous": false,
      "inputs": [
        {
          "indexed": true,
          "internalType": "address",
          "name": "previousOwner",
          "type": "address"
        },
        {
          "indexed": true,
          "internalType": "address",
          "name": "newOwner",
          "type": "address"
        }
      ],
      "name": "OwnershipTransferred",
      "type": "event"
    },
    {
      "anonymous": false,
      "inputs": [
        {
          "indexed": true,
          "internalType": "bytes32",
          "name": "role",
          "type": "bytes32"
        },
        {
          "indexed": true,
          "internalType": "bytes32",
          "name": "previousAdminRole",
          "type": "bytes32"
        },
        {
          "indexed": true,
          "internalType": "bytes32",
          "name": "newAdminRole",
          "type": "bytes32"
        }
      ],
      "name": "RoleAdminChanged",
      "type": "event"
    },
    {
      "anonymous": false,
      "inputs": [
        {
          "indexed": true,
          "internalType": "bytes32",
          "name": "role",
          "type": "bytes32"
        },
        {
          "indexed": true,
          "internalType": "address",
          "name": "account",
          "type": "address"
        },
        {
          "indexed": true,
          "internalType": "address",
          "name": "sender",
          "type": "address"
        }
      ],
      "name": "RoleGranted",
      "type": "event"
    },
    {
      "anonymous": false,
      "inputs": [
        {
          "indexed": true,
          "internalType": "bytes32",
          "name": "role",
          "type": "bytes32"
        },
        {
          "indexed": true,
          "internalType": "address",
          "name": "account",
          "type": "address"
        },
        {
          "indexed": true,
          "internalType": "address",
          "name": "sender",
          "type": "address"
        }
      ],
      "name": "RoleRevoked",
      "type": "event"
    },
    {
      "anonymous": false,
      "inputs": [
        {
          "indexed": false,
          "internalType": "uint256",
          "name": "tokenId",
          "type": "uint256"
        },
        {
          "components": [
            {
              "internalType": "address payable",
              "name": "account",
              "type": "address"
            },
            {
              "internalType": "uint96",
              "name": "value",
              "type": "uint96"
            }
          ],
          "indexed": false,
          "internalType": "struct LibPart.Part[]",
          "name": "royalties",
          "type": "tuple[]"
        }
      ],
      "name": "RoyaltiesSet",
      "type": "event"
    },
    {
      "anonymous": false,
      "inputs": [
        {
          "indexed": true,
          "internalType": "address",
          "name": "from",
          "type": "address"
        },
        {
          "indexed": true,
          "internalType": "address",
          "name": "to",
          "type": "address"
        },
        {
          "indexed": true,
          "internalType": "uint256",
          "name": "tokenId",
          "type": "uint256"
        }
      ],
      "name": "Transfer",
      "type": "event"
    },
    {
      "inputs": [],
      "name": "BURNER_ROLE",
      "outputs": [
        {
          "internalType": "bytes32",
          "name": "",
          "type": "bytes32"
        }
      ],
      "stateMutability": "view",
      "type": "function",
      "constant": true
    },
    {
      "inputs": [],
      "name": "DEFAULT_ADMIN_ROLE",
      "outputs": [
        {
          "internalType": "bytes32",
          "name": "",
          "type": "bytes32"
        }
      ],
      "stateMutability": "view",
      "type": "function",
      "constant": true
    },
    {
      "inputs": [],
      "name": "MINTER_ROLE",
      "outputs": [
        {
          "internalType": "bytes32",
          "name": "",
          "type": "bytes32"
        }
      ],
      "stateMutability": "view",
      "type": "function",
      "constant": true
    },
    {
      "inputs": [
        {
          "internalType": "address",
          "name": "to",
          "type": "address"
        },
        {
          "internalType": "uint256",
          "name": "tokenId",
          "type": "uint256"
        }
      ],
      "name": "approve",
      "outputs": [],
      "stateMutability": "nonpayable",
      "type": "function"
    },
    {
      "inputs": [
        {
          "internalType": "address",
          "name": "owner",
          "type": "address"
        }
      ],
      "name": "balanceOf",
      "outputs": [
        {
          "internalType": "uint256",
          "name": "",
          "type": "uint256"
        }
      ],
      "stateMutability": "view",
      "type": "function",
      "constant": true
    },
    {
      "inputs": [
        {
          "internalType": "uint256",
          "name": "tokenId",
          "type": "uint256"
        }
      ],
      "name": "getApproved",
      "outputs": [
        {
          "internalType": "address",
          "name": "",
          "type": "address"
        }
      ],
      "stateMutability": "view",
      "type": "function",
      "constant": true
    },
    {
      "inputs": [
        {
          "internalType": "uint256",
          "name": "id",
          "type": "uint256"
        }
      ],
      "name": "getRaribleV2Royalties",
      "outputs": [
        {
          "components": [
            {
              "internalType": "address payable",
              "name": "account",
              "type": "address"
            },
            {
              "internalType": "uint96",
              "name": "value",
              "type": "uint96"
            }
          ],
          "internalType": "struct LibPart.Part[]",
          "name": "",
          "type": "tuple[]"
        }
      ],
      "stateMutability": "view",
      "type": "function",
      "constant": true
    },
    {
      "inputs": [
        {
          "internalType": "bytes32",
          "name": "role",
          "type": "bytes32"
        }
      ],
      "name": "getRoleAdmin",
      "outputs": [
        {
          "internalType": "bytes32",
          "name": "",
          "type": "bytes32"
        }
      ],
      "stateMutability": "view",
      "type": "function",
      "constant": true
    },
    {
      "inputs": [
        {
          "internalType": "bytes32",
          "name": "role",
          "type": "bytes32"
        },
        {
          "internalType": "uint256",
          "name": "index",
          "type": "uint256"
        }
      ],
      "name": "getRoleMember",
      "outputs": [
        {
          "internalType": "address",
          "name": "",
          "type": "address"
        }
      ],
      "stateMutability": "view",
      "type": "function",
      "constant": true
    },
    {
      "inputs": [
        {
          "internalType": "bytes32",
          "name": "role",
          "type": "bytes32"
        }
      ],
      "name": "getRoleMemberCount",
      "outputs": [
        {
          "internalType": "uint256",
          "name": "",
          "type": "uint256"
        }
      ],
      "stateMutability": "view",
      "type": "function",
      "constant": true
    },
    {
      "inputs": [
        {
          "internalType": "bytes32",
          "name": "role",
          "type": "bytes32"
        },
        {
          "internalType": "address",
          "name": "account",
          "type": "address"
        }
      ],
      "name": "grantRole",
      "outputs": [],
      "stateMutability": "nonpayable",
      "type": "function"
    },
    {
      "inputs": [
        {
          "internalType": "bytes32",
          "name": "role",
          "type": "bytes32"
        },
        {
          "internalType": "address",
          "name": "account",
          "type": "address"
        }
      ],
      "name": "hasRole",
      "outputs": [
        {
          "internalType": "bool",
          "name": "",
          "type": "bool"
        }
      ],
      "stateMutability": "view",
      "type": "function",
      "constant": true
    },
    {
      "inputs": [
        {
          "internalType": "address",
          "name": "owner",
          "type": "address"
        },
        {
          "internalType": "address",
          "name": "operator",
          "type": "address"
        }
      ],
      "name": "isApprovedForAll",
      "outputs": [
        {
          "internalType": "bool",
          "name": "",
          "type": "bool"
        }
      ],
      "stateMutability": "view",
      "type": "function",
      "constant": true
    },
    {
      "inputs": [],
      "name": "name",
      "outputs": [
        {
          "internalType": "string",
          "name": "",
          "type": "string"
        }
      ],
      "stateMutability": "view",
      "type": "function",
      "constant": true
    },
    {
      "inputs": [],
      "name": "owner",
      "outputs": [
        {
          "internalType": "address",
          "name": "",
          "type": "address"
        }
      ],
      "stateMutability": "view",
      "type": "function",
      "constant": true
    },
    {
      "inputs": [
        {
          "internalType": "uint256",
          "name": "tokenId",
          "type": "uint256"
        }
      ],
      "name": "ownerOf",
      "outputs": [
        {
          "internalType": "address",
          "name": "",
          "type": "address"
        }
      ],
      "stateMutability": "view",
      "type": "function",
      "constant": true
    },
    {
      "inputs": [],
      "name": "renounceOwnership",
      "outputs": [],
      "stateMutability": "nonpayable",
      "type": "function"
    },
    {
      "inputs": [
        {
          "internalType": "bytes32",
          "name": "role",
          "type": "bytes32"
        },
        {
          "internalType": "address",
          "name": "account",
          "type": "address"
        }
      ],
      "name": "renounceRole",
      "outputs": [],
      "stateMutability": "nonpayable",
      "type": "function"
    },
    {
      "inputs": [
        {
          "internalType": "bytes32",
          "name": "role",
          "type": "bytes32"
        },
        {
          "internalType": "address",
          "name": "account",
          "type": "address"
        }
      ],
      "name": "revokeRole",
      "outputs": [],
      "stateMutability": "nonpayable",
      "type": "function"
    },
    {
      "inputs": [
        {
          "internalType": "uint256",
          "name": "",
          "type": "uint256"
        },
        {
          "internalType": "uint256",
          "name": "",
          "type": "uint256"
        }
      ],
      "name": "royalties",
      "outputs": [
        {
          "internalType": "address payable",
          "name": "account",
          "type": "address"
        },
        {
          "internalType": "uint96",
          "name": "value",
          "type": "uint96"
        }
      ],
      "stateMutability": "view",
      "type": "function",
      "constant": true
    },
    {
      "inputs": [
        {
          "internalType": "address",
          "name": "from",
          "type": "address"
        },
        {
          "internalType": "address",
          "name": "to",
          "type": "address"
        },
        {
          "internalType": "uint256",
          "name": "tokenId",
          "type": "uint256"
        }
      ],
      "name": "safeTransferFrom",
      "outputs": [],
      "stateMutability": "nonpayable",
      "type": "function"
    },
    {
      "inputs": [
        {
          "internalType": "address",
          "name": "from",
          "type": "address"
        },
        {
          "internalType": "address",
          "name": "to",
          "type": "address"
        },
        {
          "internalType": "uint256",
          "name": "tokenId",
          "type": "uint256"
        },
        {
          "internalType": "bytes",
          "name": "_data",
          "type": "bytes"
        }
      ],
      "name": "safeTransferFrom",
      "outputs": [],
      "stateMutability": "nonpayable",
      "type": "function"
    },
    {
      "inputs": [
        {
          "internalType": "address",
          "name": "operator",
          "type": "address"
        },
        {
          "internalType": "bool",
          "name": "approved",
          "type": "bool"
        }
      ],
      "name": "setApprovalForAll",
      "outputs": [],
      "stateMutability": "nonpayable",
      "type": "function"
    },
    {
      "inputs": [],
      "name": "symbol",
      "outputs": [
        {
          "internalType": "string",
          "name": "",
          "type": "string"
        }
      ],
      "stateMutability": "view",
      "type": "function",
      "constant": true
    },
    {
      "inputs": [
        {
          "internalType": "uint256",
          "name": "tokenId",
          "type": "uint256"
        }
      ],
      "name": "tokenURI",
      "outputs": [
        {
          "internalType": "string",
          "name": "",
          "type": "string"
        }
      ],
      "stateMutability": "view",
      "type": "function",
      "constant": true
    },
    {
      "inputs": [
        {
          "internalType": "address",
          "name": "from",
          "type": "address"
        },
        {
          "internalType": "address",
          "name": "to",
          "type": "address"
        },
        {
          "internalType": "uint256",
          "name": "tokenId",
          "type": "uint256"
        }
      ],
      "name": "transferFrom",
      "outputs": [],
      "stateMutability": "nonpayable",
      "type": "function"
    },
    {
      "inputs": [
        {
          "internalType": "address",
          "name": "newOwner",
          "type": "address"
        }
      ],
      "name": "transferOwnership",
      "outputs": [],
      "stateMutability": "nonpayable",
      "type": "function"
    },
    {
      "inputs": [
        {
          "internalType": "address",
          "name": "_to",
          "type": "address"
        },
        {
          "components": [
            {
              "internalType": "uint256",
              "name": "class",
              "type": "uint256"
            },
            {
              "internalType": "uint256",
              "name": "slot",
              "type": "uint256"
            },
            {
              "internalType": "uint256",
              "name": "level",
              "type": "uint256"
            },
            {
              "internalType": "uint256[10]",
              "name": "stats",
              "type": "uint256[10]"
            }
          ],
          "internalType": "struct Equipment.gearStats",
          "name": "data",
          "type": "tuple"
        }
      ],
      "name": "mint",
      "outputs": [],
      "stateMutability": "nonpayable",
      "type": "function"
    },
    {
      "inputs": [
        {
          "internalType": "uint256",
          "name": "idGear",
          "type": "uint256"
        }
      ],
      "name": "singleStats",
      "outputs": [
        {
          "components": [
            {
              "internalType": "uint256",
              "name": "class",
              "type": "uint256"
            },
            {
              "internalType": "uint256",
              "name": "slot",
              "type": "uint256"
            },
            {
              "internalType": "uint256",
              "name": "level",
              "type": "uint256"
            },
            {
              "internalType": "uint256[10]",
              "name": "stats",
              "type": "uint256[10]"
            }
          ],
          "internalType": "struct Equipment.gearStats",
          "name": "",
          "type": "tuple"
        }
      ],
      "stateMutability": "view",
      "type": "function",
      "constant": true
    },
    {
      "inputs": [
        {
          "internalType": "uint256",
          "name": "_tokenId",
          "type": "uint256"
        },
        {
          "internalType": "address payable",
          "name": "_royaltiesReceipientAddress",
          "type": "address"
        },
        {
          "internalType": "uint96",
          "name": "_percentageBasisPoints",
          "type": "uint96"
        }
      ],
      "name": "setRoyalties",
      "outputs": [],
      "stateMutability": "nonpayable",
      "type": "function"
    },
    {
      "inputs": [
        {
          "internalType": "uint256",
          "name": "_tokenId",
          "type": "uint256"
        },
        {
          "internalType": "uint256",
          "name": "_salePrice",
          "type": "uint256"
        }
      ],
      "name": "royaltyInfo",
      "outputs": [
        {
          "internalType": "address",
          "name": "receiver",
          "type": "address"
        },
        {
          "internalType": "uint256",
          "name": "royaltyAmount",
          "type": "uint256"
        }
      ],
      "stateMutability": "view",
      "type": "function",
      "constant": true
    },
    {
      "inputs": [
        {
          "internalType": "bytes4",
          "name": "interfaceId",
          "type": "bytes4"
        }
      ],
      "name": "supportsInterface",
      "outputs": [
        {
          "internalType": "bool",
          "name": "",
          "type": "bool"
        }
      ],
      "stateMutability": "view",
      "type": "function",
      "constant": true
    },
    {
      "inputs": [
        {
          "internalType": "uint256",
          "name": "tokenId",
          "type": "uint256"
        }
      ],
      "name": "exists",
      "outputs": [
        {
          "internalType": "bool",
          "name": "",
          "type": "bool"
        }
      ],
      "stateMutability": "view",
      "type": "function",
      "constant": true
    },
    {
      "inputs": [
        {
          "internalType": "address",
          "name": "owner",
          "type": "address"
        },
        {
          "internalType": "uint256",
          "name": "tokenId",
          "type": "uint256"
        }
      ],
      "name": "positionOf",
      "outputs": [
        {
          "internalType": "uint256",
          "name": "",
          "type": "uint256"
        }
      ],
      "stateMutability": "view",
      "type": "function",
      "constant": true
    }
  ],
  "bytecode": "0x60806040526000601a553480156200001657600080fd5b50604080518082018252601981527f436861696e73206f6620476c6f72792045717569706d656e740000000000000060208083019182528351808501909452600384527f4347450000000000000000000000000000000000000000000000000000000000908401528151919291620000919160009162000973565b508051620000a790600190602084019062000973565b505050620000d6620000c762000195640100000000026401000000009004565b64010000000062000199810204565b620000fe6000620000ef64010000000062000195810204565b640100000000620001eb810204565b6200012560008051602062003b40833981519152620000ef64010000000062000195810204565b6200015d7f3c11d16cbaffd01df69ce1c404f6340ee057498f5f00246190ea54220576a848620000ef64010000000062000195810204565b6200016762000a02565b6200018e6200017e64010000000062000195810204565b8264010000000062000232810204565b5062000bfb565b3390565b60088054600160a060020a03838116600160a060020a0319831681179093556040519116919082907f8be0079c531659141344cd1fd0a4f28419497f9722a3daafe3b4186f6b6457e090600090a35050565b620002058282640100000000620013026200036a82021704565b60008281526007602052604090206200022d90826401000000006200130c6200037f82021704565b505050565b6200026860008051602062003b408339815191526200025964010000000062000195810204565b640100000000620003a8810204565b620002fa576040517f08c379a000000000000000000000000000000000000000000000000000000000815260206004820152602860248201527f457863657074696f6e3a206d7573742068617665206d696e74657220726f6c6560448201527f20746f206d696e7400000000000000000000000000000000000000000000000060648201526084015b60405180910390fd5b8051600b9081556020820151600c556040820151600d5560608201518291906200032990600e90600a62000a31565b50905050620003668262000352600a620003d36401000000000262001321176401000000009004565b64010000000062001325620003d782021704565b5050565b62000366828264010000000062000566810204565b60006200039f83600160a060020a03841664010000000062000604810204565b90505b92915050565b6000918252600660209081526040808420600160a060020a0393909316845291905290205460ff1690565b5490565b600160a060020a03821662000449576040517f08c379a000000000000000000000000000000000000000000000000000000000815260206004820181905260248201527f4552433732313a206d696e7420746f20746865207a65726f20616464726573736044820152606401620002f1565b6200045d816401000000006200065c810204565b15620004c6576040517f08c379a000000000000000000000000000000000000000000000000000000000815260206004820152601c60248201527f4552433732313a20746f6b656e20616c7265616479206d696e746564000000006044820152606401620002f1565b620004dd6000838364010000000062000679810204565b600160a060020a03821660009081526003602052604081208054600192906200050890849062000ac5565b90915550506000818152600260205260408082208054600160a060020a031916600160a060020a03861690811790915590518392907fddf252ad1be2c89b69c2b068fc378daa952ba7f163c4a11628f55a4df523b3ef908290a45050565b6200057b8282640100000000620003a8810204565b62000366576000828152600660209081526040808320600160a060020a03851684529091529020805460ff19166001179055620005c064010000000062000195810204565b600160a060020a031681600160a060020a0316837f2f8788117e7eff1d82e926ec794901d17c78024a50270940304540a733656f0d60405160405180910390a45050565b60006200061b83836401000000006200079a810204565b6200065357508154600181810184556000848152602080822090930184905584548482528286019093526040902091909155620003a2565b506000620003a2565b600090815260026020526040902054600160a060020a0316151590565b600160a060020a0383166200073657600b60186000620006a8600a64010000000062001321620003d382021704565b81526020810191909152604001600020815481556001808301549082015560028083015490820155620006e46003808301908401600a62000a61565b5090505062000708600a620007b26401000000000262001486176401000000009004565b600160a060020a03919091166000908152601960209081526040822080546001810182559083529120015550565b600160a060020a0382166200075a576200022d8382640100000000620007bb810204565b600160a060020a0382166000908152601960209081526040822080546001810182559083529120018190556200022d8382640100000000620007bb810204565b60009081526001919091016020526040902054151590565b80546001019055565b6000620007d28383640100000000620008c8810204565b600160a060020a0384166000908152601960205260409020549091508110156200022d57600160a060020a038316600090815260196020526040902080546200081e9060019062000ae0565b8154811062000831576200083162000bcc565b90600052602060002001546019600085600160a060020a0316600160a060020a03168152602001908152602001600020828154811062000875576200087562000bcc565b6000918252602080832090910192909255600160a060020a0385168152601990915260409020805480620008ad57620008ad62000b9d565b60019003818190600052602060002001600090559055505050565b6000805b600160a060020a0384166000908152601960205260409020548110156200094c57600160a060020a03841660009081526019602052604090208054849190839081106200091d576200091d62000bcc565b9060005260206000200154141562000937579050620003a2565b80620009438162000b50565b915050620008cc565b50600160a060020a0383166000908152601960205260409020546200039f90606462000ac5565b828054620009819062000afa565b90600052602060002090601f016020900481019282620009a55760008555620009f0565b82601f10620009c057805160ff1916838001178555620009f0565b82800160010185558215620009f0579182015b82811115620009f0578251825591602001919060010190620009d3565b50620009fe92915062000a8f565b5090565b604051806080016040528060008152602001600081526020016000815260200162000a2c62000aa6565b905290565b82600a8101928215620009f05791602002820182811115620009f0578251825591602001919060010190620009d3565b82600a8101928215620009f0579182015b82811115620009f057825482559160010191906001019062000a72565b5b80821115620009fe576000815560010162000a90565b604051806101400160405280600a906020820280368337509192915050565b6000821982111562000adb5762000adb62000b6e565b500190565b60008282101562000af55762000af562000b6e565b500390565b60028104600182168062000b0f57607f821691505b6020821081141562000b4a577f4e487b7100000000000000000000000000000000000000000000000000000000600052602260045260246000fd5b50919050565b600060001982141562000b675762000b6762000b6e565b5060010190565b7f4e487b7100000000000000000000000000000000000000000000000000000000600052601160045260246000fd5b7f4e487b7100000000000000000000000000000000000000000000000000000000600052603160045260246000fd5b7f4e487b7100000000000000000000000000000000000000000000000000000000600052603260045260246000fd5b612f358062000c0b6000396000f3fe608060405234801561001057600080fd5b5060043610610223576000357c0100000000000000000000000000000000000000000000000000000000900480638da5cb5b11610137578063c87b56dd116100ca578063d547741f11610099578063d547741f146104fb578063db20f89c1461050e578063e985e9c51461052e578063f2fde38b1461056a578063fb7f972c1461057d57600080fd5b8063c87b56dd1461048e578063ca15c873146104a1578063cad96cca146104b4578063d5391393146104d457600080fd5b8063a217fddf11610106578063a217fddf1461044d578063a22cb46514610455578063a3fd0d9914610468578063b88d4fde1461047b57600080fd5b80638da5cb5b1461040e5780639010d07c1461041f57806391d148541461043257806395d89b411461044557600080fd5b80632a55205a116101ba5780634f558e79116101895780634f558e791461038e5780636352211e146103a157806370a08231146103b4578063715018a6146103c75780638924af74146103cf57600080fd5b80632a55205a146103235780632f2ff15d1461035557806336568abe1461036857806342842e0e1461037b57600080fd5b8063143094db116101f6578063143094db146102a557806323b872dd146102b8578063248a9ca3146102cb578063282c51f3146102fc57600080fd5b806301ffc9a71461022857806306fdde0314610250578063081812fc14610265578063095ea7b314610290575b600080fd5b61023b610236366004612943565b610590565b60405190151581526020015b60405180910390f35b610258610615565b6040516102479190612b58565b6102786102733660046128e3565b6106a7565b604051600160a060020a039091168152602001610247565b6102a361029e3660046128b7565b610755565b005b6102a36102b336600461297d565b61088d565b6102a36102c63660046126c1565b610978565b6102ee6102d93660046128e3565b60009081526006602052604090206001015490565b604051908152602001610247565b6102ee7f3c11d16cbaffd01df69ce1c404f6340ee057498f5f00246190ea54220576a84881565b610336610331366004612921565b6109ac565b60408051600160a060020a039093168352602083019190915201610247565b6102a36103633660046128fc565b610acd565b6102a36103763660046128fc565b610aef565b6102a36103893660046126c1565b610b11565b61023b61039c3660046128e3565b610b2c565b6102786103af3660046128e3565b610b4b565b6102ee6103c236600461266b565b610bd9565b6102a3610c76565b6103e26103dd366004612921565b610caf565b60408051600160a060020a0390931683526bffffffffffffffffffffffff909116602083015201610247565b600854600160a060020a0316610278565b61027861042d366004612921565b610d0e565b61023b6104403660046128fc565b610d2d565b610258610d58565b6102ee600081565b6102a36104633660046127c6565b610d67565b6102ee6104763660046128b7565b610e2f565b6102a3610489366004612702565b610ecf565b61025861049c3660046128e3565b610f04565b6102ee6104af3660046128e3565b611021565b6104c76104c23660046128e3565b611038565b6040516102479190612b45565b6102ee7f9f2df0fed2c77648de5860a4cc508cd0818c85b8b8a1ab4ceeef8d981c8956a681565b6102a36105093660046128fc565b6110dd565b61052161051c3660046128e3565b6110e7565b6040516102479190612c5a565b61023b61053c366004612688565b600160a060020a03918216600090815260056020908152604080832093909416825291909152205460ff1690565b6102a361057836600461266b565b611164565b6102a361058b3660046127f9565b61121c565b6000600160e060020a031982167f44c74bcc0000000000000000000000000000000000000000000000000000000014156105cc57506001919050565b600160e060020a031982167f2a55205a00000000000000000000000000000000000000000000000000000000141561060657506001919050565b61060f8261148f565b92915050565b60606000805461062490612dea565b80601f016020809104026020016040519081016040528092919081815260200182805461065090612dea565b801561069d5780601f106106725761010080835404028352916020019161069d565b820191906000526020600020905b81548152906001019060200180831161068057829003601f168201915b5050505050905090565b600081815260026020526040812054600160a060020a03166107395760405160e560020a62461bcd02815260206004820152602c60248201527f4552433732313a20617070726f76656420717565727920666f72206e6f6e657860448201527f697374656e7420746f6b656e000000000000000000000000000000000000000060648201526084015b60405180910390fd5b50600090815260046020526040902054600160a060020a031690565b600061076082610b4b565b905080600160a060020a031683600160a060020a031614156107ed5760405160e560020a62461bcd02815260206004820152602160248201527f4552433732313a20617070726f76616c20746f2063757272656e74206f776e6560448201527f72000000000000000000000000000000000000000000000000000000000000006064820152608401610730565b33600160a060020a03821614806108095750610809813361053c565b61087e5760405160e560020a62461bcd02815260206004820152603860248201527f4552433732313a20617070726f76652063616c6c6572206973206e6f74206f7760448201527f6e6572206e6f7220617070726f76656420666f7220616c6c00000000000000006064820152608401610730565b61088883836114cd565b505050565b600854600160a060020a031633146108ba5760405160e560020a62461bcd02815260040161073090612bc8565b604080516001808252818301909252600091816020015b60408051808201909152600080825260208201528152602001906001900390816108d1579050509050818160008151811061090e5761090e612ea2565b6020026020010151602001906bffffffffffffffffffffffff1690816bffffffffffffffffffffffff1681525050828160008151811061095057610950612ea2565b6020908102919091010151600160a060020a0390911690526109728482611548565b50505050565b61098233826116ed565b6109a15760405160e560020a62461bcd02815260040161073090612bfd565b6108888383836117f8565b6000828152600960209081526040808320805482518185028101850190935280835284938493929190849084015b82821015610a3f5760008481526020908190206040805180820190915290840154600160a060020a03811682527401000000000000000000000000000000000000000090046bffffffffffffffffffffffff16818301528252600190920191016109da565b505050509050600081511115610abd5780600081518110610a6257610a62612ea2565b60200260200101516000015161271082600081518110610a8457610a84612ea2565b6020026020010151602001516bffffffffffffffffffffffff1686610aa99190612d71565b610ab39190612d5d565b9250925050610ac6565b60008092509250505b9250929050565b610ad782826119e3565b6000828152600760205260409020610888908261130c565b610af98282611a09565b60008281526007602052604090206108889082611a94565b61088883838360405180602001604052806000815250610ecf565b600081815260026020526040812054600160a060020a0316151561060f565b600081815260026020526040812054600160a060020a03168061060f5760405160e560020a62461bcd02815260206004820152602960248201527f4552433732313a206f776e657220717565727920666f72206e6f6e657869737460448201527f656e7420746f6b656e00000000000000000000000000000000000000000000006064820152608401610730565b6000600160a060020a038216610c5a5760405160e560020a62461bcd02815260206004820152602a60248201527f4552433732313a2062616c616e636520717565727920666f7220746865207a6560448201527f726f2061646472657373000000000000000000000000000000000000000000006064820152608401610730565b50600160a060020a031660009081526003602052604090205490565b600854600160a060020a03163314610ca35760405160e560020a62461bcd02815260040161073090612bc8565b610cad6000611aa9565b565b60096020528160005260406000208181548110610ccb57600080fd5b600091825260209091200154600160a060020a03811692507401000000000000000000000000000000000000000090046bffffffffffffffffffffffff16905082565b6000828152600760205260408120610d269083611b08565b9392505050565b6000918252600660209081526040808420600160a060020a0393909316845291905290205460ff1690565b60606001805461062490612dea565b600160a060020a038216331415610dc35760405160e560020a62461bcd02815260206004820152601960248201527f4552433732313a20617070726f766520746f2063616c6c6572000000000000006044820152606401610730565b336000818152600560209081526040808320600160a060020a03871680855290835292819020805460ff191686151590811790915590519081529192917f17307eab39ab6107e8899845ad3d59bd9653f200f220920489ca2b5937696c31910160405180910390a35050565b6000805b600160a060020a038416600090815260196020526040902054811015610eaa57600160a060020a0384166000908152601960205260409020805484919083908110610e8057610e80612ea2565b90600052602060002001541415610e9857905061060f565b80610ea281612e28565b915050610e33565b50600160a060020a038316600090815260196020526040902054610d26906064612d45565b610ed933836116ed565b610ef85760405160e560020a62461bcd02815260040161073090612bfd565b61097284848484611b14565b600081815260026020526040902054606090600160a060020a0316610f945760405160e560020a62461bcd02815260206004820152602f60248201527f4552433732314d657461646174613a2055524920717565727920666f72206e6f60448201527f6e6578697374656e7420746f6b656e00000000000000000000000000000000006064820152608401610730565b6000610fd060408051808201909152601f81527f68747470733a2f2f6578616d706c65646f6d61696e2f6d657461646174612f00602082015290565b90506000815111610ff05760405180602001604052806000815250610d26565b80610ffa84611b4a565b60405160200161100b929190612a59565b6040516020818303038152906040529392505050565b600081815260076020526040812061060f90611c83565b606060096000838152602001908152602001600020805480602002602001604051908101604052809291908181526020016000905b828210156110d25760008481526020908190206040805180820190915290840154600160a060020a03811682527401000000000000000000000000000000000000000090046bffffffffffffffffffffffff168183015282526001909201910161106d565b505050509050919050565b610af98282611c8d565b6110ef6125a1565b60008281526018602090815260409182902082516080810184528154815260018201549281019290925260028101548284015282516101408101938490529192909160608401916003840190600a9082845b815481526020019060010190808311611141575050505050815250509050919050565b600854600160a060020a031633146111915760405160e560020a62461bcd02815260040161073090612bc8565b600160a060020a0381166112105760405160e560020a62461bcd02815260206004820152602660248201527f4f776e61626c653a206e6577206f776e657220697320746865207a65726f206160448201527f64647265737300000000000000000000000000000000000000000000000000006064820152608401610730565b61121981611aa9565b50565b6112467f9f2df0fed2c77648de5860a4cc508cd0818c85b8b8a1ab4ceeef8d981c8956a633610d2d565b6112bb5760405160e560020a62461bcd02815260206004820152602860248201527f457863657074696f6e3a206d7573742068617665206d696e74657220726f6c6560448201527f20746f206d696e740000000000000000000000000000000000000000000000006064820152608401610730565b8051600b9081556020820151600c556040820151600d5560608201518291906112e890600e90600a6125ce565b509050506112fe826112f9600a5490565b611325565b5050565b6112fe8282611cb3565b6000610d2683600160a060020a038416611d39565b5490565b600160a060020a03821661137e5760405160e560020a62461bcd02815260206004820181905260248201527f4552433732313a206d696e7420746f20746865207a65726f20616464726573736044820152606401610730565b600081815260026020526040902054600160a060020a0316156113e65760405160e560020a62461bcd02815260206004820152601c60248201527f4552433732313a20746f6b656e20616c7265616479206d696e746564000000006044820152606401610730565b6113f260008383611d88565b600160a060020a038216600090815260036020526040812080546001929061141b908490612d45565b9091555050600081815260026020526040808220805473ffffffffffffffffffffffffffffffffffffffff1916600160a060020a03861690811790915590518392907fddf252ad1be2c89b69c2b068fc378daa952ba7f163c4a11628f55a4df523b3ef908290a45050565b80546001019055565b6000600160e060020a031982167f5a05180f00000000000000000000000000000000000000000000000000000000148061060f575061060f82611e66565b6000818152600460205260409020805473ffffffffffffffffffffffffffffffffffffffff1916600160a060020a038416908117909155819061150f82610b4b565b600160a060020a03167f8c5be1e5ebec7d5bd14f71427d1e84f3dd0314c0f7b2291e5b200ac8c7c3b92560405160405180910390a45050565b60005b81518110156116e2576000600160a060020a031682828151811061157157611571612ea2565b602002602001015160000151600160a060020a031614156115d75760405160e560020a62461bcd02815260206004820152601b60248201527f526563697069656e742073686f756c642062652070726573656e7400000000006044820152606401610730565b8181815181106115e9576115e9612ea2565b6020026020010151602001516bffffffffffffffffffffffff16600014156116565760405160e560020a62461bcd02815260206004820181905260248201527f526f79616c74792076616c75652073686f756c6420626520706f7369746976656044820152606401610730565b6000838152600960205260409020825183908390811061167857611678612ea2565b6020908102919091018101518254600181018455600093845292829020815191909201516bffffffffffffffffffffffff167401000000000000000000000000000000000000000002600160a060020a0390911617910155806116da81612e28565b91505061154b565b506112fe8282611ea4565b600081815260026020526040812054600160a060020a031661177a5760405160e560020a62461bcd02815260206004820152602c60248201527f4552433732313a206f70657261746f7220717565727920666f72206e6f6e657860448201527f697374656e7420746f6b656e00000000000000000000000000000000000000006064820152608401610730565b600061178583610b4b565b905080600160a060020a031684600160a060020a031614806117c0575083600160a060020a03166117b5846106a7565b600160a060020a0316145b806117f05750600160a060020a0380821660009081526005602090815260408083209388168352929052205460ff165b949350505050565b82600160a060020a031661180b82610b4b565b600160a060020a03161461188a5760405160e560020a62461bcd02815260206004820152602960248201527f4552433732313a207472616e73666572206f6620746f6b656e2074686174206960448201527f73206e6f74206f776e00000000000000000000000000000000000000000000006064820152608401610730565b600160a060020a0382166119085760405160e560020a62461bcd028152602060048201526024808201527f4552433732313a207472616e7366657220746f20746865207a65726f2061646460448201527f72657373000000000000000000000000000000000000000000000000000000006064820152608401610730565b611913838383611d88565b61191e6000826114cd565b600160a060020a0383166000908152600360205260408120805460019290611947908490612d90565b9091555050600160a060020a0382166000908152600360205260408120805460019290611975908490612d45565b9091555050600081815260026020526040808220805473ffffffffffffffffffffffffffffffffffffffff1916600160a060020a0386811691821790925591518493918716917fddf252ad1be2c89b69c2b068fc378daa952ba7f163c4a11628f55a4df523b3ef91a4505050565b6000828152600660205260409020600101546119ff8133611ee1565b6108888383611cb3565b600160a060020a0381163314611a8a5760405160e560020a62461bcd02815260206004820152602f60248201527f416363657373436f6e74726f6c3a2063616e206f6e6c792072656e6f756e636560448201527f20726f6c657320666f722073656c6600000000000000000000000000000000006064820152608401610730565b6112fe8282611f48565b6000610d2683600160a060020a038416611faf565b60088054600160a060020a0383811673ffffffffffffffffffffffffffffffffffffffff19831681179093556040519116919082907f8be0079c531659141344cd1fd0a4f28419497f9722a3daafe3b4186f6b6457e090600090a35050565b6000610d2683836120a2565b611b1f8484846117f8565b611b2b848484846120cc565b6109725760405160e560020a62461bcd02815260040161073090612b6b565b606081611b8a57505060408051808201909152600181527f3000000000000000000000000000000000000000000000000000000000000000602082015290565b8160005b8115611bb45780611b9e81612e28565b9150611bad9050600a83612d5d565b9150611b8e565b60008167ffffffffffffffff811115611bcf57611bcf612ebb565b6040519080825280601f01601f191660200182016040528015611bf9576020820181803683370190505b5090505b84156117f057611c0e600183612d90565b9150611c1b600a86612e43565b611c26906030612d45565b7f010000000000000000000000000000000000000000000000000000000000000002818381518110611c5a57611c5a612ea2565b6020010190600160f860020a031916908160001a905350611c7c600a86612d5d565b9450611bfd565b600061060f825490565b600082815260066020526040902060010154611ca98133611ee1565b6108888383611f48565b611cbd8282610d2d565b6112fe576000828152600660209081526040808320600160a060020a03851684529091529020805460ff19166001179055611cf53390565b600160a060020a031681600160a060020a0316837f2f8788117e7eff1d82e926ec794901d17c78024a50270940304540a733656f0d60405160405180910390a45050565b6000818152600183016020526040812054611d805750815460018181018455600084815260208082209093018490558454848252828601909352604090209190915561060f565b50600061060f565b600160a060020a038316611e1957600b60186000611da5600a5490565b81526020810191909152604001600020815481556001808301549082015560028083015490820155611ddf6003808301908401600a61260c565b5050600a8054600101905550600160a060020a03919091166000908152601960209081526040822080546001810182559083529120015550565b600160a060020a038216611e3157610888838261220e565b600160a060020a038216600090815260196020908152604082208054600181018255908352912001819055610888838261220e565b6000600160e060020a031982167f7965db0b00000000000000000000000000000000000000000000000000000000148061060f575061060f82612304565b7f3fa96d7b6bcbfe71ef171666d84db3cf52fa2d1c8afdb1cc8e486177f208b7df8282604051611ed5929190612cae565b60405180910390a15050565b611eeb8282610d2d565b6112fe57611f0381600160a060020a0316601461239f565b611f0e83602061239f565b604051602001611f1f929190612a88565b60408051601f198184030181529082905260e560020a62461bcd02825261073091600401612b58565b611f528282610d2d565b156112fe576000828152600660209081526040808320600160a060020a0385168085529252808320805460ff1916905551339285917ff6391f5c32d9c69d2a47ea670b442974b53935d1edc7fd64eb21e047a839171b9190a45050565b60008181526001830160205260408120548015612098576000611fd3600183612d90565b8554909150600090611fe790600190612d90565b905081811461204c57600086600001828154811061200757612007612ea2565b906000526020600020015490508087600001848154811061202a5761202a612ea2565b6000918252602080832090910192909255918252600188019052604090208390555b855486908061205d5761205d612e89565b60019003818190600052602060002001600090559055856001016000868152602001908152602001600020600090556001935050505061060f565b600091505061060f565b60008260000182815481106120b9576120b9612ea2565b9060005260206000200154905092915050565b6000600160a060020a0384163b15612203576040517f150b7a02000000000000000000000000000000000000000000000000000000008152600160a060020a0385169063150b7a0290612129903390899088908890600401612b09565b602060405180830381600087803b15801561214357600080fd5b505af1925050508015612173575060408051601f3d908101601f1916820190925261217091810190612960565b60015b6121d0573d8080156121a1576040519150601f19603f3d011682016040523d82523d6000602084013e6121a6565b606091505b5080516121c85760405160e560020a62461bcd02815260040161073090612b6b565b805181602001fd5b600160e060020a0319167f150b7a02000000000000000000000000000000000000000000000000000000001490506117f0565b506001949350505050565b600061221a8383610e2f565b600160a060020a03841660009081526019602052604090205490915081101561088857600160a060020a0383166000908152601960205260409020805461226390600190612d90565b8154811061227357612273612ea2565b90600052602060002001546019600085600160a060020a0316600160a060020a0316815260200190815260200160002082815481106122b4576122b4612ea2565b6000918252602080832090910192909255600160a060020a03851681526019909152604090208054806122e9576122e9612e89565b60019003818190600052602060002001600090559055505050565b6000600160e060020a031982167f80ac58cd0000000000000000000000000000000000000000000000000000000014806123675750600160e060020a031982167f5b5e139f00000000000000000000000000000000000000000000000000000000145b8061060f57507f01ffc9a700000000000000000000000000000000000000000000000000000000600160e060020a031983161461060f565b606060006123ae836002612d71565b6123b9906002612d45565b67ffffffffffffffff8111156123d1576123d1612ebb565b6040519080825280601f01601f1916602001820160405280156123fb576020820181803683370190505b5090507f30000000000000000000000000000000000000000000000000000000000000008160008151811061243257612432612ea2565b6020010190600160f860020a031916908160001a9053507f78000000000000000000000000000000000000000000000000000000000000008160018151811061247d5761247d612ea2565b6020010190600160f860020a031916908160001a90535060006124a1846002612d71565b6124ac906001612d45565b90505b600181111561254f577f303132333435363738396162636465660000000000000000000000000000000085600f16601081106124ed576124ed612ea2565b1a7f01000000000000000000000000000000000000000000000000000000000000000282828151811061252257612522612ea2565b6020010190600160f860020a031916908160001a90535060109094049361254881612dd3565b90506124af565b508315610d265760405160e560020a62461bcd02815260206004820181905260248201527f537472696e67733a20686578206c656e67746820696e73756666696369656e746044820152606401610730565b60405180608001604052806000815260200160008152602001600081526020016125c9612637565b905290565b82600a81019282156125fc579160200282015b828111156125fc5782518255916020019190600101906125e1565b50612608929150612656565b5090565b82600a81019282156125fc579182015b828111156125fc57825482559160010191906001019061261c565b604051806101400160405280600a906020820280368337509192915050565b5b808211156126085760008155600101612657565b60006020828403121561267d57600080fd5b8135610d2681612ed4565b6000806040838503121561269b57600080fd5b82356126a681612ed4565b915060208301356126b681612ed4565b809150509250929050565b6000806000606084860312156126d657600080fd5b83356126e181612ed4565b925060208401356126f181612ed4565b929592945050506040919091013590565b6000806000806080858703121561271857600080fd5b843561272381612ed4565b935060208581013561273481612ed4565b935060408601359250606086013567ffffffffffffffff8082111561275857600080fd5b818801915088601f83011261276c57600080fd5b81358181111561277e5761277e612ebb565b612790601f8201601f19168501612d14565b915080825289848285010111156127a657600080fd5b808484018584013760008482840101525080935050505092959194509250565b600080604083850312156127d957600080fd5b82356127e481612ed4565b9150602083013580151581146126b657600080fd5b6000808284036101c08082121561280f57600080fd5b843561281a81612ed4565b935060206101a0601f198401121561283157600080fd5b612839612cc7565b92508086013583526040860135818401526060860135604084015286609f87011261286357600080fd5b61286b612cf0565b806080880189858a01111561287f57600080fd5b600094505b600a8510156128a3578035835260019490940193918301918301612884565b506060850152509396919550909350505050565b600080604083850312156128ca57600080fd5b82356128d581612ed4565b946020939093013593505050565b6000602082840312156128f557600080fd5b5035919050565b6000806040838503121561290f57600080fd5b8235915060208301356126b681612ed4565b6000806040838503121561293457600080fd5b50508035926020909101359150565b60006020828403121561295557600080fd5b8135610d2681612ee9565b60006020828403121561297257600080fd5b8151610d2681612ee9565b60008060006060848603121561299257600080fd5b8335925060208401356129a481612ed4565b915060408401356bffffffffffffffffffffffff811681146129c557600080fd5b809150509250925092565b600081518084526020808501945080840160005b83811015612a225781518051600160a060020a031688528301516bffffffffffffffffffffffff1683880152604090960195908201906001016129e4565b509495945050505050565b60008151808452612a45816020860160208601612da7565b601f01601f19169290920160200192915050565b60008351612a6b818460208801612da7565b835190830190612a7f818360208801612da7565b01949350505050565b7f416363657373436f6e74726f6c3a206163636f756e7420000000000000000000815260008351612ac0816017850160208801612da7565b7f206973206d697373696e6720726f6c65200000000000000000000000000000006017918401918201528351612afd816028840160208801612da7565b01602801949350505050565b6000600160a060020a03808716835280861660208401525083604083015260806060830152612b3b6080830184612a2d565b9695505050505050565b602081526000610d2660208301846129d0565b602081526000610d266020830184612a2d565b60208082526032908201527f4552433732313a207472616e7366657220746f206e6f6e20455243373231526560408201527f63656976657220696d706c656d656e7465720000000000000000000000000000606082015260800190565b6020808252818101527f4f776e61626c653a2063616c6c6572206973206e6f7420746865206f776e6572604082015260600190565b60208082526031908201527f4552433732313a207472616e736665722063616c6c6572206973206e6f74206f60408201527f776e6572206e6f7220617070726f766564000000000000000000000000000000606082015260800190565b60006101a08201905082518252602080840151818401526040840151604084015260608401516060840160005b600a811015612ca457825182529183019190830190600101612c87565b5050505092915050565b8281526040602082015260006117f060408301846129d0565b6040516080810167ffffffffffffffff81118282101715612cea57612cea612ebb565b60405290565b604051610140810167ffffffffffffffff81118282101715612cea57612cea612ebb565b604051601f8201601f1916810167ffffffffffffffff81118282101715612d3d57612d3d612ebb565b604052919050565b60008219821115612d5857612d58612e57565b500190565b600082612d6c57612d6c612e70565b500490565b6000816000190483118215151615612d8b57612d8b612e57565b500290565b600082821015612da257612da2612e57565b500390565b60005b83811015612dc2578181015183820152602001612daa565b838111156109725750506000910152565b600081612de257612de2612e57565b506000190190565b600281046001821680612dfe57607f821691505b60208210811415612e225760e060020a634e487b7102600052602260045260246000fd5b50919050565b6000600019821415612e3c57612e3c612e57565b5060010190565b600082612e5257612e52612e70565b500690565b60e060020a634e487b7102600052601160045260246000fd5b60e060020a634e487b7102600052601260045260246000fd5b60e060020a634e487b7102600052603160045260246000fd5b60e060020a634e487b7102600052603260045260246000fd5b60e060020a634e487b7102600052604160045260246000fd5b600160a060020a038116811461121957600080fd5b600160e060020a03198116811461121957600080fdfea2646970667358221220f8c0154db59a35650a6380aee9a6d828519eda0c9f9b1ca8ab24b548ed704c1c64736f6c634300080600339f2df0fed2c77648de5860a4cc508cd0818c85b8b8a1ab4ceeef8d981c8956a6",
  "immutableReferences": {},
  "source": "//SPDX-License-Identifier: MIT\npragma solidity ^0.8.0;\n\nimport \"@openzeppelin/contracts/token/ERC721/ERC721.sol\";\nimport \"@openzeppelin/contracts/access/Ownable.sol\";\nimport \"@openzeppelin/contracts/access/AccessControlEnumerable.sol\";\nimport \"@openzeppelin/contracts/utils/Counters.sol\";\nimport \"./rarible/royalties/contracts/impl/RoyaltiesV2Impl.sol\";\nimport \"./rarible/royalties/contracts/LibPart.sol\";\nimport \"./rarible/royalties/contracts/LibRoyaltiesV2.sol\";\n\ncontract Equipment is ERC721, AccessControlEnumerable, Ownable, RoyaltiesV2Impl {\n    using Counters for Counters.Counter;\n    Counters.Counter private _tokenIdTracker;\n    \n    //Adds support for OpenSea\n    bytes4 private constant _INTERFACE_ID_ERC2981 = 0x2a55205a;\n\n    //Roles of monter and burner\n    bytes32 public constant MINTER_ROLE = keccak256(\"MINTER_ROLE\");\n    bytes32 public constant BURNER_ROLE = keccak256(\"BURNER_ROLE\");\n\n    //Stats of players and enemies\n    struct gearStats {\n        uint class;\t            //Index on the NFT for client use\n        uint slot;\t\t        //0-Wildcard 1-Head 2-Neck 3-Chest 4-Belt 5-Legs 6-Feet 7-Arms \n                                //8-RHand (weapon) 9-LHand(complement) 10-Finger 11-Mount\n        uint level;     \t    //By default is 0. Evolvable NFTs may upgrade this level\n        uint256[10] stats;      //0-Health 1-Vitality 2-Attack 3-Defense 4-Mastery \n                                //5-Speed 6-Luck 7-Faith 8-reserved 9-reserved\n    }\n\n\n    //Used by _beforeTokenTransfer to catch the after minting\n    gearStats private gearToMint;\n\n\n    //Mapping from NFT to struct\n    mapping(uint256 => gearStats) private values;\n\n    // Mapping from owner address to token ID. It is used to quickly get all NFTs on an address\n    mapping(address => uint256[]) private _tokensByOwner;\n\n    //Generic random counter, used to add a bit more of entropy\n    uint randomNonce=0;\n\n    constructor() ERC721(\"Chains of Glory Equipment\", \"CGE\")  {\n        _setupRole(DEFAULT_ADMIN_ROLE, _msgSender());\n\n        _setupRole(MINTER_ROLE, _msgSender());\n        _setupRole(BURNER_ROLE, _msgSender());\n\n        gearStats memory gear;\n        //Creates the 0 NFT which is special. Means 'empty slot' for the characters\n        mint(_msgSender(), gear);\n    }\n\n    function mint(address _to, gearStats memory data) public {\n        require(hasRole(MINTER_ROLE, _msgSender()), \"Exception: must have minter role to mint\");\n        \n        //Stores the struct to assign when mint os ok\n        gearToMint=data;\n        super._mint(_to, _tokenIdTracker.current()); \n    }\n\n    \n    function _beforeTokenTransfer(address from, address to, uint256 tokenId) internal virtual override(ERC721) {\n        if(from==address(0)) {\n            //Minting ok, creates struct of stats\n            values[_tokenIdTracker.current()] = gearToMint;\n            _tokenIdTracker.increment();\n\n            //Updates the _tokensByOwner mapping            \n            _tokensByOwner[to].push(tokenId);\n        } else if(to==address(0)) {\n            //Burning\n\n            //Updates the _tokensByOwner mapping\n            deleteTokenId(from, tokenId);\n        } else {\n            //Normal transfer\n\n            //Updates the _tokensByOwner mapping\n            _tokensByOwner[to].push(tokenId);\n            deleteTokenId(from, tokenId);\n        }\n    }\n\n    //Returns the gearStats of the NFT \n    function singleStats(uint256 idGear) public view returns(gearStats memory) {\n        return values[idGear];\n    }\n\n    function _baseURI() internal view virtual override returns (string memory) {\n        return \"https://exampledomain/metadata/\";\n    }\n\n    function setRoyalties(uint256 _tokenId, address payable _royaltiesReceipientAddress, uint96 _percentageBasisPoints) public onlyOwner {\n        LibPart.Part[] memory _royalties = new LibPart.Part[](1);\n        _royalties[0].value = _percentageBasisPoints;\n        _royalties[0].account = _royaltiesReceipientAddress;\n        _saveRoyalties(_tokenId, _royalties);\n    }\n\n    function royaltyInfo(uint256 _tokenId, uint256 _salePrice ) external view returns ( address receiver, uint256 royaltyAmount) {\n        LibPart.Part[] memory _royalties = royalties[_tokenId];\n        if(_royalties.length > 0) {\n            return(_royalties[0].account, (_salePrice * _royalties[0].value)/10000);\n        }\n        return (address(0), 0);\n    }\n\n    function supportsInterface(bytes4 interfaceId) public view virtual override(ERC721, AccessControlEnumerable) returns (bool) {\n        if (interfaceId == LibRoyaltiesV2._INTERFACE_ID_ROYALTIES) {\n            return true;\n        }\n\n        if(interfaceId == _INTERFACE_ID_ERC2981) {\n            return true;\n        }\n\n        return super.supportsInterface(interfaceId);\n    }\n\n    //Public wrapper of _exists\n    function exists(uint256 tokenId) public view returns (bool) {\n        return _exists(tokenId);\n    }\n\n    //Pseudo random. I think is enough for the game\n    function randMod(uint _modulus) internal returns(uint) {\n        randomNonce++; \n        return uint(keccak256(abi.encodePacked(block.timestamp, msg.sender, randomNonce))) % _modulus;\n    }\n\n    //************************************************************\n    // ARRAY functions \n    //************************************************************\n    function positionOf(address owner, uint256 tokenId) public view returns (uint) {\n        for(uint i=0; i<_tokensByOwner[owner].length; i++) {\n            if(_tokensByOwner[owner][i]==tokenId)\n                return i;\n        }\n        return _tokensByOwner[owner].length+100;\n    }\n\n    function deleteTokenId(address owner, uint256 tokenId) internal {\n        //Updates the _tokensByOwner mapping\n        uint pos=positionOf(owner, tokenId);\n        if(pos<_tokensByOwner[owner].length) {\n            _tokensByOwner[owner][pos]= _tokensByOwner[owner][ _tokensByOwner[owner].length-1];\n            _tokensByOwner[owner].pop();\n        }\n    }\n}\n",
  "sourcePath": "/Users/n65598/Development/Blockchain/ChainsOfGlory/contracts/Equipment.sol",
  "compiler": {
    "name": "solc",
    "version": "0.8.6+commit.11564f7e.Emscripten.clang"
  },
  "schemaVersion": "3.4.3",
  "updatedAt": "2021-11-22T09:58:22.819Z",
  "networkType": "ethereum",
  "devdoc": {
    "kind": "dev",
    "methods": {
      "approve(address,uint256)": {
        "details": "See {IERC721-approve}."
      },
      "balanceOf(address)": {
        "details": "See {IERC721-balanceOf}."
      },
      "getApproved(uint256)": {
        "details": "See {IERC721-getApproved}."
      },
      "getRoleAdmin(bytes32)": {
        "details": "Returns the admin role that controls `role`. See {grantRole} and {revokeRole}. To change a role's admin, use {_setRoleAdmin}."
      },
      "getRoleMember(bytes32,uint256)": {
        "details": "Returns one of the accounts that have `role`. `index` must be a value between 0 and {getRoleMemberCount}, non-inclusive. Role bearers are not sorted in any particular way, and their ordering may change at any point. WARNING: When using {getRoleMember} and {getRoleMemberCount}, make sure you perform all queries on the same block. See the following https://forum.openzeppelin.com/t/iterating-over-elements-on-enumerableset-in-openzeppelin-contracts/2296[forum post] for more information."
      },
      "getRoleMemberCount(bytes32)": {
        "details": "Returns the number of accounts that have `role`. Can be used together with {getRoleMember} to enumerate all bearers of a role."
      },
      "grantRole(bytes32,address)": {
        "details": "Overload {grantRole} to track enumerable memberships"
      },
      "hasRole(bytes32,address)": {
        "details": "Returns `true` if `account` has been granted `role`."
      },
      "isApprovedForAll(address,address)": {
        "details": "See {IERC721-isApprovedForAll}."
      },
      "name()": {
        "details": "See {IERC721Metadata-name}."
      },
      "owner()": {
        "details": "Returns the address of the current owner."
      },
      "ownerOf(uint256)": {
        "details": "See {IERC721-ownerOf}."
      },
      "renounceOwnership()": {
        "details": "Leaves the contract without owner. It will not be possible to call `onlyOwner` functions anymore. Can only be called by the current owner. NOTE: Renouncing ownership will leave the contract without an owner, thereby removing any functionality that is only available to the owner."
      },
      "renounceRole(bytes32,address)": {
        "details": "Overload {renounceRole} to track enumerable memberships"
      },
      "revokeRole(bytes32,address)": {
        "details": "Overload {revokeRole} to track enumerable memberships"
      },
      "safeTransferFrom(address,address,uint256)": {
        "details": "See {IERC721-safeTransferFrom}."
      },
      "safeTransferFrom(address,address,uint256,bytes)": {
        "details": "See {IERC721-safeTransferFrom}."
      },
      "setApprovalForAll(address,bool)": {
        "details": "See {IERC721-setApprovalForAll}."
      },
      "symbol()": {
        "details": "See {IERC721Metadata-symbol}."
      },
      "tokenURI(uint256)": {
        "details": "See {IERC721Metadata-tokenURI}."
      },
      "transferFrom(address,address,uint256)": {
        "details": "See {IERC721-transferFrom}."
      },
      "transferOwnership(address)": {
        "details": "Transfers ownership of the contract to a new account (`newOwner`). Can only be called by the current owner."
      }
    },
    "version": 1
  },
  "userdoc": {
    "kind": "user",
    "methods": {},
    "version": 1
  }
}