{
  "contractName": "Equipment",
  "abi": [
    {
      "inputs": [],
      "stateMutability": "nonpayable",
      "type": "constructor"
    },
    {
      "anonymous": false,
      "inputs": [
        {
          "indexed": true,
          "internalType": "address",
          "name": "owner",
          "type": "address"
        },
        {
          "indexed": true,
          "internalType": "address",
          "name": "approved",
          "type": "address"
        },
        {
          "indexed": true,
          "internalType": "uint256",
          "name": "tokenId",
          "type": "uint256"
        }
      ],
      "name": "Approval",
      "type": "event"
    },
    {
      "anonymous": false,
      "inputs": [
        {
          "indexed": true,
          "internalType": "address",
          "name": "owner",
          "type": "address"
        },
        {
          "indexed": true,
          "internalType": "address",
          "name": "operator",
          "type": "address"
        },
        {
          "indexed": false,
          "internalType": "bool",
          "name": "approved",
          "type": "bool"
        }
      ],
      "name": "ApprovalForAll",
      "type": "event"
    },
    {
      "anonymous": false,
      "inputs": [
        {
          "indexed": true,
          "internalType": "address",
          "name": "previousOwner",
          "type": "address"
        },
        {
          "indexed": true,
          "internalType": "address",
          "name": "newOwner",
          "type": "address"
        }
      ],
      "name": "OwnershipTransferred",
      "type": "event"
    },
    {
      "anonymous": false,
      "inputs": [
        {
          "indexed": true,
          "internalType": "bytes32",
          "name": "role",
          "type": "bytes32"
        },
        {
          "indexed": true,
          "internalType": "bytes32",
          "name": "previousAdminRole",
          "type": "bytes32"
        },
        {
          "indexed": true,
          "internalType": "bytes32",
          "name": "newAdminRole",
          "type": "bytes32"
        }
      ],
      "name": "RoleAdminChanged",
      "type": "event"
    },
    {
      "anonymous": false,
      "inputs": [
        {
          "indexed": true,
          "internalType": "bytes32",
          "name": "role",
          "type": "bytes32"
        },
        {
          "indexed": true,
          "internalType": "address",
          "name": "account",
          "type": "address"
        },
        {
          "indexed": true,
          "internalType": "address",
          "name": "sender",
          "type": "address"
        }
      ],
      "name": "RoleGranted",
      "type": "event"
    },
    {
      "anonymous": false,
      "inputs": [
        {
          "indexed": true,
          "internalType": "bytes32",
          "name": "role",
          "type": "bytes32"
        },
        {
          "indexed": true,
          "internalType": "address",
          "name": "account",
          "type": "address"
        },
        {
          "indexed": true,
          "internalType": "address",
          "name": "sender",
          "type": "address"
        }
      ],
      "name": "RoleRevoked",
      "type": "event"
    },
    {
      "anonymous": false,
      "inputs": [
        {
          "indexed": false,
          "internalType": "uint256",
          "name": "tokenId",
          "type": "uint256"
        },
        {
          "components": [
            {
              "internalType": "address payable",
              "name": "account",
              "type": "address"
            },
            {
              "internalType": "uint96",
              "name": "value",
              "type": "uint96"
            }
          ],
          "indexed": false,
          "internalType": "struct LibPart.Part[]",
          "name": "royalties",
          "type": "tuple[]"
        }
      ],
      "name": "RoyaltiesSet",
      "type": "event"
    },
    {
      "anonymous": false,
      "inputs": [
        {
          "indexed": true,
          "internalType": "address",
          "name": "from",
          "type": "address"
        },
        {
          "indexed": true,
          "internalType": "address",
          "name": "to",
          "type": "address"
        },
        {
          "indexed": true,
          "internalType": "uint256",
          "name": "tokenId",
          "type": "uint256"
        }
      ],
      "name": "Transfer",
      "type": "event"
    },
    {
      "inputs": [],
      "name": "DEFAULT_ADMIN_ROLE",
      "outputs": [
        {
          "internalType": "bytes32",
          "name": "",
          "type": "bytes32"
        }
      ],
      "stateMutability": "view",
      "type": "function"
    },
    {
      "inputs": [],
      "name": "MINTER_ROLE",
      "outputs": [
        {
          "internalType": "bytes32",
          "name": "",
          "type": "bytes32"
        }
      ],
      "stateMutability": "view",
      "type": "function"
    },
    {
      "inputs": [],
      "name": "POLYMATH_ROLE",
      "outputs": [
        {
          "internalType": "bytes32",
          "name": "",
          "type": "bytes32"
        }
      ],
      "stateMutability": "view",
      "type": "function"
    },
    {
      "inputs": [],
      "name": "QUEST_ROLE",
      "outputs": [
        {
          "internalType": "bytes32",
          "name": "",
          "type": "bytes32"
        }
      ],
      "stateMutability": "view",
      "type": "function"
    },
    {
      "inputs": [
        {
          "internalType": "address",
          "name": "to",
          "type": "address"
        },
        {
          "internalType": "uint256",
          "name": "tokenId",
          "type": "uint256"
        }
      ],
      "name": "approve",
      "outputs": [],
      "stateMutability": "nonpayable",
      "type": "function"
    },
    {
      "inputs": [
        {
          "internalType": "address",
          "name": "owner",
          "type": "address"
        }
      ],
      "name": "balanceOf",
      "outputs": [
        {
          "internalType": "uint256",
          "name": "",
          "type": "uint256"
        }
      ],
      "stateMutability": "view",
      "type": "function"
    },
    {
      "inputs": [
        {
          "internalType": "uint256",
          "name": "tokenId",
          "type": "uint256"
        }
      ],
      "name": "getApproved",
      "outputs": [
        {
          "internalType": "address",
          "name": "",
          "type": "address"
        }
      ],
      "stateMutability": "view",
      "type": "function"
    },
    {
      "inputs": [
        {
          "internalType": "uint256",
          "name": "id",
          "type": "uint256"
        }
      ],
      "name": "getRaribleV2Royalties",
      "outputs": [
        {
          "components": [
            {
              "internalType": "address payable",
              "name": "account",
              "type": "address"
            },
            {
              "internalType": "uint96",
              "name": "value",
              "type": "uint96"
            }
          ],
          "internalType": "struct LibPart.Part[]",
          "name": "",
          "type": "tuple[]"
        }
      ],
      "stateMutability": "view",
      "type": "function"
    },
    {
      "inputs": [
        {
          "internalType": "bytes32",
          "name": "role",
          "type": "bytes32"
        }
      ],
      "name": "getRoleAdmin",
      "outputs": [
        {
          "internalType": "bytes32",
          "name": "",
          "type": "bytes32"
        }
      ],
      "stateMutability": "view",
      "type": "function"
    },
    {
      "inputs": [
        {
          "internalType": "bytes32",
          "name": "role",
          "type": "bytes32"
        },
        {
          "internalType": "uint256",
          "name": "index",
          "type": "uint256"
        }
      ],
      "name": "getRoleMember",
      "outputs": [
        {
          "internalType": "address",
          "name": "",
          "type": "address"
        }
      ],
      "stateMutability": "view",
      "type": "function"
    },
    {
      "inputs": [
        {
          "internalType": "bytes32",
          "name": "role",
          "type": "bytes32"
        }
      ],
      "name": "getRoleMemberCount",
      "outputs": [
        {
          "internalType": "uint256",
          "name": "",
          "type": "uint256"
        }
      ],
      "stateMutability": "view",
      "type": "function"
    },
    {
      "inputs": [
        {
          "internalType": "bytes32",
          "name": "role",
          "type": "bytes32"
        },
        {
          "internalType": "address",
          "name": "account",
          "type": "address"
        }
      ],
      "name": "grantRole",
      "outputs": [],
      "stateMutability": "nonpayable",
      "type": "function"
    },
    {
      "inputs": [
        {
          "internalType": "bytes32",
          "name": "role",
          "type": "bytes32"
        },
        {
          "internalType": "address",
          "name": "account",
          "type": "address"
        }
      ],
      "name": "hasRole",
      "outputs": [
        {
          "internalType": "bool",
          "name": "",
          "type": "bool"
        }
      ],
      "stateMutability": "view",
      "type": "function"
    },
    {
      "inputs": [
        {
          "internalType": "address",
          "name": "owner",
          "type": "address"
        },
        {
          "internalType": "address",
          "name": "operator",
          "type": "address"
        }
      ],
      "name": "isApprovedForAll",
      "outputs": [
        {
          "internalType": "bool",
          "name": "",
          "type": "bool"
        }
      ],
      "stateMutability": "view",
      "type": "function"
    },
    {
      "inputs": [],
      "name": "name",
      "outputs": [
        {
          "internalType": "string",
          "name": "",
          "type": "string"
        }
      ],
      "stateMutability": "view",
      "type": "function"
    },
    {
      "inputs": [],
      "name": "owner",
      "outputs": [
        {
          "internalType": "address",
          "name": "",
          "type": "address"
        }
      ],
      "stateMutability": "view",
      "type": "function"
    },
    {
      "inputs": [
        {
          "internalType": "uint256",
          "name": "tokenId",
          "type": "uint256"
        }
      ],
      "name": "ownerOf",
      "outputs": [
        {
          "internalType": "address",
          "name": "",
          "type": "address"
        }
      ],
      "stateMutability": "view",
      "type": "function"
    },
    {
      "inputs": [],
      "name": "renounceOwnership",
      "outputs": [],
      "stateMutability": "nonpayable",
      "type": "function"
    },
    {
      "inputs": [
        {
          "internalType": "bytes32",
          "name": "role",
          "type": "bytes32"
        },
        {
          "internalType": "address",
          "name": "account",
          "type": "address"
        }
      ],
      "name": "renounceRole",
      "outputs": [],
      "stateMutability": "nonpayable",
      "type": "function"
    },
    {
      "inputs": [
        {
          "internalType": "bytes32",
          "name": "role",
          "type": "bytes32"
        },
        {
          "internalType": "address",
          "name": "account",
          "type": "address"
        }
      ],
      "name": "revokeRole",
      "outputs": [],
      "stateMutability": "nonpayable",
      "type": "function"
    },
    {
      "inputs": [
        {
          "internalType": "uint256",
          "name": "",
          "type": "uint256"
        },
        {
          "internalType": "uint256",
          "name": "",
          "type": "uint256"
        }
      ],
      "name": "royalties",
      "outputs": [
        {
          "internalType": "address payable",
          "name": "account",
          "type": "address"
        },
        {
          "internalType": "uint96",
          "name": "value",
          "type": "uint96"
        }
      ],
      "stateMutability": "view",
      "type": "function"
    },
    {
      "inputs": [
        {
          "internalType": "address",
          "name": "from",
          "type": "address"
        },
        {
          "internalType": "address",
          "name": "to",
          "type": "address"
        },
        {
          "internalType": "uint256",
          "name": "tokenId",
          "type": "uint256"
        }
      ],
      "name": "safeTransferFrom",
      "outputs": [],
      "stateMutability": "nonpayable",
      "type": "function"
    },
    {
      "inputs": [
        {
          "internalType": "address",
          "name": "from",
          "type": "address"
        },
        {
          "internalType": "address",
          "name": "to",
          "type": "address"
        },
        {
          "internalType": "uint256",
          "name": "tokenId",
          "type": "uint256"
        },
        {
          "internalType": "bytes",
          "name": "_data",
          "type": "bytes"
        }
      ],
      "name": "safeTransferFrom",
      "outputs": [],
      "stateMutability": "nonpayable",
      "type": "function"
    },
    {
      "inputs": [
        {
          "internalType": "address",
          "name": "operator",
          "type": "address"
        },
        {
          "internalType": "bool",
          "name": "approved",
          "type": "bool"
        }
      ],
      "name": "setApprovalForAll",
      "outputs": [],
      "stateMutability": "nonpayable",
      "type": "function"
    },
    {
      "inputs": [
        {
          "internalType": "uint256",
          "name": "",
          "type": "uint256"
        }
      ],
      "name": "storeGear",
      "outputs": [
        {
          "internalType": "uint256",
          "name": "class",
          "type": "uint256"
        },
        {
          "internalType": "uint256",
          "name": "slot",
          "type": "uint256"
        },
        {
          "internalType": "uint256",
          "name": "level",
          "type": "uint256"
        },
        {
          "internalType": "uint256",
          "name": "timeLock",
          "type": "uint256"
        }
      ],
      "stateMutability": "view",
      "type": "function"
    },
    {
      "inputs": [],
      "name": "symbol",
      "outputs": [
        {
          "internalType": "string",
          "name": "",
          "type": "string"
        }
      ],
      "stateMutability": "view",
      "type": "function"
    },
    {
      "inputs": [
        {
          "internalType": "uint256",
          "name": "tokenId",
          "type": "uint256"
        }
      ],
      "name": "tokenURI",
      "outputs": [
        {
          "internalType": "string",
          "name": "",
          "type": "string"
        }
      ],
      "stateMutability": "view",
      "type": "function"
    },
    {
      "inputs": [
        {
          "internalType": "address",
          "name": "from",
          "type": "address"
        },
        {
          "internalType": "address",
          "name": "to",
          "type": "address"
        },
        {
          "internalType": "uint256",
          "name": "tokenId",
          "type": "uint256"
        }
      ],
      "name": "transferFrom",
      "outputs": [],
      "stateMutability": "nonpayable",
      "type": "function"
    },
    {
      "inputs": [
        {
          "internalType": "address",
          "name": "newOwner",
          "type": "address"
        }
      ],
      "name": "transferOwnership",
      "outputs": [],
      "stateMutability": "nonpayable",
      "type": "function"
    },
    {
      "inputs": [
        {
          "internalType": "address",
          "name": "_to",
          "type": "address"
        },
        {
          "components": [
            {
              "internalType": "uint256",
              "name": "class",
              "type": "uint256"
            },
            {
              "internalType": "uint256",
              "name": "slot",
              "type": "uint256"
            },
            {
              "internalType": "uint256",
              "name": "level",
              "type": "uint256"
            },
            {
              "internalType": "uint256[10]",
              "name": "stats",
              "type": "uint256[10]"
            },
            {
              "internalType": "uint256",
              "name": "timeLock",
              "type": "uint256"
            }
          ],
          "internalType": "struct Equipment.gearStats",
          "name": "data",
          "type": "tuple"
        }
      ],
      "name": "mint",
      "outputs": [],
      "stateMutability": "nonpayable",
      "type": "function"
    },
    {
      "inputs": [
        {
          "internalType": "uint256",
          "name": "gearId",
          "type": "uint256"
        },
        {
          "internalType": "uint256",
          "name": "timestamp",
          "type": "uint256"
        }
      ],
      "name": "setTimeLock",
      "outputs": [],
      "stateMutability": "nonpayable",
      "type": "function"
    },
    {
      "inputs": [
        {
          "internalType": "address payable",
          "name": "rAddress",
          "type": "address"
        }
      ],
      "name": "setRoyaltiesAddress",
      "outputs": [],
      "stateMutability": "nonpayable",
      "type": "function"
    },
    {
      "inputs": [
        {
          "internalType": "uint96",
          "name": "rBasicPoints",
          "type": "uint96"
        }
      ],
      "name": "setRoyaltiesBasicPoints",
      "outputs": [],
      "stateMutability": "nonpayable",
      "type": "function"
    },
    {
      "inputs": [
        {
          "internalType": "uint256",
          "name": "gear",
          "type": "uint256"
        }
      ],
      "name": "updateLevel",
      "outputs": [],
      "stateMutability": "nonpayable",
      "type": "function"
    },
    {
      "inputs": [
        {
          "internalType": "uint256",
          "name": "lvl",
          "type": "uint256"
        },
        {
          "internalType": "uint256[]",
          "name": "matrixValues",
          "type": "uint256[]"
        }
      ],
      "name": "setMaxLevel",
      "outputs": [],
      "stateMutability": "nonpayable",
      "type": "function"
    },
    {
      "inputs": [],
      "name": "getMatrix",
      "outputs": [
        {
          "internalType": "uint256[]",
          "name": "",
          "type": "uint256[]"
        }
      ],
      "stateMutability": "view",
      "type": "function"
    },
    {
      "inputs": [
        {
          "internalType": "uint256",
          "name": "idGear",
          "type": "uint256"
        }
      ],
      "name": "baseStats",
      "outputs": [
        {
          "components": [
            {
              "internalType": "uint256",
              "name": "class",
              "type": "uint256"
            },
            {
              "internalType": "uint256",
              "name": "slot",
              "type": "uint256"
            },
            {
              "internalType": "uint256",
              "name": "level",
              "type": "uint256"
            },
            {
              "internalType": "uint256[10]",
              "name": "stats",
              "type": "uint256[10]"
            },
            {
              "internalType": "uint256",
              "name": "timeLock",
              "type": "uint256"
            }
          ],
          "internalType": "struct Equipment.gearStats",
          "name": "",
          "type": "tuple"
        }
      ],
      "stateMutability": "view",
      "type": "function"
    },
    {
      "inputs": [
        {
          "internalType": "uint256",
          "name": "idGear",
          "type": "uint256"
        }
      ],
      "name": "singleStats",
      "outputs": [
        {
          "components": [
            {
              "internalType": "uint256",
              "name": "class",
              "type": "uint256"
            },
            {
              "internalType": "uint256",
              "name": "slot",
              "type": "uint256"
            },
            {
              "internalType": "uint256",
              "name": "level",
              "type": "uint256"
            },
            {
              "internalType": "uint256[10]",
              "name": "stats",
              "type": "uint256[10]"
            },
            {
              "internalType": "uint256",
              "name": "timeLock",
              "type": "uint256"
            }
          ],
          "internalType": "struct Equipment.gearStats",
          "name": "",
          "type": "tuple"
        }
      ],
      "stateMutability": "view",
      "type": "function"
    },
    {
      "inputs": [
        {
          "internalType": "address",
          "name": "powner",
          "type": "address"
        }
      ],
      "name": "getEquipment",
      "outputs": [
        {
          "internalType": "uint256[]",
          "name": "",
          "type": "uint256[]"
        }
      ],
      "stateMutability": "view",
      "type": "function"
    },
    {
      "inputs": [
        {
          "internalType": "uint256",
          "name": "_tokenId",
          "type": "uint256"
        },
        {
          "internalType": "address payable",
          "name": "_royaltiesReceipientAddress",
          "type": "address"
        },
        {
          "internalType": "uint96",
          "name": "_percentageBasisPoints",
          "type": "uint96"
        }
      ],
      "name": "setRoyalties",
      "outputs": [],
      "stateMutability": "nonpayable",
      "type": "function"
    },
    {
      "inputs": [
        {
          "internalType": "uint256",
          "name": "_tokenId",
          "type": "uint256"
        },
        {
          "internalType": "uint256",
          "name": "_salePrice",
          "type": "uint256"
        }
      ],
      "name": "royaltyInfo",
      "outputs": [
        {
          "internalType": "address",
          "name": "receiver",
          "type": "address"
        },
        {
          "internalType": "uint256",
          "name": "royaltyAmount",
          "type": "uint256"
        }
      ],
      "stateMutability": "view",
      "type": "function"
    },
    {
      "inputs": [
        {
          "internalType": "bytes4",
          "name": "interfaceId",
          "type": "bytes4"
        }
      ],
      "name": "supportsInterface",
      "outputs": [
        {
          "internalType": "bool",
          "name": "",
          "type": "bool"
        }
      ],
      "stateMutability": "view",
      "type": "function"
    },
    {
      "inputs": [
        {
          "internalType": "uint256",
          "name": "tokenId",
          "type": "uint256"
        }
      ],
      "name": "exists",
      "outputs": [
        {
          "internalType": "bool",
          "name": "",
          "type": "bool"
        }
      ],
      "stateMutability": "view",
      "type": "function"
    },
    {
      "inputs": [
        {
          "internalType": "address",
          "name": "powner",
          "type": "address"
        },
        {
          "internalType": "uint256",
          "name": "tokenId",
          "type": "uint256"
        }
      ],
      "name": "positionOf",
      "outputs": [
        {
          "internalType": "uint256",
          "name": "",
          "type": "uint256"
        }
      ],
      "stateMutability": "view",
      "type": "function"
    }
  ],
  "bytecode": "0x60806040526000601f553480156200001657600080fd5b50604080518082018252601981527f436861696e73206f6620476c6f72792045717569706d656e740000000000000060208083019182528351808501909452600384527f4347450000000000000000000000000000000000000000000000000000000000908401528151919291620000919160009162000ead565b508051620000a790600190602084019062000ead565b505050620000d6620000c7620001e9640100000000026401000000009004565b640100000000620001ed810204565b620000fe6000620000ef640100000000620001e9810204565b6401000000006200023f810204565b6200012560008051602062004b6c833981519152620000ef640100000000620001e9810204565b6200015d7ff981fb6fdf0d58703d02e1dadceeaa95ac8ae9afe74ea698f2124fae240aabb0620000ef640100000000620001e9810204565b620001957f19ac353dd86d6954025a359137447e1fda8f14ba7ba6373372af73b706fa3b22620000ef640100000000620001e9810204565b7505dc00000000000000000000000000000000000000003017600b55620001bb62000f3c565b620001e2620001d2640100000000620001e9810204565b8264010000000062000286810204565b50620011a9565b3390565b60088054600160a060020a03838116600160a060020a0319831681179093556040519116919082907f8be0079c531659141344cd1fd0a4f28419497f9722a3daafe3b4186f6b6457e090600090a35050565b62000259828264010000000062001a2c620003b182021704565b600082815260076020526040902062000281908264010000000062001a36620003c682021704565b505050565b620002bc60008051602062004b6c833981519152620002ad640100000000620001e9810204565b640100000000620003ef810204565b6200033d576040517f08c379a0000000000000000000000000000000000000000000000000000000008152602060048201526028602482015260008051602062004b4c83398151915260448201527f20746f206d696e7400000000000000000000000000000000000000000000000060648201526084015b60405180910390fd5b8051600f9081556020820151601055604082015160115560608201518291906200036c90601290600a62000f73565b5060809190910151600d90910155620003ad8262000399600a64010000000062001a4b6200041a82021704565b64010000000062001a4f6200041e82021704565b5050565b620003ad8282640100000000620005ad810204565b6000620003e683600160a060020a0384166401000000006200064b810204565b90505b92915050565b6000918252600660209081526040808420600160a060020a0393909316845291905290205460ff1690565b5490565b600160a060020a03821662000490576040517f08c379a000000000000000000000000000000000000000000000000000000000815260206004820181905260248201527f4552433732313a206d696e7420746f20746865207a65726f2061646472657373604482015260640162000334565b620004a481640100000000620006a3810204565b156200050d576040517f08c379a000000000000000000000000000000000000000000000000000000000815260206004820152601c60248201527f4552433732313a20746f6b656e20616c7265616479206d696e74656400000000604482015260640162000334565b6200052460008383640100000000620006c0810204565b600160a060020a03821660009081526003602052604081208054600192906200054f90849062001073565b90915550506000818152600260205260408082208054600160a060020a031916600160a060020a03861690811790915590518392907fddf252ad1be2c89b69c2b068fc378daa952ba7f163c4a11628f55a4df523b3ef908290a45050565b620005c28282640100000000620003ef810204565b620003ad576000828152600660209081526040808320600160a060020a03851684529091529020805460ff1916600117905562000607640100000000620001e9810204565b600160a060020a031681600160a060020a0316837f2f8788117e7eff1d82e926ec794901d17c78024a50270940304540a733656f0d60405160405180910390a45050565b6000620006628383640100000000620008a2810204565b6200069a57508154600181810184556000848152602080822090930184905584548482528286019093526040902091909155620003e9565b506000620003e9565b600090815260026020526040902054600160a060020a0316151590565b6000818152601d60205260409020600d015442116200073c576040517f08c379a000000000000000000000000000000000000000000000000000000000815260206004820152601e60248201527f457863657074696f6e3a2065717569706d656e74206973206c6f636b65640000604482015260640162000334565b600160a060020a0383166200083e57600f601d60006200076b600a64010000000062001a4b6200041a82021704565b81526020810191909152604001600020815481556001808301549082015560028083015490820155620007a76003808301908401600a62000fa3565b50600d91820154910155620007cb600a64010000000062001bb0620008ba82021704565b600b5462000810908290600160a060020a038116907401000000000000000000000000000000000000000090046001606060020a0316640100000000620008c3810204565b600160a060020a03919091166000908152601e60209081526040822080546001810182559083529120015550565b600160a060020a038216620008625762000281838264010000000062000a2d810204565b600160a060020a0382166000908152601e602090815260408220805460018101825590835291200181905562000281838264010000000062000a2d810204565b60009081526001919091016020526040902054151590565b80546001019055565b620008ea60008051602062004b6c833981519152620002ad640100000000620001e9810204565b62000967576040517f08c379a0000000000000000000000000000000000000000000000000000000008152602060048201526028602482015260008051602062004b4c83398151915260448201527f20746f206d696e74000000000000000000000000000000000000000000000000606482015260840162000334565b604080516001808252818301909252600091816020015b60408051808201909152600080825260208201528152602001906001900390816200097e5790505090508181600081518110620009bf57620009bf6200117a565b6020026020010151602001906001606060020a031690816001606060020a0316815250508281600081518110620009fa57620009fa6200117a565b6020908102919091010151600160a060020a03909116905262000a27848264010000000062000b3a810204565b50505050565b600062000a44838364010000000062000dc3810204565b600160a060020a0384166000908152601e60205260409020549091508110156200028157600160a060020a0383166000908152601e60205260409020805462000a90906001906200108e565b8154811062000aa35762000aa36200117a565b9060005260206000200154601e600085600160a060020a0316600160a060020a03168152602001908152602001600020828154811062000ae75762000ae76200117a565b6000918252602080832090910192909255600160a060020a0385168152601e9091526040902080548062000b1f5762000b1f6200114b565b60019003818190600052602060002001600090559055505050565b60005b815181101562000dad576000600160a060020a031682828151811062000b675762000b676200117a565b602002602001015160000151600160a060020a0316141562000be6576040517f08c379a000000000000000000000000000000000000000000000000000000000815260206004820152601b60248201527f526563697069656e742073686f756c642062652070726573656e740000000000604482015260640162000334565b81818151811062000bfb5762000bfb6200117a565b6020026020010151602001516001606060020a03166000141562000c7c576040517f08c379a000000000000000000000000000000000000000000000000000000000815260206004820181905260248201527f526f79616c74792076616c75652073686f756c6420626520706f736974697665604482015260640162000334565b60008381526009602052604090205462000d0e576000838152600960205260409020825183908390811062000cb55762000cb56200117a565b6020908102919091018101518254600181018455600093845292829020815191909201516001606060020a03167401000000000000000000000000000000000000000002600160a060020a039091161791015562000d98565b81818151811062000d235762000d236200117a565b60200260200101516009600085815260200190815260200160002060008154811062000d535762000d536200117a565b6000918252602091829020835193909201516001606060020a03167401000000000000000000000000000000000000000002600160a060020a03909316929092179101555b8062000da481620010fe565b91505062000b3d565b50620003ad828264010000000062000e6e810204565b6000805b600160a060020a0384166000908152601e602052604090205481101562000e4757600160a060020a0384166000908152601e6020526040902080548491908390811062000e185762000e186200117a565b9060005260206000200154141562000e32579050620003e9565b8062000e3e81620010fe565b91505062000dc7565b50600160a060020a0383166000908152601e6020526040902054620003e690606462001073565b7f3fa96d7b6bcbfe71ef171666d84db3cf52fa2d1c8afdb1cc8e486177f208b7df828260405162000ea192919062001007565b60405180910390a15050565b82805462000ebb90620010a8565b90600052602060002090601f01602090048101928262000edf576000855562000f2a565b82601f1062000efa57805160ff191683800117855562000f2a565b8280016001018555821562000f2a579182015b8281111562000f2a57825182559160200191906001019062000f0d565b5062000f3892915062000fd1565b5090565b6040518060a0016040528060008152602001600081526020016000815260200162000f6662000fe8565b8152602001600081525090565b82600a810192821562000f2a579160200282018281111562000f2a57825182559160200191906001019062000f0d565b82600a810192821562000f2a579182015b8281111562000f2a57825482559160010191906001019062000fb4565b5b8082111562000f38576000815560010162000fd2565b604051806101400160405280600a906020820280368337509192915050565b6000604080830185845260208281860152818651808452606087019150828801935060005b81811015620010655784518051600160a060020a031684528401516001606060020a03168484015293830193918501916001016200102c565b509098975050505050505050565b600082198211156200108957620010896200111c565b500190565b600082821015620010a357620010a36200111c565b500390565b600281046001821680620010bd57607f821691505b60208210811415620010f8577f4e487b7100000000000000000000000000000000000000000000000000000000600052602260045260246000fd5b50919050565b60006000198214156200111557620011156200111c565b5060010190565b7f4e487b7100000000000000000000000000000000000000000000000000000000600052601160045260246000fd5b7f4e487b7100000000000000000000000000000000000000000000000000000000600052603160045260246000fd5b7f4e487b7100000000000000000000000000000000000000000000000000000000600052603260045260246000fd5b61399380620011b96000396000f3fe608060405234801561001057600080fd5b5060043610610290576000357c0100000000000000000000000000000000000000000000000000000000900480637b2f8f9b1161016e578063c87b56dd116100e0578063db20f89c116100a4578063db20f89c14610629578063dc87a69814610649578063dc95c4a71461067c578063e985e9c51461068f578063ea132591146106cb578063f2fde38b146106de57600080fd5b8063c87b56dd146105a9578063ca15c873146105bc578063cad96cca146105cf578063d5391393146105ef578063d547741f1461061657600080fd5b806392e0150b1161013257806392e0150b1461054d57806395d89b4114610560578063a217fddf14610568578063a22cb46514610570578063a3fd0d9914610583578063b88d4fde1461059657600080fd5b80637b2f8f9b146104c45780638924af74146104d75780638da5cb5b146105165780639010d07c1461052757806391d148541461053a57600080fd5b80633143d97c116102075780635ad3a0a8116101cb5780635ad3a0a81461045b5780636352211e1461047057806370a0823114610483578063715018a61461049657806376a66e8d1461049e5780637703aad5146104b157600080fd5b80633143d97c146103e857806333b75413146103fb57806336568abe1461042257806342842e0e146104355780634f558e791461044857600080fd5b806311fdb52e1161025957806311fdb52e14610347578063143094db1461035a57806323b872dd1461036d578063248a9ca3146103805780632a55205a146103a35780632f2ff15d146103d557600080fd5b8062e23cfc1461029557806301ffc9a7146102cf57806306fdde03146102f2578063081812fc14610307578063095ea7b314610332575b600080fd5b6102bc7f19ac353dd86d6954025a359137447e1fda8f14ba7ba6373372af73b706fa3b2281565b6040519081526020015b60405180910390f35b6102e26102dd366004613210565b6106f1565b60405190151581526020016102c6565b6102fa610776565b6040516102c69190613527565b61031a6103153660046131b0565b610808565b604051600160a060020a0390911681526020016102c6565b610345610340366004613184565b6108b6565b005b610345610355366004613340565b6109ee565b61034561036836600461324a565b610a48565b61034561037b366004612f8a565b610b4f565b6102bc61038e3660046131b0565b60009081526006602052604090206001015490565b6103b66103b13660046131ee565b610b83565b60408051600160a060020a0390931683526020830191909152016102c6565b6103456103e33660046131c9565b610c93565b6103456103f63660046131ee565b610cb5565b6102bc7ff981fb6fdf0d58703d02e1dadceeaa95ac8ae9afe74ea698f2124fae240aabb081565b6103456104303660046131c9565b610d77565b610345610443366004612f8a565b610d99565b6102e26104563660046131b0565b610db4565b610463610dd3565b6040516102c691906134e3565b61031a61047e3660046131b0565b610e2a565b6102bc610491366004612f34565b610eb8565b610345610f55565b6103456104ac366004613288565b610f8e565b6103456104bf3660046130c2565b611072565b6104636104d2366004612f34565b61110c565b6104ea6104e53660046131ee565b611178565b60408051600160a060020a0390931683526bffffffffffffffffffffffff9091166020830152016102c6565b600854600160a060020a031661031a565b61031a6105353660046131ee565b6111c6565b6102e26105483660046131c9565b6111e5565b61034561055b3660046131b0565b611210565b6102fa6113cd565b6102bc600081565b61034561057e36600461308f565b6113dc565b6102bc610591366004613184565b6114a4565b6103456105a4366004612fcb565b611544565b6102fa6105b73660046131b0565b611579565b6102bc6105ca3660046131b0565b611664565b6105e26105dd3660046131b0565b61167b565b6040516102c691906134d0565b6102bc7f9f2df0fed2c77648de5860a4cc508cd0818c85b8b8a1ab4ceeef8d981c8956a681565b6103456106243660046131c9565b61170f565b61063c6106373660046131b0565b611719565b6040516102c69190613686565b61065c6106573660046131b0565b611857565b6040805194855260208501939093529183015260608201526080016102c6565b61034561068a366004612f34565b611891565b6102e261069d366004612f51565b600160a060020a03918216600090815260056020908152604080832093909416825291909152205460ff1690565b61063c6106d93660046131b0565b6118ed565b6103456106ec366004612f34565b611974565b6000600160e060020a031982167f44c74bcc00000000000000000000000000000000000000000000000000000000141561072d57506001919050565b600160e060020a031982167f2a55205a00000000000000000000000000000000000000000000000000000000141561076757506001919050565b61077082611bb9565b92915050565b60606000805461078590613821565b80601f01602080910402602001604051908101604052809291908181526020018280546107b190613821565b80156107fe5780601f106107d3576101008083540402835291602001916107fe565b820191906000526020600020905b8154815290600101906020018083116107e157829003601f168201915b5050505050905090565b600081815260026020526040812054600160a060020a031661089a5760405160e560020a62461bcd02815260206004820152602c60248201527f4552433732313a20617070726f76656420717565727920666f72206e6f6e657860448201527f697374656e7420746f6b656e000000000000000000000000000000000000000060648201526084015b60405180910390fd5b50600090815260046020526040902054600160a060020a031690565b60006108c182610e2a565b905080600160a060020a031683600160a060020a0316141561094e5760405160e560020a62461bcd02815260206004820152602160248201527f4552433732313a20617070726f76616c20746f2063757272656e74206f776e6560448201527f72000000000000000000000000000000000000000000000000000000000000006064820152608401610891565b33600160a060020a038216148061096a575061096a813361069d565b6109df5760405160e560020a62461bcd02815260206004820152603860248201527f4552433732313a20617070726f76652063616c6c6572206973206e6f74206f7760448201527f6e6572206e6f7220617070726f76656420666f7220616c6c00000000000000006064820152608401610891565b6109e98383611bf7565b505050565b600854600160a060020a03163314610a1b5760405160e560020a62461bcd028152600401610891906135f4565b600b80546bffffffffffffffffffffffff90921660a060020a02600160a060020a03909216919091179055565b610a727f9f2df0fed2c77648de5860a4cc508cd0818c85b8b8a1ab4ceeef8d981c8956a6336111e5565b610a915760405160e560020a62461bcd02815260040161089190613597565b604080516001808252818301909252600091816020015b6040805180820190915260008082526020820152815260200190600190039081610aa85790505090508181600081518110610ae557610ae56138d9565b6020026020010151602001906bffffffffffffffffffffffff1690816bffffffffffffffffffffffff16815250508281600081518110610b2757610b276138d9565b6020908102919091010151600160a060020a039091169052610b498482611c72565b50505050565b610b593382611e96565b610b785760405160e560020a62461bcd02815260040161089190613629565b6109e9838383611fa1565b6000828152600960209081526040808320805482518185028101850190935280835284938493929190849084015b82821015610c055760008481526020908190206040805180820190915290840154600160a060020a038116825260a060020a90046bffffffffffffffffffffffff1681830152825260019092019101610bb1565b505050509050600081511115610c835780600081518110610c2857610c286138d9565b60200260200101516000015161271082600081518110610c4a57610c4a6138d9565b6020026020010151602001516bffffffffffffffffffffffff1686610c6f91906137a8565b610c799190613794565b9250925050610c8c565b60008092509250505b9250929050565b610c9d828261218c565b60008281526007602052604090206109e99082611a36565b610cdf7f19ac353dd86d6954025a359137447e1fda8f14ba7ba6373372af73b706fa3b22336111e5565b610d545760405160e560020a62461bcd02815260206004820152602760248201527f457863657074696f6e3a206d757374206861766520515545535420726f6c652060448201527f746f206d696e74000000000000000000000000000000000000000000000000006064820152608401610891565b610d5e814261377c565b6000928352601d6020526040909220600d019190915550565b610d8182826121b2565b60008281526007602052604090206109e9908261223d565b6109e983838360405180602001604052806000815250611544565b600081815260026020526040812054600160a060020a03161515610770565b6060600d8054806020026020016040519081016040528092919081815260200182805480156107fe57602002820191906000526020600020905b815481526020019060010190808311610e0d575050505050905090565b600081815260026020526040812054600160a060020a0316806107705760405160e560020a62461bcd02815260206004820152602960248201527f4552433732313a206f776e657220717565727920666f72206e6f6e657869737460448201527f656e7420746f6b656e00000000000000000000000000000000000000000000006064820152608401610891565b6000600160a060020a038216610f395760405160e560020a62461bcd02815260206004820152602a60248201527f4552433732313a2062616c616e636520717565727920666f7220746865207a6560448201527f726f2061646472657373000000000000000000000000000000000000000000006064820152608401610891565b50600160a060020a031660009081526003602052604090205490565b600854600160a060020a03163314610f825760405160e560020a62461bcd028152600401610891906135f4565b610f8c6000612252565b565b600854600160a060020a03163314610fbb5760405160e560020a62461bcd028152600401610891906135f4565b8051821461105a5760405160e560020a62461bcd02815260206004820152604860248201527f457863657074696f6e3a206d7573742070726f766964652061206d617472697860448201527f206f662076616c756573206f66207468652073616d65206c656e67687420746860648201527f616e206c6576656c000000000000000000000000000000000000000000000000608482015260a401610891565b600c82905580516109e990600d906020840190612e07565b61109c7f9f2df0fed2c77648de5860a4cc508cd0818c85b8b8a1ab4ceeef8d981c8956a6336111e5565b6110bb5760405160e560020a62461bcd02815260040161089190613597565b8051600f9081556020820151601055604082015160115560608201518291906110e890601290600a612e52565b50608082015181600d015590505061110882611103600a5490565b611a4f565b5050565b600160a060020a0381166000908152601e602090815260409182902080548351818402810184019094528084526060939283018282801561116c57602002820191906000526020600020905b815481526020019060010190808311611158575b50505050509050919050565b6009602052816000526040600020818154811061119457600080fd5b600091825260209091200154600160a060020a038116925060a060020a90046bffffffffffffffffffffffff16905082565b60008281526007602052604081206111de90836122b1565b9392505050565b6000918252600660209081526040808420600160a060020a0393909316845291905290205460ff1690565b6000818152601d60205260409020600d015442116112735760405160e560020a62461bcd02815260206004820152601e60248201527f457863657074696f6e3a2065717569706d656e74206973206c6f636b656400006044820152606401610891565b61129d7ff981fb6fdf0d58703d02e1dadceeaa95ac8ae9afe74ea698f2124fae240aabb0336111e5565b6113125760405160e560020a62461bcd02815260206004820152603360248201527f457863657074696f6e3a206f6e6c792074686520506f6c796d6174682063616e60448201527f2063616c6c20746869732066756e6374696f6e000000000000000000000000006064820152608401610891565b600c546000828152601d602052604090206002015461133290600161377c565b106113a85760405160e560020a62461bcd02815260206004820152602c60248201527f457863657074696f6e3a2065717569706d656e7420697320616c72656164792060448201527f6174206d6178206c6576656c00000000000000000000000000000000000000006064820152608401610891565b6000818152601d602052604081206002018054916113c58361385f565b919050555050565b60606001805461078590613821565b600160a060020a0382163314156114385760405160e560020a62461bcd02815260206004820152601960248201527f4552433732313a20617070726f766520746f2063616c6c6572000000000000006044820152606401610891565b336000818152600560209081526040808320600160a060020a03871680855290835292819020805460ff191686151590811790915590519081529192917f17307eab39ab6107e8899845ad3d59bd9653f200f220920489ca2b5937696c31910160405180910390a35050565b6000805b600160a060020a0384166000908152601e602052604090205481101561151f57600160a060020a0384166000908152601e602052604090208054849190839081106114f5576114f56138d9565b9060005260206000200154141561150d579050610770565b806115178161385f565b9150506114a8565b50600160a060020a0383166000908152601e60205260409020546111de90606461377c565b61154e3383611e96565b61156d5760405160e560020a62461bcd02815260040161089190613629565b610b49848484846122bd565b600081815260026020526040902054606090600160a060020a03166116095760405160e560020a62461bcd02815260206004820152602f60248201527f4552433732314d657461646174613a2055524920717565727920666f72206e6f60448201527f6e6578697374656e7420746f6b656e00000000000000000000000000000000006064820152608401610891565b60006116136122f3565b9050600081511161163357604051806020016040528060008152506111de565b8061163d84612313565b60405160200161164e9291906133e4565b6040516020818303038152906040529392505050565b60008181526007602052604081206107709061244c565b606060096000838152602001908152602001600020805480602002602001604051908101604052809291908181526020016000905b828210156117045760008481526020908190206040805180820190915290840154600160a060020a038116825260a060020a90046bffffffffffffffffffffffff16818301528252600190920191016116b0565b505050509050919050565b610d818282612456565b611721612e7f565b611729612e7f565b6000838152601d6020908152604091829020825160a0810184528154815260018201549281019290925260028101548284015282516101408101938490529192909160608401916003840190600a9082845b81548152602001906001019080831161177b5750505050508152602001600d8201548152505090508060400151600014610770576000600d8260400151815481106117c8576117c86138d9565b9060005260206000200154905060005b600a81101561184f57606482846060015183600a81106117fa576117fa6138d9565b602002015161180991906137a8565b6118139190613794565b836060015182600a8110611829576118296138d9565b6020020181815161183a919061377c565b905250806118478161385f565b9150506117d8565b505092915050565b600e818154811061186757600080fd5b60009182526020909120600e90910201805460018201546002830154600d90930154919350919084565b600854600160a060020a031633146118be5760405160e560020a62461bcd028152600401610891906135f4565b600b805473ffffffffffffffffffffffffffffffffffffffff1916600160a060020a0392909216919091179055565b6118f5612e7f565b6000828152601d6020908152604091829020825160a0810184528154815260018201549281019290925260028101548284015282516101408101938490529192909160608401916003840190600a9082845b8154815260200190600101908083116119475750505050508152602001600d820154815250509050919050565b600854600160a060020a031633146119a15760405160e560020a62461bcd028152600401610891906135f4565b600160a060020a038116611a205760405160e560020a62461bcd02815260206004820152602660248201527f4f776e61626c653a206e6577206f776e657220697320746865207a65726f206160448201527f64647265737300000000000000000000000000000000000000000000000000006064820152608401610891565b611a2981612252565b50565b611108828261247c565b60006111de83600160a060020a038416612502565b5490565b600160a060020a038216611aa85760405160e560020a62461bcd02815260206004820181905260248201527f4552433732313a206d696e7420746f20746865207a65726f20616464726573736044820152606401610891565b600081815260026020526040902054600160a060020a031615611b105760405160e560020a62461bcd02815260206004820152601c60248201527f4552433732313a20746f6b656e20616c7265616479206d696e746564000000006044820152606401610891565b611b1c60008383612551565b600160a060020a0382166000908152600360205260408120805460019290611b4590849061377c565b9091555050600081815260026020526040808220805473ffffffffffffffffffffffffffffffffffffffff1916600160a060020a03861690811790915590518392907fddf252ad1be2c89b69c2b068fc378daa952ba7f163c4a11628f55a4df523b3ef908290a45050565b80546001019055565b6000600160e060020a031982167f5a05180f0000000000000000000000000000000000000000000000000000000014806107705750610770826126cc565b6000818152600460205260409020805473ffffffffffffffffffffffffffffffffffffffff1916600160a060020a0384169081179091558190611c3982610e2a565b600160a060020a03167f8c5be1e5ebec7d5bd14f71427d1e84f3dd0314c0f7b2291e5b200ac8c7c3b92560405160405180910390a45050565b60005b8151811015611e8b576000600160a060020a0316828281518110611c9b57611c9b6138d9565b602002602001015160000151600160a060020a03161415611d015760405160e560020a62461bcd02815260206004820152601b60248201527f526563697069656e742073686f756c642062652070726573656e7400000000006044820152606401610891565b818181518110611d1357611d136138d9565b6020026020010151602001516bffffffffffffffffffffffff1660001415611d805760405160e560020a62461bcd02815260206004820181905260248201527f526f79616c74792076616c75652073686f756c6420626520706f7369746976656044820152606401610891565b600083815260096020526040902054611e015760008381526009602052604090208251839083908110611db557611db56138d9565b6020908102919091018101518254600181018455600093845292829020815191909201516bffffffffffffffffffffffff1660a060020a02600160a060020a0390911617910155611e79565b818181518110611e1357611e136138d9565b602002602001015160096000858152602001908152602001600020600081548110611e4057611e406138d9565b6000918252602091829020835193909201516bffffffffffffffffffffffff1660a060020a02600160a060020a03909316929092179101555b80611e838161385f565b915050611c75565b50611108828261270a565b600081815260026020526040812054600160a060020a0316611f235760405160e560020a62461bcd02815260206004820152602c60248201527f4552433732313a206f70657261746f7220717565727920666f72206e6f6e657860448201527f697374656e7420746f6b656e00000000000000000000000000000000000000006064820152608401610891565b6000611f2e83610e2a565b905080600160a060020a031684600160a060020a03161480611f69575083600160a060020a0316611f5e84610808565b600160a060020a0316145b80611f995750600160a060020a0380821660009081526005602090815260408083209388168352929052205460ff165b949350505050565b82600160a060020a0316611fb482610e2a565b600160a060020a0316146120335760405160e560020a62461bcd02815260206004820152602960248201527f4552433732313a207472616e73666572206f6620746f6b656e2074686174206960448201527f73206e6f74206f776e00000000000000000000000000000000000000000000006064820152608401610891565b600160a060020a0382166120b15760405160e560020a62461bcd028152602060048201526024808201527f4552433732313a207472616e7366657220746f20746865207a65726f2061646460448201527f72657373000000000000000000000000000000000000000000000000000000006064820152608401610891565b6120bc838383612551565b6120c7600082611bf7565b600160a060020a03831660009081526003602052604081208054600192906120f09084906137c7565b9091555050600160a060020a038216600090815260036020526040812080546001929061211e90849061377c565b9091555050600081815260026020526040808220805473ffffffffffffffffffffffffffffffffffffffff1916600160a060020a0386811691821790925591518493918716917fddf252ad1be2c89b69c2b068fc378daa952ba7f163c4a11628f55a4df523b3ef91a4505050565b6000828152600660205260409020600101546121a88133612747565b6109e9838361247c565b600160a060020a03811633146122335760405160e560020a62461bcd02815260206004820152602f60248201527f416363657373436f6e74726f6c3a2063616e206f6e6c792072656e6f756e636560448201527f20726f6c657320666f722073656c6600000000000000000000000000000000006064820152608401610891565b61110882826127ae565b60006111de83600160a060020a038416612815565b60088054600160a060020a0383811673ffffffffffffffffffffffffffffffffffffffff19831681179093556040519116919082907f8be0079c531659141344cd1fd0a4f28419497f9722a3daafe3b4186f6b6457e090600090a35050565b60006111de8383612908565b6122c8848484611fa1565b6122d484848484612932565b610b495760405160e560020a62461bcd0281526004016108919061353a565b606060405180606001604052806027815260200161393760279139905090565b60608161235357505060408051808201909152600181527f3000000000000000000000000000000000000000000000000000000000000000602082015290565b8160005b811561237d57806123678161385f565b91506123769050600a83613794565b9150612357565b60008167ffffffffffffffff811115612398576123986138f2565b6040519080825280601f01601f1916602001820160405280156123c2576020820181803683370190505b5090505b8415611f99576123d76001836137c7565b91506123e4600a8661387a565b6123ef90603061377c565b7f010000000000000000000000000000000000000000000000000000000000000002818381518110612423576124236138d9565b6020010190600160f860020a031916908160001a905350612445600a86613794565b94506123c6565b6000610770825490565b6000828152600660205260409020600101546124728133612747565b6109e983836127ae565b61248682826111e5565b611108576000828152600660209081526040808320600160a060020a03851684529091529020805460ff191660011790556124be3390565b600160a060020a031681600160a060020a0316837f2f8788117e7eff1d82e926ec794901d17c78024a50270940304540a733656f0d60405160405180910390a45050565b600081815260018301602052604081205461254957508154600181810184556000848152602080822090930184905584548482528286019093526040902091909155610770565b506000610770565b6000818152601d60205260409020600d015442116125b45760405160e560020a62461bcd02815260206004820152601e60248201527f457863657074696f6e3a2065717569706d656e74206973206c6f636b656400006044820152606401610891565b600160a060020a03831661267f57600f601d60006125d1600a5490565b8152602081019190915260400160002081548155600180830154908201556002808301549082015561260b6003808301908401600a612eb4565b50600d91820154910155612623600a80546001019055565b600b54612651908290600160a060020a0381169060a060020a90046bffffffffffffffffffffffff16610a48565b600160a060020a03919091166000908152601e60209081526040822080546001810182559083529120015550565b600160a060020a038216612697576109e98382612a74565b600160a060020a0382166000908152601e60209081526040822080546001810182559083529120018190556109e98382612a74565b6000600160e060020a031982167f7965db0b000000000000000000000000000000000000000000000000000000001480610770575061077082612b6a565b7f3fa96d7b6bcbfe71ef171666d84db3cf52fa2d1c8afdb1cc8e486177f208b7df828260405161273b9291906136e5565b60405180910390a15050565b61275182826111e5565b6111085761276981600160a060020a03166014612c05565b612774836020612c05565b604051602001612785929190613413565b60408051601f198184030181529082905260e560020a62461bcd02825261089191600401613527565b6127b882826111e5565b15611108576000828152600660209081526040808320600160a060020a0385168085529252808320805460ff1916905551339285917ff6391f5c32d9c69d2a47ea670b442974b53935d1edc7fd64eb21e047a839171b9190a45050565b600081815260018301602052604081205480156128fe5760006128396001836137c7565b855490915060009061284d906001906137c7565b90508181146128b257600086600001828154811061286d5761286d6138d9565b9060005260206000200154905080876000018481548110612890576128906138d9565b6000918252602080832090910192909255918252600188019052604090208390555b85548690806128c3576128c36138c0565b600190038181906000526020600020016000905590558560010160008681526020019081526020016000206000905560019350505050610770565b6000915050610770565b600082600001828154811061291f5761291f6138d9565b9060005260206000200154905092915050565b6000600160a060020a0384163b15612a69576040517f150b7a02000000000000000000000000000000000000000000000000000000008152600160a060020a0385169063150b7a029061298f903390899088908890600401613494565b602060405180830381600087803b1580156129a957600080fd5b505af19250505080156129d9575060408051601f3d908101601f191682019092526129d69181019061322d565b60015b612a36573d808015612a07576040519150601f19603f3d011682016040523d82523d6000602084013e612a0c565b606091505b508051612a2e5760405160e560020a62461bcd0281526004016108919061353a565b805181602001fd5b600160e060020a0319167f150b7a0200000000000000000000000000000000000000000000000000000000149050611f99565b506001949350505050565b6000612a8083836114a4565b600160a060020a0384166000908152601e60205260409020549091508110156109e957600160a060020a0383166000908152601e602052604090208054612ac9906001906137c7565b81548110612ad957612ad96138d9565b9060005260206000200154601e600085600160a060020a0316600160a060020a031681526020019081526020016000208281548110612b1a57612b1a6138d9565b6000918252602080832090910192909255600160a060020a0385168152601e90915260409020805480612b4f57612b4f6138c0565b60019003818190600052602060002001600090559055505050565b6000600160e060020a031982167f80ac58cd000000000000000000000000000000000000000000000000000000001480612bcd5750600160e060020a031982167f5b5e139f00000000000000000000000000000000000000000000000000000000145b8061077057507f01ffc9a700000000000000000000000000000000000000000000000000000000600160e060020a0319831614610770565b60606000612c148360026137a8565b612c1f90600261377c565b67ffffffffffffffff811115612c3757612c376138f2565b6040519080825280601f01601f191660200182016040528015612c61576020820181803683370190505b5090507f300000000000000000000000000000000000000000000000000000000000000081600081518110612c9857612c986138d9565b6020010190600160f860020a031916908160001a9053507f780000000000000000000000000000000000000000000000000000000000000081600181518110612ce357612ce36138d9565b6020010190600160f860020a031916908160001a9053506000612d078460026137a8565b612d1290600161377c565b90505b6001811115612db5577f303132333435363738396162636465660000000000000000000000000000000085600f1660108110612d5357612d536138d9565b1a7f010000000000000000000000000000000000000000000000000000000000000002828281518110612d8857612d886138d9565b6020010190600160f860020a031916908160001a905350601090940493612dae8161380a565b9050612d15565b5083156111de5760405160e560020a62461bcd02815260206004820181905260248201527f537472696e67733a20686578206c656e67746820696e73756666696369656e746044820152606401610891565b828054828255906000526020600020908101928215612e42579160200282015b82811115612e42578251825591602001919060010190612e27565b50612e4e929150612edf565b5090565b82600a8101928215612e425791602002820182811115612e42578251825591602001919060010190612e27565b6040518060a00160405280600081526020016000815260200160008152602001612ea7612ef4565b8152602001600081525090565b82600a8101928215612e42579182015b82811115612e42578254825591600101919060010190612ec4565b5b80821115612e4e5760008155600101612ee0565b604051806101400160405280600a906020820280368337509192915050565b80356bffffffffffffffffffffffff81168114612f2f57600080fd5b919050565b600060208284031215612f4657600080fd5b81356111de8161390b565b60008060408385031215612f6457600080fd5b8235612f6f8161390b565b91506020830135612f7f8161390b565b809150509250929050565b600080600060608486031215612f9f57600080fd5b8335612faa8161390b565b92506020840135612fba8161390b565b929592945050506040919091013590565b60008060008060808587031215612fe157600080fd5b8435612fec8161390b565b9350602085810135612ffd8161390b565b935060408601359250606086013567ffffffffffffffff8082111561302157600080fd5b818801915088601f83011261303557600080fd5b813581811115613047576130476138f2565b613059601f8201601f1916850161374b565b9150808252898482850101111561306f57600080fd5b808484018584013760008482840101525080935050505092959194509250565b600080604083850312156130a257600080fd5b82356130ad8161390b565b915060208301358015158114612f7f57600080fd5b6000808284036101e08112156130d757600080fd5b83356130e28161390b565b925060206101c0601f1983018113156130fa57600080fd5b6131026136fe565b92508186013583526040860135828401526060860135604084015286609f87011261312c57600080fd5b613134613727565b9086019080608088018984111561314a57600080fd5b60005b600a81101561316a5781358452928501929085019060010161314d565b505060608501525035608083015250919491935090915050565b6000806040838503121561319757600080fd5b82356131a28161390b565b946020939093013593505050565b6000602082840312156131c257600080fd5b5035919050565b600080604083850312156131dc57600080fd5b823591506020830135612f7f8161390b565b6000806040838503121561320157600080fd5b50508035926020909101359150565b60006020828403121561322257600080fd5b81356111de81613920565b60006020828403121561323f57600080fd5b81516111de81613920565b60008060006060848603121561325f57600080fd5b8335925060208401356132718161390b565b915061327f60408501612f13565b90509250925092565b6000806040838503121561329b57600080fd5b8235915060208084013567ffffffffffffffff808211156132bb57600080fd5b818601915086601f8301126132cf57600080fd5b8135818111156132e1576132e16138f2565b83810291506132f184830161374b565b8181528481019084860184860187018b101561330c57600080fd5b600095505b8386101561332f578035835260019590950194918601918601613311565b508096505050505050509250929050565b60006020828403121561335257600080fd5b6111de82612f13565b600081518084526020808501945080840160005b838110156133ad5781518051600160a060020a031688528301516bffffffffffffffffffffffff16838801526040909601959082019060010161336f565b509495945050505050565b600081518084526133d08160208601602086016137de565b601f01601f19169290920160200192915050565b600083516133f68184602088016137de565b83519083019061340a8183602088016137de565b01949350505050565b7f416363657373436f6e74726f6c3a206163636f756e742000000000000000000081526000835161344b8160178501602088016137de565b7f206973206d697373696e6720726f6c652000000000000000000000000000000060179184019182015283516134888160288401602088016137de565b01602801949350505050565b6000600160a060020a038087168352808616602084015250836040830152608060608301526134c660808301846133b8565b9695505050505050565b6020815260006111de602083018461335b565b6020808252825182820181905260009190848201906040850190845b8181101561351b578351835292840192918401916001016134ff565b50909695505050505050565b6020815260006111de60208301846133b8565b60208082526032908201527f4552433732313a207472616e7366657220746f206e6f6e20455243373231526560408201527f63656976657220696d706c656d656e7465720000000000000000000000000000606082015260800190565b60208082526028908201527f457863657074696f6e3a206d7573742068617665206d696e74657220726f6c6560408201527f20746f206d696e74000000000000000000000000000000000000000000000000606082015260800190565b6020808252818101527f4f776e61626c653a2063616c6c6572206973206e6f7420746865206f776e6572604082015260600190565b60208082526031908201527f4552433732313a207472616e736665722063616c6c6572206973206e6f74206f60408201527f776e6572206e6f7220617070726f766564000000000000000000000000000000606082015260800190565b60006101c08201905082518252602080840151818401526040840151604084015260608401516060840160005b600a8110156136d0578251825291830191908301906001016136b3565b5050505060808301516101a083015292915050565b828152604060208201526000611f99604083018461335b565b60405160a0810167ffffffffffffffff81118282101715613721576137216138f2565b60405290565b604051610140810167ffffffffffffffff81118282101715613721576137216138f2565b604051601f8201601f1916810167ffffffffffffffff81118282101715613774576137746138f2565b604052919050565b6000821982111561378f5761378f61388e565b500190565b6000826137a3576137a36138a7565b500490565b60008160001904831182151516156137c2576137c261388e565b500290565b6000828210156137d9576137d961388e565b500390565b60005b838110156137f95781810151838201526020016137e1565b83811115610b495750506000910152565b6000816138195761381961388e565b506000190190565b60028104600182168061383557607f821691505b602082108114156138595760e060020a634e487b7102600052602260045260246000fd5b50919050565b60006000198214156138735761387361388e565b5060010190565b600082613889576138896138a7565b500690565b60e060020a634e487b7102600052601160045260246000fd5b60e060020a634e487b7102600052601260045260246000fd5b60e060020a634e487b7102600052603160045260246000fd5b60e060020a634e487b7102600052603260045260246000fd5b60e060020a634e487b7102600052604160045260246000fd5b600160a060020a0381168114611a2957600080fd5b600160e060020a031981168114611a2957600080fdfe68747470733a2f2f7777772e636861696e736f66676c6f72792e636f6d2f6d657461646174612fa26469706673582212208bfb64f3034c2b15980dd691b41783587d71355ef41753d1539ead7a79816b0d64736f6c63430008060033457863657074696f6e3a206d7573742068617665206d696e74657220726f6c659f2df0fed2c77648de5860a4cc508cd0818c85b8b8a1ab4ceeef8d981c8956a6",
  "immutableReferences": {},
  "source": "//SPDX-License-Identifier: MIT\npragma solidity ^0.8.0;\n\nimport \"@openzeppelin/contracts/token/ERC721/ERC721.sol\";\nimport \"@openzeppelin/contracts/access/Ownable.sol\";\nimport \"@openzeppelin/contracts/access/AccessControlEnumerable.sol\";\nimport \"@openzeppelin/contracts/utils/Counters.sol\";\nimport \"./rarible/royalties/contracts/impl/RoyaltiesV2Impl.sol\";\nimport \"./rarible/royalties/contracts/LibPart.sol\";\nimport \"./rarible/royalties/contracts/LibRoyaltiesV2.sol\";\n\ncontract Equipment is ERC721, AccessControlEnumerable, Ownable, RoyaltiesV2Impl {\n    using Counters for Counters.Counter;\n    Counters.Counter private _tokenIdTracker;\n    \n    //Adds support for OpenSea\n    bytes4 private constant _INTERFACE_ID_ERC2981 = 0x2a55205a;\n\n    //Roles of monter and burner\n    bytes32 public constant MINTER_ROLE = keccak256(\"MINTER_ROLE\");\n    bytes32 public constant POLYMATH_ROLE = keccak256(\"POLYMATH_ROLE\"); //May upgrade player level\n    bytes32 public constant QUEST_ROLE = keccak256(\"QUEST_ROLE\");       //May set timeLocks\n\n    //Royaties address and amntou\n    address payable private _royaltiesAddress;\n    uint96 private _royaltiesBasicPoints;\n\n    //Stats of players and enemies\n    struct gearStats {\n        uint class;\t            //Index on the NFT for client use\n        uint slot;\t\t        //0-Head 1-Neck 2-Chest 3-Belt 4-Legs 5-Feet 6-Arms \n                                //7-RHand (weapon) 8-LHand(complement) 9-Finger 10-Mount 100-Wildcard\n        uint level;     \t    //By default is 0. Evolvable NFTs may upgrade this level\n        uint[10] stats;      //0-Health 1-Vitality 2-Attack 3-Defense 4-Mastery \n                                //5-Speed 6-Luck 7-Faith 8-reserved 9-reserved \n                                //NOTE: We use last two for the store, PRICE IN TOKENS AT POS 9!!\n        //NOTE: DO NOT USE DECIMALS, INSTEAD MULTIPLY BY 100z\n\n        uint timeLock;          //Timestamp until the player is locked (mission time)\n    }\n\n    //maximum level a gear can go. \n    //This value may be updated based on the current tier\n    //For first tier we may limit to 10, the for second to 20, etc...\n    //The upgrade matrix MUST be also updated in order to go further with tiers\n    uint maxLevel;\n\n    //It MUST contains the coeficients to apply to each level upgrade\n    //There must be the same amount of element as maxLevel\n    //For example, in tier 1 maxLevel=10\n    //upgradeMatrix=[0, 5, 10, 14, 18, 21, 24, 26, 28, 30]\n    //Each level means the percentage of upgrade for the level regarding the basic stats    \n    uint256[] upgradeMatrix;\n\n    //Gear offered in the stores\n    //Administrators may update, delete or modify the content\n    //The store should read this array and populate the store acording to it\n    gearStats[] public storeGear;\n\n\n    //Used by _beforeTokenTransfer to catch the after minting\n    gearStats private gearToMint;\n\n\n    //Mapping from NFT to struct\n    mapping(uint256 => gearStats) private values;\n\n    // Mapping from owner address to token ID. It is used to quickly get all NFTs on an address\n    mapping(address => uint256[]) private _tokensByOwner;\n\n    //Generic random counter, used to add a bit more of entropy\n    uint randomNonce=0;\n\n    constructor() ERC721(\"Chains of Glory Equipment\", \"CGE\") {\n        _setupRole(DEFAULT_ADMIN_ROLE, _msgSender());\n\n        _setupRole(MINTER_ROLE, _msgSender());\n        _setupRole(POLYMATH_ROLE, _msgSender());\n        _setupRole(QUEST_ROLE, _msgSender());\n\n        //Royaties address and amntou\n        _royaltiesAddress=payable(address(this)); //Contract creator by default\n        _royaltiesBasicPoints=1500; //15% default\n\n        gearStats memory gear;\n        //Creates the 0 NFT which is special. Means 'empty slot' for the characters\n        mint(_msgSender(), gear);\n    }\n\n    function mint(address _to, gearStats memory data) public {\n        require(hasRole(MINTER_ROLE, _msgSender()), \"Exception: must have minter role to mint\");\n        \n        //Stores the struct to assign when mint os ok\n        gearToMint=data;\n        super._mint(_to, _tokenIdTracker.current()); \n    }\n\n    function setTimeLock(uint256 gearId, uint timestamp) public {\n        require(hasRole(QUEST_ROLE, _msgSender()), \"Exception: must have QUEST role to mint\");\n        values[gearId].timeLock=block.timestamp+timestamp;\n    }\n\n    //GameToken Token Address\n    function setRoyaltiesAddress(address payable rAddress) public onlyOwner {\n        _royaltiesAddress=rAddress;\n    }\n\n    //GameToken Token Address\n    function setRoyaltiesBasicPoints(uint96 rBasicPoints) public onlyOwner {\n        _royaltiesBasicPoints=rBasicPoints;\n    }\n\n    //Update the level of the gear and recalculates all stats\n    //Only Polymath role can do it. \n    //To recalculate stats function uses the upgrade matrix. See above...\n    function updateLevel(uint256 gear) public {\n        require(values[gear].timeLock  < block.timestamp, \"Exception: equipment is locked\");\n        require(hasRole(POLYMATH_ROLE, _msgSender()), \"Exception: only the Polymath can call this function\");\n        require((values[gear].level + 1) < maxLevel, \"Exception: equipment is already at max level\");\n        \n        values[gear].level++;\n    }\n\n    //Set the max level of the gears\n    function setMaxLevel(uint lvl, uint256[] memory matrixValues) public {\n        require(owner() == _msgSender(), \"Ownable: caller is not the owner\");\n        require(lvl == matrixValues.length, \"Exception: must provide a matrix of values of the same lenght than level\");\n\n        maxLevel=lvl;\n        upgradeMatrix=matrixValues;\n    }\n\n    function getMatrix() public view returns (uint256[] memory){\n        return upgradeMatrix;\n    }\n\n    function _beforeTokenTransfer(address from, address to, uint256 tokenId) internal virtual override(ERC721) {\n        require(values[tokenId].timeLock  < block.timestamp, \"Exception: equipment is locked\");\n        if(from==address(0)) {\n            //Minting ok, creates struct of stats\n            values[_tokenIdTracker.current()] = gearToMint;\n            _tokenIdTracker.increment();\n\n            //When mint a new NFT sets the royalties address\n            setRoyalties(tokenId, _royaltiesAddress, _royaltiesBasicPoints);\n\n            //Updates the _tokensByOwner mapping            \n            _tokensByOwner[to].push(tokenId);\n        } else if(to==address(0)) {\n            //Burning\n\n            //Updates the _tokensByOwner mapping\n            deleteTokenId(from, tokenId);\n        } else {\n            //Normal transfer\n\n            //Updates the _tokensByOwner mapping\n            _tokensByOwner[to].push(tokenId);\n            deleteTokenId(from, tokenId);\n        }\n    }\n\n    //Returns the base gearStats of the NFT \n    function baseStats(uint256 idGear) public view returns(gearStats memory) {\n        return values[idGear];\n    }\n\n    //Returns the gearStats of the NFT aplying the level modifier\n    function singleStats(uint256 idGear) public view returns(gearStats memory) {\n        gearStats memory baseGear;\n        baseGear=values[idGear];\n        if(baseGear.level!=0) {\n            uint256 multiplier=upgradeMatrix[baseGear.level];        \n            for(uint i=0; i< baseGear.stats.length; i++) { //Remkember that last 2 are reserved!!\n                baseGear.stats[i]+=(baseGear.stats[i]*multiplier)/100;\n            }\n        }\n        return baseGear;\n    }\n\n    //Returns the array of NFTs owned by an address\n    function getEquipment(address powner) public view returns (uint256[] memory) {\n        return _tokensByOwner[powner];\n    }\n\n    function _baseURI() internal view virtual override returns (string memory) {\n        return \"https://www.chainsofglory.com/metadata/\";\n    }\n\n    function setRoyalties(uint256 _tokenId, address payable _royaltiesReceipientAddress, uint96 _percentageBasisPoints) public {\n        require(hasRole(MINTER_ROLE, _msgSender()), \"Exception: must have minter role to mint\");\n        LibPart.Part[] memory _royalties = new LibPart.Part[](1);\n        _royalties[0].value = _percentageBasisPoints;\n        _royalties[0].account = _royaltiesReceipientAddress;\n        _saveRoyalties(_tokenId, _royalties);\n    }\n\n    function royaltyInfo(uint256 _tokenId, uint256 _salePrice ) external view returns ( address receiver, uint256 royaltyAmount) {\n        LibPart.Part[] memory _royalties = royalties[_tokenId];\n        if(_royalties.length > 0) {\n            return(_royalties[0].account, (_salePrice * _royalties[0].value)/10000);\n        }\n        return (address(0), 0);\n    }\n\n    function supportsInterface(bytes4 interfaceId) public view virtual override(ERC721, AccessControlEnumerable) returns (bool) {\n        if (interfaceId == LibRoyaltiesV2._INTERFACE_ID_ROYALTIES) {\n            return true;\n        }\n\n        if(interfaceId == _INTERFACE_ID_ERC2981) {\n            return true;\n        }\n\n        return super.supportsInterface(interfaceId);\n    }\n\n    //Public wrapper of _exists\n    function exists(uint256 tokenId) public view returns (bool) {\n        return _exists(tokenId);\n    }\n\n    //Pseudo random. I think is enough for the game\n    function randMod(uint _modulus) internal returns(uint) {\n        randomNonce++; \n        return uint(keccak256(abi.encodePacked(block.timestamp, msg.sender, randomNonce))) % _modulus;\n    }\n\n    //************************************************************\n    // ARRAY functions \n    //************************************************************\n    function positionOf(address powner, uint256 tokenId) public view returns (uint) {\n        for(uint i=0; i<_tokensByOwner[powner].length; i++) {\n            if(_tokensByOwner[powner][i]==tokenId)\n                return i;\n        }\n        return _tokensByOwner[powner].length+100;\n    }\n\n    function deleteTokenId(address powner, uint256 tokenId) internal {\n        //Updates the _tokensByOwner mapping\n        uint pos=positionOf(powner, tokenId);\n        if(pos<_tokensByOwner[powner].length) {\n            _tokensByOwner[powner][pos]= _tokensByOwner[powner][ _tokensByOwner[powner].length-1];\n            _tokensByOwner[powner].pop();\n        }\n    }\n\n}",
  "sourcePath": "/home/javi/ChainsOfGlory/contracts/Equipment.sol",
  "compiler": {
    "name": "solc",
    "version": "0.8.6+commit.11564f7e.Emscripten.clang"
  },
  "schemaVersion": "3.4.3",
  "updatedAt": "2021-12-02T12:07:08.152Z",
  "devdoc": {
    "kind": "dev",
    "methods": {
      "approve(address,uint256)": {
        "details": "See {IERC721-approve}."
      },
      "balanceOf(address)": {
        "details": "See {IERC721-balanceOf}."
      },
      "getApproved(uint256)": {
        "details": "See {IERC721-getApproved}."
      },
      "getRoleAdmin(bytes32)": {
        "details": "Returns the admin role that controls `role`. See {grantRole} and {revokeRole}. To change a role's admin, use {_setRoleAdmin}."
      },
      "getRoleMember(bytes32,uint256)": {
        "details": "Returns one of the accounts that have `role`. `index` must be a value between 0 and {getRoleMemberCount}, non-inclusive. Role bearers are not sorted in any particular way, and their ordering may change at any point. WARNING: When using {getRoleMember} and {getRoleMemberCount}, make sure you perform all queries on the same block. See the following https://forum.openzeppelin.com/t/iterating-over-elements-on-enumerableset-in-openzeppelin-contracts/2296[forum post] for more information."
      },
      "getRoleMemberCount(bytes32)": {
        "details": "Returns the number of accounts that have `role`. Can be used together with {getRoleMember} to enumerate all bearers of a role."
      },
      "grantRole(bytes32,address)": {
        "details": "Overload {grantRole} to track enumerable memberships"
      },
      "hasRole(bytes32,address)": {
        "details": "Returns `true` if `account` has been granted `role`."
      },
      "isApprovedForAll(address,address)": {
        "details": "See {IERC721-isApprovedForAll}."
      },
      "name()": {
        "details": "See {IERC721Metadata-name}."
      },
      "owner()": {
        "details": "Returns the address of the current owner."
      },
      "ownerOf(uint256)": {
        "details": "See {IERC721-ownerOf}."
      },
      "renounceOwnership()": {
        "details": "Leaves the contract without owner. It will not be possible to call `onlyOwner` functions anymore. Can only be called by the current owner. NOTE: Renouncing ownership will leave the contract without an owner, thereby removing any functionality that is only available to the owner."
      },
      "renounceRole(bytes32,address)": {
        "details": "Overload {renounceRole} to track enumerable memberships"
      },
      "revokeRole(bytes32,address)": {
        "details": "Overload {revokeRole} to track enumerable memberships"
      },
      "safeTransferFrom(address,address,uint256)": {
        "details": "See {IERC721-safeTransferFrom}."
      },
      "safeTransferFrom(address,address,uint256,bytes)": {
        "details": "See {IERC721-safeTransferFrom}."
      },
      "setApprovalForAll(address,bool)": {
        "details": "See {IERC721-setApprovalForAll}."
      },
      "symbol()": {
        "details": "See {IERC721Metadata-symbol}."
      },
      "tokenURI(uint256)": {
        "details": "See {IERC721Metadata-tokenURI}."
      },
      "transferFrom(address,address,uint256)": {
        "details": "See {IERC721-transferFrom}."
      },
      "transferOwnership(address)": {
        "details": "Transfers ownership of the contract to a new account (`newOwner`). Can only be called by the current owner."
      }
    },
    "version": 1
  },
  "userdoc": {
    "kind": "user",
    "methods": {},
    "version": 1
  }
}