{
  "contractName": "GameToken",
  "abi": [
    {
      "inputs": [
        {
          "internalType": "uint256",
          "name": "initialSupply",
          "type": "uint256"
        }
      ],
      "stateMutability": "nonpayable",
      "type": "constructor"
    },
    {
      "anonymous": false,
      "inputs": [
        {
          "indexed": true,
          "internalType": "address",
          "name": "owner",
          "type": "address"
        },
        {
          "indexed": true,
          "internalType": "address",
          "name": "spender",
          "type": "address"
        },
        {
          "indexed": false,
          "internalType": "uint256",
          "name": "value",
          "type": "uint256"
        }
      ],
      "name": "Approval",
      "type": "event"
    },
    {
      "anonymous": false,
      "inputs": [
        {
          "indexed": true,
          "internalType": "address",
          "name": "previousOwner",
          "type": "address"
        },
        {
          "indexed": true,
          "internalType": "address",
          "name": "newOwner",
          "type": "address"
        }
      ],
      "name": "OwnershipTransferred",
      "type": "event"
    },
    {
      "anonymous": false,
      "inputs": [
        {
          "indexed": true,
          "internalType": "bytes32",
          "name": "role",
          "type": "bytes32"
        },
        {
          "indexed": true,
          "internalType": "bytes32",
          "name": "previousAdminRole",
          "type": "bytes32"
        },
        {
          "indexed": true,
          "internalType": "bytes32",
          "name": "newAdminRole",
          "type": "bytes32"
        }
      ],
      "name": "RoleAdminChanged",
      "type": "event"
    },
    {
      "anonymous": false,
      "inputs": [
        {
          "indexed": true,
          "internalType": "bytes32",
          "name": "role",
          "type": "bytes32"
        },
        {
          "indexed": true,
          "internalType": "address",
          "name": "account",
          "type": "address"
        },
        {
          "indexed": true,
          "internalType": "address",
          "name": "sender",
          "type": "address"
        }
      ],
      "name": "RoleGranted",
      "type": "event"
    },
    {
      "anonymous": false,
      "inputs": [
        {
          "indexed": true,
          "internalType": "bytes32",
          "name": "role",
          "type": "bytes32"
        },
        {
          "indexed": true,
          "internalType": "address",
          "name": "account",
          "type": "address"
        },
        {
          "indexed": true,
          "internalType": "address",
          "name": "sender",
          "type": "address"
        }
      ],
      "name": "RoleRevoked",
      "type": "event"
    },
    {
      "anonymous": false,
      "inputs": [
        {
          "indexed": true,
          "internalType": "address",
          "name": "from",
          "type": "address"
        },
        {
          "indexed": true,
          "internalType": "address",
          "name": "to",
          "type": "address"
        },
        {
          "indexed": false,
          "internalType": "uint256",
          "name": "value",
          "type": "uint256"
        }
      ],
      "name": "Transfer",
      "type": "event"
    },
    {
      "inputs": [],
      "name": "BURNER_ROLE",
      "outputs": [
        {
          "internalType": "bytes32",
          "name": "",
          "type": "bytes32"
        }
      ],
      "stateMutability": "view",
      "type": "function"
    },
    {
      "inputs": [],
      "name": "DEFAULT_ADMIN_ROLE",
      "outputs": [
        {
          "internalType": "bytes32",
          "name": "",
          "type": "bytes32"
        }
      ],
      "stateMutability": "view",
      "type": "function"
    },
    {
      "inputs": [],
      "name": "MINTER_ROLE",
      "outputs": [
        {
          "internalType": "bytes32",
          "name": "",
          "type": "bytes32"
        }
      ],
      "stateMutability": "view",
      "type": "function"
    },
    {
      "inputs": [
        {
          "internalType": "address",
          "name": "owner",
          "type": "address"
        },
        {
          "internalType": "address",
          "name": "spender",
          "type": "address"
        }
      ],
      "name": "allowance",
      "outputs": [
        {
          "internalType": "uint256",
          "name": "",
          "type": "uint256"
        }
      ],
      "stateMutability": "view",
      "type": "function"
    },
    {
      "inputs": [
        {
          "internalType": "address",
          "name": "spender",
          "type": "address"
        },
        {
          "internalType": "uint256",
          "name": "amount",
          "type": "uint256"
        }
      ],
      "name": "approve",
      "outputs": [
        {
          "internalType": "bool",
          "name": "",
          "type": "bool"
        }
      ],
      "stateMutability": "nonpayable",
      "type": "function"
    },
    {
      "inputs": [
        {
          "internalType": "address",
          "name": "account",
          "type": "address"
        }
      ],
      "name": "balanceOf",
      "outputs": [
        {
          "internalType": "uint256",
          "name": "",
          "type": "uint256"
        }
      ],
      "stateMutability": "view",
      "type": "function"
    },
    {
      "inputs": [
        {
          "internalType": "address",
          "name": "spender",
          "type": "address"
        },
        {
          "internalType": "uint256",
          "name": "subtractedValue",
          "type": "uint256"
        }
      ],
      "name": "decreaseAllowance",
      "outputs": [
        {
          "internalType": "bool",
          "name": "",
          "type": "bool"
        }
      ],
      "stateMutability": "nonpayable",
      "type": "function"
    },
    {
      "inputs": [
        {
          "internalType": "bytes32",
          "name": "role",
          "type": "bytes32"
        }
      ],
      "name": "getRoleAdmin",
      "outputs": [
        {
          "internalType": "bytes32",
          "name": "",
          "type": "bytes32"
        }
      ],
      "stateMutability": "view",
      "type": "function"
    },
    {
      "inputs": [
        {
          "internalType": "bytes32",
          "name": "role",
          "type": "bytes32"
        },
        {
          "internalType": "uint256",
          "name": "index",
          "type": "uint256"
        }
      ],
      "name": "getRoleMember",
      "outputs": [
        {
          "internalType": "address",
          "name": "",
          "type": "address"
        }
      ],
      "stateMutability": "view",
      "type": "function"
    },
    {
      "inputs": [
        {
          "internalType": "bytes32",
          "name": "role",
          "type": "bytes32"
        }
      ],
      "name": "getRoleMemberCount",
      "outputs": [
        {
          "internalType": "uint256",
          "name": "",
          "type": "uint256"
        }
      ],
      "stateMutability": "view",
      "type": "function"
    },
    {
      "inputs": [
        {
          "internalType": "bytes32",
          "name": "role",
          "type": "bytes32"
        },
        {
          "internalType": "address",
          "name": "account",
          "type": "address"
        }
      ],
      "name": "grantRole",
      "outputs": [],
      "stateMutability": "nonpayable",
      "type": "function"
    },
    {
      "inputs": [
        {
          "internalType": "bytes32",
          "name": "role",
          "type": "bytes32"
        },
        {
          "internalType": "address",
          "name": "account",
          "type": "address"
        }
      ],
      "name": "hasRole",
      "outputs": [
        {
          "internalType": "bool",
          "name": "",
          "type": "bool"
        }
      ],
      "stateMutability": "view",
      "type": "function"
    },
    {
      "inputs": [
        {
          "internalType": "address",
          "name": "spender",
          "type": "address"
        },
        {
          "internalType": "uint256",
          "name": "addedValue",
          "type": "uint256"
        }
      ],
      "name": "increaseAllowance",
      "outputs": [
        {
          "internalType": "bool",
          "name": "",
          "type": "bool"
        }
      ],
      "stateMutability": "nonpayable",
      "type": "function"
    },
    {
      "inputs": [],
      "name": "name",
      "outputs": [
        {
          "internalType": "string",
          "name": "",
          "type": "string"
        }
      ],
      "stateMutability": "view",
      "type": "function"
    },
    {
      "inputs": [],
      "name": "owner",
      "outputs": [
        {
          "internalType": "address",
          "name": "",
          "type": "address"
        }
      ],
      "stateMutability": "view",
      "type": "function"
    },
    {
      "inputs": [],
      "name": "renounceOwnership",
      "outputs": [],
      "stateMutability": "nonpayable",
      "type": "function"
    },
    {
      "inputs": [
        {
          "internalType": "bytes32",
          "name": "role",
          "type": "bytes32"
        },
        {
          "internalType": "address",
          "name": "account",
          "type": "address"
        }
      ],
      "name": "renounceRole",
      "outputs": [],
      "stateMutability": "nonpayable",
      "type": "function"
    },
    {
      "inputs": [
        {
          "internalType": "bytes32",
          "name": "role",
          "type": "bytes32"
        },
        {
          "internalType": "address",
          "name": "account",
          "type": "address"
        }
      ],
      "name": "revokeRole",
      "outputs": [],
      "stateMutability": "nonpayable",
      "type": "function"
    },
    {
      "inputs": [
        {
          "internalType": "bytes4",
          "name": "interfaceId",
          "type": "bytes4"
        }
      ],
      "name": "supportsInterface",
      "outputs": [
        {
          "internalType": "bool",
          "name": "",
          "type": "bool"
        }
      ],
      "stateMutability": "view",
      "type": "function"
    },
    {
      "inputs": [],
      "name": "symbol",
      "outputs": [
        {
          "internalType": "string",
          "name": "",
          "type": "string"
        }
      ],
      "stateMutability": "view",
      "type": "function"
    },
    {
      "inputs": [],
      "name": "totalSupply",
      "outputs": [
        {
          "internalType": "uint256",
          "name": "",
          "type": "uint256"
        }
      ],
      "stateMutability": "view",
      "type": "function"
    },
    {
      "inputs": [
        {
          "internalType": "address",
          "name": "recipient",
          "type": "address"
        },
        {
          "internalType": "uint256",
          "name": "amount",
          "type": "uint256"
        }
      ],
      "name": "transfer",
      "outputs": [
        {
          "internalType": "bool",
          "name": "",
          "type": "bool"
        }
      ],
      "stateMutability": "nonpayable",
      "type": "function"
    },
    {
      "inputs": [
        {
          "internalType": "address",
          "name": "sender",
          "type": "address"
        },
        {
          "internalType": "address",
          "name": "recipient",
          "type": "address"
        },
        {
          "internalType": "uint256",
          "name": "amount",
          "type": "uint256"
        }
      ],
      "name": "transferFrom",
      "outputs": [
        {
          "internalType": "bool",
          "name": "",
          "type": "bool"
        }
      ],
      "stateMutability": "nonpayable",
      "type": "function"
    },
    {
      "inputs": [
        {
          "internalType": "address",
          "name": "newOwner",
          "type": "address"
        }
      ],
      "name": "transferOwnership",
      "outputs": [],
      "stateMutability": "nonpayable",
      "type": "function"
    },
    {
      "inputs": [],
      "name": "decimals",
      "outputs": [
        {
          "internalType": "uint8",
          "name": "",
          "type": "uint8"
        }
      ],
      "stateMutability": "pure",
      "type": "function"
    },
    {
      "inputs": [
        {
          "internalType": "address",
          "name": "to",
          "type": "address"
        },
        {
          "internalType": "uint256",
          "name": "amount",
          "type": "uint256"
        }
      ],
      "name": "mint",
      "outputs": [],
      "stateMutability": "nonpayable",
      "type": "function"
    },
    {
      "inputs": [
        {
          "internalType": "uint256",
          "name": "amount",
          "type": "uint256"
        }
      ],
      "name": "burn",
      "outputs": [],
      "stateMutability": "nonpayable",
      "type": "function"
    },
    {
      "inputs": [
        {
          "internalType": "address",
          "name": "from",
          "type": "address"
        },
        {
          "internalType": "uint256",
          "name": "amount",
          "type": "uint256"
        }
      ],
      "name": "burn",
      "outputs": [],
      "stateMutability": "nonpayable",
      "type": "function"
    }
  ],
  "bytecode": "0x60806040523480156200001157600080fd5b506040516200218a3803806200218a833981016040819052620000349162000596565b6040518060400160405280601581526020017f436861696e73206f6620476c6f747920546f6b656e00000000000000000000008152506040518060400160405280600381526020017f4347540000000000000000000000000000000000000000000000000000000000815250620000cc620000bd620001b0640100000000026401000000009004565b640100000000620001b4810204565b8151620000e1906006906020850190620004f0565b508051620000f7906007906020840190620004f0565b506200012491506000905062000115640100000000620001b0810204565b64010000000062000206810204565b6200015c7f9f2df0fed2c77648de5860a4cc508cd0818c85b8b8a1ab4ceeef8d981c8956a662000115640100000000620001b0810204565b620001947f3c11d16cbaffd01df69ce1c404f6340ee057498f5f00246190ea54220576a84862000115640100000000620001b0810204565b620001a933826401000000006200024d810204565b5062000646565b3390565b60028054600160a060020a03838116600160a060020a0319831681179093556040519116919082907f8be0079c531659141344cd1fd0a4f28419497f9722a3daafe3b4186f6b6457e090600090a35050565b62000220828264010000000062000a886200037d82021704565b600082815260016020526040902062000248908264010000000062000a926200039282021704565b505050565b600160a060020a038216620002c2576040517f08c379a000000000000000000000000000000000000000000000000000000000815260206004820152601f60248201527f45524332303a206d696e7420746f20746865207a65726f206164647265737300604482015260640160405180910390fd5b620002d96000838364010000000062000248810204565b8060056000828254620002ed9190620005b0565b9091555050600160a060020a038216600090815260036020526040812080548392906200031c908490620005b0565b9091555050604051818152600160a060020a038316906000907fddf252ad1be2c89b69c2b068fc378daa952ba7f163c4a11628f55a4df523b3ef9060200160405180910390a3620003796000838364010000000062000248810204565b5050565b620003798282640100000000620003bb810204565b6000620003b283600160a060020a03841664010000000062000457810204565b90505b92915050565b620003d08282640100000000620004af810204565b6200037957600082815260208181526040808320600160a060020a03851684529091529020805460ff1916600117905562000413640100000000620001b0810204565b600160a060020a031681600160a060020a0316837f2f8788117e7eff1d82e926ec794901d17c78024a50270940304540a733656f0d60405160405180910390a45050565b60006200046e8383640100000000620004d8810204565b620004a657508154600181810184556000848152602080822090930184905584548482528286019093526040902091909155620003b5565b506000620003b5565b600091825260208281526040808420600160a060020a0393909316845291905290205460ff1690565b60009081526001919091016020526040902054151590565b828054620004fe90620005f0565b90600052602060002090601f0160209004810192826200052257600085556200056d565b82601f106200053d57805160ff19168380011785556200056d565b828001600101855582156200056d579182015b828111156200056d57825182559160200191906001019062000550565b506200057b9291506200057f565b5090565b5b808211156200057b576000815560010162000580565b600060208284031215620005a957600080fd5b5051919050565b60008219821115620005eb577f4e487b7100000000000000000000000000000000000000000000000000000000600052601160045260246000fd5b500190565b6002810460018216806200060557607f821691505b6020821081141562000640577f4e487b7100000000000000000000000000000000000000000000000000000000600052602260045260246000fd5b50919050565b611b3480620006566000396000f3fe608060405234801561001057600080fd5b50600436106101e1576000357c010000000000000000000000000000000000000000000000000000000090048063715018a611610116578063a457c2d7116100b4578063d53913931161008e578063d5391393146103ed578063d547741f14610414578063dd62ed3e14610427578063f2fde38b1461046057600080fd5b8063a457c2d7146103b4578063a9059cbb146103c7578063ca15c873146103da57600080fd5b806391d14854116100f057806391d148541461037e57806395d89b41146103915780639dc29fac14610399578063a217fddf146103ac57600080fd5b8063715018a61461033e5780638da5cb5b146103465780639010d07c1461036b57600080fd5b80632f2ff15d11610183578063395093511161015d57806339509351146102dc57806340c10f19146102ef57806342966c681461030257806370a082311461031557600080fd5b80632f2ff15d146102a5578063313ce567146102ba57806336568abe146102c957600080fd5b806318160ddd116101bf57806318160ddd1461023657806323b872dd14610248578063248a9ca31461025b578063282c51f31461027e57600080fd5b806301ffc9a7146101e657806306fdde031461020e578063095ea7b314610223575b600080fd5b6101f96101f4366004611890565b610473565b60405190151581526020015b60405180910390f35b6102166104b7565b604051610205919061193b565b6101f9610231366004611808565b610549565b6005545b604051908152602001610205565b6101f96102563660046117cc565b61055f565b61023a610269366004611832565b60009081526020819052604090206001015490565b61023a7f3c11d16cbaffd01df69ce1c404f6340ee057498f5f00246190ea54220576a84881565b6102b86102b336600461184b565b610626565b005b60405160008152602001610205565b6102b86102d736600461184b565b61064d565b6101f96102ea366004611808565b61066f565b6102b86102fd366004611808565b6106ab565b6102b8610310366004611832565b610758565b61023a61032336600461177e565b600160a060020a031660009081526003602052604090205490565b6102b86107ae565b600254600160a060020a03165b604051600160a060020a039091168152602001610205565b61035361037936600461186e565b610817565b6101f961038c36600461184b565b610836565b61021661085f565b6102b86103a7366004611808565b61086e565b61023a600081565b6101f96103c2366004611808565b6108c1565b6101f96103d5366004611808565b610975565b61023a6103e8366004611832565b610982565b61023a7f9f2df0fed2c77648de5860a4cc508cd0818c85b8b8a1ab4ceeef8d981c8956a681565b6102b861042236600461184b565b610999565b61023a610435366004611799565b600160a060020a03918216600090815260046020908152604080832093909416825291909152205490565b6102b861046e36600461177e565b6109a3565b6000600160e060020a031982167f5a05180f0000000000000000000000000000000000000000000000000000000014806104b157506104b182610aa7565b92915050565b6060600680546104c690611a5c565b80601f01602080910402602001604051908101604052809291908181526020018280546104f290611a5c565b801561053f5780601f106105145761010080835404028352916020019161053f565b820191906000526020600020905b81548152906001019060200180831161052257829003601f168201915b5050505050905090565b6000610556338484610b0e565b50600192915050565b600061056c848484610c6c565b600160a060020a03841660009081526004602090815260408083203384529091529020548281101561060e5760405160e560020a62461bcd02815260206004820152602860248201527f45524332303a207472616e7366657220616d6f756e742065786365656473206160448201527f6c6c6f77616e636500000000000000000000000000000000000000000000000060648201526084015b60405180910390fd5b61061b8533858403610b0e565b506001949350505050565b6106308282610e8e565b60008281526001602052604090206106489082610a92565b505050565b6106578282610eb4565b60008281526001602052604090206106489082610f3f565b336000818152600460209081526040808320600160a060020a038716845290915281205490916105569185906106a69086906119cb565b610b0e565b6106d57f9f2df0fed2c77648de5860a4cc508cd0818c85b8b8a1ab4ceeef8d981c8956a633610836565b61074a5760405160e560020a62461bcd02815260206004820152602860248201527f457863657074696f6e3a206d7573742068617665206d696e74657220726f6c6560448201527f20746f206d696e740000000000000000000000000000000000000000000000006064820152608401610605565b6107548282610f54565b5050565b6107827f3c11d16cbaffd01df69ce1c404f6340ee057498f5f00246190ea54220576a84833610836565b6107a15760405160e560020a62461bcd0281526004016106059061196e565b6107ab3382611036565b50565b600254600160a060020a0316331461080b5760405160e560020a62461bcd02815260206004820181905260248201527f4f776e61626c653a2063616c6c6572206973206e6f7420746865206f776e65726044820152606401610605565b61081560006111c1565b565b600082815260016020526040812061082f9083611220565b9392505050565b600091825260208281526040808420600160a060020a0393909316845291905290205460ff1690565b6060600780546104c690611a5c565b6108987f3c11d16cbaffd01df69ce1c404f6340ee057498f5f00246190ea54220576a84833610836565b6108b75760405160e560020a62461bcd0281526004016106059061196e565b6107548282611036565b336000908152600460209081526040808320600160a060020a03861684529091528120548281101561095e5760405160e560020a62461bcd02815260206004820152602560248201527f45524332303a2064656372656173656420616c6c6f77616e63652062656c6f7760448201527f207a65726f0000000000000000000000000000000000000000000000000000006064820152608401610605565b61096b3385858403610b0e565b5060019392505050565b6000610556338484610c6c565b60008181526001602052604081206104b19061122c565b6106578282611236565b600254600160a060020a03163314610a005760405160e560020a62461bcd02815260206004820181905260248201527f4f776e61626c653a2063616c6c6572206973206e6f7420746865206f776e65726044820152606401610605565b600160a060020a038116610a7f5760405160e560020a62461bcd02815260206004820152602660248201527f4f776e61626c653a206e6577206f776e657220697320746865207a65726f206160448201527f64647265737300000000000000000000000000000000000000000000000000006064820152608401610605565b6107ab816111c1565b610754828261125c565b600061082f83600160a060020a0384166112e0565b6000600160e060020a031982167f7965db0b0000000000000000000000000000000000000000000000000000000014806104b157507f01ffc9a700000000000000000000000000000000000000000000000000000000600160e060020a03198316146104b1565b600160a060020a038316610b8c5760405160e560020a62461bcd028152602060048201526024808201527f45524332303a20617070726f76652066726f6d20746865207a65726f2061646460448201527f72657373000000000000000000000000000000000000000000000000000000006064820152608401610605565b600160a060020a038216610c0b5760405160e560020a62461bcd02815260206004820152602260248201527f45524332303a20617070726f766520746f20746865207a65726f20616464726560448201527f73730000000000000000000000000000000000000000000000000000000000006064820152608401610605565b600160a060020a0383811660008181526004602090815260408083209487168084529482529182902085905590518481527f8c5be1e5ebec7d5bd14f71427d1e84f3dd0314c0f7b2291e5b200ac8c7c3b925910160405180910390a3505050565b600160a060020a038316610ceb5760405160e560020a62461bcd02815260206004820152602560248201527f45524332303a207472616e736665722066726f6d20746865207a65726f20616460448201527f64726573730000000000000000000000000000000000000000000000000000006064820152608401610605565b600160a060020a038216610d6a5760405160e560020a62461bcd02815260206004820152602360248201527f45524332303a207472616e7366657220746f20746865207a65726f206164647260448201527f65737300000000000000000000000000000000000000000000000000000000006064820152608401610605565b600160a060020a03831660009081526003602052604090205481811015610dfc5760405160e560020a62461bcd02815260206004820152602660248201527f45524332303a207472616e7366657220616d6f756e742065786365656473206260448201527f616c616e636500000000000000000000000000000000000000000000000000006064820152608401610605565b600160a060020a03808516600090815260036020526040808220858503905591851681529081208054849290610e339084906119cb565b9250508190555082600160a060020a031684600160a060020a03167fddf252ad1be2c89b69c2b068fc378daa952ba7f163c4a11628f55a4df523b3ef84604051610e7f91815260200190565b60405180910390a35b50505050565b600082815260208190526040902060010154610eaa813361132f565b610648838361125c565b600160a060020a0381163314610f355760405160e560020a62461bcd02815260206004820152602f60248201527f416363657373436f6e74726f6c3a2063616e206f6e6c792072656e6f756e636560448201527f20726f6c657320666f722073656c6600000000000000000000000000000000006064820152608401610605565b6107548282611396565b600061082f83600160a060020a0384166113fb565b600160a060020a038216610fad5760405160e560020a62461bcd02815260206004820152601f60248201527f45524332303a206d696e7420746f20746865207a65726f2061646472657373006044820152606401610605565b8060056000828254610fbf91906119cb565b9091555050600160a060020a03821660009081526003602052604081208054839290610fec9084906119cb565b9091555050604051818152600160a060020a038316906000907fddf252ad1be2c89b69c2b068fc378daa952ba7f163c4a11628f55a4df523b3ef9060200160405180910390a35050565b600160a060020a0382166110b55760405160e560020a62461bcd02815260206004820152602160248201527f45524332303a206275726e2066726f6d20746865207a65726f2061646472657360448201527f73000000000000000000000000000000000000000000000000000000000000006064820152608401610605565b600160a060020a038216600090815260036020526040902054818110156111475760405160e560020a62461bcd02815260206004820152602260248201527f45524332303a206275726e20616d6f756e7420657863656564732062616c616e60448201527f63650000000000000000000000000000000000000000000000000000000000006064820152608401610605565b600160a060020a0383166000908152600360205260408120838303905560058054849290611176908490611a02565b9091555050604051828152600090600160a060020a038516907fddf252ad1be2c89b69c2b068fc378daa952ba7f163c4a11628f55a4df523b3ef9060200160405180910390a3505050565b60028054600160a060020a0383811673ffffffffffffffffffffffffffffffffffffffff19831681179093556040519116919082907f8be0079c531659141344cd1fd0a4f28419497f9722a3daafe3b4186f6b6457e090600090a35050565b600061082f83836114ee565b60006104b1825490565b600082815260208190526040902060010154611252813361132f565b6106488383611396565b6112668282610836565b61075457600082815260208181526040808320600160a060020a03851684529091529020805460ff1916600117905561129c3390565b600160a060020a031681600160a060020a0316837f2f8788117e7eff1d82e926ec794901d17c78024a50270940304540a733656f0d60405160405180910390a45050565b6000818152600183016020526040812054611327575081546001818101845560008481526020808220909301849055845484825282860190935260409020919091556104b1565b5060006104b1565b6113398282610836565b6107545761135181600160a060020a03166014611518565b61135c836020611518565b60405160200161136d9291906118ba565b60408051601f198184030181529082905260e560020a62461bcd0282526106059160040161193b565b6113a08282610836565b1561075457600082815260208181526040808320600160a060020a0385168085529252808320805460ff1916905551339285917ff6391f5c32d9c69d2a47ea670b442974b53935d1edc7fd64eb21e047a839171b9190a45050565b600081815260018301602052604081205480156114e457600061141f600183611a02565b855490915060009061143390600190611a02565b905081811461149857600086600001828154811061145357611453611acc565b906000526020600020015490508087600001848154811061147657611476611acc565b6000918252602080832090910192909255918252600188019052604090208390555b85548690806114a9576114a9611ab3565b6001900381819060005260206000200160009055905585600101600086815260200190815260200160002060009055600193505050506104b1565b60009150506104b1565b600082600001828154811061150557611505611acc565b9060005260206000200154905092915050565b606060006115278360026119e3565b6115329060026119cb565b67ffffffffffffffff81111561154a5761154a611ae5565b6040519080825280601f01601f191660200182016040528015611574576020820181803683370190505b5090507f3000000000000000000000000000000000000000000000000000000000000000816000815181106115ab576115ab611acc565b60200101907effffffffffffffffffffffffffffffffffffffffffffffffffffffffffffff1916908160001a9053507f78000000000000000000000000000000000000000000000000000000000000008160018151811061160e5761160e611acc565b60200101907effffffffffffffffffffffffffffffffffffffffffffffffffffffffffffff1916908160001a905350600061164a8460026119e3565b6116559060016119cb565b90505b6001811115611710577f303132333435363738396162636465660000000000000000000000000000000085600f166010811061169657611696611acc565b1a7f0100000000000000000000000000000000000000000000000000000000000000028282815181106116cb576116cb611acc565b60200101907effffffffffffffffffffffffffffffffffffffffffffffffffffffffffffff1916908160001a90535060109094049361170981611a45565b9050611658565b50831561082f5760405160e560020a62461bcd02815260206004820181905260248201527f537472696e67733a20686578206c656e67746820696e73756666696369656e746044820152606401610605565b8035600160a060020a038116811461177957600080fd5b919050565b60006020828403121561179057600080fd5b61082f82611762565b600080604083850312156117ac57600080fd5b6117b583611762565b91506117c360208401611762565b90509250929050565b6000806000606084860312156117e157600080fd5b6117ea84611762565b92506117f860208501611762565b9150604084013590509250925092565b6000806040838503121561181b57600080fd5b61182483611762565b946020939093013593505050565b60006020828403121561184457600080fd5b5035919050565b6000806040838503121561185e57600080fd5b823591506117c360208401611762565b6000806040838503121561188157600080fd5b50508035926020909101359150565b6000602082840312156118a257600080fd5b8135600160e060020a03198116811461082f57600080fd5b7f416363657373436f6e74726f6c3a206163636f756e74200000000000000000008152600083516118f2816017850160208801611a19565b7f206973206d697373696e6720726f6c6520000000000000000000000000000000601791840191820152835161192f816028840160208801611a19565b01602801949350505050565b602081526000825180602084015261195a816040850160208701611a19565b601f01601f19169190910160400192915050565b60208082526028908201527f457863657074696f6e3a206d7573742068617665206275726e657220726f6c6560408201527f20746f206275726e000000000000000000000000000000000000000000000000606082015260800190565b600082198211156119de576119de611a9a565b500190565b60008160001904831182151516156119fd576119fd611a9a565b500290565b600082821015611a1457611a14611a9a565b500390565b60005b83811015611a34578181015183820152602001611a1c565b83811115610e885750506000910152565b600081611a5457611a54611a9a565b506000190190565b600281046001821680611a7057607f821691505b60208210811415611a945760e060020a634e487b7102600052602260045260246000fd5b50919050565b60e060020a634e487b7102600052601160045260246000fd5b60e060020a634e487b7102600052603160045260246000fd5b60e060020a634e487b7102600052603260045260246000fd5b60e060020a634e487b7102600052604160045260246000fdfea2646970667358221220ab37150aa560e1ae4ed40f0bf2dff0e0c1597d2ff2ae6e6a5db99d3c9ab7103464736f6c63430008060033",
  "immutableReferences": {},
  "source": "//SPDX-License-Identifier: MIT\r\n\r\npragma solidity ^0.8.0;\r\n\r\nimport \"@openzeppelin/contracts/token/ERC20/ERC20.sol\";\r\nimport \"@openzeppelin/contracts/access/Ownable.sol\";\r\nimport \"@openzeppelin/contracts/access/AccessControlEnumerable.sol\";\r\nimport \"@openzeppelin/contracts/utils/Context.sol\";\r\n\r\ncontract GameToken is Context, AccessControlEnumerable, Ownable, ERC20 {\r\n\r\n    bytes32 public constant MINTER_ROLE = keccak256(\"MINTER_ROLE\");\r\n    bytes32 public constant BURNER_ROLE = keccak256(\"BURNER_ROLE\");\r\n    //address public contractOwner;\r\n\r\n    constructor(uint256 initialSupply) ERC20( \"Chains of Gloty Token\", \"CGT\") {\r\n        _setupRole(DEFAULT_ADMIN_ROLE, _msgSender());\r\n\r\n        _setupRole(MINTER_ROLE, _msgSender());\r\n        _setupRole(BURNER_ROLE, _msgSender());\r\n\r\n        _mint(msg.sender, initialSupply);\r\n    }\r\n\r\n    function decimals() public pure override returns (uint8) {\r\n\t\treturn 0;\r\n\t}\r\n\r\n    function mint(address to, uint256 amount) public virtual {\r\n        require(hasRole(MINTER_ROLE, _msgSender()), \"Exception: must have minter role to mint\");\r\n        _mint(to, amount);\r\n    }\r\n\r\n    function burn(uint256 amount) public virtual {\r\n        require(hasRole(BURNER_ROLE, _msgSender()), \"Exception: must have burner role to burn\");\r\n        _burn(_msgSender(), amount);\r\n    }\r\n\r\n    function burn(address from, uint256 amount) public virtual {\r\n        require(hasRole(BURNER_ROLE, _msgSender()), \"Exception: must have burner role to burn\");\r\n        _burn(from, amount);\r\n    }\r\n}",
  "sourcePath": "/home/javi/ChainsOfGlory/contracts/Examples/TokenERC20.sol",
  "compiler": {
    "name": "solc",
    "version": "0.8.6+commit.11564f7e.Emscripten.clang"
  },
  "schemaVersion": "3.4.3",
  "updatedAt": "2021-11-20T17:47:26.794Z",
  "devdoc": {
    "kind": "dev",
    "methods": {
      "allowance(address,address)": {
        "details": "See {IERC20-allowance}."
      },
      "approve(address,uint256)": {
        "details": "See {IERC20-approve}. Requirements: - `spender` cannot be the zero address."
      },
      "balanceOf(address)": {
        "details": "See {IERC20-balanceOf}."
      },
      "decimals()": {
        "details": "Returns the number of decimals used to get its user representation. For example, if `decimals` equals `2`, a balance of `505` tokens should be displayed to a user as `5.05` (`505 / 10 ** 2`). Tokens usually opt for a value of 18, imitating the relationship between Ether and Wei. This is the value {ERC20} uses, unless this function is overridden; NOTE: This information is only used for _display_ purposes: it in no way affects any of the arithmetic of the contract, including {IERC20-balanceOf} and {IERC20-transfer}."
      },
      "decreaseAllowance(address,uint256)": {
        "details": "Atomically decreases the allowance granted to `spender` by the caller. This is an alternative to {approve} that can be used as a mitigation for problems described in {IERC20-approve}. Emits an {Approval} event indicating the updated allowance. Requirements: - `spender` cannot be the zero address. - `spender` must have allowance for the caller of at least `subtractedValue`."
      },
      "getRoleAdmin(bytes32)": {
        "details": "Returns the admin role that controls `role`. See {grantRole} and {revokeRole}. To change a role's admin, use {_setRoleAdmin}."
      },
      "getRoleMember(bytes32,uint256)": {
        "details": "Returns one of the accounts that have `role`. `index` must be a value between 0 and {getRoleMemberCount}, non-inclusive. Role bearers are not sorted in any particular way, and their ordering may change at any point. WARNING: When using {getRoleMember} and {getRoleMemberCount}, make sure you perform all queries on the same block. See the following https://forum.openzeppelin.com/t/iterating-over-elements-on-enumerableset-in-openzeppelin-contracts/2296[forum post] for more information."
      },
      "getRoleMemberCount(bytes32)": {
        "details": "Returns the number of accounts that have `role`. Can be used together with {getRoleMember} to enumerate all bearers of a role."
      },
      "grantRole(bytes32,address)": {
        "details": "Overload {grantRole} to track enumerable memberships"
      },
      "hasRole(bytes32,address)": {
        "details": "Returns `true` if `account` has been granted `role`."
      },
      "increaseAllowance(address,uint256)": {
        "details": "Atomically increases the allowance granted to `spender` by the caller. This is an alternative to {approve} that can be used as a mitigation for problems described in {IERC20-approve}. Emits an {Approval} event indicating the updated allowance. Requirements: - `spender` cannot be the zero address."
      },
      "name()": {
        "details": "Returns the name of the token."
      },
      "owner()": {
        "details": "Returns the address of the current owner."
      },
      "renounceOwnership()": {
        "details": "Leaves the contract without owner. It will not be possible to call `onlyOwner` functions anymore. Can only be called by the current owner. NOTE: Renouncing ownership will leave the contract without an owner, thereby removing any functionality that is only available to the owner."
      },
      "renounceRole(bytes32,address)": {
        "details": "Overload {renounceRole} to track enumerable memberships"
      },
      "revokeRole(bytes32,address)": {
        "details": "Overload {revokeRole} to track enumerable memberships"
      },
      "supportsInterface(bytes4)": {
        "details": "See {IERC165-supportsInterface}."
      },
      "symbol()": {
        "details": "Returns the symbol of the token, usually a shorter version of the name."
      },
      "totalSupply()": {
        "details": "See {IERC20-totalSupply}."
      },
      "transfer(address,uint256)": {
        "details": "See {IERC20-transfer}. Requirements: - `recipient` cannot be the zero address. - the caller must have a balance of at least `amount`."
      },
      "transferFrom(address,address,uint256)": {
        "details": "See {IERC20-transferFrom}. Emits an {Approval} event indicating the updated allowance. This is not required by the EIP. See the note at the beginning of {ERC20}. Requirements: - `sender` and `recipient` cannot be the zero address. - `sender` must have a balance of at least `amount`. - the caller must have allowance for ``sender``'s tokens of at least `amount`."
      },
      "transferOwnership(address)": {
        "details": "Transfers ownership of the contract to a new account (`newOwner`). Can only be called by the current owner."
      }
    },
    "version": 1
  },
  "userdoc": {
    "kind": "user",
    "methods": {},
    "version": 1
  }
}