{
  "contractName": "GameCoin",
  "abi": [
    {
      "inputs": [
        {
          "internalType": "uint256",
          "name": "initialSupply",
          "type": "uint256"
        }
      ],
      "stateMutability": "nonpayable",
      "type": "constructor"
    },
    {
      "anonymous": false,
      "inputs": [
        {
          "indexed": true,
          "internalType": "address",
          "name": "owner",
          "type": "address"
        },
        {
          "indexed": true,
          "internalType": "address",
          "name": "spender",
          "type": "address"
        },
        {
          "indexed": false,
          "internalType": "uint256",
          "name": "value",
          "type": "uint256"
        }
      ],
      "name": "Approval",
      "type": "event"
    },
    {
      "anonymous": false,
      "inputs": [
        {
          "indexed": true,
          "internalType": "address",
          "name": "previousOwner",
          "type": "address"
        },
        {
          "indexed": true,
          "internalType": "address",
          "name": "newOwner",
          "type": "address"
        }
      ],
      "name": "OwnershipTransferred",
      "type": "event"
    },
    {
      "anonymous": false,
      "inputs": [
        {
          "indexed": true,
          "internalType": "bytes32",
          "name": "role",
          "type": "bytes32"
        },
        {
          "indexed": true,
          "internalType": "bytes32",
          "name": "previousAdminRole",
          "type": "bytes32"
        },
        {
          "indexed": true,
          "internalType": "bytes32",
          "name": "newAdminRole",
          "type": "bytes32"
        }
      ],
      "name": "RoleAdminChanged",
      "type": "event"
    },
    {
      "anonymous": false,
      "inputs": [
        {
          "indexed": true,
          "internalType": "bytes32",
          "name": "role",
          "type": "bytes32"
        },
        {
          "indexed": true,
          "internalType": "address",
          "name": "account",
          "type": "address"
        },
        {
          "indexed": true,
          "internalType": "address",
          "name": "sender",
          "type": "address"
        }
      ],
      "name": "RoleGranted",
      "type": "event"
    },
    {
      "anonymous": false,
      "inputs": [
        {
          "indexed": true,
          "internalType": "bytes32",
          "name": "role",
          "type": "bytes32"
        },
        {
          "indexed": true,
          "internalType": "address",
          "name": "account",
          "type": "address"
        },
        {
          "indexed": true,
          "internalType": "address",
          "name": "sender",
          "type": "address"
        }
      ],
      "name": "RoleRevoked",
      "type": "event"
    },
    {
      "anonymous": false,
      "inputs": [
        {
          "indexed": true,
          "internalType": "address",
          "name": "from",
          "type": "address"
        },
        {
          "indexed": true,
          "internalType": "address",
          "name": "to",
          "type": "address"
        },
        {
          "indexed": false,
          "internalType": "uint256",
          "name": "value",
          "type": "uint256"
        }
      ],
      "name": "Transfer",
      "type": "event"
    },
    {
      "inputs": [],
      "name": "BURNER_ROLE",
      "outputs": [
        {
          "internalType": "bytes32",
          "name": "",
          "type": "bytes32"
        }
      ],
      "stateMutability": "view",
      "type": "function"
    },
    {
      "inputs": [],
      "name": "DEFAULT_ADMIN_ROLE",
      "outputs": [
        {
          "internalType": "bytes32",
          "name": "",
          "type": "bytes32"
        }
      ],
      "stateMutability": "view",
      "type": "function"
    },
    {
      "inputs": [],
      "name": "MINTER_ROLE",
      "outputs": [
        {
          "internalType": "bytes32",
          "name": "",
          "type": "bytes32"
        }
      ],
      "stateMutability": "view",
      "type": "function"
    },
    {
      "inputs": [
        {
          "internalType": "address",
          "name": "owner",
          "type": "address"
        },
        {
          "internalType": "address",
          "name": "spender",
          "type": "address"
        }
      ],
      "name": "allowance",
      "outputs": [
        {
          "internalType": "uint256",
          "name": "",
          "type": "uint256"
        }
      ],
      "stateMutability": "view",
      "type": "function"
    },
    {
      "inputs": [
        {
          "internalType": "address",
          "name": "spender",
          "type": "address"
        },
        {
          "internalType": "uint256",
          "name": "amount",
          "type": "uint256"
        }
      ],
      "name": "approve",
      "outputs": [
        {
          "internalType": "bool",
          "name": "",
          "type": "bool"
        }
      ],
      "stateMutability": "nonpayable",
      "type": "function"
    },
    {
      "inputs": [
        {
          "internalType": "address",
          "name": "account",
          "type": "address"
        }
      ],
      "name": "balanceOf",
      "outputs": [
        {
          "internalType": "uint256",
          "name": "",
          "type": "uint256"
        }
      ],
      "stateMutability": "view",
      "type": "function"
    },
    {
      "inputs": [
        {
          "internalType": "address",
          "name": "spender",
          "type": "address"
        },
        {
          "internalType": "uint256",
          "name": "subtractedValue",
          "type": "uint256"
        }
      ],
      "name": "decreaseAllowance",
      "outputs": [
        {
          "internalType": "bool",
          "name": "",
          "type": "bool"
        }
      ],
      "stateMutability": "nonpayable",
      "type": "function"
    },
    {
      "inputs": [
        {
          "internalType": "bytes32",
          "name": "role",
          "type": "bytes32"
        }
      ],
      "name": "getRoleAdmin",
      "outputs": [
        {
          "internalType": "bytes32",
          "name": "",
          "type": "bytes32"
        }
      ],
      "stateMutability": "view",
      "type": "function"
    },
    {
      "inputs": [
        {
          "internalType": "bytes32",
          "name": "role",
          "type": "bytes32"
        },
        {
          "internalType": "uint256",
          "name": "index",
          "type": "uint256"
        }
      ],
      "name": "getRoleMember",
      "outputs": [
        {
          "internalType": "address",
          "name": "",
          "type": "address"
        }
      ],
      "stateMutability": "view",
      "type": "function"
    },
    {
      "inputs": [
        {
          "internalType": "bytes32",
          "name": "role",
          "type": "bytes32"
        }
      ],
      "name": "getRoleMemberCount",
      "outputs": [
        {
          "internalType": "uint256",
          "name": "",
          "type": "uint256"
        }
      ],
      "stateMutability": "view",
      "type": "function"
    },
    {
      "inputs": [
        {
          "internalType": "bytes32",
          "name": "role",
          "type": "bytes32"
        },
        {
          "internalType": "address",
          "name": "account",
          "type": "address"
        }
      ],
      "name": "grantRole",
      "outputs": [],
      "stateMutability": "nonpayable",
      "type": "function"
    },
    {
      "inputs": [
        {
          "internalType": "bytes32",
          "name": "role",
          "type": "bytes32"
        },
        {
          "internalType": "address",
          "name": "account",
          "type": "address"
        }
      ],
      "name": "hasRole",
      "outputs": [
        {
          "internalType": "bool",
          "name": "",
          "type": "bool"
        }
      ],
      "stateMutability": "view",
      "type": "function"
    },
    {
      "inputs": [
        {
          "internalType": "address",
          "name": "spender",
          "type": "address"
        },
        {
          "internalType": "uint256",
          "name": "addedValue",
          "type": "uint256"
        }
      ],
      "name": "increaseAllowance",
      "outputs": [
        {
          "internalType": "bool",
          "name": "",
          "type": "bool"
        }
      ],
      "stateMutability": "nonpayable",
      "type": "function"
    },
    {
      "inputs": [],
      "name": "name",
      "outputs": [
        {
          "internalType": "string",
          "name": "",
          "type": "string"
        }
      ],
      "stateMutability": "view",
      "type": "function"
    },
    {
      "inputs": [],
      "name": "owner",
      "outputs": [
        {
          "internalType": "address",
          "name": "",
          "type": "address"
        }
      ],
      "stateMutability": "view",
      "type": "function"
    },
    {
      "inputs": [],
      "name": "renounceOwnership",
      "outputs": [],
      "stateMutability": "nonpayable",
      "type": "function"
    },
    {
      "inputs": [
        {
          "internalType": "bytes32",
          "name": "role",
          "type": "bytes32"
        },
        {
          "internalType": "address",
          "name": "account",
          "type": "address"
        }
      ],
      "name": "renounceRole",
      "outputs": [],
      "stateMutability": "nonpayable",
      "type": "function"
    },
    {
      "inputs": [
        {
          "internalType": "bytes32",
          "name": "role",
          "type": "bytes32"
        },
        {
          "internalType": "address",
          "name": "account",
          "type": "address"
        }
      ],
      "name": "revokeRole",
      "outputs": [],
      "stateMutability": "nonpayable",
      "type": "function"
    },
    {
      "inputs": [
        {
          "internalType": "uint256",
          "name": "",
          "type": "uint256"
        }
      ],
      "name": "storeGear",
      "outputs": [
        {
          "internalType": "uint256",
          "name": "class",
          "type": "uint256"
        },
        {
          "internalType": "uint256",
          "name": "slot",
          "type": "uint256"
        },
        {
          "internalType": "uint256",
          "name": "level",
          "type": "uint256"
        },
        {
          "internalType": "uint256",
          "name": "timeLock",
          "type": "uint256"
        }
      ],
      "stateMutability": "view",
      "type": "function"
    },
    {
      "inputs": [
        {
          "internalType": "bytes4",
          "name": "interfaceId",
          "type": "bytes4"
        }
      ],
      "name": "supportsInterface",
      "outputs": [
        {
          "internalType": "bool",
          "name": "",
          "type": "bool"
        }
      ],
      "stateMutability": "view",
      "type": "function"
    },
    {
      "inputs": [],
      "name": "symbol",
      "outputs": [
        {
          "internalType": "string",
          "name": "",
          "type": "string"
        }
      ],
      "stateMutability": "view",
      "type": "function"
    },
    {
      "inputs": [],
      "name": "totalSupply",
      "outputs": [
        {
          "internalType": "uint256",
          "name": "",
          "type": "uint256"
        }
      ],
      "stateMutability": "view",
      "type": "function"
    },
    {
      "inputs": [
        {
          "internalType": "address",
          "name": "recipient",
          "type": "address"
        },
        {
          "internalType": "uint256",
          "name": "amount",
          "type": "uint256"
        }
      ],
      "name": "transfer",
      "outputs": [
        {
          "internalType": "bool",
          "name": "",
          "type": "bool"
        }
      ],
      "stateMutability": "nonpayable",
      "type": "function"
    },
    {
      "inputs": [
        {
          "internalType": "address",
          "name": "sender",
          "type": "address"
        },
        {
          "internalType": "address",
          "name": "recipient",
          "type": "address"
        },
        {
          "internalType": "uint256",
          "name": "amount",
          "type": "uint256"
        }
      ],
      "name": "transferFrom",
      "outputs": [
        {
          "internalType": "bool",
          "name": "",
          "type": "bool"
        }
      ],
      "stateMutability": "nonpayable",
      "type": "function"
    },
    {
      "inputs": [
        {
          "internalType": "address",
          "name": "newOwner",
          "type": "address"
        }
      ],
      "name": "transferOwnership",
      "outputs": [],
      "stateMutability": "nonpayable",
      "type": "function"
    },
    {
      "inputs": [],
      "name": "decimals",
      "outputs": [
        {
          "internalType": "uint8",
          "name": "",
          "type": "uint8"
        }
      ],
      "stateMutability": "pure",
      "type": "function"
    },
    {
      "inputs": [
        {
          "internalType": "address",
          "name": "to",
          "type": "address"
        },
        {
          "internalType": "uint256",
          "name": "amount",
          "type": "uint256"
        }
      ],
      "name": "mint",
      "outputs": [],
      "stateMutability": "nonpayable",
      "type": "function"
    },
    {
      "inputs": [
        {
          "internalType": "uint256",
          "name": "amount",
          "type": "uint256"
        }
      ],
      "name": "burn",
      "outputs": [],
      "stateMutability": "nonpayable",
      "type": "function"
    },
    {
      "inputs": [
        {
          "internalType": "address",
          "name": "from",
          "type": "address"
        },
        {
          "internalType": "uint256",
          "name": "amount",
          "type": "uint256"
        }
      ],
      "name": "burn",
      "outputs": [],
      "stateMutability": "nonpayable",
      "type": "function"
    },
    {
      "inputs": [
        {
          "internalType": "address",
          "name": "equipmentAddress",
          "type": "address"
        }
      ],
      "name": "setEquipmentAddress",
      "outputs": [],
      "stateMutability": "nonpayable",
      "type": "function"
    },
    {
      "inputs": [
        {
          "components": [
            {
              "internalType": "uint256",
              "name": "class",
              "type": "uint256"
            },
            {
              "internalType": "uint256",
              "name": "slot",
              "type": "uint256"
            },
            {
              "internalType": "uint256",
              "name": "level",
              "type": "uint256"
            },
            {
              "internalType": "uint256[10]",
              "name": "stats",
              "type": "uint256[10]"
            },
            {
              "internalType": "uint256",
              "name": "timeLock",
              "type": "uint256"
            }
          ],
          "internalType": "struct Equipment.gearStats",
          "name": "gear",
          "type": "tuple"
        }
      ],
      "name": "addGearToStore",
      "outputs": [],
      "stateMutability": "nonpayable",
      "type": "function"
    },
    {
      "inputs": [
        {
          "internalType": "uint256",
          "name": "index",
          "type": "uint256"
        }
      ],
      "name": "removeGearFromStore",
      "outputs": [],
      "stateMutability": "nonpayable",
      "type": "function"
    },
    {
      "inputs": [],
      "name": "getEquipmentLength",
      "outputs": [
        {
          "internalType": "uint256",
          "name": "",
          "type": "uint256"
        }
      ],
      "stateMutability": "view",
      "type": "function"
    },
    {
      "inputs": [
        {
          "internalType": "uint256",
          "name": "index",
          "type": "uint256"
        }
      ],
      "name": "getEquipmentData",
      "outputs": [
        {
          "components": [
            {
              "internalType": "uint256",
              "name": "class",
              "type": "uint256"
            },
            {
              "internalType": "uint256",
              "name": "slot",
              "type": "uint256"
            },
            {
              "internalType": "uint256",
              "name": "level",
              "type": "uint256"
            },
            {
              "internalType": "uint256[10]",
              "name": "stats",
              "type": "uint256[10]"
            },
            {
              "internalType": "uint256",
              "name": "timeLock",
              "type": "uint256"
            }
          ],
          "internalType": "struct Equipment.gearStats",
          "name": "",
          "type": "tuple"
        }
      ],
      "stateMutability": "view",
      "type": "function"
    },
    {
      "inputs": [
        {
          "internalType": "uint256",
          "name": "index",
          "type": "uint256"
        }
      ],
      "name": "getEquipmentPrice",
      "outputs": [
        {
          "internalType": "uint256",
          "name": "",
          "type": "uint256"
        }
      ],
      "stateMutability": "view",
      "type": "function"
    },
    {
      "inputs": [
        {
          "internalType": "uint256",
          "name": "index",
          "type": "uint256"
        }
      ],
      "name": "purchase",
      "outputs": [],
      "stateMutability": "nonpayable",
      "type": "function"
    }
  ],
  "bytecode": "0x60806040523480156200001157600080fd5b5060405162002e7a38038062002e7a833981016040819052620000349162000596565b6040518060400160405280601581526020017f436861696e73206f6620476c6f727920546f6b656e00000000000000000000008152506040518060400160405280600381526020017f4347540000000000000000000000000000000000000000000000000000000000815250620000cc620000bd620001b0640100000000026401000000009004565b640100000000620001b4810204565b8151620000e1906006906020850190620004f0565b508051620000f7906007906020840190620004f0565b506200012491506000905062000115640100000000620001b0810204565b64010000000062000206810204565b6200015c7f9f2df0fed2c77648de5860a4cc508cd0818c85b8b8a1ab4ceeef8d981c8956a662000115640100000000620001b0810204565b620001947f3c11d16cbaffd01df69ce1c404f6340ee057498f5f00246190ea54220576a84862000115640100000000620001b0810204565b620001a933826401000000006200024d810204565b5062000646565b3390565b60028054600160a060020a03838116600160a060020a0319831681179093556040519116919082907f8be0079c531659141344cd1fd0a4f28419497f9722a3daafe3b4186f6b6457e090600090a35050565b620002208282640100000000620010fb6200037d82021704565b6000828152600160205260409020620002489082640100000000620011056200039282021704565b505050565b600160a060020a038216620002c2576040517f08c379a000000000000000000000000000000000000000000000000000000000815260206004820152601f60248201527f45524332303a206d696e7420746f20746865207a65726f206164647265737300604482015260640160405180910390fd5b620002d96000838364010000000062000248810204565b8060056000828254620002ed9190620005b0565b9091555050600160a060020a038216600090815260036020526040812080548392906200031c908490620005b0565b9091555050604051818152600160a060020a038316906000907fddf252ad1be2c89b69c2b068fc378daa952ba7f163c4a11628f55a4df523b3ef9060200160405180910390a3620003796000838364010000000062000248810204565b5050565b620003798282640100000000620003bb810204565b6000620003b283600160a060020a03841664010000000062000457810204565b90505b92915050565b620003d08282640100000000620004af810204565b6200037957600082815260208181526040808320600160a060020a03851684529091529020805460ff1916600117905562000413640100000000620001b0810204565b600160a060020a031681600160a060020a0316837f2f8788117e7eff1d82e926ec794901d17c78024a50270940304540a733656f0d60405160405180910390a45050565b60006200046e8383640100000000620004d8810204565b620004a657508154600181810184556000848152602080822090930184905584548482528286019093526040902091909155620003b5565b506000620003b5565b600091825260208281526040808420600160a060020a0393909316845291905290205460ff1690565b60009081526001919091016020526040902054151590565b828054620004fe90620005f0565b90600052602060002090601f0160209004810192826200052257600085556200056d565b82601f106200053d57805160ff19168380011785556200056d565b828001600101855582156200056d579182015b828111156200056d57825182559160200191906001019062000550565b506200057b9291506200057f565b5090565b5b808211156200057b576000815560010162000580565b600060208284031215620005a957600080fd5b5051919050565b60008219821115620005eb577f4e487b7100000000000000000000000000000000000000000000000000000000600052601160045260246000fd5b500190565b6002810460018216806200060557607f821691505b6020821081141562000640577f4e487b7100000000000000000000000000000000000000000000000000000000600052602260045260246000fd5b50919050565b61282480620006566000396000f3fe608060405234801561001057600080fd5b5060043610610239576000357c0100000000000000000000000000000000000000000000000000000000900480639010d07c11610142578063a9059cbb116100ca578063d547741f11610099578063d547741f146104e0578063dc87a698146104f3578063dd62ed3e14610526578063efef39a11461055f578063f2fde38b1461057257600080fd5b8063a9059cbb14610480578063c40e995814610493578063ca15c873146104a6578063d5391393146104b957600080fd5b80639dc29fac116101115780639dc29fac1461042c578063a217fddf1461043f578063a2846ad414610447578063a457c2d71461045a578063a84add181461046d57600080fd5b80639010d07c146103f657806391d148541461040957806395d89b411461041c5780639a7f62911461042457600080fd5b80632f2ff15d116101c557806340c10f191161019457806340c10f191461037a57806342966c681461038d57806370a08231146103a0578063715018a6146103c95780638da5cb5b146103d157600080fd5b80632f2ff15d14610332578063313ce5671461034557806336568abe14610354578063395093511461036757600080fd5b806323b872dd1161020c57806323b872dd146102a0578063248a9ca3146102b35780632777a046146102d6578063282c51f3146102f65780632d58bd491461031d57600080fd5b806301ffc9a71461023e57806306fdde0314610266578063095ea7b31461027b57806318160ddd1461028e575b600080fd5b61025161024c366004612379565b610585565b60405190151581526020015b60405180910390f35b61026e6105c9565b60405161025d919061252f565b6102516102893660046122f1565b61065b565b6005545b60405190815260200161025d565b6102516102ae3660046122b5565b610671565b6102926102c136600461231b565b60009081526020819052604090206001015490565b6102e96102e436600461231b565b610738565b60405161025d91906125f4565b6102927f3c11d16cbaffd01df69ce1c404f6340ee057498f5f00246190ea54220576a84881565b61033061032b3660046123a3565b6107e0565b005b610330610340366004612334565b61093d565b6040516000815260200161025d565b610330610362366004612334565b610964565b6102516103753660046122f1565b610986565b6103306103883660046122f1565b6109c2565b61033061039b36600461231b565b610a6f565b6102926103ae366004612267565b600160a060020a031660009081526003602052604090205490565b610330610ac5565b600254600160a060020a03165b604051600160a060020a03909116815260200161025d565b6103de610404366004612357565b610afe565b610251610417366004612334565b610b1d565b61026e610b46565b600954610292565b61033061043a3660046122f1565b610b55565b610292600081565b610330610455366004612267565b610ba8565b6102516104683660046122f1565b610c04565b61033061047b36600461231b565b610cb8565b61025161048e3660046122f1565b610e13565b6102926104a136600461231b565b610e20565b6102926104b436600461231b565b610e60565b6102927f9f2df0fed2c77648de5860a4cc508cd0818c85b8b8a1ab4ceeef8d981c8956a681565b6103306104ee366004612334565b610e77565b61050661050136600461231b565b610e81565b60408051948552602085019390935291830152606082015260800161025d565b610292610534366004612282565b600160a060020a03918216600090815260046020908152604080832093909416825291909152205490565b61033061056d36600461231b565b610ebb565b610330610580366004612267565b611046565b6000600160e060020a031982167f5a05180f0000000000000000000000000000000000000000000000000000000014806105c357506105c38261111a565b92915050565b6060600680546105d890612731565b80601f016020809104026020016040519081016040528092919081815260200182805461060490612731565b80156106515780601f1061062657610100808354040283529160200191610651565b820191906000526020600020905b81548152906001019060200180831161063457829003601f168201915b5050505050905090565b6000610668338484611181565b50600192915050565b600061067e8484846112df565b600160a060020a0384166000908152600460209081526040808320338452909152902054828110156107205760405160e560020a62461bcd02815260206004820152602860248201527f45524332303a207472616e7366657220616d6f756e742065786365656473206160448201527f6c6c6f77616e636500000000000000000000000000000000000000000000000060648201526084015b60405180910390fd5b61072d8533858403611181565b506001949350505050565b61074061216a565b60098281548110610753576107536127bc565b90600052602060002090600e02016040518060a001604052908160008201548152602001600182015481526020016002820154815260200160038201600a806020026040519081016040528092919082600a80156107c6576020028201915b8154815260200190600101908083116107b2575b50505050508152602001600d820154815250509050919050565b600254600160a060020a0316331461080d5760405160e560020a62461bcd02815260040161071790612562565b61081681611501565b156108665760405160e560020a62461bcd02815260206004820152601b60248201527f456c656d656e742065786973747320696e2074686520617272617900000000006044820152606401610717565b600980546001810182556000919091528151600e9091027f6e1540171b6c0c960b71a7020d9f60077f6af931a8bbf590da0223dacf75c7af810191825560208301517f6e1540171b6c0c960b71a7020d9f60077f6af931a8bbf590da0223dacf75c7b082015560408301517f6e1540171b6c0c960b71a7020d9f60077f6af931a8bbf590da0223dacf75c7b1820155606083015183929161092d917f6e1540171b6c0c960b71a7020d9f60077f6af931a8bbf590da0223dacf75c7b290910190600a61219f565b50608082015181600d0155505050565b6109478282611896565b600082815260016020526040902061095f9082611105565b505050565b61096e82826118bc565b600082815260016020526040902061095f9082611947565b336000818152600460209081526040808320600160a060020a038716845290915281205490916106689185906109bd9086906126a0565b611181565b6109ec7f9f2df0fed2c77648de5860a4cc508cd0818c85b8b8a1ab4ceeef8d981c8956a633610b1d565b610a615760405160e560020a62461bcd02815260206004820152602860248201527f457863657074696f6e3a206d7573742068617665206d696e74657220726f6c6560448201527f20746f206d696e740000000000000000000000000000000000000000000000006064820152608401610717565b610a6b828261195c565b5050565b610a997f3c11d16cbaffd01df69ce1c404f6340ee057498f5f00246190ea54220576a84833610b1d565b610ab85760405160e560020a62461bcd02815260040161071790612597565b610ac23382611a3e565b50565b600254600160a060020a03163314610af25760405160e560020a62461bcd02815260040161071790612562565b610afc6000611bc9565b565b6000828152600160205260408120610b169083611c28565b9392505050565b600091825260208281526040808420600160a060020a0393909316845291905290205460ff1690565b6060600780546105d890612731565b610b7f7f3c11d16cbaffd01df69ce1c404f6340ee057498f5f00246190ea54220576a84833610b1d565b610b9e5760405160e560020a62461bcd02815260040161071790612597565b610a6b8282611a3e565b600254600160a060020a03163314610bd55760405160e560020a62461bcd02815260040161071790612562565b6008805473ffffffffffffffffffffffffffffffffffffffff1916600160a060020a0392909216919091179055565b336000908152600460209081526040808320600160a060020a038616845290915281205482811015610ca15760405160e560020a62461bcd02815260206004820152602560248201527f45524332303a2064656372656173656420616c6c6f77616e63652062656c6f7760448201527f207a65726f0000000000000000000000000000000000000000000000000000006064820152608401610717565b610cae3385858403611181565b5060019392505050565b600254600160a060020a03163314610ce55760405160e560020a62461bcd02815260040161071790612562565b6009548110610d395760405160e560020a62461bcd02815260206004820152601360248201527f496e646578206f7574206f6620626f756e6473000000000000000000000000006044820152606401610717565b60098054610d49906001906126d7565b81548110610d5957610d596127bc565b90600052602060002090600e020160098281548110610d7a57610d7a6127bc565b600091825260209091208254600e909202019081556001808301549082015560028083015490820155610db56003808301908401600a6121dd565b50600d918201549101556009805480610dd057610dd06127a3565b600082815260208120600e60001990930192830201818155600181018290556002810182905590610e046003830182612208565b600d8201600090555050905550565b60006106683384846112df565b600060098281548110610e3557610e356127bc565b90600052602060002090600e02016003016009600a8110610e5857610e586127bc565b015492915050565b60008181526001602052604081206105c390611c34565b61096e8282611c3e565b60098181548110610e9157600080fd5b60009182526020909120600e90910201805460018201546002830154600d90930154919350919084565b6009548110610f0f5760405160e560020a62461bcd02815260206004820152601360248201527f496e646578206f7574206f6620626f756e6473000000000000000000000000006044820152606401610717565b610f503060098381548110610f2657610f266127bc565b90600052602060002090600e02016003016009600a8110610f4957610f496127bc565b0154610e13565b610f9f5760405160e560020a62461bcd02815260206004820152600d60248201527f5472616e73666572206661696c000000000000000000000000000000000000006044820152606401610717565b60085460098054600160a060020a0390921691637703aad591339185908110610fca57610fca6127bc565b90600052602060002090600e02016040518363ffffffff167c01000000000000000000000000000000000000000000000000000000000281526004016110119291906124bf565b600060405180830381600087803b15801561102b57600080fd5b505af115801561103f573d6000803e3d6000fd5b5050505050565b600254600160a060020a031633146110735760405160e560020a62461bcd02815260040161071790612562565b600160a060020a0381166110f25760405160e560020a62461bcd02815260206004820152602660248201527f4f776e61626c653a206e6577206f776e657220697320746865207a65726f206160448201527f64647265737300000000000000000000000000000000000000000000000000006064820152608401610717565b610ac281611bc9565b610a6b8282611c64565b6000610b1683600160a060020a038416611ce8565b6000600160e060020a031982167f7965db0b0000000000000000000000000000000000000000000000000000000014806105c357507f01ffc9a700000000000000000000000000000000000000000000000000000000600160e060020a03198316146105c3565b600160a060020a0383166111ff5760405160e560020a62461bcd028152602060048201526024808201527f45524332303a20617070726f76652066726f6d20746865207a65726f2061646460448201527f72657373000000000000000000000000000000000000000000000000000000006064820152608401610717565b600160a060020a03821661127e5760405160e560020a62461bcd02815260206004820152602260248201527f45524332303a20617070726f766520746f20746865207a65726f20616464726560448201527f73730000000000000000000000000000000000000000000000000000000000006064820152608401610717565b600160a060020a0383811660008181526004602090815260408083209487168084529482529182902085905590518481527f8c5be1e5ebec7d5bd14f71427d1e84f3dd0314c0f7b2291e5b200ac8c7c3b925910160405180910390a3505050565b600160a060020a03831661135e5760405160e560020a62461bcd02815260206004820152602560248201527f45524332303a207472616e736665722066726f6d20746865207a65726f20616460448201527f64726573730000000000000000000000000000000000000000000000000000006064820152608401610717565b600160a060020a0382166113dd5760405160e560020a62461bcd02815260206004820152602360248201527f45524332303a207472616e7366657220746f20746865207a65726f206164647260448201527f65737300000000000000000000000000000000000000000000000000000000006064820152608401610717565b600160a060020a0383166000908152600360205260409020548181101561146f5760405160e560020a62461bcd02815260206004820152602660248201527f45524332303a207472616e7366657220616d6f756e742065786365656473206260448201527f616c616e636500000000000000000000000000000000000000000000000000006064820152608401610717565b600160a060020a038085166000908152600360205260408082208585039055918516815290812080548492906114a69084906126a0565b9250508190555082600160a060020a031684600160a060020a03167fddf252ad1be2c89b69c2b068fc378daa952ba7f163c4a11628f55a4df523b3ef846040516114f291815260200190565b60405180910390a35b50505050565b6000805b60095481101561188d5760098181548110611522576115226127bc565b60009182526020909120600e90910201548351148015611569575060098181548110611550576115506127bc565b90600052602060002090600e0201600101548360200151145b801561159c575060098181548110611583576115836127bc565b90600052602060002090600e0201600201548360400151145b80156115d25750600981815481106115b6576115b66127bc565b600091825260209091206003600e909202010154606084015151145b801561161c5750600981815481106115ec576115ec6127bc565b90600052602060002090600e02016003016001600a811061160f5761160f6127bc565b0154606084015160200151145b8015611666575060098181548110611636576116366127bc565b90600052602060002090600e02016003016002600a8110611659576116596127bc565b0154606084015160400151145b80156116af575060098181548110611680576116806127bc565b90600052602060002090600e02016003016003600a81106116a3576116a36127bc565b01546060848101510151145b80156116f95750600981815481106116c9576116c96127bc565b90600052602060002090600e02016003016004600a81106116ec576116ec6127bc565b0154606084015160800151145b8015611743575060098181548110611713576117136127bc565b90600052602060002090600e02016003016005600a8110611736576117366127bc565b0154606084015160a00151145b801561178d57506009818154811061175d5761175d6127bc565b90600052602060002090600e02016003016006600a8110611780576117806127bc565b0154606084015160c00151145b80156117d75750600981815481106117a7576117a76127bc565b90600052602060002090600e02016003016007600a81106117ca576117ca6127bc565b0154606084015160e00151145b80156118225750600981815481106117f1576117f16127bc565b90600052602060002090600e02016003016008600a8110611814576118146127bc565b015460608401516101000151145b801561186d57506009818154811061183c5761183c6127bc565b90600052602060002090600e02016003016009600a811061185f5761185f6127bc565b015460608401516101200151145b1561187b5750600192915050565b806118858161276f565b915050611505565b50600092915050565b6000828152602081905260409020600101546118b28133611d37565b61095f8383611c64565b600160a060020a038116331461193d5760405160e560020a62461bcd02815260206004820152602f60248201527f416363657373436f6e74726f6c3a2063616e206f6e6c792072656e6f756e636560448201527f20726f6c657320666f722073656c6600000000000000000000000000000000006064820152608401610717565b610a6b8282611d9e565b6000610b1683600160a060020a038416611e03565b600160a060020a0382166119b55760405160e560020a62461bcd02815260206004820152601f60248201527f45524332303a206d696e7420746f20746865207a65726f2061646472657373006044820152606401610717565b80600560008282546119c791906126a0565b9091555050600160a060020a038216600090815260036020526040812080548392906119f49084906126a0565b9091555050604051818152600160a060020a038316906000907fddf252ad1be2c89b69c2b068fc378daa952ba7f163c4a11628f55a4df523b3ef9060200160405180910390a35050565b600160a060020a038216611abd5760405160e560020a62461bcd02815260206004820152602160248201527f45524332303a206275726e2066726f6d20746865207a65726f2061646472657360448201527f73000000000000000000000000000000000000000000000000000000000000006064820152608401610717565b600160a060020a03821660009081526003602052604090205481811015611b4f5760405160e560020a62461bcd02815260206004820152602260248201527f45524332303a206275726e20616d6f756e7420657863656564732062616c616e60448201527f63650000000000000000000000000000000000000000000000000000000000006064820152608401610717565b600160a060020a0383166000908152600360205260408120838303905560058054849290611b7e9084906126d7565b9091555050604051828152600090600160a060020a038516907fddf252ad1be2c89b69c2b068fc378daa952ba7f163c4a11628f55a4df523b3ef9060200160405180910390a3505050565b60028054600160a060020a0383811673ffffffffffffffffffffffffffffffffffffffff19831681179093556040519116919082907f8be0079c531659141344cd1fd0a4f28419497f9722a3daafe3b4186f6b6457e090600090a35050565b6000610b168383611ef6565b60006105c3825490565b600082815260208190526040902060010154611c5a8133611d37565b61095f8383611d9e565b611c6e8282610b1d565b610a6b57600082815260208181526040808320600160a060020a03851684529091529020805460ff19166001179055611ca43390565b600160a060020a031681600160a060020a0316837f2f8788117e7eff1d82e926ec794901d17c78024a50270940304540a733656f0d60405160405180910390a45050565b6000818152600183016020526040812054611d2f575081546001818101845560008481526020808220909301849055845484825282860190935260409020919091556105c3565b5060006105c3565b611d418282610b1d565b610a6b57611d5981600160a060020a03166014611f20565b611d64836020611f20565b604051602001611d7592919061243e565b60408051601f198184030181529082905260e560020a62461bcd0282526107179160040161252f565b611da88282610b1d565b15610a6b57600082815260208181526040808320600160a060020a0385168085529252808320805460ff1916905551339285917ff6391f5c32d9c69d2a47ea670b442974b53935d1edc7fd64eb21e047a839171b9190a45050565b60008181526001830160205260408120548015611eec576000611e276001836126d7565b8554909150600090611e3b906001906126d7565b9050818114611ea0576000866000018281548110611e5b57611e5b6127bc565b9060005260206000200154905080876000018481548110611e7e57611e7e6127bc565b6000918252602080832090910192909255918252600188019052604090208390555b8554869080611eb157611eb16127a3565b6001900381819060005260206000200160009055905585600101600086815260200190815260200160002060009055600193505050506105c3565b60009150506105c3565b6000826000018281548110611f0d57611f0d6127bc565b9060005260206000200154905092915050565b60606000611f2f8360026126b8565b611f3a9060026126a0565b67ffffffffffffffff811115611f5257611f526127d5565b6040519080825280601f01601f191660200182016040528015611f7c576020820181803683370190505b5090507f300000000000000000000000000000000000000000000000000000000000000081600081518110611fb357611fb36127bc565b60200101907effffffffffffffffffffffffffffffffffffffffffffffffffffffffffffff1916908160001a9053507f780000000000000000000000000000000000000000000000000000000000000081600181518110612016576120166127bc565b60200101907effffffffffffffffffffffffffffffffffffffffffffffffffffffffffffff1916908160001a90535060006120528460026126b8565b61205d9060016126a0565b90505b6001811115612118577f303132333435363738396162636465660000000000000000000000000000000085600f166010811061209e5761209e6127bc565b1a7f0100000000000000000000000000000000000000000000000000000000000000028282815181106120d3576120d36127bc565b60200101907effffffffffffffffffffffffffffffffffffffffffffffffffffffffffffff1916908160001a9053506010909404936121118161271a565b9050612060565b508315610b165760405160e560020a62461bcd02815260206004820181905260248201527f537472696e67733a20686578206c656e67746820696e73756666696369656e746044820152606401610717565b6040518060a00160405280600081526020016000815260200160008152602001612192612217565b8152602001600081525090565b82600a81019282156121cd579160200282015b828111156121cd5782518255916020019190600101906121b2565b506121d9929150612236565b5090565b82600a81019282156121cd579182015b828111156121cd5782548255916001019190600101906121ed565b50610ac290600a810190612236565b604051806101400160405280600a906020820280368337509192915050565b5b808211156121d95760008155600101612237565b8035600160a060020a038116811461226257600080fd5b919050565b60006020828403121561227957600080fd5b610b168261224b565b6000806040838503121561229557600080fd5b61229e8361224b565b91506122ac6020840161224b565b90509250929050565b6000806000606084860312156122ca57600080fd5b6122d38461224b565b92506122e16020850161224b565b9150604084013590509250925092565b6000806040838503121561230457600080fd5b61230d8361224b565b946020939093013593505050565b60006020828403121561232d57600080fd5b5035919050565b6000806040838503121561234757600080fd5b823591506122ac6020840161224b565b6000806040838503121561236a57600080fd5b50508035926020909101359150565b60006020828403121561238b57600080fd5b8135600160e060020a031981168114610b1657600080fd5b60006101c082840312156123b657600080fd5b6123be612653565b82358152602080840135818301526040840135604083015284607f8501126123e557600080fd5b6123ed61267c565b80606086016101a087018881111561240457600080fd5b60005b600a81101561242457823585529385019391850191600101612407565b506060860192909252503560808401525090949350505050565b7f416363657373436f6e74726f6c3a206163636f756e74200000000000000000008152600083516124768160178501602088016126ee565b7f206973206d697373696e6720726f6c652000000000000000000000000000000060179184019182015283516124b38160288401602088016126ee565b01602801949350505050565b60006101e082019050600160a060020a03841682526020835481840152600180850154604085015260028501546060850152608084016003860160005b600a8110156125185781548352918401919083019083016124fc565b5050505050600d8301546101c08301529392505050565b602081526000825180602084015261254e8160408501602087016126ee565b601f01601f19169190910160400192915050565b6020808252818101527f4f776e61626c653a2063616c6c6572206973206e6f7420746865206f776e6572604082015260600190565b60208082526028908201527f457863657074696f6e3a206d7573742068617665206275726e657220726f6c6560408201527f20746f206275726e000000000000000000000000000000000000000000000000606082015260800190565b60006101c08201905082518252602080840151818401526040840151604084015260608401516060840160005b600a81101561263e57825182529183019190830190600101612621565b5050505060808301516101a083015292915050565b60405160a0810167ffffffffffffffff81118282101715612676576126766127d5565b60405290565b604051610140810167ffffffffffffffff81118282101715612676576126766127d5565b600082198211156126b3576126b361278a565b500190565b60008160001904831182151516156126d2576126d261278a565b500290565b6000828210156126e9576126e961278a565b500390565b60005b838110156127095781810151838201526020016126f1565b838111156114fb5750506000910152565b6000816127295761272961278a565b506000190190565b60028104600182168061274557607f821691505b602082108114156127695760e060020a634e487b7102600052602260045260246000fd5b50919050565b60006000198214156127835761278361278a565b5060010190565b60e060020a634e487b7102600052601160045260246000fd5b60e060020a634e487b7102600052603160045260246000fd5b60e060020a634e487b7102600052603260045260246000fd5b60e060020a634e487b7102600052604160045260246000fdfea26469706673582212203a2f4433aadb793b33decc19a35db35bf612b2505271c9d578d36ac63fa5f59564736f6c63430008060033",
  "immutableReferences": {},
  "source": "//SPDX-License-Identifier: MIT\n\npragma solidity ^0.8.0;\n\nimport \"@openzeppelin/contracts/token/ERC20/ERC20.sol\";\nimport \"@openzeppelin/contracts/access/Ownable.sol\";\nimport \"@openzeppelin/contracts/access/AccessControlEnumerable.sol\";\nimport \"@openzeppelin/contracts/utils/Context.sol\";\n\nimport \"./Equipment.sol\";\n\n    //***********************************\n    // SETUP AFTER DEPLOY\n    //***********************************\n    //SET EQUIPMENT ADDRESS\n    //SET MINTER_ROLE FOR EQUIPMENT\n    //***********************************\n    //\n    // This SC also holds the functionality \n    // of the STORE\n    //\n    //***********************************\n\ncontract GameCoin is AccessControlEnumerable, Ownable, ERC20 {\n\n    bytes32 public constant MINTER_ROLE = keccak256(\"MINTER_ROLE\");\n    bytes32 public constant BURNER_ROLE = keccak256(\"BURNER_ROLE\");\n\n    //Equipment Address\n    Equipment private _equipment;\n\n    //Gear offered in the stores\n    //Administrators may update, delete or modify the content\n    //The store should read this array and populate the store acording to it\n    Equipment.gearStats[] public storeGear;\n\n    constructor(uint256 initialSupply) ERC20( \"Chains of Glory Token\", \"CGT\") {\n        _setupRole(DEFAULT_ADMIN_ROLE, _msgSender());\n\n        _setupRole(MINTER_ROLE, _msgSender());\n        _setupRole(BURNER_ROLE, _msgSender());\n\n        _mint(msg.sender, initialSupply);\n    }\n\n    function decimals() public pure override returns (uint8) {\n\t\treturn 0;\n\t}\n\n    function mint(address to, uint256 amount) public virtual {\n        require(hasRole(MINTER_ROLE, _msgSender()), \"Exception: must have minter role to mint\");\n        _mint(to, amount);\n    }\n\n    function burn(uint256 amount) public virtual {\n        require(hasRole(BURNER_ROLE, _msgSender()), \"Exception: must have burner role to burn\");\n        _burn(_msgSender(), amount);\n    }\n\n    function burn(address from, uint256 amount) public virtual {\n        require(hasRole(BURNER_ROLE, _msgSender()), \"Exception: must have burner role to burn\");\n        _burn(from, amount);\n    }\n\n    //GameToken Token Address\n    function setEquipmentAddress(address equipmentAddress) public onlyOwner {\n        _equipment=Equipment(equipmentAddress);\n    }\n\n    //STORE FUNCTIONALITY\n    //\n    //Store is where the user pay in-game tokens for equipment\n\n    //Add an element to the store array\n    function addGearToStore(Equipment.gearStats memory gear) public onlyOwner {\n        require(!gearExistsInStore(gear), \"Element exists in the array\");\n        storeGear.push(gear);\n    }\n\n\n    //Remove an element from the store array\n    function removeGearFromStore(uint256 index) public onlyOwner {\n        require(index < storeGear.length, \"Index out of bounds\");\n\n        storeGear[index]= storeGear[ storeGear.length-1];\n        storeGear.pop();\n    }\n\n    //Returns especific item\n    function getEquipmentLength() public view returns(uint256) {\n        return storeGear.length;\n    }\n\n    //Returns especific item\n    function getEquipmentData(uint256 index) public view returns(Equipment.gearStats memory) {\n        return storeGear[index];\n    }\n\n    //Returns especific item\n    function getEquipmentPrice(uint256 index) public view returns(uint256) {\n        return storeGear[index].stats[9];\n    }\n\n    //Manages the purchase\n    function purchase(uint256 index) public {\n        require(index < storeGear.length, \"Index out of bounds\");        \n        require(transfer(address(this), storeGear[index].stats[9]), \"Transfer fail\");\n\n        //Mint the gear to the payer\n        _equipment.mint(msg.sender, storeGear[index]);\n    }\n\n    function gearExistsInStore(Equipment.gearStats memory gear) internal view returns (bool) {\n        for(uint i=0; i<storeGear.length; i++) {\n            if( gear.class==storeGear[i].class &&\n                gear.slot==storeGear[i].slot &&\n                gear.level==storeGear[i].level &&\n                gear.stats[0]==storeGear[i].stats[0] &&\n                gear.stats[1]==storeGear[i].stats[1] &&\n                gear.stats[2]==storeGear[i].stats[2] &&\n                gear.stats[3]==storeGear[i].stats[3] &&\n                gear.stats[4]==storeGear[i].stats[4] &&\n                gear.stats[5]==storeGear[i].stats[5] &&\n                gear.stats[6]==storeGear[i].stats[6] &&\n                gear.stats[7]==storeGear[i].stats[7] &&\n                gear.stats[8]==storeGear[i].stats[8] &&\n                gear.stats[9]==storeGear[i].stats[9]\n                )\n                return true;\n        }\n        return false;\n    }\n}",
  "sourcePath": "/home/javi/ChainsOfGlory/contracts/GameCoin.sol",
  "compiler": {
    "name": "solc",
    "version": "0.8.6+commit.11564f7e.Emscripten.clang"
  },
  "schemaVersion": "3.4.3",
  "updatedAt": "2021-12-02T12:07:08.202Z",
  "devdoc": {
    "kind": "dev",
    "methods": {
      "allowance(address,address)": {
        "details": "See {IERC20-allowance}."
      },
      "approve(address,uint256)": {
        "details": "See {IERC20-approve}. Requirements: - `spender` cannot be the zero address."
      },
      "balanceOf(address)": {
        "details": "See {IERC20-balanceOf}."
      },
      "decimals()": {
        "details": "Returns the number of decimals used to get its user representation. For example, if `decimals` equals `2`, a balance of `505` tokens should be displayed to a user as `5.05` (`505 / 10 ** 2`). Tokens usually opt for a value of 18, imitating the relationship between Ether and Wei. This is the value {ERC20} uses, unless this function is overridden; NOTE: This information is only used for _display_ purposes: it in no way affects any of the arithmetic of the contract, including {IERC20-balanceOf} and {IERC20-transfer}."
      },
      "decreaseAllowance(address,uint256)": {
        "details": "Atomically decreases the allowance granted to `spender` by the caller. This is an alternative to {approve} that can be used as a mitigation for problems described in {IERC20-approve}. Emits an {Approval} event indicating the updated allowance. Requirements: - `spender` cannot be the zero address. - `spender` must have allowance for the caller of at least `subtractedValue`."
      },
      "getRoleAdmin(bytes32)": {
        "details": "Returns the admin role that controls `role`. See {grantRole} and {revokeRole}. To change a role's admin, use {_setRoleAdmin}."
      },
      "getRoleMember(bytes32,uint256)": {
        "details": "Returns one of the accounts that have `role`. `index` must be a value between 0 and {getRoleMemberCount}, non-inclusive. Role bearers are not sorted in any particular way, and their ordering may change at any point. WARNING: When using {getRoleMember} and {getRoleMemberCount}, make sure you perform all queries on the same block. See the following https://forum.openzeppelin.com/t/iterating-over-elements-on-enumerableset-in-openzeppelin-contracts/2296[forum post] for more information."
      },
      "getRoleMemberCount(bytes32)": {
        "details": "Returns the number of accounts that have `role`. Can be used together with {getRoleMember} to enumerate all bearers of a role."
      },
      "grantRole(bytes32,address)": {
        "details": "Overload {grantRole} to track enumerable memberships"
      },
      "hasRole(bytes32,address)": {
        "details": "Returns `true` if `account` has been granted `role`."
      },
      "increaseAllowance(address,uint256)": {
        "details": "Atomically increases the allowance granted to `spender` by the caller. This is an alternative to {approve} that can be used as a mitigation for problems described in {IERC20-approve}. Emits an {Approval} event indicating the updated allowance. Requirements: - `spender` cannot be the zero address."
      },
      "name()": {
        "details": "Returns the name of the token."
      },
      "owner()": {
        "details": "Returns the address of the current owner."
      },
      "renounceOwnership()": {
        "details": "Leaves the contract without owner. It will not be possible to call `onlyOwner` functions anymore. Can only be called by the current owner. NOTE: Renouncing ownership will leave the contract without an owner, thereby removing any functionality that is only available to the owner."
      },
      "renounceRole(bytes32,address)": {
        "details": "Overload {renounceRole} to track enumerable memberships"
      },
      "revokeRole(bytes32,address)": {
        "details": "Overload {revokeRole} to track enumerable memberships"
      },
      "supportsInterface(bytes4)": {
        "details": "See {IERC165-supportsInterface}."
      },
      "symbol()": {
        "details": "Returns the symbol of the token, usually a shorter version of the name."
      },
      "totalSupply()": {
        "details": "See {IERC20-totalSupply}."
      },
      "transfer(address,uint256)": {
        "details": "See {IERC20-transfer}. Requirements: - `recipient` cannot be the zero address. - the caller must have a balance of at least `amount`."
      },
      "transferFrom(address,address,uint256)": {
        "details": "See {IERC20-transferFrom}. Emits an {Approval} event indicating the updated allowance. This is not required by the EIP. See the note at the beginning of {ERC20}. Requirements: - `sender` and `recipient` cannot be the zero address. - `sender` must have a balance of at least `amount`. - the caller must have allowance for ``sender``'s tokens of at least `amount`."
      },
      "transferOwnership(address)": {
        "details": "Transfers ownership of the contract to a new account (`newOwner`). Can only be called by the current owner."
      }
    },
    "version": 1
  },
  "userdoc": {
    "kind": "user",
    "methods": {},
    "version": 1
  }
}