{
  "contractName": "GameCoin",
  "abi": [
    {
      "inputs": [
        {
          "internalType": "uint256",
          "name": "initialSupply",
          "type": "uint256"
        }
      ],
      "stateMutability": "nonpayable",
      "type": "constructor"
    },
    {
      "anonymous": false,
      "inputs": [
        {
          "indexed": true,
          "internalType": "address",
          "name": "owner",
          "type": "address"
        },
        {
          "indexed": true,
          "internalType": "address",
          "name": "spender",
          "type": "address"
        },
        {
          "indexed": false,
          "internalType": "uint256",
          "name": "value",
          "type": "uint256"
        }
      ],
      "name": "Approval",
      "type": "event"
    },
    {
      "anonymous": false,
      "inputs": [
        {
          "indexed": true,
          "internalType": "address",
          "name": "previousOwner",
          "type": "address"
        },
        {
          "indexed": true,
          "internalType": "address",
          "name": "newOwner",
          "type": "address"
        }
      ],
      "name": "OwnershipTransferred",
      "type": "event"
    },
    {
      "anonymous": false,
      "inputs": [
        {
          "indexed": true,
          "internalType": "bytes32",
          "name": "role",
          "type": "bytes32"
        },
        {
          "indexed": true,
          "internalType": "bytes32",
          "name": "previousAdminRole",
          "type": "bytes32"
        },
        {
          "indexed": true,
          "internalType": "bytes32",
          "name": "newAdminRole",
          "type": "bytes32"
        }
      ],
      "name": "RoleAdminChanged",
      "type": "event"
    },
    {
      "anonymous": false,
      "inputs": [
        {
          "indexed": true,
          "internalType": "bytes32",
          "name": "role",
          "type": "bytes32"
        },
        {
          "indexed": true,
          "internalType": "address",
          "name": "account",
          "type": "address"
        },
        {
          "indexed": true,
          "internalType": "address",
          "name": "sender",
          "type": "address"
        }
      ],
      "name": "RoleGranted",
      "type": "event"
    },
    {
      "anonymous": false,
      "inputs": [
        {
          "indexed": true,
          "internalType": "bytes32",
          "name": "role",
          "type": "bytes32"
        },
        {
          "indexed": true,
          "internalType": "address",
          "name": "account",
          "type": "address"
        },
        {
          "indexed": true,
          "internalType": "address",
          "name": "sender",
          "type": "address"
        }
      ],
      "name": "RoleRevoked",
      "type": "event"
    },
    {
      "anonymous": false,
      "inputs": [
        {
          "indexed": true,
          "internalType": "address",
          "name": "from",
          "type": "address"
        },
        {
          "indexed": true,
          "internalType": "address",
          "name": "to",
          "type": "address"
        },
        {
          "indexed": false,
          "internalType": "uint256",
          "name": "value",
          "type": "uint256"
        }
      ],
      "name": "Transfer",
      "type": "event"
    },
    {
      "inputs": [],
      "name": "BURNER_ROLE",
      "outputs": [
        {
          "internalType": "bytes32",
          "name": "",
          "type": "bytes32"
        }
      ],
      "stateMutability": "view",
      "type": "function",
      "constant": true
    },
    {
      "inputs": [],
      "name": "DEFAULT_ADMIN_ROLE",
      "outputs": [
        {
          "internalType": "bytes32",
          "name": "",
          "type": "bytes32"
        }
      ],
      "stateMutability": "view",
      "type": "function",
      "constant": true
    },
    {
      "inputs": [],
      "name": "MINTER_ROLE",
      "outputs": [
        {
          "internalType": "bytes32",
          "name": "",
          "type": "bytes32"
        }
      ],
      "stateMutability": "view",
      "type": "function",
      "constant": true
    },
    {
      "inputs": [
        {
          "internalType": "address",
          "name": "owner",
          "type": "address"
        },
        {
          "internalType": "address",
          "name": "spender",
          "type": "address"
        }
      ],
      "name": "allowance",
      "outputs": [
        {
          "internalType": "uint256",
          "name": "",
          "type": "uint256"
        }
      ],
      "stateMutability": "view",
      "type": "function",
      "constant": true
    },
    {
      "inputs": [
        {
          "internalType": "address",
          "name": "spender",
          "type": "address"
        },
        {
          "internalType": "uint256",
          "name": "amount",
          "type": "uint256"
        }
      ],
      "name": "approve",
      "outputs": [
        {
          "internalType": "bool",
          "name": "",
          "type": "bool"
        }
      ],
      "stateMutability": "nonpayable",
      "type": "function"
    },
    {
      "inputs": [
        {
          "internalType": "address",
          "name": "account",
          "type": "address"
        }
      ],
      "name": "balanceOf",
      "outputs": [
        {
          "internalType": "uint256",
          "name": "",
          "type": "uint256"
        }
      ],
      "stateMutability": "view",
      "type": "function",
      "constant": true
    },
    {
      "inputs": [
        {
          "internalType": "address",
          "name": "spender",
          "type": "address"
        },
        {
          "internalType": "uint256",
          "name": "subtractedValue",
          "type": "uint256"
        }
      ],
      "name": "decreaseAllowance",
      "outputs": [
        {
          "internalType": "bool",
          "name": "",
          "type": "bool"
        }
      ],
      "stateMutability": "nonpayable",
      "type": "function"
    },
    {
      "inputs": [
        {
          "internalType": "bytes32",
          "name": "role",
          "type": "bytes32"
        }
      ],
      "name": "getRoleAdmin",
      "outputs": [
        {
          "internalType": "bytes32",
          "name": "",
          "type": "bytes32"
        }
      ],
      "stateMutability": "view",
      "type": "function",
      "constant": true
    },
    {
      "inputs": [
        {
          "internalType": "bytes32",
          "name": "role",
          "type": "bytes32"
        },
        {
          "internalType": "uint256",
          "name": "index",
          "type": "uint256"
        }
      ],
      "name": "getRoleMember",
      "outputs": [
        {
          "internalType": "address",
          "name": "",
          "type": "address"
        }
      ],
      "stateMutability": "view",
      "type": "function",
      "constant": true
    },
    {
      "inputs": [
        {
          "internalType": "bytes32",
          "name": "role",
          "type": "bytes32"
        }
      ],
      "name": "getRoleMemberCount",
      "outputs": [
        {
          "internalType": "uint256",
          "name": "",
          "type": "uint256"
        }
      ],
      "stateMutability": "view",
      "type": "function",
      "constant": true
    },
    {
      "inputs": [
        {
          "internalType": "bytes32",
          "name": "role",
          "type": "bytes32"
        },
        {
          "internalType": "address",
          "name": "account",
          "type": "address"
        }
      ],
      "name": "grantRole",
      "outputs": [],
      "stateMutability": "nonpayable",
      "type": "function"
    },
    {
      "inputs": [
        {
          "internalType": "bytes32",
          "name": "role",
          "type": "bytes32"
        },
        {
          "internalType": "address",
          "name": "account",
          "type": "address"
        }
      ],
      "name": "hasRole",
      "outputs": [
        {
          "internalType": "bool",
          "name": "",
          "type": "bool"
        }
      ],
      "stateMutability": "view",
      "type": "function",
      "constant": true
    },
    {
      "inputs": [
        {
          "internalType": "address",
          "name": "spender",
          "type": "address"
        },
        {
          "internalType": "uint256",
          "name": "addedValue",
          "type": "uint256"
        }
      ],
      "name": "increaseAllowance",
      "outputs": [
        {
          "internalType": "bool",
          "name": "",
          "type": "bool"
        }
      ],
      "stateMutability": "nonpayable",
      "type": "function"
    },
    {
      "inputs": [],
      "name": "name",
      "outputs": [
        {
          "internalType": "string",
          "name": "",
          "type": "string"
        }
      ],
      "stateMutability": "view",
      "type": "function",
      "constant": true
    },
    {
      "inputs": [],
      "name": "owner",
      "outputs": [
        {
          "internalType": "address",
          "name": "",
          "type": "address"
        }
      ],
      "stateMutability": "view",
      "type": "function",
      "constant": true
    },
    {
      "inputs": [],
      "name": "renounceOwnership",
      "outputs": [],
      "stateMutability": "nonpayable",
      "type": "function"
    },
    {
      "inputs": [
        {
          "internalType": "bytes32",
          "name": "role",
          "type": "bytes32"
        },
        {
          "internalType": "address",
          "name": "account",
          "type": "address"
        }
      ],
      "name": "renounceRole",
      "outputs": [],
      "stateMutability": "nonpayable",
      "type": "function"
    },
    {
      "inputs": [
        {
          "internalType": "bytes32",
          "name": "role",
          "type": "bytes32"
        },
        {
          "internalType": "address",
          "name": "account",
          "type": "address"
        }
      ],
      "name": "revokeRole",
      "outputs": [],
      "stateMutability": "nonpayable",
      "type": "function"
    },
    {
      "inputs": [
        {
          "internalType": "uint256",
          "name": "",
          "type": "uint256"
        }
      ],
      "name": "storeGear",
      "outputs": [
        {
          "internalType": "uint256",
          "name": "class",
          "type": "uint256"
        },
        {
          "internalType": "uint256",
          "name": "slot",
          "type": "uint256"
        },
        {
          "internalType": "uint256",
          "name": "level",
          "type": "uint256"
        }
      ],
      "stateMutability": "view",
      "type": "function",
      "constant": true
    },
    {
      "inputs": [
        {
          "internalType": "bytes4",
          "name": "interfaceId",
          "type": "bytes4"
        }
      ],
      "name": "supportsInterface",
      "outputs": [
        {
          "internalType": "bool",
          "name": "",
          "type": "bool"
        }
      ],
      "stateMutability": "view",
      "type": "function",
      "constant": true
    },
    {
      "inputs": [],
      "name": "symbol",
      "outputs": [
        {
          "internalType": "string",
          "name": "",
          "type": "string"
        }
      ],
      "stateMutability": "view",
      "type": "function",
      "constant": true
    },
    {
      "inputs": [],
      "name": "totalSupply",
      "outputs": [
        {
          "internalType": "uint256",
          "name": "",
          "type": "uint256"
        }
      ],
      "stateMutability": "view",
      "type": "function",
      "constant": true
    },
    {
      "inputs": [
        {
          "internalType": "address",
          "name": "recipient",
          "type": "address"
        },
        {
          "internalType": "uint256",
          "name": "amount",
          "type": "uint256"
        }
      ],
      "name": "transfer",
      "outputs": [
        {
          "internalType": "bool",
          "name": "",
          "type": "bool"
        }
      ],
      "stateMutability": "nonpayable",
      "type": "function"
    },
    {
      "inputs": [
        {
          "internalType": "address",
          "name": "sender",
          "type": "address"
        },
        {
          "internalType": "address",
          "name": "recipient",
          "type": "address"
        },
        {
          "internalType": "uint256",
          "name": "amount",
          "type": "uint256"
        }
      ],
      "name": "transferFrom",
      "outputs": [
        {
          "internalType": "bool",
          "name": "",
          "type": "bool"
        }
      ],
      "stateMutability": "nonpayable",
      "type": "function"
    },
    {
      "inputs": [
        {
          "internalType": "address",
          "name": "newOwner",
          "type": "address"
        }
      ],
      "name": "transferOwnership",
      "outputs": [],
      "stateMutability": "nonpayable",
      "type": "function"
    },
    {
      "inputs": [],
      "name": "decimals",
      "outputs": [
        {
          "internalType": "uint8",
          "name": "",
          "type": "uint8"
        }
      ],
      "stateMutability": "pure",
      "type": "function",
      "constant": true
    },
    {
      "inputs": [
        {
          "internalType": "address",
          "name": "to",
          "type": "address"
        },
        {
          "internalType": "uint256",
          "name": "amount",
          "type": "uint256"
        }
      ],
      "name": "mint",
      "outputs": [],
      "stateMutability": "nonpayable",
      "type": "function"
    },
    {
      "inputs": [
        {
          "internalType": "uint256",
          "name": "amount",
          "type": "uint256"
        }
      ],
      "name": "burn",
      "outputs": [],
      "stateMutability": "nonpayable",
      "type": "function"
    },
    {
      "inputs": [
        {
          "internalType": "address",
          "name": "from",
          "type": "address"
        },
        {
          "internalType": "uint256",
          "name": "amount",
          "type": "uint256"
        }
      ],
      "name": "burn",
      "outputs": [],
      "stateMutability": "nonpayable",
      "type": "function"
    },
    {
      "inputs": [
        {
          "internalType": "address",
          "name": "equipmentAddress",
          "type": "address"
        }
      ],
      "name": "setEquipmentAddress",
      "outputs": [],
      "stateMutability": "nonpayable",
      "type": "function"
    },
    {
      "inputs": [
        {
          "components": [
            {
              "internalType": "uint256",
              "name": "class",
              "type": "uint256"
            },
            {
              "internalType": "uint256",
              "name": "slot",
              "type": "uint256"
            },
            {
              "internalType": "uint256",
              "name": "level",
              "type": "uint256"
            },
            {
              "internalType": "uint256[10]",
              "name": "stats",
              "type": "uint256[10]"
            }
          ],
          "internalType": "struct Equipment.gearStats",
          "name": "gear",
          "type": "tuple"
        }
      ],
      "name": "addGearToStore",
      "outputs": [],
      "stateMutability": "nonpayable",
      "type": "function"
    },
    {
      "inputs": [
        {
          "internalType": "uint256",
          "name": "index",
          "type": "uint256"
        }
      ],
      "name": "removeGearFromStore",
      "outputs": [],
      "stateMutability": "nonpayable",
      "type": "function"
    },
    {
      "inputs": [
        {
          "internalType": "uint256",
          "name": "index",
          "type": "uint256"
        }
      ],
      "name": "getEquipmentData",
      "outputs": [
        {
          "components": [
            {
              "internalType": "uint256",
              "name": "class",
              "type": "uint256"
            },
            {
              "internalType": "uint256",
              "name": "slot",
              "type": "uint256"
            },
            {
              "internalType": "uint256",
              "name": "level",
              "type": "uint256"
            },
            {
              "internalType": "uint256[10]",
              "name": "stats",
              "type": "uint256[10]"
            }
          ],
          "internalType": "struct Equipment.gearStats",
          "name": "",
          "type": "tuple"
        }
      ],
      "stateMutability": "view",
      "type": "function",
      "constant": true
    },
    {
      "inputs": [
        {
          "internalType": "uint256",
          "name": "index",
          "type": "uint256"
        }
      ],
      "name": "getEquipmentPrice",
      "outputs": [
        {
          "internalType": "uint256",
          "name": "",
          "type": "uint256"
        }
      ],
      "stateMutability": "view",
      "type": "function",
      "constant": true
    },
    {
      "inputs": [
        {
          "internalType": "uint256",
          "name": "index",
          "type": "uint256"
        }
      ],
      "name": "purchase",
      "outputs": [],
      "stateMutability": "nonpayable",
      "type": "function"
    }
  ],
  "bytecode": "0x60806040523480156200001157600080fd5b5060405162002e1238038062002e12833981016040819052620000349162000596565b6040518060400160405280601581526020017f436861696e73206f6620476c6f747920546f6b656e00000000000000000000008152506040518060400160405280600381526020017f4347540000000000000000000000000000000000000000000000000000000000815250620000cc620000bd620001b0640100000000026401000000009004565b640100000000620001b4810204565b8151620000e1906006906020850190620004f0565b508051620000f7906007906020840190620004f0565b506200012491506000905062000115640100000000620001b0810204565b64010000000062000206810204565b6200015c7f9f2df0fed2c77648de5860a4cc508cd0818c85b8b8a1ab4ceeef8d981c8956a662000115640100000000620001b0810204565b620001947f3c11d16cbaffd01df69ce1c404f6340ee057498f5f00246190ea54220576a84862000115640100000000620001b0810204565b620001a933826401000000006200024d810204565b5062000646565b3390565b60028054600160a060020a03838116600160a060020a0319831681179093556040519116919082907f8be0079c531659141344cd1fd0a4f28419497f9722a3daafe3b4186f6b6457e090600090a35050565b620002208282640100000000620010ba6200037d82021704565b6000828152600160205260409020620002489082640100000000620010c46200039282021704565b505050565b600160a060020a038216620002c2576040517f08c379a000000000000000000000000000000000000000000000000000000000815260206004820152601f60248201527f45524332303a206d696e7420746f20746865207a65726f206164647265737300604482015260640160405180910390fd5b620002d96000838364010000000062000248810204565b8060056000828254620002ed9190620005b0565b9091555050600160a060020a038216600090815260036020526040812080548392906200031c908490620005b0565b9091555050604051818152600160a060020a038316906000907fddf252ad1be2c89b69c2b068fc378daa952ba7f163c4a11628f55a4df523b3ef9060200160405180910390a3620003796000838364010000000062000248810204565b5050565b620003798282640100000000620003bb810204565b6000620003b283600160a060020a03841664010000000062000457810204565b90505b92915050565b620003d08282640100000000620004af810204565b6200037957600082815260208181526040808320600160a060020a03851684529091529020805460ff1916600117905562000413640100000000620001b0810204565b600160a060020a031681600160a060020a0316837f2f8788117e7eff1d82e926ec794901d17c78024a50270940304540a733656f0d60405160405180910390a45050565b60006200046e8383640100000000620004d8810204565b620004a657508154600181810184556000848152602080822090930184905584548482528286019093526040902091909155620003b5565b506000620003b5565b600091825260208281526040808420600160a060020a0393909316845291905290205460ff1690565b60009081526001919091016020526040902054151590565b828054620004fe90620005f0565b90600052602060002090601f0160209004810192826200052257600085556200056d565b82601f106200053d57805160ff19168380011785556200056d565b828001600101855582156200056d579182015b828111156200056d57825182559160200191906001019062000550565b506200057b9291506200057f565b5090565b5b808211156200057b576000815560010162000580565b600060208284031215620005a957600080fd5b5051919050565b60008219821115620005eb577f4e487b7100000000000000000000000000000000000000000000000000000000600052601160045260246000fd5b500190565b6002810460018216806200060557607f821691505b6020821081141562000640577f4e487b7100000000000000000000000000000000000000000000000000000000600052602260045260246000fd5b50919050565b6127bc80620006566000396000f3fe608060405234801561001057600080fd5b506004361061022e576000357c0100000000000000000000000000000000000000000000000000000000900480639010d07c11610142578063a9059cbb116100ca578063d547741f11610099578063d547741f146104cd578063dc87a698146104e0578063dd62ed3e1461050e578063efef39a114610547578063f2fde38b1461055a57600080fd5b8063a9059cbb1461046d578063c40e995814610480578063ca15c87314610493578063d5391393146104a657600080fd5b80639dc29fac116101115780639dc29fac14610419578063a217fddf1461042c578063a2846ad414610434578063a457c2d714610447578063a84add181461045a57600080fd5b80639010d07c146103d857806391d14854146103eb57806394553ff5146103fe57806395d89b411461041157600080fd5b80632f2ff15d116101c557806340c10f191161019457806340c10f191461035c57806342966c681461036f57806370a0823114610382578063715018a6146103ab5780638da5cb5b146103b357600080fd5b80632f2ff15d14610312578063313ce5671461032757806336568abe14610336578063395093511461034957600080fd5b806323b872dd1161020157806323b872dd14610295578063248a9ca3146102a85780632777a046146102cb578063282c51f3146102eb57600080fd5b806301ffc9a71461023357806306fdde031461025b578063095ea7b31461027057806318160ddd14610283575b600080fd5b61024661024136600461232e565b61056d565b60405190151581526020015b60405180910390f35b6102636105b1565b60405161025291906124d2565b61024661027e3660046122a6565b610643565b6005545b604051908152602001610252565b6102466102a336600461226a565b610659565b6102876102b63660046122d0565b60009081526020819052604090206001015490565b6102de6102d93660046122d0565b610720565b6040516102529190612597565b6102877f3c11d16cbaffd01df69ce1c404f6340ee057498f5f00246190ea54220576a84881565b6103256103203660046122e9565b6107be565b005b60405160008152602001610252565b6103256103443660046122e9565b6107e5565b6102466103573660046122a6565b610807565b61032561036a3660046122a6565b610843565b61032561037d3660046122d0565b6108f0565b61028761039036600461221c565b600160a060020a031660009081526003602052604090205490565b610325610946565b600254600160a060020a03165b604051600160a060020a039091168152602001610252565b6103c06103e636600461230c565b61097f565b6102466103f93660046122e9565b61099e565b61032561040c366004612358565b6109c7565b610263610b1a565b6103256104273660046122a6565b610b29565b610287600081565b61032561044236600461221c565b610b7c565b6102466104553660046122a6565b610bd8565b6103256104683660046122d0565b610c8c565b61024661047b3660046122a6565b610dd9565b61028761048e3660046122d0565b610de6565b6102876104a13660046122d0565b610e26565b6102877f9f2df0fed2c77648de5860a4cc508cd0818c85b8b8a1ab4ceeef8d981c8956a681565b6103256104db3660046122e9565b610e3d565b6104f36104ee3660046122d0565b610e47565b60408051938452602084019290925290820152606001610252565b61028761051c366004612237565b600160a060020a03918216600090815260046020908152604080832093909416825291909152205490565b6103256105553660046122d0565b610e7a565b61032561056836600461221c565b611005565b6000600160e060020a031982167f5a05180f0000000000000000000000000000000000000000000000000000000014806105ab57506105ab826110d9565b92915050565b6060600680546105c0906126c9565b80601f01602080910402602001604051908101604052809291908181526020018280546105ec906126c9565b80156106395780601f1061060e57610100808354040283529160200191610639565b820191906000526020600020905b81548152906001019060200180831161061c57829003601f168201915b5050505050905090565b6000610650338484611140565b50600192915050565b600061066684848461129e565b600160a060020a0384166000908152600460209081526040808320338452909152902054828110156107085760405160e560020a62461bcd02815260206004820152602860248201527f45524332303a207472616e7366657220616d6f756e742065786365656473206160448201527f6c6c6f77616e636500000000000000000000000000000000000000000000000060648201526084015b60405180910390fd5b6107158533858403611140565b506001949350505050565b610728612127565b6009828154811061073b5761073b612754565b90600052602060002090600d020160405180608001604052908160008201548152602001600182015481526020016002820154815260200160038201600a806020026040519081016040528092919082600a80156107ae576020028201915b81548152602001906001019080831161079a575b5050505050815250509050919050565b6107c882826114be565b60008281526001602052604090206107e090826110c4565b505050565b6107ef82826114e4565b60008281526001602052604090206107e0908261156f565b336000818152600460209081526040808320600160a060020a0387168452909152812054909161065091859061083e908690612638565b611140565b61086d7f9f2df0fed2c77648de5860a4cc508cd0818c85b8b8a1ab4ceeef8d981c8956a63361099e565b6108e25760405160e560020a62461bcd02815260206004820152602860248201527f457863657074696f6e3a206d7573742068617665206d696e74657220726f6c6560448201527f20746f206d696e7400000000000000000000000000000000000000000000000060648201526084016106ff565b6108ec8282611584565b5050565b61091a7f3c11d16cbaffd01df69ce1c404f6340ee057498f5f00246190ea54220576a8483361099e565b6109395760405160e560020a62461bcd0281526004016106ff9061253a565b6109433382611666565b50565b600254600160a060020a031633146109735760405160e560020a62461bcd0281526004016106ff90612505565b61097d60006117f1565b565b60008281526001602052604081206109979083611850565b9392505050565b600091825260208281526040808420600160a060020a0393909316845291905290205460ff1690565b600254600160a060020a031633146109f45760405160e560020a62461bcd0281526004016106ff90612505565b6109fd8161185c565b15610a4d5760405160e560020a62461bcd02815260206004820152601b60248201527f456c656d656e742065786973747320696e20746865206172726179000000000060448201526064016106ff565b600980546001810182556000919091528151600d9091027f6e1540171b6c0c960b71a7020d9f60077f6af931a8bbf590da0223dacf75c7af810191825560208301517f6e1540171b6c0c960b71a7020d9f60077f6af931a8bbf590da0223dacf75c7b082015560408301517f6e1540171b6c0c960b71a7020d9f60077f6af931a8bbf590da0223dacf75c7b18201556060830151839291610b14917f6e1540171b6c0c960b71a7020d9f60077f6af931a8bbf590da0223dacf75c7b290910190600a612154565b50505050565b6060600780546105c0906126c9565b610b537f3c11d16cbaffd01df69ce1c404f6340ee057498f5f00246190ea54220576a8483361099e565b610b725760405160e560020a62461bcd0281526004016106ff9061253a565b6108ec8282611666565b600254600160a060020a03163314610ba95760405160e560020a62461bcd0281526004016106ff90612505565b6008805473ffffffffffffffffffffffffffffffffffffffff1916600160a060020a0392909216919091179055565b336000908152600460209081526040808320600160a060020a038616845290915281205482811015610c755760405160e560020a62461bcd02815260206004820152602560248201527f45524332303a2064656372656173656420616c6c6f77616e63652062656c6f7760448201527f207a65726f00000000000000000000000000000000000000000000000000000060648201526084016106ff565b610c823385858403611140565b5060019392505050565b600254600160a060020a03163314610cb95760405160e560020a62461bcd0281526004016106ff90612505565b6009548110610d0d5760405160e560020a62461bcd02815260206004820152601360248201527f496e646578206f7574206f6620626f756e64730000000000000000000000000060448201526064016106ff565b60098054610d1d9060019061266f565b81548110610d2d57610d2d612754565b90600052602060002090600d020160098281548110610d4e57610d4e612754565b600091825260209091208254600d909202019081556001808301549082015560028083015490820155610d896003808301908401600a612192565b509050506009805480610d9e57610d9e61273b565b600082815260208120600d60001990930192830201818155600181018290556002810182905590610dd260038301826121bd565b5050905550565b600061065033848461129e565b600060098281548110610dfb57610dfb612754565b90600052602060002090600d02016003016009600a8110610e1e57610e1e612754565b015492915050565b60008181526001602052604081206105ab90611bf1565b6107ef8282611bfb565b60098181548110610e5757600080fd5b60009182526020909120600d909102018054600182015460029092015490925083565b6009548110610ece5760405160e560020a62461bcd02815260206004820152601360248201527f496e646578206f7574206f6620626f756e64730000000000000000000000000060448201526064016106ff565b610f0f3060098381548110610ee557610ee5612754565b90600052602060002090600d02016003016009600a8110610f0857610f08612754565b0154610dd9565b610f5e5760405160e560020a62461bcd02815260206004820152600d60248201527f5472616e73666572206661696c0000000000000000000000000000000000000060448201526064016106ff565b60085460098054600160a060020a039092169163fb7f972c91339185908110610f8957610f89612754565b90600052602060002090600d02016040518363ffffffff167c0100000000000000000000000000000000000000000000000000000000028152600401610fd092919061246d565b600060405180830381600087803b158015610fea57600080fd5b505af1158015610ffe573d6000803e3d6000fd5b5050505050565b600254600160a060020a031633146110325760405160e560020a62461bcd0281526004016106ff90612505565b600160a060020a0381166110b15760405160e560020a62461bcd02815260206004820152602660248201527f4f776e61626c653a206e6577206f776e657220697320746865207a65726f206160448201527f646472657373000000000000000000000000000000000000000000000000000060648201526084016106ff565b610943816117f1565b6108ec8282611c21565b600061099783600160a060020a038416611ca5565b6000600160e060020a031982167f7965db0b0000000000000000000000000000000000000000000000000000000014806105ab57507f01ffc9a700000000000000000000000000000000000000000000000000000000600160e060020a03198316146105ab565b600160a060020a0383166111be5760405160e560020a62461bcd028152602060048201526024808201527f45524332303a20617070726f76652066726f6d20746865207a65726f2061646460448201527f726573730000000000000000000000000000000000000000000000000000000060648201526084016106ff565b600160a060020a03821661123d5760405160e560020a62461bcd02815260206004820152602260248201527f45524332303a20617070726f766520746f20746865207a65726f20616464726560448201527f737300000000000000000000000000000000000000000000000000000000000060648201526084016106ff565b600160a060020a0383811660008181526004602090815260408083209487168084529482529182902085905590518481527f8c5be1e5ebec7d5bd14f71427d1e84f3dd0314c0f7b2291e5b200ac8c7c3b925910160405180910390a3505050565b600160a060020a03831661131d5760405160e560020a62461bcd02815260206004820152602560248201527f45524332303a207472616e736665722066726f6d20746865207a65726f20616460448201527f647265737300000000000000000000000000000000000000000000000000000060648201526084016106ff565b600160a060020a03821661139c5760405160e560020a62461bcd02815260206004820152602360248201527f45524332303a207472616e7366657220746f20746865207a65726f206164647260448201527f657373000000000000000000000000000000000000000000000000000000000060648201526084016106ff565b600160a060020a0383166000908152600360205260409020548181101561142e5760405160e560020a62461bcd02815260206004820152602660248201527f45524332303a207472616e7366657220616d6f756e742065786365656473206260448201527f616c616e6365000000000000000000000000000000000000000000000000000060648201526084016106ff565b600160a060020a03808516600090815260036020526040808220858503905591851681529081208054849290611465908490612638565b9250508190555082600160a060020a031684600160a060020a03167fddf252ad1be2c89b69c2b068fc378daa952ba7f163c4a11628f55a4df523b3ef846040516114b191815260200190565b60405180910390a3610b14565b6000828152602081905260409020600101546114da8133611cf4565b6107e08383611c21565b600160a060020a03811633146115655760405160e560020a62461bcd02815260206004820152602f60248201527f416363657373436f6e74726f6c3a2063616e206f6e6c792072656e6f756e636560448201527f20726f6c657320666f722073656c66000000000000000000000000000000000060648201526084016106ff565b6108ec8282611d5b565b600061099783600160a060020a038416611dc0565b600160a060020a0382166115dd5760405160e560020a62461bcd02815260206004820152601f60248201527f45524332303a206d696e7420746f20746865207a65726f20616464726573730060448201526064016106ff565b80600560008282546115ef9190612638565b9091555050600160a060020a0382166000908152600360205260408120805483929061161c908490612638565b9091555050604051818152600160a060020a038316906000907fddf252ad1be2c89b69c2b068fc378daa952ba7f163c4a11628f55a4df523b3ef9060200160405180910390a35050565b600160a060020a0382166116e55760405160e560020a62461bcd02815260206004820152602160248201527f45524332303a206275726e2066726f6d20746865207a65726f2061646472657360448201527f730000000000000000000000000000000000000000000000000000000000000060648201526084016106ff565b600160a060020a038216600090815260036020526040902054818110156117775760405160e560020a62461bcd02815260206004820152602260248201527f45524332303a206275726e20616d6f756e7420657863656564732062616c616e60448201527f636500000000000000000000000000000000000000000000000000000000000060648201526084016106ff565b600160a060020a03831660009081526003602052604081208383039055600580548492906117a690849061266f565b9091555050604051828152600090600160a060020a038516907fddf252ad1be2c89b69c2b068fc378daa952ba7f163c4a11628f55a4df523b3ef9060200160405180910390a3505050565b60028054600160a060020a0383811673ffffffffffffffffffffffffffffffffffffffff19831681179093556040519116919082907f8be0079c531659141344cd1fd0a4f28419497f9722a3daafe3b4186f6b6457e090600090a35050565b60006109978383611eb3565b6000805b600954811015611be8576009818154811061187d5761187d612754565b60009182526020909120600d909102015483511480156118c45750600981815481106118ab576118ab612754565b90600052602060002090600d0201600101548360200151145b80156118f75750600981815481106118de576118de612754565b90600052602060002090600d0201600201548360400151145b801561192d57506009818154811061191157611911612754565b600091825260209091206003600d909202010154606084015151145b801561197757506009818154811061194757611947612754565b90600052602060002090600d02016003016001600a811061196a5761196a612754565b0154606084015160200151145b80156119c157506009818154811061199157611991612754565b90600052602060002090600d02016003016002600a81106119b4576119b4612754565b0154606084015160400151145b8015611a0a5750600981815481106119db576119db612754565b90600052602060002090600d02016003016003600a81106119fe576119fe612754565b01546060848101510151145b8015611a54575060098181548110611a2457611a24612754565b90600052602060002090600d02016003016004600a8110611a4757611a47612754565b0154606084015160800151145b8015611a9e575060098181548110611a6e57611a6e612754565b90600052602060002090600d02016003016005600a8110611a9157611a91612754565b0154606084015160a00151145b8015611ae8575060098181548110611ab857611ab8612754565b90600052602060002090600d02016003016006600a8110611adb57611adb612754565b0154606084015160c00151145b8015611b32575060098181548110611b0257611b02612754565b90600052602060002090600d02016003016007600a8110611b2557611b25612754565b0154606084015160e00151145b8015611b7d575060098181548110611b4c57611b4c612754565b90600052602060002090600d02016003016008600a8110611b6f57611b6f612754565b015460608401516101000151145b8015611bc8575060098181548110611b9757611b97612754565b90600052602060002090600d02016003016009600a8110611bba57611bba612754565b015460608401516101200151145b15611bd65750600192915050565b80611be081612707565b915050611860565b50600092915050565b60006105ab825490565b600082815260208190526040902060010154611c178133611cf4565b6107e08383611d5b565b611c2b828261099e565b6108ec57600082815260208181526040808320600160a060020a03851684529091529020805460ff19166001179055611c613390565b600160a060020a031681600160a060020a0316837f2f8788117e7eff1d82e926ec794901d17c78024a50270940304540a733656f0d60405160405180910390a45050565b6000818152600183016020526040812054611cec575081546001818101845560008481526020808220909301849055845484825282860190935260409020919091556105ab565b5060006105ab565b611cfe828261099e565b6108ec57611d1681600160a060020a03166014611edd565b611d21836020611edd565b604051602001611d329291906123ec565b60408051601f198184030181529082905260e560020a62461bcd0282526106ff916004016124d2565b611d65828261099e565b156108ec57600082815260208181526040808320600160a060020a0385168085529252808320805460ff1916905551339285917ff6391f5c32d9c69d2a47ea670b442974b53935d1edc7fd64eb21e047a839171b9190a45050565b60008181526001830160205260408120548015611ea9576000611de460018361266f565b8554909150600090611df89060019061266f565b9050818114611e5d576000866000018281548110611e1857611e18612754565b9060005260206000200154905080876000018481548110611e3b57611e3b612754565b6000918252602080832090910192909255918252600188019052604090208390555b8554869080611e6e57611e6e61273b565b6001900381819060005260206000200160009055905585600101600086815260200190815260200160002060009055600193505050506105ab565b60009150506105ab565b6000826000018281548110611eca57611eca612754565b9060005260206000200154905092915050565b60606000611eec836002612650565b611ef7906002612638565b67ffffffffffffffff811115611f0f57611f0f61276d565b6040519080825280601f01601f191660200182016040528015611f39576020820181803683370190505b5090507f300000000000000000000000000000000000000000000000000000000000000081600081518110611f7057611f70612754565b60200101907effffffffffffffffffffffffffffffffffffffffffffffffffffffffffffff1916908160001a9053507f780000000000000000000000000000000000000000000000000000000000000081600181518110611fd357611fd3612754565b60200101907effffffffffffffffffffffffffffffffffffffffffffffffffffffffffffff1916908160001a905350600061200f846002612650565b61201a906001612638565b90505b60018111156120d5577f303132333435363738396162636465660000000000000000000000000000000085600f166010811061205b5761205b612754565b1a7f01000000000000000000000000000000000000000000000000000000000000000282828151811061209057612090612754565b60200101907effffffffffffffffffffffffffffffffffffffffffffffffffffffffffffff1916908160001a9053506010909404936120ce816126b2565b905061201d565b5083156109975760405160e560020a62461bcd02815260206004820181905260248201527f537472696e67733a20686578206c656e67746820696e73756666696369656e7460448201526064016106ff565b604051806080016040528060008152602001600081526020016000815260200161214f6121cc565b905290565b82600a8101928215612182579160200282015b82811115612182578251825591602001919060010190612167565b5061218e9291506121eb565b5090565b82600a8101928215612182579182015b828111156121825782548255916001019190600101906121a2565b5061094390600a8101906121eb565b604051806101400160405280600a906020820280368337509192915050565b5b8082111561218e57600081556001016121ec565b8035600160a060020a038116811461221757600080fd5b919050565b60006020828403121561222e57600080fd5b61099782612200565b6000806040838503121561224a57600080fd5b61225383612200565b915061226160208401612200565b90509250929050565b60008060006060848603121561227f57600080fd5b61228884612200565b925061229660208501612200565b9150604084013590509250925092565b600080604083850312156122b957600080fd5b6122c283612200565b946020939093013593505050565b6000602082840312156122e257600080fd5b5035919050565b600080604083850312156122fc57600080fd5b8235915061226160208401612200565b6000806040838503121561231f57600080fd5b50508035926020909101359150565b60006020828403121561234057600080fd5b8135600160e060020a03198116811461099757600080fd5b60006101a080838503121561236c57600080fd5b6123746125eb565b83358152602080850135818301526040850135604083015285607f86011261239b57600080fd5b6123a3612614565b80606087018886890111156123b757600080fd5b600095505b600a8610156123db5780358352600195909501949183019183016123bc565b506060840152509095945050505050565b7f416363657373436f6e74726f6c3a206163636f756e7420000000000000000000815260008351612424816017850160208801612686565b7f206973206d697373696e6720726f6c65200000000000000000000000000000006017918401918201528351612461816028840160208801612686565b01602801949350505050565b60006101c082019050600160a060020a03841682526020835481840152600180850154604085015260028501546060850152608084016003860160005b600a8110156124c65781548352918401919083019083016124aa565b50505050509392505050565b60208152600082518060208401526124f1816040850160208701612686565b601f01601f19169190910160400192915050565b6020808252818101527f4f776e61626c653a2063616c6c6572206973206e6f7420746865206f776e6572604082015260600190565b60208082526028908201527f457863657074696f6e3a206d7573742068617665206275726e657220726f6c6560408201527f20746f206275726e000000000000000000000000000000000000000000000000606082015260800190565b60006101a08201905082518252602080840151818401526040840151604084015260608401516060840160005b600a8110156125e1578251825291830191908301906001016125c4565b5050505092915050565b6040516080810167ffffffffffffffff8111828210171561260e5761260e61276d565b60405290565b604051610140810167ffffffffffffffff8111828210171561260e5761260e61276d565b6000821982111561264b5761264b612722565b500190565b600081600019048311821515161561266a5761266a612722565b500290565b60008282101561268157612681612722565b500390565b60005b838110156126a1578181015183820152602001612689565b83811115610b145750506000910152565b6000816126c1576126c1612722565b506000190190565b6002810460018216806126dd57607f821691505b602082108114156127015760e060020a634e487b7102600052602260045260246000fd5b50919050565b600060001982141561271b5761271b612722565b5060010190565b60e060020a634e487b7102600052601160045260246000fd5b60e060020a634e487b7102600052603160045260246000fd5b60e060020a634e487b7102600052603260045260246000fd5b60e060020a634e487b7102600052604160045260246000fdfea264697066735822122047c94a569b7cb1733112d15a9aad6b02ed59ebb34db8a0106dce671501f3282e64736f6c63430008060033",
  "immutableReferences": {},
  "source": "//SPDX-License-Identifier: MIT\n\npragma solidity ^0.8.0;\n\nimport \"@openzeppelin/contracts/token/ERC20/ERC20.sol\";\nimport \"@openzeppelin/contracts/access/Ownable.sol\";\nimport \"@openzeppelin/contracts/access/AccessControlEnumerable.sol\";\nimport \"@openzeppelin/contracts/utils/Context.sol\";\n\nimport \"./Equipment.sol\";\n\n    //***********************************\n    // SETUP AFTER DEPLOY\n    //***********************************\n    //SET EQUIPMENT ADDRESS\n    //SET MINTER_ROLE FOR EQUIPMENT\n    //***********************************\n    //\n    // This SC also holds the functionality \n    // of the STORE\n    //\n    //***********************************\n\ncontract GameCoin is Context, AccessControlEnumerable, Ownable, ERC20 {\n\n    bytes32 public constant MINTER_ROLE = keccak256(\"MINTER_ROLE\");\n    bytes32 public constant BURNER_ROLE = keccak256(\"BURNER_ROLE\");\n\n    //Equipment Address\n    Equipment private _equipment;\n\n    //Gear offered in the stores\n    //Administrators may update, delete or modify the content\n    //The store should read this array and populate the store acording to it\n    Equipment.gearStats[] public storeGear;\n\n    constructor(uint256 initialSupply) ERC20( \"Chains of Gloty Token\", \"CGT\") {\n        _setupRole(DEFAULT_ADMIN_ROLE, _msgSender());\n\n        _setupRole(MINTER_ROLE, _msgSender());\n        _setupRole(BURNER_ROLE, _msgSender());\n\n        _mint(msg.sender, initialSupply);\n    }\n\n    function decimals() public pure override returns (uint8) {\n\t\treturn 0;\n\t}\n\n    function mint(address to, uint256 amount) public virtual {\n        require(hasRole(MINTER_ROLE, _msgSender()), \"Exception: must have minter role to mint\");\n        _mint(to, amount);\n    }\n\n    function burn(uint256 amount) public virtual {\n        require(hasRole(BURNER_ROLE, _msgSender()), \"Exception: must have burner role to burn\");\n        _burn(_msgSender(), amount);\n    }\n\n    function burn(address from, uint256 amount) public virtual {\n        require(hasRole(BURNER_ROLE, _msgSender()), \"Exception: must have burner role to burn\");\n        _burn(from, amount);\n    }\n\n    //GameToken Token Address\n    function setEquipmentAddress(address equipmentAddress) public onlyOwner {\n        _equipment=Equipment(equipmentAddress);\n    }\n\n    //STORE FUNCTIONALITY\n    //\n    //Store is where the user pay in-game tokens for equipment\n\n    //Add an element to the store array\n    function addGearToStore(Equipment.gearStats memory gear) public onlyOwner {\n        require(!gearExistsInStore(gear), \"Element exists in the array\");\n        storeGear.push(gear);\n    }\n\n\n    //Remove an element from the store array\n    function removeGearFromStore(uint256 index) public onlyOwner {\n        require(index < storeGear.length, \"Index out of bounds\");\n\n        storeGear[index]= storeGear[ storeGear.length-1];\n        storeGear.pop();\n    }\n\n    //Returns especific item\n    function getEquipmentData(uint256 index) public view returns(Equipment.gearStats memory) {\n        return storeGear[index];\n    }\n\n    //Returns especific item\n    function getEquipmentPrice(uint256 index) public view returns(uint256) {\n        return storeGear[index].stats[9];\n    }\n\n    //Manages the purchase\n    function purchase(uint256 index) public {\n        require(index < storeGear.length, \"Index out of bounds\");        \n        require(transfer(address(this), storeGear[index].stats[9]), \"Transfer fail\");\n\n        //Mint the gear to the payer\n        _equipment.mint(msg.sender, storeGear[index]);\n    }\n\n    function gearExistsInStore(Equipment.gearStats memory gear) internal view returns (bool) {\n        for(uint i=0; i<storeGear.length; i++) {\n            if( gear.class==storeGear[i].class &&\n                gear.slot==storeGear[i].slot &&\n                gear.level==storeGear[i].level &&\n                gear.stats[0]==storeGear[i].stats[0] &&\n                gear.stats[1]==storeGear[i].stats[1] &&\n                gear.stats[2]==storeGear[i].stats[2] &&\n                gear.stats[3]==storeGear[i].stats[3] &&\n                gear.stats[4]==storeGear[i].stats[4] &&\n                gear.stats[5]==storeGear[i].stats[5] &&\n                gear.stats[6]==storeGear[i].stats[6] &&\n                gear.stats[7]==storeGear[i].stats[7] &&\n                gear.stats[8]==storeGear[i].stats[8] &&\n                gear.stats[9]==storeGear[i].stats[9]\n                )\n                    return true;\n        }\n        return false;\n    }\n}",
  "sourcePath": "/home/javi/ChainsOfGlory/contracts/GameCoin.sol",
  "compiler": {
    "name": "solc",
    "version": "0.8.6+commit.11564f7e.Emscripten.clang"
  },
  "schemaVersion": "3.4.3",
  "updatedAt": "2021-11-24T11:30:44.083Z",
  "networkType": "ethereum",
  "devdoc": {
    "kind": "dev",
    "methods": {
      "allowance(address,address)": {
        "details": "See {IERC20-allowance}."
      },
      "approve(address,uint256)": {
        "details": "See {IERC20-approve}. Requirements: - `spender` cannot be the zero address."
      },
      "balanceOf(address)": {
        "details": "See {IERC20-balanceOf}."
      },
      "decimals()": {
        "details": "Returns the number of decimals used to get its user representation. For example, if `decimals` equals `2`, a balance of `505` tokens should be displayed to a user as `5.05` (`505 / 10 ** 2`). Tokens usually opt for a value of 18, imitating the relationship between Ether and Wei. This is the value {ERC20} uses, unless this function is overridden; NOTE: This information is only used for _display_ purposes: it in no way affects any of the arithmetic of the contract, including {IERC20-balanceOf} and {IERC20-transfer}."
      },
      "decreaseAllowance(address,uint256)": {
        "details": "Atomically decreases the allowance granted to `spender` by the caller. This is an alternative to {approve} that can be used as a mitigation for problems described in {IERC20-approve}. Emits an {Approval} event indicating the updated allowance. Requirements: - `spender` cannot be the zero address. - `spender` must have allowance for the caller of at least `subtractedValue`."
      },
      "getRoleAdmin(bytes32)": {
        "details": "Returns the admin role that controls `role`. See {grantRole} and {revokeRole}. To change a role's admin, use {_setRoleAdmin}."
      },
      "getRoleMember(bytes32,uint256)": {
        "details": "Returns one of the accounts that have `role`. `index` must be a value between 0 and {getRoleMemberCount}, non-inclusive. Role bearers are not sorted in any particular way, and their ordering may change at any point. WARNING: When using {getRoleMember} and {getRoleMemberCount}, make sure you perform all queries on the same block. See the following https://forum.openzeppelin.com/t/iterating-over-elements-on-enumerableset-in-openzeppelin-contracts/2296[forum post] for more information."
      },
      "getRoleMemberCount(bytes32)": {
        "details": "Returns the number of accounts that have `role`. Can be used together with {getRoleMember} to enumerate all bearers of a role."
      },
      "grantRole(bytes32,address)": {
        "details": "Overload {grantRole} to track enumerable memberships"
      },
      "hasRole(bytes32,address)": {
        "details": "Returns `true` if `account` has been granted `role`."
      },
      "increaseAllowance(address,uint256)": {
        "details": "Atomically increases the allowance granted to `spender` by the caller. This is an alternative to {approve} that can be used as a mitigation for problems described in {IERC20-approve}. Emits an {Approval} event indicating the updated allowance. Requirements: - `spender` cannot be the zero address."
      },
      "name()": {
        "details": "Returns the name of the token."
      },
      "owner()": {
        "details": "Returns the address of the current owner."
      },
      "renounceOwnership()": {
        "details": "Leaves the contract without owner. It will not be possible to call `onlyOwner` functions anymore. Can only be called by the current owner. NOTE: Renouncing ownership will leave the contract without an owner, thereby removing any functionality that is only available to the owner."
      },
      "renounceRole(bytes32,address)": {
        "details": "Overload {renounceRole} to track enumerable memberships"
      },
      "revokeRole(bytes32,address)": {
        "details": "Overload {revokeRole} to track enumerable memberships"
      },
      "supportsInterface(bytes4)": {
        "details": "See {IERC165-supportsInterface}."
      },
      "symbol()": {
        "details": "Returns the symbol of the token, usually a shorter version of the name."
      },
      "totalSupply()": {
        "details": "See {IERC20-totalSupply}."
      },
      "transfer(address,uint256)": {
        "details": "See {IERC20-transfer}. Requirements: - `recipient` cannot be the zero address. - the caller must have a balance of at least `amount`."
      },
      "transferFrom(address,address,uint256)": {
        "details": "See {IERC20-transferFrom}. Emits an {Approval} event indicating the updated allowance. This is not required by the EIP. See the note at the beginning of {ERC20}. Requirements: - `sender` and `recipient` cannot be the zero address. - `sender` must have a balance of at least `amount`. - the caller must have allowance for ``sender``'s tokens of at least `amount`."
      },
      "transferOwnership(address)": {
        "details": "Transfers ownership of the contract to a new account (`newOwner`). Can only be called by the current owner."
      }
    },
    "version": 1
  },
  "userdoc": {
    "kind": "user",
    "methods": {},
    "version": 1
  }
}