{
  "contractName": "GameCoin",
  "abi": [
    {
      "inputs": [
        {
          "internalType": "uint256",
          "name": "initialSupply",
          "type": "uint256"
        }
      ],
      "stateMutability": "nonpayable",
      "type": "constructor"
    },
    {
      "anonymous": false,
      "inputs": [
        {
          "indexed": true,
          "internalType": "address",
          "name": "owner",
          "type": "address"
        },
        {
          "indexed": true,
          "internalType": "address",
          "name": "spender",
          "type": "address"
        },
        {
          "indexed": false,
          "internalType": "uint256",
          "name": "value",
          "type": "uint256"
        }
      ],
      "name": "Approval",
      "type": "event"
    },
    {
      "anonymous": false,
      "inputs": [
        {
          "indexed": true,
          "internalType": "address",
          "name": "previousOwner",
          "type": "address"
        },
        {
          "indexed": true,
          "internalType": "address",
          "name": "newOwner",
          "type": "address"
        }
      ],
      "name": "OwnershipTransferred",
      "type": "event"
    },
    {
      "anonymous": false,
      "inputs": [
        {
          "indexed": true,
          "internalType": "bytes32",
          "name": "role",
          "type": "bytes32"
        },
        {
          "indexed": true,
          "internalType": "bytes32",
          "name": "previousAdminRole",
          "type": "bytes32"
        },
        {
          "indexed": true,
          "internalType": "bytes32",
          "name": "newAdminRole",
          "type": "bytes32"
        }
      ],
      "name": "RoleAdminChanged",
      "type": "event"
    },
    {
      "anonymous": false,
      "inputs": [
        {
          "indexed": true,
          "internalType": "bytes32",
          "name": "role",
          "type": "bytes32"
        },
        {
          "indexed": true,
          "internalType": "address",
          "name": "account",
          "type": "address"
        },
        {
          "indexed": true,
          "internalType": "address",
          "name": "sender",
          "type": "address"
        }
      ],
      "name": "RoleGranted",
      "type": "event"
    },
    {
      "anonymous": false,
      "inputs": [
        {
          "indexed": true,
          "internalType": "bytes32",
          "name": "role",
          "type": "bytes32"
        },
        {
          "indexed": true,
          "internalType": "address",
          "name": "account",
          "type": "address"
        },
        {
          "indexed": true,
          "internalType": "address",
          "name": "sender",
          "type": "address"
        }
      ],
      "name": "RoleRevoked",
      "type": "event"
    },
    {
      "anonymous": false,
      "inputs": [
        {
          "indexed": true,
          "internalType": "address",
          "name": "from",
          "type": "address"
        },
        {
          "indexed": true,
          "internalType": "address",
          "name": "to",
          "type": "address"
        },
        {
          "indexed": false,
          "internalType": "uint256",
          "name": "value",
          "type": "uint256"
        }
      ],
      "name": "Transfer",
      "type": "event"
    },
    {
      "inputs": [],
      "name": "BURNER_ROLE",
      "outputs": [
        {
          "internalType": "bytes32",
          "name": "",
          "type": "bytes32"
        }
      ],
      "stateMutability": "view",
      "type": "function"
    },
    {
      "inputs": [],
      "name": "DEFAULT_ADMIN_ROLE",
      "outputs": [
        {
          "internalType": "bytes32",
          "name": "",
          "type": "bytes32"
        }
      ],
      "stateMutability": "view",
      "type": "function"
    },
    {
      "inputs": [],
      "name": "MINTER_ROLE",
      "outputs": [
        {
          "internalType": "bytes32",
          "name": "",
          "type": "bytes32"
        }
      ],
      "stateMutability": "view",
      "type": "function"
    },
    {
      "inputs": [
        {
          "internalType": "address",
          "name": "owner",
          "type": "address"
        },
        {
          "internalType": "address",
          "name": "spender",
          "type": "address"
        }
      ],
      "name": "allowance",
      "outputs": [
        {
          "internalType": "uint256",
          "name": "",
          "type": "uint256"
        }
      ],
      "stateMutability": "view",
      "type": "function"
    },
    {
      "inputs": [
        {
          "internalType": "address",
          "name": "spender",
          "type": "address"
        },
        {
          "internalType": "uint256",
          "name": "amount",
          "type": "uint256"
        }
      ],
      "name": "approve",
      "outputs": [
        {
          "internalType": "bool",
          "name": "",
          "type": "bool"
        }
      ],
      "stateMutability": "nonpayable",
      "type": "function"
    },
    {
      "inputs": [
        {
          "internalType": "address",
          "name": "account",
          "type": "address"
        }
      ],
      "name": "balanceOf",
      "outputs": [
        {
          "internalType": "uint256",
          "name": "",
          "type": "uint256"
        }
      ],
      "stateMutability": "view",
      "type": "function"
    },
    {
      "inputs": [
        {
          "internalType": "address",
          "name": "spender",
          "type": "address"
        },
        {
          "internalType": "uint256",
          "name": "subtractedValue",
          "type": "uint256"
        }
      ],
      "name": "decreaseAllowance",
      "outputs": [
        {
          "internalType": "bool",
          "name": "",
          "type": "bool"
        }
      ],
      "stateMutability": "nonpayable",
      "type": "function"
    },
    {
      "inputs": [
        {
          "internalType": "bytes32",
          "name": "role",
          "type": "bytes32"
        }
      ],
      "name": "getRoleAdmin",
      "outputs": [
        {
          "internalType": "bytes32",
          "name": "",
          "type": "bytes32"
        }
      ],
      "stateMutability": "view",
      "type": "function"
    },
    {
      "inputs": [
        {
          "internalType": "bytes32",
          "name": "role",
          "type": "bytes32"
        },
        {
          "internalType": "uint256",
          "name": "index",
          "type": "uint256"
        }
      ],
      "name": "getRoleMember",
      "outputs": [
        {
          "internalType": "address",
          "name": "",
          "type": "address"
        }
      ],
      "stateMutability": "view",
      "type": "function"
    },
    {
      "inputs": [
        {
          "internalType": "bytes32",
          "name": "role",
          "type": "bytes32"
        }
      ],
      "name": "getRoleMemberCount",
      "outputs": [
        {
          "internalType": "uint256",
          "name": "",
          "type": "uint256"
        }
      ],
      "stateMutability": "view",
      "type": "function"
    },
    {
      "inputs": [
        {
          "internalType": "bytes32",
          "name": "role",
          "type": "bytes32"
        },
        {
          "internalType": "address",
          "name": "account",
          "type": "address"
        }
      ],
      "name": "grantRole",
      "outputs": [],
      "stateMutability": "nonpayable",
      "type": "function"
    },
    {
      "inputs": [
        {
          "internalType": "bytes32",
          "name": "role",
          "type": "bytes32"
        },
        {
          "internalType": "address",
          "name": "account",
          "type": "address"
        }
      ],
      "name": "hasRole",
      "outputs": [
        {
          "internalType": "bool",
          "name": "",
          "type": "bool"
        }
      ],
      "stateMutability": "view",
      "type": "function"
    },
    {
      "inputs": [
        {
          "internalType": "address",
          "name": "spender",
          "type": "address"
        },
        {
          "internalType": "uint256",
          "name": "addedValue",
          "type": "uint256"
        }
      ],
      "name": "increaseAllowance",
      "outputs": [
        {
          "internalType": "bool",
          "name": "",
          "type": "bool"
        }
      ],
      "stateMutability": "nonpayable",
      "type": "function"
    },
    {
      "inputs": [],
      "name": "name",
      "outputs": [
        {
          "internalType": "string",
          "name": "",
          "type": "string"
        }
      ],
      "stateMutability": "view",
      "type": "function"
    },
    {
      "inputs": [],
      "name": "owner",
      "outputs": [
        {
          "internalType": "address",
          "name": "",
          "type": "address"
        }
      ],
      "stateMutability": "view",
      "type": "function"
    },
    {
      "inputs": [],
      "name": "renounceOwnership",
      "outputs": [],
      "stateMutability": "nonpayable",
      "type": "function"
    },
    {
      "inputs": [
        {
          "internalType": "bytes32",
          "name": "role",
          "type": "bytes32"
        },
        {
          "internalType": "address",
          "name": "account",
          "type": "address"
        }
      ],
      "name": "renounceRole",
      "outputs": [],
      "stateMutability": "nonpayable",
      "type": "function"
    },
    {
      "inputs": [
        {
          "internalType": "bytes32",
          "name": "role",
          "type": "bytes32"
        },
        {
          "internalType": "address",
          "name": "account",
          "type": "address"
        }
      ],
      "name": "revokeRole",
      "outputs": [],
      "stateMutability": "nonpayable",
      "type": "function"
    },
    {
      "inputs": [
        {
          "internalType": "uint256",
          "name": "",
          "type": "uint256"
        }
      ],
      "name": "storeGear",
      "outputs": [
        {
          "internalType": "uint256",
          "name": "class",
          "type": "uint256"
        },
        {
          "internalType": "uint256",
          "name": "slot",
          "type": "uint256"
        },
        {
          "internalType": "uint256",
          "name": "level",
          "type": "uint256"
        }
      ],
      "stateMutability": "view",
      "type": "function"
    },
    {
      "inputs": [
        {
          "internalType": "bytes4",
          "name": "interfaceId",
          "type": "bytes4"
        }
      ],
      "name": "supportsInterface",
      "outputs": [
        {
          "internalType": "bool",
          "name": "",
          "type": "bool"
        }
      ],
      "stateMutability": "view",
      "type": "function"
    },
    {
      "inputs": [],
      "name": "symbol",
      "outputs": [
        {
          "internalType": "string",
          "name": "",
          "type": "string"
        }
      ],
      "stateMutability": "view",
      "type": "function"
    },
    {
      "inputs": [],
      "name": "totalSupply",
      "outputs": [
        {
          "internalType": "uint256",
          "name": "",
          "type": "uint256"
        }
      ],
      "stateMutability": "view",
      "type": "function"
    },
    {
      "inputs": [
        {
          "internalType": "address",
          "name": "recipient",
          "type": "address"
        },
        {
          "internalType": "uint256",
          "name": "amount",
          "type": "uint256"
        }
      ],
      "name": "transfer",
      "outputs": [
        {
          "internalType": "bool",
          "name": "",
          "type": "bool"
        }
      ],
      "stateMutability": "nonpayable",
      "type": "function"
    },
    {
      "inputs": [
        {
          "internalType": "address",
          "name": "sender",
          "type": "address"
        },
        {
          "internalType": "address",
          "name": "recipient",
          "type": "address"
        },
        {
          "internalType": "uint256",
          "name": "amount",
          "type": "uint256"
        }
      ],
      "name": "transferFrom",
      "outputs": [
        {
          "internalType": "bool",
          "name": "",
          "type": "bool"
        }
      ],
      "stateMutability": "nonpayable",
      "type": "function"
    },
    {
      "inputs": [
        {
          "internalType": "address",
          "name": "newOwner",
          "type": "address"
        }
      ],
      "name": "transferOwnership",
      "outputs": [],
      "stateMutability": "nonpayable",
      "type": "function"
    },
    {
      "inputs": [],
      "name": "decimals",
      "outputs": [
        {
          "internalType": "uint8",
          "name": "",
          "type": "uint8"
        }
      ],
      "stateMutability": "pure",
      "type": "function"
    },
    {
      "inputs": [
        {
          "internalType": "address",
          "name": "to",
          "type": "address"
        },
        {
          "internalType": "uint256",
          "name": "amount",
          "type": "uint256"
        }
      ],
      "name": "mint",
      "outputs": [],
      "stateMutability": "nonpayable",
      "type": "function"
    },
    {
      "inputs": [
        {
          "internalType": "uint256",
          "name": "amount",
          "type": "uint256"
        }
      ],
      "name": "burn",
      "outputs": [],
      "stateMutability": "nonpayable",
      "type": "function"
    },
    {
      "inputs": [
        {
          "internalType": "address",
          "name": "from",
          "type": "address"
        },
        {
          "internalType": "uint256",
          "name": "amount",
          "type": "uint256"
        }
      ],
      "name": "burn",
      "outputs": [],
      "stateMutability": "nonpayable",
      "type": "function"
    },
    {
      "inputs": [
        {
          "internalType": "address",
          "name": "equipmentAddress",
          "type": "address"
        }
      ],
      "name": "setEquipmentAddress",
      "outputs": [],
      "stateMutability": "nonpayable",
      "type": "function"
    },
    {
      "inputs": [
        {
          "components": [
            {
              "internalType": "uint256",
              "name": "class",
              "type": "uint256"
            },
            {
              "internalType": "uint256",
              "name": "slot",
              "type": "uint256"
            },
            {
              "internalType": "uint256",
              "name": "level",
              "type": "uint256"
            },
            {
              "internalType": "uint256[10]",
              "name": "stats",
              "type": "uint256[10]"
            }
          ],
          "internalType": "struct Equipment.gearStats",
          "name": "gear",
          "type": "tuple"
        }
      ],
      "name": "addGearToStore",
      "outputs": [],
      "stateMutability": "nonpayable",
      "type": "function"
    },
    {
      "inputs": [
        {
          "internalType": "uint256",
          "name": "index",
          "type": "uint256"
        }
      ],
      "name": "removeGearFromStore",
      "outputs": [],
      "stateMutability": "nonpayable",
      "type": "function"
    },
    {
      "inputs": [],
      "name": "getEquipmentLength",
      "outputs": [
        {
          "internalType": "uint256",
          "name": "",
          "type": "uint256"
        }
      ],
      "stateMutability": "view",
      "type": "function"
    },
    {
      "inputs": [
        {
          "internalType": "uint256",
          "name": "index",
          "type": "uint256"
        }
      ],
      "name": "getEquipmentData",
      "outputs": [
        {
          "components": [
            {
              "internalType": "uint256",
              "name": "class",
              "type": "uint256"
            },
            {
              "internalType": "uint256",
              "name": "slot",
              "type": "uint256"
            },
            {
              "internalType": "uint256",
              "name": "level",
              "type": "uint256"
            },
            {
              "internalType": "uint256[10]",
              "name": "stats",
              "type": "uint256[10]"
            }
          ],
          "internalType": "struct Equipment.gearStats",
          "name": "",
          "type": "tuple"
        }
      ],
      "stateMutability": "view",
      "type": "function"
    },
    {
      "inputs": [
        {
          "internalType": "uint256",
          "name": "index",
          "type": "uint256"
        }
      ],
      "name": "getEquipmentPrice",
      "outputs": [
        {
          "internalType": "uint256",
          "name": "",
          "type": "uint256"
        }
      ],
      "stateMutability": "view",
      "type": "function"
    },
    {
      "inputs": [
        {
          "internalType": "uint256",
          "name": "index",
          "type": "uint256"
        }
      ],
      "name": "purchase",
      "outputs": [],
      "stateMutability": "nonpayable",
      "type": "function"
    }
  ],
  "bytecode": "0x60806040523480156200001157600080fd5b5060405162002e2538038062002e25833981016040819052620000349162000596565b6040518060400160405280601581526020017f436861696e73206f6620476c6f747920546f6b656e00000000000000000000008152506040518060400160405280600381526020017f4347540000000000000000000000000000000000000000000000000000000000815250620000cc620000bd620001b0640100000000026401000000009004565b640100000000620001b4810204565b8151620000e1906006906020850190620004f0565b508051620000f7906007906020840190620004f0565b506200012491506000905062000115640100000000620001b0810204565b64010000000062000206810204565b6200015c7f9f2df0fed2c77648de5860a4cc508cd0818c85b8b8a1ab4ceeef8d981c8956a662000115640100000000620001b0810204565b620001947f3c11d16cbaffd01df69ce1c404f6340ee057498f5f00246190ea54220576a84862000115640100000000620001b0810204565b620001a933826401000000006200024d810204565b5062000646565b3390565b60028054600160a060020a03838116600160a060020a0319831681179093556040519116919082907f8be0079c531659141344cd1fd0a4f28419497f9722a3daafe3b4186f6b6457e090600090a35050565b620002208282640100000000620010cd6200037d82021704565b6000828152600160205260409020620002489082640100000000620010d76200039282021704565b505050565b600160a060020a038216620002c2576040517f08c379a000000000000000000000000000000000000000000000000000000000815260206004820152601f60248201527f45524332303a206d696e7420746f20746865207a65726f206164647265737300604482015260640160405180910390fd5b620002d96000838364010000000062000248810204565b8060056000828254620002ed9190620005b0565b9091555050600160a060020a038216600090815260036020526040812080548392906200031c908490620005b0565b9091555050604051818152600160a060020a038316906000907fddf252ad1be2c89b69c2b068fc378daa952ba7f163c4a11628f55a4df523b3ef9060200160405180910390a3620003796000838364010000000062000248810204565b5050565b620003798282640100000000620003bb810204565b6000620003b283600160a060020a03841664010000000062000457810204565b90505b92915050565b620003d08282640100000000620004af810204565b6200037957600082815260208181526040808320600160a060020a03851684529091529020805460ff1916600117905562000413640100000000620001b0810204565b600160a060020a031681600160a060020a0316837f2f8788117e7eff1d82e926ec794901d17c78024a50270940304540a733656f0d60405160405180910390a45050565b60006200046e8383640100000000620004d8810204565b620004a657508154600181810184556000848152602080822090930184905584548482528286019093526040902091909155620003b5565b506000620003b5565b600091825260208281526040808420600160a060020a0393909316845291905290205460ff1690565b60009081526001919091016020526040902054151590565b828054620004fe90620005f0565b90600052602060002090601f0160209004810192826200052257600085556200056d565b82601f106200053d57805160ff19168380011785556200056d565b828001600101855582156200056d579182015b828111156200056d57825182559160200191906001019062000550565b506200057b9291506200057f565b5090565b5b808211156200057b576000815560010162000580565b600060208284031215620005a957600080fd5b5051919050565b60008219821115620005eb577f4e487b7100000000000000000000000000000000000000000000000000000000600052601160045260246000fd5b500190565b6002810460018216806200060557607f821691505b6020821081141562000640577f4e487b7100000000000000000000000000000000000000000000000000000000600052602260045260246000fd5b50919050565b6127cf80620006566000396000f3fe608060405234801561001057600080fd5b5060043610610239576000357c01000000000000000000000000000000000000000000000000000000009004806391d1485411610142578063a9059cbb116100ca578063d547741f11610099578063d547741f146104e0578063dc87a698146104f3578063dd62ed3e14610521578063efef39a11461055a578063f2fde38b1461056d57600080fd5b8063a9059cbb14610480578063c40e995814610493578063ca15c873146104a6578063d5391393146104b957600080fd5b80639dc29fac116101115780639dc29fac1461042c578063a217fddf1461043f578063a2846ad414610447578063a457c2d71461045a578063a84add181461046d57600080fd5b806391d14854146103f657806394553ff51461040957806395d89b411461041c5780639a7f62911461042457600080fd5b8063313ce567116101c557806342966c681161019457806342966c681461037a57806370a082311461038d578063715018a6146103b65780638da5cb5b146103be5780639010d07c146103e357600080fd5b8063313ce5671461033257806336568abe14610341578063395093511461035457806340c10f191461036757600080fd5b806323b872dd1161020c57806323b872dd146102a0578063248a9ca3146102b35780632777a046146102d6578063282c51f3146102f65780632f2ff15d1461031d57600080fd5b806301ffc9a71461023e57806306fdde0314610266578063095ea7b31461027b57806318160ddd1461028e575b600080fd5b61025161024c366004612341565b610580565b60405190151581526020015b60405180910390f35b61026e6105c4565b60405161025d91906124e5565b6102516102893660046122b9565b610656565b6005545b60405190815260200161025d565b6102516102ae36600461227d565b61066c565b6102926102c13660046122e3565b60009081526020819052604090206001015490565b6102e96102e43660046122e3565b610733565b60405161025d91906125aa565b6102927f3c11d16cbaffd01df69ce1c404f6340ee057498f5f00246190ea54220576a84881565b61033061032b3660046122fc565b6107d1565b005b6040516000815260200161025d565b61033061034f3660046122fc565b6107f8565b6102516103623660046122b9565b61081a565b6103306103753660046122b9565b610856565b6103306103883660046122e3565b610903565b61029261039b36600461222f565b600160a060020a031660009081526003602052604090205490565b610330610959565b600254600160a060020a03165b604051600160a060020a03909116815260200161025d565b6103cb6103f136600461231f565b610992565b6102516104043660046122fc565b6109b1565b61033061041736600461236b565b6109da565b61026e610b2d565b600954610292565b61033061043a3660046122b9565b610b3c565b610292600081565b61033061045536600461222f565b610b8f565b6102516104683660046122b9565b610beb565b61033061047b3660046122e3565b610c9f565b61025161048e3660046122b9565b610dec565b6102926104a13660046122e3565b610df9565b6102926104b43660046122e3565b610e39565b6102927f9f2df0fed2c77648de5860a4cc508cd0818c85b8b8a1ab4ceeef8d981c8956a681565b6103306104ee3660046122fc565b610e50565b6105066105013660046122e3565b610e5a565b6040805193845260208401929092529082015260600161025d565b61029261052f36600461224a565b600160a060020a03918216600090815260046020908152604080832093909416825291909152205490565b6103306105683660046122e3565b610e8d565b61033061057b36600461222f565b611018565b6000600160e060020a031982167f5a05180f0000000000000000000000000000000000000000000000000000000014806105be57506105be826110ec565b92915050565b6060600680546105d3906126dc565b80601f01602080910402602001604051908101604052809291908181526020018280546105ff906126dc565b801561064c5780601f106106215761010080835404028352916020019161064c565b820191906000526020600020905b81548152906001019060200180831161062f57829003601f168201915b5050505050905090565b6000610663338484611153565b50600192915050565b60006106798484846112b1565b600160a060020a03841660009081526004602090815260408083203384529091529020548281101561071b5760405160e560020a62461bcd02815260206004820152602860248201527f45524332303a207472616e7366657220616d6f756e742065786365656473206160448201527f6c6c6f77616e636500000000000000000000000000000000000000000000000060648201526084015b60405180910390fd5b6107288533858403611153565b506001949350505050565b61073b61213a565b6009828154811061074e5761074e612767565b90600052602060002090600d020160405180608001604052908160008201548152602001600182015481526020016002820154815260200160038201600a806020026040519081016040528092919082600a80156107c1576020028201915b8154815260200190600101908083116107ad575b5050505050815250509050919050565b6107db82826114d1565b60008281526001602052604090206107f390826110d7565b505050565b61080282826114f7565b60008281526001602052604090206107f39082611582565b336000818152600460209081526040808320600160a060020a0387168452909152812054909161066391859061085190869061264b565b611153565b6108807f9f2df0fed2c77648de5860a4cc508cd0818c85b8b8a1ab4ceeef8d981c8956a6336109b1565b6108f55760405160e560020a62461bcd02815260206004820152602860248201527f457863657074696f6e3a206d7573742068617665206d696e74657220726f6c6560448201527f20746f206d696e740000000000000000000000000000000000000000000000006064820152608401610712565b6108ff8282611597565b5050565b61092d7f3c11d16cbaffd01df69ce1c404f6340ee057498f5f00246190ea54220576a848336109b1565b61094c5760405160e560020a62461bcd0281526004016107129061254d565b6109563382611679565b50565b600254600160a060020a031633146109865760405160e560020a62461bcd02815260040161071290612518565b6109906000611804565b565b60008281526001602052604081206109aa9083611863565b9392505050565b600091825260208281526040808420600160a060020a0393909316845291905290205460ff1690565b600254600160a060020a03163314610a075760405160e560020a62461bcd02815260040161071290612518565b610a108161186f565b15610a605760405160e560020a62461bcd02815260206004820152601b60248201527f456c656d656e742065786973747320696e2074686520617272617900000000006044820152606401610712565b600980546001810182556000919091528151600d9091027f6e1540171b6c0c960b71a7020d9f60077f6af931a8bbf590da0223dacf75c7af810191825560208301517f6e1540171b6c0c960b71a7020d9f60077f6af931a8bbf590da0223dacf75c7b082015560408301517f6e1540171b6c0c960b71a7020d9f60077f6af931a8bbf590da0223dacf75c7b18201556060830151839291610b27917f6e1540171b6c0c960b71a7020d9f60077f6af931a8bbf590da0223dacf75c7b290910190600a612167565b50505050565b6060600780546105d3906126dc565b610b667f3c11d16cbaffd01df69ce1c404f6340ee057498f5f00246190ea54220576a848336109b1565b610b855760405160e560020a62461bcd0281526004016107129061254d565b6108ff8282611679565b600254600160a060020a03163314610bbc5760405160e560020a62461bcd02815260040161071290612518565b6008805473ffffffffffffffffffffffffffffffffffffffff1916600160a060020a0392909216919091179055565b336000908152600460209081526040808320600160a060020a038616845290915281205482811015610c885760405160e560020a62461bcd02815260206004820152602560248201527f45524332303a2064656372656173656420616c6c6f77616e63652062656c6f7760448201527f207a65726f0000000000000000000000000000000000000000000000000000006064820152608401610712565b610c953385858403611153565b5060019392505050565b600254600160a060020a03163314610ccc5760405160e560020a62461bcd02815260040161071290612518565b6009548110610d205760405160e560020a62461bcd02815260206004820152601360248201527f496e646578206f7574206f6620626f756e6473000000000000000000000000006044820152606401610712565b60098054610d3090600190612682565b81548110610d4057610d40612767565b90600052602060002090600d020160098281548110610d6157610d61612767565b600091825260209091208254600d909202019081556001808301549082015560028083015490820155610d9c6003808301908401600a6121a5565b509050506009805480610db157610db161274e565b600082815260208120600d60001990930192830201818155600181018290556002810182905590610de560038301826121d0565b5050905550565b60006106633384846112b1565b600060098281548110610e0e57610e0e612767565b90600052602060002090600d02016003016009600a8110610e3157610e31612767565b015492915050565b60008181526001602052604081206105be90611c04565b6108028282611c0e565b60098181548110610e6a57600080fd5b60009182526020909120600d909102018054600182015460029092015490925083565b6009548110610ee15760405160e560020a62461bcd02815260206004820152601360248201527f496e646578206f7574206f6620626f756e6473000000000000000000000000006044820152606401610712565b610f223060098381548110610ef857610ef8612767565b90600052602060002090600d02016003016009600a8110610f1b57610f1b612767565b0154610dec565b610f715760405160e560020a62461bcd02815260206004820152600d60248201527f5472616e73666572206661696c000000000000000000000000000000000000006044820152606401610712565b60085460098054600160a060020a039092169163fb7f972c91339185908110610f9c57610f9c612767565b90600052602060002090600d02016040518363ffffffff167c0100000000000000000000000000000000000000000000000000000000028152600401610fe3929190612480565b600060405180830381600087803b158015610ffd57600080fd5b505af1158015611011573d6000803e3d6000fd5b5050505050565b600254600160a060020a031633146110455760405160e560020a62461bcd02815260040161071290612518565b600160a060020a0381166110c45760405160e560020a62461bcd02815260206004820152602660248201527f4f776e61626c653a206e6577206f776e657220697320746865207a65726f206160448201527f64647265737300000000000000000000000000000000000000000000000000006064820152608401610712565b61095681611804565b6108ff8282611c34565b60006109aa83600160a060020a038416611cb8565b6000600160e060020a031982167f7965db0b0000000000000000000000000000000000000000000000000000000014806105be57507f01ffc9a700000000000000000000000000000000000000000000000000000000600160e060020a03198316146105be565b600160a060020a0383166111d15760405160e560020a62461bcd028152602060048201526024808201527f45524332303a20617070726f76652066726f6d20746865207a65726f2061646460448201527f72657373000000000000000000000000000000000000000000000000000000006064820152608401610712565b600160a060020a0382166112505760405160e560020a62461bcd02815260206004820152602260248201527f45524332303a20617070726f766520746f20746865207a65726f20616464726560448201527f73730000000000000000000000000000000000000000000000000000000000006064820152608401610712565b600160a060020a0383811660008181526004602090815260408083209487168084529482529182902085905590518481527f8c5be1e5ebec7d5bd14f71427d1e84f3dd0314c0f7b2291e5b200ac8c7c3b925910160405180910390a3505050565b600160a060020a0383166113305760405160e560020a62461bcd02815260206004820152602560248201527f45524332303a207472616e736665722066726f6d20746865207a65726f20616460448201527f64726573730000000000000000000000000000000000000000000000000000006064820152608401610712565b600160a060020a0382166113af5760405160e560020a62461bcd02815260206004820152602360248201527f45524332303a207472616e7366657220746f20746865207a65726f206164647260448201527f65737300000000000000000000000000000000000000000000000000000000006064820152608401610712565b600160a060020a038316600090815260036020526040902054818110156114415760405160e560020a62461bcd02815260206004820152602660248201527f45524332303a207472616e7366657220616d6f756e742065786365656473206260448201527f616c616e636500000000000000000000000000000000000000000000000000006064820152608401610712565b600160a060020a0380851660009081526003602052604080822085850390559185168152908120805484929061147890849061264b565b9250508190555082600160a060020a031684600160a060020a03167fddf252ad1be2c89b69c2b068fc378daa952ba7f163c4a11628f55a4df523b3ef846040516114c491815260200190565b60405180910390a3610b27565b6000828152602081905260409020600101546114ed8133611d07565b6107f38383611c34565b600160a060020a03811633146115785760405160e560020a62461bcd02815260206004820152602f60248201527f416363657373436f6e74726f6c3a2063616e206f6e6c792072656e6f756e636560448201527f20726f6c657320666f722073656c6600000000000000000000000000000000006064820152608401610712565b6108ff8282611d6e565b60006109aa83600160a060020a038416611dd3565b600160a060020a0382166115f05760405160e560020a62461bcd02815260206004820152601f60248201527f45524332303a206d696e7420746f20746865207a65726f2061646472657373006044820152606401610712565b8060056000828254611602919061264b565b9091555050600160a060020a0382166000908152600360205260408120805483929061162f90849061264b565b9091555050604051818152600160a060020a038316906000907fddf252ad1be2c89b69c2b068fc378daa952ba7f163c4a11628f55a4df523b3ef9060200160405180910390a35050565b600160a060020a0382166116f85760405160e560020a62461bcd02815260206004820152602160248201527f45524332303a206275726e2066726f6d20746865207a65726f2061646472657360448201527f73000000000000000000000000000000000000000000000000000000000000006064820152608401610712565b600160a060020a0382166000908152600360205260409020548181101561178a5760405160e560020a62461bcd02815260206004820152602260248201527f45524332303a206275726e20616d6f756e7420657863656564732062616c616e60448201527f63650000000000000000000000000000000000000000000000000000000000006064820152608401610712565b600160a060020a03831660009081526003602052604081208383039055600580548492906117b9908490612682565b9091555050604051828152600090600160a060020a038516907fddf252ad1be2c89b69c2b068fc378daa952ba7f163c4a11628f55a4df523b3ef9060200160405180910390a3505050565b60028054600160a060020a0383811673ffffffffffffffffffffffffffffffffffffffff19831681179093556040519116919082907f8be0079c531659141344cd1fd0a4f28419497f9722a3daafe3b4186f6b6457e090600090a35050565b60006109aa8383611ec6565b6000805b600954811015611bfb576009818154811061189057611890612767565b60009182526020909120600d909102015483511480156118d75750600981815481106118be576118be612767565b90600052602060002090600d0201600101548360200151145b801561190a5750600981815481106118f1576118f1612767565b90600052602060002090600d0201600201548360400151145b801561194057506009818154811061192457611924612767565b600091825260209091206003600d909202010154606084015151145b801561198a57506009818154811061195a5761195a612767565b90600052602060002090600d02016003016001600a811061197d5761197d612767565b0154606084015160200151145b80156119d45750600981815481106119a4576119a4612767565b90600052602060002090600d02016003016002600a81106119c7576119c7612767565b0154606084015160400151145b8015611a1d5750600981815481106119ee576119ee612767565b90600052602060002090600d02016003016003600a8110611a1157611a11612767565b01546060848101510151145b8015611a67575060098181548110611a3757611a37612767565b90600052602060002090600d02016003016004600a8110611a5a57611a5a612767565b0154606084015160800151145b8015611ab1575060098181548110611a8157611a81612767565b90600052602060002090600d02016003016005600a8110611aa457611aa4612767565b0154606084015160a00151145b8015611afb575060098181548110611acb57611acb612767565b90600052602060002090600d02016003016006600a8110611aee57611aee612767565b0154606084015160c00151145b8015611b45575060098181548110611b1557611b15612767565b90600052602060002090600d02016003016007600a8110611b3857611b38612767565b0154606084015160e00151145b8015611b90575060098181548110611b5f57611b5f612767565b90600052602060002090600d02016003016008600a8110611b8257611b82612767565b015460608401516101000151145b8015611bdb575060098181548110611baa57611baa612767565b90600052602060002090600d02016003016009600a8110611bcd57611bcd612767565b015460608401516101200151145b15611be95750600192915050565b80611bf38161271a565b915050611873565b50600092915050565b60006105be825490565b600082815260208190526040902060010154611c2a8133611d07565b6107f38383611d6e565b611c3e82826109b1565b6108ff57600082815260208181526040808320600160a060020a03851684529091529020805460ff19166001179055611c743390565b600160a060020a031681600160a060020a0316837f2f8788117e7eff1d82e926ec794901d17c78024a50270940304540a733656f0d60405160405180910390a45050565b6000818152600183016020526040812054611cff575081546001818101845560008481526020808220909301849055845484825282860190935260409020919091556105be565b5060006105be565b611d1182826109b1565b6108ff57611d2981600160a060020a03166014611ef0565b611d34836020611ef0565b604051602001611d459291906123ff565b60408051601f198184030181529082905260e560020a62461bcd028252610712916004016124e5565b611d7882826109b1565b156108ff57600082815260208181526040808320600160a060020a0385168085529252808320805460ff1916905551339285917ff6391f5c32d9c69d2a47ea670b442974b53935d1edc7fd64eb21e047a839171b9190a45050565b60008181526001830160205260408120548015611ebc576000611df7600183612682565b8554909150600090611e0b90600190612682565b9050818114611e70576000866000018281548110611e2b57611e2b612767565b9060005260206000200154905080876000018481548110611e4e57611e4e612767565b6000918252602080832090910192909255918252600188019052604090208390555b8554869080611e8157611e8161274e565b6001900381819060005260206000200160009055905585600101600086815260200190815260200160002060009055600193505050506105be565b60009150506105be565b6000826000018281548110611edd57611edd612767565b9060005260206000200154905092915050565b60606000611eff836002612663565b611f0a90600261264b565b67ffffffffffffffff811115611f2257611f22612780565b6040519080825280601f01601f191660200182016040528015611f4c576020820181803683370190505b5090507f300000000000000000000000000000000000000000000000000000000000000081600081518110611f8357611f83612767565b60200101907effffffffffffffffffffffffffffffffffffffffffffffffffffffffffffff1916908160001a9053507f780000000000000000000000000000000000000000000000000000000000000081600181518110611fe657611fe6612767565b60200101907effffffffffffffffffffffffffffffffffffffffffffffffffffffffffffff1916908160001a9053506000612022846002612663565b61202d90600161264b565b90505b60018111156120e8577f303132333435363738396162636465660000000000000000000000000000000085600f166010811061206e5761206e612767565b1a7f0100000000000000000000000000000000000000000000000000000000000000028282815181106120a3576120a3612767565b60200101907effffffffffffffffffffffffffffffffffffffffffffffffffffffffffffff1916908160001a9053506010909404936120e1816126c5565b9050612030565b5083156109aa5760405160e560020a62461bcd02815260206004820181905260248201527f537472696e67733a20686578206c656e67746820696e73756666696369656e746044820152606401610712565b60405180608001604052806000815260200160008152602001600081526020016121626121df565b905290565b82600a8101928215612195579160200282015b8281111561219557825182559160200191906001019061217a565b506121a19291506121fe565b5090565b82600a8101928215612195579182015b828111156121955782548255916001019190600101906121b5565b5061095690600a8101906121fe565b604051806101400160405280600a906020820280368337509192915050565b5b808211156121a157600081556001016121ff565b8035600160a060020a038116811461222a57600080fd5b919050565b60006020828403121561224157600080fd5b6109aa82612213565b6000806040838503121561225d57600080fd5b61226683612213565b915061227460208401612213565b90509250929050565b60008060006060848603121561229257600080fd5b61229b84612213565b92506122a960208501612213565b9150604084013590509250925092565b600080604083850312156122cc57600080fd5b6122d583612213565b946020939093013593505050565b6000602082840312156122f557600080fd5b5035919050565b6000806040838503121561230f57600080fd5b8235915061227460208401612213565b6000806040838503121561233257600080fd5b50508035926020909101359150565b60006020828403121561235357600080fd5b8135600160e060020a0319811681146109aa57600080fd5b60006101a080838503121561237f57600080fd5b6123876125fe565b83358152602080850135818301526040850135604083015285607f8601126123ae57600080fd5b6123b6612627565b80606087018886890111156123ca57600080fd5b600095505b600a8610156123ee5780358352600195909501949183019183016123cf565b506060840152509095945050505050565b7f416363657373436f6e74726f6c3a206163636f756e7420000000000000000000815260008351612437816017850160208801612699565b7f206973206d697373696e6720726f6c65200000000000000000000000000000006017918401918201528351612474816028840160208801612699565b01602801949350505050565b60006101c082019050600160a060020a03841682526020835481840152600180850154604085015260028501546060850152608084016003860160005b600a8110156124d95781548352918401919083019083016124bd565b50505050509392505050565b6020815260008251806020840152612504816040850160208701612699565b601f01601f19169190910160400192915050565b6020808252818101527f4f776e61626c653a2063616c6c6572206973206e6f7420746865206f776e6572604082015260600190565b60208082526028908201527f457863657074696f6e3a206d7573742068617665206275726e657220726f6c6560408201527f20746f206275726e000000000000000000000000000000000000000000000000606082015260800190565b60006101a08201905082518252602080840151818401526040840151604084015260608401516060840160005b600a8110156125f4578251825291830191908301906001016125d7565b5050505092915050565b6040516080810167ffffffffffffffff8111828210171561262157612621612780565b60405290565b604051610140810167ffffffffffffffff8111828210171561262157612621612780565b6000821982111561265e5761265e612735565b500190565b600081600019048311821515161561267d5761267d612735565b500290565b60008282101561269457612694612735565b500390565b60005b838110156126b457818101518382015260200161269c565b83811115610b275750506000910152565b6000816126d4576126d4612735565b506000190190565b6002810460018216806126f057607f821691505b602082108114156127145760e060020a634e487b7102600052602260045260246000fd5b50919050565b600060001982141561272e5761272e612735565b5060010190565b60e060020a634e487b7102600052601160045260246000fd5b60e060020a634e487b7102600052603160045260246000fd5b60e060020a634e487b7102600052603260045260246000fd5b60e060020a634e487b7102600052604160045260246000fdfea26469706673582212202bc4bc65016075918551731c3177093f28892450a48c2a484d2d7ac7fd9ddbbf64736f6c63430008060033",
  "immutableReferences": {},
  "source": "//SPDX-License-Identifier: MIT\n\npragma solidity ^0.8.0;\n\nimport \"@openzeppelin/contracts/token/ERC20/ERC20.sol\";\nimport \"@openzeppelin/contracts/access/Ownable.sol\";\nimport \"@openzeppelin/contracts/access/AccessControlEnumerable.sol\";\nimport \"@openzeppelin/contracts/utils/Context.sol\";\n\nimport \"./Equipment.sol\";\n\n    //***********************************\n    // SETUP AFTER DEPLOY\n    //***********************************\n    //SET EQUIPMENT ADDRESS\n    //SET MINTER_ROLE FOR EQUIPMENT\n    //***********************************\n    //\n    // This SC also holds the functionality \n    // of the STORE\n    //\n    //***********************************\n\ncontract GameCoin is Context, AccessControlEnumerable, Ownable, ERC20 {\n\n    bytes32 public constant MINTER_ROLE = keccak256(\"MINTER_ROLE\");\n    bytes32 public constant BURNER_ROLE = keccak256(\"BURNER_ROLE\");\n\n    //Equipment Address\n    Equipment private _equipment;\n\n    //Gear offered in the stores\n    //Administrators may update, delete or modify the content\n    //The store should read this array and populate the store acording to it\n    Equipment.gearStats[] public storeGear;\n\n    constructor(uint256 initialSupply) ERC20( \"Chains of Gloty Token\", \"CGT\") {\n        _setupRole(DEFAULT_ADMIN_ROLE, _msgSender());\n\n        _setupRole(MINTER_ROLE, _msgSender());\n        _setupRole(BURNER_ROLE, _msgSender());\n\n        _mint(msg.sender, initialSupply);\n    }\n\n    function decimals() public pure override returns (uint8) {\n\t\treturn 0;\n\t}\n\n    function mint(address to, uint256 amount) public virtual {\n        require(hasRole(MINTER_ROLE, _msgSender()), \"Exception: must have minter role to mint\");\n        _mint(to, amount);\n    }\n\n    function burn(uint256 amount) public virtual {\n        require(hasRole(BURNER_ROLE, _msgSender()), \"Exception: must have burner role to burn\");\n        _burn(_msgSender(), amount);\n    }\n\n    function burn(address from, uint256 amount) public virtual {\n        require(hasRole(BURNER_ROLE, _msgSender()), \"Exception: must have burner role to burn\");\n        _burn(from, amount);\n    }\n\n    //GameToken Token Address\n    function setEquipmentAddress(address equipmentAddress) public onlyOwner {\n        _equipment=Equipment(equipmentAddress);\n    }\n\n    //STORE FUNCTIONALITY\n    //\n    //Store is where the user pay in-game tokens for equipment\n\n    //Add an element to the store array\n    function addGearToStore(Equipment.gearStats memory gear) public onlyOwner {\n        require(!gearExistsInStore(gear), \"Element exists in the array\");\n        storeGear.push(gear);\n    }\n\n\n    //Remove an element from the store array\n    function removeGearFromStore(uint256 index) public onlyOwner {\n        require(index < storeGear.length, \"Index out of bounds\");\n\n        storeGear[index]= storeGear[ storeGear.length-1];\n        storeGear.pop();\n    }\n\n    //Returns especific item\n    function getEquipmentLength() public view returns(uint256) {\n        return storeGear.length;\n    }\n\n    //Returns especific item\n    function getEquipmentData(uint256 index) public view returns(Equipment.gearStats memory) {\n        return storeGear[index];\n    }\n\n    //Returns especific item\n    function getEquipmentPrice(uint256 index) public view returns(uint256) {\n        return storeGear[index].stats[9];\n    }\n\n    //Manages the purchase\n    function purchase(uint256 index) public {\n        require(index < storeGear.length, \"Index out of bounds\");        \n        require(transfer(address(this), storeGear[index].stats[9]), \"Transfer fail\");\n\n        //Mint the gear to the payer\n        _equipment.mint(msg.sender, storeGear[index]);\n    }\n\n    function gearExistsInStore(Equipment.gearStats memory gear) internal view returns (bool) {\n        for(uint i=0; i<storeGear.length; i++) {\n            if( gear.class==storeGear[i].class &&\n                gear.slot==storeGear[i].slot &&\n                gear.level==storeGear[i].level &&\n                gear.stats[0]==storeGear[i].stats[0] &&\n                gear.stats[1]==storeGear[i].stats[1] &&\n                gear.stats[2]==storeGear[i].stats[2] &&\n                gear.stats[3]==storeGear[i].stats[3] &&\n                gear.stats[4]==storeGear[i].stats[4] &&\n                gear.stats[5]==storeGear[i].stats[5] &&\n                gear.stats[6]==storeGear[i].stats[6] &&\n                gear.stats[7]==storeGear[i].stats[7] &&\n                gear.stats[8]==storeGear[i].stats[8] &&\n                gear.stats[9]==storeGear[i].stats[9]\n                )\n                    return true;\n        }\n        return false;\n    }\n}",
  "sourcePath": "/Users/n65598/Development/Blockchain/ChainsOfGlory/contracts/GameCoin.sol",
  "compiler": {
    "name": "solc",
    "version": "0.8.6+commit.11564f7e.Emscripten.clang"
  },
  "schemaVersion": "3.4.3",
  "updatedAt": "2021-11-25T09:11:15.128Z",
  "devdoc": {
    "kind": "dev",
    "methods": {
      "allowance(address,address)": {
        "details": "See {IERC20-allowance}."
      },
      "approve(address,uint256)": {
        "details": "See {IERC20-approve}. Requirements: - `spender` cannot be the zero address."
      },
      "balanceOf(address)": {
        "details": "See {IERC20-balanceOf}."
      },
      "decimals()": {
        "details": "Returns the number of decimals used to get its user representation. For example, if `decimals` equals `2`, a balance of `505` tokens should be displayed to a user as `5.05` (`505 / 10 ** 2`). Tokens usually opt for a value of 18, imitating the relationship between Ether and Wei. This is the value {ERC20} uses, unless this function is overridden; NOTE: This information is only used for _display_ purposes: it in no way affects any of the arithmetic of the contract, including {IERC20-balanceOf} and {IERC20-transfer}."
      },
      "decreaseAllowance(address,uint256)": {
        "details": "Atomically decreases the allowance granted to `spender` by the caller. This is an alternative to {approve} that can be used as a mitigation for problems described in {IERC20-approve}. Emits an {Approval} event indicating the updated allowance. Requirements: - `spender` cannot be the zero address. - `spender` must have allowance for the caller of at least `subtractedValue`."
      },
      "getRoleAdmin(bytes32)": {
        "details": "Returns the admin role that controls `role`. See {grantRole} and {revokeRole}. To change a role's admin, use {_setRoleAdmin}."
      },
      "getRoleMember(bytes32,uint256)": {
        "details": "Returns one of the accounts that have `role`. `index` must be a value between 0 and {getRoleMemberCount}, non-inclusive. Role bearers are not sorted in any particular way, and their ordering may change at any point. WARNING: When using {getRoleMember} and {getRoleMemberCount}, make sure you perform all queries on the same block. See the following https://forum.openzeppelin.com/t/iterating-over-elements-on-enumerableset-in-openzeppelin-contracts/2296[forum post] for more information."
      },
      "getRoleMemberCount(bytes32)": {
        "details": "Returns the number of accounts that have `role`. Can be used together with {getRoleMember} to enumerate all bearers of a role."
      },
      "grantRole(bytes32,address)": {
        "details": "Overload {grantRole} to track enumerable memberships"
      },
      "hasRole(bytes32,address)": {
        "details": "Returns `true` if `account` has been granted `role`."
      },
      "increaseAllowance(address,uint256)": {
        "details": "Atomically increases the allowance granted to `spender` by the caller. This is an alternative to {approve} that can be used as a mitigation for problems described in {IERC20-approve}. Emits an {Approval} event indicating the updated allowance. Requirements: - `spender` cannot be the zero address."
      },
      "name()": {
        "details": "Returns the name of the token."
      },
      "owner()": {
        "details": "Returns the address of the current owner."
      },
      "renounceOwnership()": {
        "details": "Leaves the contract without owner. It will not be possible to call `onlyOwner` functions anymore. Can only be called by the current owner. NOTE: Renouncing ownership will leave the contract without an owner, thereby removing any functionality that is only available to the owner."
      },
      "renounceRole(bytes32,address)": {
        "details": "Overload {renounceRole} to track enumerable memberships"
      },
      "revokeRole(bytes32,address)": {
        "details": "Overload {revokeRole} to track enumerable memberships"
      },
      "supportsInterface(bytes4)": {
        "details": "See {IERC165-supportsInterface}."
      },
      "symbol()": {
        "details": "Returns the symbol of the token, usually a shorter version of the name."
      },
      "totalSupply()": {
        "details": "See {IERC20-totalSupply}."
      },
      "transfer(address,uint256)": {
        "details": "See {IERC20-transfer}. Requirements: - `recipient` cannot be the zero address. - the caller must have a balance of at least `amount`."
      },
      "transferFrom(address,address,uint256)": {
        "details": "See {IERC20-transferFrom}. Emits an {Approval} event indicating the updated allowance. This is not required by the EIP. See the note at the beginning of {ERC20}. Requirements: - `sender` and `recipient` cannot be the zero address. - `sender` must have a balance of at least `amount`. - the caller must have allowance for ``sender``'s tokens of at least `amount`."
      },
      "transferOwnership(address)": {
        "details": "Transfers ownership of the contract to a new account (`newOwner`). Can only be called by the current owner."
      }
    },
    "version": 1
  },
  "userdoc": {
    "kind": "user",
    "methods": {},
    "version": 1
  }
}