{
  "contractName": "LibPart",
  "abi": [
    {
      "inputs": [],
      "name": "TYPE_HASH",
      "outputs": [
        {
          "internalType": "bytes32",
          "name": "",
          "type": "bytes32"
        }
      ],
      "stateMutability": "view",
      "type": "function"
    }
  ],
  "bytecode": "0x60c2610052600b82828239805160001a607314610045577f4e487b7100000000000000000000000000000000000000000000000000000000600052600060045260246000fd5b30600052607381538281f3fe7300000000000000000000000000000000000000003014608060405260043610604f577c0100000000000000000000000000000000000000000000000000000000600035046364d4c81981146054575b600080fd5b607a7f397e04204c1e1a60ee8724b71f8244e10ab5f2e9009854d80f602bda21b59ebb81565b60405190815260200160405180910390f3fea2646970667358221220935ddcb18a8a1c41ad501db7b1dd7deadd40228d2023e4ae4e340b2a5efc1eae64736f6c63430008060033",
  "immutableReferences": {},
  "source": "// SPDX-License-Identifier: MIT \npragma solidity ^0.8.0;\nlibrary LibPart { \n    bytes32 public constant TYPE_HASH = keccak256(\"Part(address account,uint96 value)\");\n    struct Part { address payable account;\n        uint96 value; \n    }\n    function hash(Part memory part) internal pure returns (bytes32){ \n        return keccak256(abi.encode(TYPE_HASH, part.account,  part.value));\n    }\n}",
  "sourcePath": "/home/javi/ChainsOfGlory/contracts/@rarible/royalties/contracts/LibPart.sol",
  "compiler": {
    "name": "solc",
    "version": "0.8.6+commit.11564f7e.Emscripten.clang"
  },
  "schemaVersion": "3.4.3",
  "updatedAt": "2021-11-20T17:15:37.413Z",
  "devdoc": {
    "kind": "dev",
    "methods": {},
    "version": 1
  },
  "userdoc": {
    "kind": "user",
    "methods": {},
    "version": 1
  }
}