{
  "contractName": "Quest",
  "abi": [
    {
      "anonymous": false,
      "inputs": [
        {
          "indexed": true,
          "internalType": "address",
          "name": "previousOwner",
          "type": "address"
        },
        {
          "indexed": true,
          "internalType": "address",
          "name": "newOwner",
          "type": "address"
        }
      ],
      "name": "OwnershipTransferred",
      "type": "event"
    },
    {
      "anonymous": false,
      "inputs": [
        {
          "indexed": true,
          "internalType": "bytes32",
          "name": "role",
          "type": "bytes32"
        },
        {
          "indexed": true,
          "internalType": "bytes32",
          "name": "previousAdminRole",
          "type": "bytes32"
        },
        {
          "indexed": true,
          "internalType": "bytes32",
          "name": "newAdminRole",
          "type": "bytes32"
        }
      ],
      "name": "RoleAdminChanged",
      "type": "event"
    },
    {
      "anonymous": false,
      "inputs": [
        {
          "indexed": true,
          "internalType": "bytes32",
          "name": "role",
          "type": "bytes32"
        },
        {
          "indexed": true,
          "internalType": "address",
          "name": "account",
          "type": "address"
        },
        {
          "indexed": true,
          "internalType": "address",
          "name": "sender",
          "type": "address"
        }
      ],
      "name": "RoleGranted",
      "type": "event"
    },
    {
      "anonymous": false,
      "inputs": [
        {
          "indexed": true,
          "internalType": "bytes32",
          "name": "role",
          "type": "bytes32"
        },
        {
          "indexed": true,
          "internalType": "address",
          "name": "account",
          "type": "address"
        },
        {
          "indexed": true,
          "internalType": "address",
          "name": "sender",
          "type": "address"
        }
      ],
      "name": "RoleRevoked",
      "type": "event"
    },
    {
      "inputs": [],
      "name": "DEFAULT_ADMIN_ROLE",
      "outputs": [
        {
          "internalType": "bytes32",
          "name": "",
          "type": "bytes32"
        }
      ],
      "stateMutability": "view",
      "type": "function"
    },
    {
      "inputs": [
        {
          "internalType": "uint256",
          "name": "",
          "type": "uint256"
        }
      ],
      "name": "allQuests",
      "outputs": [
        {
          "internalType": "uint256",
          "name": "questId",
          "type": "uint256"
        },
        {
          "internalType": "uint256",
          "name": "duration",
          "type": "uint256"
        },
        {
          "internalType": "uint256",
          "name": "range",
          "type": "uint256"
        },
        {
          "internalType": "uint256",
          "name": "loot",
          "type": "uint256"
        },
        {
          "internalType": "uint256",
          "name": "drop",
          "type": "uint256"
        },
        {
          "internalType": "uint256",
          "name": "health",
          "type": "uint256"
        },
        {
          "internalType": "uint256",
          "name": "attack",
          "type": "uint256"
        },
        {
          "internalType": "uint256",
          "name": "defense",
          "type": "uint256"
        }
      ],
      "stateMutability": "view",
      "type": "function"
    },
    {
      "inputs": [],
      "name": "combatLoops",
      "outputs": [
        {
          "internalType": "uint256",
          "name": "",
          "type": "uint256"
        }
      ],
      "stateMutability": "view",
      "type": "function"
    },
    {
      "inputs": [
        {
          "internalType": "bytes32",
          "name": "role",
          "type": "bytes32"
        }
      ],
      "name": "getRoleAdmin",
      "outputs": [
        {
          "internalType": "bytes32",
          "name": "",
          "type": "bytes32"
        }
      ],
      "stateMutability": "view",
      "type": "function"
    },
    {
      "inputs": [
        {
          "internalType": "bytes32",
          "name": "role",
          "type": "bytes32"
        },
        {
          "internalType": "uint256",
          "name": "index",
          "type": "uint256"
        }
      ],
      "name": "getRoleMember",
      "outputs": [
        {
          "internalType": "address",
          "name": "",
          "type": "address"
        }
      ],
      "stateMutability": "view",
      "type": "function"
    },
    {
      "inputs": [
        {
          "internalType": "bytes32",
          "name": "role",
          "type": "bytes32"
        }
      ],
      "name": "getRoleMemberCount",
      "outputs": [
        {
          "internalType": "uint256",
          "name": "",
          "type": "uint256"
        }
      ],
      "stateMutability": "view",
      "type": "function"
    },
    {
      "inputs": [
        {
          "internalType": "bytes32",
          "name": "role",
          "type": "bytes32"
        },
        {
          "internalType": "address",
          "name": "account",
          "type": "address"
        }
      ],
      "name": "grantRole",
      "outputs": [],
      "stateMutability": "nonpayable",
      "type": "function"
    },
    {
      "inputs": [
        {
          "internalType": "bytes32",
          "name": "role",
          "type": "bytes32"
        },
        {
          "internalType": "address",
          "name": "account",
          "type": "address"
        }
      ],
      "name": "hasRole",
      "outputs": [
        {
          "internalType": "bool",
          "name": "",
          "type": "bool"
        }
      ],
      "stateMutability": "view",
      "type": "function"
    },
    {
      "inputs": [],
      "name": "owner",
      "outputs": [
        {
          "internalType": "address",
          "name": "",
          "type": "address"
        }
      ],
      "stateMutability": "view",
      "type": "function"
    },
    {
      "inputs": [],
      "name": "renounceOwnership",
      "outputs": [],
      "stateMutability": "nonpayable",
      "type": "function"
    },
    {
      "inputs": [
        {
          "internalType": "bytes32",
          "name": "role",
          "type": "bytes32"
        },
        {
          "internalType": "address",
          "name": "account",
          "type": "address"
        }
      ],
      "name": "renounceRole",
      "outputs": [],
      "stateMutability": "nonpayable",
      "type": "function"
    },
    {
      "inputs": [
        {
          "internalType": "bytes32",
          "name": "role",
          "type": "bytes32"
        },
        {
          "internalType": "address",
          "name": "account",
          "type": "address"
        }
      ],
      "name": "revokeRole",
      "outputs": [],
      "stateMutability": "nonpayable",
      "type": "function"
    },
    {
      "inputs": [
        {
          "internalType": "bytes4",
          "name": "interfaceId",
          "type": "bytes4"
        }
      ],
      "name": "supportsInterface",
      "outputs": [
        {
          "internalType": "bool",
          "name": "",
          "type": "bool"
        }
      ],
      "stateMutability": "view",
      "type": "function"
    },
    {
      "inputs": [
        {
          "internalType": "address",
          "name": "newOwner",
          "type": "address"
        }
      ],
      "name": "transferOwnership",
      "outputs": [],
      "stateMutability": "nonpayable",
      "type": "function"
    },
    {
      "inputs": [
        {
          "internalType": "uint256",
          "name": "newLoops",
          "type": "uint256"
        }
      ],
      "name": "setCombatLoops",
      "outputs": [],
      "stateMutability": "nonpayable",
      "type": "function"
    },
    {
      "inputs": [
        {
          "internalType": "uint256",
          "name": "spread",
          "type": "uint256"
        }
      ],
      "name": "setRandomSpread",
      "outputs": [],
      "stateMutability": "nonpayable",
      "type": "function"
    },
    {
      "inputs": [
        {
          "internalType": "address",
          "name": "equipment",
          "type": "address"
        }
      ],
      "name": "setEquipmentAddress",
      "outputs": [],
      "stateMutability": "nonpayable",
      "type": "function"
    },
    {
      "inputs": [
        {
          "internalType": "uint256",
          "name": "prob",
          "type": "uint256"
        },
        {
          "components": [
            {
              "internalType": "uint256",
              "name": "class",
              "type": "uint256"
            },
            {
              "internalType": "uint256",
              "name": "slot",
              "type": "uint256"
            },
            {
              "internalType": "uint256",
              "name": "level",
              "type": "uint256"
            },
            {
              "internalType": "uint256[10]",
              "name": "stats",
              "type": "uint256[10]"
            },
            {
              "internalType": "uint256",
              "name": "timeLock",
              "type": "uint256"
            }
          ],
          "internalType": "struct Equipment.gearStats",
          "name": "gear",
          "type": "tuple"
        }
      ],
      "name": "addDropToEquipment",
      "outputs": [],
      "stateMutability": "nonpayable",
      "type": "function"
    },
    {
      "inputs": [
        {
          "internalType": "address",
          "name": "characters",
          "type": "address"
        }
      ],
      "name": "setCharactersAddress",
      "outputs": [],
      "stateMutability": "nonpayable",
      "type": "function"
    },
    {
      "inputs": [
        {
          "internalType": "address",
          "name": "gameCoin",
          "type": "address"
        }
      ],
      "name": "setGameCoinsAddress",
      "outputs": [],
      "stateMutability": "nonpayable",
      "type": "function"
    },
    {
      "inputs": [
        {
          "internalType": "uint256",
          "name": "lvl",
          "type": "uint256"
        },
        {
          "internalType": "uint256[]",
          "name": "matrixValues",
          "type": "uint256[]"
        }
      ],
      "name": "setMaxLevel",
      "outputs": [],
      "stateMutability": "nonpayable",
      "type": "function"
    },
    {
      "inputs": [],
      "name": "getMatrix",
      "outputs": [
        {
          "internalType": "uint256[]",
          "name": "",
          "type": "uint256[]"
        }
      ],
      "stateMutability": "view",
      "type": "function"
    },
    {
      "inputs": [
        {
          "components": [
            {
              "internalType": "uint256",
              "name": "questId",
              "type": "uint256"
            },
            {
              "internalType": "uint256",
              "name": "duration",
              "type": "uint256"
            },
            {
              "internalType": "uint256",
              "name": "range",
              "type": "uint256"
            },
            {
              "internalType": "uint256",
              "name": "loot",
              "type": "uint256"
            },
            {
              "internalType": "uint256",
              "name": "drop",
              "type": "uint256"
            },
            {
              "internalType": "uint256",
              "name": "health",
              "type": "uint256"
            },
            {
              "internalType": "uint256",
              "name": "attack",
              "type": "uint256"
            },
            {
              "internalType": "uint256",
              "name": "defense",
              "type": "uint256"
            },
            {
              "internalType": "uint256[5]",
              "name": "enemy",
              "type": "uint256[5]"
            },
            {
              "internalType": "uint256[10]",
              "name": "calculatedStats",
              "type": "uint256[10]"
            }
          ],
          "internalType": "struct Quest.questData",
          "name": "qData",
          "type": "tuple"
        }
      ],
      "name": "addQuest",
      "outputs": [],
      "stateMutability": "nonpayable",
      "type": "function"
    },
    {
      "inputs": [
        {
          "internalType": "uint256",
          "name": "idQuest",
          "type": "uint256"
        }
      ],
      "name": "forceRecalculateStats",
      "outputs": [],
      "stateMutability": "nonpayable",
      "type": "function"
    },
    {
      "inputs": [
        {
          "internalType": "uint256",
          "name": "index",
          "type": "uint256"
        }
      ],
      "name": "removeQuest",
      "outputs": [],
      "stateMutability": "nonpayable",
      "type": "function"
    },
    {
      "inputs": [],
      "name": "getQuestLength",
      "outputs": [
        {
          "internalType": "uint256",
          "name": "",
          "type": "uint256"
        }
      ],
      "stateMutability": "view",
      "type": "function"
    },
    {
      "inputs": [
        {
          "internalType": "uint256",
          "name": "index",
          "type": "uint256"
        }
      ],
      "name": "getQuestData",
      "outputs": [
        {
          "components": [
            {
              "internalType": "uint256",
              "name": "questId",
              "type": "uint256"
            },
            {
              "internalType": "uint256",
              "name": "duration",
              "type": "uint256"
            },
            {
              "internalType": "uint256",
              "name": "range",
              "type": "uint256"
            },
            {
              "internalType": "uint256",
              "name": "loot",
              "type": "uint256"
            },
            {
              "internalType": "uint256",
              "name": "drop",
              "type": "uint256"
            },
            {
              "internalType": "uint256",
              "name": "health",
              "type": "uint256"
            },
            {
              "internalType": "uint256",
              "name": "attack",
              "type": "uint256"
            },
            {
              "internalType": "uint256",
              "name": "defense",
              "type": "uint256"
            },
            {
              "internalType": "uint256[5]",
              "name": "enemy",
              "type": "uint256[5]"
            },
            {
              "internalType": "uint256[10]",
              "name": "calculatedStats",
              "type": "uint256[10]"
            }
          ],
          "internalType": "struct Quest.questData",
          "name": "",
          "type": "tuple"
        }
      ],
      "stateMutability": "view",
      "type": "function"
    },
    {
      "inputs": [
        {
          "components": [
            {
              "internalType": "uint256",
              "name": "questId",
              "type": "uint256"
            },
            {
              "internalType": "uint256",
              "name": "duration",
              "type": "uint256"
            },
            {
              "internalType": "uint256",
              "name": "range",
              "type": "uint256"
            },
            {
              "internalType": "uint256",
              "name": "loot",
              "type": "uint256"
            },
            {
              "internalType": "uint256",
              "name": "drop",
              "type": "uint256"
            },
            {
              "internalType": "uint256",
              "name": "health",
              "type": "uint256"
            },
            {
              "internalType": "uint256",
              "name": "attack",
              "type": "uint256"
            },
            {
              "internalType": "uint256",
              "name": "defense",
              "type": "uint256"
            },
            {
              "internalType": "uint256[5]",
              "name": "enemy",
              "type": "uint256[5]"
            },
            {
              "internalType": "uint256[10]",
              "name": "calculatedStats",
              "type": "uint256[10]"
            }
          ],
          "internalType": "struct Quest.questData",
          "name": "qData",
          "type": "tuple"
        }
      ],
      "name": "questEnemiesStats",
      "outputs": [
        {
          "internalType": "uint256[10]",
          "name": "",
          "type": "uint256[10]"
        }
      ],
      "stateMutability": "view",
      "type": "function"
    },
    {
      "inputs": [
        {
          "internalType": "uint256",
          "name": "idQuest",
          "type": "uint256"
        },
        {
          "internalType": "uint256",
          "name": "idPlayer",
          "type": "uint256"
        },
        {
          "internalType": "uint256",
          "name": "questLevel",
          "type": "uint256"
        }
      ],
      "name": "playQuest",
      "outputs": [],
      "stateMutability": "nonpayable",
      "type": "function"
    }
  ],
  "bytecode": "0x6080604052600a60035560326004556000600b553480156200002057600080fd5b5062000047620000386401000000006200004d810204565b64010000000062000051810204565b620000a3565b3390565b60028054600160a060020a03838116600160a060020a0319831681179093556040519116919082907f8be0079c531659141344cd1fd0a4f28419497f9722a3daafe3b4186f6b6457e090600090a35050565b61341a80620000b36000396000f3fe608060405234801561001057600080fd5b50600436106101d35760003560e060020a900480638398388911610108578063b3d0c988116100a6578063c67f863111610075578063c67f863114610426578063ca15c87314610439578063d547741f1461044c578063f2fde38b1461045f57600080fd5b8063b3d0c988146103e4578063b7bcbae6146103f7578063b7eed4dc14610400578063c1fa92d11461041357600080fd5b80639010d07c116100e25780639010d07c146103a357806391d14854146103b6578063a217fddf146103c9578063a2846ad4146103d157600080fd5b806383983889146103105780638da5cb5b146103305780638e5208e51461035557600080fd5b80634bdeaad51161017557806369204f351161014f57806369204f35146102da578063715018a6146102e2578063727fb4c2146102ea57806376a66e8d146102fd57600080fd5b80634bdeaad51461029f578063520923a3146102b25780635ad3a0a8146102c557600080fd5b8063248a9ca3116101b1578063248a9ca31461022857806325520b9d146102595780632f2ff15d1461027957806336568abe1461028c57600080fd5b806301ffc9a7146101d85780631ca4d41c14610200578063233af30614610215575b600080fd5b6101eb6101e6366004612d10565b610472565b60405190151581526020015b60405180910390f35b61021361020e366004612ca5565b6104b6565b005b610213610223366004612ca5565b61066f565b61024b610236366004612ca5565b60009081526020819052604090206001015490565b6040519081526020016101f7565b61026c610267366004612ddf565b6106a1565b6040516101f79190613092565b610213610287366004612cbe565b61078a565b61021361029a366004612cbe565b6107b1565b6102136102ad366004612ca5565b6107d3565b6102136102c0366004612c6b565b610805565b6102cd610861565b6040516101f791906130a1565b60055461024b565b6102136108b9565b6102136102f8366004612ddf565b6108f2565b61021361030b366004612e72565b610b34565b61032361031e366004612ca5565b610c18565b6040516101f79190613184565b600254600160a060020a03165b604051600160a060020a0390911681526020016101f7565b610368610363366004612ca5565b610d23565b604080519889526020890197909752958701949094526060860192909252608085015260a084015260c083015260e0820152610100016101f7565b61033d6103b1366004612cee565b610d7b565b6101eb6103c4366004612cbe565b610d9a565b61024b600081565b6102136103df366004612c6b565b610dc3565b6102136103f2366004612ca5565b610e1f565b61024b60035481565b61021361040e366004612c6b565b610faa565b610213610421366004612f2a565b611006565b610213610434366004612f9f565b611033565b61024b610447366004612ca5565b611dbe565b61021361045a366004612cbe565b611dd5565b61021361046d366004612c6b565b611ddf565b6000600160e060020a031982167f5a05180f0000000000000000000000000000000000000000000000000000000014806104b057506104b082611e97565b92915050565b600254600160a060020a031633146104ec5760405160e560020a62461bcd0281526004016104e390613118565b60405180910390fd5b60055481106105105760405160e560020a62461bcd0281526004016104e39061314d565b60058054610520906001906132c9565b815481106105305761053061339d565b9060005260206000209060170201600582815481106105515761055161339d565b9060005260206000209060170201600082015481600001556001820154816001015560028201548160020155600382015481600301556004820154816004015560058201548160050155600682015481600601556007820154816007015560088201816008019060056105c592919061291a565b506105d8600d828101908401600a612955565b5090505060058054806105ed576105ed613384565b600082815260208120601760001990930192830201818155600181018290556002810182905560038101829055600481018290556005810182905560068101829055600781018290556008810182905560098101829055600a8101829055600b8101829055600c810182905590610668600d8301600061297f565b5050905550565b600254600160a060020a0316331461069c5760405160e560020a62461bcd0281526004016104e390613118565b600455565b6106a961298e565b6106b16129ad565b60005b600581101561077f5760095461010085015161076b918491600160a060020a0390911690637b00aee59085600581106106ef576106ef61339d565b60200201516040518263ffffffff1660e060020a02815260040161071591815260200190565b6103006040518083038186803b15801561072e57600080fd5b505afa158015610742573d6000803e3d6000fd5b505050506040513d601f19601f820116820180604052508101906107669190612d3a565b611efe565b91508061077781613323565b9150506106b4565b506040015192915050565b6107948282611f71565b60008281526001602052604090206107ac9082611f97565b505050565b6107bb8282611fac565b60008281526001602052604090206107ac9082612037565b600254600160a060020a031633146108005760405160e560020a62461bcd0281526004016104e390613118565b600355565b600254600160a060020a031633146108325760405160e560020a62461bcd0281526004016104e390613118565b6009805473ffffffffffffffffffffffffffffffffffffffff1916600160a060020a0392909216919091179055565b606060078054806020026020016040519081016040528092919081815260200182805480156108af57602002820191906000526020600020905b81548152602001906001019080831161089b575b5050505050905090565b600254600160a060020a031633146108e65760405160e560020a62461bcd0281526004016104e390613118565b6108f0600061204c565b565b600254600160a060020a0316331461091f5760405160e560020a62461bcd0281526004016104e390613118565b610928816120ab565b156109785760405160e560020a62461bcd02815260206004820152601460248201527f517565737420616c72656164792065786973747300000000000000000000000060448201526064016104e3565b610981816106a1565b610120820152600580546001810182556000829052825160179091027f036b6384b5eca791c62761152d0c79bb0604c104a5fb6f4eb0703f3154bb3db0810191825560208401517f036b6384b5eca791c62761152d0c79bb0604c104a5fb6f4eb0703f3154bb3db182015560408401517f036b6384b5eca791c62761152d0c79bb0604c104a5fb6f4eb0703f3154bb3db282015560608401517f036b6384b5eca791c62761152d0c79bb0604c104a5fb6f4eb0703f3154bb3db382015560808401517f036b6384b5eca791c62761152d0c79bb0604c104a5fb6f4eb0703f3154bb3db482015560a08401517f036b6384b5eca791c62761152d0c79bb0604c104a5fb6f4eb0703f3154bb3db582015560c08401517f036b6384b5eca791c62761152d0c79bb0604c104a5fb6f4eb0703f3154bb3db682015560e08401517f036b6384b5eca791c62761152d0c79bb0604c104a5fb6f4eb0703f3154bb3db78201556101008401518493610b17927f036b6384b5eca791c62761152d0c79bb0604c104a5fb6f4eb0703f3154bb3db80191906129e8565b50610120820151610b2e90600d830190600a612a16565b50505050565b600254600160a060020a03163314610b615760405160e560020a62461bcd0281526004016104e390613118565b80518214610c005760405160e560020a62461bcd02815260206004820152604860248201527f457863657074696f6e3a206d7573742070726f766964652061206d617472697860448201527f206f662076616c756573206f66207468652073616d65206c656e67687420746860648201527f616e206c6576656c000000000000000000000000000000000000000000000000608482015260a4016104e3565b600682905580516107ac906007906020840190612a43565b610c20612a7d565b60058281548110610c3357610c3361339d565b906000526020600020906017020160405180610140016040529081600082015481526020016001820154815260200160028201548152602001600382015481526020016004820154815260200160058201548152602001600682015481526020016007820154815260200160088201600580602002604051908101604052809291908260058015610cd9576020028201915b815481526020019060010190808311610cc5575b50505091835250506040805161014081019182905260209092019190600d840190600a9082845b815481526020019060010190808311610d00575050505050815250509050919050565b60058181548110610d3357600080fd5b90600052602060002090601702016000915090508060000154908060010154908060020154908060030154908060040154908060050154908060060154908060070154905088565b6000828152600160205260408120610d9390836122f8565b9392505050565b600091825260208281526040808420600160a060020a0393909316845291905290205460ff1690565b600254600160a060020a03163314610df05760405160e560020a62461bcd0281526004016104e390613118565b6008805473ffffffffffffffffffffffffffffffffffffffff1916600160a060020a0392909216919091179055565b600254600160a060020a03163314610e4c5760405160e560020a62461bcd0281526004016104e390613118565b6005548110610e705760405160e560020a62461bcd0281526004016104e39061314d565b610f7460058281548110610e8657610e8661339d565b906000526020600020906017020160405180610140016040529081600082015481526020016001820154815260200160028201548152602001600382015481526020016004820154815260200160058201548152602001600682015481526020016007820154815260200160088201600580602002604051908101604052809291908260058015610f2c576020028201915b815481526020019060010190808311610f18575b50505091835250506040805161014081019182905260209092019190600d840190600a9082845b815481526020019060010190808311610f53575050505050815250506106a1565b60058281548110610f8757610f8761339d565b9060005260206000209060170201600d0190600a610fa6929190612a16565b5050565b600254600160a060020a03163314610fd75760405160e560020a62461bcd0281526004016104e390613118565b600a805473ffffffffffffffffffffffffffffffffffffffff1916600160a060020a0392909216919091179055565b600254600160a060020a03163314610fa65760405160e560020a62461bcd0281526004016104e390613118565b6009546040517f6352211e00000000000000000000000000000000000000000000000000000000815260048101849052600160a060020a0390911690636352211e9060240160206040518083038186803b15801561109057600080fd5b505afa1580156110a4573d6000803e3d6000fd5b505050506040513d601f19601f820116820180604052508101906110c89190612c88565b600160a060020a031633600160a060020a0316146111515760405160e560020a62461bcd02815260206004820152602560248201527f43616c6c6572206973206e6f7420746865206f776e6572206f6620746865207060448201527f6c6179657200000000000000000000000000000000000000000000000000000060648201526084016104e3565b60065481106111ca5760405160e560020a62461bcd028152602060048201526024808201527f457863657074696f6e3a207175657374206c6576656c206f7574206f6620626f60448201527f756e64730000000000000000000000000000000000000000000000000000000060648201526084016104e3565b60055483106111ee5760405160e560020a62461bcd0281526004016104e39061314d565b60095460405160e060020a63ea132591028152600481018490524291600160a060020a03169063ea132591906024016103006040518083038186803b15801561123657600080fd5b505afa15801561124a573d6000803e3d6000fd5b505050506040513d601f19601f8201168201806040525081019061126e9190612d3a565b60800151106112c25760405160e560020a62461bcd02815260206004820152601b60248201527f457863657074696f6e3a20706c61796572206973206c6f636b6564000000000060448201526064016104e3565b6009546040517f7b00aee500000000000000000000000000000000000000000000000000000000815260048101849052600091600160a060020a031690637b00aee5906024016103006040518083038186803b15801561132157600080fd5b505afa158015611335573d6000803e3d6000fd5b505050506040513d601f19601f820116820180604052508101906113599190612d3a565b9050611363612a7d565b60408201516080015160649061137a90600161327e565b6005878154811061138d5761138d61339d565b90600052602060002090601702016001015460646113ab91906132aa565b6113b59190613296565b6113bf9190613296565b6020820152604082015160a001516064906113db90600161327e565b600587815481106113ee576113ee61339d565b90600052602060002090601702016002015460c861140c91906132aa565b6114169190613296565b6114209190613296565b81602001818151611431919061327e565b90525060058054869081106114485761144861339d565b600091825260208220600d6017909202010101546005868154811061146f5761146f61339d565b90600052602060002090601702016005015461148b919061327e565b60a08201526005805460649190879081106114a8576114a861339d565b9060005260206000209060170201600d016001600a81106114cb576114cb61339d565b0154600587815481106114e0576114e061339d565b600091825260208220600d6017909202010101546114fe91906132aa565b6115089190613296565b8160a001818151611519919061327e565b90525060058054869081106115305761153061339d565b9060005260206000209060170201600d016002600a81106115535761155361339d565b0154600586815481106115685761156861339d565b906000526020600020906017020160060154611584919061327e565b60c0820152600580548690811061159d5761159d61339d565b9060005260206000209060170201600d016003600a81106115c0576115c061339d565b0154600586815481106115d5576115d561339d565b9060005260206000209060170201600701546115f1919061327e565b60e0820181905260a08201805161160990839061327e565b9052506007805460649190859081106116245761162461339d565b9060005260206000200154826020015161163e91906132aa565b6116489190613296565b81602001818151611659919061327e565b9052506007805460649190859081106116745761167461339d565b90600052602060002001548260a0015161168e91906132aa565b6116989190613296565b8160a0018181516116a9919061327e565b9052506007805460649190859081106116c4576116c461339d565b90600052602060002001548260c001516116de91906132aa565b6116e89190613296565b8160c0018181516116f9919061327e565b9052506040820151606081015190516000916117149161327e565b60408401516020810151905191925060649161173091906132aa565b61173a9190613296565b611744908261327e565b604084015160e0810151905191925061012c9161176191906132aa565b61176b9190613296565b611775908261327e565b6040848101519081015160e0909101519192509061012c9061179790836132aa565b6117a19190613296565b6117ab908261327e565b60c08401519091508260005b6003548110156118aa576004546000906064906117dd6117d88260026132aa565b612304565b6117e89060646132c9565b6117f2919061327e565b6117fc90876132aa565b6118069190613296565b9050808760a00151116118205750600060a08701526118aa565b808760a00181815161183291906132c9565b9052506004546064906118496117d88260026132aa565b6118549060646132c9565b61185e919061327e565b8860c0015161186d91906132aa565b6118779190613296565b905080861161188a5760009550506118aa565b61189481876132c9565b95505080806118a290613323565b9150506117b7565b506000828660a00151846118be91906132c9565b6118c99060646132aa565b6118d39190613296565b6009546040517f3143d97c000000000000000000000000000000000000000000000000000000008152600481018c9052426024820152919250600160a060020a031690633143d97c90604401600060405180830381600087803b15801561193957600080fd5b505af115801561194d573d6000803e3d6000fd5b5050505060005b60095460405160e060020a63ea132591028152600481018c9052600160a060020a039091169063ea132591906024016103006040518083038186803b15801561199c57600080fd5b505afa1580156119b0573d6000803e3d6000fd5b505050506040513d601f19601f820116820180604052508101906119d49190612d3a565b50600b811015611b955760095460405160e060020a63ea132591028152600481018c9052600160a060020a039091169063ea132591906024016103006040518083038186803b158015611a2657600080fd5b505afa158015611a3a573d6000803e3d6000fd5b505050506040513d601f19601f82011682018060405250810190611a5e9190612d3a565b6060015181600b8110611a7357611a7361339d565b602002015115611b835760085460095460405160e060020a63ea132591028152600481018d9052600160a060020a0392831692633143d97c92169063ea132591906024016103006040518083038186803b158015611ad057600080fd5b505afa158015611ae4573d6000803e3d6000fd5b505050506040513d601f19601f82011682018060405250810190611b089190612d3a565b6060015183600b8110611b1d57611b1d61339d565b602002015189602001516040518363ffffffff1660e060020a028152600401611b50929190918252602082015260400190565b600060405180830381600087803b158015611b6a57600080fd5b505af1158015611b7e573d6000803e3d6000fd5b505050505b80611b8d81613323565b915050611954565b506000606460078a81548110611bad57611bad61339d565b906000526020600020015460058d81548110611bcb57611bcb61339d565b906000526020600020906017020160030154611be791906132aa565b611bf19190613296565b60058c81548110611c0457611c0461339d565b906000526020600020906017020160030154611c20919061327e565b90506064611c2e83836132aa565b611c389190613296565b600a546009546040517f6352211e000000000000000000000000000000000000000000000000000000008152600481018e9052929350600160a060020a03918216926340c10f199290911690636352211e9060240160206040518083038186803b158015611ca557600080fd5b505afa158015611cb9573d6000803e3d6000fd5b505050506040513d601f19601f82011682018060405250810190611cdd9190612c88565b60405160e060020a63ffffffff8416028152600160a060020a03909116600482015260248101849052604401600060405180830381600087803b158015611d2357600080fd5b505af1158015611d37573d6000803e3d6000fd5b50505050600060078a81548110611d5057611d5061339d565b906000526020600020015460058d81548110611d6e57611d6e61339d565b906000526020600020906017020160040154611d8a919061327e565b90506064611d9884836132aa565b611da29190613296565b9050611daf60648361236d565b50505050505050505050505050565b60008181526001602052604081206104b0906123dd565b6107bb82826123e7565b600254600160a060020a03163314611e0c5760405160e560020a62461bcd0281526004016104e390613118565b600160a060020a038116611e8b5760405160e560020a62461bcd02815260206004820152602660248201527f4f776e61626c653a206e6577206f776e657220697320746865207a65726f206160448201527f646472657373000000000000000000000000000000000000000000000000000060648201526084016104e3565b611e948161204c565b50565b6000600160e060020a031982167f7965db0b0000000000000000000000000000000000000000000000000000000014806104b057507f01ffc9a700000000000000000000000000000000000000000000000000000000600160e060020a03198316146104b0565b611f066129ad565b60005b600a811015611f6957826040015181600a8110611f2857611f2861339d565b6020020151846040015182600a8110611f4357611f4361339d565b60200201818151611f54919061327e565b90525080611f6181613323565b915050611f09565b509192915050565b600082815260208190526040902060010154611f8d813361240d565b6107ac8383612474565b6000610d9383600160a060020a0384166124f8565b600160a060020a038116331461202d5760405160e560020a62461bcd02815260206004820152602f60248201527f416363657373436f6e74726f6c3a2063616e206f6e6c792072656e6f756e636560448201527f20726f6c657320666f722073656c66000000000000000000000000000000000060648201526084016104e3565b610fa68282612547565b6000610d9383600160a060020a0384166125ac565b60028054600160a060020a0383811673ffffffffffffffffffffffffffffffffffffffff19831681179093556040519116919082907f8be0079c531659141344cd1fd0a4f28419497f9722a3daafe3b4186f6b6457e090600090a35050565b6000805b6005548110156122ef57600581815481106120cc576120cc61339d565b90600052602060002090601702016001015483602001511480156121175750600581815481106120fe576120fe61339d565b9060005260206000209060170201600201548360400151145b801561214a5750600581815481106121315761213161339d565b9060005260206000209060170201600301548360600151145b801561217d5750600581815481106121645761216461339d565b9060005260206000209060170201600401548360800151145b80156121b05750600581815481106121975761219761339d565b9060005260206000209060170201600501548360a00151145b80156121e35750600581815481106121ca576121ca61339d565b9060005260206000209060170201600601548360c00151145b80156122165750600581815481106121fd576121fd61339d565b9060005260206000209060170201600701548360e00151145b80156122375750600581815481106122305761223061339d565b5060005260015b156122dd5760005b600582815481106122525761225261339d565b5060005260058110156122d35783610100015181600581106122765761227661339d565b60200201516005838154811061228e5761228e61339d565b906000526020600020906017020160080182600581106122b0576122b061339d565b0154146122c1575060009392505050565b806122cb81613323565b91505061223f565b5060019392505050565b806122e781613323565b9150506120af565b50600092915050565b6000610d9383836126a6565b600b80546000918261231583613323565b9091555050600b54604080514260208201526c010000000000000000000000003302918101919091526054810191909152829060740160408051601f1981840301815291905280516020909101206104b0919061333e565b600b80546000918261237e83613323565b9091555050600b54604080514260208201526c01000000000000000000000000330291810191909152605481019190915260748101839052839060940160408051601f198184030181529190528051602090910120610d93919061333e565b60006104b0825490565b600082815260208190526040902060010154612403813361240d565b6107ac8383612547565b6124178282610d9a565b610fa65761242f81600160a060020a031660146126d0565b61243a8360206126d0565b60405160200161244b929190613011565b60408051601f198184030181529082905260e560020a62461bcd0282526104e3916004016130e5565b61247e8282610d9a565b610fa657600082815260208181526040808320600160a060020a03851684529091529020805460ff191660011790556124b43390565b600160a060020a031681600160a060020a0316837f2f8788117e7eff1d82e926ec794901d17c78024a50270940304540a733656f0d60405160405180910390a45050565b600081815260018301602052604081205461253f575081546001818101845560008481526020808220909301849055845484825282860190935260409020919091556104b0565b5060006104b0565b6125518282610d9a565b15610fa657600082815260208181526040808320600160a060020a0385168085529252808320805460ff1916905551339285917ff6391f5c32d9c69d2a47ea670b442974b53935d1edc7fd64eb21e047a839171b9190a45050565b600081815260018301602052604081205480156126955760006125d06001836132c9565b85549091506000906125e4906001906132c9565b90508181146126495760008660000182815481106126045761260461339d565b90600052602060002001549050808760000184815481106126275761262761339d565b6000918252602080832090910192909255918252600188019052604090208390555b855486908061265a5761265a613384565b6001900381819060005260206000200160009055905585600101600086815260200190815260200160002060009055600193505050506104b0565b60009150506104b0565b5092915050565b60008260000182815481106126bd576126bd61339d565b9060005260206000200154905092915050565b606060006126df8360026132aa565b6126ea90600261327e565b67ffffffffffffffff811115612702576127026133b6565b6040519080825280601f01601f19166020018201604052801561272c576020820181803683370190505b5090507f3000000000000000000000000000000000000000000000000000000000000000816000815181106127635761276361339d565b60200101907effffffffffffffffffffffffffffffffffffffffffffffffffffffffffffff1916908160001a9053507f7800000000000000000000000000000000000000000000000000000000000000816001815181106127c6576127c661339d565b60200101907effffffffffffffffffffffffffffffffffffffffffffffffffffffffffffff1916908160001a90535060006128028460026132aa565b61280d90600161327e565b90505b60018111156128c8577f303132333435363738396162636465660000000000000000000000000000000085600f166010811061284e5761284e61339d565b1a7f0100000000000000000000000000000000000000000000000000000000000000028282815181106128835761288361339d565b60200101907effffffffffffffffffffffffffffffffffffffffffffffffffffffffffffff1916908160001a9053506010909404936128c18161330c565b9050612810565b508315610d935760405160e560020a62461bcd02815260206004820181905260248201527f537472696e67733a20686578206c656e67746820696e73756666696369656e7460448201526064016104e3565b8260058101928215612945579182015b8281111561294557825482559160010191906001019061292a565b50612951929150612adb565b5090565b82600a8101928215612945579182018281111561294557825482559160010191906001019061292a565b50611e9490600a810190612adb565b604051806101400160405280600a906020820280368337509192915050565b6040518060a0016040528060008152602001600081526020016129ce61298e565b81526020016129db612af0565b8152602001600081525090565b8260058101928215612945579160200282015b828111156129455782518255916020019190600101906129fb565b82600a810192821561294557916020028201828111156129455782518255916020019190600101906129fb565b82805482825590600052602060002090810192821561294557916020028201828111156129455782518255916020019190600101906129fb565b6040518061014001604052806000815260200160008152602001600081526020016000815260200160008152602001600081526020016000815260200160008152602001612ac9612b0f565b8152602001612ad661298e565b905290565b5b808211156129515760008155600101612adc565b604051806101600160405280600b906020820280368337509192915050565b6040518060a001604052806005906020820280368337509192915050565b600082601f830112612b3e57600080fd5b612b46613229565b80838561014086011115612b5957600080fd5b60005b600a811015612b7b578135845260209384019390910190600101612b5c565b509095945050505050565b600082601f830112612b9757600080fd5b60405161016080820182811067ffffffffffffffff82111715612bbc57612bbc6133b6565b6040528184828101871015612bd057600080fd5b600092505b600b831015612bf557805182526001929092019160209182019101612bd5565b509195945050505050565b600082601f830112612c1157600080fd5b60405160a0810181811067ffffffffffffffff82111715612c3457612c346133b6565b604052808360a08101861015612c4957600080fd5b60005b6005811015612bf5578135835260209283019290910190600101612c4c565b600060208284031215612c7d57600080fd5b8135610d93816133cf565b600060208284031215612c9a57600080fd5b8151610d93816133cf565b600060208284031215612cb757600080fd5b5035919050565b60008060408385031215612cd157600080fd5b823591506020830135612ce3816133cf565b809150509250929050565b60008060408385031215612d0157600080fd5b50508035926020909101359150565b600060208284031215612d2257600080fd5b8135600160e060020a031981168114610d9357600080fd5b60006103008284031215612d4d57600080fd5b612d55613200565b825181526020808401518183015284605f850112612d7257600080fd5b612d7a613229565b8060408601610180870188811115612d9157600080fd5b60005b600a811015612db157825185529385019391850191600101612d94565b50826040870152612dc28982612b86565b6060870152505050506102e0939093015160808201529392505050565b60006102e08284031215612df257600080fd5b612dfa613229565b823581526020830135602082015260408301356040820152606083013560608201526080830135608082015260a083013560a082015260c083013560c082015260e083013560e0820152610100612e5385828601612c00565b90820152612e65846101a08501612b2d565b6101208201529392505050565b60008060408385031215612e8557600080fd5b8235915060208084013567ffffffffffffffff80821115612ea557600080fd5b818601915086601f830112612eb957600080fd5b813581811115612ecb57612ecb6133b6565b8381029150612edb84830161324d565b8181528481019084860184860187018b1015612ef657600080fd5b600095505b83861015612f19578035835260019590950194918601918601612efb565b508096505050505050509250929050565b6000808284036101e0811215612f3f57600080fd5b833592506101c080601f1983011215612f5757600080fd5b612f5f613200565b9150602085013582526040850135602083015260608501356040830152612f898660808701612b2d565b6060830152939093013560808401525092909150565b600080600060608486031215612fb457600080fd5b505081359360208301359350604090920135919050565b8060005b600a811015610b2e578151845260209384019390910190600101612fcf565b8060005b6005811015610b2e578151845260209384019390910190600101612ff2565b7f416363657373436f6e74726f6c3a206163636f756e74200000000000000000008152600083516130498160178501602088016132e0565b7f206973206d697373696e6720726f6c652000000000000000000000000000000060179184019182015283516130868160288401602088016132e0565b01602801949350505050565b61014081016104b08284612fcb565b6020808252825182820181905260009190848201906040850190845b818110156130d9578351835292840192918401916001016130bd565b50909695505050505050565b60208152600082518060208401526131048160408501602087016132e0565b601f01601f19169190910160400192915050565b6020808252818101527f4f776e61626c653a2063616c6c6572206973206e6f7420746865206f776e6572604082015260600190565b60208082526013908201527f496e646578206f7574206f6620626f756e647300000000000000000000000000604082015260600190565b60006102e082019050825182526020830151602083015260408301516040830152606083015160608301526080830151608083015260a083015160a083015260c083015160c083015260e083015160e0830152610100808401516131ea82850182612fee565b505061012083015161269f6101a0840182612fcb565b60405160a0810167ffffffffffffffff81118282101715613223576132236133b6565b60405290565b604051610140810167ffffffffffffffff81118282101715613223576132236133b6565b604051601f8201601f1916810167ffffffffffffffff81118282101715613276576132766133b6565b604052919050565b6000821982111561329157613291613352565b500190565b6000826132a5576132a561336b565b500490565b60008160001904831182151516156132c4576132c4613352565b500290565b6000828210156132db576132db613352565b500390565b60005b838110156132fb5781810151838201526020016132e3565b83811115610b2e5750506000910152565b60008161331b5761331b613352565b506000190190565b600060001982141561333757613337613352565b5060010190565b60008261334d5761334d61336b565b500690565b60e060020a634e487b7102600052601160045260246000fd5b60e060020a634e487b7102600052601260045260246000fd5b60e060020a634e487b7102600052603160045260246000fd5b60e060020a634e487b7102600052603260045260246000fd5b60e060020a634e487b7102600052604160045260246000fd5b600160a060020a0381168114611e9457600080fdfea2646970667358221220755ad00193ba02e073b4c64939bd4b2a9525c0e31150ef97d13f31876a49ab3364736f6c63430008060033",
  "immutableReferences": {},
  "source": "//SPDX-License-Identifier: MIT\npragma solidity ^0.8.0;\n\nimport \"@openzeppelin/contracts/access/Ownable.sol\";\nimport \"@openzeppelin/contracts/access/AccessControlEnumerable.sol\";\n\nimport \"./Equipment.sol\";\nimport \"./Characters.sol\";\nimport \"./GameCoin.sol\";\n\nimport {StatsAndSlots} from \"./StatsAndSlots.sol\";\n\n    //***********************************\n    // SETUP AFTER DEPLOY\n    //***********************************\n    // SET EQUIPMENT MINTER_ROLE TO THIS ADDRESS\n    // SET TOKEN MINTER_ROLE TO THIS ADDRESS\n    // SET QUEST_ROLE TO THIS ADDRESS IN EQU AND CHAR SC\n    // SET GAMECOIN ADDRESS\n    // SET CHARACTER ADDRESS\n    // SET EQUIPMENT ADDRESS\n    //***********************************\n\ncontract Quest is AccessControlEnumerable, Ownable {\n\n    struct questData {\n        uint questId;\t    //Index for client internal use\n        uint duration;\t    //Time to be completed (afected by mastery) 1/3 (cents on second)\n        uint range;\t        //Range (time to go forth and back affected by velocity) 2/3 (cents of second)\n        uint loot;\t\t    //Loot tokens\n        uint drop;\t\t    //Basic points to get an NFT\n        uint health;    \t//Basic health of the mission\n        uint attack;    \t//Basic health of the mission\n        uint defense;    \t//Basic health of the mission\n        uint[5] enemy;\t    //Enemy list  \n\n        uint256[10] calculatedStats;    //Only in runtime: to lower the gas\n    }\n\n    uint256 public combatLoops=10; //Number of loop on a combat\n    uint256 randomSpread=50;    //Random variation of attacks from 0 to 100. \n                                //A spread of 30 means that random moves from 70 to 130\n\n    //Quests to be played\n    //Administrators may update, delete or modify the content\n    questData[] public allQuests;\n\n    //maximum level a quest can be played\n    //This value may be updated based on the current tier\n    //For first tier we may limit to 10, the for second to 20, etc...\n    //The upgrade matrix MUST be also updated in order to go further with tiers\n    uint maxLevel;\n\n    //It MUST contains the coeficients to apply to each level upgrade\n    //This coeficients will be applied to duration, range, loot, drop and base points\n    //TODO TODO TODO Think if it must be also applied to enemies\n    //There must be the same amount of element as maxLevel\n    //For example, in tier 1 maxLevel=10\n    //upgradeMatrix=[0, 5, 10, 14, 18, 21, 24, 26, 28, 30]\n    //Each level means the percentage of upgrade for the level regarding the basic stats    \n    uint256[] upgradeMatrix;\n\n    Equipment internal _gearNFT;    //Address of equipement NFT SC\n    Characters internal _charNFT;   //Address of characters, either players and enemies, NFT SC\n    GameCoin internal _gaemCoin;    //Address of characters, either players and enemies, NFT SC\n\n    //Generic random counter, used to add a bit more of entropy\n    uint randomNonce=0;\n\n    //List of NFTs that can be drop\n    //It is a mapping that goes from the probability (in %1000) of get the drop to the array of drops to get\n    //For example, \n    // 1 per 1000 1=>array\n    // 10 per 1000 10=>array\n    // 100 per 1000 100=>array\n    //default      1000=>array\n    //TODO TODO TODO\n    //We must define the probability granularity of the drops\n    //that is, the keys of the mapping\n    //mapping (uint256 => Equipment.gearStats[]) private dropsNFT; \n\n    //Set combat loop\n    function setCombatLoops(uint256 newLoops) public onlyOwner {\n        combatLoops=newLoops;\n    }\n\n    //Set random spread\n    function setRandomSpread(uint256 spread) public onlyOwner {\n        randomSpread=spread;\n    }\n\n    //Set the equipment sc afdress\n    function setEquipmentAddress(address equipment) public onlyOwner {\n        _gearNFT=Equipment(equipment);\n    }\n\n    //Returns the drop array for an especific probability\n    //function getDropEquipment(uint prob) public view returns (Equipment.gearStats[] memory){\n    //    return dropsNFT[prob];\n    //}\n\n    //Set the array of gear for an especific probability\n    //function setDropEquipment(uint prob, Equipment.gearStats[] memory gear) public onlyOwner{\n    //     dropsNFT[prob]=gear;\n    //}\n\n    //To remove a drop do the following\n    //Get the array for especific probability\n    //Remove locally (at the react app) the element\n    //Set the array for especific probability\n\n\n    //Adds a single geat to the especific probability array\n    function addDropToEquipment(uint prob, Equipment.gearStats memory gear) public onlyOwner{\n         //dropsNFT[prob].push(gear);\n    }\n\n    //Set the charcaters sc address\n    function setCharactersAddress(address characters) public onlyOwner {\n        _charNFT=Characters(characters);\n    }\n\n    //Set the game coin sc address\n    function setGameCoinsAddress(address gameCoin) public onlyOwner {\n        _gaemCoin=GameCoin(gameCoin);\n    }\n\n    //Set the max level of the quest\n    function setMaxLevel(uint lvl, uint256[] memory matrixValues) public onlyOwner{\n        require(lvl == matrixValues.length, \"Exception: must provide a matrix of values of the same lenght than level\");\n\n        maxLevel=lvl;\n        upgradeMatrix=matrixValues;\n    }\n\n    //Returns the upgrade matrix\n    function getMatrix() public view returns (uint256[] memory){\n        return upgradeMatrix;\n    }\n\n    //Add a quest and recalculate stats\n    function addQuest(questData memory qData) public onlyOwner {\n        require(!questExists(qData), \"Quest already exists\");\n        //TODO TODO TODO\n        //Test that enemies exists\n        qData.calculatedStats=questEnemiesStats(qData);\n        allQuests.push(qData);\n    }\n\n    //Force recalculation of stats of a specific quest\n    //\n    //WARNING WARNING WARNING\n    //\n    //This function MUST be called for each quest whenever you updates \n    //an existing progress matrix of gear and or characters\n    function forceRecalculateStats(uint256 idQuest) public onlyOwner {\n        require(idQuest < allQuests.length, \"Index out of bounds\");\n        allQuests[idQuest].calculatedStats = questEnemiesStats(allQuests[idQuest]);\n    }\n\n    //Remove an element from the store array\n    function removeQuest(uint256 index) public onlyOwner {\n        require(index < allQuests.length, \"Index out of bounds\");\n\n        allQuests[index]= allQuests[ allQuests.length-1];\n        allQuests.pop();\n    }\n\n    //Returns especific item\n    function getQuestLength() public view returns(uint256) {\n        return allQuests.length;\n    }\n\n    //Returns especific item\n    function getQuestData(uint256 index) public view returns(questData memory) {\n        return allQuests[index];\n    }\n\n    function questExists(questData memory qData) internal view returns (bool) {\n        //questID is not compared\n        for(uint i=0; i<allQuests.length; i++) {\n            if( qData.duration==allQuests[i].duration &&\n                qData.range==allQuests[i].range &&\n                qData.loot==allQuests[i].loot &&\n                qData.drop==allQuests[i].drop &&\n                qData.health==allQuests[i].health &&\n                qData.attack==allQuests[i].attack &&\n                qData.defense==allQuests[i].defense &&\n                qData.enemy.length == allQuests[i].enemy.length) {\n                    for(uint j=0; j<allQuests[i].enemy.length; j++)\n                        if(allQuests[i].enemy[j]!=qData.enemy[j])\n                            return false;\n                    return true;\n                }\n        }\n        return false;\n    }\n\n    function addCraracterStats(Characters.charData memory ca , Characters.charData memory cb) internal pure returns(Characters.charData memory) {\n        \n        //WARNING WARNING WARNING\n        //It is supposed that vitality should be already applied. A percentual stat cannot be added!!\n        for(uint i=0; i< ca.stats.length; i++)\n            ca.stats[i]+=cb.stats[i];\n        return ca;\n    }\n\n    function questEnemiesStats(questData memory qData) public view returns (uint256[10] memory) {\n        Characters.charData memory cData;\n\n        //WARNING WARNING WARNING!! CHANGE CHANGE CHANGE!!\n        //It is supposed that vitality should be already applied. A percentual stat cannot be added!!\n        for(uint i=0; i < qData.enemy.length; i++) \n            cData=addCraracterStats(cData, _charNFT.calculatedStats(qData.enemy[i]));\n        \n        return cData.stats;\n    }\n\n    function playQuest(uint idQuest, uint idPlayer, uint questLevel) public {\n        require(msg.sender == _charNFT.ownerOf(idPlayer), \"Caller is not the owner of the player\");\n        require(questLevel < maxLevel, \"Exception: quest level out of bounds\");\n        require(idQuest < allQuests.length, \"Index out of bounds\");\n        require(_charNFT.baseStats(idPlayer).timeLock  < block.timestamp, \"Exception: player is locked\");\n\n        Characters.charData memory playerData = _charNFT.calculatedStats(idPlayer);\n\n        //We will use a struct to store all data to avoid the fkng\n        // 'Stack too deep, try removing local variables' error \n        questData memory qData;\n\n        //Quest total time calculation\n        qData.duration=((allQuests[idQuest].duration *100) /  (1+playerData.stats[StatsAndSlots.Mastery]))/100;\n        qData.duration += ((allQuests[idQuest].range *200) /  (1+playerData.stats[StatsAndSlots.Speed]))/100;\n\n        //adds the mision health points to all the enemies Health and apply Vitality\n        qData.health=allQuests[idQuest].health+allQuests[idQuest].calculatedStats[StatsAndSlots.Health];\n        //WARNING WARNING WARNING\n        //It is supposed that vitality should be already applied. A percentual stat cannot be added!!\n        qData.health += (allQuests[idQuest].calculatedStats[StatsAndSlots.Health] * allQuests[idQuest].calculatedStats[StatsAndSlots.Vitality])/100;\n\n        //adds the mision attack points to all the enemies Health and apply Vitality\n        qData.attack=allQuests[idQuest].attack+allQuests[idQuest].calculatedStats[StatsAndSlots.Attack];\n\n        //adds the mision attack points to all the enemies Health and apply Vitality\n        qData.defense=allQuests[idQuest].defense+allQuests[idQuest].calculatedStats[StatsAndSlots.Defense];\n\n        //Defense is like a shield, to simplify we add defense to health\n        qData.health += qData.defense;\n        \n        //Apply questLevel\n        qData.duration+=(qData.duration*upgradeMatrix[questLevel])/100;\n        qData.health+=(qData.health*upgradeMatrix[questLevel])/100;\n        qData.attack+=(qData.attack*upgradeMatrix[questLevel])/100;\n        //missionDefense+=(missionDefense*upgradeMatrix[questLevel])/100;\n\n\n\n        //calculates player Health and apply Vitality and faith\n        //Defense is like a shield, to simplify we add defense to health\n        uint256 playerHealth=playerData.stats[StatsAndSlots.Health]+playerData.stats[StatsAndSlots.Defense];\n        playerHealth += (playerData.stats[StatsAndSlots.Health] * playerData.stats[StatsAndSlots.Vitality])/100;\n        playerHealth += (playerData.stats[StatsAndSlots.Health] * playerData.stats[StatsAndSlots.Faith])/300;\n\n        //calculates player Attack and apply faith\n        uint256 playerAttack=playerData.stats[StatsAndSlots.Attack];\n        playerAttack += (playerData.stats[StatsAndSlots.Attack] * playerData.stats[StatsAndSlots.Faith])/300;\n\n        //calculates player defense and apply faith\n        //uint256 playerDefense=playerData.stats[StatsAndSlots.Defense];\n        //playerDefense += (playerData.stats[StatsAndSlots.Defense] * playerData.stats[StatsAndSlots.Faith])/300;\n\n        uint startMissionValue=qData.attack;\n        uint startPlayerValue=playerHealth;\n\n        //Well... lets go for the quest calculation\n        //I hope we didn't run out of gas... big calculations so far!\n        //\n        //We must start with a random seed\n        //and then iterate 'combatLoops' rounds (or until one dies)\n        //applying the basic formula in ten rounds\n        //Player hits : missionHealth -= playerAttack * random(interval)\n        //Mision hits : playerHealth -= missionAttack  * random(interval)\n        //\n        //NOTE: There is no enemy casualties along the combat\n        //missionAttack is the same from start to end...\n        //Could be interesting to allow player choose an strategy?\n        //I mean: kill weakest first or kill strongest first... or kill randomly\n        //May be for second version...\n\n        for(uint i=0; i<combatLoops; i++) {\n            //calculates player attack            \n            uint attack=(playerAttack * (100-randMod(2*randomSpread)+randomSpread))/100;\n            if(qData.health <=attack) {\n                //Player wins!\n                qData.health=0;\n                break;\n            }\n            qData.health-=attack;\n\n            attack=(qData.attack * (100-randMod(2*randomSpread)+randomSpread))/100;\n            if(playerHealth <=attack) {\n                //Player loses!\n                playerHealth=0;\n                break;\n            }            \n            playerHealth -= attack;\n        }\n        \n        //calculate % completed\n        uint256 completed = ((startMissionValue - qData.health) * 100) / startMissionValue;\n\n        //TODO TODO TODO\n        //Calculate token drop and send\n        //Calculate NFT probability\n        //Choose NFT minted (in needed) and send to player\n        //\n        //OPTIONALLY\n        //Create a combat history and returns to front\n        //\n\n        //Set timeLock for player and all his gear\n        _charNFT.setTimeLock(idPlayer, block.timestamp);\n        for(uint i=0; i<_charNFT.baseStats(idPlayer).gear.length; i++)\n            if(_charNFT.baseStats(idPlayer).gear[i]!=0)\n                _gearNFT.setTimeLock(_charNFT.baseStats(idPlayer).gear[i], qData.duration);\n        \n        //Calculate tokens to mint applying quest level and completion percentage\n        uint256 tokensToMint= allQuests[idQuest].loot+ ((allQuests[idQuest].loot * upgradeMatrix[questLevel]) / 100);\n        tokensToMint = (tokensToMint * completed)/100;\n\n        //Mint tokens\n        _gaemCoin.mint(_charNFT.ownerOf(idPlayer), tokensToMint);\n\n        //Recalculate drop probability applying quest level and completion percentage\n        uint NFTdropProbability = allQuests[idQuest].drop + upgradeMatrix[questLevel];\n        NFTdropProbability = (NFTdropProbability * completed)/100;\n\n        if(NFTdropProbability > randMod(100, tokensToMint)) {\n            //Mint NFT to player\n\n        }\n    }\n\n    //Pseudo random. I think is enough for the game\n    function randMod(uint _modulus) internal returns(uint) {\n        randomNonce++; \n        return uint(keccak256(abi.encodePacked(block.timestamp, msg.sender, randomNonce))) % _modulus;\n    }\n\n    //Pseudo random. I think is enough for the game\n    function randMod(uint _modulus, uint256 salt) internal returns(uint) {\n        randomNonce++; \n        return uint(keccak256(abi.encodePacked(block.timestamp, msg.sender, randomNonce, salt))) % _modulus;\n    }\n}",
  "sourcePath": "/home/javi/ChainsOfGlory/contracts/Quest.sol",
  "compiler": {
    "name": "solc",
    "version": "0.8.6+commit.11564f7e.Emscripten.clang"
  },
  "schemaVersion": "3.4.3",
  "updatedAt": "2021-12-02T12:07:08.218Z",
  "devdoc": {
    "kind": "dev",
    "methods": {
      "getRoleAdmin(bytes32)": {
        "details": "Returns the admin role that controls `role`. See {grantRole} and {revokeRole}. To change a role's admin, use {_setRoleAdmin}."
      },
      "getRoleMember(bytes32,uint256)": {
        "details": "Returns one of the accounts that have `role`. `index` must be a value between 0 and {getRoleMemberCount}, non-inclusive. Role bearers are not sorted in any particular way, and their ordering may change at any point. WARNING: When using {getRoleMember} and {getRoleMemberCount}, make sure you perform all queries on the same block. See the following https://forum.openzeppelin.com/t/iterating-over-elements-on-enumerableset-in-openzeppelin-contracts/2296[forum post] for more information."
      },
      "getRoleMemberCount(bytes32)": {
        "details": "Returns the number of accounts that have `role`. Can be used together with {getRoleMember} to enumerate all bearers of a role."
      },
      "grantRole(bytes32,address)": {
        "details": "Overload {grantRole} to track enumerable memberships"
      },
      "hasRole(bytes32,address)": {
        "details": "Returns `true` if `account` has been granted `role`."
      },
      "owner()": {
        "details": "Returns the address of the current owner."
      },
      "renounceOwnership()": {
        "details": "Leaves the contract without owner. It will not be possible to call `onlyOwner` functions anymore. Can only be called by the current owner. NOTE: Renouncing ownership will leave the contract without an owner, thereby removing any functionality that is only available to the owner."
      },
      "renounceRole(bytes32,address)": {
        "details": "Overload {renounceRole} to track enumerable memberships"
      },
      "revokeRole(bytes32,address)": {
        "details": "Overload {revokeRole} to track enumerable memberships"
      },
      "supportsInterface(bytes4)": {
        "details": "See {IERC165-supportsInterface}."
      },
      "transferOwnership(address)": {
        "details": "Transfers ownership of the contract to a new account (`newOwner`). Can only be called by the current owner."
      }
    },
    "version": 1
  },
  "userdoc": {
    "kind": "user",
    "methods": {},
    "version": 1
  }
}