{
  "contractName": "Quest",
  "abi": [
    {
      "anonymous": false,
      "inputs": [
        {
          "indexed": true,
          "internalType": "address",
          "name": "previousOwner",
          "type": "address"
        },
        {
          "indexed": true,
          "internalType": "address",
          "name": "newOwner",
          "type": "address"
        }
      ],
      "name": "OwnershipTransferred",
      "type": "event"
    },
    {
      "anonymous": false,
      "inputs": [
        {
          "indexed": true,
          "internalType": "bytes32",
          "name": "role",
          "type": "bytes32"
        },
        {
          "indexed": true,
          "internalType": "bytes32",
          "name": "previousAdminRole",
          "type": "bytes32"
        },
        {
          "indexed": true,
          "internalType": "bytes32",
          "name": "newAdminRole",
          "type": "bytes32"
        }
      ],
      "name": "RoleAdminChanged",
      "type": "event"
    },
    {
      "anonymous": false,
      "inputs": [
        {
          "indexed": true,
          "internalType": "bytes32",
          "name": "role",
          "type": "bytes32"
        },
        {
          "indexed": true,
          "internalType": "address",
          "name": "account",
          "type": "address"
        },
        {
          "indexed": true,
          "internalType": "address",
          "name": "sender",
          "type": "address"
        }
      ],
      "name": "RoleGranted",
      "type": "event"
    },
    {
      "anonymous": false,
      "inputs": [
        {
          "indexed": true,
          "internalType": "bytes32",
          "name": "role",
          "type": "bytes32"
        },
        {
          "indexed": true,
          "internalType": "address",
          "name": "account",
          "type": "address"
        },
        {
          "indexed": true,
          "internalType": "address",
          "name": "sender",
          "type": "address"
        }
      ],
      "name": "RoleRevoked",
      "type": "event"
    },
    {
      "inputs": [],
      "name": "DEFAULT_ADMIN_ROLE",
      "outputs": [
        {
          "internalType": "bytes32",
          "name": "",
          "type": "bytes32"
        }
      ],
      "stateMutability": "view",
      "type": "function"
    },
    {
      "inputs": [
        {
          "internalType": "uint256",
          "name": "",
          "type": "uint256"
        }
      ],
      "name": "allQuests",
      "outputs": [
        {
          "internalType": "uint256",
          "name": "class",
          "type": "uint256"
        },
        {
          "internalType": "uint256",
          "name": "duration",
          "type": "uint256"
        },
        {
          "internalType": "uint256",
          "name": "range",
          "type": "uint256"
        },
        {
          "internalType": "uint256",
          "name": "loot",
          "type": "uint256"
        },
        {
          "internalType": "uint256",
          "name": "drop",
          "type": "uint256"
        },
        {
          "internalType": "uint256",
          "name": "basePoints",
          "type": "uint256"
        }
      ],
      "stateMutability": "view",
      "type": "function"
    },
    {
      "inputs": [
        {
          "internalType": "bytes32",
          "name": "role",
          "type": "bytes32"
        }
      ],
      "name": "getRoleAdmin",
      "outputs": [
        {
          "internalType": "bytes32",
          "name": "",
          "type": "bytes32"
        }
      ],
      "stateMutability": "view",
      "type": "function"
    },
    {
      "inputs": [
        {
          "internalType": "bytes32",
          "name": "role",
          "type": "bytes32"
        },
        {
          "internalType": "uint256",
          "name": "index",
          "type": "uint256"
        }
      ],
      "name": "getRoleMember",
      "outputs": [
        {
          "internalType": "address",
          "name": "",
          "type": "address"
        }
      ],
      "stateMutability": "view",
      "type": "function"
    },
    {
      "inputs": [
        {
          "internalType": "bytes32",
          "name": "role",
          "type": "bytes32"
        }
      ],
      "name": "getRoleMemberCount",
      "outputs": [
        {
          "internalType": "uint256",
          "name": "",
          "type": "uint256"
        }
      ],
      "stateMutability": "view",
      "type": "function"
    },
    {
      "inputs": [
        {
          "internalType": "bytes32",
          "name": "role",
          "type": "bytes32"
        },
        {
          "internalType": "address",
          "name": "account",
          "type": "address"
        }
      ],
      "name": "grantRole",
      "outputs": [],
      "stateMutability": "nonpayable",
      "type": "function"
    },
    {
      "inputs": [
        {
          "internalType": "bytes32",
          "name": "role",
          "type": "bytes32"
        },
        {
          "internalType": "address",
          "name": "account",
          "type": "address"
        }
      ],
      "name": "hasRole",
      "outputs": [
        {
          "internalType": "bool",
          "name": "",
          "type": "bool"
        }
      ],
      "stateMutability": "view",
      "type": "function"
    },
    {
      "inputs": [],
      "name": "owner",
      "outputs": [
        {
          "internalType": "address",
          "name": "",
          "type": "address"
        }
      ],
      "stateMutability": "view",
      "type": "function"
    },
    {
      "inputs": [],
      "name": "renounceOwnership",
      "outputs": [],
      "stateMutability": "nonpayable",
      "type": "function"
    },
    {
      "inputs": [
        {
          "internalType": "bytes32",
          "name": "role",
          "type": "bytes32"
        },
        {
          "internalType": "address",
          "name": "account",
          "type": "address"
        }
      ],
      "name": "renounceRole",
      "outputs": [],
      "stateMutability": "nonpayable",
      "type": "function"
    },
    {
      "inputs": [
        {
          "internalType": "bytes32",
          "name": "role",
          "type": "bytes32"
        },
        {
          "internalType": "address",
          "name": "account",
          "type": "address"
        }
      ],
      "name": "revokeRole",
      "outputs": [],
      "stateMutability": "nonpayable",
      "type": "function"
    },
    {
      "inputs": [
        {
          "internalType": "bytes4",
          "name": "interfaceId",
          "type": "bytes4"
        }
      ],
      "name": "supportsInterface",
      "outputs": [
        {
          "internalType": "bool",
          "name": "",
          "type": "bool"
        }
      ],
      "stateMutability": "view",
      "type": "function"
    },
    {
      "inputs": [
        {
          "internalType": "address",
          "name": "newOwner",
          "type": "address"
        }
      ],
      "name": "transferOwnership",
      "outputs": [],
      "stateMutability": "nonpayable",
      "type": "function"
    },
    {
      "inputs": [
        {
          "internalType": "uint256",
          "name": "lvl",
          "type": "uint256"
        },
        {
          "internalType": "uint256[]",
          "name": "matrixValues",
          "type": "uint256[]"
        }
      ],
      "name": "setMaxLevel",
      "outputs": [],
      "stateMutability": "nonpayable",
      "type": "function"
    },
    {
      "inputs": [],
      "name": "getMatrix",
      "outputs": [
        {
          "internalType": "uint256[]",
          "name": "",
          "type": "uint256[]"
        }
      ],
      "stateMutability": "view",
      "type": "function"
    },
    {
      "inputs": [
        {
          "components": [
            {
              "internalType": "uint256",
              "name": "class",
              "type": "uint256"
            },
            {
              "internalType": "uint256",
              "name": "duration",
              "type": "uint256"
            },
            {
              "internalType": "uint256",
              "name": "range",
              "type": "uint256"
            },
            {
              "internalType": "uint256",
              "name": "loot",
              "type": "uint256"
            },
            {
              "internalType": "uint256",
              "name": "drop",
              "type": "uint256"
            },
            {
              "internalType": "uint256",
              "name": "basePoints",
              "type": "uint256"
            },
            {
              "internalType": "uint256[]",
              "name": "enemy",
              "type": "uint256[]"
            }
          ],
          "internalType": "struct Quest.questData",
          "name": "qData",
          "type": "tuple"
        }
      ],
      "name": "addQuest",
      "outputs": [],
      "stateMutability": "nonpayable",
      "type": "function"
    },
    {
      "inputs": [
        {
          "internalType": "uint256",
          "name": "index",
          "type": "uint256"
        }
      ],
      "name": "removeQuest",
      "outputs": [],
      "stateMutability": "nonpayable",
      "type": "function"
    },
    {
      "inputs": [],
      "name": "getQuestLength",
      "outputs": [
        {
          "internalType": "uint256",
          "name": "",
          "type": "uint256"
        }
      ],
      "stateMutability": "view",
      "type": "function"
    },
    {
      "inputs": [
        {
          "internalType": "uint256",
          "name": "index",
          "type": "uint256"
        }
      ],
      "name": "getQuestData",
      "outputs": [
        {
          "components": [
            {
              "internalType": "uint256",
              "name": "class",
              "type": "uint256"
            },
            {
              "internalType": "uint256",
              "name": "duration",
              "type": "uint256"
            },
            {
              "internalType": "uint256",
              "name": "range",
              "type": "uint256"
            },
            {
              "internalType": "uint256",
              "name": "loot",
              "type": "uint256"
            },
            {
              "internalType": "uint256",
              "name": "drop",
              "type": "uint256"
            },
            {
              "internalType": "uint256",
              "name": "basePoints",
              "type": "uint256"
            },
            {
              "internalType": "uint256[]",
              "name": "enemy",
              "type": "uint256[]"
            }
          ],
          "internalType": "struct Quest.questData",
          "name": "",
          "type": "tuple"
        }
      ],
      "stateMutability": "view",
      "type": "function"
    }
  ],
  "bytecode": "0x608060405234801561001057600080fd5b50610033610025640100000000610038810204565b64010000000061003c810204565b61008e565b3390565b60028054600160a060020a03838116600160a060020a0319831681179093556040519116919082907f8be0079c531659141344cd1fd0a4f28419497f9722a3daafe3b4186f6b6457e090600090a35050565b6119f98061009d6000396000f3fe608060405234801561001057600080fd5b506004361061013e576000357c01000000000000000000000000000000000000000000000000000000009004806383983889116100ca578063a217fddf1161008e578063a217fddf146102ba578063a55e80ac146102c2578063ca15c873146102d5578063d547741f146102e8578063f2fde38b146102fb57600080fd5b8063839838891461020f5780638da5cb5b1461022f5780638e5208e5146102545780639010d07c1461029457806391d14854146102a757600080fd5b806336568abe1161011157806336568abe146101c45780635ad3a0a8146101d757806369204f35146101ec578063715018a6146101f457806376a66e8d146101fc57600080fd5b806301ffc9a7146101435780631ca4d41c1461016b578063248a9ca3146101805780632f2ff15d146101b1575b600080fd5b6101566101513660046115d9565b61030e565b60405190151581526020015b60405180910390f35b61017e610179366004611572565b610352565b005b6101a361018e366004611572565b60009081526020819052604090206001015490565b604051908152602001610162565b61017e6101bf36600461158b565b6104e2565b61017e6101d236600461158b565b610509565b6101df61052b565b60405161016291906117af565b6003546101a3565b61017e610583565b61017e61020a3660046116ac565b6105bc565b61022261021d366004611572565b6106a0565b604051610162919061182a565b600254600160a060020a03165b604051600160a060020a039091168152602001610162565b610267610262366004611572565b6107a7565b604080519687526020870195909552938501929092526060840152608083015260a082015260c001610162565b61023c6102a23660046115b7565b6107ed565b6101566102b536600461158b565b61080c565b6101a3600081565b61017e6102d0366004611603565b610835565b6101a36102e3366004611572565b610a06565b61017e6102f636600461158b565b610a1d565b61017e610309366004611557565b610a27565b6000600160e060020a031982167f5a05180f00000000000000000000000000000000000000000000000000000000148061034c575061034c82610adf565b92915050565b600254600160a060020a031633146103885760405160e560020a62461bcd02815260040161037f906117f5565b60405180910390fd5b60035481106103dc5760405160e560020a62461bcd02815260206004820152601360248201527f496e646578206f7574206f6620626f756e647300000000000000000000000000604482015260640161037f565b600380546103ec906001906118ea565b815481106103fc576103fc611991565b90600052602060002090600702016003828154811061041d5761041d611991565b9060005260206000209060070201600082015481600001556001820154816001015560028201548160020155600382015481600301556004820154816004015560058201548160050155600682018160060190805461047d9291906113dd565b50905050600380548061049257610492611978565b6000828152602081206007600019909301928302018181556001810182905560028101829055600381018290556004810182905560058101829055906104db600683018261142d565b5050905550565b6104ec8282610b46565b60008281526001602052604090206105049082610b6c565b505050565b6105138282610b81565b60008281526001602052604090206105049082610c10565b6060600580548060200260200160405190810160405280929190818152602001828054801561057957602002820191906000526020600020905b815481526020019060010190808311610565575b5050505050905090565b600254600160a060020a031633146105b05760405160e560020a62461bcd02815260040161037f906117f5565b6105ba6000610c25565b565b600254600160a060020a031633146105e95760405160e560020a62461bcd02815260040161037f906117f5565b805182146106885760405160e560020a62461bcd02815260206004820152604860248201527f457863657074696f6e3a206d7573742070726f766964652061206d617472697860448201527f206f662076616c756573206f66207468652073616d65206c656e67687420746860648201527f616e206c6576656c000000000000000000000000000000000000000000000000608482015260a40161037f565b6004829055805161050490600590602084019061144b565b6106e06040518060e00160405280600081526020016000815260200160008152602001600081526020016000815260200160008152602001606081525090565b600382815481106106f3576106f3611991565b90600052602060002090600702016040518060e00160405290816000820154815260200160018201548152602001600282015481526020016003820154815260200160048201548152602001600582015481526020016006820180548060200260200160405190810160405280929190818152602001828054801561079757602002820191906000526020600020905b815481526020019060010190808311610783575b5050505050815250509050919050565b600381815481106107b757600080fd5b60009182526020909120600790910201805460018201546002830154600384015460048501546005909501549395509193909286565b60008281526001602052604081206108059083610c84565b9392505050565b600091825260208281526040808420600160a060020a0393909316845291905290205460ff1690565b600254600160a060020a031633146108625760405160e560020a62461bcd02815260040161037f906117f5565b61086b81610c90565b156108bb5760405160e560020a62461bcd02815260206004820152601460248201527f517565737420616c726561647920657869737473000000000000000000000000604482015260640161037f565b60038054600181018255600091909152815160079091027fc2575a0e9e593c00f959f8c92f12db2869c3395a3b0502d05e2516446f71f85b81019182556020808401517fc2575a0e9e593c00f959f8c92f12db2869c3395a3b0502d05e2516446f71f85c83015560408401517fc2575a0e9e593c00f959f8c92f12db2869c3395a3b0502d05e2516446f71f85d83015560608401517fc2575a0e9e593c00f959f8c92f12db2869c3395a3b0502d05e2516446f71f85e83015560808401517fc2575a0e9e593c00f959f8c92f12db2869c3395a3b0502d05e2516446f71f85f83015560a08401517fc2575a0e9e593c00f959f8c92f12db2869c3395a3b0502d05e2516446f71f86083015560c08401518051859493610a00937fc2575a0e9e593c00f959f8c92f12db2869c3395a3b0502d05e2516446f71f86190910192019061144b565b50505050565b600081815260016020526040812061034c90610ea7565b6105138282610eb1565b600254600160a060020a03163314610a545760405160e560020a62461bcd02815260040161037f906117f5565b600160a060020a038116610ad35760405160e560020a62461bcd02815260206004820152602660248201527f4f776e61626c653a206e6577206f776e657220697320746865207a65726f206160448201527f6464726573730000000000000000000000000000000000000000000000000000606482015260840161037f565b610adc81610c25565b50565b6000600160e060020a031982167f7965db0b00000000000000000000000000000000000000000000000000000000148061034c57507f01ffc9a700000000000000000000000000000000000000000000000000000000600160e060020a031983161461034c565b600082815260208190526040902060010154610b628133610ed7565b6105048383610f3e565b600061080583600160a060020a038416610fc2565b600160a060020a0381163314610c025760405160e560020a62461bcd02815260206004820152602f60248201527f416363657373436f6e74726f6c3a2063616e206f6e6c792072656e6f756e636560448201527f20726f6c657320666f722073656c660000000000000000000000000000000000606482015260840161037f565b610c0c8282611011565b5050565b600061080583600160a060020a038416611076565b60028054600160a060020a0383811673ffffffffffffffffffffffffffffffffffffffff19831681179093556040519116919082907f8be0079c531659141344cd1fd0a4f28419497f9722a3daafe3b4186f6b6457e090600090a35050565b60006108058383611169565b6000805b600354811015610e9e5760038181548110610cb157610cb1611991565b9060005260206000209060070201600101548360200151148015610cfc575060038181548110610ce357610ce3611991565b9060005260206000209060070201600201548360400151145b8015610d2f575060038181548110610d1657610d16611991565b9060005260206000209060070201600301548360600151145b8015610d62575060038181548110610d4957610d49611991565b9060005260206000209060070201600401548360800151145b8015610d95575060038181548110610d7c57610d7c611991565b9060005260206000209060070201600501548360a00151145b8015610dcc575060038181548110610daf57610daf611991565b9060005260206000209060070201600601805490508360c0015151145b15610e8c5760005b60038281548110610de757610de7611991565b906000526020600020906007020160060180549050811015610e82578360c001518181518110610e1957610e19611991565b602002602001015160038381548110610e3457610e34611991565b90600052602060002090600702016006018281548110610e5657610e56611991565b906000526020600020015414610e70575060009392505050565b80610e7a81611944565b915050610dd4565b5060019392505050565b80610e9681611944565b915050610c94565b50600092915050565b600061034c825490565b600082815260208190526040902060010154610ecd8133610ed7565b6105048383611011565b610ee1828261080c565b610c0c57610ef981600160a060020a03166014611193565b610f04836020611193565b604051602001610f1592919061172e565b60408051601f198184030181529082905260e560020a62461bcd02825261037f916004016117c2565b610f48828261080c565b610c0c57600082815260208181526040808320600160a060020a03851684529091529020805460ff19166001179055610f7e3390565b600160a060020a031681600160a060020a0316837f2f8788117e7eff1d82e926ec794901d17c78024a50270940304540a733656f0d60405160405180910390a45050565b60008181526001830160205260408120546110095750815460018181018455600084815260208082209093018490558454848252828601909352604090209190915561034c565b50600061034c565b61101b828261080c565b15610c0c57600082815260208181526040808320600160a060020a0385168085529252808320805460ff1916905551339285917ff6391f5c32d9c69d2a47ea670b442974b53935d1edc7fd64eb21e047a839171b9190a45050565b6000818152600183016020526040812054801561115f57600061109a6001836118ea565b85549091506000906110ae906001906118ea565b90508181146111135760008660000182815481106110ce576110ce611991565b90600052602060002001549050808760000184815481106110f1576110f1611991565b6000918252602080832090910192909255918252600188019052604090208390555b855486908061112457611124611978565b60019003818190600052602060002001600090559055856001016000868152602001908152602001600020600090556001935050505061034c565b600091505061034c565b600082600001828154811061118057611180611991565b9060005260206000200154905092915050565b606060006111a28360026118cb565b6111ad9060026118b3565b67ffffffffffffffff8111156111c5576111c56119aa565b6040519080825280601f01601f1916602001820160405280156111ef576020820181803683370190505b5090507f30000000000000000000000000000000000000000000000000000000000000008160008151811061122657611226611991565b60200101907effffffffffffffffffffffffffffffffffffffffffffffffffffffffffffff1916908160001a9053507f78000000000000000000000000000000000000000000000000000000000000008160018151811061128957611289611991565b60200101907effffffffffffffffffffffffffffffffffffffffffffffffffffffffffffff1916908160001a90535060006112c58460026118cb565b6112d09060016118b3565b90505b600181111561138b577f303132333435363738396162636465660000000000000000000000000000000085600f166010811061131157611311611991565b1a7f01000000000000000000000000000000000000000000000000000000000000000282828151811061134657611346611991565b60200101907effffffffffffffffffffffffffffffffffffffffffffffffffffffffffffff1916908160001a9053506010909404936113848161192d565b90506112d3565b5083156108055760405160e560020a62461bcd02815260206004820181905260248201527f537472696e67733a20686578206c656e67746820696e73756666696369656e74604482015260640161037f565b82805482825590600052602060002090810192821561141d5760005260206000209182015b8281111561141d578254825591600101919060010190611402565b50611429929150611486565b5090565b5080546000825590600052602060002090810190610adc9190611486565b82805482825590600052602060002090810192821561141d579160200282015b8281111561141d57825182559160200191906001019061146b565b5b808211156114295760008155600101611487565b8035600160a060020a03811681146114b257600080fd5b919050565b600082601f8301126114c857600080fd5b8135602067ffffffffffffffff808311156114e5576114e56119aa565b818302604051601f19603f83011681018181108482111715611509576115096119aa565b6040528481528381019250868401828801850189101561152857600080fd5b600092505b8583101561154b57803584529284019260019290920191840161152d565b50979650505050505050565b60006020828403121561156957600080fd5b6108058261149b565b60006020828403121561158457600080fd5b5035919050565b6000806040838503121561159e57600080fd5b823591506115ae6020840161149b565b90509250929050565b600080604083850312156115ca57600080fd5b50508035926020909101359150565b6000602082840312156115eb57600080fd5b8135600160e060020a03198116811461080557600080fd5b60006020828403121561161557600080fd5b813567ffffffffffffffff8082111561162d57600080fd5b9083019060e0828603121561164157600080fd5b61164961188a565b823581526020830135602082015260408301356040820152606083013560608201526080830135608082015260a083013560a082015260c08301358281111561169157600080fd5b61169d878286016114b7565b60c08301525095945050505050565b600080604083850312156116bf57600080fd5b82359150602083013567ffffffffffffffff8111156116dd57600080fd5b6116e9858286016114b7565b9150509250929050565b600081518084526020808501945080840160005b8381101561172357815187529582019590820190600101611707565b509495945050505050565b7f416363657373436f6e74726f6c3a206163636f756e7420000000000000000000815260008351611766816017850160208801611901565b7f206973206d697373696e6720726f6c652000000000000000000000000000000060179184019182015283516117a3816028840160208801611901565b01602801949350505050565b60208152600061080560208301846116f3565b60208152600082518060208401526117e1816040850160208701611901565b601f01601f19169190910160400192915050565b6020808252818101527f4f776e61626c653a2063616c6c6572206973206e6f7420746865206f776e6572604082015260600190565b6020815281516020820152602082015160408201526040820151606082015260608201516080820152608082015160a082015260a082015160c0820152600060c083015160e0808401526118826101008401826116f3565b949350505050565b60405160e0810167ffffffffffffffff811182821017156118ad576118ad6119aa565b60405290565b600082198211156118c6576118c661195f565b500190565b60008160001904831182151516156118e5576118e561195f565b500290565b6000828210156118fc576118fc61195f565b500390565b60005b8381101561191c578181015183820152602001611904565b83811115610a005750506000910152565b60008161193c5761193c61195f565b506000190190565b60006000198214156119585761195861195f565b5060010190565b60e060020a634e487b7102600052601160045260246000fd5b60e060020a634e487b7102600052603160045260246000fd5b60e060020a634e487b7102600052603260045260246000fd5b60e060020a634e487b7102600052604160045260246000fdfea264697066735822122066cefb5ba2d5ce0dab9326e86de29f87a1cae8a8471dcb196ae90e305d91ea7a64736f6c63430008060033",
  "immutableReferences": {},
  "source": "//SPDX-License-Identifier: MIT\npragma solidity ^0.8.0;\n\nimport \"@openzeppelin/contracts/token/ERC721/ERC721.sol\";\nimport \"@openzeppelin/contracts/access/Ownable.sol\";\nimport \"@openzeppelin/contracts/access/AccessControlEnumerable.sol\";\nimport \"@openzeppelin/contracts/utils/Counters.sol\";\nimport \"./rarible/royalties/contracts/impl/RoyaltiesV2Impl.sol\";\nimport \"./rarible/royalties/contracts/LibPart.sol\";\nimport \"./rarible/royalties/contracts/LibRoyaltiesV2.sol\";\n\ncontract Quest is AccessControlEnumerable, Ownable {\n\n    struct questData {\n        uint class;\t        //Index for client internal use\n        uint duration;\t    //Time to be completed (afected by mastery) 1/3 \n        uint range;\t        //Range (time to go forth and back affected by velocity) 2/3\n        uint loot;\t\t    //Loot tokens\n        uint drop;\t\t    //Basic points to get an NFT\n        uint basePoints;\t//Basic difficult of the mission\n        uint[] enemy;\t    //Enemy list    \n    }\n\n\n    //Quests to be played\n    //Administrators may update, delete or modify the content\n    questData[] public allQuests;\n\n    //maximum level a quest can be played\n    //This value may be updated based on the current tier\n    //For first tier we may limit to 10, the for second to 20, etc...\n    //The upgrade matrix MUST be also updated in order to go further with tiers\n    uint maxLevel;\n\n    //It MUST contains the coeficients to apply to each level upgrade\n    //This coeficients will be applied to duration, range, loot, drop and base points\n    //TODO TODO TODO Think if it must be also applied to enemies\n    //There must be the same amount of element as maxLevel\n    //For example, in tier 1 maxLevel=10\n    //upgradeMatrix=[0, 5, 10, 14, 18, 21, 24, 26, 28, 30]\n    //Each level means the percentage of upgrade for the level regarding the basic stats    \n    uint256[] upgradeMatrix;\n\n\n\n    //Set the max level of the quest\n    function setMaxLevel(uint lvl, uint256[] memory matrixValues) public {\n        require(owner() == _msgSender(), \"Ownable: caller is not the owner\");\n        require(lvl == matrixValues.length, \"Exception: must provide a matrix of values of the same lenght than level\");\n\n        maxLevel=lvl;\n        upgradeMatrix=matrixValues;\n    }\n\n    function getMatrix() public view returns (uint256[] memory){\n        return upgradeMatrix;\n    }\n\n    function addQuest(questData memory qData) public onlyOwner {\n        require(!questExists(qData), \"Quest already exists\");\n        allQuests.push(qData);\n    }\n\n\n    //Remove an element from the store array\n    function removeQuest(uint256 index) public onlyOwner {\n        require(index < allQuests.length, \"Index out of bounds\");\n\n        allQuests[index]= allQuests[ allQuests.length-1];\n        allQuests.pop();\n    }\n\n    //Returns especific item\n    function getQuestLength() public view returns(uint256) {\n        return allQuests.length;\n    }\n\n    //Returns especific item\n    function getQuestData(uint256 index) public view returns(questData memory) {\n        return allQuests[index];\n    }\n\n    function questExists(questData memory qData) internal view returns (bool) {\n        for(uint i=0; i<allQuests.length; i++) {\n            if( qData.duration==allQuests[i].duration &&\n                qData.range==allQuests[i].range &&\n                qData.loot==allQuests[i].loot &&\n                qData.drop==allQuests[i].drop &&\n                qData.basePoints==allQuests[i].basePoints &&\n                qData.enemy.length == allQuests[i].enemy.length) {\n                    for(uint j=0; j<allQuests[i].enemy.length; j++)\n                        if(allQuests[i].enemy[j]!=qData.enemy[j])\n                            return false;\n                    return true;\n                }\n        }\n        return false;\n    }\n}",
  "sourcePath": "/Users/n65598/Development/Blockchain/ChainsOfGlory/contracts/Quest.sol",
  "compiler": {
    "name": "solc",
    "version": "0.8.6+commit.11564f7e.Emscripten.clang"
  },
  "schemaVersion": "3.4.3",
  "updatedAt": "2021-11-25T09:11:15.139Z",
  "devdoc": {
    "kind": "dev",
    "methods": {
      "getRoleAdmin(bytes32)": {
        "details": "Returns the admin role that controls `role`. See {grantRole} and {revokeRole}. To change a role's admin, use {_setRoleAdmin}."
      },
      "getRoleMember(bytes32,uint256)": {
        "details": "Returns one of the accounts that have `role`. `index` must be a value between 0 and {getRoleMemberCount}, non-inclusive. Role bearers are not sorted in any particular way, and their ordering may change at any point. WARNING: When using {getRoleMember} and {getRoleMemberCount}, make sure you perform all queries on the same block. See the following https://forum.openzeppelin.com/t/iterating-over-elements-on-enumerableset-in-openzeppelin-contracts/2296[forum post] for more information."
      },
      "getRoleMemberCount(bytes32)": {
        "details": "Returns the number of accounts that have `role`. Can be used together with {getRoleMember} to enumerate all bearers of a role."
      },
      "grantRole(bytes32,address)": {
        "details": "Overload {grantRole} to track enumerable memberships"
      },
      "hasRole(bytes32,address)": {
        "details": "Returns `true` if `account` has been granted `role`."
      },
      "owner()": {
        "details": "Returns the address of the current owner."
      },
      "renounceOwnership()": {
        "details": "Leaves the contract without owner. It will not be possible to call `onlyOwner` functions anymore. Can only be called by the current owner. NOTE: Renouncing ownership will leave the contract without an owner, thereby removing any functionality that is only available to the owner."
      },
      "renounceRole(bytes32,address)": {
        "details": "Overload {renounceRole} to track enumerable memberships"
      },
      "revokeRole(bytes32,address)": {
        "details": "Overload {revokeRole} to track enumerable memberships"
      },
      "supportsInterface(bytes4)": {
        "details": "See {IERC165-supportsInterface}."
      },
      "transferOwnership(address)": {
        "details": "Transfers ownership of the contract to a new account (`newOwner`). Can only be called by the current owner."
      }
    },
    "version": 1
  },
  "userdoc": {
    "kind": "user",
    "methods": {},
    "version": 1
  }
}