{
  "contractName": "Quest",
  "abi": [
    {
      "anonymous": false,
      "inputs": [
        {
          "indexed": true,
          "internalType": "address",
          "name": "previousOwner",
          "type": "address"
        },
        {
          "indexed": true,
          "internalType": "address",
          "name": "newOwner",
          "type": "address"
        }
      ],
      "name": "OwnershipTransferred",
      "type": "event"
    },
    {
      "anonymous": false,
      "inputs": [
        {
          "indexed": true,
          "internalType": "bytes32",
          "name": "role",
          "type": "bytes32"
        },
        {
          "indexed": true,
          "internalType": "bytes32",
          "name": "previousAdminRole",
          "type": "bytes32"
        },
        {
          "indexed": true,
          "internalType": "bytes32",
          "name": "newAdminRole",
          "type": "bytes32"
        }
      ],
      "name": "RoleAdminChanged",
      "type": "event"
    },
    {
      "anonymous": false,
      "inputs": [
        {
          "indexed": true,
          "internalType": "bytes32",
          "name": "role",
          "type": "bytes32"
        },
        {
          "indexed": true,
          "internalType": "address",
          "name": "account",
          "type": "address"
        },
        {
          "indexed": true,
          "internalType": "address",
          "name": "sender",
          "type": "address"
        }
      ],
      "name": "RoleGranted",
      "type": "event"
    },
    {
      "anonymous": false,
      "inputs": [
        {
          "indexed": true,
          "internalType": "bytes32",
          "name": "role",
          "type": "bytes32"
        },
        {
          "indexed": true,
          "internalType": "address",
          "name": "account",
          "type": "address"
        },
        {
          "indexed": true,
          "internalType": "address",
          "name": "sender",
          "type": "address"
        }
      ],
      "name": "RoleRevoked",
      "type": "event"
    },
    {
      "inputs": [],
      "name": "DEFAULT_ADMIN_ROLE",
      "outputs": [
        {
          "internalType": "bytes32",
          "name": "",
          "type": "bytes32"
        }
      ],
      "stateMutability": "view",
      "type": "function",
      "constant": true
    },
    {
      "inputs": [
        {
          "internalType": "uint256",
          "name": "",
          "type": "uint256"
        }
      ],
      "name": "allQuests",
      "outputs": [
        {
          "internalType": "uint256",
          "name": "questId",
          "type": "uint256"
        },
        {
          "internalType": "uint256",
          "name": "duration",
          "type": "uint256"
        },
        {
          "internalType": "uint256",
          "name": "range",
          "type": "uint256"
        },
        {
          "internalType": "uint256",
          "name": "loot",
          "type": "uint256"
        },
        {
          "internalType": "uint256",
          "name": "drop",
          "type": "uint256"
        },
        {
          "internalType": "uint256",
          "name": "health",
          "type": "uint256"
        },
        {
          "internalType": "uint256",
          "name": "attack",
          "type": "uint256"
        },
        {
          "internalType": "uint256",
          "name": "defense",
          "type": "uint256"
        }
      ],
      "stateMutability": "view",
      "type": "function",
      "constant": true
    },
    {
      "inputs": [],
      "name": "combatLoops",
      "outputs": [
        {
          "internalType": "uint256",
          "name": "",
          "type": "uint256"
        }
      ],
      "stateMutability": "view",
      "type": "function",
      "constant": true
    },
    {
      "inputs": [
        {
          "internalType": "bytes32",
          "name": "role",
          "type": "bytes32"
        }
      ],
      "name": "getRoleAdmin",
      "outputs": [
        {
          "internalType": "bytes32",
          "name": "",
          "type": "bytes32"
        }
      ],
      "stateMutability": "view",
      "type": "function",
      "constant": true
    },
    {
      "inputs": [
        {
          "internalType": "bytes32",
          "name": "role",
          "type": "bytes32"
        },
        {
          "internalType": "uint256",
          "name": "index",
          "type": "uint256"
        }
      ],
      "name": "getRoleMember",
      "outputs": [
        {
          "internalType": "address",
          "name": "",
          "type": "address"
        }
      ],
      "stateMutability": "view",
      "type": "function",
      "constant": true
    },
    {
      "inputs": [
        {
          "internalType": "bytes32",
          "name": "role",
          "type": "bytes32"
        }
      ],
      "name": "getRoleMemberCount",
      "outputs": [
        {
          "internalType": "uint256",
          "name": "",
          "type": "uint256"
        }
      ],
      "stateMutability": "view",
      "type": "function",
      "constant": true
    },
    {
      "inputs": [
        {
          "internalType": "bytes32",
          "name": "role",
          "type": "bytes32"
        },
        {
          "internalType": "address",
          "name": "account",
          "type": "address"
        }
      ],
      "name": "grantRole",
      "outputs": [],
      "stateMutability": "nonpayable",
      "type": "function"
    },
    {
      "inputs": [
        {
          "internalType": "bytes32",
          "name": "role",
          "type": "bytes32"
        },
        {
          "internalType": "address",
          "name": "account",
          "type": "address"
        }
      ],
      "name": "hasRole",
      "outputs": [
        {
          "internalType": "bool",
          "name": "",
          "type": "bool"
        }
      ],
      "stateMutability": "view",
      "type": "function",
      "constant": true
    },
    {
      "inputs": [],
      "name": "owner",
      "outputs": [
        {
          "internalType": "address",
          "name": "",
          "type": "address"
        }
      ],
      "stateMutability": "view",
      "type": "function",
      "constant": true
    },
    {
      "inputs": [],
      "name": "renounceOwnership",
      "outputs": [],
      "stateMutability": "nonpayable",
      "type": "function"
    },
    {
      "inputs": [
        {
          "internalType": "bytes32",
          "name": "role",
          "type": "bytes32"
        },
        {
          "internalType": "address",
          "name": "account",
          "type": "address"
        }
      ],
      "name": "renounceRole",
      "outputs": [],
      "stateMutability": "nonpayable",
      "type": "function"
    },
    {
      "inputs": [
        {
          "internalType": "bytes32",
          "name": "role",
          "type": "bytes32"
        },
        {
          "internalType": "address",
          "name": "account",
          "type": "address"
        }
      ],
      "name": "revokeRole",
      "outputs": [],
      "stateMutability": "nonpayable",
      "type": "function"
    },
    {
      "inputs": [
        {
          "internalType": "bytes4",
          "name": "interfaceId",
          "type": "bytes4"
        }
      ],
      "name": "supportsInterface",
      "outputs": [
        {
          "internalType": "bool",
          "name": "",
          "type": "bool"
        }
      ],
      "stateMutability": "view",
      "type": "function",
      "constant": true
    },
    {
      "inputs": [
        {
          "internalType": "address",
          "name": "newOwner",
          "type": "address"
        }
      ],
      "name": "transferOwnership",
      "outputs": [],
      "stateMutability": "nonpayable",
      "type": "function"
    },
    {
      "inputs": [
        {
          "internalType": "uint256",
          "name": "newLoops",
          "type": "uint256"
        }
      ],
      "name": "setCombatLoops",
      "outputs": [],
      "stateMutability": "nonpayable",
      "type": "function"
    },
    {
      "inputs": [
        {
          "internalType": "uint256",
          "name": "spread",
          "type": "uint256"
        }
      ],
      "name": "setRandomSpre4ad",
      "outputs": [],
      "stateMutability": "nonpayable",
      "type": "function"
    },
    {
      "inputs": [
        {
          "internalType": "address",
          "name": "equipment",
          "type": "address"
        }
      ],
      "name": "setEquipmentAddress",
      "outputs": [],
      "stateMutability": "nonpayable",
      "type": "function"
    },
    {
      "inputs": [
        {
          "internalType": "address",
          "name": "characters",
          "type": "address"
        }
      ],
      "name": "setCharactersAddress",
      "outputs": [],
      "stateMutability": "nonpayable",
      "type": "function"
    },
    {
      "inputs": [
        {
          "internalType": "uint256",
          "name": "lvl",
          "type": "uint256"
        },
        {
          "internalType": "uint256[]",
          "name": "matrixValues",
          "type": "uint256[]"
        }
      ],
      "name": "setMaxLevel",
      "outputs": [],
      "stateMutability": "nonpayable",
      "type": "function"
    },
    {
      "inputs": [],
      "name": "getMatrix",
      "outputs": [
        {
          "internalType": "uint256[]",
          "name": "",
          "type": "uint256[]"
        }
      ],
      "stateMutability": "view",
      "type": "function",
      "constant": true
    },
    {
      "inputs": [
        {
          "components": [
            {
              "internalType": "uint256",
              "name": "questId",
              "type": "uint256"
            },
            {
              "internalType": "uint256",
              "name": "duration",
              "type": "uint256"
            },
            {
              "internalType": "uint256",
              "name": "range",
              "type": "uint256"
            },
            {
              "internalType": "uint256",
              "name": "loot",
              "type": "uint256"
            },
            {
              "internalType": "uint256",
              "name": "drop",
              "type": "uint256"
            },
            {
              "internalType": "uint256",
              "name": "health",
              "type": "uint256"
            },
            {
              "internalType": "uint256",
              "name": "attack",
              "type": "uint256"
            },
            {
              "internalType": "uint256",
              "name": "defense",
              "type": "uint256"
            },
            {
              "internalType": "uint256[]",
              "name": "enemy",
              "type": "uint256[]"
            },
            {
              "internalType": "uint256[10]",
              "name": "calculatedStats",
              "type": "uint256[10]"
            }
          ],
          "internalType": "struct Quest.questData",
          "name": "qData",
          "type": "tuple"
        }
      ],
      "name": "addQuest",
      "outputs": [],
      "stateMutability": "nonpayable",
      "type": "function"
    },
    {
      "inputs": [
        {
          "internalType": "uint256",
          "name": "idQuest",
          "type": "uint256"
        }
      ],
      "name": "forceRecalculateStats",
      "outputs": [],
      "stateMutability": "nonpayable",
      "type": "function"
    },
    {
      "inputs": [
        {
          "internalType": "uint256",
          "name": "index",
          "type": "uint256"
        }
      ],
      "name": "removeQuest",
      "outputs": [],
      "stateMutability": "nonpayable",
      "type": "function"
    },
    {
      "inputs": [],
      "name": "getQuestLength",
      "outputs": [
        {
          "internalType": "uint256",
          "name": "",
          "type": "uint256"
        }
      ],
      "stateMutability": "view",
      "type": "function",
      "constant": true
    },
    {
      "inputs": [
        {
          "internalType": "uint256",
          "name": "index",
          "type": "uint256"
        }
      ],
      "name": "getQuestData",
      "outputs": [
        {
          "components": [
            {
              "internalType": "uint256",
              "name": "questId",
              "type": "uint256"
            },
            {
              "internalType": "uint256",
              "name": "duration",
              "type": "uint256"
            },
            {
              "internalType": "uint256",
              "name": "range",
              "type": "uint256"
            },
            {
              "internalType": "uint256",
              "name": "loot",
              "type": "uint256"
            },
            {
              "internalType": "uint256",
              "name": "drop",
              "type": "uint256"
            },
            {
              "internalType": "uint256",
              "name": "health",
              "type": "uint256"
            },
            {
              "internalType": "uint256",
              "name": "attack",
              "type": "uint256"
            },
            {
              "internalType": "uint256",
              "name": "defense",
              "type": "uint256"
            },
            {
              "internalType": "uint256[]",
              "name": "enemy",
              "type": "uint256[]"
            },
            {
              "internalType": "uint256[10]",
              "name": "calculatedStats",
              "type": "uint256[10]"
            }
          ],
          "internalType": "struct Quest.questData",
          "name": "",
          "type": "tuple"
        }
      ],
      "stateMutability": "view",
      "type": "function",
      "constant": true
    },
    {
      "inputs": [
        {
          "components": [
            {
              "internalType": "uint256",
              "name": "questId",
              "type": "uint256"
            },
            {
              "internalType": "uint256",
              "name": "duration",
              "type": "uint256"
            },
            {
              "internalType": "uint256",
              "name": "range",
              "type": "uint256"
            },
            {
              "internalType": "uint256",
              "name": "loot",
              "type": "uint256"
            },
            {
              "internalType": "uint256",
              "name": "drop",
              "type": "uint256"
            },
            {
              "internalType": "uint256",
              "name": "health",
              "type": "uint256"
            },
            {
              "internalType": "uint256",
              "name": "attack",
              "type": "uint256"
            },
            {
              "internalType": "uint256",
              "name": "defense",
              "type": "uint256"
            },
            {
              "internalType": "uint256[]",
              "name": "enemy",
              "type": "uint256[]"
            },
            {
              "internalType": "uint256[10]",
              "name": "calculatedStats",
              "type": "uint256[10]"
            }
          ],
          "internalType": "struct Quest.questData",
          "name": "qData",
          "type": "tuple"
        }
      ],
      "name": "questEnemiesStats",
      "outputs": [
        {
          "internalType": "uint256[10]",
          "name": "",
          "type": "uint256[10]"
        }
      ],
      "stateMutability": "view",
      "type": "function",
      "constant": true
    },
    {
      "inputs": [
        {
          "internalType": "uint256",
          "name": "idQuest",
          "type": "uint256"
        },
        {
          "internalType": "uint256",
          "name": "idPlayer",
          "type": "uint256"
        },
        {
          "internalType": "uint256",
          "name": "questLevel",
          "type": "uint256"
        }
      ],
      "name": "playQuest",
      "outputs": [],
      "stateMutability": "nonpayable",
      "type": "function"
    }
  ],
  "bytecode": "0x6080604052600a60035560326004556000600a553480156200002057600080fd5b5062000047620000386401000000006200004d810204565b64010000000062000051810204565b620000a3565b3390565b60028054600160a060020a03838116600160a060020a0319831681179093556040519116919082907f8be0079c531659141344cd1fd0a4f28419497f9722a3daafe3b4186f6b6457e090600090a35050565b612b0480620000b36000396000f3fe608060405234801561001057600080fd5b50600436106101c6576000357c0100000000000000000000000000000000000000000000000000000000900480638398388911610116578063aa540c65116100b4578063c67f86311161008e578063c67f8631146103f3578063ca15c87314610406578063d547741f14610419578063f2fde38b1461042c57600080fd5b8063aa540c65146103c4578063b3d0c988146103d7578063b7bcbae6146103ea57600080fd5b80639010d07c116100f05780639010d07c1461038357806391d1485414610396578063a217fddf146103a9578063a2846ad4146103b157600080fd5b806383983889146102f05780638da5cb5b146103105780638e5208e51461033557600080fd5b80634bdeaad5116101835780636590d0771161015d5780636590d077146102ad57806369204f35146102cd578063715018a6146102d557806376a66e8d146102dd57600080fd5b80634bdeaad514610272578063520923a3146102855780635ad3a0a81461029857600080fd5b8063012d3913146101cb57806301ffc9a7146101e05780631ca4d41c14610208578063248a9ca31461021b5780632f2ff15d1461024c57806336568abe1461025f575b600080fd5b6101de6101d9366004612489565b61043f565b005b6101f36101ee3660046124f0565b61047a565b60405190151581526020015b60405180910390f35b6101de610216366004612489565b6104be565b61023e610229366004612489565b60009081526020819052604090206001015490565b6040519081526020016101ff565b6101de61025a3660046124a2565b610658565b6101de61026d3660046124a2565b61067f565b6101de610280366004612489565b6106a1565b6101de61029336600461246e565b6106d3565b6102a061072f565b6040516101ff91906127ec565b6102c06102bb3660046125b4565b610787565b6040516101ff91906127dd565b60055461023e565b6101de610893565b6101de6102eb36600461268b565b6108cc565b6103036102fe366004612489565b6109b0565b6040516101ff919061289e565b600254600160a060020a03165b604051600160a060020a0390911681526020016101ff565b610348610343366004612489565b610ace565b604080519889526020890197909752958701949094526060860192909252608085015260a084015260c083015260e0820152610100016101ff565b61031d6103913660046124ce565b610b26565b6101f36103a43660046124a2565b610b45565b61023e600081565b6101de6103bf36600461246e565b610b6e565b6101de6103d23660046125b4565b610bca565b6101de6103e5366004612489565b610e14565b61023e60035481565b6101de6104013660046126d2565b610f85565b61023e610414366004612489565b6115e0565b6101de6104273660046124a2565b6115f7565b6101de61043a36600461246e565b611601565b600254600160a060020a031633146104755760405160e560020a62461bcd02815260040161046c90612832565b60405180910390fd5b600455565b6000600160e060020a031982167f5a05180f0000000000000000000000000000000000000000000000000000000014806104b857506104b8826116b9565b92915050565b600254600160a060020a031633146104eb5760405160e560020a62461bcd02815260040161046c90612832565b600554811061050f5760405160e560020a62461bcd02815260040161046c90612867565b6005805461051f906001906129c8565b8154811061052f5761052f612a9c565b90600052602060002090601302016005828154811061055057610550612a9c565b9060005260206000209060130201600082015481600001556001820154816001015560028201548160020155600382015481600301556004820154816004015560058201548160050155600682015481600601556007820154816007015560088201816008019080546105c49291906120f7565b506105d76009828101908401600a612147565b5090505060058054806105ec576105ec612a83565b60008281526020812060136000199093019283020181815560018101829055600281018290556003810182905560048101829055600581018290556006810182905560078101829055906106436008830182612171565b61065160098301600061218f565b5050905550565b6106628282611720565b600082815260016020526040902061067a9082611746565b505050565b610689828261175b565b600082815260016020526040902061067a90826117e6565b600254600160a060020a031633146106ce5760405160e560020a62461bcd02815260040161046c90612832565b600355565b600254600160a060020a031633146107005760405160e560020a62461bcd02815260040161046c90612832565b6009805473ffffffffffffffffffffffffffffffffffffffff1916600160a060020a0392909216919091179055565b6060600780548060200260200160405190810160405280929190818152602001828054801561077d57602002820191906000526020600020905b815481526020019060010190808311610769575b5050505050905090565b61078f61219e565b6107976121bd565b60005b83610100015151811015610888576009546101008501518051610874928592600160a060020a0390911691637b00aee59190869081106107dc576107dc612a9c565b60200260200101516040518263ffffffff167c010000000000000000000000000000000000000000000000000000000002815260040161081e91815260200190565b6102e06040518083038186803b15801561083757600080fd5b505afa15801561084b573d6000803e3d6000fd5b505050506040513d601f19601f8201168201806040525081019061086f919061251a565b6117fb565b91508061088081612a22565b91505061079a565b506040015192915050565b600254600160a060020a031633146108c05760405160e560020a62461bcd02815260040161046c90612832565b6108ca600061186e565b565b600254600160a060020a031633146108f95760405160e560020a62461bcd02815260040161046c90612832565b805182146109985760405160e560020a62461bcd02815260206004820152604860248201527f457863657074696f6e3a206d7573742070726f766964652061206d617472697860448201527f206f662076616c756573206f66207468652073616d65206c656e67687420746860648201527f616e206c6576656c000000000000000000000000000000000000000000000000608482015260a40161046c565b6006829055805161067a9060079060208401906121f0565b6109b861222b565b600582815481106109cb576109cb612a9c565b906000526020600020906013020160405180610140016040529081600082015481526020016001820154815260200160028201548152602001600382015481526020016004820154815260200160058201548152602001600682015481526020016007820154815260200160088201805480602002602001604051908101604052809291908181526020018280548015610a8457602002820191906000526020600020905b815481526020019060010190808311610a70575b505050918352505060408051610140810191829052602090920191906009840190600a9082845b815481526020019060010190808311610aab575050505050815250509050919050565b60058181548110610ade57600080fd5b90600052602060002090601302016000915090508060000154908060010154908060020154908060030154908060040154908060050154908060060154908060070154905088565b6000828152600160205260408120610b3e90836118cd565b9392505050565b600091825260208281526040808420600160a060020a0393909316845291905290205460ff1690565b600254600160a060020a03163314610b9b5760405160e560020a62461bcd02815260040161046c90612832565b6008805473ffffffffffffffffffffffffffffffffffffffff1916600160a060020a0392909216919091179055565b600254600160a060020a03163314610bf75760405160e560020a62461bcd02815260040161046c90612832565b610c00816118d9565b15610c505760405160e560020a62461bcd02815260206004820152601460248201527f517565737420616c726561647920657869737473000000000000000000000000604482015260640161046c565b610c5981610787565b61012082015260058054600181018255600091909152815160139091027f036b6384b5eca791c62761152d0c79bb0604c104a5fb6f4eb0703f3154bb3db081019182556020808401517f036b6384b5eca791c62761152d0c79bb0604c104a5fb6f4eb0703f3154bb3db183015560408401517f036b6384b5eca791c62761152d0c79bb0604c104a5fb6f4eb0703f3154bb3db283015560608401517f036b6384b5eca791c62761152d0c79bb0604c104a5fb6f4eb0703f3154bb3db383015560808401517f036b6384b5eca791c62761152d0c79bb0604c104a5fb6f4eb0703f3154bb3db483015560a08401517f036b6384b5eca791c62761152d0c79bb0604c104a5fb6f4eb0703f3154bb3db583015560c08401517f036b6384b5eca791c62761152d0c79bb0604c104a5fb6f4eb0703f3154bb3db683015560e08401517f036b6384b5eca791c62761152d0c79bb0604c104a5fb6f4eb0703f3154bb3db78301556101008401518051859493610df7937f036b6384b5eca791c62761152d0c79bb0604c104a5fb6f4eb0703f3154bb3db89091019201906121f0565b50610120820151610e0e906009830190600a61227e565b50505050565b6005548110610e385760405160e560020a62461bcd02815260040161046c90612867565b610f4f60058281548110610e4e57610e4e612a9c565b906000526020600020906013020160405180610140016040529081600082015481526020016001820154815260200160028201548152602001600382015481526020016004820154815260200160058201548152602001600682015481526020016007820154815260200160088201805480602002602001604051908101604052809291908181526020018280548015610f0757602002820191906000526020600020905b815481526020019060010190808311610ef3575b505050918352505060408051610140810191829052602090920191906009840190600a9082845b815481526020019060010190808311610f2e57505050505081525050610787565b60058281548110610f6257610f62612a9c565b906000526020600020906013020160090190600a610f8192919061227e565b5050565b6007548110610ffe5760405160e560020a62461bcd028152602060048201526024808201527f457863657074696f6e3a207175657374206c6576656c206f7574206f6620626f60448201527f756e647300000000000000000000000000000000000000000000000000000000606482015260840161046c565b60055483106110225760405160e560020a62461bcd02815260040161046c90612867565b6009546040517f7b00aee500000000000000000000000000000000000000000000000000000000815260048101849052600091600160a060020a031690637b00aee5906024016102e06040518083038186803b15801561108157600080fd5b505afa158015611095573d6000803e3d6000fd5b505050506040513d601f19601f820116820180604052508101906110b9919061251a565b90506000606482604001516004600a81106110d6576110d6612a9c565b60200201516110e690600161297d565b600587815481106110f9576110f9612a9c565b906000526020600020906013020160010154606461111791906129a9565b6111219190612995565b61112b9190612995565b604083015160a0015190915060649061114590600161297d565b6005878154811061115857611158612a9c565b90600052602060002090601302016002015460c861117691906129a9565b6111809190612995565b61118a9190612995565b611194908261297d565b90506000600586815481106111ab576111ab612a9c565b6000918252602082206009601390920201010154600587815481106111d2576111d2612a9c565b9060005260206000209060130201600501546111ee919061297d565b905060646005878154811061120557611205612a9c565b90600052602060002090601302016009016001600a811061122857611228612a9c565b01546005888154811061123d5761123d612a9c565b600091825260208220600960139092020101015461125b91906129a9565b6112659190612995565b61126f908261297d565b905060006005878154811061128657611286612a9c565b90600052602060002090601302016009016002600a81106112a9576112a9612a9c565b0154600588815481106112be576112be612a9c565b9060005260206000209060130201600601546112da919061297d565b90506000600588815481106112f1576112f1612a9c565b90600052602060002090601302016009016003600a811061131457611314612a9c565b01546005898154811061132957611329612a9c565b906000526020600020906013020160070154611345919061297d565b9050611351818461297d565b925060646007878154811061136857611368612a9c565b90600052602060002001548561137e91906129a9565b6113889190612995565b611392908561297d565b93506064600787815481106113a9576113a9612a9c565b9060005260206000200154846113bf91906129a9565b6113c99190612995565b6113d3908461297d565b92506064600787815481106113ea576113ea612a9c565b90600052602060002001548361140091906129a9565b61140a9190612995565b611414908361297d565b604086015160608101519051919350600091611430919061297d565b60408701516020810151905191925060649161144c91906129a9565b6114569190612995565b611460908261297d565b604087015160e0810151905191925061012c9161147d91906129a9565b6114879190612995565b611491908261297d565b6040878101519081015160e0909101519192509061012c906114b390836129a9565b6114bd9190612995565b6114c7908261297d565b9050848260005b6003548110156115ad576004546000906064906114f46114ef8260026129a9565b611b58565b6114ff9060646129c8565b611509919061297d565b61151390876129a9565b61151d9190612995565b90508089116115305760009850506115ad565b61153a818a6129c8565b6004549099506064906115516114ef8260026129a9565b61155c9060646129c8565b611566919061297d565b611570908a6129a9565b61157a9190612995565b905080861161158d5760009550506115ad565b61159781876129c8565b95505080806115a590612a22565b9150506114ce565b506000826115bb89826129c8565b6115c69060646129a9565b6115d09190612995565b5050505050505050505050505050565b60008181526001602052604081206104b890611bc1565b6106898282611bcb565b600254600160a060020a0316331461162e5760405160e560020a62461bcd02815260040161046c90612832565b600160a060020a0381166116ad5760405160e560020a62461bcd02815260206004820152602660248201527f4f776e61626c653a206e6577206f776e657220697320746865207a65726f206160448201527f6464726573730000000000000000000000000000000000000000000000000000606482015260840161046c565b6116b68161186e565b50565b6000600160e060020a031982167f7965db0b0000000000000000000000000000000000000000000000000000000014806104b857507f01ffc9a700000000000000000000000000000000000000000000000000000000600160e060020a03198316146104b8565b60008281526020819052604090206001015461173c8133611bf1565b61067a8383611c58565b6000610b3e83600160a060020a038416611cdc565b600160a060020a03811633146117dc5760405160e560020a62461bcd02815260206004820152602f60248201527f416363657373436f6e74726f6c3a2063616e206f6e6c792072656e6f756e636560448201527f20726f6c657320666f722073656c660000000000000000000000000000000000606482015260840161046c565b610f818282611d2b565b6000610b3e83600160a060020a038416611d90565b6118036121bd565b60005b600a81101561186657826040015181600a811061182557611825612a9c565b6020020151846040015182600a811061184057611840612a9c565b60200201818151611851919061297d565b9052508061185e81612a22565b915050611806565b509192915050565b60028054600160a060020a0383811673ffffffffffffffffffffffffffffffffffffffff19831681179093556040519116919082907f8be0079c531659141344cd1fd0a4f28419497f9722a3daafe3b4186f6b6457e090600090a35050565b6000610b3e8383611e83565b6000805b600554811015611b4f57600581815481106118fa576118fa612a9c565b906000526020600020906013020160010154836020015114801561194557506005818154811061192c5761192c612a9c565b9060005260206000209060130201600201548360400151145b801561197857506005818154811061195f5761195f612a9c565b9060005260206000209060130201600301548360600151145b80156119ab57506005818154811061199257611992612a9c565b9060005260206000209060130201600401548360800151145b80156119de5750600581815481106119c5576119c5612a9c565b9060005260206000209060130201600501548360a00151145b8015611a115750600581815481106119f8576119f8612a9c565b9060005260206000209060130201600601548360c00151145b8015611a44575060058181548110611a2b57611a2b612a9c565b9060005260206000209060130201600701548360e00151145b8015611a7c575060058181548110611a5e57611a5e612a9c565b90600052602060002090601302016008018054905083610100015151145b15611b3d5760005b60058281548110611a9757611a97612a9c565b906000526020600020906013020160080180549050811015611b33578361010001518181518110611aca57611aca612a9c565b602002602001015160058381548110611ae557611ae5612a9c565b90600052602060002090601302016008018281548110611b0757611b07612a9c565b906000526020600020015414611b21575060009392505050565b80611b2b81612a22565b915050611a84565b5060019392505050565b80611b4781612a22565b9150506118dd565b50600092915050565b600a805460009182611b6983612a22565b9091555050600a54604080514260208201526c010000000000000000000000003302918101919091526054810191909152829060740160408051601f1981840301815291905280516020909101206104b89190612a3d565b60006104b8825490565b600082815260208190526040902060010154611be78133611bf1565b61067a8383611d2b565b611bfb8282610b45565b610f8157611c1381600160a060020a03166014611ead565b611c1e836020611ead565b604051602001611c2f92919061275c565b60408051601f198184030181529082905260e560020a62461bcd02825261046c916004016127ff565b611c628282610b45565b610f8157600082815260208181526040808320600160a060020a03851684529091529020805460ff19166001179055611c983390565b600160a060020a031681600160a060020a0316837f2f8788117e7eff1d82e926ec794901d17c78024a50270940304540a733656f0d60405160405180910390a45050565b6000818152600183016020526040812054611d23575081546001818101845560008481526020808220909301849055845484825282860190935260409020919091556104b8565b5060006104b8565b611d358282610b45565b15610f8157600082815260208181526040808320600160a060020a0385168085529252808320805460ff1916905551339285917ff6391f5c32d9c69d2a47ea670b442974b53935d1edc7fd64eb21e047a839171b9190a45050565b60008181526001830160205260408120548015611e79576000611db46001836129c8565b8554909150600090611dc8906001906129c8565b9050818114611e2d576000866000018281548110611de857611de8612a9c565b9060005260206000200154905080876000018481548110611e0b57611e0b612a9c565b6000918252602080832090910192909255918252600188019052604090208390555b8554869080611e3e57611e3e612a83565b6001900381819060005260206000200160009055905585600101600086815260200190815260200160002060009055600193505050506104b8565b60009150506104b8565b6000826000018281548110611e9a57611e9a612a9c565b9060005260206000200154905092915050565b60606000611ebc8360026129a9565b611ec790600261297d565b67ffffffffffffffff811115611edf57611edf612ab5565b6040519080825280601f01601f191660200182016040528015611f09576020820181803683370190505b5090507f300000000000000000000000000000000000000000000000000000000000000081600081518110611f4057611f40612a9c565b60200101907effffffffffffffffffffffffffffffffffffffffffffffffffffffffffffff1916908160001a9053507f780000000000000000000000000000000000000000000000000000000000000081600181518110611fa357611fa3612a9c565b60200101907effffffffffffffffffffffffffffffffffffffffffffffffffffffffffffff1916908160001a9053506000611fdf8460026129a9565b611fea90600161297d565b90505b60018111156120a5577f303132333435363738396162636465660000000000000000000000000000000085600f166010811061202b5761202b612a9c565b1a7f01000000000000000000000000000000000000000000000000000000000000000282828151811061206057612060612a9c565b60200101907effffffffffffffffffffffffffffffffffffffffffffffffffffffffffffff1916908160001a90535060109094049361209e81612a0b565b9050611fed565b508315610b3e5760405160e560020a62461bcd02815260206004820181905260248201527f537472696e67733a20686578206c656e67746820696e73756666696369656e74604482015260640161046c565b8280548282559060005260206000209081019282156121375760005260206000209182015b8281111561213757825482559160010191906001019061211c565b506121439291506122ab565b5090565b82600a8101928215612137579182018281111561213757825482559160010191906001019061211c565b50805460008255906000526020600020908101906116b691906122ab565b506116b690600a8101906122ab565b604051806101400160405280600a906020820280368337509192915050565b604051806080016040528060008152602001600081526020016121de61219e565b81526020016121eb6122c0565b905290565b828054828255906000526020600020908101928215612137579160200282015b82811115612137578251825591602001919060010190612210565b6040518061014001604052806000815260200160008152602001600081526020016000815260200160008152602001600081526020016000815260200160008152602001606081526020016121eb61219e565b82600a81019282156121375791602002820182811115612137578251825591602001919060010190612210565b5b8082111561214357600081556001016122ac565b604051806101600160405280600b906020820280368337509192915050565b8035600160a060020a03811681146122f657600080fd5b919050565b600082601f83011261230c57600080fd5b612314612959565b8083856101408601111561232757600080fd5b60005b600a81101561234957813584526020938401939091019060010161232a565b509095945050505050565b600082601f83011261236557600080fd5b60405161016080820182811067ffffffffffffffff8211171561238a5761238a612ab5565b604052818482810187101561239e57600080fd5b600092505b600b8310156123c3578051825260019290920191602091820191016123a3565b509195945050505050565b600082601f8301126123df57600080fd5b8135602067ffffffffffffffff808311156123fc576123fc612ab5565b818302604051601f19603f8301168101818110848211171561242057612420612ab5565b6040528481528381019250868401828801850189101561243f57600080fd5b600092505b85831015612462578035845292840192600192909201918401612444565b50979650505050505050565b60006020828403121561248057600080fd5b610b3e826122df565b60006020828403121561249b57600080fd5b5035919050565b600080604083850312156124b557600080fd5b823591506124c5602084016122df565b90509250929050565b600080604083850312156124e157600080fd5b50508035926020909101359150565b60006020828403121561250257600080fd5b8135600160e060020a031981168114610b3e57600080fd5b60006102e0828403121561252d57600080fd5b612535612930565b825181526020808401518183015284605f85011261255257600080fd5b61255a612959565b806040860161018087018881111561257157600080fd5b60005b600a81101561259157825185529385019391850191600101612574565b508260408701526125a28982612354565b60608701525093979650505050505050565b6000602082840312156125c657600080fd5b813567ffffffffffffffff808211156125de57600080fd5b9083019061026082860312156125f357600080fd5b6125fb612959565b823581526020830135602082015260408301356040820152606083013560608201526080830135608082015260a083013560a082015260c083013560c082015260e083013560e0820152610100808401358381111561265957600080fd5b612665888287016123ce565b828401525050610120915061267c868385016122fb565b91810191909152949350505050565b6000806040838503121561269e57600080fd5b82359150602083013567ffffffffffffffff8111156126bc57600080fd5b6126c8858286016123ce565b9150509250929050565b6000806000606084860312156126e757600080fd5b505081359360208301359350604090920135919050565b8060005b600a811015610e0e578151845260209384019390910190600101612702565b600081518084526020808501945080840160005b8381101561275157815187529582019590820190600101612735565b509495945050505050565b7f416363657373436f6e74726f6c3a206163636f756e74200000000000000000008152600083516127948160178501602088016129df565b7f206973206d697373696e6720726f6c652000000000000000000000000000000060179184019182015283516127d18160288401602088016129df565b01602801949350505050565b61014081016104b882846126fe565b602081526000610b3e6020830184612721565b602081526000825180602084015261281e8160408501602087016129df565b601f01601f19169190910160400192915050565b6020808252818101527f4f776e61626c653a2063616c6c6572206973206e6f7420746865206f776e6572604082015260600190565b60208082526013908201527f496e646578206f7574206f6620626f756e647300000000000000000000000000604082015260600190565b6020815281516020820152602082015160408201526040820151606082015260608201516080820152608082015160a082015260a082015160c082015260c082015160e0820152600060e083015161010081818501528085015191505061012061026081850152612913610280850183612721565b908501519091506129286101408501826126fe565b509392505050565b6040516080810167ffffffffffffffff8111828210171561295357612953612ab5565b60405290565b604051610140810167ffffffffffffffff8111828210171561295357612953612ab5565b6000821982111561299057612990612a51565b500190565b6000826129a4576129a4612a6a565b500490565b60008160001904831182151516156129c3576129c3612a51565b500290565b6000828210156129da576129da612a51565b500390565b60005b838110156129fa5781810151838201526020016129e2565b83811115610e0e5750506000910152565b600081612a1a57612a1a612a51565b506000190190565b6000600019821415612a3657612a36612a51565b5060010190565b600082612a4c57612a4c612a6a565b500690565b60e060020a634e487b7102600052601160045260246000fd5b60e060020a634e487b7102600052601260045260246000fd5b60e060020a634e487b7102600052603160045260246000fd5b60e060020a634e487b7102600052603260045260246000fd5b60e060020a634e487b7102600052604160045260246000fdfea26469706673582212203e3c54ac3c2cd31fef9f2ccc99198cae82579ac5fede9dc737f8ae42d2503f4464736f6c63430008060033",
  "immutableReferences": {},
  "source": "//SPDX-License-Identifier: MIT\npragma solidity ^0.8.0;\n\nimport \"@openzeppelin/contracts/access/Ownable.sol\";\nimport \"@openzeppelin/contracts/access/AccessControlEnumerable.sol\";\n\nimport \"./Equipment.sol\";\nimport \"./Characters.sol\";\n\nimport {StatsAndSlots} from \"./StatsAndSlots.sol\";\n\ncontract Quest is AccessControlEnumerable, Ownable {\n\n    struct questData {\n        uint questId;\t    //Index for client internal use\n        uint duration;\t    //Time to be completed (afected by mastery) 1/3 (cents on second)\n        uint range;\t        //Range (time to go forth and back affected by velocity) 2/3 (cents of second)\n        uint loot;\t\t    //Loot tokens\n        uint drop;\t\t    //Basic points to get an NFT\n        uint health;    \t//Basic health of the mission\n        uint attack;    \t//Basic health of the mission\n        uint defense;    \t//Basic health of the mission\n        uint[] enemy;\t    //Enemy list  \n\n        uint256[10] calculatedStats;    //Only in runtime: to lower the gas\n    }\n\n    uint256 public combatLoops=10; //Number of loop on a combat\n    uint256 randomSpread=50;    //Random variation of attacks from 0 to 100. \n                                //A spread of 30 means that random moves from 70 to 130\n\n    //Quests to be played\n    //Administrators may update, delete or modify the content\n    questData[] public allQuests;\n\n    //maximum level a quest can be played\n    //This value may be updated based on the current tier\n    //For first tier we may limit to 10, the for second to 20, etc...\n    //The upgrade matrix MUST be also updated in order to go further with tiers\n    uint maxLevel;\n\n    //It MUST contains the coeficients to apply to each level upgrade\n    //This coeficients will be applied to duration, range, loot, drop and base points\n    //TODO TODO TODO Think if it must be also applied to enemies\n    //There must be the same amount of element as maxLevel\n    //For example, in tier 1 maxLevel=10\n    //upgradeMatrix=[0, 5, 10, 14, 18, 21, 24, 26, 28, 30]\n    //Each level means the percentage of upgrade for the level regarding the basic stats    \n    uint256[] upgradeMatrix;\n\n    Equipment internal _gearNFT;      //Address of equipement NFT SC\n    Characters internal _charNFT;      //Address of characters, either players and enemies, NFT SC\n\n    //Generic random counter, used to add a bit more of entropy\n    uint randomNonce=0;\n\n    //Set combat loop\n    function setCombatLoops(uint256 newLoops) public onlyOwner {\n        combatLoops=newLoops;\n    }\n\n    //Set random spread\n    function setRandomSpre4ad(uint256 spread) public onlyOwner {\n        randomSpread=spread;\n    }\n\n    //Set the equipment sc afdress\n    function setEquipmentAddress(address equipment) public onlyOwner {\n        _gearNFT=Equipment(equipment);\n    }\n\n    //Set the charcaters sc address\n    function setCharactersAddress(address characters) public onlyOwner {\n        _charNFT=Characters(characters);\n    }\n\n    //Set the max level of the quest\n    function setMaxLevel(uint lvl, uint256[] memory matrixValues) public {\n        require(owner() == _msgSender(), \"Ownable: caller is not the owner\");\n        require(lvl == matrixValues.length, \"Exception: must provide a matrix of values of the same lenght than level\");\n\n        maxLevel=lvl;\n        upgradeMatrix=matrixValues;\n    }\n\n    //Returns the upgrade matrix\n    function getMatrix() public view returns (uint256[] memory){\n        return upgradeMatrix;\n    }\n\n    //Add a quest and recalculate stats\n    function addQuest(questData memory qData) public onlyOwner {\n        require(!questExists(qData), \"Quest already exists\");\n        qData.calculatedStats=questEnemiesStats(qData);\n        allQuests.push(qData);\n    }\n\n    //Force recalculation of stats of a specific quest\n    //\n    //WARNING WARNING WARNING\n    //\n    //This function MUST be called for each quest whenever you updates \n    //an existing progress matrix of gear and or characters\n    function forceRecalculateStats(uint256 idQuest) public {\n        require(idQuest < allQuests.length, \"Index out of bounds\");\n        allQuests[idQuest].calculatedStats = questEnemiesStats(allQuests[idQuest]);\n    }\n\n    //Remove an element from the store array\n    function removeQuest(uint256 index) public onlyOwner {\n        require(index < allQuests.length, \"Index out of bounds\");\n\n        allQuests[index]= allQuests[ allQuests.length-1];\n        allQuests.pop();\n    }\n\n    //Returns especific item\n    function getQuestLength() public view returns(uint256) {\n        return allQuests.length;\n    }\n\n    //Returns especific item\n    function getQuestData(uint256 index) public view returns(questData memory) {\n        return allQuests[index];\n    }\n\n    function questExists(questData memory qData) internal view returns (bool) {\n        //questID is not compared\n        for(uint i=0; i<allQuests.length; i++) {\n            if( qData.duration==allQuests[i].duration &&\n                qData.range==allQuests[i].range &&\n                qData.loot==allQuests[i].loot &&\n                qData.drop==allQuests[i].drop &&\n                qData.health==allQuests[i].health &&\n                qData.attack==allQuests[i].attack &&\n                qData.defense==allQuests[i].defense &&\n                qData.enemy.length == allQuests[i].enemy.length) {\n                    for(uint j=0; j<allQuests[i].enemy.length; j++)\n                        if(allQuests[i].enemy[j]!=qData.enemy[j])\n                            return false;\n                    return true;\n                }\n        }\n        return false;\n    }\n\n    function addCraracterStats(Characters.charData memory ca , Characters.charData memory cb) internal pure returns(Characters.charData memory) {\n        for(uint i=0; i< ca.stats.length; i++)\n            ca.stats[i]+=cb.stats[i];\n        return ca;\n    }\n\n    function questEnemiesStats(questData memory qData) public view returns (uint256[10] memory) {\n        Characters.charData memory cData;\n\n        for(uint i=0; i < qData.enemy.length; i++) \n            cData=addCraracterStats(cData, _charNFT.calculatedStats(qData.enemy[i]));\n        \n        return cData.stats;\n    }\n\n    function playQuest(uint idQuest, uint idPlayer, uint questLevel) public {\n        require(questLevel < upgradeMatrix.length, \"Exception: quest level out of bounds\");\n        require(idQuest < allQuests.length, \"Index out of bounds\");\n\n        Characters.charData memory playerData = _charNFT.calculatedStats(idPlayer);\n\n        //Quest total time calculation\n        uint missionTime=((allQuests[idQuest].duration *100) /  (1+playerData.stats[StatsAndSlots.Mastery]))/100;\n        missionTime += ((allQuests[idQuest].range *200) /  (1+playerData.stats[StatsAndSlots.Speed]))/100;\n\n        //adds the mision health points to all the enemies Health and apply Vitality\n        uint256 missionHealth=allQuests[idQuest].health+allQuests[idQuest].calculatedStats[StatsAndSlots.Health];\n        missionHealth += (allQuests[idQuest].calculatedStats[StatsAndSlots.Health] * allQuests[idQuest].calculatedStats[StatsAndSlots.Vitality])/100;\n\n        //adds the mision attack points to all the enemies Health and apply Vitality\n        uint256 missionAttack=allQuests[idQuest].attack+allQuests[idQuest].calculatedStats[StatsAndSlots.Attack];\n\n        //adds the mision attack points to all the enemies Health and apply Vitality\n        uint256 missionDefense=allQuests[idQuest].defense+allQuests[idQuest].calculatedStats[StatsAndSlots.Defense];\n\n        //Defense is like a shield, to simplify we add defense to health\n        missionHealth += missionDefense;\n        \n        //Apply questLevel\n        missionTime+=(missionTime*upgradeMatrix[questLevel])/100;\n        missionHealth+=(missionHealth*upgradeMatrix[questLevel])/100;\n        missionAttack+=(missionAttack*upgradeMatrix[questLevel])/100;\n        //missionDefense+=(missionDefense*upgradeMatrix[questLevel])/100;\n\n        //calculates player Health and apply Vitality and faith\n        //Defense is like a shield, to simplify we add defense to health\n        uint256 playerHealth=playerData.stats[StatsAndSlots.Health]+playerData.stats[StatsAndSlots.Defense];\n        playerHealth += (playerData.stats[StatsAndSlots.Health] * playerData.stats[StatsAndSlots.Vitality])/100;\n        playerHealth += (playerData.stats[StatsAndSlots.Health] * playerData.stats[StatsAndSlots.Faith])/300;\n\n        //calculates player Attack and apply faith\n        uint256 playerAttack=playerData.stats[StatsAndSlots.Attack];\n        playerAttack += (playerData.stats[StatsAndSlots.Attack] * playerData.stats[StatsAndSlots.Faith])/300;\n\n        //calculates player defense and apply faith\n        //uint256 playerDefense=playerData.stats[StatsAndSlots.Defense];\n        //playerDefense += (playerData.stats[StatsAndSlots.Defense] * playerData.stats[StatsAndSlots.Faith])/300;\n\n        uint startMissionValue=missionHealth;\n        uint startPlayerValue=playerHealth;\n\n        //Well... lets go for the quest calculation\n        //I hope we didn't run out of gas... big calculations so far!\n        //\n        //We must start with a random seed\n        //and then iterate 'combatLoops' rounds (or until one dies)\n        //applying the basic formula in ten rounds\n        //Player hits : missionHealth -= playerAttack * random(interval)\n        //Mision hits : playerHealth -= missionAttack  * random(interval)\n        //\n        //NOTE: There is no enemy casualties along the combat\n        //missionAttack is the same from start to end...\n        //Could be interesting to allow player choose an strategy?\n        //I mean: kill weakest first or kill strongest first... or kill randomly\n        //May be for second version...\n\n        for(uint i=0; i<combatLoops; i++) {\n            //calculates player attack            \n            uint attack=(playerAttack * (100-randMod(2*randomSpread)+randomSpread))/100;\n            if(missionHealth <=attack) {\n                //Player wins!\n                missionHealth=0;\n                break;\n            }\n            missionHealth-=attack;\n\n            attack=(missionAttack * (100-randMod(2*randomSpread)+randomSpread))/100;\n            if(playerHealth <=attack) {\n                //Player loses!\n                playerHealth=0;\n                break;\n            }            \n            playerHealth -= attack;\n        }\n        \n        //calculate % completed\n        uint256 completed = ((startMissionValue - missionHealth) * 100) / startMissionValue;\n\n        //TODO TODO TODO\n        //Calculate token drop and send\n        //Calculate NFT probability\n        //Choose NFT minted (in needed) and send to player\n        //\n        //OPTIONALLY\n        //Create a combat history and returns to front\n        \n    }\n\n    //Pseudo random. I think is enough for the game\n    function randMod(uint _modulus) internal returns(uint) {\n        randomNonce++; \n        return uint(keccak256(abi.encodePacked(block.timestamp, msg.sender, randomNonce))) % _modulus;\n    }\n}",
  "sourcePath": "/home/javi/ChainsOfGlory/contracts/Quest.sol",
  "compiler": {
    "name": "solc",
    "version": "0.8.6+commit.11564f7e.Emscripten.clang"
  },
  "schemaVersion": "3.4.3",
  "updatedAt": "2021-11-28T19:42:23.087Z",
  "networkType": "ethereum",
  "devdoc": {
    "kind": "dev",
    "methods": {
      "getRoleAdmin(bytes32)": {
        "details": "Returns the admin role that controls `role`. See {grantRole} and {revokeRole}. To change a role's admin, use {_setRoleAdmin}."
      },
      "getRoleMember(bytes32,uint256)": {
        "details": "Returns one of the accounts that have `role`. `index` must be a value between 0 and {getRoleMemberCount}, non-inclusive. Role bearers are not sorted in any particular way, and their ordering may change at any point. WARNING: When using {getRoleMember} and {getRoleMemberCount}, make sure you perform all queries on the same block. See the following https://forum.openzeppelin.com/t/iterating-over-elements-on-enumerableset-in-openzeppelin-contracts/2296[forum post] for more information."
      },
      "getRoleMemberCount(bytes32)": {
        "details": "Returns the number of accounts that have `role`. Can be used together with {getRoleMember} to enumerate all bearers of a role."
      },
      "grantRole(bytes32,address)": {
        "details": "Overload {grantRole} to track enumerable memberships"
      },
      "hasRole(bytes32,address)": {
        "details": "Returns `true` if `account` has been granted `role`."
      },
      "owner()": {
        "details": "Returns the address of the current owner."
      },
      "renounceOwnership()": {
        "details": "Leaves the contract without owner. It will not be possible to call `onlyOwner` functions anymore. Can only be called by the current owner. NOTE: Renouncing ownership will leave the contract without an owner, thereby removing any functionality that is only available to the owner."
      },
      "renounceRole(bytes32,address)": {
        "details": "Overload {renounceRole} to track enumerable memberships"
      },
      "revokeRole(bytes32,address)": {
        "details": "Overload {revokeRole} to track enumerable memberships"
      },
      "supportsInterface(bytes4)": {
        "details": "See {IERC165-supportsInterface}."
      },
      "transferOwnership(address)": {
        "details": "Transfers ownership of the contract to a new account (`newOwner`). Can only be called by the current owner."
      }
    },
    "version": 1
  },
  "userdoc": {
    "kind": "user",
    "methods": {},
    "version": 1
  }
}