{
  "contractName": "RoyaltiesV2Impl",
  "abi": [
    {
      "anonymous": false,
      "inputs": [
        {
          "indexed": false,
          "internalType": "uint256",
          "name": "tokenId",
          "type": "uint256"
        },
        {
          "components": [
            {
              "internalType": "address payable",
              "name": "account",
              "type": "address"
            },
            {
              "internalType": "uint96",
              "name": "value",
              "type": "uint96"
            }
          ],
          "indexed": false,
          "internalType": "struct LibPart.Part[]",
          "name": "royalties",
          "type": "tuple[]"
        }
      ],
      "name": "RoyaltiesSet",
      "type": "event"
    },
    {
      "inputs": [
        {
          "internalType": "uint256",
          "name": "",
          "type": "uint256"
        },
        {
          "internalType": "uint256",
          "name": "",
          "type": "uint256"
        }
      ],
      "name": "royalties",
      "outputs": [
        {
          "internalType": "address payable",
          "name": "account",
          "type": "address"
        },
        {
          "internalType": "uint96",
          "name": "value",
          "type": "uint96"
        }
      ],
      "stateMutability": "view",
      "type": "function"
    },
    {
      "inputs": [
        {
          "internalType": "uint256",
          "name": "id",
          "type": "uint256"
        }
      ],
      "name": "getRaribleV2Royalties",
      "outputs": [
        {
          "components": [
            {
              "internalType": "address payable",
              "name": "account",
              "type": "address"
            },
            {
              "internalType": "uint96",
              "name": "value",
              "type": "uint96"
            }
          ],
          "internalType": "struct LibPart.Part[]",
          "name": "",
          "type": "tuple[]"
        }
      ],
      "stateMutability": "view",
      "type": "function"
    }
  ],
  "bytecode": "0x608060405234801561001057600080fd5b506102c1806100206000396000f3fe608060405234801561001057600080fd5b5060043610610052577c010000000000000000000000000000000000000000000000000000000060003504638924af748114610057578063cad96cca146100a8575b600080fd5b61006a6100653660046101f6565b6100c8565b6040805173ffffffffffffffffffffffffffffffffffffffff90931683526bffffffffffffffffffffffff9091166020830152015b60405180910390f35b6100bb6100b63660046101dd565b610134565b60405161009f9190610218565b600060205281600052604060002081815481106100e457600080fd5b60009182526020909120015473ffffffffffffffffffffffffffffffffffffffff811692507401000000000000000000000000000000000000000090046bffffffffffffffffffffffff16905082565b600081815260208181526040808320805482518185028101850190935280835260609492939192909184015b828210156101d2576000848152602090819020604080518082019091529084015473ffffffffffffffffffffffffffffffffffffffff811682527401000000000000000000000000000000000000000090046bffffffffffffffffffffffff1681830152825260019092019101610160565b505050509050919050565b6000602082840312156101ef57600080fd5b5035919050565b6000806040838503121561020957600080fd5b50508035926020909101359150565b602080825282518282018190526000919060409081850190868401855b8281101561027e578151805173ffffffffffffffffffffffffffffffffffffffff1685528601516bffffffffffffffffffffffff16868501529284019290850190600101610235565b509197965050505050505056fea2646970667358221220e1bf15b9f798534d25f054abdc85915d9ea53177fd20c63b67a7cd4dec979abb64736f6c63430008060033",
  "immutableReferences": {},
  "source": "// SPDX-License-Identifier: MIT\npragma solidity ^0.8.0;\nimport \"./AbstractRoyalties.sol\";\nimport \"../RoyaltiesV2.sol\";\ncontract RoyaltiesV2Impl is AbstractRoyalties, RoyaltiesV2 {\n    function getRaribleV2Royalties(uint256 id) override external view returns (LibPart.Part[] memory) {\n        return royalties[id];\n     }\n    function _onRoyaltiesSet(uint256 _id, LibPart.Part[] memory _royalties) override internal {\n        emit RoyaltiesSet(_id, _royalties);\n     }\n}",
  "sourcePath": "/home/javi/ChainsOfGlory/contracts/@rarible/royalties/contracts/impl/RoyaltiesV2Impl.sol",
  "compiler": {
    "name": "solc",
    "version": "0.8.6+commit.11564f7e.Emscripten.clang"
  },
  "schemaVersion": "3.4.3",
  "updatedAt": "2021-11-20T17:15:37.417Z",
  "devdoc": {
    "kind": "dev",
    "methods": {},
    "version": 1
  },
  "userdoc": {
    "kind": "user",
    "methods": {},
    "version": 1
  }
}