{
  "contractName": "RoyaltyERC721",
  "abi": [
    {
      "inputs": [],
      "stateMutability": "nonpayable",
      "type": "constructor"
    },
    {
      "anonymous": false,
      "inputs": [
        {
          "indexed": true,
          "internalType": "address",
          "name": "owner",
          "type": "address"
        },
        {
          "indexed": true,
          "internalType": "address",
          "name": "approved",
          "type": "address"
        },
        {
          "indexed": true,
          "internalType": "uint256",
          "name": "tokenId",
          "type": "uint256"
        }
      ],
      "name": "Approval",
      "type": "event"
    },
    {
      "anonymous": false,
      "inputs": [
        {
          "indexed": true,
          "internalType": "address",
          "name": "owner",
          "type": "address"
        },
        {
          "indexed": true,
          "internalType": "address",
          "name": "operator",
          "type": "address"
        },
        {
          "indexed": false,
          "internalType": "bool",
          "name": "approved",
          "type": "bool"
        }
      ],
      "name": "ApprovalForAll",
      "type": "event"
    },
    {
      "anonymous": false,
      "inputs": [
        {
          "indexed": true,
          "internalType": "address",
          "name": "previousOwner",
          "type": "address"
        },
        {
          "indexed": true,
          "internalType": "address",
          "name": "newOwner",
          "type": "address"
        }
      ],
      "name": "OwnershipTransferred",
      "type": "event"
    },
    {
      "anonymous": false,
      "inputs": [
        {
          "indexed": true,
          "internalType": "bytes32",
          "name": "role",
          "type": "bytes32"
        },
        {
          "indexed": true,
          "internalType": "bytes32",
          "name": "previousAdminRole",
          "type": "bytes32"
        },
        {
          "indexed": true,
          "internalType": "bytes32",
          "name": "newAdminRole",
          "type": "bytes32"
        }
      ],
      "name": "RoleAdminChanged",
      "type": "event"
    },
    {
      "anonymous": false,
      "inputs": [
        {
          "indexed": true,
          "internalType": "bytes32",
          "name": "role",
          "type": "bytes32"
        },
        {
          "indexed": true,
          "internalType": "address",
          "name": "account",
          "type": "address"
        },
        {
          "indexed": true,
          "internalType": "address",
          "name": "sender",
          "type": "address"
        }
      ],
      "name": "RoleGranted",
      "type": "event"
    },
    {
      "anonymous": false,
      "inputs": [
        {
          "indexed": true,
          "internalType": "bytes32",
          "name": "role",
          "type": "bytes32"
        },
        {
          "indexed": true,
          "internalType": "address",
          "name": "account",
          "type": "address"
        },
        {
          "indexed": true,
          "internalType": "address",
          "name": "sender",
          "type": "address"
        }
      ],
      "name": "RoleRevoked",
      "type": "event"
    },
    {
      "anonymous": false,
      "inputs": [
        {
          "indexed": false,
          "internalType": "uint256",
          "name": "tokenId",
          "type": "uint256"
        },
        {
          "components": [
            {
              "internalType": "address payable",
              "name": "account",
              "type": "address"
            },
            {
              "internalType": "uint96",
              "name": "value",
              "type": "uint96"
            }
          ],
          "indexed": false,
          "internalType": "struct LibPart.Part[]",
          "name": "royalties",
          "type": "tuple[]"
        }
      ],
      "name": "RoyaltiesSet",
      "type": "event"
    },
    {
      "anonymous": false,
      "inputs": [
        {
          "indexed": true,
          "internalType": "address",
          "name": "from",
          "type": "address"
        },
        {
          "indexed": true,
          "internalType": "address",
          "name": "to",
          "type": "address"
        },
        {
          "indexed": true,
          "internalType": "uint256",
          "name": "tokenId",
          "type": "uint256"
        }
      ],
      "name": "Transfer",
      "type": "event"
    },
    {
      "inputs": [],
      "name": "BURNER_ROLE",
      "outputs": [
        {
          "internalType": "bytes32",
          "name": "",
          "type": "bytes32"
        }
      ],
      "stateMutability": "view",
      "type": "function"
    },
    {
      "inputs": [],
      "name": "DEFAULT_ADMIN_ROLE",
      "outputs": [
        {
          "internalType": "bytes32",
          "name": "",
          "type": "bytes32"
        }
      ],
      "stateMutability": "view",
      "type": "function"
    },
    {
      "inputs": [],
      "name": "MINTER_ROLE",
      "outputs": [
        {
          "internalType": "bytes32",
          "name": "",
          "type": "bytes32"
        }
      ],
      "stateMutability": "view",
      "type": "function"
    },
    {
      "inputs": [
        {
          "internalType": "address",
          "name": "to",
          "type": "address"
        },
        {
          "internalType": "uint256",
          "name": "tokenId",
          "type": "uint256"
        }
      ],
      "name": "approve",
      "outputs": [],
      "stateMutability": "nonpayable",
      "type": "function"
    },
    {
      "inputs": [
        {
          "internalType": "address",
          "name": "owner",
          "type": "address"
        }
      ],
      "name": "balanceOf",
      "outputs": [
        {
          "internalType": "uint256",
          "name": "",
          "type": "uint256"
        }
      ],
      "stateMutability": "view",
      "type": "function"
    },
    {
      "inputs": [
        {
          "internalType": "uint256",
          "name": "tokenId",
          "type": "uint256"
        }
      ],
      "name": "getApproved",
      "outputs": [
        {
          "internalType": "address",
          "name": "",
          "type": "address"
        }
      ],
      "stateMutability": "view",
      "type": "function"
    },
    {
      "inputs": [
        {
          "internalType": "uint256",
          "name": "id",
          "type": "uint256"
        }
      ],
      "name": "getRaribleV2Royalties",
      "outputs": [
        {
          "components": [
            {
              "internalType": "address payable",
              "name": "account",
              "type": "address"
            },
            {
              "internalType": "uint96",
              "name": "value",
              "type": "uint96"
            }
          ],
          "internalType": "struct LibPart.Part[]",
          "name": "",
          "type": "tuple[]"
        }
      ],
      "stateMutability": "view",
      "type": "function"
    },
    {
      "inputs": [
        {
          "internalType": "bytes32",
          "name": "role",
          "type": "bytes32"
        }
      ],
      "name": "getRoleAdmin",
      "outputs": [
        {
          "internalType": "bytes32",
          "name": "",
          "type": "bytes32"
        }
      ],
      "stateMutability": "view",
      "type": "function"
    },
    {
      "inputs": [
        {
          "internalType": "bytes32",
          "name": "role",
          "type": "bytes32"
        },
        {
          "internalType": "uint256",
          "name": "index",
          "type": "uint256"
        }
      ],
      "name": "getRoleMember",
      "outputs": [
        {
          "internalType": "address",
          "name": "",
          "type": "address"
        }
      ],
      "stateMutability": "view",
      "type": "function"
    },
    {
      "inputs": [
        {
          "internalType": "bytes32",
          "name": "role",
          "type": "bytes32"
        }
      ],
      "name": "getRoleMemberCount",
      "outputs": [
        {
          "internalType": "uint256",
          "name": "",
          "type": "uint256"
        }
      ],
      "stateMutability": "view",
      "type": "function"
    },
    {
      "inputs": [
        {
          "internalType": "bytes32",
          "name": "role",
          "type": "bytes32"
        },
        {
          "internalType": "address",
          "name": "account",
          "type": "address"
        }
      ],
      "name": "grantRole",
      "outputs": [],
      "stateMutability": "nonpayable",
      "type": "function"
    },
    {
      "inputs": [
        {
          "internalType": "bytes32",
          "name": "role",
          "type": "bytes32"
        },
        {
          "internalType": "address",
          "name": "account",
          "type": "address"
        }
      ],
      "name": "hasRole",
      "outputs": [
        {
          "internalType": "bool",
          "name": "",
          "type": "bool"
        }
      ],
      "stateMutability": "view",
      "type": "function"
    },
    {
      "inputs": [
        {
          "internalType": "address",
          "name": "owner",
          "type": "address"
        },
        {
          "internalType": "address",
          "name": "operator",
          "type": "address"
        }
      ],
      "name": "isApprovedForAll",
      "outputs": [
        {
          "internalType": "bool",
          "name": "",
          "type": "bool"
        }
      ],
      "stateMutability": "view",
      "type": "function"
    },
    {
      "inputs": [],
      "name": "name",
      "outputs": [
        {
          "internalType": "string",
          "name": "",
          "type": "string"
        }
      ],
      "stateMutability": "view",
      "type": "function"
    },
    {
      "inputs": [],
      "name": "owner",
      "outputs": [
        {
          "internalType": "address",
          "name": "",
          "type": "address"
        }
      ],
      "stateMutability": "view",
      "type": "function"
    },
    {
      "inputs": [
        {
          "internalType": "uint256",
          "name": "tokenId",
          "type": "uint256"
        }
      ],
      "name": "ownerOf",
      "outputs": [
        {
          "internalType": "address",
          "name": "",
          "type": "address"
        }
      ],
      "stateMutability": "view",
      "type": "function"
    },
    {
      "inputs": [],
      "name": "renounceOwnership",
      "outputs": [],
      "stateMutability": "nonpayable",
      "type": "function"
    },
    {
      "inputs": [
        {
          "internalType": "bytes32",
          "name": "role",
          "type": "bytes32"
        },
        {
          "internalType": "address",
          "name": "account",
          "type": "address"
        }
      ],
      "name": "renounceRole",
      "outputs": [],
      "stateMutability": "nonpayable",
      "type": "function"
    },
    {
      "inputs": [
        {
          "internalType": "bytes32",
          "name": "role",
          "type": "bytes32"
        },
        {
          "internalType": "address",
          "name": "account",
          "type": "address"
        }
      ],
      "name": "revokeRole",
      "outputs": [],
      "stateMutability": "nonpayable",
      "type": "function"
    },
    {
      "inputs": [
        {
          "internalType": "uint256",
          "name": "",
          "type": "uint256"
        },
        {
          "internalType": "uint256",
          "name": "",
          "type": "uint256"
        }
      ],
      "name": "royalties",
      "outputs": [
        {
          "internalType": "address payable",
          "name": "account",
          "type": "address"
        },
        {
          "internalType": "uint96",
          "name": "value",
          "type": "uint96"
        }
      ],
      "stateMutability": "view",
      "type": "function"
    },
    {
      "inputs": [
        {
          "internalType": "address",
          "name": "from",
          "type": "address"
        },
        {
          "internalType": "address",
          "name": "to",
          "type": "address"
        },
        {
          "internalType": "uint256",
          "name": "tokenId",
          "type": "uint256"
        }
      ],
      "name": "safeTransferFrom",
      "outputs": [],
      "stateMutability": "nonpayable",
      "type": "function"
    },
    {
      "inputs": [
        {
          "internalType": "address",
          "name": "from",
          "type": "address"
        },
        {
          "internalType": "address",
          "name": "to",
          "type": "address"
        },
        {
          "internalType": "uint256",
          "name": "tokenId",
          "type": "uint256"
        },
        {
          "internalType": "bytes",
          "name": "_data",
          "type": "bytes"
        }
      ],
      "name": "safeTransferFrom",
      "outputs": [],
      "stateMutability": "nonpayable",
      "type": "function"
    },
    {
      "inputs": [
        {
          "internalType": "address",
          "name": "operator",
          "type": "address"
        },
        {
          "internalType": "bool",
          "name": "approved",
          "type": "bool"
        }
      ],
      "name": "setApprovalForAll",
      "outputs": [],
      "stateMutability": "nonpayable",
      "type": "function"
    },
    {
      "inputs": [],
      "name": "symbol",
      "outputs": [
        {
          "internalType": "string",
          "name": "",
          "type": "string"
        }
      ],
      "stateMutability": "view",
      "type": "function"
    },
    {
      "inputs": [
        {
          "internalType": "uint256",
          "name": "tokenId",
          "type": "uint256"
        }
      ],
      "name": "tokenURI",
      "outputs": [
        {
          "internalType": "string",
          "name": "",
          "type": "string"
        }
      ],
      "stateMutability": "view",
      "type": "function"
    },
    {
      "inputs": [
        {
          "internalType": "address",
          "name": "from",
          "type": "address"
        },
        {
          "internalType": "address",
          "name": "to",
          "type": "address"
        },
        {
          "internalType": "uint256",
          "name": "tokenId",
          "type": "uint256"
        }
      ],
      "name": "transferFrom",
      "outputs": [],
      "stateMutability": "nonpayable",
      "type": "function"
    },
    {
      "inputs": [
        {
          "internalType": "address",
          "name": "newOwner",
          "type": "address"
        }
      ],
      "name": "transferOwnership",
      "outputs": [],
      "stateMutability": "nonpayable",
      "type": "function"
    },
    {
      "inputs": [
        {
          "internalType": "address",
          "name": "_to",
          "type": "address"
        },
        {
          "internalType": "uint256",
          "name": "class",
          "type": "uint256"
        }
      ],
      "name": "mint",
      "outputs": [],
      "stateMutability": "nonpayable",
      "type": "function"
    },
    {
      "inputs": [
        {
          "internalType": "uint256",
          "name": "_tokenId",
          "type": "uint256"
        },
        {
          "internalType": "address payable",
          "name": "_royaltiesReceipientAddress",
          "type": "address"
        },
        {
          "internalType": "uint96",
          "name": "_percentageBasisPoints",
          "type": "uint96"
        }
      ],
      "name": "setRoyalties",
      "outputs": [],
      "stateMutability": "nonpayable",
      "type": "function"
    },
    {
      "inputs": [
        {
          "internalType": "uint256",
          "name": "_tokenId",
          "type": "uint256"
        },
        {
          "internalType": "uint256",
          "name": "_salePrice",
          "type": "uint256"
        }
      ],
      "name": "royaltyInfo",
      "outputs": [
        {
          "internalType": "address",
          "name": "receiver",
          "type": "address"
        },
        {
          "internalType": "uint256",
          "name": "royaltyAmount",
          "type": "uint256"
        }
      ],
      "stateMutability": "view",
      "type": "function"
    },
    {
      "inputs": [
        {
          "internalType": "bytes4",
          "name": "interfaceId",
          "type": "bytes4"
        }
      ],
      "name": "supportsInterface",
      "outputs": [
        {
          "internalType": "bool",
          "name": "",
          "type": "bool"
        }
      ],
      "stateMutability": "view",
      "type": "function"
    },
    {
      "inputs": [
        {
          "internalType": "address",
          "name": "owner",
          "type": "address"
        },
        {
          "internalType": "uint256",
          "name": "tokenId",
          "type": "uint256"
        }
      ],
      "name": "positionOf",
      "outputs": [
        {
          "internalType": "uint256",
          "name": "",
          "type": "uint256"
        }
      ],
      "stateMutability": "view",
      "type": "function"
    }
  ],
  "bytecode": "0x60806040526000600e553480156200001657600080fd5b50604080518082018252600b81527f47454e45525543204e465400000000000000000000000000000000000000000060208083019182528351808501909452600384527f474e46000000000000000000000000000000000000000000000000000000000090840152815191929162000091916000916200038c565b508051620000a79060019060208401906200038c565b505050620000d6620000c762000174640100000000026401000000009004565b64010000000062000178810204565b620000fe6000620000ef64010000000062000174810204565b640100000000620001ca810204565b620001367f9f2df0fed2c77648de5860a4cc508cd0818c85b8b8a1ab4ceeef8d981c8956a6620000ef64010000000062000174810204565b6200016e7f3c11d16cbaffd01df69ce1c404f6340ee057498f5f00246190ea54220576a848620000ef64010000000062000174810204565b62000488565b3390565b60088054600160a060020a03838116600160a060020a0319831681179093556040519116919082907f8be0079c531659141344cd1fd0a4f28419497f9722a3daafe3b4186f6b6457e090600090a35050565b620001e48282640100000000620011f16200021182021704565b60008281526007602052604090206200020c9082640100000000620011fb6200022a82021704565b505050565b62000226828264010000000062000253810204565b5050565b60006200024a83600160a060020a038416640100000000620002f1810204565b90505b92915050565b62000268828264010000000062000349810204565b62000226576000828152600660209081526040808320600160a060020a03851684529091529020805460ff19166001179055620002ad64010000000062000174810204565b600160a060020a031681600160a060020a0316837f2f8788117e7eff1d82e926ec794901d17c78024a50270940304540a733656f0d60405160405180910390a45050565b600062000308838364010000000062000374810204565b62000340575081546001818101845560008481526020808220909301849055845484825282860190935260409020919091556200024d565b5060006200024d565b6000918252600660209081526040808420600160a060020a0393909316845291905290205460ff1690565b60009081526001919091016020526040902054151590565b8280546200039a9062000432565b90600052602060002090601f016020900481019282620003be576000855562000409565b82601f10620003d957805160ff191683800117855562000409565b8280016001018555821562000409579182015b8281111562000409578251825591602001919060010190620003ec565b50620004179291506200041b565b5090565b5b808211156200041757600081556001016200041c565b6002810460018216806200044757607f821691505b6020821081141562000482577f4e487b7100000000000000000000000000000000000000000000000000000000600052602260045260246000fd5b50919050565b612c7280620004986000396000f3fe608060405234801561001057600080fd5b506004361061020d576000357c0100000000000000000000000000000000000000000000000000000000900480638924af741161012c578063b88d4fde116100bf578063d53913931161008e578063d5391393146104be578063d547741f146104e5578063e985e9c5146104f8578063f2fde38b1461053457600080fd5b8063b88d4fde14610465578063c87b56dd14610478578063ca15c8731461048b578063cad96cca1461049e57600080fd5b806395d89b41116100fb57806395d89b411461042f578063a217fddf14610437578063a22cb4651461043f578063a3fd0d991461045257600080fd5b80638924af74146103b95780638da5cb5b146103f85780639010d07c1461040957806391d148541461041c57600080fd5b80632a55205a116101a457806342842e0e1161017357806342842e0e146103785780636352211e1461038b57806370a082311461039e578063715018a6146103b157600080fd5b80632a55205a1461030d5780632f2ff15d1461033f57806336568abe1461035257806340c10f191461036557600080fd5b8063143094db116101e0578063143094db1461028f57806323b872dd146102a2578063248a9ca3146102b5578063282c51f3146102e657600080fd5b806301ffc9a71461021257806306fdde031461023a578063081812fc1461024f578063095ea7b31461027a575b600080fd5b610225610220366004612752565b610547565b60405190151581526020015b60405180910390f35b6102426105cc565b6040516102319190612967565b61026261025d3660046126f2565b61065e565b604051600160a060020a039091168152602001610231565b61028d6102883660046126c6565b61070c565b005b61028d61029d36600461278c565b610844565b61028d6102b0366004612572565b61092f565b6102d86102c33660046126f2565b60009081526006602052604090206001015490565b604051908152602001610231565b6102d87f3c11d16cbaffd01df69ce1c404f6340ee057498f5f00246190ea54220576a84881565b61032061031b366004612730565b610963565b60408051600160a060020a039093168352602083019190915201610231565b61028d61034d36600461270b565b610a84565b61028d61036036600461270b565b610aa6565b61028d6103733660046126c6565b610ac8565b61028d610386366004612572565b610b82565b6102626103993660046126f2565b610b9d565b6102d86103ac36600461251c565b610c2b565b61028d610cc8565b6103cc6103c7366004612730565b610d01565b60408051600160a060020a0390931683526bffffffffffffffffffffffff909116602083015201610231565b600854600160a060020a0316610262565b610262610417366004612730565b610d60565b61022561042a36600461270b565b610d7f565b610242610daa565b6102d8600081565b61028d61044d366004612693565b610db9565b6102d86104603660046126c6565b610e81565b61028d6104733660046125b3565b610f21565b6102426104863660046126f2565b610f56565b6102d86104993660046126f2565b611073565b6104b16104ac3660046126f2565b61108a565b6040516102319190612954565b6102d87f9f2df0fed2c77648de5860a4cc508cd0818c85b8b8a1ab4ceeef8d981c8956a681565b61028d6104f336600461270b565b61112f565b610225610506366004612539565b600160a060020a03918216600090815260056020908152604080832093909416825291909152205460ff1690565b61028d61054236600461251c565b611139565b6000600160e060020a031982167f44c74bcc00000000000000000000000000000000000000000000000000000000141561058357506001919050565b600160e060020a031982167f2a55205a0000000000000000000000000000000000000000000000000000000014156105bd57506001919050565b6105c682611210565b92915050565b6060600080546105db90612b27565b80601f016020809104026020016040519081016040528092919081815260200182805461060790612b27565b80156106545780601f1061062957610100808354040283529160200191610654565b820191906000526020600020905b81548152906001019060200180831161063757829003601f168201915b5050505050905090565b600081815260026020526040812054600160a060020a03166106f05760405160e560020a62461bcd02815260206004820152602c60248201527f4552433732313a20617070726f76656420717565727920666f72206e6f6e657860448201527f697374656e7420746f6b656e000000000000000000000000000000000000000060648201526084015b60405180910390fd5b50600090815260046020526040902054600160a060020a031690565b600061071782610b9d565b905080600160a060020a031683600160a060020a031614156107a45760405160e560020a62461bcd02815260206004820152602160248201527f4552433732313a20617070726f76616c20746f2063757272656e74206f776e6560448201527f720000000000000000000000000000000000000000000000000000000000000060648201526084016106e7565b33600160a060020a03821614806107c057506107c08133610506565b6108355760405160e560020a62461bcd02815260206004820152603860248201527f4552433732313a20617070726f76652063616c6c6572206973206e6f74206f7760448201527f6e6572206e6f7220617070726f76656420666f7220616c6c000000000000000060648201526084016106e7565b61083f838361124e565b505050565b600854600160a060020a031633146108715760405160e560020a62461bcd0281526004016106e7906129d7565b604080516001808252818301909252600091816020015b604080518082019091526000808252602082015281526020019060019003908161088857905050905081816000815181106108c5576108c5612bdf565b6020026020010151602001906bffffffffffffffffffffffff1690816bffffffffffffffffffffffff1681525050828160008151811061090757610907612bdf565b6020908102919091010151600160a060020a03909116905261092984826112c9565b50505050565b610939338261146e565b6109585760405160e560020a62461bcd0281526004016106e790612a0c565b61083f838383611579565b6000828152600960209081526040808320805482518185028101850190935280835284938493929190849084015b828210156109f65760008481526020908190206040805180820190915290840154600160a060020a03811682527401000000000000000000000000000000000000000090046bffffffffffffffffffffffff1681830152825260019092019101610991565b505050509050600081511115610a745780600081518110610a1957610a19612bdf565b60200260200101516000015161271082600081518110610a3b57610a3b612bdf565b6020026020010151602001516bffffffffffffffffffffffff1686610a609190612aae565b610a6a9190612a9a565b9250925050610a7d565b60008092509250505b9250929050565b610a8e8282611764565b600082815260076020526040902061083f90826111fb565b610ab0828261178a565b600082815260076020526040902061083f9082611815565b610af27f9f2df0fed2c77648de5860a4cc508cd0818c85b8b8a1ab4ceeef8d981c8956a633610d7f565b610b675760405160e560020a62461bcd02815260206004820152602860248201527f457863657074696f6e3a206d7573742068617665206d696e74657220726f6c6560448201527f20746f206d696e7400000000000000000000000000000000000000000000000060648201526084016106e7565b600b819055610b7e82610b79600a5490565b61182a565b5050565b61083f83838360405180602001604052806000815250610f21565b600081815260026020526040812054600160a060020a0316806105c65760405160e560020a62461bcd02815260206004820152602960248201527f4552433732313a206f776e657220717565727920666f72206e6f6e657869737460448201527f656e7420746f6b656e000000000000000000000000000000000000000000000060648201526084016106e7565b6000600160a060020a038216610cac5760405160e560020a62461bcd02815260206004820152602a60248201527f4552433732313a2062616c616e636520717565727920666f7220746865207a6560448201527f726f20616464726573730000000000000000000000000000000000000000000060648201526084016106e7565b50600160a060020a031660009081526003602052604090205490565b600854600160a060020a03163314610cf55760405160e560020a62461bcd0281526004016106e7906129d7565b610cff600061198b565b565b60096020528160005260406000208181548110610d1d57600080fd5b600091825260209091200154600160a060020a03811692507401000000000000000000000000000000000000000090046bffffffffffffffffffffffff16905082565b6000828152600760205260408120610d7890836119ea565b9392505050565b6000918252600660209081526040808420600160a060020a0393909316845291905290205460ff1690565b6060600180546105db90612b27565b600160a060020a038216331415610e155760405160e560020a62461bcd02815260206004820152601960248201527f4552433732313a20617070726f766520746f2063616c6c65720000000000000060448201526064016106e7565b336000818152600560209081526040808320600160a060020a03871680855290835292819020805460ff191686151590811790915590519081529192917f17307eab39ab6107e8899845ad3d59bd9653f200f220920489ca2b5937696c31910160405180910390a35050565b6000805b600160a060020a0384166000908152600d6020526040902054811015610efc57600160a060020a0384166000908152600d60205260409020805484919083908110610ed257610ed2612bdf565b90600052602060002001541415610eea5790506105c6565b80610ef481612b65565b915050610e85565b50600160a060020a0383166000908152600d6020526040902054610d78906064612a82565b610f2b338361146e565b610f4a5760405160e560020a62461bcd0281526004016106e790612a0c565b610929848484846119f6565b600081815260026020526040902054606090600160a060020a0316610fe65760405160e560020a62461bcd02815260206004820152602f60248201527f4552433732314d657461646174613a2055524920717565727920666f72206e6f60448201527f6e6578697374656e7420746f6b656e000000000000000000000000000000000060648201526084016106e7565b600061102260408051808201909152601f81527f68747470733a2f2f6578616d706c65646f6d61696e2f6d657461646174612f00602082015290565b905060008151116110425760405180602001604052806000815250610d78565b8061104c84611a2c565b60405160200161105d929190612868565b6040516020818303038152906040529392505050565b60008181526007602052604081206105c690611b65565b606060096000838152602001908152602001600020805480602002602001604051908101604052809291908181526020016000905b828210156111245760008481526020908190206040805180820190915290840154600160a060020a03811682527401000000000000000000000000000000000000000090046bffffffffffffffffffffffff16818301528252600190920191016110bf565b505050509050919050565b610ab08282611b6f565b600854600160a060020a031633146111665760405160e560020a62461bcd0281526004016106e7906129d7565b600160a060020a0381166111e55760405160e560020a62461bcd02815260206004820152602660248201527f4f776e61626c653a206e6577206f776e657220697320746865207a65726f206160448201527f646472657373000000000000000000000000000000000000000000000000000060648201526084016106e7565b6111ee8161198b565b50565b610b7e8282611b95565b6000610d7883600160a060020a038416611c1b565b6000600160e060020a031982167f5a05180f0000000000000000000000000000000000000000000000000000000014806105c657506105c682611c6a565b6000818152600460205260409020805473ffffffffffffffffffffffffffffffffffffffff1916600160a060020a038416908117909155819061129082610b9d565b600160a060020a03167f8c5be1e5ebec7d5bd14f71427d1e84f3dd0314c0f7b2291e5b200ac8c7c3b92560405160405180910390a45050565b60005b8151811015611463576000600160a060020a03168282815181106112f2576112f2612bdf565b602002602001015160000151600160a060020a031614156113585760405160e560020a62461bcd02815260206004820152601b60248201527f526563697069656e742073686f756c642062652070726573656e74000000000060448201526064016106e7565b81818151811061136a5761136a612bdf565b6020026020010151602001516bffffffffffffffffffffffff16600014156113d75760405160e560020a62461bcd02815260206004820181905260248201527f526f79616c74792076616c75652073686f756c6420626520706f73697469766560448201526064016106e7565b600083815260096020526040902082518390839081106113f9576113f9612bdf565b6020908102919091018101518254600181018455600093845292829020815191909201516bffffffffffffffffffffffff167401000000000000000000000000000000000000000002600160a060020a03909116179101558061145b81612b65565b9150506112cc565b50610b7e8282611ca8565b600081815260026020526040812054600160a060020a03166114fb5760405160e560020a62461bcd02815260206004820152602c60248201527f4552433732313a206f70657261746f7220717565727920666f72206e6f6e657860448201527f697374656e7420746f6b656e000000000000000000000000000000000000000060648201526084016106e7565b600061150683610b9d565b905080600160a060020a031684600160a060020a03161480611541575083600160a060020a03166115368461065e565b600160a060020a0316145b806115715750600160a060020a0380821660009081526005602090815260408083209388168352929052205460ff165b949350505050565b82600160a060020a031661158c82610b9d565b600160a060020a03161461160b5760405160e560020a62461bcd02815260206004820152602960248201527f4552433732313a207472616e73666572206f6620746f6b656e2074686174206960448201527f73206e6f74206f776e000000000000000000000000000000000000000000000060648201526084016106e7565b600160a060020a0382166116895760405160e560020a62461bcd028152602060048201526024808201527f4552433732313a207472616e7366657220746f20746865207a65726f2061646460448201527f726573730000000000000000000000000000000000000000000000000000000060648201526084016106e7565b611694838383611ce5565b61169f60008261124e565b600160a060020a03831660009081526003602052604081208054600192906116c8908490612acd565b9091555050600160a060020a03821660009081526003602052604081208054600192906116f6908490612a82565b9091555050600081815260026020526040808220805473ffffffffffffffffffffffffffffffffffffffff1916600160a060020a0386811691821790925591518493918716917fddf252ad1be2c89b69c2b068fc378daa952ba7f163c4a11628f55a4df523b3ef91a4505050565b6000828152600660205260409020600101546117808133611df3565b61083f8383611b95565b600160a060020a038116331461180b5760405160e560020a62461bcd02815260206004820152602f60248201527f416363657373436f6e74726f6c3a2063616e206f6e6c792072656e6f756e636560448201527f20726f6c657320666f722073656c66000000000000000000000000000000000060648201526084016106e7565b610b7e8282611e5a565b6000610d7883600160a060020a038416611ec1565b600160a060020a0382166118835760405160e560020a62461bcd02815260206004820181905260248201527f4552433732313a206d696e7420746f20746865207a65726f206164647265737360448201526064016106e7565b600081815260026020526040902054600160a060020a0316156118eb5760405160e560020a62461bcd02815260206004820152601c60248201527f4552433732313a20746f6b656e20616c7265616479206d696e7465640000000060448201526064016106e7565b6118f760008383611ce5565b600160a060020a0382166000908152600360205260408120805460019290611920908490612a82565b9091555050600081815260026020526040808220805473ffffffffffffffffffffffffffffffffffffffff1916600160a060020a03861690811790915590518392907fddf252ad1be2c89b69c2b068fc378daa952ba7f163c4a11628f55a4df523b3ef908290a45050565b60088054600160a060020a0383811673ffffffffffffffffffffffffffffffffffffffff19831681179093556040519116919082907f8be0079c531659141344cd1fd0a4f28419497f9722a3daafe3b4186f6b6457e090600090a35050565b6000610d788383611fb4565b611a01848484611579565b611a0d84848484611fde565b6109295760405160e560020a62461bcd0281526004016106e79061297a565b606081611a6c57505060408051808201909152600181527f3000000000000000000000000000000000000000000000000000000000000000602082015290565b8160005b8115611a965780611a8081612b65565b9150611a8f9050600a83612a9a565b9150611a70565b60008167ffffffffffffffff811115611ab157611ab1612bf8565b6040519080825280601f01601f191660200182016040528015611adb576020820181803683370190505b5090505b841561157157611af0600183612acd565b9150611afd600a86612b80565b611b08906030612a82565b7f010000000000000000000000000000000000000000000000000000000000000002818381518110611b3c57611b3c612bdf565b6020010190600160f860020a031916908160001a905350611b5e600a86612a9a565b9450611adf565b60006105c6825490565b600082815260066020526040902060010154611b8b8133611df3565b61083f8383611e5a565b611b9f8282610d7f565b610b7e576000828152600660209081526040808320600160a060020a03851684529091529020805460ff19166001179055611bd73390565b600160a060020a031681600160a060020a0316837f2f8788117e7eff1d82e926ec794901d17c78024a50270940304540a733656f0d60405160405180910390a45050565b6000818152600183016020526040812054611c62575081546001818101845560008481526020808220909301849055845484825282860190935260409020919091556105c6565b5060006105c6565b6000600160e060020a031982167f7965db0b0000000000000000000000000000000000000000000000000000000014806105c657506105c682612120565b7f3fa96d7b6bcbfe71ef171666d84db3cf52fa2d1c8afdb1cc8e486177f208b7df8282604051611cd9929190612a69565b60405180910390a15050565b600160a060020a038316611da657600b54600c6000611d03600a5490565b8152602081019190915260400160002055611d1e60646121bb565b600c6000611d2b600a5490565b8152602081019190915260400160002060010155611d4960646121bb565b600c6000611d56600a5490565b8152602081019190915260400160002060020155611d78600a80546001019055565b600160a060020a03919091166000908152600d60209081526040822080546001810182559083529120015550565b600160a060020a038216611dbe5761083f8382612224565b600160a060020a0382166000908152600d602090815260408220805460018101825590835291200181905561083f8382612224565b611dfd8282610d7f565b610b7e57611e1581600160a060020a0316601461231a565b611e2083602061231a565b604051602001611e31929190612897565b60408051601f198184030181529082905260e560020a62461bcd0282526106e791600401612967565b611e648282610d7f565b15610b7e576000828152600660209081526040808320600160a060020a0385168085529252808320805460ff1916905551339285917ff6391f5c32d9c69d2a47ea670b442974b53935d1edc7fd64eb21e047a839171b9190a45050565b60008181526001830160205260408120548015611faa576000611ee5600183612acd565b8554909150600090611ef990600190612acd565b9050818114611f5e576000866000018281548110611f1957611f19612bdf565b9060005260206000200154905080876000018481548110611f3c57611f3c612bdf565b6000918252602080832090910192909255918252600188019052604090208390555b8554869080611f6f57611f6f612bc6565b6001900381819060005260206000200160009055905585600101600086815260200190815260200160002060009055600193505050506105c6565b60009150506105c6565b6000826000018281548110611fcb57611fcb612bdf565b9060005260206000200154905092915050565b6000600160a060020a0384163b15612115576040517f150b7a02000000000000000000000000000000000000000000000000000000008152600160a060020a0385169063150b7a029061203b903390899088908890600401612918565b602060405180830381600087803b15801561205557600080fd5b505af1925050508015612085575060408051601f3d908101601f191682019092526120829181019061276f565b60015b6120e2573d8080156120b3576040519150601f19603f3d011682016040523d82523d6000602084013e6120b8565b606091505b5080516120da5760405160e560020a62461bcd0281526004016106e79061297a565b805181602001fd5b600160e060020a0319167f150b7a0200000000000000000000000000000000000000000000000000000000149050611571565b506001949350505050565b6000600160e060020a031982167f80ac58cd0000000000000000000000000000000000000000000000000000000014806121835750600160e060020a031982167f5b5e139f00000000000000000000000000000000000000000000000000000000145b806105c657507f01ffc9a700000000000000000000000000000000000000000000000000000000600160e060020a03198316146105c6565b600e8054600091826121cc83612b65565b9091555050600e54604080514260208201526c010000000000000000000000003302918101919091526054810191909152829060740160408051601f1981840301815291905280516020909101206105c69190612b80565b60006122308383610e81565b600160a060020a0384166000908152600d602052604090205490915081101561083f57600160a060020a0383166000908152600d60205260409020805461227990600190612acd565b8154811061228957612289612bdf565b9060005260206000200154600d600085600160a060020a0316600160a060020a0316815260200190815260200160002082815481106122ca576122ca612bdf565b6000918252602080832090910192909255600160a060020a0385168152600d909152604090208054806122ff576122ff612bc6565b60019003818190600052602060002001600090559055505050565b60606000612329836002612aae565b612334906002612a82565b67ffffffffffffffff81111561234c5761234c612bf8565b6040519080825280601f01601f191660200182016040528015612376576020820181803683370190505b5090507f3000000000000000000000000000000000000000000000000000000000000000816000815181106123ad576123ad612bdf565b6020010190600160f860020a031916908160001a9053507f7800000000000000000000000000000000000000000000000000000000000000816001815181106123f8576123f8612bdf565b6020010190600160f860020a031916908160001a905350600061241c846002612aae565b612427906001612a82565b90505b60018111156124ca577f303132333435363738396162636465660000000000000000000000000000000085600f166010811061246857612468612bdf565b1a7f01000000000000000000000000000000000000000000000000000000000000000282828151811061249d5761249d612bdf565b6020010190600160f860020a031916908160001a9053506010909404936124c381612b10565b905061242a565b508315610d785760405160e560020a62461bcd02815260206004820181905260248201527f537472696e67733a20686578206c656e67746820696e73756666696369656e7460448201526064016106e7565b60006020828403121561252e57600080fd5b8135610d7881612c11565b6000806040838503121561254c57600080fd5b823561255781612c11565b9150602083013561256781612c11565b809150509250929050565b60008060006060848603121561258757600080fd5b833561259281612c11565b925060208401356125a281612c11565b929592945050506040919091013590565b600080600080608085870312156125c957600080fd5b84356125d481612c11565b935060208501356125e481612c11565b925060408501359150606085013567ffffffffffffffff8082111561260857600080fd5b818701915087601f83011261261c57600080fd5b81358181111561262e5761262e612bf8565b604051601f8201601f19908116603f0116810190838211818310171561265657612656612bf8565b816040528281528a602084870101111561266f57600080fd5b82602086016020830137600060208483010152809550505050505092959194509250565b600080604083850312156126a657600080fd5b82356126b181612c11565b91506020830135801515811461256757600080fd5b600080604083850312156126d957600080fd5b82356126e481612c11565b946020939093013593505050565b60006020828403121561270457600080fd5b5035919050565b6000806040838503121561271e57600080fd5b82359150602083013561256781612c11565b6000806040838503121561274357600080fd5b50508035926020909101359150565b60006020828403121561276457600080fd5b8135610d7881612c26565b60006020828403121561278157600080fd5b8151610d7881612c26565b6000806000606084860312156127a157600080fd5b8335925060208401356127b381612c11565b915060408401356bffffffffffffffffffffffff811681146127d457600080fd5b809150509250925092565b600081518084526020808501945080840160005b838110156128315781518051600160a060020a031688528301516bffffffffffffffffffffffff1683880152604090960195908201906001016127f3565b509495945050505050565b60008151808452612854816020860160208601612ae4565b601f01601f19169290920160200192915050565b6000835161287a818460208801612ae4565b83519083019061288e818360208801612ae4565b01949350505050565b7f416363657373436f6e74726f6c3a206163636f756e74200000000000000000008152600083516128cf816017850160208801612ae4565b7f206973206d697373696e6720726f6c6520000000000000000000000000000000601791840191820152835161290c816028840160208801612ae4565b01602801949350505050565b6000600160a060020a0380871683528086166020840152508360408301526080606083015261294a608083018461283c565b9695505050505050565b602081526000610d7860208301846127df565b602081526000610d78602083018461283c565b60208082526032908201527f4552433732313a207472616e7366657220746f206e6f6e20455243373231526560408201527f63656976657220696d706c656d656e7465720000000000000000000000000000606082015260800190565b6020808252818101527f4f776e61626c653a2063616c6c6572206973206e6f7420746865206f776e6572604082015260600190565b60208082526031908201527f4552433732313a207472616e736665722063616c6c6572206973206e6f74206f60408201527f776e6572206e6f7220617070726f766564000000000000000000000000000000606082015260800190565b82815260406020820152600061157160408301846127df565b60008219821115612a9557612a95612b94565b500190565b600082612aa957612aa9612bad565b500490565b6000816000190483118215151615612ac857612ac8612b94565b500290565b600082821015612adf57612adf612b94565b500390565b60005b83811015612aff578181015183820152602001612ae7565b838111156109295750506000910152565b600081612b1f57612b1f612b94565b506000190190565b600281046001821680612b3b57607f821691505b60208210811415612b5f5760e060020a634e487b7102600052602260045260246000fd5b50919050565b6000600019821415612b7957612b79612b94565b5060010190565b600082612b8f57612b8f612bad565b500690565b60e060020a634e487b7102600052601160045260246000fd5b60e060020a634e487b7102600052601260045260246000fd5b60e060020a634e487b7102600052603160045260246000fd5b60e060020a634e487b7102600052603260045260246000fd5b60e060020a634e487b7102600052604160045260246000fd5b600160a060020a03811681146111ee57600080fd5b600160e060020a0319811681146111ee57600080fdfea2646970667358221220e9b190c7f09a11db9e6f6d865d2341f0732f164ed5eba9a9fb2a1171dc4b38f464736f6c63430008060033",
  "immutableReferences": {},
  "source": "//SPDX-License-Identifier: MIT\npragma solidity ^0.8.0;\n\nimport \"@openzeppelin/contracts/token/ERC721/ERC721.sol\";\nimport \"@openzeppelin/contracts/access/Ownable.sol\";\nimport \"@openzeppelin/contracts/access/AccessControlEnumerable.sol\";\nimport \"@openzeppelin/contracts/utils/Counters.sol\";\nimport \"../rarible/royalties/contracts/impl/RoyaltiesV2Impl.sol\";\nimport \"../rarible/royalties/contracts/LibPart.sol\";\nimport \"../rarible/royalties/contracts/LibRoyaltiesV2.sol\";\n\ncontract RoyaltyERC721 is ERC721, AccessControlEnumerable, Ownable, RoyaltiesV2Impl {\n    using Counters for Counters.Counter;\n    Counters.Counter private _tokenIdTracker;\n    \n    //Adds support for OpenSea\n    bytes4 private constant _INTERFACE_ID_ERC2981 = 0x2a55205a;\n\n    //Roles of monter and burner\n    bytes32 public constant MINTER_ROLE = keccak256(\"MINTER_ROLE\");\n    bytes32 public constant BURNER_ROLE = keccak256(\"BURNER_ROLE\");\n\n    //Used by _beforeTokenTransfer to catch the after minting\n    uint private classToMint;\n\n    //Example of struct to attach to any NFT created\n    struct NFT_Stats {\n        uint class;\n        uint stat01;\n        uint statnn;\n    }\n\n    //Mapping from NFT to struct\n    mapping(uint256 => NFT_Stats) private values;\n\n    // Mapping from owner address to token ID. It is used to quickly get all NFTs on an address\n    mapping(address => uint256[]) private _tokensByOwner;\n\n    //Generic random counter, used to add a bit more of entropy\n    uint randomNonce=0;\n\n    //Pseudo random. I think is enough for the game\n    function randMod(uint _modulus) internal returns(uint) {\n        randomNonce++; \n        return uint(keccak256(abi.encodePacked(block.timestamp, msg.sender, randomNonce))) % _modulus;\n    }\n\n    constructor() ERC721(\"GENERUC NFT\", \"GNF\")  {\n        _setupRole(DEFAULT_ADMIN_ROLE, _msgSender());\n\n        _setupRole(MINTER_ROLE, _msgSender());\n        _setupRole(BURNER_ROLE, _msgSender());\n    }\n\n    function mint(address _to, uint class) public {\n        require(hasRole(MINTER_ROLE, _msgSender()), \"Exception: must have minter role to mint\");\n        classToMint=class;\n        super._mint(_to, _tokenIdTracker.current()); \n    }\n\n    function _beforeTokenTransfer(address from, address to, uint256 tokenId) internal virtual override(ERC721) {\n        if(from==address(0)) {\n            //Minting, creates struct of stats\n            values[_tokenIdTracker.current()].class = classToMint;\n            values[_tokenIdTracker.current()].stat01 = randMod(100);\n            values[_tokenIdTracker.current()].statnn = randMod(100);\n            _tokenIdTracker.increment();\n\n            //Updates the _tokensByOwner mapping            \n            _tokensByOwner[to].push(tokenId);\n        } else if(to==address(0)) {\n            //Burning\n\n            //Updates the _tokensByOwner mapping\n            deleteTokenId(from, tokenId);\n        } else {\n            //Normal transfer\n\n            //Updates the _tokensByOwner mapping\n            _tokensByOwner[to].push(tokenId);\n            deleteTokenId(from, tokenId);\n        }\n    }\n\n    function _baseURI() internal view virtual override returns (string memory) {\n        return \"https://exampledomain/metadata/\";\n    }\n\n    function setRoyalties(uint256 _tokenId, address payable _royaltiesReceipientAddress, uint96 _percentageBasisPoints) public onlyOwner {\n        LibPart.Part[] memory _royalties = new LibPart.Part[](1);\n        _royalties[0].value = _percentageBasisPoints;\n        _royalties[0].account = _royaltiesReceipientAddress;\n        _saveRoyalties(_tokenId, _royalties);\n    }\n\n    function royaltyInfo(uint256 _tokenId, uint256 _salePrice ) external view returns ( address receiver, uint256 royaltyAmount) {\n        LibPart.Part[] memory _royalties = royalties[_tokenId];\n        if(_royalties.length > 0) {\n            return(_royalties[0].account, (_salePrice * _royalties[0].value)/10000);\n        }\n        return (address(0), 0);\n    }\n\n    function supportsInterface(bytes4 interfaceId) public view virtual override(ERC721, AccessControlEnumerable) returns (bool) {\n        if (interfaceId == LibRoyaltiesV2._INTERFACE_ID_ROYALTIES) {\n            return true;\n        }\n\n        if(interfaceId == _INTERFACE_ID_ERC2981) {\n            return true;\n        }\n\n        return super.supportsInterface(interfaceId);\n    }\n\n    //************************************************************\n    // ARRAY functions \n    //************************************************************\n    function positionOf(address owner, uint256 tokenId) public view returns (uint) {\n        for(uint i=0; i<_tokensByOwner[owner].length; i++) {\n            if(_tokensByOwner[owner][i]==tokenId)\n                return i;\n        }\n        return _tokensByOwner[owner].length+100;\n    }\n\n    function deleteTokenId(address owner, uint256 tokenId) internal {\n        //Updates the _tokensByOwner mapping\n        uint pos=positionOf(owner, tokenId);\n        if(pos<_tokensByOwner[owner].length) {\n            _tokensByOwner[owner][pos]= _tokensByOwner[owner][ _tokensByOwner[owner].length-1];\n            _tokensByOwner[owner].pop();\n        }\n    }\n\n}\n",
  "sourcePath": "/home/javi/ChainsOfGlory/contracts/Examples/RoyaltyERC721.sol",
  "compiler": {
    "name": "solc",
    "version": "0.8.6+commit.11564f7e.Emscripten.clang"
  },
  "schemaVersion": "3.4.3",
  "updatedAt": "2021-11-21T17:45:43.724Z",
  "devdoc": {
    "kind": "dev",
    "methods": {
      "approve(address,uint256)": {
        "details": "See {IERC721-approve}."
      },
      "balanceOf(address)": {
        "details": "See {IERC721-balanceOf}."
      },
      "getApproved(uint256)": {
        "details": "See {IERC721-getApproved}."
      },
      "getRoleAdmin(bytes32)": {
        "details": "Returns the admin role that controls `role`. See {grantRole} and {revokeRole}. To change a role's admin, use {_setRoleAdmin}."
      },
      "getRoleMember(bytes32,uint256)": {
        "details": "Returns one of the accounts that have `role`. `index` must be a value between 0 and {getRoleMemberCount}, non-inclusive. Role bearers are not sorted in any particular way, and their ordering may change at any point. WARNING: When using {getRoleMember} and {getRoleMemberCount}, make sure you perform all queries on the same block. See the following https://forum.openzeppelin.com/t/iterating-over-elements-on-enumerableset-in-openzeppelin-contracts/2296[forum post] for more information."
      },
      "getRoleMemberCount(bytes32)": {
        "details": "Returns the number of accounts that have `role`. Can be used together with {getRoleMember} to enumerate all bearers of a role."
      },
      "grantRole(bytes32,address)": {
        "details": "Overload {grantRole} to track enumerable memberships"
      },
      "hasRole(bytes32,address)": {
        "details": "Returns `true` if `account` has been granted `role`."
      },
      "isApprovedForAll(address,address)": {
        "details": "See {IERC721-isApprovedForAll}."
      },
      "name()": {
        "details": "See {IERC721Metadata-name}."
      },
      "owner()": {
        "details": "Returns the address of the current owner."
      },
      "ownerOf(uint256)": {
        "details": "See {IERC721-ownerOf}."
      },
      "renounceOwnership()": {
        "details": "Leaves the contract without owner. It will not be possible to call `onlyOwner` functions anymore. Can only be called by the current owner. NOTE: Renouncing ownership will leave the contract without an owner, thereby removing any functionality that is only available to the owner."
      },
      "renounceRole(bytes32,address)": {
        "details": "Overload {renounceRole} to track enumerable memberships"
      },
      "revokeRole(bytes32,address)": {
        "details": "Overload {revokeRole} to track enumerable memberships"
      },
      "safeTransferFrom(address,address,uint256)": {
        "details": "See {IERC721-safeTransferFrom}."
      },
      "safeTransferFrom(address,address,uint256,bytes)": {
        "details": "See {IERC721-safeTransferFrom}."
      },
      "setApprovalForAll(address,bool)": {
        "details": "See {IERC721-setApprovalForAll}."
      },
      "symbol()": {
        "details": "See {IERC721Metadata-symbol}."
      },
      "tokenURI(uint256)": {
        "details": "See {IERC721Metadata-tokenURI}."
      },
      "transferFrom(address,address,uint256)": {
        "details": "See {IERC721-transferFrom}."
      },
      "transferOwnership(address)": {
        "details": "Transfers ownership of the contract to a new account (`newOwner`). Can only be called by the current owner."
      }
    },
    "version": 1
  },
  "userdoc": {
    "kind": "user",
    "methods": {},
    "version": 1
  }
}