{
  "contractName": "RoyaltyNFT",
  "abi": [
    {
      "inputs": [],
      "stateMutability": "nonpayable",
      "type": "constructor"
    },
    {
      "anonymous": false,
      "inputs": [
        {
          "indexed": true,
          "internalType": "address",
          "name": "owner",
          "type": "address"
        },
        {
          "indexed": true,
          "internalType": "address",
          "name": "approved",
          "type": "address"
        },
        {
          "indexed": true,
          "internalType": "uint256",
          "name": "tokenId",
          "type": "uint256"
        }
      ],
      "name": "Approval",
      "type": "event"
    },
    {
      "anonymous": false,
      "inputs": [
        {
          "indexed": true,
          "internalType": "address",
          "name": "owner",
          "type": "address"
        },
        {
          "indexed": true,
          "internalType": "address",
          "name": "operator",
          "type": "address"
        },
        {
          "indexed": false,
          "internalType": "bool",
          "name": "approved",
          "type": "bool"
        }
      ],
      "name": "ApprovalForAll",
      "type": "event"
    },
    {
      "anonymous": false,
      "inputs": [
        {
          "indexed": true,
          "internalType": "address",
          "name": "previousOwner",
          "type": "address"
        },
        {
          "indexed": true,
          "internalType": "address",
          "name": "newOwner",
          "type": "address"
        }
      ],
      "name": "OwnershipTransferred",
      "type": "event"
    },
    {
      "anonymous": false,
      "inputs": [
        {
          "indexed": true,
          "internalType": "bytes32",
          "name": "role",
          "type": "bytes32"
        },
        {
          "indexed": true,
          "internalType": "bytes32",
          "name": "previousAdminRole",
          "type": "bytes32"
        },
        {
          "indexed": true,
          "internalType": "bytes32",
          "name": "newAdminRole",
          "type": "bytes32"
        }
      ],
      "name": "RoleAdminChanged",
      "type": "event"
    },
    {
      "anonymous": false,
      "inputs": [
        {
          "indexed": true,
          "internalType": "bytes32",
          "name": "role",
          "type": "bytes32"
        },
        {
          "indexed": true,
          "internalType": "address",
          "name": "account",
          "type": "address"
        },
        {
          "indexed": true,
          "internalType": "address",
          "name": "sender",
          "type": "address"
        }
      ],
      "name": "RoleGranted",
      "type": "event"
    },
    {
      "anonymous": false,
      "inputs": [
        {
          "indexed": true,
          "internalType": "bytes32",
          "name": "role",
          "type": "bytes32"
        },
        {
          "indexed": true,
          "internalType": "address",
          "name": "account",
          "type": "address"
        },
        {
          "indexed": true,
          "internalType": "address",
          "name": "sender",
          "type": "address"
        }
      ],
      "name": "RoleRevoked",
      "type": "event"
    },
    {
      "anonymous": false,
      "inputs": [
        {
          "indexed": false,
          "internalType": "uint256",
          "name": "tokenId",
          "type": "uint256"
        },
        {
          "components": [
            {
              "internalType": "address payable",
              "name": "account",
              "type": "address"
            },
            {
              "internalType": "uint96",
              "name": "value",
              "type": "uint96"
            }
          ],
          "indexed": false,
          "internalType": "struct LibPart.Part[]",
          "name": "royalties",
          "type": "tuple[]"
        }
      ],
      "name": "RoyaltiesSet",
      "type": "event"
    },
    {
      "anonymous": false,
      "inputs": [
        {
          "indexed": true,
          "internalType": "address",
          "name": "from",
          "type": "address"
        },
        {
          "indexed": true,
          "internalType": "address",
          "name": "to",
          "type": "address"
        },
        {
          "indexed": true,
          "internalType": "uint256",
          "name": "tokenId",
          "type": "uint256"
        }
      ],
      "name": "Transfer",
      "type": "event"
    },
    {
      "inputs": [],
      "name": "BURNER_ROLE",
      "outputs": [
        {
          "internalType": "bytes32",
          "name": "",
          "type": "bytes32"
        }
      ],
      "stateMutability": "view",
      "type": "function"
    },
    {
      "inputs": [],
      "name": "DEFAULT_ADMIN_ROLE",
      "outputs": [
        {
          "internalType": "bytes32",
          "name": "",
          "type": "bytes32"
        }
      ],
      "stateMutability": "view",
      "type": "function"
    },
    {
      "inputs": [],
      "name": "MINTER_ROLE",
      "outputs": [
        {
          "internalType": "bytes32",
          "name": "",
          "type": "bytes32"
        }
      ],
      "stateMutability": "view",
      "type": "function"
    },
    {
      "inputs": [
        {
          "internalType": "address",
          "name": "to",
          "type": "address"
        },
        {
          "internalType": "uint256",
          "name": "tokenId",
          "type": "uint256"
        }
      ],
      "name": "approve",
      "outputs": [],
      "stateMutability": "nonpayable",
      "type": "function"
    },
    {
      "inputs": [
        {
          "internalType": "address",
          "name": "owner",
          "type": "address"
        }
      ],
      "name": "balanceOf",
      "outputs": [
        {
          "internalType": "uint256",
          "name": "",
          "type": "uint256"
        }
      ],
      "stateMutability": "view",
      "type": "function"
    },
    {
      "inputs": [
        {
          "internalType": "uint256",
          "name": "tokenId",
          "type": "uint256"
        }
      ],
      "name": "getApproved",
      "outputs": [
        {
          "internalType": "address",
          "name": "",
          "type": "address"
        }
      ],
      "stateMutability": "view",
      "type": "function"
    },
    {
      "inputs": [
        {
          "internalType": "uint256",
          "name": "id",
          "type": "uint256"
        }
      ],
      "name": "getRaribleV2Royalties",
      "outputs": [
        {
          "components": [
            {
              "internalType": "address payable",
              "name": "account",
              "type": "address"
            },
            {
              "internalType": "uint96",
              "name": "value",
              "type": "uint96"
            }
          ],
          "internalType": "struct LibPart.Part[]",
          "name": "",
          "type": "tuple[]"
        }
      ],
      "stateMutability": "view",
      "type": "function"
    },
    {
      "inputs": [
        {
          "internalType": "bytes32",
          "name": "role",
          "type": "bytes32"
        }
      ],
      "name": "getRoleAdmin",
      "outputs": [
        {
          "internalType": "bytes32",
          "name": "",
          "type": "bytes32"
        }
      ],
      "stateMutability": "view",
      "type": "function"
    },
    {
      "inputs": [
        {
          "internalType": "bytes32",
          "name": "role",
          "type": "bytes32"
        },
        {
          "internalType": "uint256",
          "name": "index",
          "type": "uint256"
        }
      ],
      "name": "getRoleMember",
      "outputs": [
        {
          "internalType": "address",
          "name": "",
          "type": "address"
        }
      ],
      "stateMutability": "view",
      "type": "function"
    },
    {
      "inputs": [
        {
          "internalType": "bytes32",
          "name": "role",
          "type": "bytes32"
        }
      ],
      "name": "getRoleMemberCount",
      "outputs": [
        {
          "internalType": "uint256",
          "name": "",
          "type": "uint256"
        }
      ],
      "stateMutability": "view",
      "type": "function"
    },
    {
      "inputs": [
        {
          "internalType": "bytes32",
          "name": "role",
          "type": "bytes32"
        },
        {
          "internalType": "address",
          "name": "account",
          "type": "address"
        }
      ],
      "name": "grantRole",
      "outputs": [],
      "stateMutability": "nonpayable",
      "type": "function"
    },
    {
      "inputs": [
        {
          "internalType": "bytes32",
          "name": "role",
          "type": "bytes32"
        },
        {
          "internalType": "address",
          "name": "account",
          "type": "address"
        }
      ],
      "name": "hasRole",
      "outputs": [
        {
          "internalType": "bool",
          "name": "",
          "type": "bool"
        }
      ],
      "stateMutability": "view",
      "type": "function"
    },
    {
      "inputs": [
        {
          "internalType": "address",
          "name": "owner",
          "type": "address"
        },
        {
          "internalType": "address",
          "name": "operator",
          "type": "address"
        }
      ],
      "name": "isApprovedForAll",
      "outputs": [
        {
          "internalType": "bool",
          "name": "",
          "type": "bool"
        }
      ],
      "stateMutability": "view",
      "type": "function"
    },
    {
      "inputs": [],
      "name": "name",
      "outputs": [
        {
          "internalType": "string",
          "name": "",
          "type": "string"
        }
      ],
      "stateMutability": "view",
      "type": "function"
    },
    {
      "inputs": [],
      "name": "owner",
      "outputs": [
        {
          "internalType": "address",
          "name": "",
          "type": "address"
        }
      ],
      "stateMutability": "view",
      "type": "function"
    },
    {
      "inputs": [
        {
          "internalType": "uint256",
          "name": "tokenId",
          "type": "uint256"
        }
      ],
      "name": "ownerOf",
      "outputs": [
        {
          "internalType": "address",
          "name": "",
          "type": "address"
        }
      ],
      "stateMutability": "view",
      "type": "function"
    },
    {
      "inputs": [],
      "name": "renounceOwnership",
      "outputs": [],
      "stateMutability": "nonpayable",
      "type": "function"
    },
    {
      "inputs": [
        {
          "internalType": "bytes32",
          "name": "role",
          "type": "bytes32"
        },
        {
          "internalType": "address",
          "name": "account",
          "type": "address"
        }
      ],
      "name": "renounceRole",
      "outputs": [],
      "stateMutability": "nonpayable",
      "type": "function"
    },
    {
      "inputs": [
        {
          "internalType": "bytes32",
          "name": "role",
          "type": "bytes32"
        },
        {
          "internalType": "address",
          "name": "account",
          "type": "address"
        }
      ],
      "name": "revokeRole",
      "outputs": [],
      "stateMutability": "nonpayable",
      "type": "function"
    },
    {
      "inputs": [
        {
          "internalType": "uint256",
          "name": "",
          "type": "uint256"
        },
        {
          "internalType": "uint256",
          "name": "",
          "type": "uint256"
        }
      ],
      "name": "royalties",
      "outputs": [
        {
          "internalType": "address payable",
          "name": "account",
          "type": "address"
        },
        {
          "internalType": "uint96",
          "name": "value",
          "type": "uint96"
        }
      ],
      "stateMutability": "view",
      "type": "function"
    },
    {
      "inputs": [
        {
          "internalType": "address",
          "name": "from",
          "type": "address"
        },
        {
          "internalType": "address",
          "name": "to",
          "type": "address"
        },
        {
          "internalType": "uint256",
          "name": "tokenId",
          "type": "uint256"
        }
      ],
      "name": "safeTransferFrom",
      "outputs": [],
      "stateMutability": "nonpayable",
      "type": "function"
    },
    {
      "inputs": [
        {
          "internalType": "address",
          "name": "from",
          "type": "address"
        },
        {
          "internalType": "address",
          "name": "to",
          "type": "address"
        },
        {
          "internalType": "uint256",
          "name": "tokenId",
          "type": "uint256"
        },
        {
          "internalType": "bytes",
          "name": "_data",
          "type": "bytes"
        }
      ],
      "name": "safeTransferFrom",
      "outputs": [],
      "stateMutability": "nonpayable",
      "type": "function"
    },
    {
      "inputs": [
        {
          "internalType": "address",
          "name": "operator",
          "type": "address"
        },
        {
          "internalType": "bool",
          "name": "approved",
          "type": "bool"
        }
      ],
      "name": "setApprovalForAll",
      "outputs": [],
      "stateMutability": "nonpayable",
      "type": "function"
    },
    {
      "inputs": [],
      "name": "symbol",
      "outputs": [
        {
          "internalType": "string",
          "name": "",
          "type": "string"
        }
      ],
      "stateMutability": "view",
      "type": "function"
    },
    {
      "inputs": [
        {
          "internalType": "uint256",
          "name": "tokenId",
          "type": "uint256"
        }
      ],
      "name": "tokenURI",
      "outputs": [
        {
          "internalType": "string",
          "name": "",
          "type": "string"
        }
      ],
      "stateMutability": "view",
      "type": "function"
    },
    {
      "inputs": [
        {
          "internalType": "address",
          "name": "from",
          "type": "address"
        },
        {
          "internalType": "address",
          "name": "to",
          "type": "address"
        },
        {
          "internalType": "uint256",
          "name": "tokenId",
          "type": "uint256"
        }
      ],
      "name": "transferFrom",
      "outputs": [],
      "stateMutability": "nonpayable",
      "type": "function"
    },
    {
      "inputs": [
        {
          "internalType": "address",
          "name": "newOwner",
          "type": "address"
        }
      ],
      "name": "transferOwnership",
      "outputs": [],
      "stateMutability": "nonpayable",
      "type": "function"
    },
    {
      "inputs": [
        {
          "internalType": "address",
          "name": "_to",
          "type": "address"
        },
        {
          "internalType": "uint256",
          "name": "class",
          "type": "uint256"
        }
      ],
      "name": "mint",
      "outputs": [],
      "stateMutability": "nonpayable",
      "type": "function"
    },
    {
      "inputs": [
        {
          "internalType": "uint256",
          "name": "_tokenId",
          "type": "uint256"
        },
        {
          "internalType": "address payable",
          "name": "_royaltiesReceipientAddress",
          "type": "address"
        },
        {
          "internalType": "uint96",
          "name": "_percentageBasisPoints",
          "type": "uint96"
        }
      ],
      "name": "setRoyalties",
      "outputs": [],
      "stateMutability": "nonpayable",
      "type": "function"
    },
    {
      "inputs": [
        {
          "internalType": "uint256",
          "name": "_tokenId",
          "type": "uint256"
        },
        {
          "internalType": "uint256",
          "name": "_salePrice",
          "type": "uint256"
        }
      ],
      "name": "royaltyInfo",
      "outputs": [
        {
          "internalType": "address",
          "name": "receiver",
          "type": "address"
        },
        {
          "internalType": "uint256",
          "name": "royaltyAmount",
          "type": "uint256"
        }
      ],
      "stateMutability": "view",
      "type": "function"
    },
    {
      "inputs": [
        {
          "internalType": "bytes4",
          "name": "interfaceId",
          "type": "bytes4"
        }
      ],
      "name": "supportsInterface",
      "outputs": [
        {
          "internalType": "bool",
          "name": "",
          "type": "bool"
        }
      ],
      "stateMutability": "view",
      "type": "function"
    }
  ],
  "bytecode": "0x60806040526000600e553480156200001657600080fd5b50604080518082018252600b81527f47454e45525543204e465400000000000000000000000000000000000000000060208083019182528351808501909452600384527f474e46000000000000000000000000000000000000000000000000000000000090840152815191929162000091916000916200038c565b508051620000a79060019060208401906200038c565b505050620000d6620000c762000174640100000000026401000000009004565b64010000000062000178810204565b620000fe6000620000ef64010000000062000174810204565b640100000000620001ca810204565b620001367f9f2df0fed2c77648de5860a4cc508cd0818c85b8b8a1ab4ceeef8d981c8956a6620000ef64010000000062000174810204565b6200016e7f3c11d16cbaffd01df69ce1c404f6340ee057498f5f00246190ea54220576a848620000ef64010000000062000174810204565b62000488565b3390565b60088054600160a060020a03838116600160a060020a0319831681179093556040519116919082907f8be0079c531659141344cd1fd0a4f28419497f9722a3daafe3b4186f6b6457e090600090a35050565b620001e48282640100000000620011336200021182021704565b60008281526007602052604090206200020c90826401000000006200113d6200022a82021704565b505050565b62000226828264010000000062000253810204565b5050565b60006200024a83600160a060020a038416640100000000620002f1810204565b90505b92915050565b62000268828264010000000062000349810204565b62000226576000828152600660209081526040808320600160a060020a03851684529091529020805460ff19166001179055620002ad64010000000062000174810204565b600160a060020a031681600160a060020a0316837f2f8788117e7eff1d82e926ec794901d17c78024a50270940304540a733656f0d60405160405180910390a45050565b600062000308838364010000000062000374810204565b62000340575081546001818101845560008481526020808220909301849055845484825282860190935260409020919091556200024d565b5060006200024d565b6000918252600660209081526040808420600160a060020a0393909316845291905290205460ff1690565b60009081526001919091016020526040902054151590565b8280546200039a9062000432565b90600052602060002090601f016020900481019282620003be576000855562000409565b82601f10620003d957805160ff191683800117855562000409565b8280016001018555821562000409579182015b8281111562000409578251825591602001919060010190620003ec565b50620004179291506200041b565b5090565b5b808211156200041757600081556001016200041c565b6002810460018216806200044757607f821691505b6020821081141562000482577f4e487b7100000000000000000000000000000000000000000000000000000000600052602260045260246000fd5b50919050565b612c2380620004986000396000f3fe608060405234801561001057600080fd5b5060043610610202576000357c010000000000000000000000000000000000000000000000000000000090048063715018a61161012c578063b88d4fde116100bf578063d53913931161008e578063d5391393146104a0578063d547741f146104c7578063e985e9c5146104da578063f2fde38b1461051657600080fd5b8063b88d4fde14610447578063c87b56dd1461045a578063ca15c8731461046d578063cad96cca1461048057600080fd5b806391d14854116100fb57806391d148541461041157806395d89b4114610424578063a217fddf1461042c578063a22cb4651461043457600080fd5b8063715018a6146103a65780638924af74146103ae5780638da5cb5b146103ed5780639010d07c146103fe57600080fd5b8063282c51f3116101a457806340c10f191161017357806340c10f191461035a57806342842e0e1461036d5780636352211e1461038057806370a082311461039357600080fd5b8063282c51f3146102db5780632a55205a146103025780632f2ff15d1461033457806336568abe1461034757600080fd5b8063095ea7b3116101e0578063095ea7b31461026f578063143094db1461028457806323b872dd14610297578063248a9ca3146102aa57600080fd5b806301ffc9a71461020757806306fdde031461022f578063081812fc14610244575b600080fd5b61021a61021536600461261b565b610529565b60405190151581526020015b60405180910390f35b6102376105ae565b6040516102269190612830565b6102576102523660046125bb565b610640565b604051600160a060020a039091168152602001610226565b61028261027d36600461258f565b6106ee565b005b610282610292366004612655565b610826565b6102826102a536600461243b565b610911565b6102cd6102b83660046125bb565b60009081526006602052604090206001015490565b604051908152602001610226565b6102cd7f3c11d16cbaffd01df69ce1c404f6340ee057498f5f00246190ea54220576a84881565b6103156103103660046125f9565b610945565b60408051600160a060020a039093168352602083019190915201610226565b6102826103423660046125d4565b610a66565b6102826103553660046125d4565b610a88565b61028261036836600461258f565b610aaa565b61028261037b36600461243b565b610b64565b61025761038e3660046125bb565b610b7f565b6102cd6103a13660046123e5565b610c0d565b610282610caa565b6103c16103bc3660046125f9565b610ce3565b60408051600160a060020a0390931683526bffffffffffffffffffffffff909116602083015201610226565b600854600160a060020a0316610257565b61025761040c3660046125f9565b610d42565b61021a61041f3660046125d4565b610d61565b610237610d8c565b6102cd600081565b61028261044236600461255c565b610d9b565b61028261045536600461247c565b610e63565b6102376104683660046125bb565b610e98565b6102cd61047b3660046125bb565b610fb5565b61049361048e3660046125bb565b610fcc565b604051610226919061281d565b6102cd7f9f2df0fed2c77648de5860a4cc508cd0818c85b8b8a1ab4ceeef8d981c8956a681565b6102826104d53660046125d4565b611071565b61021a6104e8366004612402565b600160a060020a03918216600090815260056020908152604080832093909416825291909152205460ff1690565b6102826105243660046123e5565b61107b565b6000600160e060020a031982167f44c74bcc00000000000000000000000000000000000000000000000000000000141561056557506001919050565b600160e060020a031982167f2a55205a00000000000000000000000000000000000000000000000000000000141561059f57506001919050565b6105a882611152565b92915050565b6060600080546105bd90612ad8565b80601f01602080910402602001604051908101604052809291908181526020018280546105e990612ad8565b80156106365780601f1061060b57610100808354040283529160200191610636565b820191906000526020600020905b81548152906001019060200180831161061957829003601f168201915b5050505050905090565b600081815260026020526040812054600160a060020a03166106d25760405160e560020a62461bcd02815260206004820152602c60248201527f4552433732313a20617070726f76656420717565727920666f72206e6f6e657860448201527f697374656e7420746f6b656e000000000000000000000000000000000000000060648201526084015b60405180910390fd5b50600090815260046020526040902054600160a060020a031690565b60006106f982610b7f565b905080600160a060020a031683600160a060020a031614156107865760405160e560020a62461bcd02815260206004820152602160248201527f4552433732313a20617070726f76616c20746f2063757272656e74206f776e6560448201527f720000000000000000000000000000000000000000000000000000000000000060648201526084016106c9565b33600160a060020a03821614806107a257506107a281336104e8565b6108175760405160e560020a62461bcd02815260206004820152603860248201527f4552433732313a20617070726f76652063616c6c6572206973206e6f74206f7760448201527f6e6572206e6f7220617070726f76656420666f7220616c6c000000000000000060648201526084016106c9565b6108218383611190565b505050565b600854600160a060020a031633146108535760405160e560020a62461bcd0281526004016106c9906128a0565b604080516001808252818301909252600091816020015b604080518082019091526000808252602082015281526020019060019003908161086a57905050905081816000815181106108a7576108a7612b90565b6020026020010151602001906bffffffffffffffffffffffff1690816bffffffffffffffffffffffff168152505082816000815181106108e9576108e9612b90565b6020908102919091010151600160a060020a03909116905261090b848261120b565b50505050565b61091b33826113b0565b61093a5760405160e560020a62461bcd0281526004016106c9906128d5565b6108218383836114bb565b6000828152600960209081526040808320805482518185028101850190935280835284938493929190849084015b828210156109d85760008481526020908190206040805180820190915290840154600160a060020a03811682527401000000000000000000000000000000000000000090046bffffffffffffffffffffffff1681830152825260019092019101610973565b505050509050600081511115610a5657806000815181106109fb576109fb612b90565b60200260200101516000015161271082600081518110610a1d57610a1d612b90565b6020026020010151602001516bffffffffffffffffffffffff1686610a4291906129eb565b610a4c91906129d7565b9250925050610a5f565b60008092509250505b9250929050565b610a7082826116a6565b6000828152600760205260409020610821908261113d565b610a9282826116cc565b60008281526007602052604090206108219082611757565b610ad47f9f2df0fed2c77648de5860a4cc508cd0818c85b8b8a1ab4ceeef8d981c8956a633610d61565b610b495760405160e560020a62461bcd02815260206004820152602860248201527f457863657074696f6e3a206d7573742068617665206d696e74657220726f6c6560448201527f20746f206d696e7400000000000000000000000000000000000000000000000060648201526084016106c9565b600b819055610b6082610b5b600a5490565b61176c565b5050565b61082183838360405180602001604052806000815250610e63565b600081815260026020526040812054600160a060020a0316806105a85760405160e560020a62461bcd02815260206004820152602960248201527f4552433732313a206f776e657220717565727920666f72206e6f6e657869737460448201527f656e7420746f6b656e000000000000000000000000000000000000000000000060648201526084016106c9565b6000600160a060020a038216610c8e5760405160e560020a62461bcd02815260206004820152602a60248201527f4552433732313a2062616c616e636520717565727920666f7220746865207a6560448201527f726f20616464726573730000000000000000000000000000000000000000000060648201526084016106c9565b50600160a060020a031660009081526003602052604090205490565b600854600160a060020a03163314610cd75760405160e560020a62461bcd0281526004016106c9906128a0565b610ce160006118cd565b565b60096020528160005260406000208181548110610cff57600080fd5b600091825260209091200154600160a060020a03811692507401000000000000000000000000000000000000000090046bffffffffffffffffffffffff16905082565b6000828152600760205260408120610d5a908361192c565b9392505050565b6000918252600660209081526040808420600160a060020a0393909316845291905290205460ff1690565b6060600180546105bd90612ad8565b600160a060020a038216331415610df75760405160e560020a62461bcd02815260206004820152601960248201527f4552433732313a20617070726f766520746f2063616c6c65720000000000000060448201526064016106c9565b336000818152600560209081526040808320600160a060020a03871680855290835292819020805460ff191686151590811790915590519081529192917f17307eab39ab6107e8899845ad3d59bd9653f200f220920489ca2b5937696c31910160405180910390a35050565b610e6d33836113b0565b610e8c5760405160e560020a62461bcd0281526004016106c9906128d5565b61090b84848484611938565b600081815260026020526040902054606090600160a060020a0316610f285760405160e560020a62461bcd02815260206004820152602f60248201527f4552433732314d657461646174613a2055524920717565727920666f72206e6f60448201527f6e6578697374656e7420746f6b656e000000000000000000000000000000000060648201526084016106c9565b6000610f6460408051808201909152601f81527f68747470733a2f2f6578616d706c65646f6d61696e2f6d657461646174612f00602082015290565b90506000815111610f845760405180602001604052806000815250610d5a565b80610f8e8461196e565b604051602001610f9f929190612731565b6040516020818303038152906040529392505050565b60008181526007602052604081206105a890611aa7565b606060096000838152602001908152602001600020805480602002602001604051908101604052809291908181526020016000905b828210156110665760008481526020908190206040805180820190915290840154600160a060020a03811682527401000000000000000000000000000000000000000090046bffffffffffffffffffffffff1681830152825260019092019101611001565b505050509050919050565b610a928282611ab1565b600854600160a060020a031633146110a85760405160e560020a62461bcd0281526004016106c9906128a0565b600160a060020a0381166111275760405160e560020a62461bcd02815260206004820152602660248201527f4f776e61626c653a206e6577206f776e657220697320746865207a65726f206160448201527f646472657373000000000000000000000000000000000000000000000000000060648201526084016106c9565b611130816118cd565b50565b610b608282611ad7565b6000610d5a83600160a060020a038416611b5d565b6000600160e060020a031982167f5a05180f0000000000000000000000000000000000000000000000000000000014806105a857506105a882611bac565b6000818152600460205260409020805473ffffffffffffffffffffffffffffffffffffffff1916600160a060020a03841690811790915581906111d282610b7f565b600160a060020a03167f8c5be1e5ebec7d5bd14f71427d1e84f3dd0314c0f7b2291e5b200ac8c7c3b92560405160405180910390a45050565b60005b81518110156113a5576000600160a060020a031682828151811061123457611234612b90565b602002602001015160000151600160a060020a0316141561129a5760405160e560020a62461bcd02815260206004820152601b60248201527f526563697069656e742073686f756c642062652070726573656e74000000000060448201526064016106c9565b8181815181106112ac576112ac612b90565b6020026020010151602001516bffffffffffffffffffffffff16600014156113195760405160e560020a62461bcd02815260206004820181905260248201527f526f79616c74792076616c75652073686f756c6420626520706f73697469766560448201526064016106c9565b6000838152600960205260409020825183908390811061133b5761133b612b90565b6020908102919091018101518254600181018455600093845292829020815191909201516bffffffffffffffffffffffff167401000000000000000000000000000000000000000002600160a060020a03909116179101558061139d81612b16565b91505061120e565b50610b608282611bea565b600081815260026020526040812054600160a060020a031661143d5760405160e560020a62461bcd02815260206004820152602c60248201527f4552433732313a206f70657261746f7220717565727920666f72206e6f6e657860448201527f697374656e7420746f6b656e000000000000000000000000000000000000000060648201526084016106c9565b600061144883610b7f565b905080600160a060020a031684600160a060020a03161480611483575083600160a060020a031661147884610640565b600160a060020a0316145b806114b35750600160a060020a0380821660009081526005602090815260408083209388168352929052205460ff165b949350505050565b82600160a060020a03166114ce82610b7f565b600160a060020a03161461154d5760405160e560020a62461bcd02815260206004820152602960248201527f4552433732313a207472616e73666572206f6620746f6b656e2074686174206960448201527f73206e6f74206f776e000000000000000000000000000000000000000000000060648201526084016106c9565b600160a060020a0382166115cb5760405160e560020a62461bcd028152602060048201526024808201527f4552433732313a207472616e7366657220746f20746865207a65726f2061646460448201527f726573730000000000000000000000000000000000000000000000000000000060648201526084016106c9565b6115d6838383611c27565b6115e1600082611190565b600160a060020a038316600090815260036020526040812080546001929061160a908490612a7e565b9091555050600160a060020a03821660009081526003602052604081208054600192906116389084906129bf565b9091555050600081815260026020526040808220805473ffffffffffffffffffffffffffffffffffffffff1916600160a060020a0386811691821790925591518493918716917fddf252ad1be2c89b69c2b068fc378daa952ba7f163c4a11628f55a4df523b3ef91a4505050565b6000828152600660205260409020600101546116c28133611db2565b6108218383611ad7565b600160a060020a038116331461174d5760405160e560020a62461bcd02815260206004820152602f60248201527f416363657373436f6e74726f6c3a2063616e206f6e6c792072656e6f756e636560448201527f20726f6c657320666f722073656c66000000000000000000000000000000000060648201526084016106c9565b610b608282611e19565b6000610d5a83600160a060020a038416611e80565b600160a060020a0382166117c55760405160e560020a62461bcd02815260206004820181905260248201527f4552433732313a206d696e7420746f20746865207a65726f206164647265737360448201526064016106c9565b600081815260026020526040902054600160a060020a03161561182d5760405160e560020a62461bcd02815260206004820152601c60248201527f4552433732313a20746f6b656e20616c7265616479206d696e7465640000000060448201526064016106c9565b61183960008383611c27565b600160a060020a03821660009081526003602052604081208054600192906118629084906129bf565b9091555050600081815260026020526040808220805473ffffffffffffffffffffffffffffffffffffffff1916600160a060020a03861690811790915590518392907fddf252ad1be2c89b69c2b068fc378daa952ba7f163c4a11628f55a4df523b3ef908290a45050565b60088054600160a060020a0383811673ffffffffffffffffffffffffffffffffffffffff19831681179093556040519116919082907f8be0079c531659141344cd1fd0a4f28419497f9722a3daafe3b4186f6b6457e090600090a35050565b6000610d5a8383611f73565b6119438484846114bb565b61194f84848484611f9d565b61090b5760405160e560020a62461bcd0281526004016106c990612843565b6060816119ae57505060408051808201909152600181527f3000000000000000000000000000000000000000000000000000000000000000602082015290565b8160005b81156119d857806119c281612b16565b91506119d19050600a836129d7565b91506119b2565b60008167ffffffffffffffff8111156119f3576119f3612ba9565b6040519080825280601f01601f191660200182016040528015611a1d576020820181803683370190505b5090505b84156114b357611a32600183612a7e565b9150611a3f600a86612b31565b611a4a9060306129bf565b7f010000000000000000000000000000000000000000000000000000000000000002818381518110611a7e57611a7e612b90565b6020010190600160f860020a031916908160001a905350611aa0600a866129d7565b9450611a21565b60006105a8825490565b600082815260066020526040902060010154611acd8133611db2565b6108218383611e19565b611ae18282610d61565b610b60576000828152600660209081526040808320600160a060020a03851684529091529020805460ff19166001179055611b193390565b600160a060020a031681600160a060020a0316837f2f8788117e7eff1d82e926ec794901d17c78024a50270940304540a733656f0d60405160405180910390a45050565b6000818152600183016020526040812054611ba4575081546001818101845560008481526020808220909301849055845484825282860190935260409020919091556105a8565b5060006105a8565b6000600160e060020a031982167f7965db0b0000000000000000000000000000000000000000000000000000000014806105a857506105a8826120df565b7f3fa96d7b6bcbfe71ef171666d84db3cf52fa2d1c8afdb1cc8e486177f208b7df8282604051611c1b929190612932565b60405180910390a15050565b600160a060020a038316611cf957600b54600c6000611c45600a5490565b8152602081019190915260400160002055611c60606461217a565b600c6000611c6d600a5490565b8152602081019190915260400160002060010155611c8b606461217a565b600c6000611c98600a5490565b8152602081019190915260400160002060020155611cba600a80546001019055565b600160a060020a0382166000908152600d602090815260408083208484529091528120805460019290611cee90849061294b565b909155506108219050565b600160a060020a038216611d3b57600160a060020a0383166000908152600d602090815260408083208484529091528120805460019290611cee908490612a0a565b600160a060020a0383166000908152600d602090815260408083208484529091528120805460019290611d6f908490612a0a565b9091555050600160a060020a0382166000908152600d602090815260408083208484529091528120805460019290611da890849061294b565b9091555050505050565b611dbc8282610d61565b610b6057611dd481600160a060020a031660146121e3565b611ddf8360206121e3565b604051602001611df0929190612760565b60408051601f198184030181529082905260e560020a62461bcd0282526106c991600401612830565b611e238282610d61565b15610b60576000828152600660209081526040808320600160a060020a0385168085529252808320805460ff1916905551339285917ff6391f5c32d9c69d2a47ea670b442974b53935d1edc7fd64eb21e047a839171b9190a45050565b60008181526001830160205260408120548015611f69576000611ea4600183612a7e565b8554909150600090611eb890600190612a7e565b9050818114611f1d576000866000018281548110611ed857611ed8612b90565b9060005260206000200154905080876000018481548110611efb57611efb612b90565b6000918252602080832090910192909255918252600188019052604090208390555b8554869080611f2e57611f2e612b77565b6001900381819060005260206000200160009055905585600101600086815260200190815260200160002060009055600193505050506105a8565b60009150506105a8565b6000826000018281548110611f8a57611f8a612b90565b9060005260206000200154905092915050565b6000600160a060020a0384163b156120d4576040517f150b7a02000000000000000000000000000000000000000000000000000000008152600160a060020a0385169063150b7a0290611ffa9033908990889088906004016127e1565b602060405180830381600087803b15801561201457600080fd5b505af1925050508015612044575060408051601f3d908101601f1916820190925261204191810190612638565b60015b6120a1573d808015612072576040519150601f19603f3d011682016040523d82523d6000602084013e612077565b606091505b5080516120995760405160e560020a62461bcd0281526004016106c990612843565b805181602001fd5b600160e060020a0319167f150b7a02000000000000000000000000000000000000000000000000000000001490506114b3565b506001949350505050565b6000600160e060020a031982167f80ac58cd0000000000000000000000000000000000000000000000000000000014806121425750600160e060020a031982167f5b5e139f00000000000000000000000000000000000000000000000000000000145b806105a857507f01ffc9a700000000000000000000000000000000000000000000000000000000600160e060020a03198316146105a8565b600e80546000918261218b83612b16565b9091555050600e54604080514260208201526c010000000000000000000000003302918101919091526054810191909152829060740160408051601f1981840301815291905280516020909101206105a89190612b31565b606060006121f28360026129eb565b6121fd9060026129bf565b67ffffffffffffffff81111561221557612215612ba9565b6040519080825280601f01601f19166020018201604052801561223f576020820181803683370190505b5090507f30000000000000000000000000000000000000000000000000000000000000008160008151811061227657612276612b90565b6020010190600160f860020a031916908160001a9053507f7800000000000000000000000000000000000000000000000000000000000000816001815181106122c1576122c1612b90565b6020010190600160f860020a031916908160001a90535060006122e58460026129eb565b6122f09060016129bf565b90505b6001811115612393577f303132333435363738396162636465660000000000000000000000000000000085600f166010811061233157612331612b90565b1a7f01000000000000000000000000000000000000000000000000000000000000000282828151811061236657612366612b90565b6020010190600160f860020a031916908160001a90535060109094049361238c81612ac1565b90506122f3565b508315610d5a5760405160e560020a62461bcd02815260206004820181905260248201527f537472696e67733a20686578206c656e67746820696e73756666696369656e7460448201526064016106c9565b6000602082840312156123f757600080fd5b8135610d5a81612bc2565b6000806040838503121561241557600080fd5b823561242081612bc2565b9150602083013561243081612bc2565b809150509250929050565b60008060006060848603121561245057600080fd5b833561245b81612bc2565b9250602084013561246b81612bc2565b929592945050506040919091013590565b6000806000806080858703121561249257600080fd5b843561249d81612bc2565b935060208501356124ad81612bc2565b925060408501359150606085013567ffffffffffffffff808211156124d157600080fd5b818701915087601f8301126124e557600080fd5b8135818111156124f7576124f7612ba9565b604051601f8201601f19908116603f0116810190838211818310171561251f5761251f612ba9565b816040528281528a602084870101111561253857600080fd5b82602086016020830137600060208483010152809550505050505092959194509250565b6000806040838503121561256f57600080fd5b823561257a81612bc2565b91506020830135801515811461243057600080fd5b600080604083850312156125a257600080fd5b82356125ad81612bc2565b946020939093013593505050565b6000602082840312156125cd57600080fd5b5035919050565b600080604083850312156125e757600080fd5b82359150602083013561243081612bc2565b6000806040838503121561260c57600080fd5b50508035926020909101359150565b60006020828403121561262d57600080fd5b8135610d5a81612bd7565b60006020828403121561264a57600080fd5b8151610d5a81612bd7565b60008060006060848603121561266a57600080fd5b83359250602084013561267c81612bc2565b915060408401356bffffffffffffffffffffffff8116811461269d57600080fd5b809150509250925092565b600081518084526020808501945080840160005b838110156126fa5781518051600160a060020a031688528301516bffffffffffffffffffffffff1683880152604090960195908201906001016126bc565b509495945050505050565b6000815180845261271d816020860160208601612a95565b601f01601f19169290920160200192915050565b60008351612743818460208801612a95565b835190830190612757818360208801612a95565b01949350505050565b7f416363657373436f6e74726f6c3a206163636f756e7420000000000000000000815260008351612798816017850160208801612a95565b7f206973206d697373696e6720726f6c652000000000000000000000000000000060179184019182015283516127d5816028840160208801612a95565b01602801949350505050565b6000600160a060020a038087168352808616602084015250836040830152608060608301526128136080830184612705565b9695505050505050565b602081526000610d5a60208301846126a8565b602081526000610d5a6020830184612705565b60208082526032908201527f4552433732313a207472616e7366657220746f206e6f6e20455243373231526560408201527f63656976657220696d706c656d656e7465720000000000000000000000000000606082015260800190565b6020808252818101527f4f776e61626c653a2063616c6c6572206973206e6f7420746865206f776e6572604082015260600190565b60208082526031908201527f4552433732313a207472616e736665722063616c6c6572206973206e6f74206f60408201527f776e6572206e6f7220617070726f766564000000000000000000000000000000606082015260800190565b8281526040602082015260006114b360408301846126a8565b6000808212827f7fffffffffffffffffffffffffffffffffffffffffffffffffffffffffffffff0384138115161561298557612985612b45565b827f80000000000000000000000000000000000000000000000000000000000000000384128116156129b9576129b9612b45565b50500190565b600082198211156129d2576129d2612b45565b500190565b6000826129e6576129e6612b5e565b500490565b6000816000190483118215151615612a0557612a05612b45565b500290565b6000808312837f800000000000000000000000000000000000000000000000000000000000000001831281151615612a4457612a44612b45565b837f7fffffffffffffffffffffffffffffffffffffffffffffffffffffffffffffff018313811615612a7857612a78612b45565b50500390565b600082821015612a9057612a90612b45565b500390565b60005b83811015612ab0578181015183820152602001612a98565b8381111561090b5750506000910152565b600081612ad057612ad0612b45565b506000190190565b600281046001821680612aec57607f821691505b60208210811415612b105760e060020a634e487b7102600052602260045260246000fd5b50919050565b6000600019821415612b2a57612b2a612b45565b5060010190565b600082612b4057612b40612b5e565b500690565b60e060020a634e487b7102600052601160045260246000fd5b60e060020a634e487b7102600052601260045260246000fd5b60e060020a634e487b7102600052603160045260246000fd5b60e060020a634e487b7102600052603260045260246000fd5b60e060020a634e487b7102600052604160045260246000fd5b600160a060020a038116811461113057600080fd5b600160e060020a03198116811461113057600080fdfea2646970667358221220fb3412ff5f8e8d542b3672677979b81caee22674df0ed34c57c058393fed279d64736f6c63430008060033",
  "immutableReferences": {},
  "source": "//SPDX-License-Identifier: MIT\npragma solidity ^0.8.0;\n\nimport \"@openzeppelin/contracts/token/ERC721/ERC721.sol\";\nimport \"@openzeppelin/contracts/access/Ownable.sol\";\nimport \"@openzeppelin/contracts/access/AccessControlEnumerable.sol\";\nimport \"@openzeppelin/contracts/utils/Counters.sol\";\nimport \"../@rarible/royalties/contracts/impl/RoyaltiesV2Impl.sol\";\nimport \"../@rarible/royalties/contracts/LibPart.sol\";\nimport \"../@rarible/royalties/contracts/LibRoyaltiesV2.sol\";\n\ncontract RoyaltyNFT is ERC721, AccessControlEnumerable, Ownable, RoyaltiesV2Impl {\n    using Counters for Counters.Counter;\n    Counters.Counter private _tokenIdTracker;\n    \n    //Adds support for OpenSea\n    bytes4 private constant _INTERFACE_ID_ERC2981 = 0x2a55205a;\n\n    //Roles of monter and burner\n    bytes32 public constant MINTER_ROLE = keccak256(\"MINTER_ROLE\");\n    bytes32 public constant BURNER_ROLE = keccak256(\"BURNER_ROLE\");\n\n    //Used by _beforeTokenTransfer to catch the after minting\n    uint private classToMint;\n\n    //Example of struct to attach to any NFT created\n    struct NFT_Stats {\n        uint class;\n        uint stat01;\n        uint statnn;\n    }\n\n    //Mapping from NFT to struct\n    mapping(uint256 => NFT_Stats) private values;\n\n    // Mapping from owner address to token ID. It is used to quickly get all NFTs on an address\n    mapping(address => mapping(uint256 => int)) private _tokensByOwner;\n\n    //Generic random counter, used to add a bit more of entropy\n    uint randomNonce=0;\n\n    //Pseudo random. I think is enough for the game\n    function randMod(uint _modulus) internal returns(uint) {\n        randomNonce++; \n        return uint(keccak256(abi.encodePacked(block.timestamp, msg.sender, randomNonce))) % _modulus;\n    }\n\n    constructor() ERC721(\"GENERUC NFT\", \"GNF\")  {\n        _setupRole(DEFAULT_ADMIN_ROLE, _msgSender());\n\n        _setupRole(MINTER_ROLE, _msgSender());\n        _setupRole(BURNER_ROLE, _msgSender());\n    }\n\n    function mint(address _to, uint class) public {\n        require(hasRole(MINTER_ROLE, _msgSender()), \"Exception: must have minter role to mint\");\n        classToMint=class;\n        super._mint(_to, _tokenIdTracker.current()); \n    }\n\n    function _beforeTokenTransfer(address from, address to, uint256 tokenId) internal virtual override(ERC721) {\n        if(from==address(0)) {\n            //Minting, creates struct of stats\n            values[_tokenIdTracker.current()].class = classToMint;\n            values[_tokenIdTracker.current()].stat01 = randMod(100);\n            values[_tokenIdTracker.current()].statnn = randMod(100);\n            _tokenIdTracker.increment();\n\n            //Updates the _tokensByOwner mapping\n            _tokensByOwner[to][tokenId]+=1;\n        } else if(to==address(0)) {\n            //Burning\n\n            //Updates the _tokensByOwner mapping\n             _tokensByOwner[from][tokenId]-=1;\n        } else {\n            //Normal transfer\n\n            //Updates the _tokensByOwner mapping\n            _tokensByOwner[from][tokenId]-=1;\n            _tokensByOwner[to][tokenId]+=1;\n        }\n    }\n\n    function _baseURI() internal view virtual override returns (string memory) {\n        return \"https://exampledomain/metadata/\";\n    }\n\n    function setRoyalties(uint256 _tokenId, address payable _royaltiesReceipientAddress, uint96 _percentageBasisPoints) public onlyOwner {\n        LibPart.Part[] memory _royalties = new LibPart.Part[](1);\n        _royalties[0].value = _percentageBasisPoints;\n        _royalties[0].account = _royaltiesReceipientAddress;\n        _saveRoyalties(_tokenId, _royalties);\n    }\n\n    function royaltyInfo(uint256 _tokenId, uint256 _salePrice ) external view returns ( address receiver, uint256 royaltyAmount) {\n        LibPart.Part[] memory _royalties = royalties[_tokenId];\n        if(_royalties.length > 0) {\n            return(_royalties[0].account, (_salePrice * _royalties[0].value)/10000);\n        }\n        return (address(0), 0);\n    }\n\n    function supportsInterface(bytes4 interfaceId) public view virtual override(ERC721, AccessControlEnumerable) returns (bool) {\n        if (interfaceId == LibRoyaltiesV2._INTERFACE_ID_ROYALTIES) {\n            return true;\n        }\n\n        if(interfaceId == _INTERFACE_ID_ERC2981) {\n            return true;\n        }\n\n        return super.supportsInterface(interfaceId);\n    }\n}\n",
  "sourcePath": "/home/javi/ChainsOfGlory/contracts/Examples/RoyaltyERC721.sol",
  "compiler": {
    "name": "solc",
    "version": "0.8.6+commit.11564f7e.Emscripten.clang"
  },
  "schemaVersion": "3.4.3",
  "updatedAt": "2021-11-20T17:44:38.947Z",
  "devdoc": {
    "kind": "dev",
    "methods": {
      "approve(address,uint256)": {
        "details": "See {IERC721-approve}."
      },
      "balanceOf(address)": {
        "details": "See {IERC721-balanceOf}."
      },
      "getApproved(uint256)": {
        "details": "See {IERC721-getApproved}."
      },
      "getRoleAdmin(bytes32)": {
        "details": "Returns the admin role that controls `role`. See {grantRole} and {revokeRole}. To change a role's admin, use {_setRoleAdmin}."
      },
      "getRoleMember(bytes32,uint256)": {
        "details": "Returns one of the accounts that have `role`. `index` must be a value between 0 and {getRoleMemberCount}, non-inclusive. Role bearers are not sorted in any particular way, and their ordering may change at any point. WARNING: When using {getRoleMember} and {getRoleMemberCount}, make sure you perform all queries on the same block. See the following https://forum.openzeppelin.com/t/iterating-over-elements-on-enumerableset-in-openzeppelin-contracts/2296[forum post] for more information."
      },
      "getRoleMemberCount(bytes32)": {
        "details": "Returns the number of accounts that have `role`. Can be used together with {getRoleMember} to enumerate all bearers of a role."
      },
      "grantRole(bytes32,address)": {
        "details": "Overload {grantRole} to track enumerable memberships"
      },
      "hasRole(bytes32,address)": {
        "details": "Returns `true` if `account` has been granted `role`."
      },
      "isApprovedForAll(address,address)": {
        "details": "See {IERC721-isApprovedForAll}."
      },
      "name()": {
        "details": "See {IERC721Metadata-name}."
      },
      "owner()": {
        "details": "Returns the address of the current owner."
      },
      "ownerOf(uint256)": {
        "details": "See {IERC721-ownerOf}."
      },
      "renounceOwnership()": {
        "details": "Leaves the contract without owner. It will not be possible to call `onlyOwner` functions anymore. Can only be called by the current owner. NOTE: Renouncing ownership will leave the contract without an owner, thereby removing any functionality that is only available to the owner."
      },
      "renounceRole(bytes32,address)": {
        "details": "Overload {renounceRole} to track enumerable memberships"
      },
      "revokeRole(bytes32,address)": {
        "details": "Overload {revokeRole} to track enumerable memberships"
      },
      "safeTransferFrom(address,address,uint256)": {
        "details": "See {IERC721-safeTransferFrom}."
      },
      "safeTransferFrom(address,address,uint256,bytes)": {
        "details": "See {IERC721-safeTransferFrom}."
      },
      "setApprovalForAll(address,bool)": {
        "details": "See {IERC721-setApprovalForAll}."
      },
      "symbol()": {
        "details": "See {IERC721Metadata-symbol}."
      },
      "tokenURI(uint256)": {
        "details": "See {IERC721Metadata-tokenURI}."
      },
      "transferFrom(address,address,uint256)": {
        "details": "See {IERC721-transferFrom}."
      },
      "transferOwnership(address)": {
        "details": "Transfers ownership of the contract to a new account (`newOwner`). Can only be called by the current owner."
      }
    },
    "version": 1
  },
  "userdoc": {
    "kind": "user",
    "methods": {},
    "version": 1
  }
}