{
  "contractName": "Store",
  "abi": [
    {
      "anonymous": false,
      "inputs": [
        {
          "indexed": true,
          "internalType": "address",
          "name": "previousOwner",
          "type": "address"
        },
        {
          "indexed": true,
          "internalType": "address",
          "name": "newOwner",
          "type": "address"
        }
      ],
      "name": "OwnershipTransferred",
      "type": "event"
    },
    {
      "inputs": [],
      "name": "owner",
      "outputs": [
        {
          "internalType": "address",
          "name": "",
          "type": "address"
        }
      ],
      "stateMutability": "view",
      "type": "function"
    },
    {
      "inputs": [],
      "name": "renounceOwnership",
      "outputs": [],
      "stateMutability": "nonpayable",
      "type": "function"
    },
    {
      "inputs": [
        {
          "internalType": "uint256",
          "name": "",
          "type": "uint256"
        }
      ],
      "name": "storeGear",
      "outputs": [
        {
          "internalType": "uint256",
          "name": "class",
          "type": "uint256"
        },
        {
          "internalType": "uint256",
          "name": "slot",
          "type": "uint256"
        },
        {
          "internalType": "uint256",
          "name": "level",
          "type": "uint256"
        }
      ],
      "stateMutability": "view",
      "type": "function"
    },
    {
      "inputs": [
        {
          "internalType": "address",
          "name": "newOwner",
          "type": "address"
        }
      ],
      "name": "transferOwnership",
      "outputs": [],
      "stateMutability": "nonpayable",
      "type": "function"
    },
    {
      "inputs": [
        {
          "internalType": "address",
          "name": "equipmentAddress",
          "type": "address"
        }
      ],
      "name": "setEquipmentAddress",
      "outputs": [],
      "stateMutability": "nonpayable",
      "type": "function"
    },
    {
      "inputs": [
        {
          "internalType": "address",
          "name": "gameTokenAddress",
          "type": "address"
        }
      ],
      "name": "setGameCoinAddress",
      "outputs": [],
      "stateMutability": "nonpayable",
      "type": "function"
    },
    {
      "inputs": [
        {
          "components": [
            {
              "internalType": "uint256",
              "name": "class",
              "type": "uint256"
            },
            {
              "internalType": "uint256",
              "name": "slot",
              "type": "uint256"
            },
            {
              "internalType": "uint256",
              "name": "level",
              "type": "uint256"
            },
            {
              "internalType": "uint256[10]",
              "name": "stats",
              "type": "uint256[10]"
            }
          ],
          "internalType": "struct Equipment.gearStats",
          "name": "gear",
          "type": "tuple"
        }
      ],
      "name": "addGearToStore",
      "outputs": [],
      "stateMutability": "nonpayable",
      "type": "function"
    },
    {
      "inputs": [
        {
          "internalType": "uint256",
          "name": "index",
          "type": "uint256"
        }
      ],
      "name": "removeGearFromStore",
      "outputs": [],
      "stateMutability": "nonpayable",
      "type": "function"
    },
    {
      "inputs": [
        {
          "internalType": "uint256",
          "name": "index",
          "type": "uint256"
        }
      ],
      "name": "purchase",
      "outputs": [],
      "stateMutability": "nonpayable",
      "type": "function"
    }
  ],
  "bytecode": "0x608060405234801561001057600080fd5b50610033610025640100000000610038810204565b64010000000061003c810204565b61008c565b3390565b60008054600160a060020a03838116600160a060020a0319831681178455604051919092169283917f8be0079c531659141344cd1fd0a4f28419497f9722a3daafe3b4186f6b6457e09190a35050565b610edb8061009b6000396000f3fe608060405234801561001057600080fd5b50600436106100975760003560e060020a90048063a2846ad41161006a578063a2846ad4146100ec578063a84add18146100ff578063dc87a69814610112578063efef39a114610140578063f2fde38b1461015357600080fd5b80634cb991b91461009c578063715018a6146100b15780638da5cb5b146100b957806394553ff5146100d9575b600080fd5b6100af6100aa366004610c29565b610166565b005b6100af6101cb565b600054604051600160a060020a0390911681526020015b60405180910390f35b6100af6100e7366004610c7b565b610204565b6100af6100fa366004610c29565b610357565b6100af61010d366004610d0f565b6103b3565b610125610120366004610d0f565b610500565b604080519384526020840192909252908201526060016100d0565b6100af61014e366004610d0f565b610533565b6100af610161366004610c29565b6106f6565b600054600160a060020a0316331461019c5760405160e560020a62461bcd02815260040161019390610d8d565b60405180910390fd5b6002805473ffffffffffffffffffffffffffffffffffffffff1916600160a060020a0392909216919091179055565b600054600160a060020a031633146101f85760405160e560020a62461bcd02815260040161019390610d8d565b61020260006107ae565b565b600054600160a060020a031633146102315760405160e560020a62461bcd02815260040161019390610d8d565b61023a8161080b565b1561028a5760405160e560020a62461bcd02815260206004820152601b60248201527f456c656d656e742065786973747320696e2074686520617272617900000000006044820152606401610193565b600380546001810182556000919091528151600d9091027fc2575a0e9e593c00f959f8c92f12db2869c3395a3b0502d05e2516446f71f85b810191825560208301517fc2575a0e9e593c00f959f8c92f12db2869c3395a3b0502d05e2516446f71f85c82015560408301517fc2575a0e9e593c00f959f8c92f12db2869c3395a3b0502d05e2516446f71f85d8201556060830151839291610351917fc2575a0e9e593c00f959f8c92f12db2869c3395a3b0502d05e2516446f71f85e90910190600a610ba0565b50505050565b600054600160a060020a031633146103845760405160e560020a62461bcd02815260040161019390610d8d565b6001805473ffffffffffffffffffffffffffffffffffffffff1916600160a060020a0392909216919091179055565b600054600160a060020a031633146103e05760405160e560020a62461bcd02815260040161019390610d8d565b60035481106104345760405160e560020a62461bcd02815260206004820152601360248201527f496e646578206f7574206f6620626f756e6473000000000000000000000000006044820152606401610193565b6003805461044490600190610e0f565b8154811061045457610454610e73565b90600052602060002090600d02016003828154811061047557610475610e73565b600091825260209091208254600d9092020190815560018083015490820155600280830154908201556104b06003808301908401600a610bde565b5090505060038054806104c5576104c5610e5a565b600082815260208120600d600019909301928302018181556001810182905560028101829055906104f96003830182610c09565b5050905550565b6003818154811061051057600080fd5b60009182526020909120600d909102018054600182015460029092015490925083565b60035481106105875760405160e560020a62461bcd02815260206004820152601360248201527f496e646578206f7574206f6620626f756e6473000000000000000000000000006044820152606401610193565b60025460038054600160a060020a03909216916323b872dd913391309190869081106105b5576105b5610e73565b90600052602060002090600d02016003016009600a81106105d8576105d8610e73565b015460405160e060020a63ffffffff8616028152600160a060020a0393841660048201529290911660248301526044820152606401602060405180830381600087803b15801561062757600080fd5b505af115801561063b573d6000803e3d6000fd5b505050506040513d601f19601f8201168201806040525081019061065f9190610c59565b61066857600080fd5b60015460038054600160a060020a039092169163fb7f972c9133918590811061069357610693610e73565b90600052602060002090600d02016040518363ffffffff1660e060020a0281526004016106c1929190610d28565b600060405180830381600087803b1580156106db57600080fd5b505af11580156106ef573d6000803e3d6000fd5b5050505050565b600054600160a060020a031633146107235760405160e560020a62461bcd02815260040161019390610d8d565b600160a060020a0381166107a25760405160e560020a62461bcd02815260206004820152602660248201527f4f776e61626c653a206e6577206f776e657220697320746865207a65726f206160448201527f64647265737300000000000000000000000000000000000000000000000000006064820152608401610193565b6107ab816107ae565b50565b60008054600160a060020a0383811673ffffffffffffffffffffffffffffffffffffffff19831681178455604051919092169283917f8be0079c531659141344cd1fd0a4f28419497f9722a3daafe3b4186f6b6457e09190a35050565b6000805b600354811015610b97576003818154811061082c5761082c610e73565b60009182526020909120600d9091020154835114801561087357506003818154811061085a5761085a610e73565b90600052602060002090600d0201600101548360200151145b80156108a657506003818154811061088d5761088d610e73565b90600052602060002090600d0201600201548360400151145b80156108dc5750600381815481106108c0576108c0610e73565b600091825260209091206003600d909202010154606084015151145b80156109265750600381815481106108f6576108f6610e73565b90600052602060002090600d02016003016001600a811061091957610919610e73565b0154606084015160200151145b801561097057506003818154811061094057610940610e73565b90600052602060002090600d02016003016002600a811061096357610963610e73565b0154606084015160400151145b80156109b957506003818154811061098a5761098a610e73565b90600052602060002090600d02016003016003600a81106109ad576109ad610e73565b01546060848101510151145b8015610a035750600381815481106109d3576109d3610e73565b90600052602060002090600d02016003016004600a81106109f6576109f6610e73565b0154606084015160800151145b8015610a4d575060038181548110610a1d57610a1d610e73565b90600052602060002090600d02016003016005600a8110610a4057610a40610e73565b0154606084015160a00151145b8015610a97575060038181548110610a6757610a67610e73565b90600052602060002090600d02016003016006600a8110610a8a57610a8a610e73565b0154606084015160c00151145b8015610ae1575060038181548110610ab157610ab1610e73565b90600052602060002090600d02016003016007600a8110610ad457610ad4610e73565b0154606084015160e00151145b8015610b2c575060038181548110610afb57610afb610e73565b90600052602060002090600d02016003016008600a8110610b1e57610b1e610e73565b015460608401516101000151145b8015610b77575060038181548110610b4657610b46610e73565b90600052602060002090600d02016003016009600a8110610b6957610b69610e73565b015460608401516101200151145b15610b855750600192915050565b80610b8f81610e26565b91505061080f565b50600092915050565b82600a8101928215610bce579160200282015b82811115610bce578251825591602001919060010190610bb3565b50610bda929150610c14565b5090565b82600a8101928215610bce579182015b82811115610bce578254825591600101919060010190610bee565b506107ab90600a8101905b5b80821115610bda5760008155600101610c15565b600060208284031215610c3b57600080fd5b8135600160a060020a0381168114610c5257600080fd5b9392505050565b600060208284031215610c6b57600080fd5b81518015158114610c5257600080fd5b60006101a0808385031215610c8f57600080fd5b610c97610dc2565b83358152602080850135818301526040850135604083015285607f860112610cbe57600080fd5b610cc6610deb565b8060608701888689011115610cda57600080fd5b600095505b600a861015610cfe578035835260019590950194918301918301610cdf565b506060840152509095945050505050565b600060208284031215610d2157600080fd5b5035919050565b60006101c082019050600160a060020a03841682526020835481840152600180850154604085015260028501546060850152608084016003860160005b600a811015610d81578154835291840191908301908301610d65565b50505050509392505050565b6020808252818101527f4f776e61626c653a2063616c6c6572206973206e6f7420746865206f776e6572604082015260600190565b6040516080810167ffffffffffffffff81118282101715610de557610de5610e8c565b60405290565b604051610140810167ffffffffffffffff81118282101715610de557610de5610e8c565b600082821015610e2157610e21610e41565b500390565b6000600019821415610e3a57610e3a610e41565b5060010190565b60e060020a634e487b7102600052601160045260246000fd5b60e060020a634e487b7102600052603160045260246000fd5b60e060020a634e487b7102600052603260045260246000fd5b60e060020a634e487b7102600052604160045260246000fdfea26469706673582212206a8a3b30179b3fde7b88ed7a6d91c10d91978412afacd64e496947063bcdd84a64736f6c63430008060033",
  "immutableReferences": {},
  "source": "//SPDX-License-Identifier: MIT\r\npragma solidity ^0.8.0;\r\n\r\nimport \"./GameCoin.sol\";\r\nimport \"./Equipment.sol\";\r\n\r\ncontract Store is Ownable{\r\n\r\n    //***********************************\r\n    // SETUP AFTER DEPLOY\r\n    //***********************************\r\n    //SET EQUIPMENT ADDRESS\r\n    //SET TOKEN ADDRESS\r\n    //SET MINTER_ROLE FOR EQUIPMENT\r\n    //***********************************\r\n\r\n    //Game Token Address\r\n    Equipment private _equipment;\r\n\r\n    //Game Token Address\r\n    GameCoin private _gameCoin;\r\n\r\n    //Gear offered in the stores\r\n    //Administrators may update, delete or modify the content\r\n    //The store should read this array and populate the store acording to it\r\n    Equipment.gearStats[] public storeGear;\r\n\r\n    //GameToken Token Address\r\n    function setEquipmentAddress(address equipmentAddress) public onlyOwner {\r\n        _equipment=Equipment(equipmentAddress);\r\n    }\r\n\r\n    //GameToken Token Address\r\n    function setGameCoinAddress(address gameTokenAddress) public onlyOwner {\r\n        _gameCoin=GameCoin(gameTokenAddress);\r\n    }\r\n\r\n    //STORE FUNCTIONALITY\r\n    //\r\n    //Store is where the user may pay in game tokens for equipment\r\n\r\n    //Add an element to the store array\r\n    function addGearToStore(Equipment.gearStats memory gear) public onlyOwner {\r\n        require(!gearExistsInStore(gear), \"Element exists in the array\");\r\n        storeGear.push(gear);\r\n    }\r\n\r\n\r\n    //Remove an element from the store array\r\n    function removeGearFromStore(uint256 index) public onlyOwner {\r\n        require(index < storeGear.length, \"Index out of bounds\");\r\n\r\n        storeGear[index]= storeGear[ storeGear.length-1];\r\n        storeGear.pop();\r\n    }\r\n\r\n    //Manages the purchase\r\n    function purchase(uint256 index) external {\r\n        require(index < storeGear.length, \"Index out of bounds\");\r\n        require(_gameCoin.transferFrom(msg.sender, address(this), storeGear[index].stats[9]));\r\n\r\n        //Mint the gear to the payer\r\n        _equipment.mint(msg.sender, storeGear[index]);\r\n    }\r\n\r\n    function gearExistsInStore(Equipment.gearStats memory gear) internal view returns (bool) {\r\n        for(uint i=0; i<storeGear.length; i++) {\r\n            if( gear.class==storeGear[i].class &&\r\n                gear.slot==storeGear[i].slot &&\r\n                gear.level==storeGear[i].level &&\r\n                gear.stats[0]==storeGear[i].stats[0] &&\r\n                gear.stats[1]==storeGear[i].stats[1] &&\r\n                gear.stats[2]==storeGear[i].stats[2] &&\r\n                gear.stats[3]==storeGear[i].stats[3] &&\r\n                gear.stats[4]==storeGear[i].stats[4] &&\r\n                gear.stats[5]==storeGear[i].stats[5] &&\r\n                gear.stats[6]==storeGear[i].stats[6] &&\r\n                gear.stats[7]==storeGear[i].stats[7] &&\r\n                gear.stats[8]==storeGear[i].stats[8] &&\r\n                gear.stats[9]==storeGear[i].stats[9]\r\n                )\r\n                    return true;\r\n        }\r\n        return false;\r\n    }\r\n}",
  "sourcePath": "/home/javi/ChainsOfGlory/contracts/Store.sol",
  "compiler": {
    "name": "solc",
    "version": "0.8.6+commit.11564f7e.Emscripten.clang"
  },
  "schemaVersion": "3.4.3",
  "updatedAt": "2021-11-23T19:59:03.013Z",
  "devdoc": {
    "kind": "dev",
    "methods": {
      "owner()": {
        "details": "Returns the address of the current owner."
      },
      "renounceOwnership()": {
        "details": "Leaves the contract without owner. It will not be possible to call `onlyOwner` functions anymore. Can only be called by the current owner. NOTE: Renouncing ownership will leave the contract without an owner, thereby removing any functionality that is only available to the owner."
      },
      "transferOwnership(address)": {
        "details": "Transfers ownership of the contract to a new account (`newOwner`). Can only be called by the current owner."
      }
    },
    "version": 1
  },
  "userdoc": {
    "kind": "user",
    "methods": {},
    "version": 1
  }
}